:100000000C94A50D0C94CD0D0C94CD0D0C94CD0D30
:100010000C94CD0D0C94CD0D0C94CD0D0C94CD0DF8
:100020000C94CD0D0C94CD0D0C94CD0D0C94CD0DE8
:100030000C9464130C94CD0D0C94CD0D0C94E7131B
:100040000C94DA0F0C94CD0D0C94CD0D0C94CD0DB9
:100050000C94CD0D0C94CD0D0C94CD0D0C94CD0DB8
:100060000C94CD0D0C94A7120C94CD0D0C94CD0DC9
:100070000C94CD0D0C94CD0D0C94CD0D0C94CD0D98
:100080000C94CD0D0C94CD0D0C94CD0D8040000042
:100090000000000000000000000000000000000060
:1000A0000000000000000000000000000000000050
:1000B0000000000000000000000000000000000040
:1000C0000000000000000000000000000000000030
:1000D00000000000000000000080C0E0E0F0F8F840
:1000E000FCFCFCF8F8F8F040000000000080808084
:1000F0000000000000000000000000000000000000
:1001000000000080C0C0E0E0E0F0F0F0E0C00000DF
:10011000000000C0F8FFFF9F87838383838383836E
:10012000838383838383838383838383838383031F
:100130008380838383838383838383838383838392
:10014000838383838383838383C3E3733F1F00009D
:10015000000080E0F0F8FCFEFFFFFFFF7F3F1F1F65
:100160000F0783C3E1E1E0E0C0000E1F3F7F7FFF88
:10017000F3E0E0800000000000000000000080F0DC
:10018000FCFEFFFFFFFF7F3F0F03010101000000A6
:1001900080F0FEFFFFC7C1C1C1C1C1C1C1C1C1C1A2
:1001A000C1C1C1C1C1C1C1C1C1C1C1C101C1F0FE93
:1001B000FF3F0F070F0D0D0D1D19191919313131A1
:1001C0003171616161E1C1C1C18100000080E0F86D
:1001D000FCFFFFFFFF2F170F038180C0E0F0F8FC4A
:1001E000FEFFFFFFFFFFFF7F010000000000000097
:1001F00001010307070E1E1C3870E0F0F8FEFFFF38
:100200007F1F0F030001000000000000000000003D
:1002100000000000000000000000000000000000DE
:1002200000000000000000000000000000000000CE
:1002300000000000000000000000000000000000BE
:100240000000000000000000000000007EFFFFFF33
:10025000FFFFFFFBF8FCFCFEFF7F3F1F0F07C3FF04
:10026000FFFFFFFFFF7F070000000000000000000D
:100270000000000000C0E0F8FEFFFF7F1F0F1F3DE1
:100280007CF8F8F0E08000000000000000000000B2
:10029000000000000000000000000000000000005E
:1002A000000000000000000000000000000000004E
:1002B000000000000000000000000000000000003E
:1002C000000000000000000000000000000001012C
:1002D000010101030707070301000000E0FCFFFF25
:1002E000FFFFFF1F030000000000000000000000EF
:1002F000C0F078DE2713090E07030000000000009D
:10030000000001030F7FFFFC7878F8000000000078
:10031000000000000000808080808080808080005D
:1003200080800080800000000000000080808080CD
:1003300080808080808080808080808080800000BD
:1003400000000000000000000000000000000000AD
:1003500000000000000000000080F0FEFFFFFFFF33
:100360003F0F010000000000000000C0E0381E0F39
:100370000300010000000000000000000000000079
:100380000000000000000000000303010000000066
:100390000000000000000E0E020202020203030031
:1003A0000F0F000F0F080808080808080F0F0808AB
:1003B0000808080F0F000000000F0F0000000000E9
:1003C000000000000000000000000000000000002D
:1003D00000000000000000C0F8BFFFFFFF1F7F010A
:1003E0000000000000000000F0FCFF7F78300000FB
:1003F00000000000000000000000000000000000FD
:1004000000000000000000000000000000000000EC
:1004100000000000000000000000000000000000DC
:1004200000000000000000000000000000000000CC
:1004300000000000000000000000000000000000BC
:1004400000000000000000000000000000000000AC
:100450000000000000301C070E0F07010000000024
:10046000000000000000000000000000000000008C
:10047000000000000000000000000000000000007C
:10048000000000000000000000000000000000521A
:10049000554420454C45205448522041494C205257
:1004A00055442054485220454C452041494C204158
:1004B000494C20454C452054485220525544204137
:1004C000494C2054485220454C4520525544200068
:1004D00003010200040506070000000000000108F7
:1004E0001E640101081E6401010F32960A0A1E32C1
:1004F000966D656E75537461636B206F7665726679
:100500006C6F77006D656E75537461636B20756EEB
:10051000646572666C6F7700707265737320616ECC
:1005200079204B657900414C455254004D45535359
:10053000414745004C4F4144494E4700506C65616E
:100540007365207265736574207468656D005377F8
:10055000697463686573206E6F74206F666600202F
:100560004F6C642056657273696F6E20454550521A
:100570004F4D202020434845434B20534554544978
:100580004E47532F43414C494200416C61726D7399
:100590002044697361626C65640052657365742000
:1005A0007468726F74746C65005468726F74746CE4
:1005B00065206E6F742069646C650050726573739A
:1005C00020616E79206B657920746F20736B697080
:1005D00000414C45525400454550524F4D206C6FE0
:1005E00077206D656D004F46464142535255735218
:1005F0005525454C73454C25544873544825414C6A
:1006000073414C2550312050312550322050322535
:1006100050332050332500544852525544454C45E0
:1006200049443049443149443241494C4745415499
:10063000524E5357315357325357335357345357FE
:100640003553573653573753573853573953574104
:10065000535742535743004F4646004F4E20002DFC
:100660002D2D002D2D2D204348312043483220438D
:1006700048332043483420434835204348362043FC
:1006800048372043483820434839204348313043D5
:1006900048313143483132434831334348313443A0
:1006A0004831354348313643483137434831384380
:1006B000483139434832304348323143483232437B
:1006C0004832334348323443483235434832364364
:1006D0004832374348323843483239434833300090
:1006E0005031202050322020503320204D415820BE
:1006F00046554C4C43594331435943324359433394
:1007000050504D3150504D3250504D3350504D346B
:1007100050504D3550504D3650504D3750504D384B
:100720004348312043483220434833204348342053
:100730004348352043483620434837204348382033
:1007400043483920434831304348313143483132FE
:1007500043483133434831344348313543483136D7
:10076000002D2D2D2D00564552533A2056312E3452
:100770003739382D6572657A00444154453A203145
:10078000362E30392E323031310054494D453A2021
:1007900031303A31303A3231002053564E3A2074DB
:1007A00072756E6B2D7235333500204D4F443A20F3
:1007B000202053504B200012081200081C08080883
:1007C0001C08000008220049002208000000000068
:1007D000227F2200000008220049002208000008B1
:1007E000220049002208000000227F2200000000B1
:1007F00000082200490022080000081C0808081C04
:100800000800CA416F443A43904A1A546559F84067
:10081000A24C43528D58E93937387C3EB33E423FB3
:10082000C43F70756C736520746162206F76657269
:10083000666C6F770020202054546D004578704519
:100840007846466E654D656443727300544F54009C
:100850005354250053544B0054535700544D4500F6
:1008600053544154005B4D454E555D20746F2072CA
:1008700065667265736800537461636B2020202085
:100880002020202020206200746D61696E202020CD
:10089000202020202020206D7300746D7231204AAA
:1008A000697474657220202020757300746D723134
:1008B0004C6174206D696E20202020757300746D6A
:1008C00072314C6174206D61782020202075730096
:1008D0005354415432004D6F646500416C61726D38
:1008E000205761726E696E67004D656D6F72792079
:1008F0005761726E696E6700537769746368205739
:1009000061726E696E67005468726F74746C6520F2
:100910005761726E696E670053706C617368207303
:10092000637265656E004F4646004C6967687420C7
:100930006F6666206166746572004C696768742032
:1009400073776974636800466C617368206F6E200A
:1009500062656570004265657020636F756E7464D2
:100960006F776E004D696E75746520626565700005
:100970005468726F74746C65207265766572736505
:100980000053494E474F534D5046494C5400466919
:100990006C7465722041444300496E6163746976EA
:1009A00069747920616C61726D0042617474657262
:1009B00079207761726E696E6700436F6E74726141
:1009C000737400537065616B65722050697463685D
:1009D0000051756965744E6F4B65794E6F726D206D
:1009E0004C6F6E6720784C6F6E670042656570656E
:1009F00072004F776E6572204E616D650052414402
:100A0000494F2053455455500043616C004D756C5F
:100A10007469706C69657200636831636832636819
:100A200033636834006F6666202B3D203A3D006DCD
:100A30006F64652020202520737263202073770067
:100A4000536C61766500545241494E455200000393
:100A50000303030056455253494F4E005472696DCB
:100A60002D202B00204D656E75204578697420443B
:100A70006F776E20202055705269676874204C652E
:100A80006674004449414700424700414E410020FE
:100A90005B4D454E555D205748454E20444F4E45D1
:100AA0002000204D4F564520535449434B532F505F
:100AB0004F54532000205B4D454E555D205748450F
:100AC0004E20444F4E452000202020534554204DB9
:100AD0004944504F494E5420202000205B4D454E44
:100AE000555D20544F2053544152542020005354FC
:100AF0004152542043414C4942524154494F4E20A7
:100B00000043414C4942524154494F4E0066726580
:100B100065004D4F44454C53454C00434F4C2044D9
:100B20006972656374696F6E0041494C2044697253
:100B3000656374696F6E00454C4520446972656356
:100B400074696F6E0053776173682052696E670035
:100B5000436F6C6C656374697665002D2D2D2020C4
:100B600020313230202020313230582020313430B2
:100B70002020203930202020200053776173682006
:100B8000547970650048454C4920534554555000F0
:100B90000044454C455445204D4F44454C202020B1
:100BA0005B4D454E555D0054325468547269670080
:100BB000547261696E657200452E204C696D6974CE
:100BC0007300504F534E4547005368696674205375
:100BD000656C0050504D2046724C656E20202020E0
:100BE0006D53656300755365630034434820364395
:100BF000482038434820313043483132434831346B
:100C00004348313643480050504D2020205058581A
:100C100020202053494C565F4153494C565F425364
:100C2000494C565F435452414330390050726F74FF
:100C30006F005245544131323300426565702043A4
:100C40006E74005472696D205377004578702020CF
:100C500020457846696E6546696E6520204D65645D
:100C600069756D436F61727365005472696D2049D7
:100C70006E6300542D4578706F00542D5472696D69
:100C800000436F756E7420446F776E436F756E749A
:100C900020557020200054696D65722000547269DF
:100CA000676765720054696D6572004E616D65001D
:100CB0005345545550000009010000000000000693
:100CC00002004475706C69636174696E67206D6FB2
:100CD00064656C005B4D454E555D20205B45584971
:100CE000545D0059455320202020204E4F0044459C
:100CF0004C455445204D4F44454C004455504C49BB
:100D000043415445204D4F44454C0020414243440B
:100D100045464748494A4B4C4D4E4F50515253540B
:100D200055565758595A6162636465666768696ABF
:100D30006B6C6D6E6F707172737475767778797A8B
:100D4000303132333435363738395F2D2E006578FF
:100D5000702020252020737731207377320045588A
:100D6000504F2F44520000034452204869676800E6
:100D70004452204C6F77004452204D696400447205
:100D8000537732004472537731005765696768744E
:100D9000004578706F004558504F2F445200002D89
:100DA0002D2D783E30783C307C787C663E30663C39
:100DB000307C667C633120633220633320633420CF
:100DC000633520633620633720633820633920631E
:100DD0003130633131633132633133633134633104
:100DE00035633136002B2A52004D49584552005088
:100DF00072657373205B455849545D20746F2061A0
:100E0000626F7274004D6178206D6978657273202D
:100E100072656163683A200044454C455445204D55
:100E20004958205B4D454E555D00536C6F7720202F
:100E3000557000536C6F772020446F776E004465C7
:100E40006C61792055700044656C617920446F773E
:100E50006E0041646420202020204D756C74697000
:100E60006C795265706C61636520004D756C7470AF
:100E700078004F4646005761726E696E670053777F
:100E800069746368002D2D2D783E30783C307C7875
:100E90007C663E30663C307C667C63312063322069
:100EA0006333206334206335206336206337206347
:100EB000382063392063313063313163313263313B
:100EC000336331346331356331360043757276658F
:100ED00073004F4E204F4646005472696D004F46D6
:100EE000464F4E2000466C4D6F64657472696D000C
:100EF0004F666673657400466D5472696D56616C19
:100F00000057656967687400536F757263650045C3
:100F1000444954204D49582000494E5345525420CD
:100F20004D495820002D2D2D2D202020763E6F6616
:100F3000732020763C6F667320207C767C3E6F6643
:100F4000737C767C3C6F6673414E44202020204F9A
:100F5000522020202020584F522020202076313D42
:100F60003D7632207631213D76322076313E763222
:100F7000202076313C7632202076313E3D7632207C
:100F800076313C3D76322000535700435553544F41
:100F90004D2053574954434845530000025341469E
:100FA00045545920535749544348455300000201C2
:100FB0000203040102040301030204010304020109
:100FC00004020301040302020103040201040302F8
:100FD00003010402030401020401030204030103E8
:100FE00001020403010402030201040302040103D9
:100FF00004010203040201040102030401030204C8
:101000000201030402030104030102040302014379
:101010004C454152204D49584553205B4D454E5556
:101020005D002052455441004368616E6E656C203E
:101030004F726465720054454D504C415445530005
:10104000434F5059205452494D205B4D454E555DFC
:10105000002D2D2D494E56004C494D49545300004A
:101060000303030303030303030303030303030350
:101070000043560043555256455300505245534580
:101080005400454449542D3E0043555256450009ED
:10109000002D2D2D494E56004F46464F4E200045FF
:1010A0004550524F4D206F766572666C6F770045E4
:1010B0004550524F4D206F766572666C6F770067B2
:1010C000656E7772697465206572726F720045454E
:1010D00050524F4D20466F726D617474696E670097
:1010E00042616420454570726F6D204461746100F7
:1010F0004D4F44454C2020202020004D45202020ED
:101100002020202020005008500000000000000097
:10111000006F000007000700147F147F14242A7F4B
:101120002A12231308646236495522500005030031
:1011300000001C2241000041221C0014083E08143B
:1011400008083E0808005030000008080808080099
:10115000606000002010080402003E49453E000087
:10116000427F400062514946004149493600181407
:10117000127F0027454539003E4949320001790573
:10118000030036494936000649291E00003636005C
:10119000000056360000081422411414141414419F
:1011A00022140800020151090600060909067E09F9
:1011B00009097E7F494949363E414141227F4141EB
:1011C000221C7F494949417F090909013E4149499A
:1011D0007A7F0808087F00417F41002040413F019D
:1011E0007F081422417F404040407F020C027F7FF5
:1011F0000408107F3E4141413E7F090909063E41F6
:1012000051215E7F09192946264949493201017F4A
:1012100001013F4040403F1F2040201F3F403040E1
:101220003F63140814630708700807615149454378
:10123000007F41410002040810200041417F00046A
:1012400002010204404040404000010204002054DA
:101250005454787F48444438384444442038444403
:10126000487F3854545418087E0901020C525252D7
:101270003E7F0804047800447D40002040443D0047
:101280007F1028440000417F40007C041804787CD3
:101290000804047838444444387C141414080814AE
:1012A00014187C7C080404084854545420043F4417
:1012B00040203C4040207C1C2040201C3C402040E2
:1012C0003C44281028440C5050503C4464544C4436
:1012D000000836410000007F000000413608000889
:1012E00008221C08081C220808A0608000000000DA
:1012F00000000000000000000000FFFF00000000F0
:1013000000001F3F00003F1F00003030FFFF303063
:10131000FFFF30303078CCCCFFFFCCCC8C0C060FEC
:101320000F86C0E070381C0C3CFEC7E3F33B1E0C7C
:1013300000000000333B1F0F000000000000F0F829
:101340001C0E07030000000003070E1CF8F000004D
:101350003030E0C0FCFCC0E03030C0C0C0C0FCFC9D
:10136000C0C0C0C000000000000000000000C0C0FD
:10137000C0C0C0C0C0C0C0C000000000000000006D
:10138000000000000080C0E070381C0C000000006D
:1013900000000000000000000000383800000000DD
:1013A0000000000000000000000003033F3F0303B3
:1013B0003F3F03030C0C0C0C3F3F0C0C07030C0EBF
:1013C00007030100183C3C180F1F383133331E1E31
:1013D000333300000000000000000000000003079D
:1013E0000E1C38300000000030381C0E07030000CF
:1013F000030301000F0F00010303000000000F0FA3
:10140000000000000000333B1F0F00000000000040
:1014100000000000000000000000183C3C18000024
:1014200000000C0E07030100000000000000FCFE9D
:1014300087C3E377FEFC00000C0EFFFF00000000F6
:1014400000000C0E0783C3E77E3C00000303C3C308
:10145000C3E7FE3C0000C0E070381C0EFFFF000038
:101460003F3F33333373E3C30000FCFEC7C3C3C73E
:101470008E0C00000303C3E3733B1F0F00003CFE10
:10148000E7C3C3E7FE3C00003C7EE7C3C3E7FEFCC6
:101490000000183C3C18000000000000183C3C18FC
:1014A000000000000000C0E0F0381C0E07033030E0
:1014B000303030303030303003070E1C38F0E0C0B0
:1014C00000000C0E07030383C3E77E3C00000F1FE0
:1014D0003B3130381F0F000030303F3F30300000CC
:1014E00000003C3E37333130303000003030303097
:1014F00030391F0F00000303030303033F3F0000C5
:101500000C1C383030381F0F00000F1F38303039B6
:101510001F0F000000003F3F0000000000000F1FF1
:10152000393030391F0F0000000030381C0E07031F
:101530000000060F0F06000000000000333B1F0FE5
:10154000000000000000000103070E1C38300303F8
:10155000030303030303030330381C0E07030100D6
:1015600000000000000033330100000000003C7E5A
:10157000E7C3C3E77E3CF0F8DCCEC7C7CEDCF8F0AB
:10158000FFFFC3C3C3C3C3E7FE3CFCFE0703030363
:1015900003070E0CFFFF030303070E1CF8F0FFFF09
:1015A000C3C3C3C3C3C30303FFFFC3C3C3C3C3C313
:1015B0000303FCFE0703C3C3C3C7CECCFFFFC0C0F9
:1015C000C0C0C0C0FFFF00000303FFFF0303000013
:1015D000000000000303FFFF0303FFFFC0E0F0383B
:1015E0001C0E0703FFFF0000000000000000FFFFCB
:1015F0000E1CF8F81C0EFFFFFFFF3870E0C08000E3
:10160000FFFFFCFE070303030307FEFC00000000CE
:101610000000000000003F3F0000000000003F3FCE
:101620003F3F3030303030391F0F0F1F38303030EF
:1016300030381C0C3F3F303030381C0E07033F3F22
:1016400030303030303030303F3F0000000000009C
:1016500000000F1F3830303030303F3F3F3F000038
:10166000000000003F3F000030303F3F30300000BE
:101670000C1C383030381F0F00003F3F00010307BB
:101680000E1C38303F3F30303030303030303F3F4C
:101690000000000000003F3F3F3F00000001030347
:1016A0003F3F0F1F3830303030381F0FFFFFC3C3AC
:1016B000C3C3C3E77E3CFCFE070303030307FEFC32
:1016C000FFFFC3C3C3C3C3E77E3C3C7EE7C3C3C3C2
:1016D000C3C78E0C03030303FFFF03030303FFFFD2
:1016E000000000000000FFFFFFFF000000000000FE
:1016F000FFFFFFFF000000000000FFFF0F1F38F09A
:10170000E0E0F0381F0F3F7FE0C08080C0E07F3F07
:1017100003030383C3E3733B1F0F0000FFFF0303B7
:10172000030300000C1C3870E0C0800000000000C3
:1017300003030303FFFF000030381C0E07070E1CD5
:101740003830000000000000000000003F3F0000B3
:101750000000000000000F1F383033371E1C3F33DD
:101760003F3F000003070E1C38300C1C383030306F
:1017700030391F0F000000003F3F000000000F1F26
:101780003830303030381F0F03070E1C38381C0E2D
:1017900007030F1F38381F1F38381F0F3C3E070341
:1017A000010103073E3C000000013F3F0100000033
:1017B0003C3E373331303030303000003F3F303046
:1017C0003030000000000000000103070E0C000094
:1017D000303030303F3F00000000000000000000CB
:1017E000000030303030303030303030000003070F
:1017F0000E1C383000000000303030303070E0C057
:10180000FFFFC0E070303070E0C0C0E070303030BA
:1018100030300000C0E070303070E0C0FFFFC0E04A
:10182000703030303070E0C0C0C0FCFEC7C303076A
:101830000E0CF0F89C0C0C0C0C0CFCFCFFFFC0E038
:1018400070303070E0C000003030F3F30000000072
:10185000000000003030F3F30000FFFF0080C0E024
:101860007030000000000303FFFF00000000F0F0F4
:101870003070E0E07070E0C0F0F0C0E070303070C8
:10188000E0C0C0E0703030303070E0C000000000D8
:101890000000000000000C1E3F33333333333F3F62
:1018A0003F3F3030303030381F0F0F1F383030306E
:1018B00030381C0C0F1F3830303030303F3F0F1F96
:1018C0003B3333333333030300003F3F000000005A
:1018D0000000000133333333333B1F0F3F3F000021
:1018E000000000003F3F000030303F3F303000003C
:1018F0000C1C383030381F0F00003F3F03070F1C0F
:1019000038300000000030303F3F303000003F3FB3
:101910000000030300003F3F3F3F000000000000C5
:101920003F3F0F1F3830303030381F0FF0F030306D
:10193000303030F0E0C0C0E0F0303030E0C0F0F0E7
:10194000F0F0C0E070303070E0C0C0E0F030303017
:10195000303000003030FFFF303000000000F0F089
:10196000000000000000F0F0F0F0000000000000B7
:10197000F0F0F0F0000000000000F0F03070E0C087
:101980008080C0E07030F0F0800000000000F0F0D7
:101990003030303030B0F0F070300000C0E03C3E0D
:1019A0000703000000000000FFFF0000000000002F
:1019B00003073E3CE0C00000C0C0C0C00C1CF8F0F3
:1019C000E0C0C0E0F0F81C0CC0C0C0C03F3F030343
:1019D00003030303010000010303030303033F3F69
:1019E0003F3F00000000000000003031333333334C
:1019F000333F1E0C00000F1F383030381C0C0F1FF7
:101A0000383030381C0C3F3F03070E1C38381C0E92
:101A100007030F1F38381C1C38381F0F30381C0FB5
:101A200007070F1C3830000133333333333B1F0FAC
:101A300030383C3E373331303030000000010F1F6A
:101A400038300000000000003F3F000000000000B0
:101A500030381F0F01000000000000000C0E0703CB
:101A60000100000103070E0C000000004080080484
:101A700020100201F41A001B061B131B1A1B271B44
:101A8000321B3D1B01020304010204030103020493
:101A9000010304020104020301040302020103041E
:101AA000020104030203010402030401020401030E
:101AB00002040301030102040301040203020104FE
:101AC00003020401030401020304020104010203EE
:101AD00004010302040201030402030104030102DE
:101AE00004030201010203040103020404020301CE
:101AF0000403020153696D706C6520342D43480066
:101B0000542D43757400537469636B7920542D43CD
:101B1000757400562D5461696C00456C65766F6E66
:101B20005C44656C74610048656C6920536574752C
:101B300070004779726F2053657475700053657239
:101B4000766F2054657374002B1311241FBECFEFE2
:101B5000D0E1DEBFCDBF11E0A0E0B1E0EAEBFBEDEC
:101B600002C005900D92A833B107D9F71EE0A8E393
:101B7000B1E001C01D92A13EB107E1F71BE1CAE44B
:101B8000DBE104C02297FE010E94956DC834D107A5
:101B9000C9F70E94391C0C94DB6D0C940000209155
:101BA000000130910101233031053CF42F5F3F4F9C
:101BB00030930101209300010895709339046093DC
:101BC000380470933B0460933A0490933D048093EF
:101BD0003C0410923F0410923E044130510521F420
:101BE000509343044093420408959AE0899F9001E2
:101BF000112423553E4FC901089595E0899F900116
:101C0000112423513D4FC901089587E196E00895BD
:101C10008C3038F4E82FF0E0EE0FFF1FE95DFA4F4B
:101C20002CC0803188F4E82FF0E0EE0FFF1FDF01B9
:101C3000AE5ABE4FE15BFB4F0190F081E02D8D91DC
:101C40009C91E81BF90B0BC0843160F4E82FF0E0A5
:101C5000EE0FFF1FE15BFB4F0190F081E02DEE0FD7
:101C6000FF1F0EC0843218F0E0E0F0E009C0E82F5A
:101C7000F0E0EE0FFF1FE35FFA4F0190F081E02DDF
:101C8000CF010895E0914F04F0E0EE0FFF1FE95BF4
:101C9000FB4F8081918108959C01E0914F04F0E019
:101CA000EE0FFF1FEB5BFB4F918380838FEBF901FE
:101CB00009958091510490E06CE370E040E050E0C1
:101CC0000E94CF0D089580915004882341F48091A3
:101CD0006004882321F480916204882311F084E158
:101CE00005C08091DD04882321F081508093DD04BC
:101CF00008C08091630090E09695879581708093ED
:101D0000DE048091DE04089510926404109266044B
:101D100010926504109263040895E0EDF4E0E80F7A
:101D2000F11DE491F0E0EE0FFF1FEF51FB4F20811A
:101D30003181C9010895EF92FF920F931F93CF93C2
:101D4000DF9380917C0190E081709070C2E0D0E0E0
:101D5000C81BD90B10917E011170E1EFF4E0A1EEE8
:101D6000B4E040E050E0E12C78E0F72E042F842F1F
:101D7000806487B9369A349BFECF349A20893189A2
:101D80008D919C91119796958795820F931F8E7FC9
:101D900011969C938E9360817181260F371F369523
:101DA0002795318B208B84B195B1C417D50741F4A9
:101DB000043030F4112321F09701281B390BC9019D
:101DC000860F971F96958795819391934F5F5F4FED
:101DD00012964830510551F6DF91CF911F910F9126
:101DE000FF90EF9008958F929F92AF92BF92CF9203
:101DF000DF92EF92FF920F931F93DF93CF93CDB7B4
:101E0000DEB760970FB6F894DEBF0FBECDBFFE0100
:101E1000319680E1DF011D928A95E9F780917C017E
:101E200090E081709070A2E0B0E0A81BB90B7091B7
:101E30007E0171704F0121EEE22E24E0F22E40E08F
:101E400050E08D01000F111F0E0D1F1DA12C88E009
:101E5000B82E2EC0D7B8369A349BFECF349A84B1B0
:101E600095B1280F391F6F5F6430A1F7F4013183FA
:101E70002083C90196958795F70191838083A417E4
:101E8000B50759F4F3E0FC1540F0772331F09501E4
:101E9000281B390BF801318320834F5F5F4F22E00D
:101EA00030E0820E931EE20EF31E4830510549F0D9
:101EB000C42EF4012081318160E0E0E4DE2ED42ADA
:101EC000C9CF60960FB6F894DEBF0FBECDBFCF91DD
:101ED000DF911F910F91FF90EF90DF90CF90BF9017
:101EE000AF909F908F9008950F931F93CF93DF93A0
:101EF00080917C0190E08170907042E050E0481B3E
:101F0000590B60917E016170A1EEB4E020E030E0F9
:101F1000FA01EE0FFF1FEA0FFB1FC0E0D8E0722F9F
:101F2000822F806487B9369A349BFECF349A84B16D
:101F300095B1880F991F11969C938E934217530762
:101F400049F4743038F4662329F08E01081B190B0C
:101F5000118300832F5F3F4F129628303105F9F629
:101F6000DF91CF911F910F9108958EE587B9369A31
:101F7000349BFECF349A369A349BFECF349A84B188
:101F800095B1049640917804509179049A0163E0E8
:101F9000220F331F6A95E1F7241B350B820F931F25
:101FA00023E0969587952A95E1F79093790480939D
:101FB000780408951F920F920FB60F9211248F93F9
:101FC00080917A048F5F80937A048F910F900FBE77
:101FD0000F901F901895FC0115AE14AE17AE16AEFB
:101FE000E05CFF4F11921192119211921192119295
:101FF00011821082389611821082349611821082DA
:102000003C9611921192118210820895CF93DF9322
:10201000DC01AE5ABF4F8D919C911197A255B040F3
:10202000892B09F066C0FD01C0E0D0E0808191817C
:10203000892B09F057C0FE01EE0FFF1FEA0FFB1FAF
:10204000DC968D919C91DD9791838083FE0135967E
:10205000EE0FFF1FEA0FFB1FDE968D919C91DF971D
:1020600091838083FE013A96EE0FFF1FEA0FFB1F5C
:10207000A05CBF4F8D919C911197A054B04091836B
:102080008083FE013F96EE0FFF1FEA0FFB1FAE5B42
:10209000BF4F8D919C911197A254B0409183808342
:1020A0006496FE01EE0FFF1FEA0FFB1FAC5BBF4FF4
:1020B0008D919C911197A454B04091838083259673
:1020C000CC0FDD1FCA0FDB1FAA5BBF4F8D919C9108
:1020D000119799838883569611961C921E92AC553F
:1020E000B04042C021963296C530D10509F09ECF4E
:1020F0003EC0DC968D919C91DD9711969C938E93BA
:10210000DE968D919C91DF971B969C938E931A97E8
:10211000A05CBF4F8D919C911197A054B0405596F3
:102120009C938E935497AE5BBF4F8D919C9111976A
:10213000A254B0405F969C938E935E97AC5BBF4F6A
:102140008D919C911197A454B04099969C938E9335
:102150009897AA5BBF4F8D919C911197A654B04060
:10216000D3969C938E93D297CD010E94EB0FDF9173
:10217000CF910895CF93DF93DC01FC01EC016696CB
:1021800020E030E024303105C9F419961C921E92EB
:10219000189753961C921E9252975D961C921E920F
:1021A0005C9797961C921E929697D1961C921E92BF
:1021B000D097DB961C921E92DA9718C08281938189
:1021C000918380838485958593878287888199818F
:1021D000958B848B80A191A1978F868F8C899D8907
:1021E0009B8B8A8B8E8D9F8D9D8F8C8F2F5F3F4F0A
:1021F000329622962530310529F6DF91CF91089548
:10220000CF93DF93EC01CA5ADF4F88819981C6557D
:10221000D040019771F5C45BDF4F88819981CC5420
:10222000D0401816190674F4C85BDF4F8881C85473
:10223000D0409091E00E890F8093E00E87FF02C09E
:102240001B9A01C01B98DE01A25ABF4F8D919C9131
:102250001197FE01E05AFF4F019749F58081918166
:1022600018161906BCF4809165008460809365009F
:1022700023C01B98DE01A25ABF4F8D919C911197EC
:10228000019791F4FE01E05AFF4F80819181181669
:10229000190654F0809165008B7F809365001D9234
:1022A0001C921182108208C0FE01E05AFF4F80810B
:1022B00091810197918380832881398112161306B9
:1022C0002CF08AA99BA9019709F0E1C0C45BDF4FFC
:1022D00088819981CC54D040181619060CF4D7C0C7
:1022E000CA5ADF4F88819981C655D040892B09F0A1
:1022F000CEC06A857B85161617060CF05AC0621789
:10230000730709F456C080918501482F50E0C85BDF
:10231000DF4F240F351F39832883C854D04088816C
:102320009981681779073CF49C01261B370BB9018A
:10233000E0E0F0E004C0681B790BE1E0F0E0C85B8E
:10234000DF4F840F951F99838883C854D0408A85B6
:102350009B85480F591FC65BDF4F59834883CA547A
:10236000D0408C899D89C45BDF4F99838883CC548E
:10237000D0402E8D3F8DCC5ADF4F3983288326974E
:102380000E94436D69937993F983E883C055D040E7
:1023900088A599A5C85ADF4F99838883C855D0402E
:1023A0008AA99BA9C25ADF4F99838883CE55D04012
:1023B00034C0C85BDF4F265F3F4F80918501280FF7
:1023C000311D39832883C854D0408C899D89C45BD2
:1023D000DF4F99838883CC54D0408E8D9F8DCC5A0B
:1023E000DF4F99838883C455D04088A599A5C85AE2
:1023F000DF4F99838883C855D0408AA99BA9C25AC8
:10240000DF4F998388832E97198218821A921A9225
:10241000249719821882CA54D040CA5ADF4F41E02B
:1024200050E0598348832A9684EF91E0998388830A
:10243000289728813981C855D0402115310579F078
:10244000FE01E45AFF4F80819181892B41F4518331
:102450004083C65ADF4F39832883CA55D040DE01F6
:10246000A45ABF4F8D919C911197019769F4FE0179
:10247000E65AFF4F808191810197918380831816DE
:1024800019062CF01D921C92CE010E94BA10809168
:1024900011018150809311018F5F09F055C08CE8C4
:1024A00080931101FE01E45BFF4F20813181121600
:1024B00013065CF5CA5ADF4F88819981C655D04012
:1024C000019719F52150304031832083C25BDF4FE3
:1024D00028813981CE54D04012161306B4F4C05B63
:1024E000DF4F88819981C055D040FE01E85BFF4FE6
:1024F000019729F480819181820F931F04C080810C
:102500009181821B930B91838083C45BDF4F888111
:102510009981CC54D04018161906B4F0DE01AA5A9D
:10252000BF4F8D919C911197019771F4FE01EC5A68
:10253000FF4F8081918101979183808301961816C6
:10254000190614F01D921C92DF91CF910895789492
:102550001F920F920FB60F9211242F933F934F9318
:102560005F936F937F938F939F93AF93BF93EF93FB
:10257000FF932091800030918100F89480917D003C
:102580008F7D80937D0078948091DF049091E004AA
:10259000A901481B590B569547953093E0042093A9
:1025A000DF0420917704822F8150883048F5CA01DA
:1025B000815293408757954000F5E22FF0E0EE0FEF
:1025C000FF1FEB59FB4F4C5D5540809182019927CD
:1025D00087FD90950A96BC01469FC001479F900DCC
:1025E000569F900D11246AE070E00E94436D718344
:1025F00060832F5F209377040BC01092770408C08C
:10260000415A5F404F5D5E4218F481E08093770449
:10261000F89480917D00806280937D00FF91EF911E
:10262000BF91AF919F918F917F916F915F914F91EA
:102630003F912F910F900FBE0F901F901895E2EED3
:10264000FEE001C0319680818535E1F39F01215E76
:102650003E40C9010895809165008B7F809365009D
:10266000ABE7B4E0FD01749611961C921E921B9686
:102670001C921E921A97118210825F961C921E92D3
:102680005E97158A148A178E168E1296329684E0FB
:10269000A738B80749F7FD01FC96DD961C921E92FB
:1026A000DC97DF961C921E92DE97118A108A1582A3
:1026B000148217861686138A128A158A148ACD0107
:1026C0000C970E94EB0F08951F920F920FB60F9276
:1026D00011242F933F934F935F936F937F938F9327
:1026E0009F93AF93BF93EF93FF9390E08CB58A30A5
:1026F00008F065C09F5F923309F461C0F7CFC09ABC
:102700001092210504C0C09881E08093210580913A
:102710002C0790912D079C012417350708F49A0186
:1027200030932D0720932C0780911401909115016F
:102730009C014217530708F49A0130931501209326
:102740001401A0911201B0911301FD0181919191A9
:102750009BBD8ABDF0931301E093120112968D91F7
:102760009C911397892BA9F480E397E09093130130
:10277000809312018091A90181708093210587B710
:102780008F7E87BF78940E949322F89487B78061E8
:1027900087BF80915604816080935604FF91EF912A
:1027A000BF91AF919F918F917F916F915F914F9169
:1027B0003F912F910F900FBE0F901F9018954CB521
:1027C0005DB580912105882309F099CF9CCF78943D
:1027D0001F920F920FB60F9211242F933F934F9396
:1027E0005F936F937F938F939F93AF93BF93EF9379
:1027F000FF93F89487B78D7F87BF789481B78E5FFA
:1028000081BF8BE794E00E94001180913804909181
:102810003904181619060CF045C09093B80480933B
:10282000B70480913A0490913B049093BA0480934A
:10283000B90480913C0490913D049093BC04809332
:10284000BB0480913E0490913F049093BE0480931A
:10285000BD0481E090E09093CE048093CD048091FC
:102860004204909143048130910521F49093C20475
:102870008093C1048BE794E00E9406101092390403
:102880001092380410923B0410923A0410923D04C6
:1028900010923C0410923F0410923E0410924304A4
:1028A00010924204809110018150809310018F5F3B
:1028B00051F48DE4809310010E94276980915604A1
:1028C000826080935604F89487B7826087BFFF9137
:1028D000EF91BF91AF919F918F917F916F915F9198
:1028E0004F913F912F910F900FBE0F901F90189511
:1028F000AF92BF92CF92DF92EF92FF920F931F930E
:10290000CF93DF93D82EA42E85E0841708F4EFC070
:10291000DD2009F4EFC096E1D91609F4EAC08AEE89
:10292000D81609F4E4C02D2D332727FD3095C901B1
:1029300037FF04C088279927821B930B8A3084F4C1
:102940001D144CF08DE090E0821B930B0E947E687A
:1029500061E06827CFC0C9010D960E947E68A3C0C0
:10296000E82EFF24E7FCF09486EF9FEFE80EF91EB7
:10297000D701AA0FBB1FAE0DBF1DAD56BE4FA85A43
:10298000BD4F8C91A855B240882309F4B0C0FD0119
:10299000EA5AFD4FC080ED01C95ADD4FB88085303D
:1029A00008F4B4C0883028F400E010E0E0E0F0E083
:1029B0000AC08C2D81500E94080E8C0188818150A4
:1029C0000E94080EFC01E701CC0FDD1FCE0DDF1DBC
:1029D000C551DC4F2881283088F4253008F049C0E3
:1029E000223031F1233020F4213009F080C01CC0A6
:1029F000233011F1243009F07AC029C02A3009F4BB
:102A000062C02B3038F4283009F453C0293009F063
:102A10006EC054C02C3009F460C02C3008F458C08B
:102A20002D3009F064C05EC01D140CF44CC05AC0B7
:102A30001D140CF44DC051C020E0C80117FF03C0A5
:102A4000909581959F4FE817F90764F40AC020E03C
:102A5000C80117FF03C0909581959F4F8E179F0760
:102A60000CF421E01D1414F4622F44C061E06227CD
:102A700041C01A2D1F5F8C2D60E0412F0E947814F9
:102A8000082F8B2D60E0412F0E947814988195309B
:102A900031F4002361F1682F882361F12AC0963058
:102AA00021F4002331F5682F25C060E0081709F5EF
:102AB00021C060E00E171F07E9F41BC060E00E178D
:102AC0001F07B9F417C060E0E017F1079CF411C0CC
:102AD00060E00E171F0774F40CC060E00E171F07AC
:102AE0004CF007C060E0E017F10724F002C060E09E
:102AF00001C061E0862FDF91CF911F910F91FF9070
:102B0000EF90DF90CF90BF90AF9008958C2D8150C3
:102B10000E94080E8C01988189E29802F00111242C
:102B2000F595E795F595E79597FD915C96FB990FDF
:102B3000990B90F9892F992787FD9095E81BF90B40
:102B400042CF1F93CF93DF93682F782F7F707650FB
:102B50002091A50122306CF0332727FD30952150BC
:102B6000304081E090E002C0880F991F2A95E2F77B
:102B7000282F783008F089C0872F8595A82FB0E0DE
:102B8000FD01EE0FFF1FEE5FFE4F0190F081E02D83
:102B90001081222311F0422F10C0412F552747FDED
:102BA000509557FF03C0509541955F4F242F47FD27
:102BB0002D5F422F459545954F5F20917C0130E078
:102BC0002170307082E090E0821B930B8A179B0784
:102BD00011F050E00CC08091A4018F7011F450E00E
:102BE00002C044E051E080917E0180FD4195812F3B
:102BF000992787FD9095242F332727FD309570FF67
:102C000004C0E901C80FD91F03C0EC01C21BD30BDC
:102C1000209721F0812F8D2787FF10C0552371F455
:102C2000112361F01082862F0E940569809154045F
:102C300090E06CE370E041E050E024C0CE018458A5
:102C40009F4F893F910510F4C08307C01C161D06D5
:102C500014F083E801C08DE7808386E00E946A5DFE
:102C6000CE0183589F4F8B3F910570F4CE0164E0F5
:102C700070E00E94436D645C7F4F8091510490E04E
:102C800040E050E00E94CF0D60E0862FDF91CF91B1
:102C90001F9108951F93F8942091DC0E3091DD0E62
:102CA000789440E0809125059091260528173907F2
:102CB00009F041E040935D04F8948091DC0E90911E
:102CC000DD0E789490932605809325058BE595E09D
:102CD00060E00E94E32580915D04882309F415C11A
:102CE0008091630480FF14C090916404892F8F5FEA
:102CF00080936404843660F09356909364048091CA
:102D0000650490916604019690936604809365042F
:102D100080E00E947D5D0E94E0670E94EE670E9455
:102D2000A115182F80915E0490915F04009729F0FF
:102D3000019790935F0480935E04112389F0809142
:102D4000800190E024EF31E0AC01429FC001439F3D
:102D5000900D529F900D112490935F0480935E0418
:102D60008091690160E040E00E947814882339F482
:102D700080915E0490915F04892B09F4C4C0C79AC6
:102D80002091330530913405809158049091590475
:102D9000821B930B60E270E00E94436D70935B04B2
:102DA00060935A046115710591F08091230590910B
:102DB0002405821B930B62E070E00E94436D7093C8
:102DC0005B0460935A043093590420935804309361
:102DD000240520932305E0914F04F0E0EE0FFF1F40
:102DE000EB5BFB4F0190F081E02D812F09950E9454
:102DF000AD670E94630E882321F0809165008F7E6D
:102E000003C080916500806180936500F894809193
:102E1000DC0E9091DD0E78948F7190708230910568
:102E200021F0039709F071C057C0E7EDF4E0E49199
:102E3000F0E0EE0FFF1FEF51FB4F0190F081E02D0E
:102E4000CF0168E070E00E94436D8091680199278E
:102E500087FD909506969C01629FC001639F900D2F
:102E6000729F900D112420915C0430E02F5F3F4F42
:102E7000609178047091790454E0EE0FFF1F5A9529
:102E8000E1F78E0F9F1F0E94436D260F371F359568
:102E9000279520935C0480912205805E8093220513
:102EA000882399F580916701281778F5223368F116
:102EB0008091550490E06CE370E041E050E00E94A6
:102EC000CF0D80917E0183FF20C082E390E090933C
:102ED0005F0480935E0419C080917B01869586957E
:102EE0008695877090E0BC01660F771F660F771F8D
:102EF000680F791F68527B4F81E594E045E050E010
:102F00000E94996D02C0C7983BCF1F9108950F93FF
:102F10001F9380917A0402B710917A048117C9F740
:102F2000E0917F01F0E0EE0FFF1FE65FFE4F0190A2
:102F3000F081E02D09950E94B50F0E944A168091FC
:102F40005604833019F4A8951092560440917A04DF
:102F500052B780917A044817C9F7912F80E0202F4B
:102F600030E0822B932B342F20E0452F50E0422B72
:102F7000532B20912E0730912F07481B590B4217D6
:102F8000530708F4A90150932F0740932E071F9170
:102F90000F9108958F929F92AF92BF92CF92DF923E
:102FA000EF92FF920F931F93CF93DF93182F7B0124
:102FB0004A015901C02E84FD04C004E0D02E05E072
:102FC00005C01F701066B5E0DB2E04E08D2D806615
:102FD000181761F08D2D8064181741F090915605F7
:102FE000992389F0133611F0133469F4E70121961F
:102FF0008091510490E066E470E040E050E00E946F
:10300000CF0D802F1CC0802F8066181761F0802F95
:103010008064181741F0992309F48DC0123619F015
:10302000123409F088C0E70121978091510490E0A3
:1030300062E370E040E050E00E94CF0D8D2D90E003
:103040000E947E68882351F0CC27DD27CE19DF0946
:10305000802F0E9405698D2D0E94056981149104BD
:1030600091F481E0A816B10471F4103661F4109265
:103070005605C0E0D0E0E114F10411F4C1E0D0E065
:1030800080E60E94056980915A0490915B04C81BF8
:10309000D90BAC16BD0674F4812F0E94056980918E
:1030A000530490E066E470E041E050E00E94CF0DF0
:1030B000E50110C0C815D9056CF4812F0E9405697F
:1030C0008091530490E062E370E041E050E00E94A0
:1030D000CF0DE401CE15DF05F1F02097A1F4812F8B
:1030E0000E94F668F7FE06C08091530490E066E403
:1030F00070E005C08091530490E062E370E041E02D
:1031000050E00E94CF0D8C2D83700E946A5D81E09B
:103110008093570402C010925704CE01DF91CF91E3
:103120001F910F91FF90EF90DF90CF90BF90AF90E5
:103130009F908F900895E70191CF0F93772767FDB8
:103140007095552747FD5095332727FD30950E94F0
:10315000CA170F9108950F93772767FD709555272C
:1031600047FD5095332727FD309501E00E94CA178F
:103170000F9108950F93772767FD7095552747FDA9
:103180005095332727FD309502E00E94CA170F9112
:1031900008950F931F938C010E94E06782E260E024
:1031A0004CE255E024E00E94516580E068E1A8010E
:1031B0000E948B650E94AD67809166010E94A367A3
:1031C0001F910F910895EF92FF920F931F93082F75
:1031D000F62E142FE22E442329F0463139F04A3ED0
:1031E00081F408C08A5F4FE556E007C08A5F4BE56F
:1031F00056E003C08A5F47E556E02E2D0E945165D8
:1032000023C0441F4427441F405E0E946464202F53
:103210002A5F412F552747FD509557FF03C0509512
:1032200041955F4F842F992787FD90950197AC01B9
:10323000440F551F480F591F495E594F822F6F2D5C
:1032400023E00E2D0E941F651F910F91FF90EF90BC
:103250000895DF92EF92FF920F931F93F82EE62EC0
:10326000D42E10919E01812F992787FD909597FF6D
:1032700003C0909581959F4F80319CF443E0840278
:10328000A00111244A515A4F8F2D6E2D23E00D2D90
:103290000E941F651F3F4CF58F2D86506E2D41E219
:1032A00021C0853274F411161CF4412F4F5002C016
:1032B000412F415F8F2D86506E2D2D2D0E94E318DA
:1032C00014C011161CF4412F445202C0412F4C5D12
:1032D0008F2D86506E2D2D2D0E94E3188F2D8E5E22
:1032E0006E2D4DE62D2D0E9464641F910F91FF906D
:1032F000EF90DF9008950F93022F50E0440F551F79
:10330000440F551F4D59594F24E00E941F650F91DE
:1033100008950F93942F022F442319F441E657E0A8
:103320001DC0453090F440917C0150E0440F551F82
:10333000440F551F41505040490F511D440F551F18
:10334000440F551F41575B4F09C0453250F450E0C0
:10335000440F551F440F551F4453594F24E00E94FA
:103360001F650F91089586B380958E77E1F70E94CF
:10337000EB670895FF920F931F938C01F62E0E9426
:10338000E06782E260E046E255E024E00E94516599
:1033900080E068E1A8010E948B658CE168E348E168
:1033A00055E00E948B650E94AD67FF2011F089E116
:1033B00002C0809166010E94A3678091550490E04D
:1033C0006CE370E041E050E00E94CF0D0E94B31921
:1033D00086B380958E77C9F480915604833019F4B2
:1033E000A895109256048091690160E040E00E9427
:1033F0007814882331F480918001882311F4FF2010
:1034000011F0C79AE5CFC798E3CF1F910F91FF90B6
:103410000895CF93DF93EC0190914F04892F8F5F34
:1034200080934F04853040F090934F0481EF94E0F7
:1034300060E00E94BA1915C08091510490E06CE3DD
:1034400070E040E050E00E94CF0DE0914F04F0E0CA
:10345000EE0FFF1FEB5BFB4FD183C0838FEBFE01B1
:103460000995DF91CF91089590914F04992319F414
:10347000882331F41EC0882319F4892F815001C09C
:1034800080E080934F048091510490E06CE370E001
:1034900040E050E00E94CF0DE0914F04F0E0EE0FCD
:1034A000FF1FEB5BFB4F0190F081E02D8EEB099548
:1034B000089584E095E060E00E94BA190895809133
:1034C0004404882351F08FE595E060E00E94BA192A
:1034D000809144048E7F80934404089580917B0101
:1034E00087FD07C0887329F48AE895E060E00E94B0
:1034F000BA19089580917B0182FD0AC00E94806004
:10350000883C910528F487ED95E060E00E94BA19A7
:1035100008951F93CF93DF9386B380958E7721E034
:1035200030E0682F70E0422FCB01022E02C095954B
:1035300087950A94E2F780FD06C04F5F2F5F3F4FEB
:103540002830310581F7142F11501630A8F5812F3E
:103550000E94235E882381F110936501812F0E94D0
:10356000715F81E00E946A5D0E94E06786E160E031
:1035700044E355E024E00E945165C3E9D1E01AE03C
:10358000812F68E1499124E00E946464155F183737
:10359000B9F70E94AD67809166010E94A367809190
:1035A0006901882321F480918001882311F0C79A52
:1035B00001C0C7980E94B319DF91CF911F91089560
:1035C000EF92FF920F931F938C017B010E94E067A3
:1035D00082E260E041ED55E024E00E94516580E028
:1035E00060E2A8010E948B6580E068E2A7010E946A
:1035F0008B6580E060E34BEB55E00E948B650E9499
:10360000AD67809166010E94A3670E94B3191F9164
:103610000F91FF90EF9008951F9380917B0181FDA2
:103620002EC08EE495E06CE375E00E94E01A1EE087
:103630000BC0113141F0812F8D5060E040E00E94BD
:103640007814882329F41F5F163198F31631B9F0E6
:1036500086B380958E7799F406C080918001882387
:1036600059F0C79A0AC08091690160E040E00E9469
:1036700078148823B1F7F1CFC7981EE0DCCF1F91F3
:1036800008950F931F93CF93DF9380917B0180FD6B
:1036900051C080917C0190E081709070C2E0D0E0D8
:1036A000C81BD90BFE01EE0FFF1FE85CFE4F018126
:1036B0001281005F1F4F87859089081B190B0E949C
:1036C000740FEC2FF0E0E053FB4F8491C82FD0E053
:1036D000CC0FDD1FCF51DB4F888199810817190767
:1036E0004CF586B380958E7729F512C00E94740F31
:1036F0008881998108171907ECF486B380958E7735
:10370000C9F40DC080918001882391F0C79AEECF53
:1037100089EA95E06AE975E00E94E01AE7CF8091B6
:10372000690160E040E00E947814882379F7EACFCD
:10373000C798DCCFDF91CF911F910F9108950F9320
:103740001F93CF93DF9380917E0184FD8DC0809184
:10375000690160E040E00E947814882329F4809198
:103760008001882309F473C0C79A0E94E06780E053
:1037700060E04CE850E020E000E00E94076480E058
:1037800068E349E851E02AE000E10E941F650E94D9
:10379000AD67809166010E94A3670E94B31900E0A3
:1037A0000E949B0E0F5F0032D9F720ED34E000E05D
:1037B00010E0F9018491E82FF0E0EE0FFF1FEF51C8
:1037C000FB4F80819181892F9927080F191F2F5F47
:1037D0003F4FF4E0243D3F0761F7F894C091DC0EC1
:1037E000D091DD0E7894C057DE4F27C00E949B0E0B
:1037F00020ED34E040E050E0F9018491E82FF0E062
:10380000EE0FFF1FEF51FB4F80819181892F992788
:10381000480F591F2F5F3F4FF4E0243D3F0761F7EA
:1038200086B380958E7701F540175107E9F411C0F2
:10383000809180018823B1F0C79AF8948091DC0EC2
:103840009091DD0E7894C817D90781F60DC0C798FE
:103850008CCF8091690160E040E00E947814882359
:1038600059F7E6CFC798E9CFDF91CF911F910F911C
:1038700008951F939FEF9ABB1BBA81E887BB8EE721
:1038800088BB8EE384BB81EC85BB11BA92BB88E018
:1038900082B987EF83B9109261001092620080E1D3
:1038A00080936400909365000E9468678091650032
:1038B0008B7F809365008AE590E09093B8048093B5
:1038C000B7048AE090E09093BC048093BB0481E04D
:1038D00090E09093C2048093C10482E090E09093C2
:1038E000C0048093BF049093BE048093BD048BE713
:1038F00094E00E94061080E487B985E886B987E0E5
:1039000083BF8CE981BF87B7836087BF1FBC8AE014
:103910008EBD10928B0082E880938A0080917D009A
:10392000806280937D00EDB7FEB7329785E502C0D7
:10393000808331974EE0E13EF40709F0C8F77894B0
:1039400081ED91E3909346048093450489E10E94C0
:10395000A3670E94A95F109165010E94891A0E94C5
:103960009F1B0E947A1A0E94740F0E94411B0E94A2
:103970000C1B0E946E1A0E945F1A0E94B31980EFFE
:1039800090E090937904809378040E9493222DE034
:1039900088E190E00FB6F894A89581BD0FBE21BDD7
:1039A0008BE595E060E00E94E3258AEC91E40E94BB
:1039B000091A81E00E94341A809166010E94A3676F
:1039C0008091800190E024EF31E0AC01429FC00182
:1039D000439F900D529F900D112490935F0480930C
:1039E0005E0480916501181729F081E00E946A5DEC
:1039F0000E94135E80ED97E09BBD8ABD80E186BF8B
:103A000087B7806187BF0E948717FDCF0F931F93F1
:103A1000062F122F206250E00E94486717FD07C052
:103A20008091B10E602F46E7212F0E9464641F91A0
:103A30000F910895242F40915C040E94061D089563
:103A4000BF92CF92DF92EF92FF920F931F93CF938B
:103A5000DF93D82EC62EEA01122FB02E57FF10C0CA
:103A600022FD02C08FE001C08CE19D2D981B892FA3
:103A70006C2D4DE2212F0E946464D095C195DF4FDB
:103A80002B2D21238D2D6C2D4AE30E946464812F00
:103A900090E0B4E0EB2EF12CE822F92212FD02C0F6
:103AA00020E001C022E0CE016CE370E00E94436D93
:103AB000AB011061822F8D0D6C2D212F02E00E9431
:103AC0005D66EF2811F421E101C02CE1CE016CE329
:103AD00070E00E94436DAC0180E1B82A822F8D0D09
:103AE0006C2D2B2D02E00E945D66DF91CF911F911E
:103AF0000F91FF90EF90DF90CF90BF90089599E2E3
:103B0000890290011124359527953595279587FDD4
:103B1000815C86FB880F880B80F9992787FD90953B
:103B2000281B390BC9010895209100013091010132
:103B3000233031053CF42F5F3F4F30930101209338
:103B400000010895709339046093380470933B0426
:103B500060933A0490933D0480933C0410923F0498
:103B600010923E044130510521F450934304409398
:103B700042040895EDEAF1E090E0808181508031C7
:103B800008F49F5F3A9682E0ED3EF807B1F7892F7F
:103B900008956F927F928F929F92AF92BF92CF9231
:103BA000DF92EF92FF920F931F933B017C0100E0A5
:103BB00010E08824992464E670E080E090E06619C3
:103BC000770988099909A80197010E94106D5B0186
:103BD0006C0182E390E0A0E0B0E0A80EB91ECA1E1E
:103BE000DB1EC801B7010E94106D0E94106DBC0160
:103BF00088279927A40193010E94106D24E09695CF
:103C00008795779567952A95D1F7A60EB71EC81E9A
:103C1000D91EC601B50124E630E040E050E00E9424
:103C2000566DC9011F910F91FF90EF90DF90CF90DB
:103C3000BF90AF909F908F907F906F900895FF926C
:103C40000F931F939C01AB016115710531F1FF24A6
:103C500097FF05C0FF24F394309521953F4F57FF00
:103C600010C000E014E066277727641B750BC801BD
:103C7000821B930B0E94C91D9801281B390BC90197
:103C800004C0C901BA010E94C91DFF2011F49C01A2
:103C900004C022273327281B390BC9011F910F911C
:103CA000FF900895282FEBE0FDE080E094919217BB
:103CB00031F03196992311F08F5FF8CF80E00895AD
:103CC000823410F080E20895E82FF0E0E55FF24FD3
:103CD000849108951092AE061092A7061092A6063F
:103CE0001092AB061092AA061092A9061092A8068E
:103CF0001092AD061092AC060895AF92BF92CF928B
:103D0000DF92EF92FF920F931F93CF93DF935B01AC
:103D10006C01C0E0D0E800E010E8EE24FF249E0132
:103D200040E050E0CA01B9010E94106DA616B70626
:103D3000C806D90610F4C027D12716950795089410
:103D4000E11CF11C80E1E816F10461F4CE01DF9181
:103D5000CF911F910F91FF90EF90DF90CF90BF9088
:103D6000AF900895C02BD12BDACF9C0140E0683092
:103D700008F041E070E0442371F0CB010897FC01AA
:103D800063E0EE0FFF1F6A95E1F7E80FF91FDF010F
:103D9000AF55BC4F0AC0FB01EE0FFF1FEE0FFF1F18
:103DA000E60FF71FDF01A758BC4FFD0180812050AF
:103DB0003C4F37FD0EC068E02030360784F04423C6
:103DC00019F484E090E002C088E090E0A80FB91FE9
:103DD0008C91992787FD9095582F442733C0442311
:103DE00031F0432FB9017070660F771F04C0432F65
:103DF0004695B9017170842F90E0FD01E80FF91F1D
:103E00008181992787FD90959B0135952795829F04
:103E1000A001839F500D929F500D112420813327C4
:103E200027FD309580E092E0861B970B959587954E
:103E3000BC01269FC001279F900D369F900D112435
:103E4000480F591FCA0169E170E00E94436DCB0120
:103E500008956F927F928F929F92BF92CF92DF923E
:103E6000EF92FF920F931F93CF93DF938091A9015D
:103E700081FD04C0C12C94E0D92E03C0C12C85E083
:103E8000D82EB090A301BB0C88E0B80E9091A6018B
:103E900084E69802A0011124485A5D4F66247724D5
:103EA000641A750A8091AC01992787FD909528EED8
:103EB00033E0829FB001839F700D929F700D11249B
:103EC00068537045641B750BCBE5D5E0E0E3F7E084
:103ED000AB2DB0E0AA0FBB1FAC0FBD1F88249924E7
:103EE0008C189D0808E512E0041B150B1BC02881E7
:103EF000398176012C153D050CF47901C701E814D0
:103F0000F9040CF4C401805A964F9301281B390B15
:103F1000620F731F51834083800F911F93838283AD
:103F200022963496CA17DB0711F7EB2DEE0FAE2F52
:103F3000B0E0AA0FBB1FA05DB84F4D935C93EF5F3D
:103F4000AE2FB0E0AA0FBB1FA05DB84F6D937C935E
:103F5000EF5FF0E0EE0FFF1FE05DF84F118210827F
:103F6000DF91CF911F910F91FF90EF90DF90CF9055
:103F7000BF909F908F907F906F900895EF92FF92E7
:103F80000F931F93DF93CF93CDB7DEB760970FB634
:103F9000F894DEBF0FBECDBF8091A90181FD03C0A3
:103FA00060E074E002C060E075E080EF80932A0971
:103FB00080910D0480932B0910922D0910922C09E9
:103FC00040E050E000271127061B170B7E010894E4
:103FD000E11CF11CFA01E55AFA4F0190F081E02D45
:103FE0009B01E617F7070CF49F01F701E40FF51F9B
:103FF000C801A02F892F021713071CF4C901A22F93
:10400000892FA08381834E5F5F4F4E30510511F79A
:10401000898180932E098A819B81292F2295207F77
:104020008F70822B80932F098C818295807F92954F
:104030009F70982B909330098D81809331098E81E8
:104040009F81292F2295207F8F70822B80933209A8
:1040500088858295807F92959F70982B90933309E5
:104060008985809334098A859B85292F2295207F15
:104070008F70822B809335098C858295807F9295F5
:104080009F70982B909336098D85809337098E8584
:104090009F85292F2295207F8F70822B809338094E
:1040A00088898295807F92959F70982B909339098B
:1040B00040E050E0AAE2B9E070E060E004E110E026
:1040C0003C91603111F4372F01C0730FFA01EE0FEC
:1040D000FF1FE05DF84F20E01183008330FD03C037
:1040E0008AE090E002C08EE190E0938382832F5FAC
:1040F0003496283011F0330FEFCF405F5F4F6F5F82
:10410000613111F01196DCCF60960FB6F894DEBFE6
:104110000FBECDBFCF91DF911F910F91FF90EF9018
:104120000895A0913B09B0913C09FD0181939193C1
:1041300013967C936E9312973296F0933C09E0931A
:104140003B090895882329F020E639E080E699E0CC
:1041500004C020EB34E080EB94E0A0913B09B091E7
:104160003C09FD018193919313963C932E931297F2
:104170003296F0933C09E0933B0908951F93182F62
:1041800082700E94A220812F81700E94A2201F9124
:104190000895CF92DF92FF920F931F93DF93CF93F7
:1041A00000D0CDB7DEB78091A201823019F0833004
:1041B00019F404C010E003C011E001C012E0209126
:1041C0005B0530915C0520503C4F220F331F8091DE
:1041D0005D0590915E0580509C4F880F991F892F37
:1041E000232F37FD20E087FD80E0022F20310CF0E7
:1041F0000FE0F82E2FE0281714F46FE0F62E2F2D85
:10420000332727FD3095802F992787FD90950996B4
:104210008217930714F40F2D0950C02EDD24C7FC1C
:10422000D094275F3F4F2C153D051CF457EFF52E1A
:10423000F00E80E797E1909331078093300780EB91
:1042400094E0909333078093320784E397E0909350
:104250003C0980933B0980E00E94BE20A0913B096D
:10426000B0913C0980E699E0FD018193919320EBA8
:1042700034E013963C932E931297DF0112969383AA
:10428000828313963C932E9312971496B0933C0915
:10429000A0933B09812F0E94BE201195C6019595E0
:1042A0008795959587958A830E94BE203A81131B36
:1042B000802F0E94BE20101B8F2D992787FD90957F
:1042C000959587959595879589830E94BE208981CC
:1042D000181B8F2D0E94BE20812F8F190E94BE2097
:1042E00080E00E94A220E0913B09F0913C0980E629
:1042F0009AEE92938293329611921192F0933C0926
:10430000E0933B090F900F90CF91DF911F910F9198
:10431000FF90DF90CF900895A0913B09B0913C09A8
:10432000882341F0FD0180E293E08193919380E442
:1043300096E007C0FD0180E496E08193919380E2CE
:1043400093E013969C938E9312973296F0933C09C8
:10435000E0933B0908950F931F93082F10E0802FDF
:1043600081700E948C211F5F06951830C1F71F9144
:104370000F910895482F18161CF0109255050895B6
:10438000282F332727FD309580915505281B3109AB
:10439000862F90E08217930724F4461B409355051F
:1043A000089506972817390724F44A5F461B40935F
:1043B000550508950F931F9380E397E090933C0970
:1043C00080933B0980913D0991E0892780933D09C5
:1043D000882309F454C080915B0590915C05885F47
:1043E0009B4F44E0969587954A95E1F78038910573
:1043F00010F08FE790E0182F20915D0530915E0559
:1044000037FD0FC0C901409635E0969587953A95DE
:10441000E1F78034910510F08FE390E0082F0064FD
:104420000FC080E190E0821B930B25E09695879565
:104430002A95E1F78034910510F08FE390E0082F82
:10444000812F0E94AB21802F0E94AB210127802F5A
:1044500090E09C0104E0359527950A95E1F714E07A
:10446000880F991F1A95E1F7822B0E94AB21A0912A
:104470003B09B0913C09FD0180E197E230C0809199
:104480005F059091600580509C4FB4E096958795AC
:10449000BA95E1F78038910510F08FE790E0082F8A
:1044A0000068802F0E94AB218EE80E94AB218EE82D
:1044B000082710E0C801A4E095958795AA95E1F733
:1044C000F4E0000F111FFA95E1F7802B0E94AB2159
:1044D000A0913B09B0913C09FD0180EB96E38193EB
:1044E000919380EA9FE013969C938E931297329655
:1044F000F0933C09E0933B09E0913B09F0913C09C2
:1045000011921192F0933C09E0933B09E053F7407C
:10451000EC38F1052CF082E298E060E00E94BA19D4
:104520001F910F9108958091A201853038F4823057
:1045300070F4882331F0813079F406C0853061F45D
:1045400009C00E94291F08950E94BE1F08950E945D
:10455000C92008950E94DA210895FF920F931F93B6
:10456000CF93DF93082F10919E01812F992787FD0C
:10457000909597FF03C0909581959F4FF82E24E268
:1045800028170CF03FC020914B0930914C098091C5
:10459000490990914A09282B392B80914D09909116
:1045A0004E09282B392B8091480990E0282B392B74
:1045B0008091450990E0282B392B232B39F4109258
:1045C000450917FF03C081E08093450911161CF4CB
:1045D000812F845202C0812F8C5D60E040E00E94F8
:1045E0007814282F882361F080914509882341F4AD
:1045F00090E080914809882309F491E0909348095C
:1046000020934509C0914B09D0914C092196D09334
:104610004C09C0934B09E0914909F0914A09E00F18
:10462000F11DF0934A09E0934909F8948091DC0E5A
:104630009091DD0E789420914D0930914E09821BA6
:10464000930B8436910508F484C12C593F4F309365
:104650004E0920934D09CF01BE010E942F6D062FF8
:10466000862F90E0AC014C9FC0014D9F900D5C9F48
:10467000900D1124E81BF90BF0934A09E0934909C6
:1046800010924C0910924B095FE05F151CF01092DC
:10469000480910C084E28F156CF011161CF4812FAC
:1046A0008F5002C0812F815F60E040E00E9478144B
:1046B000809348098091A4069091A5060196909355
:1046C000A5068093A406E091A606F091A706319670
:1046D000F093A706E093A606002349F08091AA066E
:1046E0009091AB0601969093AB068093AA068091B9
:1046F0004809882349F08091A8069091A90601965F
:104700009093A9068093A80606954091AC06509117
:10471000AD06400F511D5093AD064093AC0660911D
:10472000A0017091A1017093B0066093AF06309123
:104730009E01832F992787FD909597FF03C0909541
:1047400081959F4F882319F41092AE0622C08130C4
:1047500021F4CB018E1B9F0B18C0803170F480FFB9
:1047600007C0CA0154E0969587955A95E1F709C0AC
:104770008091AA069091AB0604C08091A806909102
:10478000A906AB01481B590BCA019093B006809350
:10479000AF068091AE06813041F0813018F0823052
:1047A00001F50FC03323E9F019C08091AF06909155
:1047B000B00618161906ACF06115710591F082E08B
:1047C0000EC08091AF069091B006855C9F4F1CF49F
:1047D00083E08093AE066115710519F481E0809342
:1047E000AE062091AF063091B006809146099091B7
:1047F00047098217930709F496C08091AE0681306D
:1048000009F07CC080917E0182FF5BC0672B09F4B8
:1048100058C02E31310561F482E0809360048091AC
:10482000530490E06CE370E041E050E00E94CF0D53
:104830008091AF069091B006449761F481E0809337
:1048400060048091530490E06CE370E041E050E03C
:104850000E94CF0D8091AF069091B0060A9749F45F
:104860008091530490E06CE370E041E050E00E94DE
:10487000CF0D8091AF069091B00604974CF48091D3
:10488000530490E06CE370E041E050E00E94CF0DF3
:1048900080917E0183FF15C08091AF069091B00694
:1048A0008E31910541F08431910529F08A309105CE
:1048B00011F0049734F482E390E090935F048093C6
:1048C0005E0480917E0181FF2EC080919F01209126
:1048D000AF063091B00680FF07C08091A001909193
:1048E000A101821B930B01C0C9016CE370E00E941F
:1048F0002F6D892BC1F48091530404C0823099F448
:104900008091540490E06CE370E041E050E00E943C
:10491000CF0D80917E0183FF06C082E390E09093EB
:104920005F0480935E042091AF063091B00630930F
:1049300047092093460980919F0180FF0AC080911A
:10494000A0019091A101821B930B9093B0068093DC
:10495000AF06DF91CF911F910F91FF900895809145
:104960009E01992787FD909597FF03C090958195AB
:104970009F4F82304CF180313CF5982F95958A30CD
:1049800034F4892F0E94F469E82FF0E004C0E92F85
:10499000FF27E7FDF0953197EE0FFF1FE95DFA4F16
:1049A0002081318180919E0187FF05C080E094E0E5
:1049B000821B930B03C0C90180509C4FE6E0969583
:1049C0008795EA95E1F702C080E090E00E94AD2271
:1049D00083E00E94F469E82FF0E0EE0FFF1FEB5D2B
:1049E000FA4F0190F081E02DE050FC4F66E0F69523
:1049F000E7956A95E1F780919F0182FF0AC0E53053
:104A0000F10538F080916304882319F483E08093E2
:104A1000630460914109709142096F5F7F4F709309
:104A200042096093410940913F09509140094E0F5E
:104A30005F1F5093400940933F09F8948091DC0E2A
:104A40009091DD0E78942091430930914409821BA6
:104A5000930B885E934060F1F8948091DC0E909106
:104A6000DD0E789490934409809343091092400995
:104A700010923F09109242091092410980912A0731
:104A800090912B07019690932B0780932A072091F2
:104A90002907E22FF0E0EF54F94FCA010E942F6D71
:104AA00060832F5F20932907283710F01092290781
:104AB00008950F931F93CF93DF9386E291E0EBE786
:104AC000F5E0DF019C011D9221503040E1F790910B
:104AD000A106CDEAD1E000E010E051E060E04881BD
:104AE000442309F440E1041750F5202F712F352F8E
:104AF0002F5F872F90E0FC01EE0FFF1FE80FF91FDB
:104B0000EE0FFF1FDF01A558BA4F11962C93119796
:104B10008C9181608C93E358FA4F30833F5F1496F9
:104B20006C937F5F241720F3802F8095042F952F9F
:104B30009F5F980F180F140F940F592F51507881C1
:104B40007723D1F1812F90E09C01220F331F280F92
:104B5000391FD901AA0FBB1FA558BA4F11964C9304
:104B6000119715966C9315978C9182608C93139680
:104B70005C9313975F5F8A85F9013196781741F44A
:104B8000EE0FFF1FE558FA4F108214961C920AC0D0
:104B9000EE0FFF1FE558FA4F50835F5F6F5F14966B
:104BA0006C936150952F6F5F2A96603219F4509381
:104BB000A10604C01F5F93CF9093A106DF91CF9110
:104BC0001F910F9108952F923F924F925F926F9293
:104BD0007F928F929F92AF92BF92CF92DF92EF928D
:104BE000FF920F931F93DF93CF93CDB7DEB76897F4
:104BF0000FB6F894DEBF0FBECDBF9F8B8E8B688F34
:104C000080915D04882309F47BC080915705882337
:104C100019F081508093570580917D01863F09F4FA
:104C20006FC080915C04823308F46AC080914408AC
:104C30008F5F80934408803158F0809145089091AF
:104C400046080196909346088093450810924408C0
:104C50002091BE073091BF078091BC079091BD079E
:104C6000280F391F8091C0079091C107280F391F65
:104C70008091C2079091C307280F391F8091470880
:104C800090914808A901481B590BCA0157FF03C05E
:104C9000909581959F4F8150914044F03093480802
:104CA0002093470810924608109245084091450805
:104CB0005091460880917D01992787FD90950A962D
:104CC00020E737E1BC01629FC001639F900D729F96
:104CD000900D112434E0969587953A95E1F7841765
:104CE000950770F4437050704130510549F480913C
:104CF000540490E06CE370E041E050E00E94CF0D7E
:104D00009090AB01992009F468C080917C0190E0FB
:104D1000FC01E170F0703196EE0FFF1FE95DFA4F74
:104D20000190F081E02D9C012270307081FD03C064
:104D3000A3E0B0E002C0A0E0B0E0AA0FBB1FA95DF5
:104D4000BA4FCD90DC90232B19F4A3E0B0E002C061
:104D5000A0E0B0E07F010027F7FC0095102FAA0F1C
:104D6000BB1FA95DBA4F6D917C91882777FD809517
:104D7000982F9601442737FD4095542F0E94106DBF
:104D80005B016C01C801B701A80197010E94106D79
:104D9000A60EB71EC81ED91E692D70E080E090E0F7
:104DA0000AE0660F771F881F991F0A95D1F724E63E
:104DB00030E040E050E00E94786DB901CA010E94E5
:104DC000106D6A157B058C059D0538F4C601B5018B
:104DD0000E947D1E988B8F8702C0188A1F86AF8520
:104DE000B889BD0180E090E024E630E040E050E08A
:104DF0000E94106D6A8B7B8B8C8B9D8B19E3612ECF
:104E000011E0712EB9E44B2EB3E05B2E198ACC244D
:104E1000DD2488249924B88D2B2E3324E1E02E2222
:104E200033241C2D8C2D0E948D0E9C01D3018D915D
:104E30009C911197281B390B121613062CF45C96C3
:104E4000ED91FC915D9705C0D3011E96ED91FC910B
:104E50001F97E436F10514F4E4E6F0E0B901882781
:104E600077FD8095982FAAE0660F771F881F991FFE
:104E7000AA95D1F79F01442737FD4095542F0E94F2
:104E8000786D7901BCEF21303B0724F4E12C5CEF15
:104E9000F52E07C0E4E020303E071CF0E12C44E092
:104EA000F42EF401E95DFA4FF182E082C7010F961A
:104EB0004F97F0F4F4E0CF16D1047CF4812F8F5F8C
:104EC0000E94F46990E0019721E030E002C0220FD7
:104ED000331F8A95E2F7C90108C081E090E00C2CED
:104EE00002C0880F991F0A94E2F73989382B398B51
:104EF000143008F08AC1222009F05EC080919F0121
:104F000081FF5AC08601000F111F0E581E4FD80195
:104F100011968C911197807C09F44EC08C918595E7
:104F20008595859561E040E00E947814882309F416
:104F300043C0D801EC91E770F0E0EE0FFF1FDF01F6
:104F4000A659BE4FE959FB4F808191812D913C912B
:104F5000821B930B62E070E00E94436DF601EE0F3E
:104F6000FF1FED58FE4F4081842F880F880F8595D5
:104F70008595992787FD9095FC016E9FC0016F9FD5
:104F8000900D7E9F900D11246FE170E00E94436DA3
:104F9000CB01880F991F880F991F4295469546951A
:104FA000437050E04130510529F04230510521F461
:104FB0007C0102C0E80EF91E2F853889232B79F178
:104FC00080917C01282F30E0C9018170907001969A
:104FD000C816D90651F021FD03C083E090E002C05D
:104FE00080E090E0C816D906D1F46091AB0170E082
:104FF00080E090E01AE0660F771F881F991F1A95CE
:10500000D1F79701442737FD4095542F0E94106D2A
:105010002A893B894C895D890E94786D7901D2018A
:105020008C9160E040E00E947814882311F400E045
:105030000BC0F201818160E040E00E947814882377
:1050400011F002E001C001E080917C0190E08170EC
:105050009070B2E0AB2EB12CA81AB90AAC14BD0402
:1050600061F58091A401807F41F1C70180509C4F80
:1050700062E070E00E94436DCB01E02FF0E0EE0FA4
:10508000FF1FEE0FFF1FA601440F551F9A0163E09B
:10509000220F331F6A95E1F7241B350BE20FF31F34
:1050A000E35CFC4F6081772767FD70950E941F1EAF
:1050B000DC01AA0FBB1F10E026C010E01E141F0465
:1050C0000CF011E0802F90E09601220F331FF901C0
:1050D000A3E0EE0FFF1FAA95E1F7E21BF30B880F89
:1050E000991F880F991FE80FF91FED56FE4FE10F2A
:1050F000F11DE655FE4F6081772767FD7095C7016A
:105100000E941F1EDC01E02FF0E0EE0FFF1FEE0FEC
:10511000FF1F9601220F331FC90143E0880F991F1B
:105120004A95E1F7821B930BE80FF91FED56FE4FEE
:10513000E10FF11DE455FE4F6081772767FD709503
:105140006C597F4F882777FD8095982F9D014427C4
:1051500037FD4095542F0E94106D24E630E040E06A
:1051600050E00E94786D7901AC14BD04B9F59091BE
:10517000A401892F807F09F416C720E03CEFE20EDE
:10518000F31E11C760E074E06E197F09882777FD70
:105190008095982FF501EE0FFF1FEE5FFE4F0190F7
:1051A000F081E02D2081332727FD3095432F532FA9
:1051B00023583F4F4F4F5F4F0E94106D20E038E063
:1051C00040E050E00E94786DC901DA01803038E09B
:1051D000930730E0A30730E0B30761F4F401EE5F1A
:1051E000FE4F0190F081E02D8081282F332727FD8D
:1051F000309501C09C01220F331FE1E0F0E0EC0F7D
:10520000FD1FE80DF91D31832083F401E454F84FAC
:10521000F182E0820894C11CD11C42E050E0640E8F
:10522000751E840E951E6EE070E0460E571E77E0E8
:10523000C716D10409F0F5CD1091A801898918236A
:10524000212F30E08091490890E082279327822324
:105250009323892B49F08091520490E06CE370E035
:1052600041E050E00E94CF0D1093490880E094E0A7
:105270009093CB078093CA079093CD078093CC0778
:1052800004ED402E07E0502EB20140E050E0FA015C
:10529000E959FB4FDA01A85CBE4F80819181D2961B
:1052A0002D913C91D397821B930B880F991FDB01A3
:1052B0008D939D93BD014E5F5F4F4830510539F787
:1052C00080916F0490917004880F991F9093DD076F
:1052D0008093DC078091710490917204880F991F6C
:1052E0009093DF078093DE0780917304909174049C
:1052F000880F991F9093E1078093E00780917504D0
:1053000090917604880F991F9093E3078093E207AA
:10531000E4E0F8E0FA87E987A4EEB7E080819181C4
:105320008D939D93349628E0E434F207B9F790907A
:10533000AB01992009F4C1C080917C0190E0FC018F
:10534000E170F0703196EE0FFF1FE454F84F0190BA
:10535000F081E02D9C012270307081FD03C0A3E03C
:10536000B0E002C0A0E0B0E0AA0FBB1FA454B84F49
:10537000CD90DC90232B19F4A3E0B0E002C0A0E0B4
:10538000B0E07F010027F7FC0095102FAA0FBB1F8C
:10539000A454B84F6D917C91882777FD8095982F04
:1053A0009601442737FD4095542F0E94106D5B01F4
:1053B0006C01C801B701A80197010E94106DA60EEB
:1053C000B71EC81ED91E692D70E080E090E04AE04B
:1053D000660F771F881F991F4A95D1F724E630E0A2
:1053E00040E050E00E94786DB901CA010E94106D42
:1053F0006A157B058C059D0508F05FC0C601B501E7
:105400000E947D1EE0907C01FF24870101701070D6
:105410000F5F1F4F2091AB01A22EBB24CC24DD24B3
:105420003AE0AA0CBB1CCC1CDD1C3A95D1F7A0E0DD
:10543000B0E0BC01CD0124E630E040E050E00E9445
:10544000106D3B014C01000F111F0454184FD8017F
:105450002D913C91442737FD4095542FC601B5014D
:105460000E94106DA40193010E94786DF8013183B0
:105470002083E1FC05C0E3E0F0E003E010E004C0BD
:10548000E0E0F0E000E010E0000F111F0454184FBE
:10549000EE0FFF1FE454F84F20813181442737FD80
:1054A0004095542FC601B5010E94106DA4019301CF
:1054B0000E94786DD8012D933C934091A901842FCF
:1054C000807E09F4EFC020917C0130E0F901E170A9
:1054D000F0703196EE0FFF1FDE01AE0FBF1FE454D8
:1054E000F84F1196CD90DC90129780819181C80E73
:1054F000D91EC9018270907021FD03C0E3E0F0E085
:1055000002C0E0E0F0E0EE0FFF1FE454F84F20810E
:105510003181892B19F4E3E0F0E002C0E0E0F0E033
:10552000EE0FFF1FEC0FFD1F01811281020F131FF1
:10553000E091AA01EE2319F4EE24FF2407C0F0E065
:10554000EE0FFF1FE654F84FE080F18042FF04C0E9
:10555000D094C194D108D39443FF03C01095019512
:105560001F4F44FF04C0F094E194F108F39480913C
:10557000A90182958695877090E08230910589F126
:105580008330910524F4019709F08CC008C0833062
:10559000910509F45BC0049709F084C06FC0C8018D
:1055A00060E072E00E94436DFB01C80168E070E0BA
:1055B0000E94436D9B01C80160E870E00E94436D4A
:1055C000A801421B530B9A01261B370B2E1B3F0BC6
:1055D000C7018C199D099093CF078093CE07C60110
:1055E00021C0C60160E072E00E94436DFB01C6016C
:1055F00068E070E00E94436D9B01C60160E870E0C6
:105600000E94436DC601821B930B9C01261B370B26
:105610002E1B3F0BC701801B910B9093CF078093EC
:10562000CE07C80162E070E00E94436D6E0D7F1DE1
:10563000CB01820F931F9093D1078093D007621BF9
:10564000730B7093D3076093D2072CC0C7018C19DA
:105650009D099093CF078093CE07C7018C0D9D1DA8
:105660009C01200F311F3093D1072093D007801B5E
:10567000910B9093D3078093D20714C0C7018C1964
:105680009D099093CF078093CE07C701800F911F8C
:105690009093D1078093D007E01AF10AF092D307D4
:1056A000E092D20780915D04882311F00E94AF241C
:1056B00080E4E4E0F8E0DF011D928A95E9F7B88D17
:1056C000B1FF28C0ACEBB7E0FE01319620E030E03E
:1056D00042E050E080917C0190E081709070BA01CE
:1056E000681B790B6217730729F011961C921E92A2
:1056F000118210822F5F3F4F12963296243031056F
:1057000049F7D2011D921D922D01BCED4B16B7E059
:105710005B06B9F785E793E090930301809302015C
:1057200001969093050180930401019690930701DF
:1057300080930601019690930901809308015AE035
:10574000252E59E0352E4AE8642E48E0742E3AE4BE
:10575000432E38E0532E1E861D868D850E94F50D42
:105760005C01FC0180818150803108F0BEC28381E0
:1057700061E040E00E947814D1019C918823B9F443
:10578000192F1C92F5019181892F8850823008F0E1
:105790009BC287818E70843009F496C2993019F0CB
:1057A000CC24DD244FC0C12C2CEFD22E4BC010E0F6
:1057B000992309F411E081E0D1018C93F501318145
:1057C000832F8150A82FB0E0FD01EE0FFF1FE4549E
:1057D000F84FC080D180843158F0FD858F1740F498
:1057E000AA0FBB1FAA0FBB1FAC5FB74FCD90DC90B9
:1057F000D50117962C91822F807381F0822F82958C
:10580000837090E00197E1E0F0E002C0EE0FFF1F2F
:105810008A95E2F7CF01FE85F82BFE8726FF12C09E
:10582000353080F4E32FF0E0EE0FFF1FE050FF4F24
:1058300028E030E0A20EB31EB182A08248EF5FEFF5
:10584000A40EB51ED50117968C91179786FD08C03A
:1058500018968C91882321F00E947F1DC80ED91EB6
:10586000F5018681882321F48581882309F443C1C9
:10587000D3016D917D918D919C91112389F420E04C
:1058800031E040E050E00E94786D509540953095B1
:1058900021953F4F4F4F5F4F4601820E931E5AC0D6
:1058A000F50187818E70843049F5E081F0E0EE0FDC
:1058B000FF1FEE51F84F60817181882777FD809539
:1058C000982F20E034E640E050E00E94106DD301B4
:1058D0006D937D938D939C931397F50122812223E1
:1058E00069F0332727FD3095432F532F0E94786DA1
:1058F000D3012D933D934D935C931397F3016081F6
:1059000071818281938120E031E040E050E00E948B
:10591000786D50954095309521953F4F4F4F5F4F93
:105920004601820E931E81149104A1F0D5011596B3
:105930008C9197FE82958F7090E0FC0124E630E018
:10594000E29FC001E39F900DF29F900D1124D201C0
:105950008D939C93F201208131812115310551F005
:1059600080915D04882309F4BAC02150304031830E
:105970002083B5C08114910409F4BDC0F50186816E
:10598000882309F4B8C080915D04882309F475C0A8
:105990002281222329F460E070E080E293E017C0C6
:1059A000332727FD309537FF03C0309521953F4FB2
:1059B000332727FD3095432F532F60E070E080E2BE
:1059C00093E00E94786DC901DA01BC01CD01D501D7
:1059D00016962C91181419040CF52F70422F50E0D4
:1059E00041155105D9F1E4E6F0E04E9F90014F9F3B
:1059F000300D5E9F300D1124442737FD4095542F04
:105A00000E94786D79018A01F30180819181A281E0
:105A1000B381E80EF91E0A1F1B1F29C022952F70A3
:105A2000422F50E041155105C9F0A4E6B0E04A9F6D
:105A300090014B9F300D5A9F300D1124442737FDA4
:105A40004095542F0E94786DF301E080F18002812F
:105A50001381E21AF30A040B150B09C0C601AA2729
:105A600097FDA095BA2FEE24F82E092F1A2FD301F7
:105A7000ED92FD920D931C931397F3016081718158
:105A80008281938176010027F7FC0095102F18146E
:105A9000190464F420E031E040E050E00E94786DA9
:105AA000E216F3060407150764F019C020E031E0A0
:105AB00040E050E00E94786D2E153F0540075107E9
:105AC00074F4C601AA2797FDA095BA2FBA2FA92F63
:105AD000982F8827F30180839183A283B383D30116
