:100000000C94110D0C94390D0C94390D0C94390D80
:100010000C94390D0C94390D0C94390D0C94390D48
:100020000C94390D0C94390D0C94390D0C94390D38
:100030000C9416630C94390D0C94390D0C94E30E4A
:100040000C94370E0C94390D0C94390D0C94390D19
:100050000C94390D0C94390D0C94390D0C94390D08
:100060000C94390D0C94480E0C94390D0C94390DE8
:100070000C94390D0C94390D0C94390D0C94390DE8
:100080000C94390D0C94390D0C94390D79658E65ED
:10009000926596659A659E65A465AA65B165B56524
:1000A000BD65C365C865CD65D265D865DE65E365A8
:1000B000EE65FC65804000000000000000000000CC
:1000C0000000000000000000000000000000000030
:1000D0000000000000000000000000000000000020
:1000E0000000000000000000000000000000000010
:1000F0000000000000000000000000000000000000
:100100000080C0E0E0F0F8F8FCFCFCF8F8F8F04003
:10011000000000000080808000000000000000005F
:10012000000000000000000000000080C0C0E0E00F
:10013000E0F0F0F0E0C00000000000C0F8FFFF9F1A
:10014000878383838383838383838383838383837B
:1001500083838383838383038380838383838383F2
:10016000838383838383838383838383838383835F
:1001700083C3E3733F1F0000000080E0F0F8FCFE43
:10018000FFFFFFFF7F3F1F1F0F0783C3E1E1E0E099
:10019000C0000E1F3F7F7FFFF3E0E0800000000003
:1001A00000000000000080F0FCFEFFFFFFFF7F3F2B
:1001B0000F0301010100000080F0FEFFFFC7C1C175
:1001C000C1C1C1C1C1C1C1C1C1C1C1C1C1C1C1C11F
:1001D000C1C1C1C101C1F0FEFF3F0F070F0D0D0DE1
:1001E0001D191919193131313171616161E1C1C1D3
:1001F000C18100000080E0F8FCFFFFFFFF2F170F18
:10020000038180C0E0F0F8FCFEFFFFFFFFFFFF7FEF
:10021000010000000000000001010307070E1E1C82
:100220003870E0F0F8FEFFFF7F1F0F0300010000B1
:1002300000000000000000000000000000000000BE
:1002400000000000000000000000000000000000AE
:10025000000000000000000000000000000000009E
:10026000000000000000000000000000000000008E
:10027000000000007EFFFFFFFFFFFFFBF8FCFCFE1D
:10028000FF7F3F1F0F07C3FFFFFFFFFFFF7F070039
:1002900000000000000000000000000000C0E0F8C6
:1002A000FEFFFF7F1F0F1F3D7CF8F8F0E08000008D
:1002B000000000000000000000000000000000003E
:1002C000000000000000000000000000000000002E
:1002D000000000000000000000000000000000001E
:1002E000000000000000000000000000000000000E
:1002F00000000000000001010101010307070703DE
:1003000001000000E0FCFFFFFFFFFF1F03000000F3
:100310000000000000000000C0F078DE2713090E86
:100320000703000000000000000001030F7FFFFC36
:100330007878F800000000000000000000008080D5
:10034000808080808080800080800080800000002D
:10035000000000008080808080808080808080809D
:10036000808080808080000000000000000000008D
:10037000000000000000000000000000000000007D
:100380000080F0FEFFFFFFFF3F0F010000000000B4
:10039000000000C0E0381E0F030001000000000054
:1003A000000000000000000000000000000000004D
:1003B00000030301000000000000000000000E0E1A
:1003C00002020202020303000F0F000F0F080808C9
:1003D000080808080F0F08080808080F0F00000099
:1003E000000F0F00000000000000000000000000EF
:1003F000000000000000000000000000000000C03D
:10040000F8BFFFFFFF1F7F01000000000000000099
:10041000F0FCFF7F783000000000000000000000CA
:1004200000000000000000000000000000000000CC
:1004300000000000000000000000000000000000BC
:1004400000000000000000000000000000000000AC
:10045000000000000000000000000000000000009C
:10046000000000000000000000000000000000008C
:1004700000000000000000000000000000301C0729
:100480000E0F070100000000000000000000000047
:10049000000000000000000000000000000000005C
:1004A000000000000000000000000000000000004C
:1004B0000000000000000001020304010204030127
:1004C0000302040103040201040203010403020203
:1004D00001030402010403020301040203040102F4
:1004E00004010302040301030102040301040203E3
:1004F00002010403020401030401020304020104D3
:1005000001020304010302040201030402030104C3
:100510000301020403020152554420454C45205476
:1005200048522041494C20525544205448522045BD
:100530004C452041494C2041494C20454C452054D4
:100540004852205255442041494C2054485220459D
:100550004C452052554420000301020004050607C3
:100560006D656E75537461636B206F766572666C32
:100570006F77006D656E75537461636B20756E6483
:100580006572666C6F7700707265737320616E7947
:10059000204B657900414C455254004D4553534121
:1005A0004745004C4F4144494E4700506C656173CC
:1005B00065207265736574207468656D0053776992
:1005C0007463686573206E6F74206F666600204FD9
:1005D0006C642056657273696F6E20454550524FAA
:1005E0004D202020434845434B2053455454494E09
:1005F00047532F43414C494200416C61726D732057
:1006000044697361626C656400526573657420743B
:1006100068726F74746C65005468726F74746C6582
:10062000206E6F742069646C65005072657373206E
:10063000616E79206B657920746F20736B6970002F
:10064000414C45525400454550524F4D206C6F77F8
:10065000206D656D004F46464142535255735255C9
:1006600025454C73454C25544873544825414C73DB
:10067000414C2550312050312550322050322550E8
:10068000332050332500544852525544454C454977
:10069000443049443149443241494C474541545220
:1006A0004E535731535732535733535734535735AB
:1006B0005357365357375357385357395357415376
:1006C0005742535743004F4646004F4E20002D2DB2
:1006D0002D002D2D2D204348312043483220434802
:1006E000332043483420434835204348362043488C
:1006F0003720434838204348392043483130434865
:10070000313143483132434831334348313443482F
:10071000313543483136434831374348313843480F
:10072000313943483230434832314348323243480A
:1007300032334348323443483235434832364348F3
:100740003237434832384348323943483330005017
:1007500031202050322020503320204D4158204657
:10076000554C4C4359433143594332435943335019
:10077000504D3150504D3250504D3350504D3450FB
:10078000504D3550504D3650504D3750504D3843E8
:1007900048312043483220434833204348342043E3
:1007A00048352043483620434837204348382043C3
:1007B000483920434831304348313143483132438E
:1007C00048313343483134434831354348313600AA
:1007D0002D2D2D2D00564552533A2056312E3531B0
:1007E00037342D6572657A00444154453A203231E0
:1007F0002E31312E323031310054494D453A2031BD
:10080000393A30373A3339002053564E3A20747211
:10081000756E6B2D7236333500204D4F443A2020D3
:100820004E485420200012081200081C0808081C1A
:1008300008000008220049002208000000000022F1
:100840007F22000000082200490022080000082240
:100850000049002208000000227F22000000000062
:10086000082200490022080000081C0808081C088B
:1008700000A5380A3A3240A449114ED3374442D831
:10088000478F30E32E7735AE353D36BF36202020FA
:1008900054546D00457870457846466E654D6564E4
:1008A00043727300544F54005354250053544B006B
:1008B00054535700544D450053544154005B4D452B
:1008C0004E555D20746F20726566726573680053C3
:1008D0007461636B202020202020202020206200D3
:1008E000746D61696E202020202020202020206D42
:1008F0007300746D7231204A69747465722020200F
:1009000020757300746D72314C6174206D696E20B6
:10091000202020757300746D72314C6174206D61FC
:1009200078202020207573005354415432004D6FBD
:1009300064650042616E6447617000506F74536378
:10094000726F6C6C00416C61726D205761726E69E0
:100950006E67004D656D6F7279205761726E696EBA
:100960006700537769746368205761726E696E67B8
:10097000005468726F74746C65205761726E696E92
:10098000670053706C6173682073637265656E00F5
:100990004F4646004C69676874206F666620616642
:1009A000746572004C696768742073776974636852
:1009B00000466C617368206F6E206265657000424E
:1009C00065657020636F756E74646F776E004D6936
:1009D0006E7574652062656570005468726F74741A
:1009E0006C6520726576657273650053494E474F9A
:1009F000534D5046494C540046696C746572204111
:100A0000444300496E616374697669747920616C4E
:100A100061726D0042617474657279207761726EE3
:100A2000696E6700436F6E74726173740048617021
:100A300074696320537472656E67746800537065DF
:100A4000616B65722050697463680042656570650A
:100A500072506953706B7250636D57617600536FBB
:100A6000756E64204D6F6465005175696574204E24
:100A70006F4B6579207853686F727453686F727426
:100A8000204E6F726D20204C6F6E672020784C6F67
:100A90006E672000426565706572004F776E657203
:100AA000204E616D6500524144494F2053455455D5
:100AB000500043616C004D756C7469706C696572AF
:100AC00000636831636832636833636834006F665B
:100AD00066202B3D203A3D006D6F64652020202567
:100AE000207372632020737700536C617665005425
:100AF0005241494E4552000003030303005645523C
:100B000053494F4E005472696D2D202B00204D65C6
:100B10006E75204578697420446F776E20202055CB
:100B2000705269676874204C656674004449414797
:100B300000424700414E4100205B4D454E555D202F
:100B40005748454E20444F4E452000204D4F5645B6
:100B500020535449434B532F504F545320002020CF
:100B600020534554204D4944504F494E5420202095
:100B700000205B4D454E555D20544F20535441524B
:100B80005420200053544152542043414C49425276
:100B90004154494F4E200043414C4942524154492F
:100BA0004F4E0066726565004D4F44454C53454CB1
:100BB0000044454C455445204D4F44454C20202091
:100BC0005B4D454E555D0054325468547269670060
:100BD000547261696E657200452E204C696D6974AE
:100BE0007300504F534E4547005368696674205355
:100BF000656C0050504D2046724C656E20202020C0
:100C00006D53656300755365630034434820364374
:100C1000482038434820313043483132434831344A
:100C20004348313643480050504D202020505858FA
:100C300020202044534D3220200050726F746F00EA
:100C400052455441313233004265657020436E7421
:100C5000005472696D20537700457870202020453C
:100C60007846696E6546696E6520204D65646975D4
:100C70006D436F61727365005472696D20496E63D4
:100C800000542D4578706F00542D5472696D0043E7
:100C90006F756E7420446F776E436F756E74205558
:100CA0007020200054696D65722000547269676776
:100CB00065720054696D6572004E616D6500534543
:100CC0005455500000090100000000000006020019
:100CD0004475706C69636174696E67206D6F6465DB
:100CE0006C005B4D454E555D20205B455849545D79
:100CF0000059455320202020204E4F0044454C45AC
:100D00005445204D4F44454C004455504C494341B7
:100D10005445204D4F44454C0020414243444546F4
:100D20004748494A4B4C4D4E4F50515253545556DB
:100D30005758595A6162636465666768696A6B6C83
:100D40006D6E6F707172737475767778797A3031F1
:100D500032333435363738395F2D2E0065787020C0
:100D60002025202073773120737732004558504F6B
:100D70002F445200000344522048696768004452DF
:100D8000204C6F77004452204D69640044725377C1
:100D900032004472537731005765696768740045C3
:100DA00078706F004558504F2F445200002B2A5244
:100DB000004D49584552005072657373205B455889
:100DC00049545D20746F2061626F7274004D6178C8
:100DD000206D69786572732072656163683A2000DE
:100DE00044454C455445204D4958205B4D454E5592
:100DF0005D00536C6F772020557000536C6F772027
:100E000020446F776E0044656C6179205570004412
:100E1000656C617920446F776E0041646420202006
:100E200020204D756C7469706C795265706C6163CB
:100E30006520004D756C747078004F464600576110
:100E4000726E696E670053776974636800437572E8
:100E5000766573004F4E204F4646005472696D0010
:100E60004F46464F4E2000466C4D6F646574726964
:100E70006D004F666673657400466D5472696D56F9
:100E8000616C0057656967687400536F75726365BC
:100E90000045444954204D49582000494E5345527D
:100EA00054204D495820002D2D2D2D202020763EF8
:100EB0006F66732020763C6F667320207C767C3EC4
:100EC0006F66737C767C3C6F6673414E44202020B5
:100ED000204F522020202020584F522020202076C2
:100EE000313D3D7632207631213D76322076313EDD
:100EF0007632202076313C7632202076313E3D76A7
:100F0000322076313C3D7632200053570043555312
:100F1000544F4D2053574954434845530000025302
:100F200041464554592053574954434845530000BE
:100F300002434F5059205452494D205B4D454E5568
:100F40005D002D2D2D494E56004C494D49545300FE
:100F50000003030303030303030303030303030364
:100F600003004356004355525645530050524553D3
:100F7000455400454449542D3E00435552564500C2
:100F800009002D2D2D494E56004F46464F4E20004C
:100F90002D2D2D783E30783C307C787C663E306656
:100FA0003C307C667C6331206332206333206334C1
:100FB000206335206336206337206338206339206F
:100FC00063313063313163313263313363313463E0
:100FD000313563313600454550524F4D206F7665AF
:100FE00072666C6F7700454550524F4D206F7665A5
:100FF00072666C6F770067656E77726974652065DD
:1010000072726F7200454550524F4D20466F726D9F
:10101000617474696E670042616420454570726F47
:101020006D2044617461004D4F44454C20202020C8
:1010300020004D4520202020202020200050085056
:1010400000000000000000006F000007000700140F
:101050007F147F14242A7F2A1223130864623649DE
:101060005522500005030000001C224100004122CF
:101070001C0014083E081408083E08080050300000
:10108000000808080808006060000020100804023A
:10109000003E49453E0000427F4000625149460003
:1010A00041494936001814127F0027454539003E52
:1010B000494932000179050300364949360006499D
:1010C000291E0000363600000056360000081422A3
:1010D0004114141414144122140800020151090689
:1010E00000060909067E0909097E7F494949363EFD
:1010F000414141227F4141221C7F494949417F09A9
:101100000909013E4149497A7F0808087F00417F6B
:1011100041002040413F017F081422417F40404070
:10112000407F020C027F7F0408107F3E4141413E18
:101130007F090909063E4151215E7F09192946268A
:101140004949493201017F01013F4040403F1F2092
:1011500040201F3F4030403F63140814630708706D
:1011600008076151494543007F41410002040810CE
:10117000200041417F000402010204404040404001
:10118000000102040020545454787F484444383805
:1011900044444420384444487F3854545418087E0A
:1011A0000901020C5252523E7F0804047800447D2B
:1011B00040002040443D007F1028440000417F4013
:1011C000007C041804787C080404783844444438CB
:1011D0007C14141408081414187C7C0804040848AF
:1011E00054545420043F4440203C4040207C1C2068
:1011F00040201C3C4020403C44281028440C5050C7
:10120000503C4464544C44000836410000007F00C8
:101210000000413608000808221C08081C220808A3
:10122000A06080000000000000000000000000003E
:1012300000FFFF0000000000001F3F00003F1F00F4
:10124000003030FFFF3030FFFF30303078CCCCFF43
:10125000FFCCCC8C0C060F0F86C0E070381C0C3C09
:10126000FEC7E3F33B1E0C00000000333B1F0F00E2
:101270000000000000F0F81C0E070300000000034F
:10128000070E1CF8F000003030E0C0FCFCC0E0307D
:1012900030C0C0C0C0FCFCC0C0C0C0000000000026
:1012A0000000000000C0C0C0C0C0C0C0C0C0C000BE
:1012B00000000000000000000000000080C0E0709E
:1012C000381C0C00000000000000000000000000BE
:1012D000003838000000000000000000000000009E
:1012E0000003033F3F03033F3F03030C0C0C0C3F81
:1012F0003F0C0C07030C0E07030100183C3C180FB1
:101300001F383133331E1E3333000000000000004D
:10131000000000000003070E1C3830000000003001
:10132000381C0E07030000030301000F0F00010328
:1013300003000000000F0F000000000000333B1FFF
:101340000F0000000000000000000000000000008E
:1013500000183C3C18000000000C0E0703010000C0
:101360000000000000FCFE87C3E377FEFC00000CD9
:101370000EFFFF0000000000000C0E0783C3E77E95
:101380003C00000303C3C3C3E7FE3C0000C0E070A1
:10139000381C0EFFFF00003F3F33333373E3C300BD
:1013A00000FCFEC7C3C3C78E0C00000303C3E37376
:1013B0003B1F0F00003CFEE7C3C3E7FE3C00003CC0
:1013C0007EE7C3C3E7FEFC0000183C3C18000000A9
:1013D000000000183C3C18000000000000C0E0F0D5
:1013E000381C0E07033030303030303030303003AE
:1013F000070E1C38F0E0C000000C0E07030383C387
:10140000E77E3C00000F1F3B3130381F0F000030DB
:10141000303F3F3030000000003C3E373331303049
:101420003000003030303030391F0F00000303032C
:101430000303033F3F00000C1C383030381F0F00FF
:10144000000F1F383030391F0F000000003F3F00F1
:1014500000000000000F1F393030391F0F0000005E
:101460000030381C0E07030000060F0F06000000B6
:10147000000000333B1F0F000000000000000103CC
:10148000070E1C3830030303030303030303033075
:10149000381C0E0703010000000000000033330178
:1014A00000000000003C7EE7C3C3E77E3CF0F8DCB0
:1014B000CEC7C7CEDCF8F0FFFFC3C3C3C3C3E7FE8C
:1014C0003CFCFE0703030303070E0CFFFF030303AB
:1014D000070E1CF8F0FFFFC3C3C3C3C3C30303FF5E
:1014E000FFC3C3C3C3C3C30303FCFE0703C3C3C318
:1014F000C7CECCFFFFC0C0C0C0C0C0FFFF0000030C
:1015000003FFFF03030000000000000303FFFF03CD
:1015100003FFFFC0E0F0381C0E0703FFFF000000D0
:101520000000000000FFFF0E1CF8F81C0EFFFFFF7C
:10153000FF3870E0C08000FFFFFCFE0703030303D9
:1015400007FEFC000000000000000000003F3F001C
:1015500000000000003F3F3F3F3030303030391F47
:101560000F0F1F3830303030381C0C3F3F303030D8
:10157000381C0E07033F3F30303030303030303FC2
:101580003F00000000000000000F1F3830303030F6
:10159000303F3F3F3F0000000000003F3F00003071
:1015A000303F3F303000000C1C383030381F0F0007
:1015B000003F3F000103070E1C38303F3F30303002
:1015C00030303030303F3F0000000000003F3F3FF0
:1015D0003F0000000103033F3F0F1F383030303021
:1015E000381F0FFFFFC3C3C3C3C3E77E3CFCFE0726
:1015F0000303030307FEFCFFFFC3C3C3C3C3E77EAC
:101600003C3C7EE7C3C3C3C3C78E0C03030303FF85
:10161000FF03030303FFFF000000000000FFFFFFC4
:10162000FF000000000000FFFFFFFF0000000000BF
:1016300000FFFF0F1F38F0E0E0F0381F0F3F7FE0A2
:10164000C08080C0E07F3F03030383C3E3733B1F7D
:101650000F0000FFFF0303030300000C1C3870E0C1
:10166000C080000000000003030303FFFF00003000
:10167000381C0E07070E1C38300000000000000068
:101680000000003F3F00000000000000000F1F3876
:101690003033371E1C3F333F3F000003070E1C381A
:1016A000300C1C3830303030391F0F000000003F44
:1016B0003F000000000F1F3830303030381F0F035C
:1016C000070E1C38381C0E07030F1F38381F1F3831
:1016D000381F0F3C3E0703010103073E3C0000009A
:1016E000013F3F010000003C3E37333130303030A5
:1016F0003000003F3F30303030000000000000007C
:101700000103070E0C0000303030303F3F00000076
:101710000000000000000000003030303030303079
:10172000303030000003070E1C383000000000305D
:101730003030303070E0C0FFFFC0E070303070E01B
:10174000C0C0E07030303030300000C0E070303069
:1017500070E0C0FFFFC0E0703030303070E0C0C0DB
:10176000C0FCFEC7C303070E0CF0F89C0C0C0C0C5D
:101770000CFCFCFFFFC0E070303070E0C0000030B7
:1017800030F3F300000000000000003030F3F300FD
:1017900000FFFF0080C0E07030000000000303FF86
:1017A000FF00000000F0F03070E0E07070E0C0F08A
:1017B000F0C0E070303070E0C0C0E07030303030E9
:1017C00070E0C0000000000000000000000C1E3FA0
:1017D00033333333333F3F3F3F3030303030381FC7
:1017E0000F0F1F3830303030381C0C0F1F3830309E
:1017F0003030303F3F0F1F3B33333333330303006D
:10180000003F3F000000000000000133333333335A
:101810003B1F0F3F3F0000000000003F3F00003033
:10182000303F3F303000000C1C383030381F0F0084
:10183000003F3F03070F1C38300000000030303FEE
:101840003F303000003F3F0000030300003F3F3FB8
:101850003F0000000000003F3F0F1F3830303030A5
:10186000381F0FF0F03030303030F0E0C0C0E0F022
:10187000303030E0C0F0F0F0F0C0E070303070E0B8
:10188000C0C0E0F0303030303000003030FFFF308A
:101890003000000000F0F0000000000000F0F0F068
:1018A000F0000000000000F0F0F0F0000000000088
:1018B00000F0F03070E0C08080C0E07030F0F08068
:1018C0000000000000F0F03030303030B0F0F07048
:1018D000300000C0E03C3E0703000000000000FFB5
:1018E000FF00000000000003073E3CE0C00000C015
:1018F000C0C0C00C1CF8F0E0C0C0E0F0F81C0CC088
:10190000C0C0C03F3F030303030303010000010302
:1019100003030303033F3F3F3F00000000000000BC
:1019200000303133333333333F1E0C00000F1F3888
:101930003030381C0C0F1F383030381C0C3F3F0340
:10194000070E1C38381C0E07030F1F38381C1C38B4
:10195000381F0F30381C0F07070F1C3830000133B9
:10196000333333333B1F0F30383C3E373331303065
:1019700030000000010F1F38300000000000003F61
:101980003F00000000000030381F0F010000000081
:101990000000000C0E07030100000103070E0C00FD
:1019A0000000004080080420100201CB19D719DD87
:1019B00019EA19F119FE19091A141A01020304018E
:1019C000030204040203010403020153696D706CF5
:1019D0006520342D434800542D43757400537469B9
:1019E000636B7920542D43757400562D5461696CD6
:1019F00000456C65766F6E5C44656C74610048658B
:101A00006C69205365747570004779726F20536557
:101A100074757000536572766F205465737400009E
:101A2000CD0E11241FBECFEFD0E1DEBFCDBF11E040
:101A3000A0E0B1E0ECEBFDEC02C005900D92A83403
:101A4000B107D9F71EE0A8E4B1E001C01D92AA39A0
:101A5000B107E1F71AE1C2E2DAE104C02297FE0120
:101A60000E949F66C032D107C9F70E94CD160C9420
:101A7000DC660C9400009AE0899F900111242354A5
:101A80003E4FC901089595E0899F9001112423508C
:101A90003D4FC901089586E896E008958C3038F4EA
:101AA000E82FF0E0EE0FFF1FEE50FB4F2CC080310F
:101AB00088F4E82FF0E0EE0FFF1FDF01AE59BE4FB4
:101AC000E057FB4F0190F081E02D8D919C91E81B38
:101AD000F90B0BC0843160F4E82FF0E0EE0FFF1F2C
:101AE000E057FB4F0190F081E02DEE0FFF1F0EC07D
:101AF000843218F0E0E0F0E009C0E82FF0E0EE0FEB
:101B0000FF1FE852FB4F0190F081E02DCF010895B7
:101B1000E0919B04F0E0EE0FFF1FED56FB4F80813C
:101B2000918108958091630090E0969587958170EA
:101B30008093BA0408951092A5041092A7041092FD
:101B4000A6041092A4040895E8E5F5E0E80FF11D5D
:101B5000E491F0E0EE0FFF1FE354FB4F2081318151
:101B6000C9010895ADEBB4E0EDECF4E060E0862F40
:101B7000806487B9369A208931898D919C9111971B
:101B800096958795820F931F8E7F11969C938E93C7
:101B900040815181240F351F36952795318B208B3D
:101BA000349BFECF349A84B195B1840F951F9695DE
:101BB0008795819391936F5F12966830C1F608956F
:101BC000EDEBF4E050E013C067B9369A349BFECFDA
:101BD000349A84B195B1280F391F4F5F4430A1F773
:101BE00036952795219331935F5F583031F020E08F
:101BF00030E040E0652F6064E7CF0895EDEBF4E05E
:101C000020E0822F806487B9369A349BFECF349AC5
:101C100084B195B1880F991F819391932F5F2830DC
:101C200081F708958EE587B9369A349BFECF349AB2
:101C3000369A349BFECF349A84B195B10496409184
:101C4000090150910A019A01F3E0220F331FFA951E
:101C5000E1F7241B350B820F931FE3E096958795E0
:101C6000EA95E1F790930A018093090108951F9284
:101C70000F920FB60F9211248F938091B9048F5F4A
:101C80008093B9048F910F900FBE0F901F901895FD
:101C900078941F920F920FB60F9211242F933F93B7
:101CA0004F935F936F937F938F939F93AF93BF9364
:101CB000EF93FF932091800030918100F894809100
:101CC0007D008F7D80937D0078948091BB049091FE
:101CD000BC04A901481B590B569547953093BC0489
:101CE0002093BB042091B804822F8150883048F59E
:101CF000CA01815293408757954000F5E22FF0E0EA
:101D0000EE0FFF1FEA55FB4F4C5D5540809192014D
:101D1000992787FD90950A96BC01469FC001479F71
:101D2000900D569F900D11246AE070E00E944D6660
:101D3000718360832F5F2093B8040BC01092B804A6
:101D400008C0415A5F404F5D5E4218F481E08093C5
:101D5000B804F89480917D00806280937D0078942F
:101D6000FF91EF91BF91AF919F918F917F916F9173
:101D70005F914F913F912F910F900FBE0F901F9049
:101D80001895EBE9FEE001C0319680818535E1F3DD
:101D90009F012A593E40C901089588E494E00E94B9
:101DA000306408959C01E0919B04F0E0EE0FFF1F6A
:101DB000EF56FB4F318320838FEBF901099589E0C2
:101DC0000E941366089578941F920F920FB60F9297
:101DD00011242F933F934F935F936F937F938F9330
:101DE0009F93AF93BF93EF93FF93F89487B78D7F43
:101DF00087BF789481B78E5F81BF88E494E00E94AA
:101E00006064809111018150809311018F5F51F4C2
:101E10008DE4809311010E94F25D8091960E8260A4
:101E20008093960EF89487B7826087BF7894FF916D
:101E3000EF91BF91AF919F918F917F916F915F9142
:101E40004F913F912F910F900FBE0F901F901895BB
:101E5000AF92BF92CF92DF92EF92FF920F931F93B8
:101E6000CF93DF93C82EB42E85E0841708F4FAC010
:101E7000CC2009F4F8C096E1C91621F0EAEECE169E
:101E800019F4F0C061E0EFC02C2D332727FD309509
:101E9000C90137FF04C088279927821B930B8A301A
:101EA00074F41C143CF08DE090E0821B930B0E94B4
:101EB0007F5D24C0C9010D960E947F5D1DC08A50C0
:101EC000E82EFF24D701AA0FBB1FAE0DBF1DAD55D5
:101ED000BE4FA85ABD4F8C91A855B240882309F433
:101EE000C1C0F5E0BF1669F485E894E0E80EF91E7C
:101EF000F70180811C1414F4682FB5C061E06827D5
:101F0000B2C0FD01EA5AFD4FD080ED01C95ADD4F44
:101F1000A880853008F4B3C0883028F400E010E0D1
:101F2000E0E0F0E00AC08D2D81500E944E0D8C0142
:101F3000888181500E944E0DFC01E701CC0FDD1F0E
:101F4000CE0DDF1DC550DC4F2881283088F42530A8
:101F5000E8F5223009F467C0233020F4213009F07D
:101F600071C05CC02330D1F0243009F06BC022C0B6
:101F70002A3009F453C02B3038F4283009F444C017
:101F8000293009F05FC045C02C3009F451C02C3015
:101F900008F449C02D3009F055C04FC020E0C801F9
:101FA00017FF03C0909581959F4FE817F9070CF034
:101FB0004CC04AC020E0C80117FF03C0909581952E
:101FC0009F4F8E179F070CF040C03EC01B2D1F5F18
:101FD0008D2D60E0412F0E94280F082F8A2D60E090
:101FE000412F0E94280F9881953019F4002351F158
:101FF00004C0963029F4002339F5882329F522C03E
:1020000020E0081709F521C020E00E171F07E9F4AA
:102010001BC020E00E171F07B9F417C020E0E0171F
:10202000F1079CF411C020E00E171F0774F40CC0D8
:1020300020E00E171F074CF007C020E0E017F10763
:1020400024F002C020E001C021E085E894E0E80E21
:10205000F91EF70120831C1414F4622F04C061E000
:10206000622701C060E0862FDF91CF911F910F9111
:10207000FF90EF90DF90CF90BF90AF9008958D2D9F
:1020800081500E944E0D8C01988189E29802F001E6
:102090001124F595E795F595E79597FD915C96FBED
:1020A000990F990B90F9892F992787FD9095E81B37
:1020B000F90B43CF8F929F92AF92BF92CF92DF9254
:1020C000EF92FF920F931F93CF93DF93182F7B0113
:1020D0004A015901C02E84FD04C064E0D62E05E0FB
:1020E00005C01F70106655E0D52E04E08D2D80666A
:1020F000181761F08D2D8064181741F0909121051B
:10210000992359F0133611F0133439F4E70121966D
:1021100085E00E941366802F16C0802F80661817F6
:1021200061F0802F8064181741F0992309F471C081
:10213000123619F0123409F06CC0E701219786E0DD
:102140000E9413668D2D90E00E947F5D882351F0E0
:10215000CC27DD27CE19DF09802F0E94E15D8D2D70
:102160000E94E15D8114910491F481E0A816B1040C
:1021700071F4103661F410922105C0E0D0E0E11452
:10218000F10411F4C1E0D0E080E60E94E15D8091AD
:102190009F049091A004C81BD90BAC16BD0644F453
:1021A000812F0E94E15D85E00E941366E5010AC06F
:1021B000C815D9053CF4812F0E94E15D86E00E949C
:1021C0001366E401CE15DF05A1F0209751F4812FAD
:1021D0000E94D25DF7FE02C085E001C086E00E9449
:1021E00013668C2D83700E94F75181E080939C04CC
:1021F00002C010929C04CE01DF91CF911F910F91EC
:10220000FF90EF90DF90CF90BF90AF909F908F9016
:102210000895E701A7CF0F93772767FD709555279E
:1022200047FD5095332727FD30950E945A100F9196
:1022300008950F93772767FD7095552747FD5095B3
:10224000332727FD309501E00E945A100F91089521
:102250000F93772767FD7095552747FD50953327D6
:1022600027FD309502E00E945A100F9108951F93A8
:10227000CF93DF93682F782F7F7076502091B50130
:1022800022306CF0332727FD30952150304081E01B
:1022900090E002C0880F991F2A95E2F7282F783026
:1022A00008F09FC0872F8595A82FB0E0FD01EE0FA5
:1022B000FF1FE050FF4F0190F081E02D108122239D
:1022C00011F0422F10C0412F552747FD509557FF61
:1022D00003C0509541955F4F242F47FD2D5F422F3E
:1022E000459545954F5F20918C0130E0217030700D
:1022F00082E090E0821B930B8A179B0711F050E05D
:102300000CC08091B4018F7011F450E002C044E021
:1023100051E080918E0180FD4195812F992787FDA5
:102320009095242F332727FD309570FF04C0E901D5
:10233000C80FD91F03C0EC01C21BD30B209721F09B
:10234000812F8D2787FF0CC0552351F4112341F0B5
:102350001082862F0E94E15D88E00E94136640C0D3
:10236000CE0184589F4F893F9105B0F4C08386E029
:102370000E94F751CE0183589F4F8B3F910580F506
:102380009E01D7FF03C0309521953F4F3595279586
:1023900035952795422F1EC01C161D0614F083E8A4
:1023A00001C08DE7808386E00E94F751CE018358FB
:1023B0009F4F8B3F9105A0F4CE01D7FF03C09095AE
:1023C00081959F4F64E070E00E944D66AB0150958F
:1023D00041955F4F445C88E494E067E00E945F654C
:1023E00060E0862FDF91CF911F9108951F93CF93C7
:1023F000DF93F8942091060E3091070E789440E018
:102400008091F0049091F1042817390709F041E018
:102410004093A104F8948091060E9091070E789451
:102420009093F1048093F00486E295E060E00E94CE
:10243000BD1C8091A104882309F40BC18091A404E0
:1024400080FF14C09091A504892F8F5F8093A5040D
:10245000843660F093569093A5048091A6049091E1
:10246000A70401969093A7048093A60480E00E949D
:102470000A520E94E15C0E94EF5C0E943711182F03
:102480008091A2049091A304009729F00197909362
:10249000A3048093A204112389F08091900190E01D
:1024A00024EF31E0AC01429FC001439F900D529F49
:1024B000900D11249093A3048093A204809179013C
:1024C00060E040E00E94280F882339F48091A20444
:1024D0009091A304892B09F4BAC0C79A2091FE04F5
:1024E0003091FF0480919D0490919E04821B930B78
:1024F00060E270E00E944D667093A00460939F04B8
:102500006115710591F08091EE049091EF04821BAA
:10251000930B62E070E00E944D667093A00460939C
:102520009F0430939E0420939D043093EF042093E6
:10253000EE0480918E0185FF04C01092A0041092D9
:102540009F04E0919B04F0E0EE0FFF1FEF56FB4F5E
:102550000190F081E02D812F09950E94AE5C809161
:10256000630090E09695879581708093BA048823E4
:1025700021F0809165008F7E03C0809165008061AD
:1025800080936500F8948091060E9091070E7894E0
:102590008F719070029709F05CC0EFE5F5E0E4916F
:1025A000F0E0EE0FFF1FE354FB4F0190F081E02DB0
:1025B0002091780180918E0186FF03C0C0EFD0E0AA
:1025C00004C0C0910901D0910A01CF0168E070E018
:1025D0000E944D66822F992787FD909506969C0153
:1025E000629FC001639F900D729F900D112424E0A3
:1025F000EE0FFF1F2A95E1F72091080130E02F5FD1
:102600003F4F8E0F9F1FBE010E944D66260F371F42
:1026100035952795209308018091ED04805E809385
:10262000ED048823B1F480917701281790F42233C8
:1026300080F083E10E94136680918E0183FF09C0C0
:1026400082E390E09093A3048093A20402C0C79811
:1026500045CFDF91CF911F9108950F931F938091E4
:10266000B90402B71091B9048117C9F7E0918F013D
:10267000F0E0EE0FFF1FE55FFE4F0190F081E02DCF
:1026800009950E94120E0E94F6118091960E8330D9
:1026900019F4A8951092960E4091B90452B7809102
:1026A000B9044817C9F7312F20E0802F90E0282B7C
:1026B000392B942F80E0452F50E0482B592B421B9B
:1026C000530B8091F9069091FA068417950720F430
:1026D0005093FA064093F9061F910F9108950F93B6
:1026E0001F938C010E94E15C82E260E04BE955E0BF
:1026F00024E00E94E75980E068E1A8010E941A5A8C
:102700000E94AE5C809176010E94A45C1F910F91A3
:102710000895EF92FF920F931F93082FF62E142F18
:10272000E22E442329F0463139F04A3E81F408C0B4
:102730008A5F4EEC56E007C08A5F4AEC56E003C061
:102740008A5F46EC56E02E2D0E94E75923C0441FB5
:102750004427441F405E0E94F158202F2A5F412FDA
:10276000552747FD509557FF03C0509541955F4F42
:10277000842F992787FD90950197AC01440F551F31
:10278000480F591F4A57594F822F6F2D23E00E2DA6
:102790000E94AC591F910F91FF90EF900895DF9226
:1027A000EF92FF920F931F93F82EE62ED42E1091E6
:1027B000AE01812F992787FD909597FF03C09095D3
:1027C00081959F4F80319CF443E08402A001112445
:1027D0004B5A594F8F2D6E2D23E00D2D0E94AC5971
:1027E0001F3F4CF58F2D86506E2D41E221C0853262
:1027F00074F411161CF4412F4F5002C0412F415F59
:102800008F2D86506E2D2D2D0E94891314C0111608
:102810001CF4412F445202C0412F4C5D8F2D865035
:102820006E2D2D2D0E9489138F2D8E5E6E2D4DE6FF
:102830002D2D0E94F1581F910F91FF90EF90DF9086
:1028400008950F93022F50E0440F551F440F551F5A
:102850004E52594F24E00E94AC590F9108950F93A6
:10286000942F022F442319F440ED57E01DC045304A
:1028700090F440918C0150E0440F551F440F551FB8
:1028800041505040490F511D440F551F440F551FD3
:10289000495E5A4F09C0453250F450E0440F551F6D
:1028A000440F551F455C584F24E00E94AC590F91CE
:1028B000089586B380958E77E1F70E94EC5C0895C9
:1028C000FF920F931F938C01F62E0E94E15C82E22F
:1028D00060E045E955E024E00E94E75980E068E1C6
:1028E000A8010E941A5A8CE168E347E855E00E946B
:1028F0001A5A0E94AE5CFF2011F089E102C080915B
:1029000076010E94A45C84E00E9413660E94591420
:1029100086B380958E77C9F48091960E833019F432
:10292000A8951092960E8091790160E040E00E9497
:10293000280F882331F480919001882311F4FF201F
:1029400011F0C79AE5CFC798E3CF1F910F91FF9081
:102950000895CF93DF93EC0190919B04892F8F5FB3
:1029600080939B04853040F090939B0480E695E033
:1029700060E00E9460140FC089E00E941366E0913D
:102980009B04F0E0EE0FFF1FEF56FB4FD183C08397
:102990008FEBFE010995DF91CF91089590919B04F3
:1029A000992319F4882331F418C0882319F4892F46
:1029B000815001C080E080939B0489E00E941366EF
:1029C000E0919B04F0E0EE0FFF1FEF56FB4F0190EC
:1029D000F081E02D8EEB0995089583E795E060E0A6
:1029E0000E946014089580918404882351F08EEC35
:1029F00095E060E00E946014809184048E7F809353
:102A00008404089580918B0187FD07C0887329F4A1
:102A100089EF95E060E00E946014089580918B0139
:102A200082FD0AC00E940D55883C910528F486E479
:102A300096E060E00E94601408951F93CF93DF93A7
:102A400086B380958E7721E030E0682F70E0422FCA
:102A5000CB01022E02C0959587950A94E2F780FD7E
:102A600006C04F5F2F5F3F4F2830310581F7142F8D
:102A700011501630A8F5812F0E94B052882381F1A1
:102A800010937501812F0E94FE5381E00E94F7513F
:102A90000E94E15C86E160E043EA55E024E00E94A8
:102AA000E759C3EAD1E01AE0812F68E1499124E0B7
:102AB0000E94F158155F1837B9F70E94AE5C8091FB
:102AC00076010E94A45C80917901882321F4809191
:102AD0009001882311F0C79A01C0C7980E94591429
:102AE000DF91CF911F910895EF92FF920F931F9363
:102AF0008C017B010E94E15C82E260E040E456E0F0
:102B000024E00E94E75980E060E2A8010E941A5A7E
:102B100080E068E2A7010E941A5A80E060E34AE27E
:102B200056E00E941A5A0E94AE5C809176010E9483
:102B3000A45C0E9459141F910F91FF90EF9008958B
:102B40001F9380918B0181FD2EC08DEB95E06BEA88
:102B500075E00E9474151EE00BC0113141F0812F09
:102B60008D5060E040E00E94280F882329F41F5F09
:102B7000163198F31631B9F086B380958E7799F4B3
:102B800006C080919001882359F0C79A0AC08091AD
:102B9000790160E040E00E94280F8823B1F7F1CF6F
:102BA000C7981EE0DCCF1F9108950F931F93CF931A
:102BB000DF9380918B0180FD51C080918C0190E06A
:102BC00081709070C2E0D0E0C81BD90BFE01EE0FFF
:102BD000FF1FE85BFE4F01811281005F1F4F878559
:102BE0009089081B190B0E94FE0DEC2FF0E0E85AAB
:102BF000FA4F8491C82FD0E0CC0FDD1FC354DB4FB8
:102C000088819981081719074CF586B380958E77CE
:102C100029F512C00E94FE0D8881998108171907B5
:102C2000ECF486B380958E77C9F40DC08091900145
:102C3000882391F0C79AEECF88E196E069E076E0CC
:102C40000E947415E7CF8091790160E040E00E9416
:102C5000280F882379F7EACFC798DCCFDF91CF918F
:102C60001F910F9108950F931F93CF93DF9380913E
:102C70008E0184FD8DC08091790160E040E00E946A
:102C8000280F882329F480919001882309F473C0C8
:102C9000C79A0E94E15C80E060E044EB50E020E0F5
:102CA00000E00E94945880E068E349E951E02AE09E
:102CB00000E10E94AC590E94AE5C809176010E94B6
:102CC000A45C0E94591400E00E94B20D0F5F003214
:102CD000D9F728E535E000E010E0F9018491E82F0C
:102CE000F0E0EE0FFF1FE354FB4F80819181892FAD
:102CF0009927080F191F2F5F3F4FF5E02C353F072D
:102D000061F7F894C091060ED091070E7894C057E1
:102D1000DE4F27C00E94B20D28E535E040E050E0CC
:102D2000F9018491E82FF0E0EE0FFF1FE354FB4F11
:102D300080819181892F9927480F591F2F5F3F4F1D
:102D4000F5E02C353F0761F786B380958E7701F566
:102D500040175107E9F411C0809190018823B1F028
:102D6000C79AF8948091060E9091070E7894C81730
:102D7000D90781F60DC0C7988CCF8091790160E0AA
:102D800040E00E94280F882359F7E6CFC798E9CF83
:102D9000DF91CF911F910F9108951F939FEF9ABBE1
:102DA0001BBA81E887BB8EE788BB8EE384BB81ECCE
:102DB00085BB11BA92BB88E082B987EF83B91092C4
:102DC00061001092620084E1809364008BEF809335
:102DD00065000E94695C80E487B985E886B987E070
:102DE00083BF8CE981BF87B7836087BF1FBC8AE040
:102DF0008EBD10928B0082E880938A0080917D00C6
:102E0000806280937D00EDB7FEB7329785E502C002
:102E1000808331974EE0EA39F40709F0C8F77894D7
:102E20008CE498E2909392048093910489E10E944B
:102E3000A45C0E943654109175010E941D1580916A
:102E40009701813039F480918E0184FD03C080E0C8
:102E50000E9413660E9433160E940E150E94FE0DFA
:102E60000E94D5150E94A0150E9402150E94F3141D
:102E70000E94591480EF90E090930A018093090119
:102E80000E9408632DE088E190E00FB6F894A895C1
:102E900081BD0FBE21BD86E295E060E00E94BD1CB1
:102EA00085EA98E30E94A91481E00E94CE148091E3
:102EB00076010E94A45C8091900190E024EF31E0C3
:102EC000AC01429FC001439F900D529F900D112471
:102ED0009093A3048093A20480917501181729F0A0
:102EE00081E00E94F7510E94A05280ED97E09BBDC7
:102EF0008ABD80E186BF87B7806187BF0E942D139E
:102F0000FDCF0F931F93062F122F206250E00E94D7
:102F1000385C17FD07C08091D80D602F46E7212F40
:102F20000E94F1581F910F910895242F409108019C
:102F30000E9481170895AF92BF92CF92DF92EF92D5
:102F4000FF920F931F93CF93DF93F82EB62EEA01D3
:102F5000122FA02E57FF10C022FD02C08FE001C02B
:102F60008CE19F2D981B892F6B2D4DE2212F0E9404
:102F7000F158D095C195DF4F2A2D21238F2D6B2D30
:102F80004AE30E94F158812F90E004E0C02ED12C3A
:102F9000C822D92212FD02C0E0E001C0E2E0CE0169
:102FA0006CE370E00E944D669B01442737FD40951D
:102FB000542F10618E2F8F0D6B2D012F12E0E12EFB
:102FC0000E94F85ACD2811F4E1E101C0ECE1CE01F4
:102FD0006CE370E00E944D669C01442737FD4095EC
:102FE000542F80E1A82A8E2F8F0D6B2D0A2DB2E071
:102FF000EB2E0E94F85ADF91CF911F910F91FF9015
:10300000EF90DF90CF90BF90AF90089599E2890242
:1030100090011124359527953595279587FD815C7D
:1030200086FB880F880B80F9992787FD9095281BD0
:10303000390BC901089580E99FE00895EDEBF1E0B7
:1030400090E080818150803108F49F5F3A9682E061
:10305000ED3FF807B1F7892F08956F927F928F9215
:103060009F92AF92BF92CF92DF92EF92FF920F9317
:103070001F933B017C0100E010E08824992464E662
:1030800070E080E090E06619770988099909A80145
:1030900097010E941A665B016C0182E390E0A0E058
:1030A000B0E0A80EB91ECA1EDB1EC801B7010E94FF
:1030B0001A660E941A66BC0188279927A401930109
:1030C0000E941A6624E096958795779567952A95CC
:1030D000D1F7A60EB71EC81ED91EC601B50124E63B
:1030E00030E040E050E00E946066C9011F910F91FE
:1030F000FF90EF90DF90CF90BF90AF909F908F9018
:103100007F906F900895FF920F931F939C01AB01E6
:103110006115710531F1FF2497FF05C0FF24F39479
:10312000309521953F4F57FF10C000E014E066270F
:103130007727641B750BC801821B930B0E942D1807
:103140009801281B390BC90104C0C901BA010E94AA
:103150002D18FF2011F49C0104C022273327281BBF
:10316000390BC9011F910F91FF900895282FE9E1B4
:10317000FDE080E09491921731F03196992311F09F
:103180008F5FF8CF80E00895823410F080E20895D8
:10319000E82FF0E0E75EF24F8491089510927906EF
:1031A00010927206109271061092760610927506B1
:1031B0001092740610927306109278061092770699
:1031C0000895AF92BF92CF92DF92EF92FF920F934A
:1031D0001F93CF93DF935B016C0100E010E8C0E028
:1031E000D0E8EE24FF249E0140E050E0CA01B9017E
:1031F0000E941A66A616B706C806D90610F4C0279C
:10320000D127169507950894E11CF11C80E1E8167A
:10321000F10461F4CE01DF91CF911F910F91FF90E6
:10322000EF90DF90CF90BF90AF900895C02BD12B3F
:10323000DACF9C0140E0683008F041E070E04423C0
:1032400071F0CB010897FC0163E0EE0FFF1F6A9558
:10325000E1F7E80FF91FDF01AF54BC4F0AC0FB01D3
:10326000EE0FFF1FEE0FFF1FE60FF71FDF01A7573F
:10327000BC4FFD01808120503C4F37FD0EC068E0FF
:103280002030360784F0442319F484E090E002C033
:1032900088E090E0A80FB91F8C91992787FD909541
:1032A000582F442733C0442331F0432FB9017070A5
:1032B000660F771F04C0432F4695B9017170842FA4
:1032C00090E0FD01E80FF91F8181992787FD909516
:1032D0009B0135952795829FA001839F500D929F5A
:1032E000500D11242081332727FD309580E092E096
:1032F000861B970B95958795BC01269FC001279F3C
:10330000900D369F900D1124480F591FCA0169E195
:1033100070E00E944D66CB010895482F18161CF0EE
:10332000109220050895282F332727FD309580918E
:103330002005281B3109862F90E08217930724F47B
:10334000461B40932005089506972817390724F453
:103350004A5F461B409320050895FF920F931F93E9
:10336000CF93DF93082F1091AE01812F992787FD0E
:10337000909597FF03C0909581959F4FF82E24E27A
:1033800028170CF03FC02091760830917708809183
:10339000740890917508282B392B809178089091AA
:1033A0007908282B392B8091730890E0282B392B32
:1033B0008091700890E0282B392B232B39F4109240
:1033C000700817FF03C081E08093700811161CF489
:1033D000812F845202C0812F8C5D60E040E00E940A
:1033E000280F282F882361F080917008882341F4EA
:1033F00090E080917308882309F491E0909373081A
:1034000020937008C0917608D09177082196D093C8
:103410007708C0937608E0917408F0917508E00F82
:10342000F11DF0937508E0937408F8948091060EEE
:103430009091070E78942091780830917908821B3A
:10344000930B8436910508F45EC12C593F4F30939D
:10345000790820937808CF01BE010E943966062FB3
:10346000862F90E0AC014C9FC0014D9F900D5C9F5A
:10347000900D1124E81BF90BF0937508E093740884
:1034800010927708109276085FE05F151CF010929A
:10349000730810C084E28F156CF011161CF4812F94
:1034A0008F5002C0812F815F60E040E00E94280FB2
:1034B0008093730880916F069091700601969093A7
:1034C000700680936F06E0917106F0917206319656
:1034D000F0937206E0937106002349F0809175061F
:1034E000909176060196909376068093750680916A
:1034F0007308882349F080917306909174060196B1
:1035000090937406809373060695409177065091C8
:103510007806400F511D50937806409377066091CE
:10352000B0017091B10170937B0660937A0630917F
:10353000AE01832F992787FD909597FF03C0909543
:1035400081959F4F882319F41092790622C081300B
:1035500021F4CB018E1B9F0B18C0803170F480FFCB
:1035600007C0CA01E4E096958795EA95E1F709C09E
:10357000809175069091760604C0809173069091B3
:103580007406AB01481B590BCA0190937B068093CC
:103590007A0680917906813041F0813018F08230CE
:1035A00001F50FC03323E9F019C080917A0690919C
:1035B0007B0618161906ACF06115710591F082E0D2
:1035C0000EC080917A0690917B06855C9F4F1CF41B
:1035D00083E0809379066115710519F481E0809389
:1035E000790620917A0630917B068091710890913E
:1035F00072088217930709F470C0809179068130B0
:1036000009F05CC080918E0182FF3CC0672BD1F134
:103610002E31310519F48EE00E94136680917A06EE
:1036200090917B06449719F48FE00E941366809175
:103630007A0690917B060A9719F480E10E9413663E
:1036400080917A0690917B0604971CF481E10E9498
:10365000136680918E0183FF15C080917A06909148
:103660007B068E31910541F08431910529F08A3035
:10367000910511F0049734F482E390E09093A30451
:103680008093A20480918E0181FF27C08091AF01B9
:1036900020917A0630917B0680FF07C08091B001AF
:1036A0009091B101821B930B01C0C9016CE370E0E2
:1036B0000E943966892B89F481E003C0823069F465
:1036C00081E10E94136680918E0183FF06C082E330
:1036D00090E09093A3048093A20420917A06309105
:1036E0007B0630937208209371088091AF0180FFB0
:1036F0000AC08091B0019091B101821B930B90930D
:103700007B0680937A06DF91CF911F910F91FF90F6
:1037100008958091AE01992787FD909597FF03C08A
:10372000909581959F4F82304CF180313CF5982FD8
:1037300095958A3034F4892F0E94BF5EE82FF0E01F
:1037400004C0E92FFF27E7FDF0953197EE0FFF1F2B
:10375000EE50FB4F208131818091AE0187FF05C083
:1037600080E094E0821B930B03C0C90180509C4F02
:1037700026E0969587952A95E1F702C080E090E0D3
:103780000E94AD1983E00E94BF5EE82FF0E0EE0FCB
:10379000FF1FE051FB4F0190F081E02DE050FC4F06
:1037A000A6E0F695E795AA95E1F78091AF0182FF33
:1037B0000AC0E530F10538F08091A404882319F49B
:1037C00083E08093A40460916C0870916D086F5F32
:1037D0007F4F70936D0860936C0840916A08509118
:1037E0006B084E0F5F1F50936B0840936A08F89464
:1037F0008091060E9091070E789420916E0830917A
:103800006F08821B930B885E934060F1F89480915F
:10381000060E9091070E789490936F0880936E082F
:1038200010926B0810926A0810926D0810926C0842
:103830008091F5069091F60601969093F606809396
:10384000F5062091F406E22FF0E0E458F94FCA01A2
:103850000E94396660832F5F2093F406283710F0AA
:103860001092F40608950F931F93CF93DF9386E28F
:1038700091E0E6E4F5E0DF019C011D92215030402B
:10388000E1F790916C06CDEBD1E000E010E051E063
:1038900060E04881442309F440E1041750F5202FEB
:1038A000712F352F2F5F872F90E0FC01EE0FFF1F48
:1038B000E80FF91FEE0FFF1FDF01AA5BBA4F119649
:1038C0002C9311978C9181608C93E85BFA4F308335
:1038D0003F5F14966C937F5F241720F3802F8095B1
:1038E000042F952F9F5F980F180F140F940F592FC7
:1038F000515078817723D1F1812F90E09C01220FE4
:10390000331F280F391FD901AA0FBB1FAA5BBA4F5B
:1039100011964C93119715966C9315978C91826024
:103920008C9313965C9313975F5F8A85F9013196A8
:10393000781741F4EE0FFF1FEA5BFA4F10821496DE
:103940001C920AC0EE0FFF1FEA5BFA4F50835F5FC5
:103950006F5F14966C936150952F6F5F2A9660325B
:1039600019F450936C0604C01F5F93CF90936C06BC
:10397000DF91CF911F910F9108952F923F924F9217
:103980005F926F927F928F929F92AF92BF92CF92EF
:10399000DF92EF92FF920F931F93DF93CF93CDB7F8
:1039A000DEB76A970FB6F894DEBF0FBECDBF998F12
:1039B000888F6A8F8091A104882309F470C0809158
:1039C0002205882319F081508093220580918D0172
:1039D000863F09F464C080910801823308F45FC017
:1039E000809183078F5F80938307803158F08091A7
:1039F00084079091850701969093850780938407AB
:103A0000109283072091FB063091FC068091FD0601
:103A10009091FE06280F391F8091FF0690910007B4
:103A2000280F391F8091010790910207280F391F35
:103A30008091860790918707A901481B590BCA01FD
:103A400057FF03C0909581959F4F8150914044F05E
:103A5000309387072093860710928507109284077A
:103A6000409184075091850780918D01992787FDAA
:103A700090950A9627E731E0BC01629FC001639FE1
:103A8000900D729F900D11248417950740F4437098
:103A900050704130510519F482E10E941366809103
:103AA0008C01782F71707F5F7F8781FD03C083E079
:103AB0008E8701C01E869090BB01992009F44BC0EF
:103AC0009F85E92FF0E0EE0FFF1FEE50FB4FE080E7
:103AD000F1800027F7FC0095102FAE85EA2FF0E06B
:103AE000EE0FFF1FEE50FB4F20813181442737FD41
:103AF0004095542FCA01B9010E941A665B016C01FE
:103B0000C801B701A80197010E941A66A60EB71E48
:103B1000C81ED91E692D70E080E090E00AE0660FB3
:103B2000771F881F991F0A95D1F724E630E040E0FF
:103B300050E00E948266B901CA010E941A666A15A5
:103B40007B058C059D0538F4C601B5010E94E1187E
:103B50009A8B898B02C01A8A198AE989FA89BF016E
:103B600080E090E024E630E040E050E00E941A66F9
:103B70006C8B7D8B8E8B9F8B19E4612E11E0712EE7
:103B8000B9E54B2EB3E05B2E1B8ACC24DD248824C0
:103B90009924FA8D2F2E332421E022223324BC2CA9
:103BA0008C2D0E94A40D9C01D3018D919C911197A5
:103BB000281B390B121613062CF45C96ED91FC9120
:103BC0005D9705C0D3011E96ED91FC911F97E436D9
:103BD000F10514F4E4E6F0E0B901882777FD80955B
:103BE000982FAAE0660F771F881F991FAA95D1F713
:103BF0009F01442737FD4095542F0E94826679012A
:103C0000BCEF21303B0724F4E12CFCEFFF2E07C072
:103C1000E4E020303E071CF0E12CE4E0FE2E809131
:103C20008E0180FF10C080918C0190E081709070B7
:103C300022E030E0281B390BC216D30621F4F094A1
:103C4000E194F108F394F401EE50FB4FF182E0822D
:103C5000C7010F964F97F0F434E0C316D1047CF4FB
:103C60008B2D8F5F0E94BF5E90E0019741E050E096
:103C700002C0440F551F8A95E2F7CA0108C081E0CF
:103C800090E00C2C02C0880F991F0A94E2F75B8920
:103C9000582B5B8B63E06B1508F47CC1222009F084
:103CA0005BC08091AF0181FF57C08601000F111FDB
:103CB0000E571E4FD80111968C911197807C09F4F4
:103CC0004BC08C9185958595859561E040E00E947B
:103CD000280F882309F440C0D801EC91E770F0E088
:103CE000EE0FFF1FDF01A658BE4FE855FB4F808146
:103CF00091812D913C91821B930B62E070E00E94B8
:103D00004D66F601EE0FFF1FED57FE4F4081842FE9
:103D1000880F880F85958595992787FD9095FC01DB
:103D20006E9FC0016F9F900D7E9F900D11246FE1DB
:103D300070E00E944D66CB01880F991F880F991F74
:103D40004295469546954370413021F0423021F42A
:103D50007C0102C0E80EF91E29893A89232B01F162
:103D60003F85B31619F04E85B416D1F46091BB01AE
:103D700070E080E090E00AE0660F771F881F991FCF
:103D80000A95D1F79701442737FD4095542F0E949B
:103D90001A662C893D894E895F890E948266790165
:103DA000D2018C9160E040E00E94280F882311F43A
:103DB00000E00BC0F201818160E040E00E94280F2A
:103DC000882311F002E001C001E080918C0190E0B5
:103DD0008170907012E0A12EB12CA81AB90AAC140F
:103DE000BD0461F58091B401807F41F1C70180502D
:103DF0009C4F62E070E00E944D66CB01E02FF0E046
:103E0000EE0FFF1FEE0FFF1FA601440F551F9A0173
:103E100073E0220F331F7A95E1F7241B350BE20F75
:103E2000F31FE35BFC4F6081772767FD70950E946D
:103E30008318DC01AA0FBB1F10E026C010E01E147F
:103E40001F040CF011E0802F90E09601220F331F29
:103E5000F90143E0EE0FFF1F4A95E1F7E21BF30B78
:103E6000880F991F880F991FE80FF91FED55FE4F16
:103E7000E10FF11DE655FE4F6081772767FD7095D4
:103E8000C7010E948318DC01E02FF0E0EE0FFF1F56
:103E9000EE0FFF1F9601220F331FC90103E0880FA9
:103EA000991F0A95E1F7821B930BE80FF91FED5557
:103EB000FE4FE10FF11DE455FE4F6081772767FD4E
:103EC00070956C597F4F882777FD8095982F9D01BD
:103ED000442737FD4095542F0E941A6624E630E0AF
:103EE00040E050E00E9482667901AC14BD04D9F52F
:103EF0009091B401892F807F09F4D6C620E03CEF71
:103F0000E20EF31ED1C6F501EE0FFF1FE050FF4F8A
:103F10000190F081E02D608180918E0180FD61959E
:103F2000772767FD7095872F972F63587F4F8F4FA7
:103F30009F4F20E034E02E193F09442737FD40957C
:103F4000542F0E941A6620E038E040E050E00E94C2
:103F50008266C901DA01803038E0930730E0A307B8
:103F600030E0B30761F4F401E050FF4F0190F081BD
:103F7000E02D8081282F332727FD309501C09C013B
:103F8000220F331FE1E0F0E0EC0FFD1FE80DF91DFB
:103F900031832083F401E550F94FF182E0820894E7
:103FA000C11CD11C42E050E0640E751E840E951EAB
:103FB0006EE070E0460E571E77E0C716D10409F098
:103FC000EECD1091B8018B891823212F30E080911C
:103FD000880790E08227932782239323892B19F067
:103FE0008AE00E9413661093880780E094E0909323
:103FF0000A078093090790930C0780930B07F3E15E
:104000002F2EF7E03F2EB10140E050E0FA01E855D5
:10401000FB4FDA01A85BBE4F80819181D2962D9132
:104020003C91D397821B930B880F991FDB018D93D3
:104030009D93BD014E5F5F4F4830510539F7809128
:10404000B0049091B104880F991F90931C0780933E
:104050001B078091B2049091B304880F991F90932D
:104060001E0780931D078091B4049091B504880FBA
:10407000991F9093200780931F078091B604909119
:10408000B704880F991F9093220780932107E3E4D8
:10409000F7E0FA87E987A3E2B7E0808191818D9309
:1040A0009D93349627E0E338F207B9F75090BB01AF
:1040B000552009F489C03F85832E9924880C991CCA
:1040C0004BEF56E0840E951ED401ED90FC90002736
:1040D000F7FC0095102FBE856B2E7724660C771C9D
:1040E000640E751EF30120813181442737FD409510
:1040F000542FCA01B9010E941A665B016C01C80104
:10410000B701A80197010E941A66A60EB71EC81E25
:10411000D91E652D70E080E090E01AE0660F771FF1
:10412000881F991F1A95D1F724E630E040E050E04F
:104130000E948266B901CA010E941A666A157B054F
:104140008C059D0508F040C0C601B5010E94E1182C
:10415000A0E0B0E0BC01CD0124E630E040E050E05A
:104160000E941A665B016C01E090BB01FF2400E035
:1041700010E0BAE0EE0CFF1C001F111FBA95D1F73A
:10418000D4012D913C91442737FD4095542FC8010F
:10419000B7010E941A66A60195010E948266F40189
:1041A00031832083D3012D913C91442737FD4095E5
:1041B000542FC801B7010E941A66A60195010E94FA
:1041C0008266F30131832083B090B9018B2D807E0C
:1041D00009F4E3C02F85E22FF0E0EE0FFF1FDF01AF
:1041E000A550B94F6D917C91DE011196EA0FFB1F2E
:1041F000408151813E85832F90E0880F991FFC01FB
:10420000E550F94F0190F081E02DA80FB91F2D91D5
:104210003C918A8D81FF05C0CC24DD24EE24FF244F
:1042200006C06A01C60ED71E7901EE0EFF1EE09190
:10423000BA01EE2319F400E010E007C0F0E0EE0F41
:10424000FF1FE750F94F00811181B2FE04C0D094E6
:10425000C194D108D394B3FE04C0F094E194F10862
:10426000F394B4FE03C0109501951F4F8091B901DE
:10427000829586958770823079F1833020F4813081
:1042800009F08BC007C0833009F45BC0843009F0AB
:1042900084C06FC0C70160E072E00E944D66FB0100
:1042A000C70168E070E00E944D669B01C70160E8AD
:1042B00070E00E944D66D701A21BB30B9D01261B27
:1042C000370B2E1B3F0BC8018C199D0990930E07CD
:1042D00080930D07C60121C0C60160E072E00E9414
:1042E0004D66FB01C60168E070E00E944D669B01CF
:1042F000C60160E870E00E944D66A601421B530BA8
:104300009A01261B370B2E1B3F0BC8018E199F09E4
:1043100090930E0780930D07C70162E070E00E9442
:104320004D66600F711FCB01820F931F9093100792
:1043300080930F07621B730B709312076093110732
:104340002CC0C8018C199D0990930E0780930D070E
:10435000C8018C0D9D1D9C012E0D3F1D3093100733
:1043600020930F078E199F099093120780931107CE
:1043700014C0C8018C199D0990930E0780930D07F6
:10438000C8018E0D9F1D9093100780930F070E1983
:104390001F0910931207009311078091A10488232D
:1043A00011F00E94891B80E4E3E4F7E0DF011D9235
:1043B0008A95E9F7BA8DB1FF28C0ABEFB6E0FE01F0
:1043C000319620E030E042E050E080918C0190E0B6
:1043D00081709070BA01681B790B6217730729F01E
:1043E00011961C921E92118210822F5F3F4F1296DF
:1043F00032962430310549F7D1011D921D921D01DD
:10440000BBE12B16B7E03B06B9F785E893E0909344
:1044100001018093000101969093030180930201B2
:1044200001969093050180930401019690930701F2
:104430008093060159E4252E58E0352E49EC642E70
:1044400047E0742E39E8432E37E0532E188A1D8634
:104450008D850E943B0D5C01FC0180818150803183
:1044600008F0D6C2838161E040E00E94280FD101AC
:104470009C918823B9F4192F1C92F5019181892F01
:104480008850823008F0B3C287818E70843009F47E
:10449000AEC2993019F0CC24DD244FC0C12C2CEFD2
:1044A000D22E4BC010E0992309F411E081E0D10134
:1044B0008C93F5013181832F8150A82FB0E0FD014D
:1044C000EE0FFF1FE550F94FC080D180843158F0C6
:1044D000FD858F1740F4AA0FBB1FAA0FBB1FAD5B52
:1044E000B84FCD90DC90D50117962C91822F807318
:1044F00081F0822F8295837090E00197E1E0F0E0F7
:1045000002C0EE0FFF1F8A95E2F7CF01F889F82B62
:10451000F88B26FF12C0353080F4E32FF0E0EE0F69
:10452000FF1FE250FF4F28E030E0A20EB31EB18221
:10453000A08248EF5FEFA40EB51ED50117968C91AF
:10454000179786FD08C018968C91882321F00E9449
:104550000618C80ED91EF5018681882321F48581AD
:10456000882309F45DC1D3016D917D918D919C915A
:10457000112389F420E031E040E050E00E9482669F
:1045800050954095309521953F4F4F4F5F4F4601D5
:10459000820E931E5AC0F50187818E70843049F5D2
:1045A000E081F0E0EE0FFF1FEF5DF84F6081718159
:1045B000882777FD8095982F20E034E640E050E092
:1045C0000E941A66D3016D937D938D939C931397EC
:1045D000F5012281222369F0332727FD3095432FEF
:1045E000532F0E948266D3012D933D934D935C938C
:1045F0001397F301608171818281938120E031E022
:1046000040E050E00E94826650954095309521959B
:104610003F4F4F4F5F4F4601820E931E811491040E
:10462000A1F0D50115968C9197FE82958F7090E040
:10463000FC0124E630E0E29FC001E39F900DF29F71
:10464000900D1124D2018D939C93F2012081318130
:104650002115310599F08091A104882321F0215082
:10466000304031832083D2018D919C91892B31F090
:10467000F3016081718182819381BCC081149104B6
:1046800009F4CEC0D50116968C911697882309F4AB
:10469000B9C08091A104882309F475C012962C91A9
:1046A000222329F460E070E080E293E017C0332712
:1046B00027FD309537FF03C0309521953F4F3327B5
:1046C00027FD3095432F532F60E070E080E293E0A8
:1046D0000E948266C901DA01BC01CD01F501268183
:1046E000181419040CF52F70422F50E04115510594
:1046F000D9F1A4E6B0E04A9F90014B9F300D5A9F3C
:10470000300D1124442737FD4095542F0E948266B6
:1047100079018A01F30180819181A281B381E80E40
:10472000F91E0A1F1B1F29C022952F70422F50E02F
:1047300041155105C9F0A4E6B0E04A9F90014B9F96
:10474000300D5A9F300D1124442737FD4095542FCA
:104750000E948266F301E080F18002811381E21AF7
:10476000F30A040B150B09C0C601AA2797FDA095F3
:10477000BA2FEE24F82E092F1A2FD301ED92FD92B5
:104780000D931C931397F301608171818281938152
:1047900076010027F7FC0095102F1814190464F413
:1047A00020E031E040E050E00E948266E216F3062D
:1047B0000407150764F019C020E031E040E050E044
:1047C0000E9482662E153F054007510774F4C6010A
:1047D000AA2797FDA095BA2FBA2FA92F982F88271F
:1047E000F30180839183A283B383D3016D917D9183
:1047F0008D919C9120E031E040E050E00E94826683
:1048000069010EC0C601AA2797FDA095BA2FBA2F3D
:10481000A92F982F8827F30180839183A283B383E4
:10482000D50114966C91633079F1643028F46130CD
:1048300051F06230B0F449C0653089F1653058F10B
:104840006630B9F52FC0F5018181893039F4D7FC84
:104850002CC020E03EEFC20ED31E0FC0D7FE35C0E5
:104860002EC0D50111968C91893051F41C141D0471
:104870004CF1E0E0F2E0CE0EDF1ECC0CDD1C25C0DA
:104880001C141D04E4F021C0D7FE1FC0D094C194B5
:10489000D108D3941AC01C141D04A4F010C0D7FE74
:1048A0000EC003C01C141D046CF0C12C5CEFD52E8F
:1048B0000CC06750C6010E9419196C0106C0CC24B7
:1048C000DD2403C0C12C44E0D42ED50117968C9171
:1048D000179780FD14C01196EC91EE2381F0E5301E
:1048E00070F4F0E03197EE0FFF1F21E030E02C0F65
:1048F0003D1FE20FF31F80819181C80ED91EB601C2
:10490000882777FD8095982FD50112962C91332713
:1049100027FD3095432F532F0E941A666B017C01AF
:10492000F501278126952770213089F0808122307A
:1049300009F049C0E82FF0E0EE0FFF1FEE0FFF1F58
:10494000E15CF84FC082D182E282F38250C0D5018F
:104950002C91022F10E0000F111F000F111F015C9E
:10496000184FC701B60124E630E040E050E00E9455
:104970008266CA01B901F8012081318142815381E7
:104980000E941A66D8016D937D938D939C93139723
:10499000F5016081062F10E0000F111F000F111F9D
:1049A000015C184FD8016D917D918D919C9120E013
:1049B00034E040E050E00E948266F80120833183B9
:1049C0004283538314C0E82FF0E0EE0FFF1FEE0F79
:1049D000FF1FE15CF84F80819181A281B3818C0D32
:1049E0009D1DAE1DBF1D80839183A283B383FD8572
:1049F000FF5FFD870894211C311C24E030E0620E2B
:104A0000731E42E050E0440E551EF03209F020CDF6
:104A1000F8940091060E1091070E7894F888F0FE35
:104A200005C0002319F48BE00E941366F1FE0BC051
:104A3000C80190708034910519F08834910519F4FB
:104A40008CE00E941366F2FE0EC0C80190708038A0
:104A5000910531F08838910519F08039910519F4E4
:104A60008DE00E9413661DEF412E12E0512E60E290
:104A700074E07C876B8722243324A985BA85AD90A6
:104A8000BD90CD90DC90C601B50124E630E040E059
:104A900050E00E948266E985FA8520833183428353
:104AA0005383F101E050FB4FC90120839183D20170
:104AB00013962D913C91149711968C91BAE08B022C
:104AC00040011124E8EEF3E08E0E9F1ED2018C917E
:104AD000BAE08B0230011124E8E1FCEF6E0E7F1E7C
:104AE000C401582D492F281539051CF4C901522F2E
:104AF000492F852F942F8C01061517050CF483017F
:104B0000A114B104C104D10469F19801442737FD0F
:104B10004095542F1A141B041C041D0454F4B401B2
:104B2000882777FD8095982F621B730B840B950B5C
:104B30000BC0C301AA2797FDA095BA2F281B390BDC
:104B40004A0B5B0BCA01B901A60195010E941A66C6
:104B500020EA36E841E050E00E948266C901DA01AD
:104B60005C016D01C801B5E095958795BA95E1F7AF
:104B7000800F911F9801232F330F330B2595820F40
:104B8000931F000F012F001F110B801B910B7C0145
:104B90000027F7FC0095102FC401E5E09595879557
:104BA000EA95E1F7880D991D930175E035952795F4
:104BB0007A95E1F7F301EE0FEF2FEE1FFF0B260DB5
:104BC000371D880C892C881C990888199909959497
:104BD000879495948794880D991DAC01662757FD9D
:104BE0006095762FEA0CFB1C0C1D1D1D4E155F05F4
:104BF0006007710714F47A018B012E1B3F0BF595AA
:104C0000E795F595E7952E0F3F1FC901AA2797FD58
:104C1000A095BA2FE816F9060A071B0714F47C01C1
:104C20008D01D20112968C91882341F01095009548
:104C3000F094E094E11CF11C011D111DEB85FC8535
:104C40008081882389F060E040E00E94280F88235B
:104C500059F0AB85BC8511968C910E9406187C0199
:104C60000027F7FC0095102FF894E88DF98DE20DE0
:104C7000F31DF182E0827894E985FA853496FA870B
:104C8000E98722E030E0220E331E45E050E0440E7A
:104C9000551E6B857C856E5F7F4F7C876B87E358E5
:104CA000F74009F0EACE04C09F7009F02CC95BC937
:104CB0006A960FB6F894DEBF0FBECDBFCF91DF91DD
:104CC0001F910F91FF90EF90DF90CF90BF90AF902A
:104CD0009F908F907F906F905F904F903F902F901C
:104CE00008950E941E18803210F480E0089587EA2B
:104CF0009CE20E94A91481E00895EF92FF920F9325
:104D00001F93DF93CF93CDB7DEB7C054D0400FB61B
:104D1000F894DEBF0FBECDBF7E010894E11CF11CEC
:104D2000C70163E00E94BD1C8E010F5D1F4FC801CB
:104D300061E00E94BD1CEFEFF2E0B7017801018154
:104D400012818081DB014D915C91D7012D913C91C5
:104D5000882321F0CA01821B930B03C0C901841B65
:104D6000950B800F911FB3E0883E9B071CF088EEE7
:104D700093E006C02CEF8931920714F488E19CEF90
:104D80009283818335966E5F7F4F82E090E0E80EDC
:104D9000F91E93E0EF34F90791F680918C0190E0D1
:104DA0008170907022E030E0281B390B16AA213068
:104DB000310511F0109286032230310511F0109266
:104DC00087031092880386E00E94F75182E00E94D8
:104DD0001366C05CDF4F0FB6F894DEBF0FBECDBFC9
:104DE000CF91DF911F910F91FF90EF9008950F9356
:104DF000982F83E0489FA00111244E57504F00E0A8
:104E0000211101E0892F23E00E94AC590F910895F0
:104E10000F93982F83E0489FA00111244757504FCC
:104E200000E0211101E0892F23E00E94AC590F918D
:104E30000895DF92EF92FF920F931F93CF93DF932A
:104E40008FE161E247E10E949A5A8FE167E347E10F
:104E50000E94965A85E361E247E10E949A5A8FE1E7
:104E600061E247E10E94965A8BE461E247E10E94C9
:104E70009A5A8BE467E347E10E94965A81E661E221
:104E800047E10E949A5A8BE461E247E10E94965AF8
:104E90008AE26BE243E00E949A5A89E26CE243E0C4
:104EA0000E94965A86E56BE243E00E949A5A85E595
:104EB0006CE243E00E94965A8091F2049091F304D0
:104EC000880F991F9C0143E0220F331F4A95E1F799
:104ED000820F931F60E078E00E944D66D62E80918D
:104EE000F4049091F504880F991F9C0113E0220FA0
:104EF000331F1A95E1F7820F931F60E078E00E945C
:104F00004D668B01109501951F4FB8E2FB2EFD0CED
:104F1000AAE2EA2EE00E8F2D6E2D45E00E949A5AED
:104F2000025D8F2D602F45E00E94965A8D2D845D85
:104F30006E2D45E00E949A5A8F2D6E2D45E00E94FD
:104F4000965A8091F8049091F904880F991F9C015A
:104F5000E3E0220F331FEA95E1F7820F931F60E031
:104F600078E00E944D66D62E8091F6049091F70469
:104F7000880F991F9C0163E0220F331F6A95E1F7A8
:104F8000820F931F60E078E00E944D668B011095C0
:104F900001951F4F54E5F52EFD0C4AE2E42EE00E7C
:104FA0008F2D6E2D45E00E949A5A025D8F2D602F45
:104FB00045E00E94965A8D2D885A6E2D45E00E943C
:104FC0009A5A8F2D6E2D45E00E94965ACAEFD4E072
:104FD0003AE3F32E28E3E22E69917991882777FD51
:104FE0008095982F26E130E040E050E00E941A665C
:104FF0006050784A8F4F9F4F20E038E040E050E00B
:105000000E948266122F1F5F0E2D011B8F2D602FB5
:10501000412F0E949A5A8F2D8F5F602F412F0E943F
:105020009A5A8F2D8E5F602F412F0E949A5A85E0E9
:10503000F80E89E4F81681F6DF91CF911F910F9158
:10504000FF90EF90DF900895FF920F931F93F82E3B
:10505000162F042F80E860E0412F50E0202F0E949F
:10506000385C1A3010F485E701C08FE660E04FE24B
:10507000202F0E94F1581A3010F485E701C08FE606
:105080004F2D50E04F5F5F4F60E0202F0E94385C53
:105090001F910F91FF9008954F925F926F927F92B0
:1050A0008F929F92AF92BF92CF92DF92EF92FF9238
:1050B0000F931F93DF93CF930F92CDB7DEB7F0908E
:1050C0008A019FE0F922813809F47AC0823890F48D
:1050D000833209F43FC0843230F48032E1F082320E
:1050E00009F090C046C0813609F45EC0803809F0EE
:1050F00089C01CC0843801F1853838F4823809F43D
:105100004DC0833809F07EC043C08538E9F08F3B3D
:1051100009F078C06BC0A5E0FA1609F073C0809161
:10512000A40491E089278093A4045EC00E94880DA6
:105130000E94A91480E805C085EA98E30E94A9149A
:1051400084E80E94E15D5EC08FE890E30E94A914AC
:1051500085E8F7CF8F2D8F5F80938A01863010F01E
:1051600010928A0181E00E94F75185E00E94136647
:1051700049C0FF2029F0FA94F0928A01F39403C009
:1051800085E080938A0181E00E94F75186E0EECFAE
:1051900088E39BE20E94D20E83E8D3CF82EE9BE2AB
:1051A0000E94D20E82E8CDCF80917906823021F420
:1051B00083E08093790618C0B5E0FB1619F512C09C
:1051C000109279061092720610927106109276066D
:1051D000109275061092740610927306109278065B
:1051E000109277060E949B0D89E0C0CF81E00E945B
:1051F000E15D83E00E94E15D82E00E94E15D81E08B
:10520000809369088091B70160E040E00E94280F18
:10521000882331F080916908882311F40E947D264B
:105220008091B70160E040E00E94280F80936908F8
:1052300080918A01803108F0D8C090910801809156
:105240007701981710F004E001C006E063EAC62E6B
:1052500061E0D62E1AE0812F60E0F60141916F01E6
:1052600024E00E94F158155F1837A9F7006884E21E
:1052700060E1402F0E94951784E268E146E50E94B4
:10528000A85980917906882399F0823011F004E0C2
:1052900001C006E040917A0650917B068EE560E100
:1052A000202F0E949B1783E368E140E00E94CF1308
:1052B0004091B50113E04102A00111244C56574F13
:1052C00084E260E123E000E00E94AC594091B40127
:1052D0004295407F45954595459545954102A001EC
:1052E00011244357574F89E360E123E00E94AC59F2
:1052F00050E0C52E51E0D52E882499244FE1B42EDC
:10530000F401E85EFE4FE080D601ED91FC91E08172
:10531000E7FDED5FE595E595E43E0CF4E4EE0E2F38
:10532000ED310CF00CE1F401EC5EFE4F808188233E
:10533000F9F08E2D64E046E30E949A5A80918C0128
:1053400090E08825992580FD04C08091B4018F707C
:1053500061F48E2D81506EE143E00E949A5A8E2DA9
:105360008F5F6EE143E00E949A5A9B2D901B14C000
:105370008E2D8B516BE346E30E94965A1E2D1150E1
:10538000812F6AE343E00E94965A812F6CE343E049
:105390000E94965AE00E9BE31E2D1350092F0350D6
:1053A000812F602F47E099830E949A5A99819D5FCF
:1053B000812F692F47E00E94965A8E2D8D5F602FB6
:1053C00047E00E949A5A812F602F47E00E94965A28
:1053D0000894811C911CE2E0F0E0CE0EDF1EF4E0A8
:1053E0008F16910409F08CCF27C080E060E043EA7B
:1053F00051E02AE001E10E94AC59909108018091AE
:105400007701981710F040E001C042E084E560E0C9
:105410000E94951780917906882371F0823011F0EF
:1054200000E001C002E040917A0650917B068FE6D1
:1054300060E0202F0E949B1781E08F1508F49AC02E
:1054400036E2A32E35E0B32ECC24DD242BE1622EF0
:10545000712C99E1892E912C2C2DD5014D905C90C9
:10546000FF2029F0B1E0FB1609F077C02BC0C60180
:1054700083709070869D8001879D100D969D100D04
:1054800011242695269530E02B5F3F4F83E0220FB5
:10549000331F8A95E1F7C20160E270E00E944D6619
:1054A000FB01C20160E870E00E944D666E1B7F0B3D
:1054B000460E571E802F8F5D622FA20120E20E94B0
:1054C000385C4BC0243010F01EE501C012E296019A
:1054D00023703070C901880F991F880F991F820FA0
:1054E000931F082F0A5D920157FE04C0222733271D
:1054F00024193509289DC001299D900D389D900DD6
:10550000112480509E4F892F990F990B8595859571
:10551000E82EE9E1E81714F4A9E1EA2E812F895178
:10552000602F43E325E50E94645A602F6250812F6B
:1055300045E00E949A5A1414150414F41F5F01C028
:105540001E190F5F812F602F4E2D0E94965A025018
:10555000812F602F4E2D0E94965A0894C11CD11C99
:1055600082E090E0A80EB91E98E0C916D10409F0B7
:1055700073CF6CC0A4E0AF1508F45EC00E94192779
:10558000B2E0FB1621F4F6E0CF2E40E013C08F2DE1
:1055900090E09C01220F331F280F391F220F331F69
:1055A000422F495001979C01220F331F280F391FAA
:1055B000C22ECC0CD42E83E048025001112410E2FC
:1055C00016C00E944B0D7C018D2D60E040E00E94D2
:1055D000280F082FEA0CFB1C8AE0612FA70123E0AB
:1055E0000E94AC59E3E0F0E0AE0EBF1E185FD3940A
:1055F000183339F7DC2C83E0FC2DF802500111241C
:1056000010E216C00E944B0D7C018D2D60E040E041
:105610000E94280F082FEA0CFB1C85E6612FA701CA
:1056200023E00E94AC5983E090E0A80EB91E185FF9
:10563000D394183339F70AC04091A6045091A704B7
:105640008CE368E224E004E00E949B170F90CF9166
:10565000DF911F910F91FF90EF90DF90CF90BF905F
:10566000AF909F908F907F906F905F904F90089534
:105670000F931F93CF93DF93082F80E060E048EBF8
:1056800058E021E00E94E759013658F0033628F02F
:10569000033639F482EE9BE202C08CE498E20E9469
:1056A000D20E86E068E044EB58E00E941A5A40911E
:1056B0007106509172068AE268E020E000E00E94E4
:1056C0009B1786E668E040EB58E00E941A5A40912A
:1056D0007306509174068EE468E020E00E949B17E8
:1056E00086E060E14CEA58E00E941A5A4091750643
:1056F000509176068AE260E120E00E949B1786E6E0
:1057000060E148EA58E00E941A5A409177065091A9
:10571000780674E0569547957A95E1F78EE460E156
:1057200020E00E949B1786E660E044EA58E00E9471
:105730001A5A40916F06509170068EE460E020E0A6
:105740000E949B178091F5069091F6068937910586
:1057500018F4C0E0D0E004C08091F406C82FD0E077
:1057600082E06CE34EE70E94965A85E06CE143E2EA
:105770000E949A5A0BE0802F6BE343E00E949A5AF2
:105780000A5F0338C1F706E01CE3FE01E458F94F55
:105790004081612F641B802F0E949A5A2196C8373E
:1057A000D10510F0C0E0D0E08091F40690E0C81779
:1057B000D90719F00F5F0E3741F7DF91CF911F9195
:1057C0000F9108951F93182F80E060E048E259E0A0
:1057D00021E00E94E7591236E1F0133628F4103622
:1057E00031F01136E9F418C01336D1F415C08FEF3B
:1057F00097E090931301809312011092F806109293
:10580000F7061092FA061092F90689E00E941366D4
:1058100007C088E39BE202C08CE498E20E94D20EAB
:1058200080E068E046E159E00E941A5A4091F7068C
:105830005091F8065695479584E568E00E944F5CC4
:1058400080E060E144E059E00E941A5A4091120160
:10585000509113015695479584E560E10E944F5C95
:1058600080E068E142EF58E00E941A5A4091F70642
:105870005091F8068091120190911301481B590B29
:105880005695479584E568E10E944F5C80E060E2B0
:1058900040EE58E00E941A5A2091F9063091FA061B
:1058A00084E690E0289FA001299F500D389F500D5D
:1058B0001124E4E056954795EA95E1F784E560E226
:1058C00020E30E94385C80E068E24FEC58E00E94E0
:1058D0001A5A0E94C10EAC018FE368E20E941E5A60
:1058E00082E168E34DEB58E00E941A5A1F91089537
:1058F000DF92EF92FF920F931F93CF93DF93F82ED7
:10590000D62E122F80E00E941A5AC12FD0E0112704
:1059100007FD109520E0C017D10709F421E086E6C5
:105920006D2D4F2D0E940827C017D10739F48E2DF9
:105930006F2D40E021E00E941911F82E8F2DDF918C
:10594000CF911F910F91FF90EF90DF9008951F93DB
:10595000182F80E060E14DEC5DE00E941A5A0E9431
:105960001E18482F88E760E150E020E00E94385C74
:1059700080E060E247EB5DE00E941A5A113651F474
:1059800081E60E94E15D81E00E94CE1484EA99E400
:105990000E94A9141F9108957F928F929F92AF92B7
:1059A000BF92CF92DF92EF92FF920F931F93CF930C
:1059B000DF93EC01D62EB42E4901702E0091FA042B
:1059C0001091FB048091F7089091F808801B910BCF
:1059D00060E470E00E944D66262F60932405E091FC
:1059E000FC04F091FD048091F5089091F6088E1B5F
:1059F0009F0B60E470E00E944D66609325052223B2
:105A000021F01093F8080093F708662321F0F09333
:105A1000F608E093F50880912305882321F480910E
:105A20008E0185FF06C01092240510922505109264
:105A3000230540912405442351F4809125058823B2
:105A400031F480919F049091A004892B89F080917A
:105A5000900190E024EF31E0BC01629FC001639FA0
:105A6000900D729F900D11249093A3048093A20433
:105A70008114910409F45FC08881882311F040E00B
:105A800056C0442341F180912105882321F57B2DC7
:105A9000741B472F77FD40E0272D30E0842F992796
:105AA00087FD90958217930714F0472D4150242FBE
:105AB000332727FD30958B2D90E02817390749F0C3
:105AC000F901EE0FFF1FE80DF91D859194910E94D9
:105AD000D20E1092240585E6D81679F4BB2011F475
