:100000000C94530F0C947B0F0C947B0F0C947B0F70
:100010000C947B0F0C947B0F0C947B0F0C947B0F38
:100020000C947B0F0C947B0F0C945E180C94EC6377
:100030000C94DF660C9419640C947B0F0C94BF181D
:100040000C944C180C947B0F0C94676A0C947B0FE7
:100050000C947B0F0C947B0F0C947B0F0C947B0FF8
:100060000C949F660C9407190C9483640C94666638
:100070000C947B0F0C947B0F0C947B0F0C947B0FD8
:100080000C947B0F0C947B0F0C947B0F7268786838
:1000900085688E68A468BD68D068DF68F368086901
:1000A00011692E6934693C6941694669AF69B9696A
:1000B0004E6955695F696969706974697B69966998
:1000C0009B69A069A8697E687F6986698E6901025B
:1000D00003040103020404020301040302014F4E5E
:1000E00020004F4646001B1E272D36394B4E636CB1
:1000F0007278878D939CB1B4C6C9D2D8E1E45370AD
:100100006C61736800804000000000000000000087
:1001100000000000000000000000000000000000DF
:1001200000000000000000000000000000000000CF
:1001300000000000000000000000000000000000BF
:1001400000000000000000000000000000000000AF
:10015000000080C0E0E0F0F8F8FCFCFCF8F8F8F0F3
:1001600040000000000080808000000000000000CF
:1001700000000000000000000000000080C0C0E09F
:10018000E0E0F0F0F0E0C00000000000C0F8FFFF89
:100190009F8783838383838383838383838383830F
:1001A00083838383838383830383808383838383A2
:1001B000838383838383838383838383838383830F
:1001C0008383C3E3733F1F0000000080E0F0F8FC6E
:1001D000FEFFFFFFFF7F3F1F1F0F0783C3E1E1E02B
:1001E000E0C0000E1F3F7F7FFFF3E0E080000000D3
:1001F0000000000000000080F0FCFEFFFFFFFF7F1A
:100200003F0F0301010100000080F0FEFFFFC7C1A6
:10021000C1C1C1C1C1C1C1C1C1C1C1C1C1C1C1C1CE
:10022000C1C1C1C1C101C1F0FEFF3F0F070F0D0DDC
:100230000D1D191919193131313171616161E1C136
:10024000C1C18100000080E0F8FCFFFFFFFF2F1715
:100250000F038180C0E0F0F8FCFEFFFFFFFFFFFF0F
:100260007F010000000000000001010307070E1ECF
:100270001C3870E0F0F8FEFFFF7F1F0F0300010045
:10028000000000000000000000000000000000006E
:10029000000000000000000000000000000000005E
:1002A000000000000000000000000000000000004E
:1002B000000000000000000000000000000000003E
:1002C00000000000007EFFFFFFFFFFFFFBF8FCFCCB
:1002D000FEFF7F3F1F0F07C3FFFFFFFFFFFF7F07EB
:1002E0000000000000000000000000000000C0E06E
:1002F000F8FEFFFF7F1F0F1F3D7CF8F8F0E0800045
:1003000000000000000000000000000000000000ED
:1003100000000000000000000000000000000000DD
:1003200000000000000000000000000000000000CD
:1003300000000000000000000000000000000000BD
:100340000000000000000001010101010307070790
:100350000301000000E0FCFFFFFFFFFF1F030000A0
:10036000000000000000000000C0F078DE27130944
:100370000E0703000000000000000001030F7FFFD4
:10038000FC7878F800000000000000000000008009
:10039000808080808080808000808000808000005D
:1003A00000000000008080808080808080808080CD
:1003B00080808080808080000000000000000000BD
:1003C000000000000000000000000000000000002D
:1003D000000080F0FEFFFFFFFF3F0F010000000064
:1003E00000000000C0E0381E0F0300010000000004
:1003F00000000000000000000000000000000000FD
:100400000000030301000000000000000000000ED7
:100410000E02020202020303000F0F000F0F080872
:1004200008080808080F0F08080808080F0F000040
:1004300000000F0F0000000000000000000000009E
:1004400000000000000000000000000000000000AC
:10045000C0F8BFFFFFFF1F7F010000000000000089
:1004600000F0FCFF7F78300000000000000000007A
:10047000000000000000000000000000000000007C
:10048000000000000000000000000000000000006C
:10049000000000000000000000000000000000005C
:1004A000000000000000000000000000000000004C
:1004B000000000000000000000000000000000003C
:1004C0000000000000000000000000000000301CE0
:1004D000070E0F07010000000000000000000000F0
:1004E000000000000000000000000000000000000C
:1004F00000000000000000000000000000000000FC
:1005000000000000000000002D2D2D2D005255444C
:1005100020454C45205448522041494C200004506D
:10052000312020503220205033202048414C464674
:10053000554C4C435943314359433243594333504B
:10054000504D3150504D3250504D3350504D34502D
:10055000504D3550504D3650504D3750504D38431A
:100560004831204348322043483320434834204315
:1005700048352043483620434837204348382043F5
:1005800048392043483130434831314348313243C0
:1005900048313343483134434831354348313633A9
:1005A000504F534756312047563220475633204745
:1005B00056342047563520475636204756372000B8
:1005C0002D2D2D20004348002D2D2D005448525232
:1005D0005544454C454944304944314944324149E8
:1005E0004C47454154524E5357315357325357336A
:1005F0005357345357355357365357375357385348
:10060000573953574153574253574300034F4646B8
:10061000414253525573525525454C73454C255410
:100620004873544825414C73414C2550312050317A
:100630002550322050322550332050332500414C74
:1006400045525400507265737320616E79206B655A
:100650007920746F20736B697000707265737320FA
:10066000616E79204B657900414C455254004D45EF
:100670005353414745006D537461636B2075666C3D
:100680006F77006D537461636B206F666C6F7700DA
:100690004C4F4144494E4700454550524F4D206C08
:1006A0006F77206D656D005468726F74746C65208F
:1006B0006E6F742069646C65005265736574207494
:1006C00068726F74746C6500506C6561736520525C
:1006D0006573657420537769746368657300416C52
:1006E00061726D732044697361626C656400204FB0
:1006F0006C642056657273696F6E20454550524F89
:100700004D202020434845434B2053455454494EE7
:1007100047532F43414C494200204D4F443A204E0D
:100720004D454120202020002053564E3A2065722E
:1007300039782D723738380054494D453A203233D4
:100740003A30363A333400444154453A2031352E5C
:1007500030332E3230313300564552533A20563121
:100760002E3238312D4D696B6500FEFFFDF6F7F82E
:10077000F9FAFBFC042D2D2D2D54494D3154494DD2
:10078000324241545447767231477672324776721C
:1007900033477672344776723500537769746368ED
:1007A000205761726E696E6700475600032D2D2D2C
:1007B000494E560043555256450009004544495498
:1007C0002D3E005052455345540043555256455313
:1007D00000AC2D1C40633F0C29544B4D50E34D8C15
:1007E00044B051164D76224356004C494D4954535E
:1007F000000003434F5059205452494D205B4D4552
:100800004E555D00474C4F42414C205641525300DB
:100810000001475600032D2D2D52746D45746D5403
:10082000746D41746D52454E525544454C45544883
:100830005241494C503120503220503320633120F6
:1008400063322063332063342063352063362063B2
:1008500037206338206339206331306331316331AD
:10086000326331336331346331356331360054459B
:100870004D504C4154455300014368616E6E656CA8
:10088000204F7264657200205245544100434C452C
:100890004152204D49584553205B4D454E555D0012
:1008A00053414645545920535749544348455300F2
:1008B0000000024E756D62657220566F6963652097
:1008C0005377000720382053656373313220536516
:1008D00063733136205365637300065761726E315E
:1008E000205761726E322043686561702052696ED4
:1008F000672020536369466920526F626F742043FA
:100900006869727020546164612020437269636B6E
:1009100074536972656E20416C6D436C6B526174E7
:100920006174615469636B2020486170746331485D
:10093000617074633248617074633300565300060B
:100940004F4E202020204F4646202020424F544822
:10095000202031355365637333305365637336300C
:100960005365637356617269626C00435553544F0B
:100970004D205357495443484553000003535700F3
:10098000072D2D2D2D202020763E6F66732020769A
:100990003C6F667320207C767C3E6F66737C767C31
:1009A0003C6F6673414E44202020204F522020206F
:1009B0002020584F522020202076313D3D76322095
:1009C0007631213D76322076313E763220207631E6
:1009D0003C7632202076313E3D76322076313C3DE9
:1009E00076322054696D654F6666000E4F6E0003C7
:1009F0002D2D2D783E30783C307C787C663E3066FC
:100A00003C307C667C633120633220633320633466
:100A10002063352063362063372063382063392014
:100A20006331306331316331326331336331346385
:100A3000313563313600494E53455254204D4958A3
:100A4000200045444954204D4958200002536F75F9
:100A5000726365000257656967687400466D547279
:100A6000696D56616C004F66667365740002466C72
:100A70004D6F64657472696D00025472696D000D8A
:100A8000446966660043757276650002537769743F
:100A9000636800025761726E696E6700024D756C83
:100AA000747078000841646420202020204D756C0B
:100AB0007469706C795265706C61636520000244E2
:100AC000656C617920446F776E000244656C6179D2
:100AD0002055700002536C6F772020446F776E00B2
:100AE00002536C6F7720205570004D6178206D693E
:100AF000786572732072656163683A203332005002
:100B000072657373205B455849545D20746F206192
:100B1000626F727400035945530B4E4F00035B4DD7
:100B2000454E555D0B5B455849545D0044454C4569
:100B30005445204D49583F00032045444954202046
:100B400020000320494E5345525420000320434FB8
:100B500050592020200003204D4F564520202000D2
:100B6000032044454C45544520004D49584552000A
:100B7000012B2A52004558504F2F4452000045780F
:100B8000706F00576569676874004472537731006D
:100B90004472537732004452204D6964004452201D
:100BA0004C6F770044522048696768004558504FA1
:100BB0002F44520000036578702020252020737791
:100BC000312073773200204142434445464748492B
:100BD0004A4B4C4D4E4F50515253545556575859FD
:100BE0005A6162636465666768696A6B6C6D6E6F93
:100BF000707172737475767778797A3031323334F4
:100C000035363738395F2D2E004455504C49434115
:100C10005445204D4F44454C0044454C45544520D7
:100C20004D4F44454C004475706C69636174696E46
:100C300067206D6F64656C00534554555000000982
:100C40000001000000000000000602004E616D651A
:100C500000566F69636520496E646578114D454E95
:100C6000550054696D65720054726967676572005A
:100C70005472696767657242000A436F756E74202B
:100C8000446F776E436F756E74205570202000544A
:100C90002D5472696D00542D4578706F005472693F
:100CA0006D20496E63000645787020202045784607
:100CB000696E6546696E6520204D656469756D4392
:100CC0006F61727365005472696D205377004265DD
:100CD000657020436E7400524554413132330050E8
:100CE000726F746F0050504D2020205058582020B3
:100CF0002044534D32202050504D31362050504D1D
:100D000053494D0011755365630013755300043446
:100D10004348203643482038434820313043483147
:100D20003243483134434831364348000B52784E01
:100D3000756D0050504D2046724C656E0D6D5365BB
:100D4000630053656E64205278204E756D62657243
:100D5000205B4D454E555D0044534D2054797065E0
:100D6000004C50342F4C5035202044534D326F6E80
:100D70006C792044534D322F44534D580050504D00
:100D800020317374204368616E0053686966742073
:100D900053656C0003504F534E454700452E204C81
:100DA000696D69747300547261696E6572005432C2
:100DB0005468547269670044454C455445204D4F72
:100DC00044454C0F5B4D454E555D0048454C492010
:100DD000534554555000005377617368205479701F
:100DE0006500062D2D2D202020313230202020318D
:100DF000323058202031343020202039302020203B
:100E00002000436F6C6C656374697665005377618D
:100E100073682052696E6700454C452044697265CD
:100E20006374696F6E0041494C2044697265637454
:100E3000696F6E00434F4C20446972656374696F3B
:100E40006E004D4F44454C53454C00096672656534
:100E50000043414C4942524154494F4E00124637DB
:100E6000212A235823D823D824035B4D454E555DB2
:100E700020544F2053544152540005534554204DA3
:100E80004944504F494E54005B4D454E555D2057E7
:100E900048454E20444F4E4500034D4F5645205384
:100EA0005449434B532F504F545300414E4100423D
:100EB0004700444941470005204D656E752045783F
:100EC000697420446F776E202020557052696768DE
:100ED00074204C656674005472696D2D202B0012CD
:100EE000081200081C0808081C0800000822004915
:100EF0000022080000000000227F220000000822DB
:100F000000490022080000082200490022080000D1
:100F100000227F2200000000000822004900220871
:100F20000000081C0808081C080056455253494F89
:100F30004E00545241494E45520000030303030042
:100F400007536C61766500036F6666202B3D203A7F
:100F50003D0003636831636832636833636834005B
:100F60004D756C7469706C6965720043616C000347
:100F70006D6F64650A2520737263202073770052B9
:100F80004144494F205345545550004F776E657288
:100F9000204E616D65004265657065720006517591
:100FA000696574204E6F4B6579207853686F727451
:100FB00053686F7274204E6F726D20204C6F6E6795
:100FC0002020784C6F6E672000536F756E64204D43
:100FD0006F6465000A4265657065722020202050AC
:100FE0006953706B72202020204265657072566FC5
:100FF000696365506953706B566F69636500566F1E
:101000006C756D6500537065616B65722050697415
:1010100063680048617074696320537472656E6719
:10102000746800436F6E747261737400426174740B
:10103000657279207761726E696E6700496E6163CF
:1010400074697669747920616C61726D136D0054F6
:1010500068726F74746C6520726576657273650072
:101060004D696E75746520626565700042656570D6
:1010700020636F756E74646F776E00466C61736881
:10108000206F6E2062656570004C6967687420731C
:101090007769746368004261636B6C696768742088
:1010A000696E76657274004C69676874206F666655
:1010B000206166746572004C69676874206F6E20E9
:1010C00053746B204D760053706C617368207363AA
:1010D0007265656E0053706C617368204E616D655A
:1010E000005468726F74746C65205761726E696E1B
:1010F000670044656661756C7420537700545245EF
:101100003031324147004D656D6F72792057617201
:101110006E696E6700416C61726D205761726E6915
:101120006E6700506F745363726F6C6C0042616E37
:101130006447617000456E61626C652050504D538C
:10114000494D0043726F73735472696D004D6F6443
:101150006500535441543200746D72314C617420F7
:101160006D61780F757300746D72314C6174206D10
:10117000696E0F757300746D7231204A69747465FD
:10118000720F757300746D61696E0F6D7300035B90
:101190004D454E555D20746F2072656672657368AB
:1011A00000535441540001544D451154535700010C
:1011B00053544B115354250011544F540003457898
:1011C00070457846466E654D6564437273005454AD
:1011D0006D004D452020202020202020004D4F4430
:1011E000454C20202020200042616420454570723B
:1011F0006F6D204461746100454550524F4D20464B
:101200006F726D617474696E670067656E7772697D
:101210007465206572726F7200454550524F4D20C3
:101220006F766572666C6F770050085000000000A2
:10123000000000006F000007000700147F147F14F7
:10124000242A7F2A1223130864623649552250004B
:1012500005030000001C2241000041221C0014086C
:101260003E081408083E080800503000000808082E
:10127000080800606000002010080402003E494594
:101280003E0000427F4000625149460041494936D4
:10129000001814127F0027454539003E49493200A5
:1012A000017905030036494936000649291E000028
:1012B000363600000056360000081422411414147B
:1012C00014144122140800020151090600060909FC
:1012D000067E0909097E7F494949363E414141223E
:1012E0007F4141221C7F494949417F090909013E4B
:1012F0004149497A7F0808087F00417F410020402A
:10130000413F017F081422417F404040407F020C52
:10131000027F7F0408107F3E4141413E7F09090959
:10132000063E4151215E7F09192946264949493225
:1013300001017F01013F4040403F1F2040201F3FEF
:101340004030403F63140814630708700807615178
:10135000494543007F4141000204081020004141FB
:101360007F000402010204404040404000010204AA
:101370000020545454787F4844443838444444202E
:10138000384444487F3854545418087E0901020CEC
:101390005252523E7F0804047800447D40002040B1
:1013A000443D007F1028440000417F40007C041829
:1013B00004787C0804047838444444387C141414B9
:1013C00008081414187C7C08040408485454542059
:1013D000043F4440203C4040207C1C2040201C3CDA
:1013E0004020403C44281028440C5050503C446459
:1013F000544C44000836410000007F000000413694
:1014000008000808221C08081C220808A0608000A8
:1014100000000000000000000000000000FFFF00CE
:1014200000000000001F3F00003F1F00003030FFA1
:10143000FF3030FFFF30303078CCCCFFFFCCCC8C8D
:101440000C060F0F86C0E070381C0C3CFEC7E3F39F
:101450003B1E0C00000000333B1F0F00000000008B
:1014600000F0F81C0E07030000000003070E1CF834
:10147000F000003030E0C0FCFCC0E03030C0C0C044
:10148000C0FCFCC0C0C0C0000000000000000000A4
:1014900000C0C0C0C0C0C0C0C0C0C00000000000CC
:1014A000000000000000000080C0E070381C0C004C
:1014B00000000000000000000000000000383800BC
:1014C0000000000000000000000000000003033FD7
:1014D0003F03033F3F03030C0C0C0C3F3F0C0C0776
:1014E000030C0E07030100183C3C180F1F38313362
:1014F000331E1E3333000000000000000000000017
:101500000003070E1C38300000000030381C0E07A6
:10151000030000030301000F0F000103030000009C
:10152000000F0F000000000000333B1F0F00000001
:1015300000000000000000000000000000183C3C1B
:1015400018000000000C0E0703010000000000005E
:1015500000FCFE87C3E377FEFC00000C0EFFFF00DB
:1015600000000000000C0E0783C3E77E3C00000370
:1015700003C3C3C3E7FE3C0000C0E070381C0EFF8D
:10158000FF00003F3F33333373E3C30000FCFEC76B
:10159000C3C3C78E0C00000303C3E3733B1F0F00DC
:1015A000003CFEE7C3C3E7FE3C00003C7EE7C3C34C
:1015B000E7FEFC0000183C3C18000000000000188A
:1015C0003C3C18000000000000C0E0F0381C0E0792
:1015D000033030303030303030303003070E1C38BC
:1015E000F0E0C000000C0E07030383C3E77E3C005D
:1015F000000F1F3B3130381F0F000030303F3F30AD
:1016000030000000003C3E373331303030000030D5
:1016100030303030391F0F00000303030303033F52
:101620003F00000C1C383030381F0F00000F1F38EF
:101630003030391F0F000000003F3F000000000065
:10164000000F1F393030391F0F0000000030381CE8
:101650000E07030000060F0F060000000000003315
:101660003B1F0F000000000000000103070E1C38A4
:10167000300303030303030303030330381C0E0783
:1016800003010000000000000033330100000000EF
:10169000003C7EE7C3C3E77E3CF0F8DCCEC7C7CE94
:1016A000DCF8F0FFFFC3C3C3C3C3E7FE3CFCFE0787
:1016B00003030303070E0CFFFF030303070E1CF8CD
:1016C000F0FFFFC3C3C3C3C3C30303FFFFC3C3C34D
:1016D000C3C3C30303FCFE0703C3C3C3C7CECCFF0E
:1016E000FFC0C0C0C0C0C0FFFF00000303FFFF0376
:1016F000030000000000000303FFFF0303FFFFC01F
:10170000E0F0381C0E0703FFFF000000000000009F
:1017100000FFFF0E1CF8F81C0EFFFFFFFF3870E003
:10172000C08000FFFFFCFE070303030307FEFC006D
:101730000000000000000000003F3F00000000002B
:10174000003F3F3F3F3030303030391F0F0F1F38E0
:1017500030303030381C0C3F3F303030381C0E07F2
:10176000033F3F30303030303030303F3F000000FA
:1017700000000000000F1F3830303030303F3F3F56
:101780003F0000000000003F3F000030303F3F308E
:101790003000000C1C383030381F0F00003F3F0075
:1017A0000103070E1C38303F3F30303030303030CE
:1017B000303F3F0000000000003F3F3F3F0000007F
:1017C0000103033F3F0F1F3830303030381F0FFF09
:1017D000FFC3C3C3C3C3E77E3CFCFE07030303038D
:1017E00007FEFCFFFFC3C3C3C3C3E77E3C3C7EE7E9
:1017F000C3C3C3C3C78E0C03030303FFFF03030369
:1018000003FFFF000000000000FFFFFFFF000000DB
:10181000000000FFFFFFFF000000000000FFFF0FBF
:101820001F38F0E0E0F0381F0F3F7FE0C08080C03D
:10183000E07F3F03030383C3E3733B1F0F0000FFFD
:10184000FF0303030300000C1C3870E0C08000009D
:1018500000000003030303FFFF000030381C0E07E5
:10186000070E1C3830000000000000000000003FA0
:101870003F00000000000000000F1F383033371E0B
:101880001C3F333F3F000003070E1C38300C1C3850
:1018900030303030391F0F000000003F3F000000A3
:1018A000000F1F3830303030381F0F03070E1C3840
:1018B000381C0E07030F1F38381F1F38381F0F3C06
:1018C0003E0703010103073E3C000000013F3F01CA
:1018D0000000003C3E373331303030303000003FC4
:1018E0003F30303030000000000000000103070EE0
:1018F0000C0000303030303F3F000000000000009E
:1019000000000000003030303030303030303000F7
:101910000003070E1C38300000000030303030303B
:1019200070E0C0FFFFC0E070303070E0C0C0E07019
:1019300030303030300000C0E070303070E0C0FF38
:10194000FFC0E0703030303070E0C0C0C0FCFEC777
:10195000C303070E0CF0F89C0C0C0C0C0CFCFCFFE9
:10196000FFC0E070303070E0C000003030F3F300B2
:10197000000000000000003030F3F30000FFFF0023
:1019800080C0E07030000000000303FFFF00000093
:1019900000F0F03070E0E07070E0C0F0F0C0E07097
:1019A000303070E0C0C0E0703030303070E0C000E7
:1019B0000000000000000000000C1E3F33333333F2
:1019C000333F3F3F3F3030303030381F0F0F1F382C
:1019D00030303030381C0C0F1F3830303030303F52
:1019E0003F0F1F3B3333333333030300003F3F00CC
:1019F0000000000000000133333333333B1F0F3F3F
:101A00003F0000000000003F3F000030303F3F300B
:101A10003000000C1C383030381F0F00003F3F03EF
:101A2000070F1C38300000000030303F3F303000DE
:101A3000003F3F0000030300003F3F3F3F00000026
:101A40000000003F3F0F1F3830303030381F0FF09C
:101A5000F03030303030F0E0C0C0E0F0303030E016
:101A6000C0F0F0F0F0C0E070303070E0C0C0E0F0E6
:101A7000303030303000003030FFFF3030000000B8
:101A800000F0F0000000000000F0F0F0F0000000B6
:101A9000000000F0F0F0F0000000000000F0F03076
:101AA00070E0C08080C0E07030F0F0800000000086
:101AB00000F0F03030303030B0F0F070300000C066
:101AC000E03C3E0703000000000000FFFF000000B4
:101AD00000000003073E3CE0C00000C0C0C0C00CD6
:101AE0001CF8F0E0C0C0E0F0F81C0CC0C0C0C03F63
:101AF0003F03030303030301000001030303030384
:101B0000033F3F3F3F000000000000000030313342
:101B1000333333333F1E0C00000F1F383030381C76
:101B20000C0F1F383030381C0C3F3F03070E1C3899
:101B3000381C0E07030F1F38381C1C38381F0F3095
:101B4000381C0F07070F1C38300001333333333391
:101B50003B1F0F30383C3E3733313030300000000F
:101B6000010F1F38300000000000003F3F00000060
:101B700000000030381F0F01000000000000000CC2
:101B80000E07030100000103070E0C0000000040D7
:101B900080080420100201A71BB31BB91BC61BCD74
:101BA0001BDA1BE51BF01B53696D706C6520342D2F
:101BB000434800542D43757400537469636B792056
:101BC000542D43757400562D5461696C00456C6545
:101BD000766F6E5C44656C74610048656C69205377
:101BE00065747570004779726F2053657475700065
:101BF000536572766F20546573740000008911126A
:101C0000239B322446AD573665BF74488CC19D5A1C
:101C1000AFD3BE6CCAE5DB7EE9F7F881100801930B
:101C2000331A22A5562C47B7753E64C99C408DDBFC
:101C3000BF52AEEDDA64CBFFF976E802218B3010AB
:101C40000299132667AF763444BD554AADC3BC58DC
:101C50008ED19F6EEBE7FA7CC8F5D983310A2091CB
:101C6000121803A7772E66B5543C45CBBD42ACD9BC
:101C70009E508FEFFB66EAFDD874C904428D53165F
:101C8000619F702004A9153227BB364CCEC5DF5E9C
:101C9000EDD7FC6888E1997AABF3BA85520C43978B
:101CA000711E60A1142805B3373A26CDDE44CFDF7C
:101CB000FD56ECE9986089FBBB72AA06638F72142B
:101CC000409D512225AB343006B9174EEFC7FE5C5C
:101CD000CCD5DD6AA9E3B8788AF19B87730E62954B
:101CE000501C41A3352A24B1163807CFFF46EEDD3C
:101CF000DC54CDEBB962A8F99A708B088481951AEF
:101D0000A793B62CC2A5D33EE1B7F04008C919523B
:101D10002BDB3A644EED5F766DFF7C899400859BEA
:101D2000B712A6ADD224C3BFF136E0C1184809D31B
:101D30003B5A2AE55E6C4FF77D7E6C0AA583B4188A
:101D40008691972EE3A7F23CC0B5D14229CB3850FB
:101D50000AD91B666FEF7E744CFD5D8BB502A499AA
:101D6000961087AFF326E2BDD034C1C3394A28D1DB
:101D70001A580BE77F6E6EF55C7C4D0CC685D71E3E
:101D8000E597F42880A1913AA3B3B2444ACD5B56BB
:101D900069DF78600CE91D722FFB3E8DD604C79F6A
:101DA000F516E4A9902081BBB332A2C55A4C4BD79B
:101DB000795E68E11C680DF33F7A2E0EE787F61C0A
:101DC000C495D52AA1A3B03882B193466BCF7A547B
:101DD00048DD59622DEB3C700EF91F8FF706E69D2A
:101DE000D414C5ABB122A0B9923083C77B4E6AD55B
:101DF000585C49E33D6A2CF11E780F5554432D542D
:101E0000696D652020202020205361740054696D85
:101E10006572004461746500416C74697475646531
:101E2000205361742020204D617800486F6D65005B
:101E30004C696674004265657000566F69636500A1
:101E400044697374005B202F735D0047726E6453A6
:101E5000706565645B6B6E745D2020536174004334
:101E60006F75727365206F7665722067726F756E1D
:101E700064004C61746974756465202020202053CF
:101E80006174004C6F6E676974756465002020474B
:101E90005053204E4D45412064617461203F2F34E2
:101EA00020200000E77511241FBECFEFD0E1DEBF78
:101EB000CDBF11E0A0E0B1E0EEE5F3EF02C0059088
:101EC0000D92AC34B107D9F71EE0ACE4B1E001C02B
:101ED0001D92AB35B107E1F71EE1C6EADEE104C0B1
:101EE0002297FE010E946879C43AD107C9F70E947F
:101EF00009740C94AD790C940000E1E1F5E040E048
:101F0000842F806487B9369A3699FECF24B135B1D3
:101F1000369A3699FECF84B195B1820F931F819383
:101F200091934F5F483061F70895853050F08830C5
:101F300020F08E3020F482E0089581E0089583E05F
:101F4000089580E008959AE0899F900111242F5F01
:101F50003D4FC901089595E0899F900111242F5BA1
:101F60003C4FC90108958F929F92AF92BF92EF921A
:101F7000FF920F931F93CF93DF93C82FD62F5A0151
:101F8000122FF02E57FF10C022FF02C08CE101C0BB
:101F90008FE0212F4DE26D2F9C2F981B892F0E94DF
:101FA000E359B194A194B1082F2D21234AE36D2F59
:101FB0008C2F0E94E3596CE370E0C5010E941479F4
:101FC0004B015C01012F00619B0140E050E062E0A9
:101FD000E62E6D2F8C2F0E94315C12FF02C08AE129
:101FE00001C08FE00F2D0061950140E050E092E0CC
:101FF000E92E6D2F8C0F0E94315CDF91CF911F91E4
:102000000F91FF90EF90BF90AF909F908F900895A9
:10201000CF93DF93D62FC22F206250E00E943E5D07
:10202000C7FD09C02C2F46E76D2F8091A50CDF91CD
:10203000CF910C94E359DF91CF910895242F4091D3
:1020400002010C9408100F93022F24FF03C00F7E8F
:102050009CE201C094E2411104C024E048E055E054
:1020600015C04530B0F4E091F00494E0E99FF00130
:1020700011243197E40FF11DE253FF4FE49194E0F6
:10208000E99FA0011124475F5A4F24E00E94975A0C
:1020900008C0941730F0242F25504EE155E00E94DF
:1020A000B95A0F9108950F93CF93DF93C82FD62F6E
:1020B000022F411104C024E040EC55E00DC04A302D
:1020C00010F08A5E01C08F5E202F50E06D2F0E94BD
:1020D0003E5D22E045EC55E06D2F8C2F0E94975A13
:1020E000DF91CF910F9108950F931F93CF93DF93BB
:1020F000182FD62FC42F022F8A5F442329F0463190
:1021000031F04A3E81F406C048EC55E005C04EED82
:1021100050E002C042EE50E06D2FDF91CF911F9151
:102120000F910C94CD5A47FF05C041E2812F0E94C8
:10213000E359C195EC2FFF27E7FDF0953197AF01EB
:10214000440F551F4E0F5F1F44535A4F23E06D2F0E
:10215000812F8A5F0E94975ADF91CF911F910F9133
:1021600008958CEC95E00895EF92FF920F931F93E2
:10217000CF93DF93D82F162FF42EE22EC091F201C9
:1021800081E08217D0F14C2F415F4F31D0F42C2FDA
:10219000332727FD309537FF03C03195219531094D
:1021A0000F2D4CE056E0612F8D2F0E94B95ACF3F82
:1021B000C4F52F2D41E2612F8D2F86500E94E359E7
:1021C00030C00C2F0C5D093428F41C167CF44C2F05
:1021D0004F500CC02F2D4DE68D2F8E5E0E94E3597F
:1021E0001C161CF44C2F445201C0402F2F2D612F80
:1021F0008D2F86500E94741014C082E0281313C0E3
:102200002F2D40916204612F8D2F8650DF91CF9149
:102210001F910F91FF90EF900C947410C13019F43E
:10222000EFCFEE20D9F3DF91CF911F910F91FF9067
:10223000EF9008958C3038F4E82FF0E0EE0FFF1F98
:10224000E253F84F21C08431B8F4482F50E0DA014E
:10225000AA0FBB1FAA5CBE4F2D913C91803148F460
:10226000FA01EE0FFF1FEA53FB4F80819181281B7B
:10227000390B220F331F12C0843248F4E82FF0E0EC
:10228000EE0FFF1FEA57F84F2081318107C08E32D1
:1022900018F484520C94401C20E030E0C9010895E9
:1022A000AF92BF92CF92DF92EF92FF920F931F9364
:1022B000CF93DF93D82E862FC42E95E0941708F481
:1022C000F9C0DD2009F4FAC086E1D81621F09AEEB3
:1022D000D91203C0EFC081E0F1C086E18D150CF486
:1022E000E9C02D2D332727FD309537FF03C03195E9
:1022F00021953109822F2A3028F4C9010E960E94B7
:102300008A5ED3C08A50E82EF12CE701CC0FDD1F86
:10231000CE0DDF1DC35CDB4F8A818F7009F4CAC00C
:1023200095E0C91205C0F701E858FE4F8081BDC095
:10233000B880A9800E94950F811119C08B2D815002
:102340000E941A118C01998189E29802900111244E
:10235000359527953595279597FD915C96FB990FB7
:10236000990B90F9291B310997FD339511C08230E3
:1023700059F48B2D81500E941A118C018981815052
:102380000E941A119C0104C020E030E000E010E03F
:102390009A819F70983009F44BC068F49330F1F043
:1023A00038F4913009F44EC0923009F085C04FC026
:1023B000943001F519C09B3009F449C030F49930CC
:1023C000E1F19A3009F078C03DC09D3009F449C070
:1023D00008F442C09E3009F06FC048C017FF32C0F9
:1023E0001195019511092EC017FF31C01195019566
:1023F00011092DC00C2D0F5F402F60E08B2D0E9426
:102400005011182F402F60E08A2D0E9450119A81A0
:102410009F70953021F4112309F44EC004C096300A
:1024200029F411112EC081112CC046C0812726C06D
:1024300081E00217130731F13FC081E00217130753
:1024400009F53AC081E020173107E4F035C081E09A
:1024500002171307BCF030C081E00217130794F491
:102460002BC081E0201731076CF426C0F701EC5730
:10247000FE4F80818095881F8827881F811102C0A8
:1024800010C081E09A81292F207F59F0892F8295F1
:102490008F7089300CF08F5F4C2D4F5F60E00E9491
:1024A0005011F701E858FE4F80831D143CF091E075
:1024B000892704C080E002C080E0F3CFDF91CF9194
:1024C0001F910F91FF90EF90DF90CF90BF90AF9052
:1024D00008950E9405748111FCCF1092D60C0895C6
:1024E0000F931F93CF93DF938C01EB010E949259BE
:1024F00024E04EE356E060E082E20E94CD5AB8014B
:1025000080E20E94EC5ABE0188E20E94EC5A64E428
:1025100076E080E30E94EC5A0E94AB5D0E94A75DCA
:10252000DF91CF911F910F910C9469120F93462F59
:1025300050E044535A4F00E023E060E10E94975A74
:102540000F9108950F931F93CF93DF93082FC7EE3A
:10255000D1E01AE0499124E0602F812F0E94E359D5
:10256000155F1837B9F7DF91CF911F910F9108953B
:102570001F93CF93DF93EC01162F0E949259BE0157
:1025800088E10E94EC5A111109C04AE556E068E35F
:102590008CE10E94F25A48E656E002C04EE656E050
:1025A00024E060E082E20E94CD5ADF91CF911F913A
:1025B0000C94AB5D61E00E94B8120C94A75D9F92F1
:1025C000AF92BF92CF92DF92EF92FF920F931F9341
:1025D000CF93DF938C017B016A01922EB090C901E9
:1025E00084E6B81669F094E4B91651F08091AC070E
:1025F000882369F093E6B91619F093E4B91207C07D
:10260000E801219683E10E94D36985E07BC095E6CD
:10261000B91661F095E4B91649F0882309F483C02E
:1026200082E6B81619F092E4B9127DC0E80121974C
:1026300084E10E94D36984E065C0E114F104E9F407
:1026400081E0C816D104C9F490E6B91619F08EE2FB
:10265000B81213C01092AC07C1E0D0E0011511050B
:1026600011F0C0E0D0E08B2D0E94EB5E9EE2B9122B
:1026700006C081E08093DC0702C0A12C02C0AA241E
:10268000A3944091640150916501C41BD50B8091C6
:10269000DC07833031F48091CC01C80FD11D87FD58
:1026A000DA95CC16DD0644F48B2D0E94EB5E83E1B7
:1026B0000E94D369E6010AC0CE15DF053CF48B2DDC
:1026C0000E94EB5E84E10E94D369E701C017D10745
:1026D000B1F0209761F4A11003C08B2D0E94DC5E45
:1026E00017FF02C083E101C084E10E94D369892DF4
:1026F00083700E94205581E080936C0116C0109277
:102700006C0113C090E00E948A5E882309F495CF83
:10271000CC27DD27C01BD10B85E00E94EB5E84E057
:102720000E94EB5E8ACFE80188CFCE01DF91CF9186
:102730001F910F91FF90EF90DF90CF90BF90AF90DF
:102740009F900895552747FD5095772767FD709511
:10275000992787FD90950E94DF12089522E00C943E
:10276000A213462F22E060E00C94A21321E00C9407
:10277000A213462F21E060E00C94A213E0916D01BA
:10278000F0E0EE0FFF1FE059FE4F80819181089528
:10279000FC01A0916D01B0E0AA0FBB1FA259BE4F72
:1027A0008D939C938FEB099587E10C94D369EDEDA4
:1027B000F7E0108E168A158A178A0895E5E7FDE07E
:1027C00037A1303180F420A5DF01A20FB11DA20F87
:1027D000B11D8D939C932F5F203110F420A701C071
:1027E00010A63F5F37A3089580910805992787FDBC
:1027F000909509970C94DE1390E00C94DE1390E012
:102800008C5F9E4F0C94DE13CF93DF93FC0190916D
:10281000FB0480A191FF79C091A1882311F09460FD
:1028200001C09B7F91A386A1813079F5C79A97A1BA
:10283000992341F181A5EF01C80FD11DC80FD11D0A
:102840003881298134A325A38F5F803110F481A7BB
:1028500001C011A6915097A3832F922F97FD02C01C
:1028600021E101C028E223A321A12C7F97FF01C011
:10287000226021A381A18BBBC7988FE182A382E054
:1028800086A34DC081A18BBB49C081110CC0C79AE2
:1028900081A1836081A38BBB8091A60C8D3308F44A
:1028A0003DC086E030C0823009F439C081A18BBBC5
:1028B000C79ABF9800C0000000C086B38078BF9A56
:1028C00096A1933051F4811101C005C083A18150BC
:1028D00083A3811123C084E016C0943021F488239F
:1028E000E9F083E00EC0953039F483A1815083A3D1
:1028F000811114C081E007C0963081F4882371F003
:1029000084E183A385E086A309C09091F80496FB37
:10291000992790F9891711F0C79A01C0C798DF91DC
:10292000CF91089540E060E08091DD040E94501155
:10293000811116C080915F0190916001892B81F413
:102940000CC08091A60C90910D05981769F08093AA
:102950000D0585E79DE00C9404141092950DF1CFC0
:1029600081E08093950DEDCF089520915F01309126
:1029700060012115310511F021503109882319F02A
:102980008091F40401C080E090915E01992329F0C8
:102990009091FC04891708F4892F4AEF849FC001A5
:1029A0001124880F991F8217930708F4C901909387
:1029B000600180935F010C949214CF93DF93C62F34
:1029C0002091E401222329F09093E6018093E50110
:1029D00035C060E00E94B812C11103C08091DA04D2
:1029E00001C089E10E94985D67E182E10E94D96996
:1029F0000E946912D1E00E94057481111FC080916C
:102A0000E20C833019F4A8951092E20C40E060E0EB
:102A10008091DD040E94501181110AC08091F4045C
:102A2000811106C0C11104C006C00E949214E3CFF8
:102A3000D093950DFACF1092950DF7CFDF91CF91EE
:102A40000895CF93DF93EC0180916D01843038F0CD
:102A500060E083E896E0DF91CF910C94DD1487E18C
:102A60000E94D369A0916D01AF5FA0936D01B0E0AA
:102A7000AA0FBB1FA259BE4FCD93DC938FEBFE0173
:102A8000DF91CF91099490916D01911103C0811153
:102A900006C017C0811103C0892F815001C080E09A
:102AA00080936D0187E10E94D369E0916D01F0E0B0
:102AB000EE0FFF1FE259FE4F0190F081E02D8EEBEB
:102AC000099460E086E796E00C94DD141BBA8FE170
:102AD0008ABB00C099B38FEF8ABB8091CA0188235B
:102AE00011F080E202C0892F807E8093CE01292FD1
:102AF000207C8091D201281771F08074880F907823
:102B00003091D101891711F0315001C03F5F3093EE
:102B1000D1012093D2018091D0019091CF018917EA
:102B200021F08093CF018093D1010895DF92EF923D
:102B3000FF920F931F93CF93DF93F8948091A70C8C
:102B40009091A80C789441E020910E0530910F05EA
:102B50008217930709F440E04093610190930F05B9
:102B600080930E0560E087E897E00E94DF33809154
:102B70006101882309F451C2EDEDF7E0878980FFF8
:102B80000DC0808D982F9F5F908F943638F08356BC
:102B9000808F858996890196968B858B80E00E942F
:102BA00032550E9492590E941E5ED82E582F5F7097
:102BB00056504091F901443019F0433021F402C0DD
:102BC00048E001C044E0583008F09AC0252F26950F
:102BD00080910C0580FF03C083E0821B282F30E02A
:102BE000F901EE0FFF1FED5FFE4F0190F081E02D28
:102BF0006081C62FDD27C7FDD09541110DC0CE01E4
:102C0000D7FF04C0882799278C1B9D0B9595879526
:102C100095958795482F4F5F8091F004082F01709C
:102C200010E082E090E0801B910B8217930761F423
:102C30008091F80180FFEFC121E044E08091F2042F
:102C400080FF03C0419501C020E0842F992787FDB4
:102C5000909550FF03C0C80FD91F02C0C81BD90BE5
:102C6000209721F08D2F862787FF0CC021110AC0E5
:102C7000662341F010828D2D0E94EB5E86E10E945A
:102C8000D3693DC0CE0184589F4F8E0103581F4F1A
:102C9000893F910598F4C08386E00E9420550B3F40
:102CA000110508F02CC0D7FF03C0D195C195D109FB
:102CB000D595C795D595C7954C2F1BC0D7FF02C09A
:102CC00083E801C08DE7808386E00E9420550B3F9A
:102CD0001105A8F4D7FF03C0D195C195D109D7FD3F
:102CE0002396AE0155954795559547955195419534
:102CF0005109445C65E181E991E00E945768D12C5B
:102D00008D2D0E94B514E2E6F1E02091DA073091B2
:102D1000DB0780819181821B930B97FD4F96C5E065
:102D200095958795CA95E1F7009751F08481958133
:102D3000821B930B97FD0196959587953183208390
:102D4000358324832091F20425FF02C080E090E0C7
:102D5000938382832091CD018091D101821B8F3F8B
:102D600009F480E087FD8F5F85958093CC01982FD3
:102D7000990F920F9093CD01E0916D01F0E0EE0F6D
:102D8000FF1FE259FE4F20813181285D3C43C9F489
:102D90008823B9F02091CB01992787FD9095820F68
:102DA000911D27FD9A958E37910514F08DE705C08A
:102DB0008338EFEF9E070CF483E88093CB011092E9
:102DC000CC010FE914E0CEE9D4E07AE0E72EF12C53
:102DD000F8018081882309F46DC0853068F40E9471
:102DE000FC5FE82FF0E0EE0FFF1FEF5FFE4F01905A
:102DF000F081E02D808104C0853021F48091CB01E9
:102E0000888358C08A30C8F485500E94FC5FE82F40
:102E1000F0E0EE0FFF1FE453F84F2081318137FFC0
:102E200002C0295F3F4F43E0359527954A95E1F76A
:102E30002338FFEF3F07E4F017C08D3000F5E82F8F
:102E4000F0E0EE0FFF1FEE53F84F2081318137FF86
:102E500002C0295F3F4F93E0359527959A95E1F79A
:102E600023388FEF380724F02D37310524F405C0BF
:102E700023E83FEF02C02DE730E028831BC08D31EF
:102E8000C8F4E82FF0E0EE0FFF1FEC56F84F8081FA
:102E90009181B7010E94147963389FEF790724F07C
:102EA0006D37710524F405C063E87FEF02C06DE75C
:102EB00070E068830E5F1F4F2296E4E00D3A1E0714
:102EC00009F086CF8091E5019091E601009761F0CD
:102ED00060E00E94B8120E940574882399F0109255
:102EE000E6011092E5010EC0D092C901E0916D019A
:102EF000F0E0EE0FFF1FE259FE4F0190F081E02D50
:102F00008D2D09950E94AB5DC091650081E991E02E
:102F10000E947667882311F084E105C08091580EE5
:102F2000882321F081508093580E06C08091630061
:102F3000869581708093590E8091590E8093E3019C
:102F4000882309F464C08091F80485FF62C05FC0E3
:102F5000C09365008091A60C8F71823009F054C037
:102F600080911F0590912005AC01D4E0440F551FBE
:102F7000DA95E1F797FD0796BC01C3E07595679573
:102F8000CA95E1F72091DC04332727FD30952A5FAD
:102F90003F4F629FC001639F900D729F900D11245F
:102FA000840F951F2091F20426FD05C06091000159
:102FB0007091010102C060EF70E00E940079809181
:102FC0000201680F711D6F5F7F4F75956795609364
:102FD000020180911005805F80931005811114C05B
:102FE0008091DB04681780F4623370F06EE281E157
:102FF0000E94D9698091F20483FF06C082E390E0C9
:103000009093600180935F0110925E0106C0C061E1
:103010009FCFCF7E9DCF20E011CEDF91CF911F912A
:103020000F91FF90EF90DF900895833019F088237F
:1030300019F003C080E001C083E0E82FF0E0EE0F5C
:10304000FF1FEF5EFA4F8081918108950E9415184D
:103050009C018091F20480FF03C0319521953109D4
:10306000C9010895FF920F931F93CF93DF93F12C23
:10307000C0E0D0E08F2D0E941518092F10E0C00F7E
:10308000D11FF39484E0F812F5CFCE01DF91CF91F8
:103090001F910F91FF90089578941F920F920FB691
:1030A0000F9211248F9380914C018F5F80934C017C
:1030B0008F910F900FBE0F901F90189578941F92CC
:1030C0000F920FB60F9211242F938F939F93EF932C
:1030D000FF93F89487B78F7B87BF78949091930183
:1030E00080919501882369F08091FB0480FF07C0DF
:1030F00080915A0E890F80935A0E87FF02C01B9A47
:1031000001C01B988091FB0481FF2AC08091A40814
:10311000811126C0E5E7FDE086A1823009F583A193
:10312000882311F081501BC021A1C79A82A180FD84
:1031300009C02D7F84A195A196FD2260880F991F5B
:1031400095A384A381E082278BBB81A3C79882A12A
:10315000815082A3811104C083E086A385E083A30C
:10316000F89487B7806487BF7894FF91EF919F911F
:103170008F912F910F900FBE0F901F9018957894FC
:103180001F920F920FB60F9211242F933F934F93DC
:103190005F936F937F938F939F93AF93BF93EF93BF
:1031A000FF9381B7845681BF81E991E00E948A67CD
:1031B0000E94F95E8091E20C82608093E20CEBE069
:1031C000F1E08081815011F0808307C084E6808324
:1031D00081818F5F818381E082838381815011F0BF
:1031E000838304C08AE0838381E08483FF91EF912D
:1031F000BF91AF919F918F917F916F915F914F910F
:103200003F912F910F900FBE0F901F9018957894BB
:103210001F920F920FB60F9211242F933F934F934B
:103220005F936F937F938F939F93AF93BF93CF934E
:10323000EF93FF932091800030918100F89480916A
:103240007D008F7D80937D00789480912105909101
:103250002205A901481B590BCA0196958795309301
:103260002205209321059C01215A3F402F3D3E42DB
:1032700020F481E080934D012FC0C0914D012C2F8F
:103280002150283048F59C012152334027373540E2
:1032900008F5EC2FF0E0EE0FFF1FE45BFE4FAC01F2
:1032A0004C5D55402091F604332727FD3095265F6D
:1032B0003F4F429FC001439F900D529F900D11249C
:1032C0006AE070E00E94147971836083CF5FC093DD
:1032D0004D0102C010924D01F89480917D008062F2
:1032E00080937D007894FF91EF91CF91BF91AF9142
:1032F0009F918F917F916F915F914F913F912F910E
:103300000F900FBE0F901F901895DF92EF92FF92D3
:103310000F931F93CF93DF9320914C0132B780918D
:103320004C012813F9CF922F80E0EC01C32BA0E1D0
:10333000FA2E80916304F81A0E947D0F1EE517B9DA
:103340000E9466150E94961517B9369A3699FECFD7
:1033500084B195B10496409100015091010167E05C
:10336000649F9001659F300D1124820F931FF3E03D
:1033700096958795FA95E1F7909301018093000166
:103380008091E20C833019F4A8951092E20C209100
:103390004C0132B780914C012813F9CF922F80E075
:1033A000832B8C1B9D0B209184063091850628175A
:1033B000390720F4909385068093840680910C0150
:1033C000823028F480910F01811172C0EEC01092FA
:1033D0000C01809123058F5E982F977F903618F40B
:1033E0009093230503C087708093230500E010E0CD
:1033F0005BC0E801CC0FDD1FCC59DB4F8881982FD3
:10340000907C9034B1F4880F880F40E060E085959F
:1034100085950E945011882361F08091FB0480FF04
:1034200002C0698101C061E046E481E991E00E9447
:1034300057688881982F907C9038A1F5880F880F65
:10344000859585958731FCF0992787FD909547975D
:103450008130910549F08230910561F0892B11F599
:1034600080912305837003C080912305807F8111A3
:1034700019C005C0809123058770823099F4898135
:103480000E94671C0FC09091230590FD0BC040E087
:1034900060E00E945011882329F08981805890E0D3
:1034A0000E94DE130F5F1F4F0F1508F4A2CF8ACFC3
:1034B0008091240590912505019690932505809390
:1034C00024056DC00F2D10E0E801CC0FDD1FCC5995
:1034D000DB4F8881D82ED294D69477E0D7228F7193
:1034E00009F45CC040E060E00E945011E82E809139
:1034F0000F01823009F44EC0DD2019F082E0D812AD
:103500000CC0F801ED52FE4F8081811106C0EE2003
:1035100021F0898190E00E94DE138D2D8150F80109
:10352000ED52FE4F823058F48081813099F5E110E0
:1035300031C0898192E0D9122AC08F5F28C085E00E
:103540008D1548F48081811125C0EE2019F1898103
:103550000E94671C1FC092E09D15E0F4EE20D1F0A0
:10356000E4E0DE1631F0F5E0DF1631F066E970E0F8
:1035700005C06CE271E002C068E572E0809124054C
:10358000909125050E940079892B21F4898190E092
:103590000E94DE13F801ED52FE4FE082F3948FE0BB
:1035A0008F1508F08FCF10920F0180910D018823A5
:1035B00009F441C010920D01C4E8D1E0E12CF12CD6
:1035C000DD24DA948701000F111F0E0D1F1D035C0F
:1035D0001B4FF80182818F700E94950F833019F57F
:1035E0008881811104C0F801808180950AC087FF1D
:1035F00007C08F5F8883811105C0F801818101C0F8
:1036000081508883F8018281982F907F61F08295A4
:103610008F7089300CF08F5F40E060E00E945011A5
:10362000811101C0D882FFEFEF1AFF0A21968CE0CA
:10363000E816F10439F6DF91CF911F910F91FF90B9
:10364000EF90DF9008959C0145E0359527954A95C8
:10365000E1F7280F391FAC01440F452F441F550BCC
:10366000241B350B892F990F990B8595280F391F2E
:10367000C9010895982F93589B3FA0F08E57282F8B
:1036800030E0220F331FF901E256FB4F808186178D
:1036900014F46083862F48172CF4F901E256FB4F8F
:1036A0004083842F089544E66CE90C943A1B2091E2
:1036B000F004217092E0921B21E0981320E0822F09
:1036C00008959091F80194FF05C00E94571B91E066
:1036D000811101C090E0892F08951F93CF93DF934C
:1036E000182FD62FC42F8091DC07811101C0C2E0B2
:1036F0002C2F4D2F50E060E08FE70E943E5DDA30C6
:1037000010F0DFE601C0D5E72C2F4FE260E08D2FEF
:103710000E94E359412F50E04F5F5F4F2C2F60E034
:103720008D2F8150DF91CF911F910C943E5D81369A
:1037300049F40E94EB5E81E00E94431584E59BE41E
:103740000E9421156AEE7AE080E10E94EC5A6FEF48
:103750007AE080E20C94EC5A1F93CF93DF93D82F3A
:10376000162FC42FB9010E94EC5A112329F06FE0E3
:103770008C2F0E94B113C82F212F4C2F50E06D2F9A
:1037800080E60E943E5D8C2FDF91CF911F910895BE
:10379000FF920F931F93CF93DF93182FF62E0AE01B
:1037A0008AE0189FE0011124CF5FDD4F212F30E028
:1037B00020953095205E3F4F029FA001039F500D42
:1037C0001124BE01CE010A960E947B79FF2049F0A8
:1037D000BE016A5071094AE050E0CE010E947B7937
:1037E0000AC0FE0111920A95E9F780911D088883AD
:1037F000898384E68A8310931B08DF91CF911F9100
:103800000F91FF9008959C01220F331F280F391F3D
:103810009595879595958795280F391F9595879547
:103820009595879595958795280F391FC901089516
:10383000429643E7489F9001499F300D1124E6E0EE
:1038400035952795EA95E1F7C901089581E0089536
:10385000E82FFF27E7FDF095E659F84FE491772729
:1038600067FD709563587F4FEE5FE23038F48AE071
:103870009B01829FB001839F700D1124CB0108959D
:10388000E82FFF27E7FDF095E659F84FE491ED3F6B
:103890004CF4EE0FFF0BEE54FB4F2081332727FD36
:1038A000309513C0ED3F59F074F0EF3F09F05CF430
:1038B000EE0FFF0BEF51F84F2389348906C020919A
:1038C000020130E002C020E030E0C9010895CF924B
:1038D000DF92EF92FF92F82E0E94401CEF2DFF27FF
:1038E000E7FDF095E659F84FE491ED3F11F11CF436
:1038F000E63FE4F013C0EF3F11F00CF017C06CE3AB
:1039000070E00E9414796B017C0146E260E0C60120
:103910000E94E269C70160E045E30DC0EE0FFF0BB6
:10392000EE54FB4F8081992787FD909560E040E041
:1039300002C061E044E2FF90EF90DF90CF900C94E2
:10394000E269BF92CF92DF92EF92FF920F931F93A3
:10395000CF93DF93F82ED62EC42EE901102FBB246F
:10396000B394BE20E0FE10C0242F2F5F00E044E798
:1039700057E00E94B95A8F2D12FD02C0885E04C024
:10398000845E98EFD90E00C09E2D9870E3FC1F7BDB
:10399000EC2DFF27E7FDF095E659F84FC4902C2D4C
:1039A0002E5F223050F512FF8450B110865F1770E1
:1039B000012F212FAE016D2D86500E94B30FCC2D0B
:1039C000CD5C8F2D865009C08F2D835C212FAE01D9
:1039D0006D2D0E943E5D8F2DC0E29E2D967081F070
:1039E000E2FE03C0865F1B7F02C08091A50C212FE1
:1039F0004C2F6D2D0E94E35903C09111E5CFE6CF06
:103A00008C2FDF91CF911F910F91FF90EF90DF905E
:103A1000CF90BF900895DF92EF92FF920F931F9384
:103A2000CF93DF93D82F162FC42FD22EB3E0FB2EC7
:103A3000FE20A1F08091C901803881F4842F835841
:103A40008B3F40F0E42FF0E0EE0FFF1FEE55FC4FF0
:103A5000C08101C0CEE782E00E9420558C2F8358A0
:103A60008B3FE8F02E2D49EA57E0612F8D2F8251D0
:103A70000E94CD5A4C2F4D542E2D612F8D2F8650E4
:103A80000E94E359FF2011F122E042E850E06EE786
:103A900070E08C2F90E00E94DF12C82F17C04C2FCF
:103AA000552747FD50952E2D612F8D2F0E943E5D8D
:103AB000FF2061F0402F6D2D8C2FDF91CF911F9152
:103AC0000F91FF90EF90DF900C94AE138C2FDF914D
:103AD000CF911F910F91FF90EF90DF900895CF93BA
:103AE000DF939EE0899FE0011124C951DE4FFE0162
:103AF000EA54FE4F40E060E080810E94501188232C
:103B000059F0C954DE4F40E060E088810E945011B6
:103B1000811104C081E003C080E001C082E0DF9138
:103B2000CF910895EF92FF920F931F93CF93DF935E
:103B3000F82EE62EC42FD42FD695062F0D1B182F46
:103B40001D1B602F812F0E948C5B6D2F6E0D4C2FE3
:103B5000812F0E94895B4C2F602F8D2F8F0D0E942B
:103B60008C5B4C2F602F812FDF91CF911F910F9194
:103B7000FF90EF900C94895B21E0AC0160E080E065
:103B80000C94CD5A0F931F93CF93DF93182FCDED45
:103B9000D7E081EA91E10E94BC1D113678F013361E
:103BA00028F0133659F48CE49EE102C088ED9CE3C2
:103BB000DF91CF911F910F910C94C81366EA71E1C8
:103BC00088E00E94EC5A4A815B8100E020E068E0D6
:103BD0008AE20E94B30F4C815D8120E068E08EE4B0
:103BE0000E94B30F6FEA71E180E10E94EC5A4E81AE
:103BF0005F8120E060E18AE20E94B30F4885598529
:103C000014E0569547951A95E1F720E060E18EE4BF
:103C10000E94B30F68EB71E180E00E94EC5A48818A
:103C2000598120E060E08EE40E94B30F4EE76CE320
:103C300082E00E94895B43E26CE185E00E948C5B3C
:103C4000CBE043E06BE38C2F0E948C5BCA5FC338F0
:103C5000C1F71091870680918606893710F4C0E07D
:103C600001C0C12FD6E00CE3EC2FF0E0E857F94F8C
:103C70004081602F641B8D2F0E948C5BCF5FC83703
:103C800008F0C0E0C11719F0DF5FDE3769F7DF9198
:103C9000CF911F910F9108951F93CF93DF93182F0A
:103CA000C0E1D1E082E591E10E94BC1D1236A1F095
:103CB00028F4103631F01136C9F411C01336B1F4BE
:103CC0000EC08FEF888319821092850610928406A9
:103CD00087E10E94D3690AC082EC9DE102C088EDB1
:103CE0009CE3DF91CF911F910C94C81368E571E1BB
:103CF00088E00E94EC5A4981469550E068E084E5EE
:103D00000E944D5D67E671E180E10E94EC5A4881B6
:103D1000469550E060E184E50E944D5D66E771E103
:103D200088E10E94EC5A498150E08881481B510982
:103D300057FF02C04F5F5F4F5595479568E184E597
:103D40000E944D5D65E871E180E20E94EC5A80912D
:103D500084069091850629E1289FA001299F500D96
:103D60001124569547955695479520E360E284E5E2
:103D70000E943E5D6EE871E188E3DF91CF911F9173
:103D80000C94EC5A91E0211101C090E0442319F009
:103D90004EED50E002C042EE50E0292F0C94CD5A77
:103DA0000F9301E0211101C000E0242F4CEA57E0FD
:103DB0000E94B95A0F9108956F927F928F929F92AD
:103DC000AF92CF92EF92FF920F931F93CF93DF9317
:103DD000EC01162F842F4901602F6090D607709058
:103DE000D707A091D807B091D907E2E6F1E0268184
:103DF00037812619370937FF02C0215C3F4F76E033
:103E0000359527957A95E1F7422F2093A8072085CD
:103E100031852A1B3B0B37FF02C0215C3F4F56E028
:103E2000359527955A95E1F7922F2093A7074423BC
:103E300011F077826682992311F0B187A087909163
:103E4000A907911104C09091F20495FF06C0109249
:103E5000A8071092A7071092A9079091A80791119F
:103E600008C09091A707911104C022813381232BB0
:103E700061F02091F4049AEF299F90011124220F00
:103E8000331F3093600120935F018114910409F482
:103E90007AC09881992309F4D7C1CFC19091CC0100
:103EA000191614F49FEF03C0992319F091E0909331
:103EB000A8071092CC011E3259F491E09093DC07D0
:103EC00006C0913029F41E3219F41092DC0710E07C
:103ED0009091A807992311F12091AC0721111EC0E0
:103EE000E82FE91BE7FDE0E0462F50E02E2F3327B7
:103EF00027FD30952417350714F0E62FE150FF27F2
:103F0000E7FDF095282F30E0E217F30729F0EE0FD8
:103F1000FF1FE80DF91D1FC01092A807153649F4C0
:103F20008111682FF401E60FF11DE60FF11D3297A4
:103F300012C0143629F5282F30E070E06150710965
:103F40002617370714F48F5F01C080E0880E911C9C
:103F5000880E911CF40125913491C901DF91CF9114
:103F60001F910F91FF90EF90CF90AF909F908F9007
:103F70007F906F900C94C81391E09093DC0762C11E
:103F800041E00E946D1BE114F10451F098818C2DE9
:103F90009C1508F4892FF701E80FF11DE49101C089
:103FA000E0E08091DC078130D1F58091CC011816DA
:103FB00094F489818E1718F48F5F898301C0198268
:103FC0008981811126C088818A1518F48F5F8883C2
:103FD00020C018821EC08823E1F08981811117C09A
:103FE0008881882319F08150888301C0A882E11458
:103FF000F10451F098818C2D9C1508F4892FF7015C
:10400000E80FF11DE49101C0E0E0E98302C08150B6
:1040100089831092CC011E3249F483E005C08330BD
:1040200029F41E3219F481E08093DC07E114F104D5
:1040300051F098818C2D9C1508F4892FF701E80F19
:10404000F11D649101C060E05091AC07511149C06D
:104050008091A707882311F14881481B47FD40E064
:10406000242F332727FD30958A2D90E02817390714
:104070000CF04A2D4883E114F10441F0C41608F411
:104080004C2DF701E40FF11DE49101C0E0E08981BE
:104090008E1708F4E82FE9831092A70728812223BE
:1040A00001F18091A8078823E1F04981481B47FD71
:1040B00040E0842F992787FD9095E114F10479F071
:1040C0003C2D2C1508F4322FF701E30FF11DE4917C
:1040D0002E2F30E0821793071CF04E2F01C040E0D6
:1040E0004983103659F198F4123409F46DC030F454
:1040F000113289F11E3209F091C020C0143409F444
:1041000040C008F46DC0153409F088C04AC01536A7
:1041100009F44AC040F4133609F465C0B0F512360C
:1041200009F07CC054C01E38B1F01F3B21F011389B
:1041300009F074C00DC0198218820FC088818823CD
:1041400009F46CC081E0511180E08093AC0766C037
:104150001092AC070CC0552319F01092AC075EC04A
:104160008881882311F0892831F41092DC0780E0DF
:104170000E94431553C087E10E94D36919821882B7
:104180004DC08981861709F449C0EF2809F446C05B
:10419000511144C08981861710F48F5F0DC01982B8
:1041A0000EC089818823D1F1EF28C1F1511136C0A9
:1041B0008981882319F08150898301C0698366232E
:1041C00069F11092C9012AC088818A1539F151110B
:1041D00025C088818A1510F48F5F0BC018820CC02F
:1041E00088818823D9F0511119C08881882319F05A
:1041F0008150888301C0A882E114F10449F08881CC
:104200008C1508F4C82EF701EC0DF11DE49001C0E7
:10421000E12C89818E1508F4E82EE9828091AC07A3
:1042200021E0811107C08091640190916501892B83
:1042300009F420E02093AB070DC09091AC079923BF
:1042400009F49ACE40E09DCE9091DC07992309F4C1
:1042500025CE37CEDF91CF911F910F91FF90EF9038
:10426000CF90AF909F908F907F906F9008955F92C6
:104270006F927F928F929F92AF92BF92CF92DF9276
:10428000EF92FF920F931F93CF93DF93582E82E309
:104290009FE00E94BC1D96E0A92E25E0C22E3AE3C5
:1042A000E32E3FE0F32E06E02DE53EE041E0652DF4
:1042B00089E398E00E94DC1EA090390870903A08CB
:1042C0008091630081FF04C060E47FE088E1FDC06D
:1042D000AA948091AC07882319F083E0982E02C03D
:1042E00099249394E12CF12C10E1E701CC0FDD1F10
:1042F000CA51DB4F8E2C4E2D4F5F20E0612F80E0A6
:104300000E942310B12CA81002C07B1411F0D12CF4
:1043100001C0D92C82E0B81609F445C0E3E0BE160E
:1043200009F456C0F1E0BF16D9F069806294669432
:104330006694B3E06B220D2D262D47E45FE0612FDC
:1043400088E10E94B95AD1FE5BC062E0862D0E94CE
:10435000B9138295880F880F807C99819F7320C044
:104360000981000F000F059505958DE00802A00159
:10437000112457FF02C04D5F5F4F559547955595E6
:1043800047952D2D612F82E40E943E5DD1FE38C0FD
:104390004FE161EE802F0E94B6138F739981907C5C
:1043A000982B99832DC06880E7E06E220D2D262D75
:1043B00042E55FE0612F88E40E94B95AD1FE20C037
:1043C00063E0862D0E94B91387709881987F16C08C
:1043D00008810595059505952D2D402F612F8AE5BE
:1043E0000E947410D1FE0CC046E16AEE802F0E943C
:1043F000B613880F880F880F98819770982B988331
:10440000B394F4E0BF127FCF185F8FEFE81AF80A79
:10441000103309F06ACF60E67FE080E30E94EC5A37
:10442000E4E0AE120AC048E266EF8091F6040E9412
:10443000B6138093F60421E201C020E24091F60415
:10444000552747FD5095465F5F4F60E38EE40E941D
:104450003E5DDD24D394F5E0AF12D12C2D2D4BE63B
:104460005FE068E380E00E94CD5AFEE4EF2EF1E0C9
:10447000FF2ECEEDD4E000E3F701419151917F0191
:1044800069917991461B570B440F551F20E268E351
:10449000802F0E943E5D085E003971F7DD2091F0AB
:1044A000F0E65F120FC088E0EEE4F1E0AEEDB4E0BC
:1044B00001900D928A95E1F781E00E94205587E1F5
:1044C0000E94D3696FE67FE088E0DF91CF911F9172
:1044D0000F91FF90EF90DF90CF90BF90AF909F90A3
:1044E0008F907F906F905F900C94EC5A4F925F92F8
:1044F0006F927F928F929F92AF92BF92CF92DF92F4
:10450000EF92FF920F931F93CF93DF93C82F84E016
:1045100098E00E94BC1D57E0A52ECC24C39460E116
:10452000E62E68E0F62E0BE021ED37E04AE06C2F36
:1045300080E198E00E94DC1E6090100880901108D5
:104540007FE9E72E74E0F72ECEE9D4E0AA24A39405
:10455000B12C18E0712C992487FC9094C12CD12C9B
:1045600040E3442E4A0C0C2D62E178E0812F0E943A
:10457000EC5A442D612F8CE00E94945A6A147B04FB
:1045800049F48C149D0431F48091AC07811105C06D
:1045900021E001C020E0512C03C022E055245394B7
:1045A000013099F0022FF701208145E158E0612F99
:1045B00088E40E94B95A5520C1F06CE1F70180816E
:1045C0000E94B113F701808310C04881552747FD31
:1045D0005095612F8CE60E943E5D552031F04DE7ED
:1045E00063E888810E94AE138883FFEFCF1ADF0A49
:1045F00082E0C816D10409F0B6CFE2E0EE0EF11C5D
:104600002296185FFFEFAF1ABF0A103409F0A6CF49
:10461000DF91CF911F910F91FF90EF90DF90CF909E
:10462000BF90AF909F908F907F906F905F904F90D2
:104630000895AF92CF92EF92FF920F93AE2CC12CC0
:10464000E12CF12C0E94DC1E0F91FF90EF90CF9097
:10465000AF900895EF920F93CF93C82F8AE29FE017
:104660000E94BC1DE12C06E02DE53EE042E06C2FEF
:1046700087E398E00E94192368E277E080E10E94D6
:10468000EC5A68E577E088E10E94EC5A67E477E04D
:1046900080E20E94EC5A68E377E088E20E94EC5ADC
:1046A00069E177E080E3CF910F91EF900C94EC5AA1
:1046B000EF92FF920F931F93CF93DF93C82F82EB5C
:1046C0009EE00E94BC1DE12C06E02DE53EE043E0AB
:1046D0006C2F85E398E00E941923CFE0D0E010E032
:1046E000EC2E8C2F8F50012F843008F00850CE0113
:1046F0000E948A5EF82E4E2D4E5020E0602F8AE2F6
:104700000E9474104F2D405D2F2D602F84E40E9475
:10471000E359185F2196183419F718E3C0E0D0E088
:10472000CE010E948A5EF82E00E02C2F47EB5EE05F
:10473000612F80E00E94B95A4F2D405D2F2D612FCF
:1047400080E20E94E35921961850183049F747ED4E
:104750005EE068E184E50E94F25AC6E0D0E010E233
:10476000202F4FED5EE0612F84E50E949D59CE0120
:104770000E948A5E482F405D282F612F8CE60E94A0
:10478000E359CE0101960E948A5E482F405D282F92
:10479000612F88E70E94E3590F5F185F229604306B
:1047A000F9F6DF91CF911F910F91FF90EF9008954F
:1047B000BF92CF92DF92EF92FF920F931F93CF930E
:1047C000DF93C82F8BEA9EE00E94BC1DEE24E39489
:1047D00006E02DE53EE044E06C2F83E398E00E9484
:1047E0001923B0903308CEECD7E010E000E0C12CE4
:1047F000F4E0DF2EE12CF12C41E4612F88E10E94EE
:10480000945A402F4F5C612F8EE10E94945A802F62
:104810000E941518AC01612F8AE20E94F55A0730F8
:1048200081F0A881B98124E630E00E94D678A70102
:1048300096010E944A79A901612F8AE50E944D5D87
:104840000AC081E0B81611F040E201C041E2612FD8
:104850008AE50E941E100F5F185F2296083061F6ED
:1048600022E04FEA5EE068E28CE60E94C75A40917F
:1048700000015091010160E388E70E944D5D81E0F5
:10488000B8120AC0B092A9074FE761E88091DC0432
:104890000E94B6138093DC04DF91CF911F910F919A
:1048A000FF90EF90DF90CF90BF900895EF920F931D
:1048B000E42E00E020E030E040E00E9419230F9158
:1048C000EF900895FF920F931F93CF93DF93F82EED
:1048D000EB018A0147E16CE20E94921D43E06BE22A
:1048E0008F2D0E948C5B43E06CE28F2D81500E94E3
:1048F000895BC8016FE87FEF0E941479262F245D41
:10490000CE0161E770E00E941479862F45E0622FA6
:104910008F0DDF91CF911F910F91FF900C94921DFD
:10492000CF92DF92EF92FF920F931F93CF93DF937B
:10493000CEECD7E04A815B81688179818AE20E946E
:1049400062244C815D816E817F8186E50E946224B4
:104950002896AAE3FA2E0DE510E0B7E3CB2E899155
:1049600099919C5FB8010E941479D62ED394EC2CB7
:10497000E61A4D2D6E2D8F2D0E948C5B4D2D6E2DC8
:104980008F2D8F5F0E948C5B4D2D6E2D8F2D8E5F36
:104990000E948C5B85E0F80E89E4F812E0CFDF918D
:1049A000CF911F910F91FF90EF90DF90CF900895DE
:1049B000DF92EF92FF920F931F93CF93DF93F82E26
:1049C00081E59EE00E94BC1DEE24E39406E02DE507
:1049D0003EE045E06F2D81E398E00E94192310929C
:1049E0003108C5E0D7E010E0812F0E9415189C0126
:1049F0004E855F85841795070CF4AC015F874E8761
:104A00004C8D5D8D421753070CF4A9015D8F4C8FBF
:104A1000143060F02E853F85240F351F37FF02C00C
:104A20002F5F3F4F35952795398328831F5F229647
:104A30001730D1F680912F078093A90790E2F916DD
:104A400021F08FEBF8120EC00BC08F5F80932F0701
:104A5000833041F487E10E94D36981E00E942055B0
:104A600010922F0780912F07813059F020F082306B
:104A700009F079C028C069E67EE088E10E94EC5A1E
:104A800072C06AE77EE080E10E94EC5A48E85EE08E
:104A900068E182E10E94F25AC5E0D7E0D12C88E9B2
:104AA000E82E8AE3F82E08E615ECFF86EE861D8FC9
:104AB0000C8F8D2D0E94151889939993D39497E0AC
:104AC000D912F3CF50C069E97EE080E10E94EC5A30
:104AD00048E85EE068E182E10E94F25AE3E1F7E033
:104AE000CDEAD4E061917191848595859B01281B65
:104AF000390B37FF03C03195219531092333310537
:104B00003CF1DF0150974D915C91598348839A01A4
:104B1000261B370BB90137FF02C0615C7F4F06E0EF
:104B2000759567950A95E1F7261B370B3F872E870A
:104B3000841B950B9C0197FF02C0215C3F4F16E040
:104B4000359527951A95E1F7821B930B9D8F8C8FD6
:104B5000229687E0E132F80729F60E948653909367
:104B6000D8048093D704DF91CF911F910F91FF90CC
:104B7000EF90DF900C949024FF920F931F93CF93AC
:104B8000DF93182F062FEA01F22E222321F061E095
:104B90000E94B913182FBE01802F0E94EC5A2F2DAE
:104BA000412F602F86E60E94C21E812FDF91CF9198
:104BB0001F910F91FF900895FF920F931F93CF9332
:104BC000DF93182F062FEA01F22E222321F061E055
:104BD0000E94B113182F2F2D412F602F86E60E94BF
:104BE000C21EBE01802F0E94EC5A812FDF91CF910F
:104BF0001F910F91FF9008951F93CF93DF93D62FAE
:104C0000122F0E94DC25C82F212F482F6D2F86E6FA
:104C10000E94D01E8C2FDF91CF911F910895CF93CA
:104C2000282FCAE03AE0839FC00111248F5F9D4F77
:104C300030E020953095205E3F4FC29FA001C39F7A
:104C4000500D1124BC01665F7F4F0E947B79E7E322
:104C5000F3E0DF011D92CA95E9F782E00E9420553A
:104C6000CF910C94C4550F931F93CF93DF93D82FFC
:104C7000162FC42F022F47FF07C041E286500E9423
:104C8000E35986E08C1BC82F2C2F4FEE59E0612F83
:104C90008D2F0E94B95ADF91CF911F910F910895E6
:104CA0000F931F93CF93DF93162F8132C0F581119D
:104CB00003C0611108C033C0803219F4662331F09B
:104CC0002EC0662319F0082F0F5F02C0082F015075
:104CD0000E94A30FEC01802F0E94A30FFC0198817A
:104CE000892F81508031D8F420812131C0F42917D7
:104CF00071F0112329F0903190F49F5F98830FC0D9
:104D000088830DC0908128812193999301C08BE005
:104D10008150C1F782E00E94205500931C08DF916A
:104D2000CF911F910F91089580913703882329F027
:104D300087E99BE10E94211581E0089565E17BE010
:104D400088E20E94EC5A6DE17BE080E30C94EC5A1F
:104D50000F93CF93C82F80910107882319F069E042
:104D60007CE002C069E17CE088E00E94EC5A4FE000
:104D700065E077E0809100070E94E95300E12AE0B6
:104D800045E057E060E181E00E94975A4FE360E11F
:104D900082E40E94945A0E949E26C13609F450C0B3
:104DA000CF3B21F0C03609F057C005C080E0CF915D
:104DB0000F910C94D369809101078823A9F086E2B2
:104DC0009CE00E94DA12809100070E9457548823C9
:104DD00039F087E10E94D36982E0809301072EC0F9
:104DE00080E00E94D3692AC08091D9048F5F0E941D
:104DF0001D57C091D90408C0C150C13108F0CFE09F
:104E00008091D904C81739F08C2F8F5F0E94ED561E
:104E1000882391F301C0C0E0C093D90481E00E94CF
:104E200020550E94C4558091D9040E94205480913D
:104E3000F1010E94FF1382E080930F0180E601C020
:104E400081E60E94EB5E81E00E9443158CEA9DE2C0
:104E5000CF910F910C942115CF910F910895CF937D
:104E6000C82F813669F08F3B19F0803699F404C061
:104E700080E00E94D3690EC0809104070E940F2633
:104E80008C2F0E94EB5E81E00E94431584E59BE439
:104E90000E9421156CE27BE088E00E94EC5ACF91E1
:104EA0000C949E268091CC0118161CF0811103C031
:104EB00003C081E001C08FEF1092CC010895CF9321
:104EC000C82F0E945227909103072091C9012236D2
:104ED00071F028F4203639F0213639F414C0233625
:104EE00061F02E3611F481E00FC0181624F49C17DF
:104EF00030F49F5F04C0882311F09111915090937A
:104F0000030780E001C082E0CF91089568E37BE071
:104F100088E00E94EC5A62E47BE080E10E94EC5A57
:104F20006CE47BE088E10E94EC5A66E57BE080E27D
:104F30000E94EC5A60E67BE088E20E94EC5A2AE28A
:104F400040E367E082E10C94D85BCF93DF9380E08D
:104F50000E94862784E00E945F27D82FC091030714
:104F60006C2F660F660F660F685F20E044E288E1F1
:104F70000E941D5BD130B9F5C13089F40E9494269E
:104F800081110FC0C0931A0880911B088F5F809316
:104F90001B0860E00E94C81B1092020702C0C230CA
:104FA00018F488EA9EE40EC080911B08C43069F4AE
:104FB000809304078091C9010E94EB5E1092C901A1
:104FC0008FE297E20E9421150BC0C23031F48F5F4F
:104FD00080931B0861E00E94C81B81E08093020758
:104FE000109286070AC0D23041F410928607809151
:104FF000C9010E94EB5E1092C90180911B08809349
:105000001C08DF91CF910895CF92DF92EF92FF922B
:10501000CF93DF93FC01EB019C01DC010E94CA7875
:105020009B01AC01DE010E94DD78272F382F492F2C
:105030005527DF010E94DD786B017C013CE0F6948E
:10504000E794D794C7943A95D1F724E630E02C1B27
:105050003D0B0E94CA786E5C7F4F8F4F9F4F6C0D47
:105060007D1D8E1D9F1D24E630E040E050E00E9433
:105070002879C901DF91CF91FF90EF90DF90CF9019
:1050800008951F93CF93DF939C016115710509F17A
:10509000132F111F1127111F19F031952195310977
:1050A00077FF0EC0719561957109C0E0D4E0CE0123
:1050B000821B930B0E9404289E01281B390B04C0FD
:1050C000C9010E9404289C01112319F031952195F2
:1050D0003109C901DF91CF911F9108958F929F925D
:1050E000AF92BF92CF92DF92EF920F931F93CF9325
:1050F000DF93CDB7DEB7982F362F822F602F442352
:1051000019F0311104C073C020E010E002C022E0A9
:1051100011E0442311F0911121E04E2D50E093E66F
:10512000C9120BC09EE0949F5001959FB00C1124B2
:10513000EDE9F3E0AE0EBF1E0DC0F2E6CF1218C0CF
:105140009EE0949F5001959FB00C11244EE953E0CE
:10515000A40EB51EF50140810E947410112309F4BC
:105160004FC0F501808146E16AEE0E94AE133CC05B
:10517000D12CEA2DF0E0912CCC0CDD1C97E0A11095
:1051800019C0949F5001959FB00C1124AC0CBD1C0C
:10519000AE0EBF1EAA0CBB1CA80CB91C41E953E003
:1051A000A40EB51EF5014081E22E04E62CE90E9412
:1051B0000B1D1AC0949F5001959FB00C1124AC0C8C
:1051C000BD1CAE0EBF1EAA0CBB1CA80CB91C41E92D
:1051D00053E0A40EB51EF50140814C59E22E04E6C1
:1051E00020E00E940B1D8456F501808309C0E091E8
:1051F0006401F091650121E0EF2B09F089CF85CFA3
:10520000DF91CF911F910F91EF90DF90CF90BF90E2
:10521000AF909F908F9008952F923F924F925F9200
:105220006F927F928F929F92AF92BF92CF92DF92B6
:10523000EF92FF920F931F93CF93DF93CDB7DEB71B
:105240002B970FB6F894DEBF0FBECDBF182F8CEA98
:105250009BE00E94BC1D04E0A02ECC24C39484EBF0
:10526000E82E8BE0F82E0BE021ED37E043E0612FD4
:1052700084E298E00E94DC1EF0902408FA942091C9
:1052800025082983103829F580E80E94EB5E1092EA
:10529000C901F7FC62C1F092220886EC9AE22B96D3
:1052A0000FB6F894DEBF0FBECDBFDF91CF911F9137
:1052B0000F91FF90EF90DF90CF90BF90AF909F90B5
:1052C0008F907F906F905F904F903F902F900C94B5
:1052D000211546EB5BE068E085E10E94F25AA6E208
:1052E0006A2EA8E07A2E8EEC97E09F838E8310E1E1
:1052F0001B861A86BEE05B2EEF2DFF27E7FDF0959B
:10530000FB83EA83BA848B2D0E946F1D982E84E064
:10531000989E900111243D832C83EA85FB855E9E37
:10532000C0015F9E900D1124820F931F89519E4FE3
:10533000DC01A355BE4FFC01E455FE4F3C9120819A
:1053400032130AC0FC01E555FE4FDC01A655BE4FE5
:1053500001E020818C91281300E0EE81FF81819192
:105360009191FF83EE839C01275E3F4F23333105EC
:1053700008F000E079866886F301F0808A319105B3
:1053800024F4873E9F4F1CF004C0F12C02C0FF2480
:10539000F3948B2D0E94611B811102C0402E03C02B
:1053A000F12C44244394F301F0824B2D4F5F20E015
:1053B000612F80E00E94231022242394F110212CDD
:1053C0008091AC07DD24D394811107C080916401E2
:1053D00090916501892B09F4D12C2A813B818A8522
:1053E0009B852817390721F433243394998191112F
:1053F000312CF3018080A12CC92CEB2C012F27E24A
:10540000432D6D2D80E00E946E283320C9F0DD20F1
:10541000B9F04420A9F02A853B85529EC001539ED5
:10542000900D1124EC81FD818E0F9F1F8F569C4F94
:10543000FC01EF0DF11D2081FC01E20DF11D208327
:105440002A813B818A859B852817390729F43324D3
:1054500033949981913009F0312CEFEF6E1A7E0A66
:10546000E885F9858080AA24A394C92CEB2C012F10
:1054700029E3432D6D2D80E00E946E283320C9F072
:10548000DD20B9F04420A9F02A853B85529EC00159
:10549000539E900D1124EC81FD818E0F9F1F8D5620
:1054A0009C4FFC01EF0DF11D2081FC01E20DF11D6F
:1054B00020832A813B818A859B852817390721F41F
:1054C00041E09981923009F040E0812CA12CF3E673
:1054D000CF2EEB2C012F2FE36D2D80E00E946E2844
:1054E000EA81FB812A853B85E217F30721F441E03D
:1054F0003981333009F040E0812CA12CE2E6CE2E38
:10550000EB2C012F27E56D2D80E00E946E284110C5
:1055100004C0FF2029F04FE701C04DE28AE302C03A
:105520004EE78BE3612F0E94945A81E0981629F090
:1055300092E0991204C04CE403C04DE401C048E479
:10554000612F85E70E94945AEA85FB853196FB8797
:10555000EA87185F103309F0D5CE2B960FB6F89472
:10556000DEBF0FBECDBFDF91CF911F910F91FF9096
:10557000EF90DF90CF90BF90AF909F908F907F90F3
:105580006F905F904F903F902F9008952F923F9291
:105590004F925F926F927F928F929F92AF92BF9243
:1055A000CF92DF92EF92FF920F931F93CF93DF93EF
:1055B000CDB7DEB728970FB6F894DEBF0FBECDBFCC
:1055C000182F85E79BE00E94BC1DF3E0AF2EC12C95
:1055D000ADE7EA2EABE0FA2E00E020E030E040E05C
:1055E000612F80E298E00E94DC1E409122084F5F0C
:1055F00020E060E080E30E942310F090200880917A
:1056000022080E946F1D182F80912208E82FF0E0D9
:10561000EE0FFF1FE253F84F208131812A3131050F
:105620001CF01092230806C0273E3F4F1CF491E067
:10563000909323080E94611B8111109223086EE74A
:105640007BE080E10E94EC5A41E0F11040E0809064
:105650002308A12CC12EE090220800E126E361E09E
:1056600081E00E946E2863E87BE088E10E94EC5AAA
:1056700041E0F41240E080902308AA24A394C12EB4
:10568000E090220808E126E361E081E00E946E28B4
:105690006AE87BE080E20E94EC5A41E0E2E0FE1220
:1056A00040E0812CA12CE3E6CE2EE090220800E21F
:1056B0002EE161E081E00E946E2860E97BE088E2F3
:1056C0000E94EC5A41E0F3E0FF1240E0812CA12C53
:1056D00072E6C72EE090220808E22EE161E081E048
:1056E0000E946E28113019F0123039F403C066E9B7
:1056F0007BE005C06DE97BE002C064EA7BE080E30B
:105700000E94EC5A209122088EE0289F90011124DB
:1057100094E0199F200D311D112429513E4FF901AC
:10572000E655FE4FD901A555BE4F1C91D901A45590
:10573000BE4FFC9084E6F80ED901A355BE4F0C91E4
:105740000C5980810E94531B682E812F0E94531B8D
:10575000898344E660E08F2D0E943A1B882E44E640
:1057600060E0802F0E943A1B782E809122080E94D0
:10577000611B062D112707FD1095E82CFF24E7FC7F
:10578000F094882309F467C0A12CB12C6501312C59
:1057900051E2452E512C60E4962ED601C501B595F7
:1057A000A79597958795B8010E944128880F991F62
:1057B000B2010E9414796E9DC0016F9D900D7E9D77
:1057C000900D11244FE3242E230C64E670E00E9418
:1057D0000079992D961B692F822D0E943B5B832DAA
:1057E000837051F46FE3822D0E943B5B632D6695BD
:1057F000605E8FE30E943B5B3394E1E2AE0EB11C2E
:10580000C11CD11CFEE33F12C8CFE0912208F0E09A
:10581000EE0FFF1FE253F84F208131813C832B8331
:105820001901442437FC4094542CC201B10121E2F7
:1058300030E040E050E00E944A794EE361E0822F80
:10584000825A0E948C5B809122080E94611B8823EF
:1058500009F4B1C073C018861F82512C71E2C72EA3
:10586000D12CE4E6AE2EB12CF0E29F2E898199274F
:1058700087FD90959C838B83E72DFF27E7FDF095AF
:10588000FE83ED832F803884B801C1010E94412836
:10589000B6010E9414796E9DC0016F9D900D7E9D92
:1058A000900D11246EE5462E450CB5010E9400793D
:1058B000F92DF61B6F2F842D0E943B5B252D237045
:1058C0002A83211109C060E2842D0E943B5B652D73
:1058D000605E8EE50E943B5B6B817C81C1010E9412
:1058E0004128B6010E941479ED81FE816E9FC001AE
:1058F0006F9F900D7E9F900D11245EE5452E4518FB
:10590000B5010E940079605E842D0E943B5BFA81A4
:10591000F11109C060E2842D0E943B5B692D65197D
:105920008EE50E943B5B53942F8138852F5D3F4F5E
:1059300038872F833FE15312A5CF67CFC201B10152
:105940007C5F8F4F9F4F22E030E040E050E00E94AC
:105950004A79B801C9010E9441289C01220F331FD6
:10596000A82D87FCAD5FA595A595BB27A7FDB09594
:105970000E94C27829E130E040E050E00E944A797C
:1059800069017A01CA01B9012FED3FEF4FEF5FEFD7
:105990000E944A79622F605C4EE38FE30E94895B2C
:1059A000C701B60122E030E040E050E00E944A79B1
:1059B00069017A0136C012141304140415040CF0A2
:1059C0006980662D772767FD70958B819C810E9489
:1059D0004128121413041404150414F4A82D01C052
:1059E000A72DA7FDAD5FA595A5959C01BB27A7FD9C
:1059F000B0950E94C27829E130E040E050E00E947A
:105A00004A7969017A01CA01B9012FED3FEF4FEFE1
:105A10005FEF0E944A79622F605E4EE38FE30E943F
:105A2000895B29E130E0AB81BC810E94D678812C72
:105A3000912C54019394A50194010E944A79A901E3
:105A400060E382E70E944D5DA9E1B0E0A701960105
:105A50000E94DD78A50194010E944A79A90168E0BD
:105A600084E50E944D5D12141304140415045CF4C3
:105A7000B8018B819C8144970E944128F601E81B64
:105A8000F90BCF010CC0F9816F2F772767FD709557
:105A90008B819C8144960E9441288C199D0945E088
:105AA000489F9001499F300D1124442737FD4095B0
:105AB000542F93E0E92E00E360E184E50E94315C1D
:105AC00028960FB6F894DEBF0FBECDBFDF91CF9101
:105AD0001F910F91FF90EF90DF90CF90BF90AF900C
