:100000000C94770D0C949F0D0C949F0D0C949F0DE8
:100010000C949F0D0C949F0D0C949F0D0C949F0DB0
:100020000C949F0D0C949F0D0C949F0D0C949F0DA0
:100030000C94860F0C949F0D0C949F0D0C9409103A
:100040000C94DB0E0C949F0D0C949F0D0C949F0D43
:100050000C949F0D0C949F0D0C949F0D0C949F0D70
:100060000C949F0D0C94EC0E0C949F0D0C949F0D12
:100070000C949F0D0C949F0D0C949F0D0C949F0D50
:100080000C949F0D0C949F0D0C949F0D526A676AFF
:100090006B6A6F6A736A776A7D6A836A8D6A916A2E
:1000A000996A9F6AA46AA96AAE6AB46ABA6ABF6AA0
:1000B000CA6AD86A8040000000000000000000000A
:1000C0000000000000000000000000000000000030
:1000D0000000000000000000000000000000000020
:1000E0000000000000000000000000000000000010
:1000F0000000000000000000000000000000000000
:100100000080C0E0E0F0F8F8FCFCFCF8F8F8F04003
:10011000000000000080808000000000000000005F
:10012000000000000000000000000080C0C0E0E00F
:10013000E0F0F0F0E0C00000000000C0F8FFFF9F1A
:10014000878383838383838383838383838383837B
:1001500083838383838383038380838383838383F2
:10016000838383838383838383838383838383835F
:1001700083C3E3733F1F0000000080E0F0F8FCFE43
:10018000FFFFFFFF7F3F1F1F0F0783C3E1E1E0E099
:10019000C0000E1F3F7F7FFFF3E0E0800000000003
:1001A00000000000000080F0FCFEFFFFFFFF7F3F2B
:1001B0000F0301010100000080F0FEFFFFC7C1C175
:1001C000C1C1C1C1C1C1C1C1C1C1C1C1C1C1C1C11F
:1001D000C1C1C1C101C1F0FEFF3F0F070F0D0D0DE1
:1001E0001D191919193131313171616161E1C1C1D3
:1001F000C18100000080E0F8FCFFFFFFFF2F170F18
:10020000038180C0E0F0F8FCFEFFFFFFFFFFFF7FEF
:10021000010000000000000001010307070E1E1C82
:100220003870E0F0F8FEFFFF7F1F0F0300010000B1
:1002300000000000000000000000000000000000BE
:1002400000000000000000000000000000000000AE
:10025000000000000000000000000000000000009E
:10026000000000000000000000000000000000008E
:10027000000000007EFFFFFFFFFFFFFBF8FCFCFE1D
:10028000FF7F3F1F0F07C3FFFFFFFFFFFF7F070039
:1002900000000000000000000000000000C0E0F8C6
:1002A000FEFFFF7F1F0F1F3D7CF8F8F0E08000008D
:1002B000000000000000000000000000000000003E
:1002C000000000000000000000000000000000002E
:1002D000000000000000000000000000000000001E
:1002E000000000000000000000000000000000000E
:1002F00000000000000001010101010307070703DE
:1003000001000000E0FCFFFFFFFFFF1F03000000F3
:100310000000000000000000C0F078DE2713090E86
:100320000703000000000000000001030F7FFFFC36
:100330007878F800000000000000000000008080D5
:10034000808080808080800080800080800000002D
:10035000000000008080808080808080808080809D
:10036000808080808080000000000000000000008D
:10037000000000000000000000000000000000007D
:100380000080F0FEFFFFFFFF3F0F010000000000B4
:10039000000000C0E0381E0F030001000000000054
:1003A000000000000000000000000000000000004D
:1003B00000030301000000000000000000000E0E1A
:1003C00002020202020303000F0F000F0F080808C9
:1003D000080808080F0F08080808080F0F00000099
:1003E000000F0F00000000000000000000000000EF
:1003F000000000000000000000000000000000C03D
:10040000F8BFFFFFFF1F7F01000000000000000099
:10041000F0FCFF7F783000000000000000000000CA
:1004200000000000000000000000000000000000CC
:1004300000000000000000000000000000000000BC
:1004400000000000000000000000000000000000AC
:10045000000000000000000000000000000000009C
:10046000000000000000000000000000000000008C
:1004700000000000000000000000000000301C0729
:100480000E0F070100000000000000000000000047
:10049000000000000000000000000000000000005C
:1004A000000000000000000000000000000000004C
:1004B0000000000000000001020304010204030127
:1004C0000302040103040201040203010403020203
:1004D00001030402010403020301040203040102F4
:1004E00004010302040301030102040301040203E3
:1004F00002010403020401030401020304020104D3
:1005000001020304010302040201030402030104C3
:100510000301020403020152554420454C45205476
:1005200048522041494C20525544205448522045BD
:100530004C452041494C2041494C20454C452054D4
:100540004852205255442041494C2054485220459D
:100550004C452052554420000301020004050607C3
:100560006D656E75537461636B206F766572666C32
:100570006F77006D656E75537461636B20756E6483
:100580006572666C6F7700707265737320616E7947
:10059000204B657900414C455254004D4553534121
:1005A0004745004C4F4144494E4700506C656173CC
:1005B00065207265736574207468656D0053776992
:1005C0007463686573206E6F74206F666600204FD9
:1005D0006C642056657273696F6E20454550524FAA
:1005E0004D202020434845434B2053455454494E09
:1005F00047532F43414C494200416C61726D732057
:1006000044697361626C656400526573657420743B
:1006100068726F74746C65005468726F74746C6582
:10062000206E6F742069646C65005072657373206E
:10063000616E79206B657920746F20736B6970002F
:10064000414C45525400454550524F4D206C6F77F8
:10065000206D656D004F46464142535255735255C9
:1006600025454C73454C25544873544825414C73DB
:10067000414C2550312050312550322050322550E8
:10068000332050332500544852525544454C454977
:10069000443049443149443241494C474541545220
:1006A0004E535731535732535733535734535735AB
:1006B0005357365357375357385357395357415376
:1006C0005742535743004F4646004F4E20002D2DB2
:1006D0002D002D2D2D204348312043483220434802
:1006E000332043483420434835204348362043488C
:1006F0003720434838204348392043483130434865
:10070000313143483132434831334348313443482F
:10071000313543483136434831374348313843480F
:10072000313943483230434832314348323243480A
:1007300032334348323443483235434832364348F3
:100740003237434832384348323943483330005017
:1007500031202050322020503320204D4158204657
:10076000554C4C4359433143594332435943335019
:10077000504D3150504D3250504D3350504D3450FB
:10078000504D3550504D3650504D3750504D3843E8
:1007900048312043483220434833204348342043E3
:1007A00048352043483620434837204348382043C3
:1007B000483920434831304348313143483132438E
:1007C00048313343483134434831354348313600AA
:1007D0002D2D2D2D00564552533A2056312E3530B1
:1007E00039352D6572657A00444154453A203331DC
:1007F0002E31302E323031310054494D453A2031BE
:10080000373A30353A3130002053564E3A20747220
:10081000756E6B2D7235383200204D4F443A2020D2
:1008200020200012081200081C0808081C080000FC
:10083000082200490022080000000000227F220058
:100840000000082200490022080000082200490098
:100850002208000000227F22000000000008220081
:10086000490022080000081C0808081C0800273D51
:10087000C13F8C3EE9455B4F9D54553CFB478F4D36
:10088000C853CD342133F939303ABF3A413B707502
:100890006C736520746162206F766572666C6F7729
:1008A0000020202054546D00457870457846466EEF
:1008B000654D656443727300544F540053542500D2
:1008C00053544B0054535700544D45005354415416
:1008D000005B4D454E555D20746F207265667265F4
:1008E000736800537461636B202020202020202037
:1008F00020206200746D61696E202020202020205D
:100900002020206D7300746D7231204A6974746503
:100910007220202020757300746D72314C61742038
:100920006D696E20202020757300746D72314C61EA
:1009300074206D6178202020207573005354415439
:1009400032004D6F64650042616E64476170005013
:100950006F745363726F6C6C00416C61726D2057E1
:1009600061726E696E67004D656D6F7279205761B7
:10097000726E696E6700537769746368205761729D
:100980006E696E67005468726F74746C652057618D
:10099000726E696E670053706C6173682073637266
:1009A00065656E004F4646004C69676874206F6647
:1009B00066206166746572004C696768742073779D
:1009C0006974636800466C617368206F6E206265AD
:1009D0006570004265657020636F756E74646F7733
:1009E0006E004D696E7574652062656570005468AF
:1009F000726F74746C6520726576657273650053EE
:100A0000494E474F534D5046494C540046696C740B
:100A100065722041444300496E616374697669746C
:100A20007920616C61726D00426174746572792025
:100A30007761726E696E6700436F6E747261737472
:100A40000048617074696320537472656E677468DE
:100A500000537065616B6572205069746368004271
:100A60006565706572506953706B7250636D576144
:100A70007600536F756E64204D6F64650051756923
:100A80006574204E6F4B6579207853686F7274538C
:100A9000686F7274204E6F726D20204C6F6E6720ED
:100AA00020784C6F6E672000426565706572004F5C
:100AB000776E6572204E616D6500524144494F204A
:100AC00053455455500043616C004D756C7469700A
:100AD0006C696572006368316368326368336368A8
:100AE00034006F6666202B3D203A3D006D6F6465D3
:100AF00020202025207372632020737700536C61BF
:100B0000766500545241494E4552000003030303E9
:100B10000056455253494F4E005472696D2D202B9B
:100B200000204D656E75204578697420446F776E9E
:100B300020202055705269676874204C65667400E7
:100B40004449414700424700414E4100205B4D452A
:100B50004E555D205748454E20444F4E45200020BD
:100B60004D4F564520535449434B532F504F5453E8
:100B70002000202020534554204D4944504F494ED9
:100B80005420202000205B4D454E555D20544F20C1
:100B90005354415254202000535441525420434155
:100BA0004C4942524154494F4E200043414C494226
:100BB000524154494F4E0066726565004D4F4445A1
:100BC0004C53454C00434F4C204469726563746933
:100BD0006F6E0041494C20446972656374696F6EA1
:100BE00000454C4520446972656374696F6E00531B
:100BF000776173682052696E6700436F6C6C656340
:100C000074697665002D2D2D202020313230202072
:100C1000203132305820203134302020203930200B
:100C20002020200053776173682054797065004854
:100C3000454C49205345545550000044454C4554BB
:100C400045204D4F44454C2020205B4D454E555D81
:100C500000543254685472696700547261696E6559
:100C60007200452E204C696D69747300504F534ECD
:100C700045470053686966742053656C0050504DB9
:100C80002046724C656E202020206D5365630075F0
:100C90005365630034434820364348203843482096
:100CA0003130434831324348313443483136434888
:100CB0000050504D20202050585820202053494C9F
:100CC000565F4153494C565F4253494C565F43541B
:100CD00052414330390050726F746F005245544195
:100CE000313233004265657020436E74005472697E
:100CF0006D20537700457870202020457846696E36
:100D00006546696E6520204D656469756D436F6148
:100D1000727365005472696D20496E6300542D45ED
:100D200078706F00542D5472696D00436F756E7446
:100D300020446F776E436F756E74205570202000CD
:100D400054696D657220005472696767657200545A
:100D5000696D6572004E616D6500534554555000D4
:100D60000009010000000000000602004475706CDC
:100D700069636174696E67206D6F64656C005B4DBB
:100D8000454E555D20205B455849545D00594553FB
:100D900020202020204E4F0044454C455445204DF6
:100DA0004F44454C004455504C4943415445204D17
:100DB0004F44454C00204142434445464748494A38
:100DC0004B4C4D4E4F505152535455565758595AFB
:100DD0006162636465666768696A6B6C6D6E6F708B
:100DE0007172737475767778797A3031323334353D
:100DF000363738395F2D2E00657870202025202069
:100E000073773120737732004558504F2F4452008A
:100E1000000344522048696768004452204C6F77B1
:100E2000004452204D69640044725377320044728A
:100E300053773100576569676874004578706F00B3
:100E40004558504F2F445200002B2A52004D49580C
:100E50004552005072657373205B455849545D20BC
:100E6000746F2061626F7274004D6178206D6978D3
:100E70006572732072656163683A200044454C4591
:100E80005445204D4958205B4D454E555D00536CEF
:100E90006F772020557000536C6F772020446F7758
:100EA0006E0044656C61792055700044656C617911
:100EB00020446F776E0041646420202020204D750F
:100EC0006C7469706C795265706C61636520004D5B
:100ED000756C747078004F4646005761726E696E8B
:100EE00067005377697463680043757276657300B1
:100EF0004F4E204F4646005472696D004F46464F94
:100F00004E2000466C4D6F64657472696D004F66CB
:100F10006673657400466D5472696D56616C005756
:100F2000656967687400536F75726365004544496D
:100F300054204D49582000494E53455254204D49A4
:100F40005820002D2D2D2D202020763E6F667320F9
:100F500020763C6F667320207C767C3E6F66737CC7
:100F6000767C3C6F6673414E44202020204F5220F7
:100F700020202020584F522020202076313D3D76E1
:100F800032207631213D76322076313E7632202075
:100F900076313C7632202076313E3D7632207631F5
:100FA0003C3D76322000535700435553544F4D205B
:100FB0005357495443484553000002534146455452
:100FC00059205357495443484553000002434C4568
:100FD0004152204D49584553205B4D454E555D00CB
:100FE0002052455441004368616E6E656C204F721B
:100FF0006465720054454D504C4154455300434F75
:101000005059205452494D205B4D454E555D002DA1
:101010002D2D494E56004C494D49545300000303B1
:101020000303030303030303030303030303004353
:1010300056004355525645530050524553455400AF
:10104000454449542D3E0043555256450009002D54
:101050002D2D494E56004F46464F4E20002D2D2D2A
:10106000783E30783C307C787C663E30663C307C24
:10107000667C633120633220633320633420633520
:101080002063362063372063382063392063313092
:10109000633131633132633133633134633135630A
:1010A000313600454550524F4D206F766572666C63
:1010B0006F7700454550524F4D206F766572666CD4
:1010C0006F770067656E7772697465206572726FFD
:1010D0007200454550524F4D20466F726D617474D9
:1010E000696E670042616420454570726F6D2044EF
:1010F000617461004D4F44454C2020202020004D5C
:1011000045202020202020202000500850000000F2
:1011100000000000006F000007000700147F147F2C
:1011200014242A7F2A122313086462364955225058
:101130000005030000001C2241000041221C001495
:10114000083E081408083E0808005030000008084F
:1011500008080800606000002010080402003E49F2
:10116000453E0000427F40006251494600414949E6
:1011700036001814127F0027454539003E49493290
:1011800000017905030036494936000649291E0049
:1011900000363600000056360000081422411414B0
:1011A0001414144122140800020151090600060912
:1011B00009067E0909097E7F494949363E41414178
:1011C000227F4141221C7F494949417F0909090188
:1011D0003E4149497A7F0808087F00417F4100204D
:1011E00040413F017F081422417F404040407F0240
:1011F0000C027F7F0408107F3E4141413E7F090978
:1012000009063E4151215E7F09192946264949496F
:101210003201017F01013F4040403F1F2040201F1D
:101220003F4030403F6314081463070870080761AB
:1012300051494543007F414100020408102000410C
:10124000417F00040201020440404040400001028E
:10125000040020545454787F48444438384444446B
:1012600020384444487F3854545418087E090102F9
:101270000C5252523E7F0804047800447D40002006
:1012800040443D007F1028440000417F40007C0422
:101290001804787C0804047838444444387C1414D6
:1012A0001408081414187C7C080404084854545486
:1012B00020043F4440203C4040207C1C2040201C17
:1012C0003C4020403C44281028440C5050503C44A2
:1012D00064544C44000836410000007F0000004187
:1012E0003608000808221C08081C220808A0608094
:1012F0000000000000000000000000000000FFFFF0
:101300000000000000001F3F00003F1F00003030C1
:10131000FFFF3030FFFF30303078CCCCFFFFCCCC3B
:101320008C0C060F0F86C0E070381C0C3CFEC7E327
:10133000F33B1E0C00000000333B1F0F00000000B9
:101340000000F0F81C0E07030000000003070E1C4D
:10135000F8F000003030E0C0FCFCC0E03030C0C02D
:10136000C0C0FCFCC0C0C0C0000000000000000005
:101370000000C0C0C0C0C0C0C0C0C0C000000000ED
:1013800000000000000000000080C0E070381C0C6D
:1013900000000000000000000000000000003838DD
:1013A0000000000000000000000000000000030337
:1013B0003F3F03033F3F03030C0C0C0C3F3F0C0C5F
:1013C00007030C0E07030100183C3C180F1F3831AF
:1013D00033331E1E33330000000000000000000005
:1013E000000003070E1C38300000000030381C0ECF
:1013F00007030000030301000F0F000103030000B7
:1014000000000F0F000000000000333B1F0F000022
:101410000000000000000000000000000000183C78
:101420003C18000000000C0E070301000000000043
:101430000000FCFE87C3E377FEFC00000C0EFFFFFC
:101440000000000000000C0E0783C3E77E3C000094
:101450000303C3C3C3E7FE3C0000C0E070381C0EAA
:10146000FFFF00003F3F33333373E3C30000FCFE54
:10147000C7C3C3C78E0C00000303C3E3733B1F0F36
:1014800000003CFEE7C3C3E7FE3C00003C7EE7C330
:10149000C3E7FEFC0000183C3C1800000000000000
:1014A000183C3C18000000000000C0E0F0381C0EA2
:1014B00007033030303030303030303003070E1C0E
:1014C00038F0E0C000000C0E07030383C3E77E3C46
:1014D00000000F1F3B3130381F0F000030303F3FFE
:1014E0003030000000003C3E3733313030300000F7
:1014F0003030303030391F0F000003030303030383
:101500003F3F00000C1C383030381F0F00000F1F09
:10151000383030391F0F000000003F3F000000004E
:1015200000000F1F393030391F0F00000000303825
:101530001C0E07030000060F0F060000000000004D
:10154000333B1F0F000000000000000103070E1CCA
:1015500038300303030303030303030330381C0E73
:101560000703010000000000000033330100000009
:1015700000003C7EE7C3C3E77E3CF0F8DCCEC7C783
:10158000CEDCF8F0FFFFC3C3C3C3C3E7FE3CFCFEE1
:101590000703030303070E0CFFFF030303070E1CDF
:1015A000F8F0FFFFC3C3C3C3C3C30303FFFFC3C339
:1015B000C3C3C3C30303FCFE0703C3C3C3C7CECC6B
:1015C000FFFFC0C0C0C0C0C0FFFF00000303FFFF9B
:1015D00003030000000000000303FFFF0303FFFFFD
:1015E000C0E0F0381C0E0703FFFF00000000000001
:1015F0000000FFFF0E1CF8F81C0EFFFFFFFF387005
:10160000E0C08000FFFFFCFE070303030307FEFCAE
:10161000000000000000000000003F3F000000004C
:1016200000003F3F3F3F3030303030391F0F0F1F39
:101630003830303030381C0C3F3F303030381C0EE2
:1016400007033F3F30303030303030303F3F000014
:101650000000000000000F1F3830303030303F3FB6
:101660003F3F0000000000003F3F000030303F3FA0
:10167000303000000C1C383030381F0F00003F3F66
:10168000000103070E1C38303F3F3030303030301F
:1016900030303F3F0000000000003F3F3F3F000070
:1016A000000103033F3F0F1F3830303030381F0F29
:1016B000FFFFC3C3C3C3C3E77E3CFCFE07030303B2
:1016C0000307FEFCFFFFC3C3C3C3C3E77E3C3C7EEE
:1016D000E7C3C3C3C3C78E0C03030303FFFF0303A6
:1016E0000303FFFF000000000000FFFFFFFF0000FA
:1016F00000000000FFFFFFFF000000000000FFFFF0
:101700000F1F38F0E0E0F0381F0F3F7FE0C080800F
:10171000C0E07F3F03030383C3E3733B1F0F00005D
:10172000FFFF0303030300000C1C3870E0C08000BF
:101730000000000003030303FFFF000030381C0E0D
:1017400007070E1C383000000000000000000000F9
:101750003F3F00000000000000000F1F383033370B
:101760001E1C3F333F3F000003070E1C38300C1C8B
:101770003830303030391F0F000000003F3F00008C
:1017800000000F1F3830303030381F0F03070E1C99
:1017900038381C0E07030F1F38381F1F38381F0F2B
:1017A0003C3E0703010103073E3C000000013F3FB0
:1017B000010000003C3E3733313030303030000023
:1017C0003F3F3030303000000000000000010307D0
:1017D0000E0C0000303030303F3F000000000000B1
:1017E0000000000000003030303030303030303019
:1017F000000003070E1C383000000000303030308D
:101800003070E0C0FFFFC0E070303070E0C0C0E07A
:101810007030303030300000C0E070303070E0C0E8
:10182000FFFFC0E0703030303070E0C0C0C0FCFE60
:10183000C7C303070E0CF0F89C0C0C0C0C0CFCFC42
:10184000FFFFC0E070303070E0C000003030F3F3D4
:1018500000000000000000003030F3F30000FFFF44
:101860000080C0E07030000000000303FFFF0000B4
:101870000000F0F03070E0E07070E0C0F0F0C0E028
:1018800070303070E0C0C0E0703030303070E0C098
:10189000000000000000000000000C1E3F33333346
:1018A00033333F3F3F3F3030303030381F0F0F1F52
:1018B0003830303030381C0C0F1F3830303030307A
:1018C0003F3F0F1F3B3333333333030300003F3FAE
:1018D000000000000000000133333333333B1F0F9F
:1018E0003F3F0000000000003F3F000030303F3F1E
:1018F000303000000C1C383030381F0F00003F3FE4
:1019000003070F1C38300000000030303F3F3030FC
:1019100000003F3F0000030300003F3F3F3F000047
:10192000000000003F3F0F1F3830303030381F0FAD
:10193000F0F03030303030F0E0C0C0E0F030303027
:10194000E0C0F0F0F0F0C0E070303070E0C0C0E017
:10195000F0303030303000003030FFFF30300000E9
:101960000000F0F0000000000000F0F0F0F00000D7
:1019700000000000F0F0F0F0000000000000F0F0C7
:101980003070E0C08080C0E07030F0F08000000077
:101990000000F0F03030303030B0F0F07030000047
:1019A000C0E03C3E0703000000000000FFFF000015
:1019B0000000000003073E3CE0C00000C0C0C0C003
:1019C0000C1CF8F0E0C0C0E0F0F81C0CC0C0C0C0B7
:1019D0003F3F030303030303010000010303030369
:1019E00003033F3F3F3F0000000000000000303194
:1019F00033333333333F1E0C00000F1F3830303881
:101A00001C0C0F1F383030381C0C3F3F03070E1CD6
:101A100038381C0E07030F1F38381C1C38381F0FAE
:101A200030381C0F07070F1C3830000133333333B5
:101A3000333B1F0F30383C3E3733313030300000FD
:101A400000010F1F38300000000000003F3F000081
:101A50000000000030381F0F0100000000000000EF
:101A60000C0E07030100000103070E0C000000002C
:101A70004080080420100201981AA41AAA1AB71A62
:101A8000BE1ACB1AD61AE11A01020304010302049A
:101A9000040203010403020153696D706C65203474
:101AA0002D434800542D43757400537469636B795A
:101AB00020542D43757400562D5461696C00456C9B
:101AC00065766F6E5C44656C74610048656C692076
:101AD0005365747570004779726F20536574757023
:101AE00000536572766F205465737400700F112473
:101AF0001FBECFEFD0E1DEBFCDBF11E0A0E0B1E06F
:101B0000E4E7F7ED02C005900D92A433B107D9F7D1
:101B10001EE0A4E3B1E001C01D92A439B107E1F7D2
:101B20001AE1CEEEDAE104C02297FE010E947B6B3F
:101B3000CC3ED107C9F70E94EA170C94B86B0C94FD
:101B400000009AE0899F9001112427553E4FC9015A
:101B5000089595E0899F9001112427513D4FC901B7
:101B6000089586E896E008958C3038F4E82FF0E088
:101B7000EE0FFF1FE952FB4F2CC0803188F4E82F95
:101B8000F0E0EE0FFF1FDF01A25BBE4FEE58FB4FF0
:101B90000190F081E02D8D919C91E81BF90B0BC019
:101BA000843160F4E82FF0E0EE0FFF1FEE58FB4F9A
:101BB0000190F081E02DEE0FFF1F0EC0843218F06F
:101BC000E0E0F0E009C0E82FF0E0EE0FFF1FE35483
:101BD000FB4F0190F081E02DCF010895E0917B044F
:101BE000F0E0EE0FFF1FED58FB4F808191810895CB
:101BF0008091630090E096958795817080939E0414
:101C0000089510928704109289041092880410920B
:101C100086040895E8E5F5E0E80FF11DE491F0E0B1
:101C2000EE0FFF1FEF55FB4F20813181C901089551
:101C3000CF93DF9380917A0180FD02C07AE005C0E6
:101C400080917801817072E0781BA1EAB4E0E1EB49
:101C5000F4E060E0C0E0D4E0862F806487B9369A73
:101C6000208931898D919C91119796958795820F46
:101C7000931F8E7F11969C938E9340815181240FE8
:101C8000351F36952795318B208B349BFECF349AA8
:101C900084B195B1671721F49E01281B390BC90146
:101CA000840F951F96958795819391936F5F1296F8
:101CB000683091F6DF91CF91089580917A0180FD8F
:101CC00002C06AE005C080917801817062E0681B03
:101CD000E1EAF4E050E0A0E0B8E01AC077B9369A43
:101CE000349BFECF349A84B195B1280F391F4F5FD2
:101CF0004430A1F7C90196958795561721F49D01A7
:101D0000281B390BC901819391935F5F583031F0E3
:101D100020E030E040E0752F7064E0CF08958091BE
:101D20007A0180FD02C03AE005C08091780181709F
:101D300032E0381BE1EAF4E020E040E058E0822F96
:101D4000806487B9369A349BFECF349A84B195B1BA
:101D5000880F991F231721F4BA01681B790BCB0157
:101D6000819391932F5F283051F708958EE587B9BD
:101D7000369A349BFECF349A369A349BFECF349AEF
:101D800084B195B1049640919B0450919C049A01B2
:101D900063E0220F331F6A95E1F7241B350B820F96
:101DA000931FB3E096958795BA95E1F790939C04BD
:101DB00080939B0408951F920F920FB60F921124E7
:101DC0008F9380919D048F5F80939D048F910F90DE
:101DD0000FBE0F901F90189578941F920F920FB618
:101DE0000F9211242F933F934F935F936F937F93A1
:101DF0008F939F93AF93BF93EF93FF9320918000B6
:101E000030918100F89480917D008F7D80937D00DA
:101E1000789480919F049091A004A901481B590BCC
:101E2000569547953093A00420939F0420919A04DF
:101E3000822F8150883048F5CA01815293408757DC
:101E4000954000F5E22FF0E0EE0FFF1FE857FB4F43
:101E50004C5D554080917E01992787FD90950A96AB
:101E6000BC01469FC001479F900D569F900D1124C5
:101E70006AE070E00E94296B718360832F5F20937A
:101E80009A040BC010929A0408C0415A5F404F5DFB
:101E90005E4218F481E080939A04F89480917D006A
:101EA000806280937D00FF91EF91BF91AF919F91F0
:101EB0008F917F916F915F914F913F912F910F90F3
:101EC0000FBE0F901F901895E5E9FEE001C0319616
:101ED00080818535E1F39F0124593E40C901089571
:101EE00084E394E00E94096908959C01E0917B04D9
:101EF000F0E0EE0FFF1FEF58FB4F918380838FEBD5
:101F0000F901099589E00E94EF6A08951F920F92E6
:101F10000FB60F9211242F933F934F935F936F93BC
:101F20007F938F939F93AF93BF93EF93FF9390E033
:101F30008CB58A3008F065C09F5F923309F461C0A8
:101F4000F7CFC09A1092D10404C0C09881E080936A
:101F5000D1048091DC069091DD069C0124173507A1
:101F600008F49A013093DD062093DC06809111017C
:101F7000909112019C014217530708F49A01309383
:101F8000120120931101A0910F01B0911001FD01E8
:101F9000819191919BBD8ABDF0931001E0930F0157
:101FA00012968D919C911397892BA9F480EE96E05F
:101FB0009093100180930F018091A501817080930F
:101FC000D10487B78F7E87BF78940E94051EF8944E
:101FD00087B7806187BF80917C04816080937C0497
:101FE000FF91EF91BF91AF919F918F917F916F91F1
:101FF0005F914F913F912F910F900FBE0F901F90C7
:1020000018954CB55DB58091D104882309F099CF1E
:102010009CCF78941F920F920FB60F9211242F939A
:102020003F934F935F936F937F938F939F93AF9360
:10203000BF93EF93FF93F89487B78D7F87BF789412
:1020400081B78E5F81BF84E394E00E9439698091FB
:102050000E01815080930E018F5F51F48DE48093C7
:102060000E010E94906480917C04826080937C04C5
:10207000F89487B7826087BFFF91EF91BF91AF91CE
:102080009F918F917F916F915F914F913F912F9190
:102090000F900FBE0F901F901895AF92BF92CF92E6
:1020A000DF92EF92FF920F931F93CF93DF93D82E7F
:1020B000A42E85E0841708F4EFC0DD2009F4EFC0FA
:1020C00096E1D91609F4EAC08AEED81609F4E4C0FC
:1020D0002D2D332727FD3095C90137FF04C08827F0
:1020E0009927821B930B8A3084F41D144CF08DE0E9
:1020F00090E0821B930B0E940C6461E06827CFC0C4
:10210000C9010D960E940C64A3C0E82EFF24E7FCD1
:10211000F09486EF9FEFE80EF91ED701AA0FBB1FC0
:10212000AE0DBF1DA157BE4FA85ABD4F8C91A855EB
:10213000B240882309F4B0C0FD01EA5AFD4FC080C7
:10214000ED01C95ADD4FB880853008F4B4C088303D
:1021500028F400E010E0E0E0F0E00AC08C2D8150AF
:102160000E94B40D8C01888181500E94B40DFC0145
:10217000E701CC0FDD1FCE0DDF1DC951DC4F2881DB
:10218000283088F4253008F049C0223031F123305E
:1021900020F4213009F080C01CC0233011F124301C
:1021A00009F07AC029C02A3009F462C02B3038F413
:1021B000283009F453C0293009F06EC054C02C30C7
:1021C00009F460C02C3008F458C02D3009F064C008
:1021D0005EC01D140CF44CC05AC01D140CF44DC04C
:1021E00051C020E0C80117FF03C0909581959F4F13
:1021F000E817F90764F40AC020E0C80117FF03C01C
:10220000909581959F4F8E179F070CF421E01D1428
:1022100014F4622F44C061E0622741C01A2D1F5F91
:102220008C2D60E0412F0E944D10082F8B2D60E017
:10223000412F0E944D109881953031F4002361F1B7
:10224000682F882361F12AC0963021F4002331F5EC
:10225000682F25C060E0081709F521C060E00E175F
:102260001F07E9F41BC060E00E171F07B9F417C081
:1022700060E0E017F1079CF411C060E00E171F0743
:1022800074F40CC060E00E171F074CF007C060E04C
:10229000E017F10724F002C060E001C061E0862F82
:1022A000DF91CF911F910F91FF90EF90DF90CF9032
:1022B000BF90AF9008958C2D81500E94B40D8C0179
:1022C000988189E29802F0011124F595E795F5953A
:1022D000E79597FD915C96FB990F990B90F9892FE3
:1022E000992787FD9095E81BF90B42CF8F929F921B
:1022F000AF92BF92CF92DF92EF92FF920F931F9314
:10230000CF93DF93182F7B014A015901C02E84FD22
:1023100004C034E0D32E05E005C01F70106625E030
:10232000D22E04E08D2D8066181761F08D2D80640B
:10233000181741F090910605992359F0133611F0C2
:10234000133439F4E701219685E00E94EF6A802F6B
:1023500016C0802F8066181761F0802F80641817D0
:1023600041F0992309F471C0123619F0123409F0C2
:102370006CC0E701219786E00E94EF6A8D2D90E006
:102380000E940C64882351F0CC27DD27CE19DF0989
:10239000802F0E946E648D2D0E946E6481149104C2
:1023A00091F481E0A816B10471F4103661F4109232
:1023B0000605C0E0D0E0E114F10411F4C1E0D0E082
:1023C00080E60E946E648091800490918104C81B15
:1023D000D90BAC16BD0644F4812F0E946E6485E0D3
:1023E0000E94EF6AE5010AC0C815D9053CF4812FA7
:1023F0000E946E6486E00E94EF6AE401CE15DF055C
:10240000A1F0209751F4812F0E945F64F7FE02C073
:1024100085E001C086E00E94EF6A8C2D83700E94E7
:10242000835881E080937D0402C010927D04CE0128
:10243000DF91CF911F910F91FF90EF90DF90CF90A0
:10244000BF90AF909F908F900895E701A7CF0F9313
:10245000772767FD7095552747FD5095332727FD52
:1024600030950E9476110F9108950F93772767FD9D
:102470007095552747FD5095332727FD309501E08E
:102480000E9476110F9108950F93772767FD70953D
:10249000552747FD5095332727FD309502E00E94D0
:1024A00076110F9108951F93CF93DF93682F782FA4
:1024B0007F7076502091A10122306CF0332727FDE8
:1024C00030952150304081E090E002C0880F991F84
:1024D0002A95E2F7282F783008F09FC0872F85953E
:1024E000A82FB0E0FD01EE0FFF1FE050FF4F01905D
:1024F000F081E02D1081222311F0422F10C0412FD6
:10250000552747FD509557FF03C0509541955F4FA4
:10251000242F47FD2D5F422F459545954F5F209114
:10252000780130E02170307082E090E0821B930BE4
:102530008A179B0711F050E00CC08091A0018F70AA
:1025400011F450E002C044E051E080917A0180FD36
:102550004195812F992787FD9095242F332727FDBB
:10256000309570FF04C0E901C80FD91F03C0EC010A
:10257000C21BD30B209721F0812F8D2787FF0CC022
:10258000552351F4112341F01082862F0E946E646E
:1025900088E00E94EF6A40C0CE0184589F4F893F77
:1025A0009105B0F4C08386E00E948358CE01835821
:1025B0009F4F8B3F910580F59E01D7FF03C030955B
:1025C00021953F4F3595279535952795422F1EC06C
:1025D0001C161D0614F083E801C08DE7808386E099
:1025E0000E948358CE0183589F4F8B3F9105A0F4E2
:1025F000CE01D7FF03C0909581959F4F64E070E0B6
:102600000E94296BAB01509541955F4F445C84E378
:1026100094E067E00E94386A60E0862FDF91CF91F6
:102620001F9108951F93CF93DF93F89420918F0EFD
:102630003091900E789440E08091D5049091D6042A
:102640002817390709F041E040938304F8948091FA
:102650008F0E9091900E78949093D6048093D50429
:102660008BE095E060E00E942F2180918304882315
:1026700009F40BC18091860480FF14C090918704F7
:10268000892F8F5F80938704843660F093569093F0
:10269000870480918804909189040196909389041D
:1026A0008093880480E00E9496580E946E630E9486
:1026B0007C630E945312182F8091840490918504AA
:1026C000009729F001979093850480938404112347
:1026D00089F080917C0190E024EF31E0AC01429FD1
:1026E000C001439F900D529F900D1124909385043B
:1026F000809384048091650160E040E00E944D1069
:10270000882339F48091840490918504892B09F4FD
:10271000BAC0C79A2091E3043091E40480917E040A
:1027200090917F04821B930B60E270E00E94296B02
:1027300070938104609380046115710591F080911C
:10274000D3049091D404821B930B62E070E00E944A
:10275000296B709381046093800430937F042093ED
:102760007E043093D4042093D30480917A0185FFB2
:1027700004C01092810410928004E0917B04F0E088
:10278000EE0FFF1FEF58FB4F0190F081E02D812FDE
:1027900009950E943B638091630090E09695879530
:1027A000817080939E04882321F0809165008F7E44
:1027B00003C080916500806180936500F8948091EA
:1027C0008F0E9091900E78948F719070029709F00F
:1027D0005CC0EFE5F5E0E491F0E0EE0FFF1FEF5590
:1027E000FB4F0190F081E02D2091640180917A01EE
:1027F00086FF03C0C0EFD0E004C0C0919B04D0911D
:102800009C04CF0168E070E00E94296B822F992719
:1028100087FD909506969C01629FC001639F900D75
:10282000729F900D112474E0EE0FFF1F7A95E1F76F
:102830002091820430E02F5F3F4F8E0F9F1FBE011B
:102840000E94296B260F371F359527952093820408
:102850008091D204805E8093D2048823B1F4809169
:102860006301281790F4223380F083E10E94EF6A1D
:1028700080917A0183FF09C082E390E09093850400
:102880008093840402C0C79845CFDF91CF911F91F8
:1028900008950F931F9380919D0402B710919D049A
:1028A0008117C9F7E0917B01F0E0EE0FFF1FE85FB1
:1028B000FE4F0190F081E02D09950E94B60E0E9416
:1028C000121380917C04833019F4A89510927C0433
:1028D00040919D0452B780919D044817C9F7912FEC
:1028E00080E0202F30E0822B932B342F20E0452FE7
:1028F00050E0422B532B2091DE063091DF06481B1F
:10290000590B4217530708F4A9015093DF0640936F
:10291000DE061F910F9108950F931F938C010E9463
:102920006E6382E260E04BE955E024E00E9479604A
:1029300080E068E1A8010E94B3600E943B6380913F
:1029400062010E9431631F910F910895EF92FF92EF
:102950000F931F93082FF62E142FE22E442329F0F5
:10296000463139F04A3E81F408C08A5F4EEC56E0A9
:1029700007C08A5F4AEC56E003C08A5F46EC56E027
:102980002E2D0E94796023C0441F4427441F405EBF
:102990000E947D5F202F2A5F412F552747FD5095CC
:1029A00057FF03C0509541955F4F842F992787FDAE
:1029B00090950197AC01440F551F480F591F4A5776
:1029C000594F822F6F2D23E00E2D0E9438601F91EA
:1029D0000F91FF90EF900895DF92EF92FF920F9387
:1029E0001F93F82EE62ED42E10919A01812F99274D
:1029F00087FD909597FF03C0909581959F4F8031FB
:102A00009CF443E08402A00111244B5A594F8F2DAE
:102A10006E2D23E00D2D0E9438601F3F4CF58F2D49
:102A200086506E2D41E221C0853274F411161CF4DB
:102A3000412F4F5002C0412F415F8F2D86506E2D88
:102A40002D2D0E94A61414C011161CF4412F4452BF
:102A500002C0412F4C5D8F2D86506E2D2D2D0E9472
:102A6000A6148F2D8E5E6E2D4DE62D2D0E947D5F5E
:102A70001F910F91FF90EF90DF9008950F93022F19
:102A800050E0440F551F440F551F4E52594F24E03C
:102A90000E9438600F9108950F93942F022F4423C2
:102AA00019F440ED57E01DC0453090F44091780195
:102AB00050E0440F551F440F551F41505040490FDF
:102AC000511D440F551F440F551F495E5A4F09C0F1
:102AD000453250F450E0440F551F440F551F455CDC
:102AE000584F24E00E9438600F91089586B3809576
:102AF0008E77E1F70E9479630895FF920F931F93F9
:102B00008C01F62E0E946E6382E260E045E955E09A
:102B100024E00E94796080E068E1A8010E94B3602F
:102B20008CE168E347E855E00E94B3600E943B6394
:102B3000FF2011F089E102C0809162010E9431639F
:102B400084E00E94EF6A0E94761586B380958E77A6
:102B5000C9F480917C04833019F4A89510927C0408
:102B60008091650160E040E00E944D10882331F4BF
:102B700080917C01882311F4FF2011F0C79AE5CFE2
:102B8000C798E3CF1F910F91FF900895CF93DF93E4
:102B9000EC0190917B04892F8F5F80937B048530BB
:102BA00040F090937B0480E695E060E00E947D1504
:102BB0000FC089E00E94EF6AE0917B04F0E0EE0F25
:102BC000FF1FEF58FB4FD183C0838FEBFE010995A8
:102BD000DF91CF91089590917B04992319F4882374
:102BE00031F418C0882319F4892F815001C080E086
:102BF00080937B0489E00E94EF6AE0917B04F0E01F
:102C0000EE0FFF1FEF58FB4F0190F081E02D8EEB90
:102C10000995089583E795E060E00E947D15089589
:102C200080917004882351F08EEC95E060E00E9462
:102C30007D15809170048E7F80937004089580913B
:102C4000770187FD07C0887329F489EF95E060E07C
:102C50000E947D1508958091770182FD0AC00E942F
:102C6000995B883C910528F486E496E060E00E9438
:102C70007D1508951F93CF93DF9386B380958E774C
:102C800021E030E0682F70E0422FCB01022E02C01D
:102C9000959587950A94E2F780FD06C04F5F2F5FF8
:102CA0003F4F2830310581F7142F11501630A8F509
:102CB000812F0E943C59882381F110936101812F5B
:102CC0000E948A5A81E00E9483580E946E6386E1C6
:102CD00060E043EA55E024E00E947960CFE8D1E06B
:102CE0001AE0812F68E1499124E00E947D5F155F21
:102CF0001837B9F70E943B63809162010E943163EB
:102D000080916501882321F480917C01882311F052
:102D1000C79A01C0C7980E947615DF91CF911F9185
:102D20000895EF92FF920F931F938C017B010E94F5
:102D30006E6382E260E040E456E024E00E94796045
:102D400080E060E2A8010E94B36080E068E2A70131
:102D50000E94B36080E060E34AE256E00E94B36004
:102D60000E943B63809162010E9431630E9476154C
:102D70001F910F91FF90EF9008951F93809177011D
:102D800081FD2EC08DEB95E06BEA75E00E949116F7
:102D90001EE00BC0113141F0812F8D5060E040E00A
:102DA0000E944D10882329F41F5F163198F31631C5
:102DB000B9F086B380958E7799F406C080917C0136
:102DC000882359F0C79A0AC08091650160E040E00D
:102DD0000E944D108823B1F7F1CFC7981EE0DCCFD9
:102DE0001F9108950F931F93CF93DF9380917701E5
:102DF00080FD51C08091780190E081709070C2E0B8
:102E0000D0E0C81BD90BFE01EE0FFF1FEC5CFE4F9C
:102E100001811281005F1F4F87859089081B190B64
:102E20000E948F0EEC2FF0E0E85AFA4F8491C82FE1
:102E3000D0E0CC0FDD1FCF55DB4F8881998108177B
:102E400019074CF586B380958E7729F512C00E943C
:102E50008F0E8881998108171907ECF486B3809545
:102E60008E77C9F40DC080917C01882391F0C79AB8
:102E7000EECF88E196E069E076E00E949116E7CF18
:102E80008091650160E040E00E944D10882379F751
:102E9000EACFC798DCCFDF91CF911F910F910895B2
:102EA0000F931F93CF93DF9380917A0184FD8DC0A0
:102EB0008091650160E040E00E944D10882329F474
:102EC00080917C01882309F473C0C79A0E946E63C5
:102ED00080E060E044EB50E020E000E00E94205FF2
:102EE00080E068E345E851E02AE000E10E943860B4
:102EF0000E943B63809162010E9431630E947615BB
:102F000000E00E94180E0F5F0032D9F728E535E087
:102F100000E010E0F9018491E82FF0E0EE0FFF1FD0
:102F2000EF55FB4F80819181892F9927080F191F39
:102F30002F5F3F4FF5E02C353F0761F7F894C091C4
:102F40008F0ED091900E7894C057DE4F27C00E940C
:102F5000180E28E535E040E050E0F9018491E82FB3
:102F6000F0E0EE0FFF1FEF55FB4F80819181892F1D
:102F70009927480F591F2F5F3F4FF5E02C353F072A
:102F800061F786B380958E7701F540175107E9F414
:102F900011C080917C018823B1F0C79AF894809188
:102FA0008F0E9091900E7894C817D90781F60DC0B6
:102FB000C7988CCF8091650160E040E00E944D1081
:102FC000882359F7E6CFC798E9CFDF91CF911F91BA
:102FD0000F9108951F939FEF9ABB1BBA81E887BB9F
:102FE0008EE788BB8EE384BB81EC85BB11BA92BBB4
:102FF00088E082B987EF83B9109261001092620075
:1030000084E1809364008BEF809365000E94F662F8
:1030100080E487B985E886B987E083BF8CE981BF02
:1030200087B7836087BF1FBC8AE08EBD10928B007C
:1030300082E880938A0080917D00806280937D0089
:10304000EDB7FEB7329785E502C0808331974EE039
:10305000E439F40709F0C8F778948AE89CE2909381
:1030600072048093710489E10E9431630E94C25A04
:10307000109161010E943A1680918301813039F4E8
:1030800080917A0184FD03C080E00E94EF6A0E9473
:1030900050170E942B160E948F0E0E94F2160E945B
:1030A000BD160E941F160E9410160E94761580EF12
:1030B00090E090939C0480939B040E94051E2DE059
:1030C00088E190E00FB6F894A89581BD0FBE21BDB0
:1030D0008BE095E060E00E942F2187E29DE30E9453
:1030E000C61581E00E94EB15809162010E94316358
:1030F00080917C0190E024EF31E0AC01429FC0015F
:10310000439F900D529F900D1124909385048093BE
:10311000840480916101181729F081E00E9483588E
:103120000E942C5980ED97E09BBD8ABD80E186BF4F
:1031300087B7806187BF0E944914FDCF0F931F930B
:10314000062F122F206250E00E94C56217FD07C0B3
:103150008091610E602F46E7212F0E947D5F1F91B5
:103160000F910895242F409182040E949E18089583
:10317000AF92BF92CF92DF92EF92FF920F931F9385
:10318000CF93DF93F82EB62EEA01122FA02E57FF11
:1031900010C022FD02C08FE001C08CE19F2D981B62
:1031A000892F6B2D4DE2212F0E947D5FD095C19517
:1031B000DF4F2A2D21238F2D6B2D4AE30E947D5F47
:1031C000812F90E004E0C02ED12CC822D92212FD1C
:1031D00002C0E0E001C0E2E0CE016CE370E00E94DA
:1031E000296B9B01442737FD4095542F10618E2F8A
:1031F0008F0D6B2D012F12E0E12E0E948561CD28ED
:1032000011F4E1E101C0ECE1CE016CE370E00E9459
:10321000296B9C01442737FD4095542F80E1A82A53
:103220008E2F8F0D6B2D0A2DB2E0EB2E0E94856143
:10323000DF91CF911F910F91FF90EF90DF90CF9092
:10324000BF90AF90089599E28902900111243595BD
:1032500027953595279587FD815C86FB880F880B20
:1032600080F9992787FD9095281B390BC90108958E
:103270008DE590E10895E9EAF1E090E080818150E8
:10328000803108F49F5F3A9682E0E93EF807B1F793
:10329000892F08956F927F928F929F92AF92BF92E3
:1032A000CF92DF92EF92FF920F931F933B017C012D
:1032B00000E010E08824992464E670E080E090E06B
:1032C0006619770988099909A80197010E94F66A89
:1032D0005B016C0182E390E0A0E0B0E0A80EB91EB3
:1032E000CA1EDB1EC801B7010E94F66A0E94F66A78
:1032F000BC0188279927A40193010E94F66A24E063
:1033000096958795779567952A95D1F7A60EB71E5E
:10331000C81ED91EC601B50124E630E040E050E0E9
:103320000E943C6BC9011F910F91FF90EF90DF90BD
:10333000CF90BF90AF909F908F907F906F900895A7
:10334000FF920F931F939C01AB016115710531F141
:10335000FF2497FF05C0FF24F394309521953F4F3C
:1033600057FF10C000E014E066277727641B750B39
:10337000C801821B930B0E944A199801281B390B24
:10338000C90104C0C901BA010E944A19FF2011F401
:103390009C0104C022273327281B390BC9011F9128
:1033A0000F91FF900895282FE5EBFDE080E09491C8
:1033B000921731F03196992311F08F5FF8CF80E0AA
:1033C0000895823410F080E20895E82FF0E0EB5485
:1033D000F24F8491089510925E0610925706109253
:1033E000560610925B0610925A06109259061092D9
:1033F000580610925D0610925C060895AF92BF9237
:10340000CF92DF92EF92FF920F931F93CF93DF93B0
:103410005B016C0100E010E8C0E0D0E8EE24FF247E
:103420009E0140E050E0CA01B9010E94F66AA6166A
:10343000B706C806D90610F4C027D12716950795F8
:103440000894E11CF11C80E1E816F10461F4CE015E
:10345000DF91CF911F910F91FF90EF90DF90CF9070
:10346000BF90AF900895C02BD12BDACF9C0140E0E4
:10347000683008F041E070E0442371F0CB01089718
:10348000FC0163E0EE0FFF1F6A95E1F7E80FF91FFB
:10349000DF01A356BC4F0AC0FB01EE0FFF1FEE0F6A
:1034A000FF1FE60FF71FDF01AB58BC4FFD01808106
:1034B00020503C4F37FD0EC068E02030360784F0C6
:1034C000442319F484E090E002C088E090E0A80F63
:1034D000B91F8C91992787FD9095582F442733C0A9
:1034E000442331F0432FB9017070660F771F04C079
:1034F000432F4695B9017170842F90E0FD01E80FCC
:10350000F91F8181992787FD90959B013595279516
:10351000829FA001839F500D929F500D1124208106
:10352000332727FD309580E092E0861B970B959519
:103530008795BC01269FC001279F900D369F900D57
:103540001124480F591FCA0169E170E00E94296BDC
:10355000CB0108956F927F928F929F92AF92BF920C
:10356000CF92DF92EF92FF920F931F93CF93DF934F
:103570008091A50181FD04C0C12C34E0D32E03C08D
:10358000C12C25E0D22E40919F01440F485F9091BD
:10359000A20184E69802D0011124A85ABD4F8824C4
:1035A00099248A1A9B0A8091A801992787FD9095F2
:1035B00028EE33E0829FB001839F700D929F700DC3
:1035C0001124685370456A1B7B0B0BE015E0E0EE9D
:1035D000F6E050E0440F551F440F551F4E0F5F1F7C
:1035E000AA24BB24AC18BD0888E5682E82E0782E9A
:1035F0006A1A7B0A1DC0E8012881398176012C15E1
:103600003D050CF47901C701EA14FB040CF4C50173
:10361000805A964F9401281B390B620F731FB18398
:10362000A083860D971D9383828334960E5F1F4F70
:10363000E417F50701F7B183A083738362831582D2
:103640001482DF91CF911F910F91FF90EF90DF9047
:10365000CF90BF90AF909F908F907F906F90089584
:10366000EF92FF920F931F93DF93CF93CDB7DEB707
:1036700060970FB6F894DEBF0FBECDBF8091A50155
:1036800081FD03C060E074E002C060E075E080EF9F
:103690008093DA08809109048093DB081092DD089A
:1036A0001092DC0840E050E000271127061B170BA2
:1036B0007E010894E11CF11CFA01E55FFA4F0190CC
:1036C000F081E02D9B01E617F7070CF49F01F7014D
:1036D000E40FF51FC801A02F892F021713071CF450
:1036E000C901A22F892FA08381834E5F5F4F4E3087
:1036F000510511F789818093DE088A819B81292FEA
:103700002295207F8F70822B8093DF088C81829599
:10371000807F92959F70982B9093E0088D81809385
:10372000E1088E819F81292F2295207F8F70822B27
:103730008093E20888858295807F92959F70982B70
:103740009093E30889858093E4088A859B85292FD7
:103750002295207F8F70822B8093E5088C8582953F
:10376000807F92959F70982B9093E6088D8580932B
:10377000E7088E859F85292F2295207F8F70822BC9
:103780008093E80888898295807F92959F70982B16
:103790009093E90840E050E0AAEDB8E070E060E006
:1037A00004E110E03C91603111F4372F01C0730F38
:1037B000FA01EE0FFF1FE052F94F20E01183008362
:1037C00030FD03C08AE090E002C08EE190E0938378
:1037D00082832F5F3496283011F0330FEFCF405F94
:1037E0005F4F6F5F613111F01196DCCF60960FB6BD
:1037F000F894DEBF0FBECDBFCF91DF911F910F9127
:10380000FF90EF900895A091EB08B091EC08FD01B6
:103810008193919313967C936E9312973296F093C3
:10382000EC08E093EB080895882329F020E639E0BE
:1038300080E699E004C020EB34E080EB94E0A091B6
:10384000EB08B091EC08FD018193919313963C93A2
:103850002E9312973296F093EC08E093EB080895BC
:103860001F93182F82700E94141C812F81700E9458
:10387000141C1F910895CF92DF92FF920F931F9314
:10388000DF93CF9300D0CDB7DEB780919E01823019
:1038900019F0833019F404C010E003C011E001C036
:1038A00012E020910B0530910C0520503C4F220F67
:1038B000331F80910D0590910E0580509C4F880F0D
:1038C000991F892F232F37FD20E087FD80E0022FED
:1038D00020310CF00FE0F82E2FE0281714F45FE0F1
:1038E000F52E2F2D332727FD3095802F992787FD23
:1038F000909509968217930714F40F2D0950C02E46
:10390000DD24C7FCD094275F3F4F2C153D051CF4E8
:1039100047EFF42EF00E80E797E19093E106809355
:10392000E00680EB94E09093E3068093E20684EE59
:1039300096E09093EC088093EB0880E00E94301CA6
:10394000A091EB08B091EC0880E699E0FD0181932D
:10395000919320EB34E013963C932E931297DF0162
:1039600012969383828313963C932E931297149608
:10397000B093EC08A093EB08812F0E94301C1195A6
:10398000C60195958795959587958A830E94301CE9
:103990003A81131B802F0E94301C101B8F2D9927FA
:1039A00087FD9095959587959595879589830E9434
:1039B000301C8981181B8F2D0E94301C812F8F197C
:1039C0000E94301C80E00E94141CE091EB08F091F2
:1039D000EC0880E69AEE92938293329611921192BD
:1039E000F093EC08E093EB080F900F90CF91DF91EC
:1039F0001F910F91FF90DF90CF900895A091EB0859
:103A0000B091EC08882341F0FD0180E293E08193BE
:103A1000919380E496E007C0FD0180E496E08193F5
:103A2000919380E293E013969C938E931297329633
:103A3000F093EC08E093EB0808950F931F93082F81
:103A400010E0802F81700E94FE1C1F5F06951830C9
:103A5000C1F71F910F910895482F18161CF010926E
:103A600005050895282F332727FD309580910505FA
:103A7000281B3109862F90E08217930724F4461BF8
:103A800040930505089506972817390724F44A5FDF
:103A9000461B4093050508950F931F9380EE96E013
:103AA0009093EC088093EB088091ED0891E08927D2
:103AB0008093ED08882309F454C080910B05909100
:103AC0000C05885F9B4F34E0969587953A95E1F712
:103AD0008038910510F08FE790E0182F20910D05A8
:103AE00030910E0537FD0FC0C901409625E096952F
:103AF00087952A95E1F78034910510F08FE390E0E7
:103B0000082F00640FC080E190E0821B930B05E05A
:103B1000969587950A95E1F78034910510F08FE32B
:103B200090E0082F812F0E941D1D802F0E941D1DD7
:103B30000127802F90E09C0114E0359527951A9578
:103B4000E1F7B4E0880F991FBA95E1F7822B0E9444
:103B50001D1DA091EB08B091EC08FD0180E197E2FA
:103B600030C080910F059091100580509C4FA4E0CB
:103B700096958795AA95E1F78038910510F08FE723
:103B800090E0082F0068802F0E941D1D8EE80E9483
:103B90001D1D8EE8082710E0C801F4E09595879573
:103BA000FA95E1F7E4E0000F111FEA95E1F7802BA9
:103BB0000E941D1DA091EB08B091EC08FD0180EB67
:103BC00096E38193919380EA9FE013969C938E9362
:103BD00012973296F093EC08E093EB08E091EB0833
:103BE000F091EC0811921192F093EC08E093EB083D
:103BF000E05EF640EC38F1052CF08EE898E060E0ED
:103C00000E947D151F910F91089580919E0185302E
:103C100038F4823070F4882331F0813079F406C0B2
:103C2000853061F409C00E94AA1A08950E94301BD1
:103C300008950E943B1C08950E944C1D0895FF9218
:103C40000F931F93CF93DF93082F10919A01812F29
:103C5000992787FD909597FF03C0909581959F4F79
:103C6000F82E24E228170CF03FC02091FB08309179
:103C7000FC088091F9089091FA08282B392B809143
:103C8000FD089091FE08282B392B8091F80890E0D0
:103C9000282B392B8091F50890E0282B392B232BEA
:103CA00039F41092F50817FF03C081E08093F508FE
:103CB00011161CF4812F845202C0812F8C5D60E0AC
:103CC00040E00E944D10282F882361F08091F50874
:103CD000882341F490E08091F808882309F491E06A
:103CE0009093F8082093F508C091FB08D091FC0848
:103CF0002196D093FC08C093FB08E091F908F0915D
:103D0000FA08E00FF11DF093FA08E093F908F8942F
:103D100080918F0E9091900E78942091FD083091B3
:103D2000FE08821B930B8436910508F45EC12C5962
:103D30003F4F3093FE082093FD08CF01BE010E9443
:103D4000156B062F862F90E0AC014C9FC0014D9F54
:103D5000900D5C9F900D1124E81BF90BF093FA086D
:103D6000E093F9081092FC081092FB085FE05F15E1
:103D70001CF01092F80810C084E28F156CF0111638
:103D80001CF4812F8F5002C0812F815F60E040E0E2
:103D90000E944D108093F80880915406909155062A
:103DA00001969093550680935406E0915606F09143
:103DB00057063196F0935706E0935606002349F0D4
:103DC00080915A0690915B06019690935B068093D2
:103DD0005A068091F808882349F0809158069091FE
:103DE000590601969093590680935806069540917E
:103DF0005C0650915D06400F511D50935D06409347
:103E00005C0660919C0170919D01709360066093C7
:103E10005F0630919A01832F992787FD909597FF30
:103E200003C0909581959F4F882319F410925E06E8
:103E300022C0813021F4CB018E1B9F0B18C0803132
:103E400070F480FF07C0CA0144E0969587954A95B3
:103E5000E1F709C080915A0690915B0604C08091F9
:103E6000580690915906AB01481B590BCA01909313
:103E7000600680935F0680915E06813041F081305C
:103E800018F0823001F50FC03323E9F019C080919A
:103E90005F069091600618161906ACF06115710561
:103EA00091F082E00EC080915F0690916006855C83
:103EB0009F4F1CF483E080935E066115710519F431
:103EC00081E080935E0620915F06309160068091CC
:103ED000F6089091F7088217930709F470C0809153
:103EE0005E06813009F05CC080917A0182FF3CC09F
:103EF000672BD1F12E31310519F48EE00E94EF6A63
:103F000080915F0690916006449719F48FE00E94BB
:103F1000EF6A80915F06909160060A9719F480E13C
:103F20000E94EF6A80915F069091600604971CF4EE
:103F300081E10E94EF6A80917A0183FF15C0809130
:103F40005F06909160068E31910541F084319105B4
:103F500029F08A30910511F0049734F482E390E05F
:103F6000909385048093840480917A0181FF27C017
:103F700080919B0120915F063091600680FF07C011
:103F800080919C0190919D01821B930B01C0C901FE
:103F90006CE370E00E94156B892B89F481E003C00B
:103FA000823069F481E10E94EF6A80917A0183FF97
:103FB00006C082E390E0909385048093840420916E
:103FC0005F06309160063093F7082093F6088091E1
:103FD0009B0180FF0AC080919C0190919D01821BF2
:103FE000930B9093600680935F06DF91CF911F91B2
:103FF0000F91FF90089580919A01992787FD9095E0
:1040000097FF03C0909581959F4F82304CF180318E
:104010003CF5982F95958A3034F4892F0E945D6580
:10402000E82FF0E004C0E92FFF27E7FDF095319776
:10403000EE0FFF1FE952FB4F2081318180919A01E1
:1040400087FF05C080E094E0821B930B03C0C90189
:1040500080509C4F76E0969587957A95E1F702C05F
:1040600080E090E00E941F1E83E00E945D65E82FC3
:10407000F0E0EE0FFF1FEB52FB4F0190F081E02DBF
:10408000E050FC4F56E0F695E7955A95E1F78091A0
:104090009B0182FF0AC0E530F10538F0809186046B
:1040A000882319F483E0809386046091F10870916D
:1040B000F2086F5F7F4F7093F2086093F1084091B0
:1040C000EF085091F0084E0F5F1F5093F008409397
:1040D000EF08F89480918F0E9091900E7894209133
:1040E000F3083091F408821B930B885E934060F1D3
:1040F000F89480918F0E9091900E78949093F4089C
:104100008093F3081092F0081092EF081092F208D2
:104110001092F1088091DA069091DB060196909357
:10412000DB068093DA062091D906E22FF0E0EF5902
:10413000F94FCA010E94156B60832F5F2093D90647
:10414000283710F01092D90608950F931F93CF933C
:10415000DF9386E291E0EBE2F5E0DF019C011D9246
:1041600021503040E1F790915106C9EAD1E000E0DA
:1041700010E051E060E04881442309F440E1041775
:1041800050F5202F712F352F2F5F872F90E0FC01E6
:10419000EE0FFF1FE80FF91FEE0FFF1FDF01A55DF8
:1041A000BA4F11962C9311978C9181608C93E35D9B
:1041B000FA4F30833F5F14966C937F5F241720F390
:1041C000802F8095042F952F9F5F980F180F140F45
:1041D000940F592F515078817723D1F1812F90E09E
:1041E0009C01220F331F280F391FD901AA0FBB1FB3
:1041F000A55DBA4F11964C93119715966C93159730
:104200008C9182608C9313965C9313975F5F8A8581
:10421000F9013196781741F4EE0FFF1FE55DFA4F73
:10422000108214961C920AC0EE0FFF1FE55DFA4F34
:1042300050835F5F6F5F14966C936150952F6F5F33
:104240002A96603219F45093510604C01F5F93CF31
:1042500090935106DF91CF911F910F9108952F9266
:104260003F924F925F926F927F928F929F92AF9206
:10427000BF92CF92DF92EF92FF920F931F93DF9343
:10428000CF93CDB7DEB76A970FB6F894DEBF0FBEF7
:10429000CDBF998F888F6A8F80918304882309F41A
:1042A00070C080910705882319F08150809307051D
:1042B00080917901863F09F464C080918204823341
:1042C00008F45FC08091F4078F5F8093F40780311A
:1042D00058F08091F5079091F60701969093F607B4
:1042E0008093F5071092F40720916C0730916D07C9
:1042F00080916E0790916F07280F391F809170078A
:1043000090917107280F391F809172079091730760
:10431000280F391F8091F7079091F807A901481BD2
:10432000590BCA0157FF03C0909581959F4F81504B
:10433000914044F03093F8072093F7071092F60766
:104340001092F5074091F5075091F6078091790199
:10435000992787FD90950A9627E731E0BC01629F77
:10436000C001639F900D729F900D112484179507D3
:1043700040F4437050704130510519F482E10E94BD
:10438000EF6A80917801782F71707F5F7F8781FD60
:1043900003C083E08E8701C01E869090A7019920FC
:1043A00009F44BC09F85E92FF0E0EE0FFF1FE952A3
:1043B000FB4FE080F1800027F7FC0095102FAE85C1
:1043C000EA2FF0E0EE0FFF1FE952FB4F2081318111
:1043D000442737FD4095542FCA01B9010E94F66A5F
:1043E0005B016C01C801B701A80197010E94F66A40
:1043F000A60EB71EC81ED91E692D70E080E090E0A1
:104400000AE0660F771F881F991F0A95D1F724E6E7
:1044100030E040E050E00E945E6BB901CA010E94AA
:10442000F66A6A157B058C059D0538F4C601B50151
:104430000E94FE199A8B898B02C01A8A198AE9890F
:10444000FA89BF0180E090E024E630E040E050E0EF
:104450000E94F66A6C8B7D8B8E8B9F8B15E3612E91
:1044600011E0712EB5E44B2EB3E05B2E1B8ACC24F9
:10447000DD2488249924FA8D2F2E332421E0222252
:104480003324BC2C8C2D0E940A0E9C01D3018D91EB
:104490009C911197281B390B121613062CF45C966D
:1044A000ED91FC915D9705C0D3011E96ED91FC91B5
:1044B0001F97E436F10514F4E4E6F0E0B90188272B
:1044C00077FD8095982FAAE0660F771F881F991FA8
:1044D000AA95D1F79F01442737FD4095542F0E949C
:1044E0005E6B7901BCEF21303B0724F4E12CFCEF3B
:1044F000FF2E07C0E4E020303E071CF0E12CE4E092
:10450000FE2EF401E952FB4FF182E082C7010F96C3
:104510004F97F0F4F4E0CF16D1047CF48B2D8F5F2D
:104520000E945D6590E0019721E030E002C0220F1B
:10453000331F8A95E2F7C90108C081E090E00C2C96
:1045400002C0880F991F0A94E2F73B89382B3B8BF6
:1045500043E04B1508F478C1222009F05BC080913C
:104560009B0181FF57C08601000F111F02591E4F8A
:10457000D80111968C911197807C09F44BC08C91D5
:1045800085958595859561E040E00E944D108823D2
:1045900009F440C0D801EC91E770F0E0EE0FFF1F86
:1045A000DF01AA59BE4FE657FB4F808191812D91C3
:1045B0003C91821B930B62E070E00E94296BF60134
:1045C000EE0FFF1FE159FE4F4081842F880F880FA7
:1045D00085958595992787FD9095FC016E9FC00173
:1045E0006F9F900D7E9F900D11246FE170E00E94EF
:1045F000296BCB01880F991F880F991F429546950B
:1046000046954370413021F0423021F47C0102C0D4
:10461000E80EF91E29893A89232B01F13F85B3164B
:1046200019F04E85B416D1F46091A70170E080E0D6
:1046300090E00AE0660F771F881F991F0A95D1F74F
:104640009701442737FD4095542F0E94F66A2C8924
:104650003D894E895F890E945E6B7901D2018C9100
:1046600060E040E00E944D10882311F400E00BC090
:10467000F201818160E040E00E944D10882311F03A
:1046800002E001C001E08091780190E081709070BB
:1046900012E0A12EB12CA81AB90AAC14BD0461F520
:1046A0008091A001807F41F1C70180509C4F62E062
:1046B00070E00E94296BCB01E02FF0E0EE0FFF1FAE
:1046C000EE0FFF1FA601440F551F9A0173E0220F42
:1046D000331F7A95E1F7241B350BE20FF31FE75CDC
:1046E000FC4F6081772767FD70950E94A019DC015F
:1046F000AA0FBB1F10E026C010E01E141F040CF010
:1047000011E0802F90E09601220F331FF90143E062
:10471000EE0FFF1F4A95E1F7E21BF30B880F991F7D
:10472000880F991FE80FF91FE157FE4FE10FF11DA8
:10473000E655FE4F6081772767FD7095C7010E949F
:10474000A019DC01E02FF0E0EE0FFF1FEE0FFF1FBE
:104750009601220F331FC90103E0880F991F0A95A4
:10476000E1F7821B930BE80FF91FE157FE4FE10FB2
:10477000F11DE455FE4F6081772767FD70956C59F8
:104780007F4F882777FD8095982F9D01442737FD1F
:104790004095542F0E94F66A24E630E040E050E055
:1047A0000E945E6B7901AC14BD04B9F59091A00133
:1047B000892F807F09F4B6C620E03CEFE20EF31E9D
:1047C000B1C660E074E06E197F09882777FD809597
:1047D000982FF501EE0FFF1FE050FF4F0190F08181
:1047E000E02D2081332727FD3095432F532F235869
:1047F0003F4F4F4F5F4F0E94F66A20E038E040E0A5
:1048000050E00E945E6BC901DA01803038E0930706
:1048100030E0A30730E0B30761F4F401E050FF4F4C
:104820000190F081E02D8081282F332727FD3095DE
:1048300001C09C01220F331FE1E0F0E0EC0FFD1FEF
:10484000E80DF91D31832083F401E459F84FF1821A
:10485000E0820894C11CD11C42E050E0640E751E39
:10486000840E951E6EE070E0460E571E77E0C71668
:10487000D10409F006CE1091A4018B891823212FB1
:1048800030E08091F90790E08227932782239323D9
:10489000892B19F08AE00E94EF6A1093F90780E0F3
:1048A00094E090937B0780937A0790937D078093A1
:1048B0007C07F4E82F2EF7E03F2EB10140E050E0F6
:1048C000FA01E657FB4FDA01AC5CBE4F8081918163
:1048D000D2962D913C91D397821B930B880F991FF1
:1048E000DB018D939D93BD014E5F5F4F48305105B5
:1048F00039F78091920490919304880F991F9093B7
:104900008D0780938C078091940490919504880F73
:10491000991F90938F0780938E07809196049091B2
:104920009704880F991F9093910780939007809127
:10493000980490919904880F991F909393078093FE
:104940009207E4EBF7E0FA87E987A4E9B7E0808112
:1049500091818D939D93349627E0E43FF207B9F758
:104960005090A701552009F489C03F85832E9924D2
:10497000880C991C4CE657E0840E951ED401ED90EE
:10498000FC900027F7FC0095102FBE856B2E772436
:10499000660C771C640E751EF3012081318144275B
:1049A00037FD4095542FCA01B9010E94F66A5B0198
:1049B0006C01C801B701A80197010E94F66AA60E12
:1049C000B71EC81ED91E652D70E080E090E01AE089
:1049D000660F771F881F991F1A95D1F724E630E0DC
:1049E00040E050E00E945E6BB901CA010E94F66A85
:1049F0006A157B058C059D0508F040C0C601B50110
:104A00000E94FE19E090A701FF2400E010E0BAE048
:104A1000EE0CFF1C001F111FBA95D1F7A0E0B0E00B
:104A2000BC01CD0124E630E040E050E00E94F66A8F
:104A30005B016C01D4012D913C91442737FD4095D9
:104A4000542FC801B7010E94F66AA60195010E9481
:104A50005E6BF40131832083D3012D913C91442777
:104A600037FD4095542FC801B7010E94F66AA60190
:104A700095010E945E6BF30131832083B090A50104
:104A80008B2D807E09F4E3C02F85E22FF0E0EE0F3E
:104A9000FF1FDF01A459B84F6D917C91DE01119683
:104AA000EA0FFB1F408151813E85832F90E0880FE4
:104AB000991FFC01E459F84F0190F081E02DA80FF7
:104AC000B91F2D913C918A8D81FF05C0CC24DD2436
:104AD000EE24FF2406C06A01C60ED71E7901EE0E31
:104AE000FF1EE091A601EE2319F400E010E007C0DC
:104AF000F0E0EE0FFF1FE659F84F00811181B2FE82
:104B000004C0D094C194D108D394B3FE04C0F094EF
:104B1000E194F108F394B4FE03C0109501951F4F82
:104B20008091A501829586958770823079F18330D6
:104B300020F4813009F08BC007C0833009F45BC0DA
:104B4000843009F084C06FC0C70160E072E00E9449
:104B5000296BFB01C70168E070E00E94296B9B0193
:104B6000C70160E870E00E94296BD701A21BB30B5C
:104B70009D01261B370B2E1B3F0BC8018C199D096D
:104B800090937F0780937E07C60121C0C60160E035
:104B900072E00E94296BFB01C60168E070E00E9490
:104BA000296B9B01C60160E870E00E94296BA60199
:104BB000421B530B9A01261B370B2E1B3F0BC801C0
:104BC0008E199F0990937F0780937E07C70162E04B
:104BD00070E00E94296B600F711FCB01820F931F41
:104BE0009093810780938007621B730B70938307F8
:104BF000609382072CC0C8018C199D0990937F0790
:104C000080937E07C8018C0D9D1D9C012E0D3F1DBC
:104C100030938107209380078E199F099093830713
:104C20008093820714C0C8018C199D0990937F0757
:104C300080937E07C8018E0D9F1D909381078093FE
:104C400080070E191F091093830700938207809134
:104C50008304882311F00E94FB1F80E4E4EBF7E05B
:104C6000DF011D928A95E9F7BA8DB1FF28C0ACE645
:104C7000B7E0FE01319620E030E042E050E0809164
:104C8000780190E081709070BA01681B790B62170F
:104C9000730729F011961C921E92118210822F5FC9
:104CA0003F4F129632962430310549F7D1011D92BB
:104CB0001D921D01BCE82B16B7E03B06B9F781E752
:104CC00093E090930101809300010196909303017A
:104CD000809302010196909305018093040101964F
:104CE00090930701809306015AEB252E58E0352E4C
:104CF0004AE3642E48E0742E3AEF432E37E0532EF9
:104D0000188A1D868D850E94A10D5C01FC018081A1
:104D10008150803108F0BAC2838161E040E00E9496
:104D20004D10D1019C918823B9F4192F1C92F501E3
:104D30009181892F8850823008F097C287818E70C8
:104D4000843009F492C2993019F0CC24DD244FC08C
:104D5000C12C2CEFD22E4BC010E0992309F411E0A6
:104D600081E0D1018C93F5013181832F8150A82FEF
:104D7000B0E0FD01EE0FFF1FE459F84FC080D18075
:104D8000843158F0FD858F1740F4AA0FBB1FAA0F7E
:104D9000BB1FAC54B84FCD90DC90D50117962C9129
:104DA000822F807381F0822F8295837090E001972B
:104DB000E1E0F0E002C0EE0FFF1F8A95E2F7CF01BD
:104DC000F889F82BF88B26FF12C0353080F4E32FDA
:104DD000F0E0EE0FFF1FE250FF4F28E030E0A20EA0
:104DE000B31EB182A08248EF5FEFA40EB51ED501BD
:104DF00017968C91179786FD08C018968C9188237A
:104E000021F00E942319C80ED91EF501868188233E
:104E100021F48581882309F443C1D3016D917D91EB
:104E20008D919C91112389F420E031E040E050E025
:104E30000E945E6B50954095309521953F4F4F4FA6
:104E40005F4F4601820E931E5AC0F50187818E7016
:104E5000843049F5E081F0E0EE0FFF1FEE56F84F89
:104E600060817181882777FD8095982F20E034E656
:104E700040E050E00E94F66AD3016D937D938D93DC
:104E80009C931397F5012281222369F0332727FD94
:104E90003095432F532F0E945E6BD3012D933D938A
:104EA0004D935C931397F3016081718182819381AB
:104EB00020E031E040E050E00E945E6B509540956C
:104EC000309521953F4F4F4F5F4F4601820E931E05
:104ED00081149104A1F0D50115968C9197FE8295CD
:104EE0008F7090E0FC0124E630E0E29FC001E39F78
:104EF000900DF29F900D1124D2018D939C93F2019D
:104F0000208131812115310551F08091830488235E
:104F100009F4BAC02150304031832083B5C08114D8
:104F2000910409F4BDC0F5018681882309F4B8C055
:104F300080918304882309F475C02281222329F4F7
:104F400060E070E080E293E017C0332727FD3095E2
:104F500037FF03C0309521953F4F332727FD30950C
:104F6000432F532F60E070E080E293E00E945E6B7D
:104F7000C901DA01BC01CD01D50116962C91181496
:104F800019040CF52F70422F50E041155105D9F14D
:104F9000E4E6F0E04E9F90014F9F300D5E9F300D94
:104FA0001124442737FD4095542F0E945E6B7901F0
:104FB0008A01F30180819181A281B381E80EF91EFB
:104FC0000A1F1B1F29C022952F70422F50E0411548
:104FD0005105C9F0A4E6B0E04A9F90014B9F300D07
:104FE0005A9F300D1124442737FD4095542F0E94BD
:104FF0005E6BF301E080F18002811381E21AF30A13
:10500000040B150B09C0C601AA2797FDA095BA2F5E
:10501000EE24F82E092F1A2FD301ED92FD920D9355
:105020001C931397F30160817181828193817601D2
:105030000027F7FC0095102F1814190464F420E0E1
:1050400031E040E050E00E945E6BE216F306040798
:10505000150764F019C020E031E040E050E00E9404
:105060005E6B2E153F054007510774F4C601AA2751
:1050700097FDA095BA2FBA2FA92F982F8827F30153
:1050800080839183A283B383D3016D917D918D91B0
:105090009C9120E031E040E050E00E945E6B6901AD
:1050A000F5016481633071F1643028F4613051F0AE
:1050B0006230A8F448C0653081F1653050F1663047
:1050C000B1F52EC0D50111968C91893029F4D7FC09
:1050D0002AC0E0E0FEEF0DC0D7FE35C02EC0D501DE
:1050E00011968C91893051F41C141D044CF1E0E0B0
:1050F000F2E0CE0EDF1ECC0CDD1C25C01C141D04FE
:10510000E4F021C0D7FE1FC0D094C194D108D3943D
:105110001AC01C141D04A4F010C0D7FE0EC003C09A
:105120001C141D046CF0C12C5CEFD52E0CC0675014
:10513000C6010E94361A6C0106C0CC24DD2403C0CF
:10514000C12C44E0D42ED50117968C91179780FD81
:1051500014C01196EC91EE2381F0E53070F4F0E08C
:105160003197EE0FFF1F21E030E02C0F3D1FE20FC3
:10517000F31F80819181C80ED91EB601882777FD63
:105180008095982FD50112962C91332727FD3095C5
:10519000432F532F0E94F66A6B017C01F501278192
:1051A00026952770213089F08081223009F049C08E
:1051B000E82FF0E0EE0FFF1FEE0FFF1FE055F84F56
:1051C000C082D182E282F38250C0D5012C91022F9D
:1051D00010E0000F111F000F111F0055184FC701DD
:1051E000B60124E630E040E050E00E945E6BCA0168
:1051F000B901F80120813181428153810E94F66A10
:10520000D8016D937D938D939C931397F5016081E5
:10521000062F10E0000F111F000F111F0055184F2F
:10522000D8016D917D918D919C9120E034E040E01A
:1052300050E00E945E6BF8012083318342835383E8
:1052400014C0E82FF0E0EE0FFF1FEE0FFF1FE05538
:10525000F84F80819181A281B3818C0D9D1DAE1D7F
:10526000BF1D80839183A283B383FD85FF5FFD878C
:105270000894211C311C24E030E0620E731E42E0D1
:1052800050E0440E551EF03209F03CCDF8940091E8
:105290008F0E1091900E7894F888F0FE05C00023D0
:1052A00019F48BE00E94EF6AF1FE0BC0C801907008
:1052B0008034910519F08834910519F48CE00E942E
:1052C000EF6AF2FE0EC0C80190708038910531F08F
:1052D0008838910519F08039910519F48DE00E9404
:1052E000EF6A19EE412E12E0512E6CE074E07C87DB
:1052F0006B8722243324A985BA85AD90BD90CD90CB
:10530000DC90C601B50124E630E040E050E00E94A8
:105310005E6BE985FA852083318342835383F101F3
:10532000EB51FB4FC90120839183D20113962D913C
:105330003C91149711968C91BAE08B024001112494
:10534000E8EEF3E08E0E9F1ED2018C91BAE08B0244
:1053500030011124E8E1FCEF6E0E7F1EC401582DD0
:10536000492F281539051CF4C901522F492F852FC3
:10537000942F8C01061517050CF48301A114B104B8
:10538000C104D10469F19801442737FD4095542F99
:105390001A141B041C041D0454F4B401882777FD5F
:1053A0008095982F621B730B840B950B0BC0C30168
:1053B000AA2797FDA095BA2F281B390B4A0B5B0B28
:1053C000CA01B901A60195010E94F66A20EA36E8F1
:1053D00041E050E00E945E6BC901DA015C016D01A1
:1053E000C801B5E095958795BA95E1F7800F911FB3
:1053F0009801232F330F330B2595820F931F000F36
:10540000012F001F110B801B910B7C010027F7FC63
:105410000095102FC401E5E095958795EA95E1F791
:10542000880D991D930175E0359527957A95E1F7DB
:10543000F301EE0FEF2FEE1FFF0B260D371D880C2B
:10544000892C881C990888199909959487949594B2
:105450008794880D991DAC01662757FD6095762FBE
:10546000EA0CFB1C0C1D1D1D4E155F056007710726
:1054700014F47A018B012E1B3F0BF595E795F595FA
:10548000E7952E0F3F1FC901AA2797FDA095BA2FB8
:10549000E816F9060A071B0714F47C018D01D201F6
:1054A00012968C91882341F010950095F094E09429
:1054B000E11CF11C011D111DEB85FC8580818823F9
:1054C00089F060E040E00E944D10882359F0AB85E0
:1054D000BC8511968C910E9423197C010027F7FC52
:1054E0000095102FF894E88DF98DE20DF31DF182EF
:1054F000E0827894E985FA853496FA87E98722E094
:1055000030E0220E331E45E050E0440E551E6B8500
:105510007C856E5F7F4F7C876B87E45FF74009F087
:10552000EACE04C09F7009F04CC977C96A960FB6DD
:10553000F894DEBF0FBECDBFCF91DF911F910F91C9
:10554000FF90EF90DF90CF90BF90AF909F908F90A3
:105550007F906F905F904F903F902F9008950E94A2
:105560003B19803210F480E0089585EE90E30E94AC
:10557000C61581E00895EF92FF920F931F93DF937A
:10558000CF93CDB7DEB7C054D0400FB6F894DEBF8E
:105590000FBECDBF7E010894E11CF11CC70163E082
:1055A0000E942F218E010F5D1F4FC80161E00E94F4
:1055B0002F21EBEEF2E0B7017801018112818081A9
:1055C000DB014D915C91D7012D913C91882321F015
:1055D000CA01821B930B03C0C901841B950B800F6A
:1055E000911FB3E0883E9B071CF088EE93E006C055
:1055F0002CEF8931920714F488E19CEF9283818328
:1056000035966E5F7F4F82E090E0E80EF91E93E0E2
:10561000EB33F90791F68091780190E081709070FA
:1056200022E030E0281B390B16AA2130310511F099
:10563000109272032230310511F010927303109210
:10564000740386E00E94835882E00E94EF6AC05C87
:10565000DF4F0FB6F894DEBF0FBECDBFCF91DF9105
:105660001F910F91FF90EF9008950F93982F83E073
:10567000489FA0011124415B5F4E00E0211101E031
:10568000892F23E00E9438600F9108950F93982F7F
:1056900083E0489FA00111244A5A5F4E00E0211187
:1056A00001E0892F23E00E9438600F910895DF9276
:1056B000EF92FF920F931F93CF93DF938FE161E2FD
:1056C00047E10E942F618FE167E347E10E942B6170
:1056D00085E361E247E10E942F618FE161E247E1EA
:1056E0000E942B618BE461E247E10E942F618BE411
:1056F00067E347E10E942B6181E661E247E10E9496
:105700002F618BE461E247E10E942B618AE26BE248
:1057100043E00E942F6189E26CE243E00E942B612A
:1057200086E56BE243E00E942F6185E56CE243E091
:105730000E942B618091D7049091D804880F991F03
:105740009C0143E0220F331F4A95E1F7820F931F1C
:1057500060E078E00E94296BD62E8091D904909168
:10576000DA04880F991F9C0113E0220F331F1A954A
:10577000E1F7820F931F60E078E00E94296B8B01B4
:10578000109501951F4FB8E2FB2EFD0CAAE2EA2E00
:10579000E00E8F2D6E2D45E00E942F61025D8F2D52
:1057A000602F45E00E942B618D2D845D6E2D45E0BC
:1057B0000E942F618F2D6E2D45E00E942B618091FC
:1057C000DD049091DE04880F991F9C01E3E0220F15
:1057D000331FEA95E1F7820F931F60E078E00E94A3
:1057E000296BD62E8091DB049091DC04880F991FE1
:1057F0009C0163E0220F331F6A95E1F7820F931F2C
:1058000060E078E00E94296B8B01109501951F4F95
:1058100054E5F52EFD0C4AE2E42EE00E8F2D6E2DA0
:1058200045E00E942F61025D8F2D602F45E00E94B0
:105830002B618D2D885A6E2D45E00E942F618F2D92
:105840006E2D45E00E942B61CFEDD4E03AE3F32EBC
:1058500028E3E22E69917991882777FD8095982F2A
:1058600026E130E040E050E00E94F66A6050784A5D
:105870008F4F9F4F20E038E040E050E00E945E6B89
:10588000122F1F5F0E2D011B8F2D602F412F0E94A5
:105890002F618F2D8F5F602F412F0E942F618F2DE1
:1058A0008E5F602F412F0E942F6185E0F80E89E402
:1058B000F81681F6DF91CF911F910F91FF90EF9035
:1058C000DF900895FF920F931F93F82E162F042F49
:1058D00080E860E0412F50E0202F0E94C5621A301E
:1058E00010F485E701C08FE660E04FE2202F0E94B0
:1058F0007D5F1A3010F485E701C08FE64F2D50E030
:105900004F5F5F4F60E0202F0E94C5621F910F9193
:10591000FF9008954F925F926F927F928F929F9225
:10592000AF92BF92CF92DF92EF92FF920F931F93AD
:10593000DF93CF930F92CDB7DEB7F09076019FE063
:10594000F922813809F47AC0823890F4833209F45C
:105950003FC0843230F48032E1F0823209F090C0EE
:1059600046C0813609F45EC0803809F089C01CC089
:10597000843801F1853838F4823809F44DC0833811
:1059800009F07EC043C08538E9F08F3B09F078C04C
:105990006BC0A5E0FA1609F073C08091860491E00F
:1059A0008927809386045EC00E94EE0D0E94C61572
:1059B00080E805C087E29DE30E94C61584E80E9446
:1059C0006E645EC08DEC94E30E94C61585E8F7CF47
:1059D0008F2D8F5F80937601863010F010927601C4
:1059E00081E00E94835885E00E94EF6A49C0FF2051
:1059F00029F0FA94F0927601F39403C085E0809345
:105A0000760181E00E94835886E0EECF86E79FE230
:105A10000E94750F83E8D3CF80E290E30E94750F58
:105A200082E8CDCF80915E06823021F483E08093BE
:105A30005E0618C0B5E0FB1619F512C010925E069E
:105A4000109257061092560610925B0610925A0654
:105A5000109259061092580610925D0610925C063C
:105A60000E94010E89E0C0CF81E00E946E6483E055
:105A70000E946E6482E00E946E6481E08093EE0872
:105A80008091A30160E040E00E944D10882331F036
:105A90008091EE08882311F40E94BB2A8091A30113
:105AA00060E040E00E944D108093EE088091760106
:105AB000803108F0D8C090918204809163019817DA
:105AC00010F004E001C006E06FE8C62E61E0D62EBB
:105AD0001AE0812F60E0F60141916F0124E00E94FD
