:100000000C9439060C9456060C9456060C9456061D
:100010000C9456060C9456060C9456060C945606F0
:100020000C9456060C9456060C9456060C945606E0
:100030000C94B9070C9456060C9456060C943B0885
:100040000C9400070C9456060C94B1570C94560669
:100050000C9456060C9456060C9456060C945606B0
:100060000C9456060C941F070C9456060C945606D6
:100070000C9456060C9456060C9456060C94560690
:100080000C9456060C9456060C9456065255442071
:10009000454C45205448522041494C20525544205B
:1000A00054485220454C452041494C2041494C2060
:1000B000454C4520544852205255442041494C203B
:1000C00054485220454C452052554420000301021B
:1000D000000405060700000000000001081E64017E
:1000E00001081E6401010F32960A0A1E32966D65E0
:1000F0006E75537461636B206F766572666C6F7793
:10010000006D656E75537461636B20756E64657206
:10011000666C6F7700707265737320616E79204B27
:10012000657900414C45525400506C6561736520FF
:100130007265736574207468656D005377697463C4
:10014000686573206E6F74206F666600414C45527F
:100150005400416C61726D732044697361626C6517
:100160006400544852206E6F742069646C650045C9
:100170004550524F4D206C6F77206D656D004F4696
:1001800046414253525573525525454C73454C25B3
:10019000544873544825414C73414C2550312050EC
:1001A0003125503220503225503320503325005411
:1001B0004852525544454C454944304944314944DC
:1001C0003241494C47454154524E535731535732AF
:1001D000535733535734535735535736004F4646CA
:1001E000004F4E20002D2D2D002D2D2D2043483168
:1001F0002043483220434833204348342043483585
:100200002043483620434837204348382043483964
:10021000204348313043483131434831324348313B
:10022000334348313443483135434831364348310C
:1002300037434831384348313943483230434832F4
:1002400031434832324348323343483234434832F0
:1002500035434832364348323743483238434832D0
:100260003943483330005031202050322020503361
:1002700020204D41582046554C4C50504D31505047
:100280004D3250504D3350504D3450504D355050EC
:100290004D3650504D3750504D384348312043482B
:1002A00032204348332043483420434835204348D4
:1002B00036204348372043483820434839204348B4
:1002C0003130434831314348313243483133434878
:1002D0003134434831354348313643483137434858
:1002E000313843483139434832304348323143484A
:1002F000323243483233434832344348323543483C
:10030000323643483237434832384348323943481B
:100310003330002D2D2D2D00564552533A205631A5
:100320002E333330362D6572657A00444154453A98
:100330002032362E31302E323031300054494D4586
:100340003A2031383A30363A3333002053564E3A59
:10035000207472756E6B2D723233360012081200E3
:10036000081C0808081C0800000822004900220890
:100370000000000000227F22000000082200490047
:100380002208000008220049002208000000227F05
:100390002200000000000822004900220800000896
:1003A0001C0808081C08009A36B428DF2CE2441FF9
:1003B0003EB337102FF246B33046333A282E345F1F
:1003C00034EE345F3570756C736520746162206F34
:1003D000766572666C6F7700544852525544454CAE
:1003E0004549443049443149443241494C474541EB
:1003F00054524E5357315357325357335357345344
:10040000573553573600544852525544454C454988
:10041000443049443149443241494C4745415452A2
:100420004E5357315357325357335357345357352D
:100430005357360020202054546D0045787045787D
:1004400046466E654D656443727300544F540053C5
:1004500054250053544B0054535700544D450053FA
:10046000544154004A45544900746D61696E20201E
:1004700020202020202020206D7300746D723120F8
:100480004A697474657220202020757300746D723F
:10049000314C6174206D696E2020202075730074CA
:1004A0006D72314C6174206D61782020202075734D
:1004B000005354415432004D6F6465004F4646006E
:1004C0007320004C69676874204F4646206166744B
:1004D0006572004C69676874205357004F46462088
:1004E0004F4E00466C617368204F6E204265657008
:1004F000004F4646204F4E004265657020436F75A1
:100500006E74646F776E004F4646204F4E004D6903
:100510006E7574652042656570004F4646204F4EEB
:10052000005468726F74746C65205265760053498C
:100530004E474F534D5046494C540046696C7465C4
:100540007220414443006D20496E6163746976698D
:10055000747920416C726D005620424154205761DD
:10056000726E696E6700436F6E74726173740053CC
:1005700045545550004F4646004F4E004F464600EA
:100580004F4E00544852205761726E20205357201E
:10059000205761726E20204D454D205761726E20AC
:1005A00020414C41524D205761726E426565706525
:1005B0007220202020005345545550204F50545352
:1005C0000043616C0050504D494E000104564552A5
:1005D00053494F4E005472696D2D202B00204D65FC
:1005E0006E75204578697420446F776E2020205501
:1005F000705269676874204C6566740044494147CD
:100600000041314132413341344135413641374176
:100610003800414E41003C202020203E00536574AC
:100620004D6964205365745370616E446F6E65202C
:1006300020200043414C494200312F38006672654A
:1006400065004D4F44454C53454C0044454C455482
:1006500045204D4F44454C2020205B4D454E555D77
:1006600000504F534E4547005368696674205365E8
:100670006C00755365630034434820364348203886
:1006800043482031304348313243483134434831C4
:100690003643480050504D20202053494C565F416E
:1006A00053494C565F4253494C565F435452414361
:1006B00030390050726F746F0052455441313233FB
:1006C000004265657020436E74005472696D20535A
:1006D0007700457870202020457846696E65466928
:1006E0006E6520204D656469756D436F6172736539
:1006F000005472696D20496E63004F46464F4E208C
:1007000000542D4578706F004F46464F4E200054E0
:100710002D5472696D00436F756E7420446F776E4F
:10072000436F756E7420557020200054696D65729A
:100730002000547269676765720054696D657200C4
:100740004E616D650053455455502000010A020169
:100750000101010101070301015B4D454E555D207B
:10076000205B455849545D005945532020202020E6
:100770004E4F0044454C455445204D4F44454C0098
:10078000204142434445464748494A4B4C4D4E4F11
:10079000505152535455565758595A3031323334B8
:1007A00035363738395F2D2E0065787020202520AA
:1007B0002073773120737732004558504F2F4452C1
:1007C00000050444522048696768004452204C6F79
:1007D00077004452204D69640044725377320044DC
:1007E0007253773100576569676874004578706F98
:1007F000004558504F2F445220002D2D2D783E306B
:10080000783C307C787C663E30663C307C667C632D
:100810003120633220633320633420633520633614
:1008200020633720633820633920633130633131EE
:1008300063313263313363313463313563313600D0
:100840002B2A520077742073726320207377206301
:100850007276004D495845520044454C4554452058
:100860004D4958205B4D454E555D00536C6F7720C8
:1008700020557000536C6F772020446F776E0044D2
:10088000656C61792055700044656C617920446F16
:10089000776E0041646420202020204D756C7469BF
:1008A000706C795265706C61636520004D756C7475
:1008B0007078004F4646005761726E696E6700534C
:1008C0007769746368002D2D2D783E30783C307C3C
:1008D000787C663E30663C307C667C6331206332D7
:1008E0002063332063342063352063362063372050
:1008F00063382063392063313063313163313263CF
:100900003133633134633135633136004375727688
:100910006573004F4E204F4646005472696D004F7C
:1009200066667365740057656967687400536F7510
:100930007263650045444954204D49582000494E92
:1009400053455254204D495820002D2D2D2D202047
:1009500020763E6F66732020763C6F667320207C85
:10096000767C3E6F66737C767C3C6F6673414E444A
:10097000202020204F522020202020584F5220207D
:1009800020200046756E6374696F6E2056312020FA
:1009900056320043535749544348000303434C45E0
:1009A0004152204D49584553205B4D454E555D0001
:1009B0002052455441002052455441002052455494
:1009C00041002052455441004368616E6E656C20C1
:1009D0004F726465720054454D504C41544553006C
:1009E000434F5059205452494D205B4D454E555D63
:1009F000002D2D2D494E560073756254206D696E81
:100A000020206D617820696E76004C494D49545321
:100A10000001044356004355525645005052455379
:100A2000455400454449542D3E00435552564520F7
:100A3000000A0101010101010101010101454550C7
:100A4000524F4D206F766572666C6F77004545504A
:100A5000524F4D206F766572666C6F770067656EDA
:100A60007772697465206572726F720042616420EA
:100A7000454570726F6D2044617461004D4F44456F
:100A80004C202020202000500850000000000000D2
:100A9000005E00000008060806287E287E28042A3A
:100AA0007E2A104C2C106864344A562050000000F6
:100AB00008060000182442000042241814083E08CA
:100AC0001408083E08080000B07000000808080874
:100AD00000006060000060180600003C42423C00DC
:100AE00000447E40004462524C00424A4A3400189E
:100AF000147A10002E4A4A32003C4A4A30000272F0
:100B00000A0600344A4A34000C52523C00006C6C15
:100B1000000000A868000000081422001414141437
:100B200000002214080004520A043C425A5A1C00D5
:100B30007C12127C007E4A4A34003C424224007EF1
:100B400042423C007E4A4A42007E0A0A02003C427F
:100B50005234007E10107E00427E42000020404051
:100B60003E007E182442007E4040407E0408047E01
:100B7000007E08107E003C42423C007E12120C00B7
:100B80003C42225C007E12324C00244A5224020273
:100B90007E0202003E40403E1E2040201E7E201865
:100BA000207E422418244202047804020062524A41
:100BB00046007E42420000061860000042427E006D
:100BC00008040204084040404040000006080000BD
:100BD00030484878007E4848300030484848003067
:100BE00048487E00784858580008FE0A080010A8B7
:100BF000A878007E08087000487A4000008088FAD3
:100C000000007E10284000427E4000780870087086
:100C10000078080870003048483000F82828100094
:100C2000102828F800781008080050586828000894
:100C30007E4848003840407818204020183840301E
:100C4000403800483030480098A0A07800486858E4
:100C50004800107C440000007E00000000447C102E
:100C60001010443810103844101040800804201030
:100C7000020111241FBECFEFD0E1DEBFCDBF12E0D5
:100C8000A0E0B1E0E8EFF1EB02C005900D92A837CB
:100C9000B107D9F710E1A8E7B2E001C01D92A83072
:100CA000B107E1F70E94E50D0C94FA580C9400008E
:100CB000E0913A05F0E0EE0FFF1FEE5CFA4F808105
:100CC00091810895FC01A0913A05B0E0AA0FBB1FE5
:100CD000A05DBA4FED93FC938FEB099580913C0595
:100CE00080933B050895E82FF0E0E353FF4FE49134
:100CF000F0E0EE0FFF1FEB57FA4F8FB7F89401901B
:100D0000F081E02D87FF01C07894CF010895A5E818
:100D1000B5E0E5E9F5E060E0862F806487B9369AB2
:100D2000349BFECF349A208931898D919C91119703
:100D300096958795820F931F8E7F8D939D9340810B
:100D40005181240F351F36952795318B208B84B127
:100D500095B1840F951F96958795819391936F5FB9
:100D60006830D1F60895DF93CF93CDB7DEB76097A3
:100D70000FB6F894DEBF0FBECDBFFE01319680E105
:100D8000DF011D928A95E9F7A5E8B5E050E015C0AE
:100D900067B9369A349BFECF349A84B195B1280F47
:100DA000391F4F5F4430A1F7219331933695279532
:100DB0002D933D935F5F583031F02081318140E0C9
:100DC000652F6064E5CF60960FB6F894DEBF0FBE66
:100DD000CDBFCF91DF910895E5E8F5E020E0822FC7
:100DE000806487B9369A349BFECF349A84B195B12A
:100DF000880F991F819391932F5F283081F7089571
:100E00001F920F920FB60F9211248F9380917E053F
:100E10008F5F80937E058F910F900FBE0F901F9074
:100E2000189540917E0522B780917E054817C9F735
:100E3000942F80E030E0282B392BC9010895789455
:100E40001F920F920FB60F9211242F934F935F931F
:100E50006F937F938F939F93EF93FF9340918000C5
:100E600050918100F89480917D008F7D80937D006A
:100E7000789420916A052F5F2F7080916B05281759
:100E800089F4E0916A05F0E03F96EF70F070EE0FA4
:100E9000FF1FE65BFA4F118210828091400580931C
:100EA0003B0513C0E0916A05F0E0809182059091C6
:100EB0008305BA01681B790BCB01EE0FFF1FE65BC0
:100EC000FA4F9183808320936A0550938305409362
:100ED0008205F89480917D00806280937D007894F3
:100EE000FF91EF919F918F917F916F915F914F91C2
:100EF0002F910F900FBE0F901F90189540917C0579
:100F00002FC0E0916B05F0E0EE0FFF1FE65BFA4F9C
:100F1000208131813695279580916B058F5F8F7089
:100F200080936B05842F81508830A0F4C9018152D1
:100F300093408757954010F040E012C0E42FF0E056
:100F4000EE0FFF1FE659FA4F2C5D354031832083A9
:100F50004F5F06C0215A3F402F5D3E4208F441E0FA
:100F600090916B0580916A05981759F640937C051E
:100F700008951F920F920FB60F9211242F933F9353
:100F80004F935F936F937F938F939F93AF93BF9391
:100F9000EF93FF9390E08CB58A3008F064C09F5FB8
:100FA000923309F460C0F7CFC09A1092C50504C00F
:100FB000C09881E08093C5058091CC079091CD07C2
:100FC0009C012417350708F49A013093CD0720932C
:100FD000CC0780910801909109019C0142175307A9
:100FE00008F49A013093090120930801A0910601A9
:100FF000B0910701FD01819191919BBD8ABDF09354
:101000000701E093060112968D919C911397892B0D
:10101000A1F480ED97E09093070180930601809101
:10102000DA028093C50587B78F7E87BF78940E94C8
:101030004D13F89487B7806187BF80917D058160EB
:1010400080937D05FF91EF91BF91AF919F918F911B
:101050007F916F915F914F913F912F910F900FBEB4
:101060000F901F9018954CB55DB58091C5058823EC
:1010700009F09ACF9DCF78941F920F920FB60F92DE
:1010800011242F933F934F935F936F937F938F938D
:101090009F93AF93BF93EF93FF93F89487B78D7FA0
:1010A00087BF789481B7845681BF90913B0599237F
:1010B00069F080918005882329F49093800581E070
:1010C00080938105915090933B0520C020917F052E
:1010D0002223B1F090E080918105882309F491E00A
:1010E00090938105992311F488E002C080918005D6
:1010F00080933B05992351F0215020937F0506C032
:10110000109280051092810510922F058091810523
:10111000882381F080912F05882311F490E004C08A
:101120009091840581E0982790938405992311F488
:101130001B9A01C01B980E94C05280917D0582605D
:1011400080937D05F89487B7826087BF7894FF917C
:10115000EF91BF91AF919F918F917F916F915F912F
:101160004F913F912F910F900FBE0F901F901895A8
:101170000F931F93782F772309F404C1703109F47A
:10118000FEC0703F09F4FDC0272F332727FD30959F
:10119000C90137FF04C088279927821B930B8A3027
:1011A0008CF417164CF08DE090E0821B930B0E949C
:1011B000175261E06827E6C0C9010D960E941752D8
:1011C000682FE0C0482F552747FD50954A505040A2
:1011D000FA01EE0FFF1FE40FF51FEC53FD4FE85A25
:1011E000FD4F6081E855F240DF01AA5ABD4F6530DE
:1011F00008F09CC0EC91E150E83040F4F0E0EE0FD4
:10120000FF1FE553FA4F208131811DC0EA3018F4E9
:1012100020E034E018C0AE2FB0E0E13170F4AA0F46
:10122000BB1FFD01E856FD4FA65ABA4F2D913C91C8
:1012300080819181281B390B06C0AA0FBB1FA954BE
:10124000BA4F2D913C91FA01EE0FFF1FE40FF51FED
:10125000E55EFA4FE0818E2FE7FD8D5F85958595E0
:10126000482F552747FD50958AE0E802C001112418
:10127000480F591F6230D1F0633020F4613009F01B
:1012800080C006C0633001F1643009F07AC036C016
:10129000171634F460E0421753070CF073C06FC0A8
:1012A00060E0421753070CF46DC069C0171634F4A0
:1012B00060E0241735070CF065C061C060E02417BA
:1012C00035070CF45FC05BC0171664F460E0F901E9
:1012D00037FF03C0F095E195FF4F4E175F070CF005
:1012E00051C04DC060E0F90137FF03C0F095E195B2
:1012F000FF4F4E175F070CF445C041C017165CF452
:1013000060E0F90137FF03C0F095E195FF4FE41766
:10131000F507C4F534C060E0F90137FF03C0F0956C
:10132000E195FF4FE417F5076CF129C08C91E95A5C
:10133000FD4F0081663019F06730A9F408C060E005
:101340000E94B8088823D9F4702F60E014CF60E0C1
:101350000E94B808182F802F60E00E94B80860E053
:10136000181769F40FC060E00E94B808882349F09C
:10137000802F60E00E94B808682F882319F061E090
:1013800001C060E0862F1F910F9108954F925F92E8
:101390006F927F928F929F92AF92BF92CF92DF9285
:1013A000EF92FF920F931F93CF93DF93182F5B0160
:1013B0003A014901E02E202F30E094E0492E512CD3
:1013C0004222532202FF04C0FB01C080D18006C02C
:1013D000FB018081C82EDD24C7FCD09423FD04C00E
:1013E00084E0F82E05E003C003E0F02E02E014FFD5
:1013F00005C01F701066802F0F2DF82E8F2D806670
:10140000181761F08F2D8064181741F09091FA053C
:10141000992361F0133611F0133441F4E60121965B
:1014200080913C0580933B05802F17C0802F8066FC
:10143000181761F0802F8064181741F0992309F480
:1014400067C0123619F0123409F062C0E601219724
:1014500080913C0580933B058F2D90E00E941752B0
:10146000882351F0CC27DD27CC19DD09802F0E947D
:101470009E528F2D0E949E52809144059091450569
:10148000C81BD90B8C169D0644F4812F0E949E52D6
:1014900080913F0580933B05E401C615D70544F4D0
:1014A000812F0E949E5280913F0580933B05E3016E
:1014B000CC15DD05C9F0209739F4812F0E948F5299
:1014C00080913C0580933B05452821F0F501D183AF
:1014D000C08302C0F501C0838E2D83700E940C482A
:1014E00081E08093410503C01092410580E0DF91C7
:1014F000CF911F910F91FF90EF90DF90CF90BF9011
:10150000AF909F908F907F906F905F904F900895D5
:10151000E601B2CF0F93DF93CF930F92CDB7DEB733
:101520006983552747FD5095332727FD3095BE0128
:101530006F5F7F4F09E00E94C60989810F90CF91AC
:10154000DF910F9108950F93DF93CF930F92CDB753
:10155000DEB76983552747FD5095332727FD309522
:10156000BE016F5F7F4F01E00E94C60989810F9025
:10157000CF91DF910F9108950F93DF93CF930F9247
:10158000CDB7DEB76983552747FD5095332727FD33
:101590003095BE016F5F7F4F0AE00E94C6098981C6
:1015A0000F90CF91DF910F9108950F93DF93CF9319
:1015B0000F92CDB7DEB76983552747FD5095332786
:1015C00027FD3095BE016F5F7F4F02E00E94C60984
:1015D00089810F90CF91DF910F9108951F93182F5C
:1015E000682F6F7066502091D60222306CF033273E
:1015F00027FD30952150304081E090E002C0880FF7
:10160000991F2A95E2F7282F683008F095C016FF39
:1016100093C0962F9595222311F0422F15C0E92FE4
:10162000F0E0EA55FB4F8081482F552747FD509544
:1016300057FF03C0509541955F4F242F47FD2D5F05
:10164000422F459545954F5FA92FB0E02091BC02F0
:1016500030E02170307082E090E0821B930B8A179B
:101660009B0739F48091D5028F7019F044E071E046
:1016700001C070E0242F332727FD3095FD01EC5386
:10168000FD4F60FF0AC0EE51FE4F8081482F552765
:1016900047FD5095420F531F09C0EE51FE4F808108
:1016A000482F552747FD5095421B530B41155105B7
:1016B00071F0952F9095991F9927991F20E0FD01B2
:1016C000EA55FB4F808187FF21E0921769F077236D
:1016D00059F4FD01EA55FB4F8081882329F01082DF
:1016E000812F0E949E5221C0CA0184589F4F893F7A
:1016F000910578F4AA55BB4F4C9382E00E940C48A8
:101700001654183018F481E080932F0580913D0520
:1017100010C01416150614F083E801C08DE7AA5511
:10172000BB4F8C9382E00E940C4810922F05809151
:101730003F0580933B0510E0812F1F910895209174
:10174000E20F3091E30F40E08091C9059091CA0506
:101750002817390709F041E0409347058091E20FCF
:101760009091E30F9093CA058093C9058CEF95E0A3
:1017700060E00E94C51580E00E941D480E946351F0
:101780000E948C510E94EE0A482F809147058823C1
:1017900059F08091480590914905009729F00197EB
:1017A0009093490580934805842F807F803289F487
:1017B0008091C00290E024EF31E0BC01629FC00143
:1017C000639F900D729F900D112490934905809313
:1017D00048052091D7053091D80580914205909118
:1017E0004305821B930B60E270E00E94685870937F
:1017F0004505609344056115710591F08091C70519
:101800009091C805821B930B62E070E00E946858BB
:10181000709345056093440530934305209342053A
:101820003093C8052093C705E0913A05F0E0EE0F2C
:10183000FF1FE05DFA4F0190F081E02D842F0995A4
:101840000E943A518091630081FF06C0809165003B
:101850008F7E8093650007C08091650080618093D2
:1018600065000E947E078091E20F9091E30F8F71D7
:10187000907082309105B9F08330910509F45EC013
:10188000019709F076C08091A90260E00E94B80833
:10189000882339F48091480590914905892B09F4F2
:1018A00067C0C79A0895E4EDF0E0E491F0E0EE0F30
:1018B000FF1FEB57FA4F8FB7F8940190F081E02D9E
:1018C00087FF01C078949F01369527953695279517
:1018D0008091A802992787FD9095AC01249FC001B3
:1018E000259F900D349F900D112423E230E0B90123
:1018F000E69F9001E79F300DF69F300D1124820F77
:10190000931F9695909346058091C605805E8093BF
:10191000C605882371F58091A702981750F580912C
:10192000400580933B058091BE0283FF22C082E385
:1019300090E0909349058093480508958091BB02FB
:1019400090E08873907033E0959587953A95E1F72C
:10195000BC01660F771F660F771F680F791F6B52E8
:101960007F4F8CE395E045E050E00E94B858089521
:10197000C7980895FF920F931F938C01F62E0E9433
:10198000635182E260E043E251E020E80E94354F7B
:1019900080E068E1A8010E94634F8CE168E345E1C3
:1019A00051E00E94634F0E943A51FF2011F089E1FB
:1019B00002C08091A6020E94305180914005809320
:1019C0003B050E948C51807F803269F08091A90292
:1019D00060E00E94B808882311F4FF2011F0C79A34
:1019E000F0CFC798EECF1F910F91FF9008959C0103
:1019F00080913A05E82FEF5FE0933A05E53040F03B
:101A000080933A058EEE90E060E00E94BA0C089553
:101A100080913C0580933B05F0E0EE0FFF1FE05DF9
:101A2000FA4F318320838FEBF90109950895E091F6
:101A30003A05EE23B1F0882311F0E0E001C0E15057
:101A4000E0933A0580913C0580933B05F0E0EE0F72
:101A5000FF1FE05DFA4F0190F081E02D8EEB0995BC
:101A6000089581E091E060E00E94BA0C08958091B1
:101A7000BB0287FD07C0887329F482E591E060E02E
:101A80000E94BA0C08950F931F93CF93DF93809118
:101A9000BB0280FD51C08091E20F9091E30F44970B
:101AA000D0F38091BC0290E08170907022E030E031
:101AB000281B390BE22FF0E0E353FF4FE491F0E0F5
:101AC000EE0FFF1FEB57FA4F8FB7F894008111818B
:101AD00087FF01C07894F901EE0FFF1FE858FD4F12
:101AE000C181D28127853089058CF68DE02DC90111
:101AF00068E070E00E946858621B730B6C0F7D1FDA
:101B00006017710724F48091BE0280FF10C0CE0FD1
:101B1000DF1FCF0168E070E00E946858C61BD70B3A
:101B20000C171D074CF48091BE0280FF05C082E6B1
:101B300091E060E00E94BA0CDF91CF911F910F916C
:101B400008951F938091BB0281FD2EC00E946351B6
:101B500082E260E04CE451E020E80E94354F80E0F2
:101B600060E24BE351E00E94634F80E068E349E2AA
:101B700051E00E94634F0E943A518091A6020E9458
:101B800030511EE00DC0113139F0812F8D5060E0D1
:101B90000E94B808882311F41F5F02C01EE0F5CF31
:101BA000163188F31631D1F71F9108958091BB0249
:101BB00082FD0AC00E94A84A883C910528F48FE65D
:101BC00091E060E00E94BA0C0895EF92FF920F93AB
:101BD0001F93CF93DF939FEF9ABB1BBA81E887BB1C
:101BE0008EE788BB8EE384BB81EC85BB11BA92BBC8
:101BF00088E082B987EF83B9109261009093620008
:101C000080E180936400909365000E94F5500E94EB
:101C1000E55780E487B985E886B987E083BF8CE91A
:101C200081BF87B7836087BF1FBC8AE08EBD1092DB
:101C30008B0082E880938A0080917D00806280938F
:101C40007D00789486E99DE190933105809330057D
:101C500089E10E9430510E94D7490E94D60D0E940E
:101C6000EC060E94430D0E94A10D0E94370D0E94B8
:101C70004D132DE088E190E00FB6F894A89581BD52
:101C80000FBE21BD8CEF95E060E00E94C5158AE98A
:101C900096E30E94F70C81E00E94170D8091A60246
:101CA0000E94305187B7806187BFF0907E05E2B611
:101CB00080917E05F816C9F7E091BF02F0E0EE0FC3
:101CC000FF1FE050FF4F0190F081E02D09950E9429
:101CD0009F0B80917D05833019F4A89510927D05A6
:101CE00020917E0532B780917E052817C9F71F2DF8
:101CF00000E08E2D90E0802B912BD22FC0E0232F7F
:101D000030E02C2B3D2B4091CE075091CF07281B64
:101D1000390B2417350708F49A013093CF07209325
:101D2000CE07C3CF0F93022F50E0440F551F440F2F
:101D3000551F47515E4F24E00E94034F0F910895B5
:101D40000F93022F442319F443E153E01EC0242FC4
:101D500030E04150443090F44091BC0250E0440FD8
:101D6000551F440F551F41505040420F531F440F01
:101D7000551F440F551F44575F4F07C0220F331F95
:101D8000220F331F2E5A3D4FA90124E00E94034F1A
:101D90000F910895EF92FF920F931F93082FF62E45
:101DA000142FE22E442329F0403139F0403F81F4D2
:101DB00008C08A5F45EE51E007C08A5F41EE51E0FE
:101DC00003C08A5F4DED51E02E2D0E94354F23C098
:101DD000441F4427441F405E0E948A4E202F2A5FE2
:101DE000412F552747FD509557FF03C0509541950A
:101DF0005F4F842F992787FD90950197AC01440F81
:101E0000551F480F591F41555E4F822F6F2D23E0FC
:101E10000E2D0E94034F1F910F91FF90EF90089598
:101E2000DF92EF92FF920F931F93F82EE62ED42E9F
:101E30001091CF02812F992787FD909597FF03C0BE
:101E4000909581959F4F80319CF443E08402A001DE
:101E5000112442585E4F8F2D6E2D23E00D2D0E94D0
:101E6000034F1F3F4CF58F2D86506E2D41E221C050
:101E70008F3174F411161CF4412F4F5002C0412FC2
:101E8000415F8F2D86506E2D2D2D0E94CA0E14C0DD
:101E900011161CF4412F4E5102C0412F425E8F2D6E
:101EA00086506E2D2D2D0E94CA0E8F2D8E5E6E2DAA
:101EB0004DE62D2D0E948A4E1F910F91FF90EF90BD
:101EC000DF900895FF920F931F93182F062FF22E85
:101ED000442321F4885E46E50E948A4E40914605DF
:101EE000812F885E602F50E02F2D0E9444501F915B
:101EF0000F91FF900895DF92EF92FF920F931F933F
:101F0000CF93DF93F82EE62EEA01122FD02E57FD45
:101F100002C040E201C04DE28F2D6E2D212F0E94A4
:101F20008A4E17FD02C081E101C089E1F80E8F2DB4
:101F30006E2D4AE3212F0E948A4ED7FF03C0D09511
:101F4000C195DF4FCE016CE370E00E946858AB0191
:101F5000212F2C5F8F2D6E2D02E00E94AB4F17FDBD
:101F600002C022E101C028E1CE016CE370E00E94D2
:101F70006858AC0184E0D80E822F8F0D6E2D2D2D68
:101F800002E00E94AB4FDF91CF911F910F91FF9024
:101F9000EF90DF900895982F282F87FD2D5F2595CE
:101FA0002595332727FD30958AE09802C00111243A
:101FB000280F391FC90108956F927F928F929F92C7
:101FC000AF92BF92CF92DF92EF92FF920F931F9347
:101FD0003B017C0100E010E08824992464E670E075
:101FE00080E090E06619770988099909A8019701AE
:101FF0000E9429585B016C0182E390E0A0E0B0E010
:10200000A80EB91ECA1EDB1EC801B7010E942958BE
:102010000E942958BC0188279927A40193010E9496
:10202000295824E096958795779567952A95D1F755
:10203000A60EB71EC81ED91EC601B50124E630E0A3
:1020400040E050E00E947B58C9011F910F91FF9022
:10205000EF90DF90CF90BF90AF909F908F907F9048
:102060006F900895FF920F931F939C01AB01611530
:10207000710531F1FF2497FF05C0FF24F3943095DB
:1020800021953F4F57FF10C000E014E066277727E7
:10209000641B750BC801821B930B0E94DC0F980117
:1020A000281B390BC90104C0C901BA010E94DC0F09
:1020B000FF2011F49C0104C022273327281B390B71
:1020C000C9011F910F91FF900895282FE0E8F7E0D4
:1020D00080E09491921731F03196992311F08F5F3F
:1020E000F8CF80E00895883210F080E20895E82F5C
:1020F000F0E0E058F84F849108959C0140E068308A
:1021000008F041E070E0442371F0CB010897FC0136
:1021100063E0EE0FFF1F6A95E1F7E80FF91FDF019B
:10212000AE52BB4F0AC0FB01EE0FFF1FEE0FFF1FA9
:10213000E60FF71FDF01A655BB4FFD018081205040
:102140003C4F37FD0EC068E02030360784F0442352
:1021500019F484E090E002C088E090E0A80FB91F75
:102160008C91992787FD9095582F442733C044239D
:1021700031F0432FB9017070660F771F04C0432FF1
:102180004695B9017170842F90E0FD01E80FF91FA9
:102190008181992787FD90959B0135952795829F91
:1021A000A001839F500D929F500D11242081332751
:1021B00027FD309580E092E0861B970B95958795DB
:1021C000BC01269FC001279F900D369F900D1124C2
:1021D000480F591FCA0169E170E00E946858CB019D
:1021E0000895EF92FF921F93CF93DF931091D40243
:1021F000110F185F9091D70284E69802C001112454
:10220000EC01C85ADD4F1A3028F448EC5FEA4C1B49
:102210005D0B0DC08853904F212F30E0829FA001AD
:10222000839F500D929F500D1124405C504EA0EDA5
:10223000B7E0ECEFF5E0612F70E0660F771F660FF7
:10224000771F6A0F7B1FEE24FF24EC1AFD0A1FC0C4
:1022500020813181205A364F8DE02137380718F020
:1022600020E73DE006C085E02035380710F420E582
:1022700035E0C701821B930B480F591F1196DC9361
:10228000CE9313963C932E93129714963296A617DC
:10229000B707F1F6E12FEE0FAE2FB0E0AA0FBB1F8C
:1022A000A053B84FCD93DC93EF5FAE2FB0E0AA0FF1
:1022B000BB1FA053B84F4D935C93EF5FF0E0EE0F60
:1022C000FF1FE053F84F11821082DF91CF911F91D1
:1022D000FF90EF900895A091290AB0912A0AFD017C
:1022E0008193919313967C936E9312973296F09309
:1022F0002A0AE093290A0895882329F020E639E084
:1023000080E699E004C020EB34E080EB94E0A091FB
:10231000290AB0912A0AFD018193919313963C9367
:102320002E9312973296F0932A0AE093290A089581
:102330001F93182F82700E947C11812F81700E9440
:102340007C111F910895CF92DF92FF920F931F93FC
:10235000DF93CF9300D0CDB7DEB78091D302813029
:1023600019F0823019F404C010E003C011E001C07C
:1023700012E02091FC053091FD0520503C4F220FCA
:10238000331F8091FE059091FF0580509C4F880F70
:10239000991F892F232F37FD20E087FD80E0022F32
:1023A00020310CF00FE0F82E2FE0281714F45FE036
:1023B000F52E2F2D332727FD3095802F992787FD68
:1023C000909509968217930714F40F2D0950C02E8B
:1023D000DD24C7FCD094275F3F4F2C153D051CF42E
:1023E00047EFF42EF00E80E797E19093D1078093AA
:1023F000D00780EB94E09093D3078093D20784EDCD
:1024000097E090932A0A8093290A80E00E9498110D
:10241000A091290AB0912A0A80E699E0FD018193F2
:10242000919320EB34E013963C932E931297DF01A7
:1024300012969383828313963C932E93129714964D
:10244000B0932A0AA093290A812F0E94981111950E
:10245000C60195958795959587958A830E949811D1
:102460003A81131B802F0E949811101B8F2D9927E2
:1024700087FD9095959587959595879589830E9479
:1024800098118981181B8F2D0E949811812F8F1907
:102490000E94981180E00E947C11E091290AF0913D
:1024A0002A0A80E69AEE92938293329611921192C2
:1024B000F0932A0AE093290A0F900F90CF91DF91B1
:1024C0001F910F91FF90DF90CF900895A091290A5E
:1024D000B0912A0A882341F0FD0180E293E08193C4
:1024E000919380E496E007C0FD0180E496E081933B
:1024F000919380E293E013969C938E931297329679
:10250000F0932A0AE093290A08950F931F93082F46
:1025100010E0802F81700E9466121F5F06951830B0
:10252000C1F71F910F9108950F931F9380ED97E0CE
:1025300090932A0A8093290A80912B0A91E0892797
:1025400080932B0A882309F454C08091FC05909154
:10255000FD05885F9B4F34E0969587953A95E1F7A6
:102560008038910510F08FE790E0182F2091FE053C
:102570003091FF0537FD0FC0C901409625E09695C3
:1025800087952A95E1F78034910510F08FE390E06C
:10259000082F00640FC080E190E0821B930B05E0E0
:1025A000969587950A95E1F78034910510F08FE3B1
:1025B00090E0082F812F0E948512802F0E948512A3
:1025C0000127802F90E09C0114E0359527951A95FE
:1025D000E1F7B4E0880F991FBA95E1F7822B0E94CA
:1025E0008512A091290AB0912A0AFD0180E197E2A3
:1025F00030C0809100069091010680509C4FA4E06D
:1026000096958795AA95E1F78038910510F08FE7A8
:1026100090E0082F0068802F0E9485128EE80E94AB
:1026200085128EE8082710E0C801F4E0959587959B
:10263000FA95E1F7E4E0000F111FEA95E1F7802B2E
:102640000E948512A091290AB0912A0AFD0180EB0F
:1026500096E38193919380EA9FE013969C938E93E7
:1026600012973296F0932A0AE093290AE091290AF8
:10267000F0912A0A11921192F0932A0AE093290A02
:10268000E05DF740E03FF1052CF085EC93E060E081
:102690000E94BA0C1F910F9108958091D30284304B
:1026A00018F4813038F403C0843049F406C00E9425
:1026B000F11008950E94A31108950E9494120895A4
:1026C000FF920F931F93CF93DF93082F1091CF02A8
:1026D000812F992787FD909597FF03C0909581954D
:1026E0009F4FF82E2EE12817DCF411161CF4812FD1
:1026F0008E5102C0812F825E60E00E94B808282FB0
:10270000882361F08091380A882341F490E0809119
:102710003B0A882309F491E090933B0A2093380AFE
:10272000C0913E0AD0913F0A2196D0933F0AC093B0
:102730003E0AE0913C0AF0913D0AE00FF11DF09352
:102740003D0AE0933C0A8091E20F9091E30F2091C3
:10275000400A3091410A821B930B8436910508F49C
:1027600052C12C593F4F3093410A2093400ACF0168
:10277000BE010E945458062F862F90E0AC014C9F5A
:10278000C0014D9F900D5C9F900D1124E81BF90B2B
:10279000F0933D0AE0933C0A10923F0A10923E0AE1
:1027A0005FE05F151CF010923B0A0FC08EE18F15A1
:1027B00064F011161CF4812F8F5002C0812F815FAD
:1027C00060E00E94B80880933B0A80914307909193
:1027D000440701969093440780934307609145070F
:1027E000709146076F5F7F4F709346076093450770
:1027F000002349F08091490790914A0701969093F0
:102800004A078093490780913B0A882349F08091C9
:102810004707909148070196909348078093470790
:10282000069540914B0750914C07400F511D509316
:102830004C0740934B07E091D102F091D202F09304
:102840004F07E0934E073091CF02832F992787FDE2
:10285000909597FF03C0909581959F4F882319F419
:1028600010924D0722C0813021F4CF01861B970BB7
:1028700018C0803170F480FF07C0CA0144E096950B
:1028800087954A95E1F709C08091490790914A07D9
:1028900004C08091470790914807AF01481B590B2E
:1028A000CA0190934F0780934E0780914D07813066
:1028B00041F0813018F08230F1F40EC03323D9F0AA
:1028C00017C080914E0790914F07181619069CF07B
:1028D000309789F082E00DC080914E0790914F07AC
:1028E000855C9F4F1CF483E080934D07309719F46B
:1028F00081E080934D071091BE0212FF3AC04091D3
:102900004D074130B1F520914E0730914F0780912E
:10291000390A90913A0A8217930759F12E313105FD
:1029200021F482E080937F050CC02431310519F435
:1029300040937F0506C02A30310519F02430310557
:1029400024F480913E0580933B0513FF12C02E3185
:10295000310549F02431310531F02A30310519F0C3
:102960002430310534F482E390E09093490580935C
:1029700048058091D002882351F080914E079091B4
:102980004F07E81BF90BF0934F07E0934E0711FF39
:1029900022C080914D078130F1F420914E07309193
:1029A0004F07C9016CE370E00E946858892B99F4C5
:1029B0008091390A90913A0A8217930761F08091C9
:1029C0003E0580933B0513FF06C082E390E09093A1
:1029D00049058093480580914D07823061F48091CC
:1029E0003F0580933B0513FF06C082E390E0909380
:1029F00049058093480580914E0790914F07909329
:102A00003A0A8093390ADF91CF911F910F91FF907D
:102A100008952091CF02822F992787FD909597FFE7
:102A200003C0909581959F4F982F8230A4F18031FB
:102A300094F585959A309CF4E82FFF27E7FDF095F3
:102A40008091BC0290E0880F991F880F991FE80FB2
:102A5000F91FE75FFE4F8081E82FF0E004C0E82F08
:102A6000FF27E7FDF0953197EE0FFF1FE553FA4F73
:102A70000190F081E02D27FF05C080E094E08E1BDF
:102A80009F0B03C0CF0180509C4FE6E09695879541
:102A9000EA95E1F702C080E090E00E946013E091C7
:102AA000BC02F0E0EE0FFF1FEE0FFF1FE45FFE4FD2
:102AB000E081F0E0EE0FFF1FE753FA4F0190F08145
:102AC000E02D8091BE0280FF05C080E094E08E1B67
:102AD0009F0B03C0CF0180509C4F56E09695879581
:102AE0005A95E1F76091340A7091350A6F5F7F4F14
:102AF0007093350A6093340A4091320A5091330A38
:102B0000480F591F5093330A4093320A8091E20FC5
:102B10009091E30F2091360A3091370A821B930B74
:102B2000885E934088F18091E20F9091E30F90933B
:102B3000370A8093360A1092330A1092320A1092A2
:102B4000350A1092340A8091CA079091CB070196FA
:102B50009093CB078093CA072091C8073091C9078B
:102B6000F901E05BF84FCA010E94545860832F5F5F
:102B70003F4F3093C9072093C8072837310520F00D
:102B80001092C9071092C80708952F923F924F9252
:102B90005F926F927F928F929F92AF92BF92CF92ED
:102BA000DF92EF92FF920F931F93DF93CF93CDB7F6
:102BB000DEB761970FB6F894DEBF0FBECDBF998B1D
:102BC000888B262E80914705882309F46CC080915C
:102BD000FB05882319F081508093FB058091BD028D
:102BE000882309F460C08091420990914309A09123
:102BF0004409B09145090196A11DB11D8093420978
:102C000090934309A0934409B0934509E0ECF8E0A0
:102C100020E030E08191919164E070E00E9468587A
:102C2000260F371F48E0E83CF407A1F780914609DA
:102C3000909147092817390761F03093470920938D
:102C400046091092420910924309109244091092C9
:102C50004509E0904209F090430900914409109120
:102C600045096091BD0270E080E090E020E737E127
:102C700040E050E00E9429586E157F0580079107BB
:102C800090F46FE370E080E090E0E622F722082302
:102C900019237AE0E716F1040105110521F480916A
:102CA0003F0580933B0509E7602E02E0702E1AE78E
:102CB000412E14E0512E3324EE24FF24882499243D
:102CC000DE2C8E2D0E9473069C01D3018D919C9168
:102CD0001197281B390B121613062CF45C96ED91F4
:102CE000FC915D9705C0D3011E96ED91FC911F9755
:102CF000E436F10514F4E4E6F0E0B901882777FD45
:102D00008095982FBAE0660F771F881F991FBA9594
:102D1000D1F79F01442737FD4095542F0E949D58BD
:102D20008901BCEF21303B071CF400E01CEF06C01A
:102D3000E4E020303E0714F000E014E0F401E55335
:102D4000FA4F11830083C8010F964F9720F5F4E0E6
:102D5000EF16F104BCF4E091BC02F0E0EE0FFF1FAF
:102D6000EE0FFF1FEE0DFF1DE65FFE4F808190E02E
:102D7000019721E030E002C0220F331F8A95E2F76D
:102D8000C90108C081E090E00E2C02C0880F991F95
:102D90000A94E2F7382A33E03D1508F404C1D20161
:102DA0008C9160E00E94B808882311F4CC240CC0F8
:102DB000F201818160E00E94B808882319F0E2E006
:102DC000CE2E02C0CC24C3948091BC0290E08170CE
:102DD000907072E0A72EB12CA81AB90AAE14BF04E5
:102DE00049F58091D502807F29F100501C4FEC2DD0
:102DF000F0E0EE0FFF1FEE0FFF1F9701220F331FB2
:102E0000C90143E0880F991F4A95E1F7821B930B94
:102E1000E80FF91FE259FB4F6081772767FD709536
:102E2000C801959587950E943210DC01AA0FBB1F3F
:102E3000DD2427C0DD241016110614F0DD24D39400
:102E40008C2D90E09701220F331FF901A3E0EE0FC4
:102E5000FF1FAA95E1F7E21BF30B880F991F880F5C
:102E6000991FE80FF91FEC53FD4FED0DF11DE655CD
:102E7000FE4F6081772767FD7095C8010E94321070
:102E8000DC01EC2DF0E0EE0FFF1FEE0FFF1F9701AE
:102E9000220F331FC90143E0880F991F4A95E1F7BC
:102EA000821B930BE80FF91FEC53FD4FED0DF11D45
:102EB000E455FE4F6081772767FD70956C597F4F11
:102EC000882777FD8095982F9D01442737FD4095F1
:102ED000542F0E94295824E630E040E050E00E9440
:102EE0009D588901AE14BF0409F04CC09091D502E1
:102EF000892F807F09F40CC50050144009C58091CA
:102F0000BE02F501EC53FD4F80FF16C000501C4F70
:102F1000B801882777FD8095982F00501440EE5116
:102F2000FE4F2081332727FD3095432F532F2D57F8
:102F300030404040504014C060E074E0601B710BB2
:102F4000882777FD8095982FEE51FE4F20813327FB
:102F500027FD3095432F532F23583F4F4F4F5F4F3F
:102F60000E94295820E038E040E050E00E949D583F
:102F7000C901DA018030F8E09F07F0E0AF07F0E028
:102F8000BF0739F4F701EA55FB4F8081992787FD88
:102F90009095880F991FE1E0F0E0EC0FFD1FE80D20
:102FA000F91D91838083F401E054F74F118300836E
:102FB0000894E11CF11C22E030E0620E731E820EC8
:102FC000931E4EE050E0440E551E57E0E516F10406
:102FD00009F076CE4091D9024321242F30E0809130
:102FE000480990E08227932782239323892B21F09D
:102FF00080913D0580933B054093480980E094E033
:103000009093CF088093CE089093D1088093D008F6
:1030100062ED78E040E050E0FA01E459FA4FDA015D
:10302000A858BD4F80819181D2962D913C91D39724
:10303000821B930BDB018D939D93BD014E5F5F4F10
:103040004031510549F7E2E0F9E0FA87E987A2EE5D
:10305000B8E0808191818D939D93349629E0E2348C
:10306000F207B9F780914705882311F00E940915EE
:1030700080E4E2E0F9E0DF011D928A95E9F7222081
:10308000F9F0A0ECB8E0FE01319620E030E042E03B
:1030900050E08091BC0290E081709070BA01681B92
:1030A000790B6217730729F011961C921E921182F8
:1030B00010822F5F3F4F129632962430310549F728
:1030C0001EEDA12E12E0B12E89E09AE09E878D8739
:1030D000B9E86B2EB9E07B2EA9E4B9E0BC87AB87D9
:1030E0001F8644245524342C252CF50180818150E1
:1030F000803108F038C3838161E00E94B808AD8553
:10310000BE859C91882321F5192F1C92F501218100
:10311000822F8850823008F00BC3C201FC01A3E06B
:10312000EE0FFF1FAA95E1F7880F991FE80FF91F0F
:10313000E252FD4F87818E70843009F4F9C2293044
:1031400019F0CC24DD2445C0C12C6CEFD62E41C033
:1031500010E0992309F411E081E0AD85BE858C93E0
:10316000D5011196EC91F0E0EE0FFF1FE254F74FFE
:10317000C080D180832D922DFC0143E0EE0FFF1F14
:103180004A95E1F7880F991FE80FF91FE252FD4FAA
:103190008781807FF1F0832D922DFC0123E0EE0FDB
:1031A000FF1F2A95E1F7880F991FE80FF91FEB51D0
:1031B000FD4F808182958F7090E00197E1E0F0E013
:1031C00002C0EE0FFF1F8A95E2F7CF01FF85F82BB3
:1031D000FF87D50118968C91882321F00E94CB0F90
:1031E000C80ED91E832D922DFC01B3E0EE0FFF1FF8
:1031F000BA95E1F7880F991FE80FF91FE252FD4FCA
:103200008681882391F4832D922DFC0173E0EE0FCB
:10321000FF1F7A95E1F7880F991FE80FF91FE25217
:10322000FD4F8581882309F49AC1F3016081718182
:1032300082819381112389F420E031E040E050E065
:103240000E949D5850954095309521953F4F4F4F86
:103250005F4F4601820E931E85C0832D922DFC0187
:1032600053E0EE0FFF1F5A95E1F7880F991FE80F03
:10327000F91FE252FD4F87818E70843049F5D501E8
:10328000EC91F0E0EE0FFF1FE052F74F608171818B
:10329000882777FD8095982F20E034E640E050E0C5
:1032A0000E942958F3016083718382839383D5013F
:1032B00012962C91222361F0332727FD3095432F5E
:1032C000532F0E949D58F3012083318342835383FF
:1032D000D3016D917D918D919C9120E031E040E092
:1032E00050E00E949D5850954095309521953F4F54
:1032F0004F4F5F4F4601820E931E8114910491F14E
:1033000097FE10C0832D922DFC0123E0EE0FFF1FCE
:103310002A95E1F7880F991FE80FF91FED51FD4F2E
:10332000808110C0832D922DFC0113E0EE0FFF1F52
:103330001A95E1F7880F991FE80FF91FED51FD4F1E
:10334000808182958F7090E0FC0124E630E0E29F5E
:10335000C001E39F900DF29F900D1124AB85BC85B9
:103360008D939C93EB85FC8520813181211531055E
:1033700051F080914705882309F4E5C02150304081
:1033800031832083E0C08114910409F4E8C0832DC7
:10339000922DFC01A3E0EE0FFF1FAA95E1F7880F25
:1033A000991FE80FF91FE252FD4F8681882309F427
:1033B000D6C080914705882309F493C0F501228186
:1033C000222339F4E12CF12C60E2062F63E0162F62
:1033D00017C0332727FD309537FF03C0309521955F
:1033E0003F4F332727FD3095432F532F60E070E088
:1033F00080E293E00E949D58C901DA017C018D01B1
:10340000181419048CF5832D922DFC0153E0EE0F56
:10341000FF1F5A95E1F7880F991FE80FF91FEC512C
:10342000FD4F80818F7090E0009709F44CC044E616
:1034300050E0849F9001859F300D949F300D1124A2
:10344000442737FD4095542FC801B7010E949D586D
:1034500079018A01F30180819181A281B381E80E13
:10346000F91E0A1F1B1F38C0832D922DFC0133E06B
:10347000EE0FFF1F3A95E1F7880F991FE80FF91F2C
:10348000EC51FD4F808182958F7090E00097D9F0CC
:1034900044E650E0849F9001859F300D949F300D4D
:1034A0001124442737FD4095542FC801B7010E94CD
:1034B0009D58D301ED90FD900D911C91E21AF30AF5
:1034C000040B150B09C0C601AA2797FDA095BA2FBA
:1034D000EE24F82E092F1A2FF301E082F1820283E5
:1034E0001383D3016D917D918D919C91760100277D
:1034F000F7FC0095102F1814190464F420E031E053
:1035000040E050E00E949D58E216F30604071507BC
:1035100064F019C020E031E040E050E00E949D5886
:103520002E153F054007510774F4C601AA2797FDE1
:10353000A095BA2FBA2FA92F982F8827F30180833F
:103540009183A283B383D3016D917D918D919C91E1
:1035500020E031E040E050E00E949D586901F50113
:103560006481633071F1643028F4613051F062306D
:10357000A8F448C0653081F1653050F16630B1F58E
:103580002EC0D50111968C91893029F4D7FC2AC020
:10359000E0E0FEEF0DC0D7FE35C02EC0D50111967C
:1035A0008C91893051F41C141D044CF1E0E0F2E0E0
:1035B000CE0EDF1ECC0CDD1C25C01C141D04E4F057
:1035C00021C0D7FE1FC0D094C194D108D3941AC093
:1035D0001C141D04A4F010C0D7FE0EC003C01C14A0
:1035E0001D046CF0C12CECEFDE2E0CC06750C60140
:1035F0000E947D106C0106C0CC24DD2403C0C12CC8
:1036000074E0D72E832D922DFC0163E0EE0FFF1F97
:103610006A95E1F7880F991FE80FF91FE252FD4FF5
:10362000878180FD15C0D5011196EC91EE2381F0C4
:10363000E53070F4F0E03197EE0FFF1F21E030E04D
:103640002C0F3D1FE20FF31F80819181C80ED91E00
:10365000B601882777FD8095982FD50112962C9179
:10366000332727FD3095432F532F0E9429586B0194
:103670007C01832D922DFC0133E0EE0FFF1F3A9564
:10368000E1F7880F991FE80FF91FEB51FD4F80817B
:103690008695877090E08130910581F0D501EC919D
:1036A000029799F5F0E0EE0FFF1FEE0FFF1FE250BB
:1036B000F74FC082D182E282F3823AC0F5012081C5
:1036C000022F10E0000F111F000F111F0250174FA3
:1036D000C701B60124E630E040E050E00E949D586A
:1036E000CA01B901D8012D913D914D915C910E9483
:1036F000295820E034E040E050E00E949D58F80155
:10370000208331834283538313C0F0E0EE0FFF1F09
:10371000EE0FFF1FE250F74F80819181A281B381AC
:103720008C0D9D1DAE1DBF1D80839183A283B3832D
:103730000894411C511C2AE030E0A20EB31E4D85B6
:103740005E854F5F5F4F5E874D8764E070E0660E79
:10375000771E8B859C8502969C878B8790E2491605
:10376000510409F0C0CC2F8520FF0AC08091E20FE0
:103770009091E30F882321F480913D0580933B05D0
:1037800021FF10C08091E20F9091E30F803431F05F
:103790008091E20F9091E30F883421F480913D05F0
:1037A00080933B0522FF16C08091E20F9091E30FBA
:1037B000803861F08091E20F9091E30F883831F00A
:1037C0008091E20F9091E30F803921F480913D05C3
:1037D00080933B051EE1C12E14E0D12E44245524D4
:1037E000D60111968C911197882E992487FC90947C
:1037F000E4E6F0E08E0E9F1E8C91682E772467FC25
:1038000070942CE93FEF620E731EA985BA85ED9086
:10381000FD900D911C91E114F1040105110519F4BD
:10382000AA24BB2422C01E141F041006110644F44F
:10383000B401882777FD8095982FA80197010CC0C7
:10384000B301882777FD8095982F22273327A90178
:103850002E193F09400B510B0E94295820E137E2F5
:1038600040E050E00E949D585901C801B70124E68C
:1038700030E040E050E00E949D58E985FA852083C1
:10388000318342835383F201E752FA4FC901208307
:103890009183882D0E94CB0F182F092F862D0E940F
:1038A000CB0FAC01212F302FC901A816B9060CF49B
:1038B000C501841795070CF4CA01D60113962D9102
:1038C0003C911497280F391F12968C91882319F078
:1038D000309521953F4FF894E889F989E40DF51D5D
:1038E000318320837894E5E0F0E0CE0EDF1E298559
:1038F0003A852C5F3F4F3A87298742E050E0440EDB
:10390000551E5EE6C51654E0D50609F069CF04C021
:103910009F7009F0F4CA36CB61960FB6F894DEBFFB
:103920000FBECDBFCF91DF911F910F91FF90EF9010
:10393000DF90CF90BF90AF909F908F907F906F90CF
:103940005F904F903F902F9008950F931F93CF93C8
:10395000DF9386E291E0ECE1F6E0DF019C011D924D
:1039600021503040E1F790914207CEEDD2E000E0E7
:1039700010E051E060E04881442309F440E104177D
:1039800050F5202F712F352F2F5F872F90E0FC01EE
:10399000EE0FFF1FE80FF91FEE0FFF1FDF01A45E00
:1039A000B94F11962C9311978C9181608C93E25EA4
:1039B000F94F30833F5F14966C937F5F241720F399
:1039C000802F8095042F952F9F5F980F180F140F4D
:1039D000940F592F515078817723D1F1812F90E0A6
:1039E0009C01220F331F280F391FD901AA0FBB1FBB
:1039F000A45EB94F11964C93119715966C93159739
:103A00008C9182608C9313965C9313975F5F8A8589
:103A1000F9013196781741F4EE0FFF1FE45EF94F7C
:103A2000108214961C920AC0EE0FFF1FE45EF94F3D
:103A300050835F5F6F5F14966C936150952F6F5F3B
:103A40002A96603219F45093420704C01F5F93CF47
:103A500090934207DF91CF911F910F910895EF92BC
:103A6000FF920F931F93DF93CF93CDB7DEB7A0974D
:103A70000FB6F894DEBF0FBECDBF8E010F5F1F4F94
:103A8000C80161E00E94C515E0E2F4E0B801BCEFB6
:103A9000EB2EB5E0FB2E018112818081DB014D917F
:103AA0005C91D7012D913C91882321F0CA01821BA2
:103AB000930B03C0C901841B950B800F911F928348
:103AC000818335966E5F7F4F82E090E0E80EF91EAD
:103AD00094E0E037F907F9F68091BC0290E081703C
:103AE000907022E030E0281B390B16AA21303105F6
:103AF00011F01092A7042230310511F01092A804A1
:103B00001092A90482E00E940C4880913D058093A8
:103B10003B05A0960FB6F894DEBF0FBECDBFCF9188
:103B2000DF911F910F91FF90EF9008956F927F9218
:103B30008F929F92AF92BF92CF92DF92EF92FF92BD
:103B40000F931F93DF93CF930F92CDB7DEB78138DA
:103B500009F493C08238A0F4813609F486C0823615
:103B600038F4823209F466C0833209F0B2C058C01A
:103B70008536C1F18038C9F0843609F0AAC01BC06F
:103B8000843841F1853838F4823809F466C08338C6
:103B900009F09FC05CC08E3B09F482C08F3B09F4E2
:103BA0008CC0853809F095C035C00E9458060E9427
:103BB000F70C80E814C084E60E94AF52823009F00E
:103BC00032C680912F0A9091300A0097C1F42BC61B
:103BD00081E019C08AE996E30E94F70C84E80E940C
:103BE0009E5277C085E60E94AF52823009F021C60E
:103BF00080912D0A90912E0A009709F41AC60E940E
:103C0000F70C67C081508093310A80913C05809306
:103C10003B055FC083EB90E30E94F70C85E8DFCFA4
:103C20008091BA028F5F8093BA02833060F0109265
:103C3000BA0209C08091BA02882311F0815001C0F4
:103C400082E08093BA0281E00E940C48DECF8FE2CE
:103C500094E20E94620683E8C2CF0E9403588AED74
:103C600094E20E94620682E8BACF80914D078230CA
:103C700081F583E080934D07C8CF10924D071092D5
:103C800046071092450710924A0710924907109272
:103C900048071092470710924C0710924B07B5CF78
:103CA0008091310A082F10E00E945806000F111F62
:103CB000035D154FD8018D939C9381E00E949E5225
:103CC00083E00E949E5282E00E949E5281E0809397
:103CD0002C0A8091D80260E00E94B808882331F055
:103CE00080912C0A882311F40E942F1D8091D80204
:103CF00060E00E94B80880932C0A9091460580915C
:103D0000A702981710F000E801C002E884ECC82E62
:103D100082E0D82E1AE0812F60E0F60141916F0118
:103D200020E80E948A4E155F1837A9F786E060E107
:103D300041E0202F0E94620F84E268E146E520E026
:103D40000E948A4E20914605822F6AE00E944858C0
:103D50009250923010F403E001C002E0822F6AE03A
:103D60000E9448580E9448589150923010F01CE030
:103D700002C00F5F1BE0145F812F6CE1402F0E9497
:103D80007C50812F6DE1402F0E947C5080914D0727
:103D9000882399F0823011F000E801C002E84091D8
:103DA0004E0750914F0782E460E1202F0E947B0F65
:103DB00083E368E140E00E94100F4091D60213E0D7
:103DC0004102A0011124455C5B4F84E260E123E0E5
:103DD00000E00E94034F4091D5024295407F4595F7
:103DE0004595459545954102A00111244C5C5B4FDA
:103DF00089E360E123E00E94034FAA24BB240FE182
:103E0000D02EF501E25EFE4FE080F501EA55FB4F52
:103E1000E081E7FDED5FE595E595E43E0CF4E4EE29
:103E20000E2FED310CF00CE1F501E65EFE4F8081C6
:103E30008823F9F08E2D64E046E30E948050809143
:103E4000BC0290E08A259B2580FD04C08091D502AC
:103E50008F7061F48E2D81506EE143E00E9480509E
:103E60008E2D8F5F6EE143E00E9480509D2D901B50
:103E700014C08E2D8B516CE346E30E947C501E2DA6
:103E80001150812F6BE343E00E947C50812F6DE342
:103E900043E00E947C50E00E9CE31E2D1350092F3E
:103EA0000350812F602F47E099830E9480509981B1
:103EB0009D5F812F692F47E00E947C508E2D8D5F82
:103EC000602F47E00E948050812F602F47E00E94C2
:103ED0007C500894A11CB11CF4E0AF16B10409F0A9
:103EE00090CF8091BA02823009F4B0C01CEFA12EAD
:103EF00015E0B12ECC24DD24BBE16B2E712CA9E1A1
:103F00008A2E912C2C2DD501ED90FC908091BA0237
:103F1000882321F0813009F08CC02BC0C60183704A
:103F20009070869D8001879D100D969D100D112427
:103F30002695269530E02B5F3F4FF3E0220F331F8D
:103F4000FA95E1F7C70160E270E00E946858FB0152
:103F5000C70160E870E00E9468586E1B7F0BE60E98
:103F6000F71E802F8F5D622FA70120E20E94445030
:103F700060C0243010F01CE501C014E296012370EB
:103F80003070C901880F991F880F991F820F931FE6
:103F9000082F0A5DC70160E470E00E9468589B0129
:103FA000C70162E070E00E946858FB01E21BF30B5E
:103FB000C70160E071E00E946858E60FF71FF7FF45
:103FC00003C0F095E195FF4FE89DC001E99D900D7C
:103FD000F89D900D1124845D9E4F892F990F990BA8
:103FE0008595E82EB9E1B81714F469E1E62E812F22
:103FF0008951602F43E325E50E944E50602F6250A7
:10400000812F45E00E948050F50180819181181632
:10401000190614F41F5F01C01E190F5F812F602F56
:104020004E2D0E947C500250812F602F4E2D0E94F9
:104030007C500894C11CD11C82E090E0A80EB91EEF
:1040400098E0C916D10409F05DCFF9C38FE161E2B0
:1040500047E10E9480508FE167E347E10E947C5076
:1040600085E361E247E10E9480508FE161E247E130
:104070000E947C508BE461E247E10E9480508BE417
:1040800067E347E10E947C5081E661E247E10E94DC
:1040900080508BE461E247E10E947C508AE26BE24F
:1040A00043E00E94805089E26CE243E00E947C5031
:1040B00086E56BE243E00E94805085E56CE243E0D8
:1040C0000E947C508091CB059091CC05880F991F60
:1040D0009C0143E0220F331F4A95E1F7820F931FA3
:1040E00060E078E00E946858462F8091CD0590915D
:1040F000CE05880F991F9C0103E0220F331F0A95FC
:10410000E1F7820F931F60E078E00E946858709595
:1041100061957F4F665D842F885D45E00E948050E9
:104120008091CB059091CC05880F991F9C01B3E03D
:10413000220F331FBA95E1F7820F931F60E078E0FA
:104140000E946858462F8091CD059091CE05880F2A
:10415000991F9C01F3E0220F331FFA95E1F7820FBC
:10416000931F60E078E00E946858709561957F4FDA
:10417000625D842F885D45E00E947C508091CB0574
:104180009091CC05880F991F9C0173E0220F331F7B
:104190007A95E1F7820F931F60E078E00E946858FB
:1041A000462F8091CD059091CE05880F991F9C01D7
:1041B00053E0220F331F5A95E1F7820F931F60E0FF
:1041C00078E00E946858709561957F4F665D842FF6
:1041D000845D45E00E9480508091CB059091CC0594
:1041E000880F991F9C0113E0220F331F1A95E1F7E6
:1041F000820F931F60E078E00E946858462F8091FC
:10420000CD059091CE05880F991F9C01A3E0220F48
:10421000331FAA95E1F7820F931F60E078E00E94B8
:104220006858709561957F4F665D842F885D45E085
:104230000E947C508091D1059091D205880F991FE2
:104240009C01E3E0220F331FEA95E1F7820F931FF1
:1042500060E078E00E946858462F8091CF059091E9
:10426000D005880F991F9C0163E0220F331F6A95C8
:10427000E1F7820F931F60E078E00E946858709524
:1042800061957F4F665D842F8C5A45E00E94805077
:104290008091D1059091D205880F991F9C0143E030
:1042A000220F331F4A95E1F7820F931F60E078E0F9
:1042B0000E946858462F8091CF059091D005880FB5
:1042C000991F9C0103E0220F331F0A95E1F7820F2B
:1042D000931F60E078E00E946858709561957F4F69
:1042E000625D842F8C5A45E00E947C508091D105FC
:1042F0009091D205880F991F9C01B3E0220F331FC4
:10430000BA95E1F7820F931F60E078E00E94685849
:10431000462F8091CF059091D005880F991F9C0161
:10432000F3E0220F331FFA95E1F7820F931F60E04D
:1043300078E00E946858709561957F4F665D842F84
:10434000885A45E00E9480508091D1059091D20515
:10435000880F991F9C0173E0220F331F7A95E1F7B4
:10436000820F931F60E078E00E946858462F80918A
:10437000CF059091D005880F991F9C0153E0220F23
:10438000331F5A95E1F7820F931F60E078E00E9497
:104390006858709561957F4F665D842F8C5A45E013
:1043A0000E947C506091D3057091D405882777FDD9
:1043B0008095982F26E130E040E050E00E94295897
:1043C0005B016C0180E098E5A0E0B0E0A80EB91EAA
:1043D000CA1EDB1EC601B50120E038E040E050E017
:1043E0000E949D5879018A0110950095F094E094FF
:1043F000E11CF11C011D111D97E3E90EC601B50179
:1044000020E038E040E050E00E949D582F5F8AE3B2
:104410006E2D422F0E9480506091D3057091D4057B
:10442000882777FD8095982F26E130E040E050E026
:104430000E9429585B016C0180E098E5A0E0B0E0A3
:10444000A80EB91ECA1EDB1EC601B50120E038E069
:1044500040E050E00E949D5879018A011095009536
:10446000F094E094E11CF11C011D111D97E3E90E8D
:10447000C601B50120E038E040E050E00E949D58C0
:104480002F5F8BE36E2D422F0E9480506091D305E9
:104490007091D405882777FD8095982F26E130E02C
:1044A00040E050E00E9429585B016C0180E098E5F3
:1044B000A0E0B0E0A80EB91ECA1EDB1EC601B50101
:1044C00020E038E040E050E00E949D5879018A01E8
:1044D00010950095F094E094E11CF11C011D111D54
:1044E00097E3E90EC601B50120E038E040E050E076
:1044F0000E949D582F5F8CE36E2D422F0E948050AA
:104500006091D5057091D605882777FD8095982F05
:1045100026E130E040E050E00E9429585B016C0148
:1045200080E098E5A0E0B0E0A80EB91ECA1EDB1E30
:10453000C601B50120E038E040E050E00E949D58FF
:1045400079018A0110950095F094E094E11CF11C2A
:10455000011D111D97E3E90EC601B50120E038E009
:1045600040E050E00E949D582F5F8FE36E2D422F58
:104570000E9480506091D5057091D605882777FDFF
:104580008095982F26E130E040E050E00E942958C5
:104590005B016C0180E098E5A0E0B0E0A80EB91ED8
:1045A000CA1EDB1EC601B50120E038E040E050E045
:1045B0000E949D5879018A0110950095F094E0942D
:1045C000E11CF11C011D111D97E3E90EC601B501A7
:1045D00020E038E040E050E00E949D582F5F80E4EA
:1045E0006E2D422F0E9480506091D5057091D605A6
:1045F000882777FD8095982F26E130E040E050E055
:104600000E9429585B016C0180E098E5A0E0B0E0D1
:10461000A80EB91ECA1EDB1EC601B50120E038E097
:1046200040E050E00E949D5879018A011095009564
:10463000F094E094E11CF11C011D111D97E3E90EBB
:10464000C601B50120E038E040E050E00E949D58EE
:104650002F5F81E46E2D422F0E9480506091D7051C
:104660007091D805882777FD8095982F26E130E056
:1046700040E050E00E9429585B016C0180E098E521
:10468000A0E0B0E0A80EB91ECA1EDB1EC601B5012F
:1046900020E038E040E050E00E949D5879018A0116
:1046A00010950095F094E094E11CF11C011D111D82
:1046B00097E3E90EC601B50120E038E040E050E0A4
:1046C0000E949D582F5F84E46E2D422F0E948050DF
:1046D0006091D7057091D805882777FD8095982F30
:1046E00026E130E040E050E00E9429585B016C0177
:1046F00080E098E5A0E0B0E0A80EB91ECA1EDB1E5F
:10470000C601B50120E038E040E050E00E949D582D
:1047100079018A0110950095F094E094E11CF11C58
:10472000011D111D97E3E90EC601B50120E038E037
:1047300040E050E00E949D582F5F85E46E2D422F8F
:104740000E9480506091D7057091D805882777FD29
:104750008095982F26E130E040E050E00E942958F3
:104760005B016C0180E098E5A0E0B0E0A80EB91E06
:10477000CA1EDB1EC601B50120E038E040E050E073
:104780000E949D5879018A0110950095F094E0945B
:10479000E11CF11C011D111D97E3E90EC601B501D5
:1047A00020E038E040E050E00E949D582F5F86E412
:1047B0006E2D422F0E94805026E0C22E24E0D22E81
:1047C00011E090E2E92E812F60E00E94B808082FE6
:1047D0008AE06E2DA60123E00E94034F1F5FA8E030
:1047E000EA0EE3E0F0E0CE0EDF1E143061F78AEE51
:1047F000C82E83E0D82E17E000E3E02E812F60E082
:104800000E94B808082F85E66E2DA60123E00E94BD
:10481000034F1F5FF8EFEF0E83E090E0C80ED91E44
:104820001A3061F70CC08091310A882309F4D0C98D
:1048300050CA8091310A882309F0E4C94ACA0F900E
:10484000CF91DF911F910F91FF90EF90DF90CF906C
:10485000BF90AF909F908F907F906F9008950F932F
:104860001F93CF93DF93082F80E060E04FE554E083
:1048700021E00E94354F013658F0033628F0033608
:1048800039F48FE595E202C086E99DE10E94620657
:1048900086E068E04BE554E00E94634F4091450795
:1048A0005091460788E168E020E000E00E947B0F1D
:1048B00086E668E047E554E00E94634F4091470771
:1048C000509148078CE368E020E00E947B0F86E06F
:1048D00060E143E554E00E94634F409149075091E5
:1048E0004A0788E160E120E00E947B0F86E660E1F4
:1048F0004FE454E00E94634F40914B0750914C07A6
:1049000034E0569547953A95E1F78CE360E120E075
:104910000E947B0F86E660E04BE454E00E94634F08
:1049200040914307509144078CE360E020E00E94EF
:104930007B0F8091CA079091CB078937910518F4B6
:10494000C0E0D0E004C0C091C807D091C90782E0A0
:104950006CE34EE70E947C5085E06CE143E20E94EC
:1049600080500BE0802F6BE343E00E9480500A5F91
:104970000338C1F706E01CE3FE01E05BF84F40811D
:10498000612F641B802F0E9480502196C837D1056B
:1049900010F0C0E0D0E08091C8079091C907C81717
:1049A000D90719F00F5F0E3739F7DF91CF911F91BB
:1049B0000F9108951F93CF93DF93182F80E060E04D
:1049C00044E654E021E00E94354F113631F40E9454
:1049D000005886E99DE10E946206C6EEDFE01CE019
:1049E000812F68E1488120E10E948A4E812F60E298
:1049F000488920E10E948A4E21961A5F1C3681F771
:104A000080910610882309F456C00E94FE5783E067
:104A100090E00E941752882351F080917502909186
:104A20007602807D9070909376028093750282E08A
:104A300090E00E941752882351F080917502909166
:104A40007602807B9070909376028093750285E069
:104A500090E00E941752882351F080917502909146
:104A6000760280779070909376028093750284E04E
:104A700090E00E941752882351F080917502909126
:104A80007602807E907090937602809375021092E9
:104A9000061080917502909176020E94065880EA75
:104AA0009FE00197F1F70E94FC5780EF90E0909310
:104AB000760280937502DF91CF911F9108951F9325
:104AC000182F80E060E041EB54E021E00E94354F78
:104AD0001236E9F0133628F4103631F01136F1F4BD
:104AE00019C01336D9F416C08FEF97E090930901DF
:104AF000809308011092CD071092CC071092CF0737
:104B00001092CE0780913C0580933B0507C08FE251
:104B100094E202C086E99DE10E94620680E068E0BE
:104B20004FE954E00E94634F4091CC075091CD076C
:104B30005695479584E568E00E944A5080E060E120
:104B40004DE854E00E94634F4091080150910901E3
:104B50005695479584E560E10E944A5080E068E1FF
:104B60004BE754E00E94634F4091CC075091CD0732
:104B70008091080190910901481B590B5695479562
:104B800084E568E10E944A5080E060E249E654E032
:104B90000E94634F2091CE073091CF0784E690E0CA
:104BA000289FA001299F500D389F500D112464E0CB
:104BB000569547956A95E1F784E560E220E40E9406
:104BC00044501F9108950F93042F40EF5FEF20E1B1
:104BD00030E00E94C6090F9108958F929F92AF9284
:104BE000BF92CF92DF92EF92FF920F931F93DF93CA
:104BF000CF93CDB7DEB7982ED42EF22EA02F8A2DCC
:104C0000222329F0442309F4D6C072E0D5C070E015
:104C1000833649F58C2D90E0880F991FFC01B3E095
:104C2000EE0FFF1FBA95E1F7E81BF90BE658FB4FB3
:104C30008A2F6E2D4081272F0E94CA0EFF2009F473
:104C4000C0C0DD2009F4BDC08C2D90E0880F991FF5
:104C5000BC01F3E0660F771FFA95E1F7681B790B4B
:104C600066587B4F2AC0823669F58C2D90E0880FFC
:104C7000991FFC0163E0EE0FFF1F6A95E1F7E81B47
:104C8000F90BE558FB4F8A2F6E2D4081272F0E948C
:104C9000CA0EFF2009F495C0DD2009F492C08C2DC6
:104CA00090E0880F991FBC0143E0660F771F4A957B
:104CB000E1F7681B790B65587B4F892D42E00E9414
:104CC000E3257FC0A82EBB248F85082F10E0882005
:104CD000F1F58C2D90E0880F991FFC0123E0EE0F79
:104CE000FF1F2A95E1F7E81BF90BAA0CBB1CAA0CC5
:104CF000BB1CEA0DFB1DE00FF11FE259FB4F408189
:104D0000552747FD50958A2F6E2D272F0E9444501E
:104D1000FF2009F456C0DD2009F453C08C2D90E02B
:104D2000880F991F9C0163E0220F331F6A95E1F7FA
:104D3000281B390B2A0D3B1D020F131F02591B4F55
:104D4000892DB8014CE95FEF24E630E030C02C2D0E
:104D500030E0AA0CBB1CC90143E0880F991F4A959B
:104D6000E1F7821B930BA80EB91EA80CB11CAA0C6C
:104D7000BB1CF501E00FF11FE259FB4F40815527A5
:104D800047FD50954C595F4F8A2F6E2D272F0E945B
:104D90004450FF20B1F0DD20A1F00A0D1B1D025987
:104DA0001B4F892DB8014CE95FEF20E030E002E0B5
:104DB0000E94C60906C071E0662309F429CF71E09C
:104DC00027CFCF91DF911F910F91FF90EF90DF9050
:104DD000CF90BF90AF909F908F9008950F931F93A7
:104DE000182F80E068E043E757E020E00E94354F4D
:104DF00081E060E144EC52E02AE000E10E94034FD0
:104E000082E460E14FE320E00E948A4E82E168E2A2
:104E100048E657E00E94634F82E160E349E557E0CE
:104E20000E94634F113661F11F3B19F0103659F59E
:104E300005C080913F0580933B0525C08091A50268
:104E40008F5F0E94794D0091A5020AC00150013187
:104E500008F00FE08091A502081711F400E006C0E9
:104E6000802F8F5F0E941A4A882381F30093A50246
:104E7000802F0E94BD498AE996E30E94620603C022
:104E800080E00E94170D1F910F9108956F927F92FD
:104E90008F929F92AF92CF92DF92EF92FF920F93F9
:104EA0001F93CF93DF93EC01162F4901D02E3701CA
:104EB0002115310509F441C0FF248881882311F4AC
:104EC000FF24F394042F0150FF2011F1143671F0E8
:104ED0001536F1F40023E1F0E02FF0E03197EE0F0A
:104EE000FF1FE80DF91D8591949110C0202F30E02F
:104EF0008D2D90E001972817390754F4F901319668
:104F0000EE0FFF1FE80DF91D859194910E94620636
:104F100080E3D80E8AE760E04D2D2F2D0E948A4E47
:104F200084E760E04FE22F2D0E948A4E0F5C8EE6F0
:104F300060E0402F2F2D0E948A4E6114710411F4FD
:104F400090E009C088818C1508F4C82EF301EC0D9F
:104F5000F11D94919150123609F462C0133688F411
:104F6000133409F468C0143430F41132F9F01234F7
:104F700009F072C052C0143479F1153409F06CC0D4
:104F80003BC01536E1F1163638F4133609F456C035
:104F9000143609F061C023C0113829F01F3B09F015
:104FA0005BC0188259C01092FA050CC08091FA05B6
:104FB000882319F01092FA054FC08881882311F0D8
:104FC000892821F480E00E94170D46C080913C059D
:104FD00080933B0519822DC089818917E9F16728E3
:104FE000D9F18091FA058823B9F58981891710F4E0
:104FF0008F5F0FC019822DC08981882369F16728CE
:1050000059F18091FA05882339F58981882319F0AF
:10501000815089831EC099831CC088818A15E1F064
:105020008091FA058823C1F488818A1510F48F5F76
:105030000DC018820EC08881882371F08091FA0516
:10504000882351F48881882319F08150888301C016
:10505000A88280E68093E40FDF91CF911F910F919A
:10506000FF90EF90DF90CF90AF909F908F907F90C8
:105070006F900895AF92CF92DF92EF92FF920F93CD
:105080001F93CF93DF93D82E80E060E045EC55E08E
:1050900021E00E94354F8AE49AE06D2D43E027EB32
:1050A00033E007E05BECE52E55E0F52ECC24C3940D
:1050B000AA24A3940E94462780914A0A9FEBD916FE
:1050C00011F41092FA05FF24813011F4FF24F394B7
:1050D00080E068E141EC55E023E00F2D0E94034F92
:1050E00010E000E3C0E0D0E0143018F4202F68E1B5
:1050F00003C0202F205660E2FE01E459FA4FDE0182
:10510000A858BD4F40815181D2968D919C91D397E3
:10511000481B590B440F551F822F20E20E94445018
:105120001F5F085E22961830F9F6FF2099F080E69E
:10513000D81681F4AAEAB2E0ECE6F5E080E101904D
:105140000D928150E1F781E00E940C4880913C056E
:1051500080933B05DF91CF911F910F91FF90EF90CE
:10516000DF90CF90AF9008958F929F92AF92BF92B1
:10517000CF92DF92EF92FF920F931F93CF93DF9323
:10518000D82E80E060E045E457E021E00E94354FF2
:105190004091A50250E04F5F5F4F845F60E025E0E3
:1051A00002E00E94AB4F8DE99AE06D2D42E027EAC4
:1051B00033E008E05CE4E52E57E0F52E1CE0C12E5C
:1051C000BCE0AB2E0E944627A0909D0A90919E0ABB
:1051D000B92EB3941A141CF01092F90519C02A2D97
:1051E000332727FD30958091F905281B3109283098
:1051F00031053CF089EFA80EA092F90587E0A80ED2
:1052000007C01216130624F0AA94A092F905A394DD
:1052100081E6D81671F18D1598F084E4D81609F45A
:105220003FC08D1528F082E4D81608F44CC045C064
:1052300085E4D81641F180E6D81609F044C00EC0C6
:1052400084E6D81669F1D816C0F185E6D816D9F0EB
:105250008FEBD816C1F51092FA0535C0A7FC33C004
:1052600090E08091FA05882309F491E09093FA0583
:105270002AC08091FA05882331F11092FA0581E65F
:105280000E949E5220C081E0A816E9F48B15D8F444
:105290008091FA058823B9F0915090939E0A13C02B
:1052A00081E0A81681F489E08B1568F08091FA05F9
:1052B000882349F0B0929E0A06C08091FA0588239F
:1052C00011F410929E0A8091F905882319F0A8E044
:1052D000CA2E63C080E068E040E457E020E00E940E
:1052E000354F81E0A81619F080E090E008C000E09A
:1052F0008091FA05811101E081E00827802F082FB5
:1053000000618CE368E044EC52E02AE00E94034F25
:1053100081E0A81609F03FC08091FA058823D9F1F1
:105320000B2D10E0E8012197FE01EC53FD4F808129
:105330000E946510682F8091440590914505892B46
:1053400061F482E6D81649F083E6D81631F082E49B
:10535000D81619F083E4D81631F48D2D40E027E2F9
:105360000E94D50A682F683210F040E205C0E62F8F
:10537000F0E0E058F84F4491CC53DD4F4883C8012A
:10538000880F991F800F911F880F991F8A5C68E012
:1053900021E00E948A4E70E1C72E8091F90582308B
:1053A00008F087C080E06C2D4AE357E020E00E94BF
:1053B000354F4091D1025091D20282E0A816A9F453
:1053C00081E0B81639F48091FA05882309F0E7C224
:1053D00021E0E6C282E0B81641F48091FA05882304
:1053E00011F401E003C002E001C000E020E086E328
:1053F0006C2D0E947B0F82E0A81609F058C08091A6
:10540000FA05882339F48091440590914505892B4C
:1054100009F44DC081E0B81629F082E0B81609F011
:1054200046C021C08091D1029091D2026CE370E01D
:105430000E9454588D2D40E02BE30E94D50A282F5E
:105440008CE32802900111248091D1029091D20224
:105450006CE370E00E945458280F391F3093D20239
:105460002093D10224C08091D1029091D2026CE3AA
:1054700070E00E945458082F0E5F8D2D602F41E080
:105480002EE30E94D50A081B112707FD1095809175
:10549000D1029091D202801B910B9093D202809303
:1054A000D10297FF04C01092D2021092D10288E07C
:1054B000C80E8091F9058330F8F480E06C2D42E34A
:1054C00057E020E00E94354F00E083E0A81609F481
:1054D00001E08CE36C2D402F0E94100F002351F04F
:1054E0008D2D6FEC72E043ED5FEF2DE230E002E0D6
:1054F0000E94C60988E0C80E8091F905843038F50D
:1055000080E06C2D4BE257E020E00E94354F10E028
:1055100084E0A81609F411E04091D0028AE0480224
:10552000A00111244A5E584F8CE36C2D2AE0012F14
:105530000E94034F112349F08D2D6091D00240E06D
:1055400021E00E94D50A8093D00288E0C80E8091A5
:10555000F9058530E0F580E06C2D4FE057E020E064
:105560000E94354F10E085E0A81609F411E0409143
:10557000D5024295407F459545954595459583E0F3
:105580004802A0011124485F584F8CE36C2D23E0A2
:10559000012F0E94034F1123A1F06091D502629563
:1055A000607F65956595659565958D2D40E021E059
:1055B0000E94D50A8F709091D502907F982B90937E
:1055C000D50288E0C80E88E38C1508F4EBC1809101
:1055D000F9058630C8F580E06C2D41E057E020E009
:1055E0000E94354F10E086E0A81609F411E04091C2
:1055F000D502459545954595459583E04802A0011E
:1056000011244650594F8CE36C2D23E0012F0E944A
:10561000034F112399F06091D502659565956595C5
:1056200065958D2D40E021E00E94D50A8295807F0E
:105630009091D5029F70982B9093D50288E0C80E68
:1056400088E38C1508F4AEC18091F905873060F5C8
:1056500080E06C2D41EF56E020E00E94354F10E0D5
:1056600087E0A81609F411E04091D60286E04802CE
:10567000A00111244E52594F8CE36C2D26E0012FCE
:105680000E94034F112351F08D2D66ED72E040E032
:1056900050E024E030E002E00E94C60988E0C80E35
:1056A00088E38C1508F47EC18091F905883008F5EF
:1056B00080E06C2D4AEC56E020E00E94354F00E07F
:1056C00088E0A81609F401E086E36C2D4091D80229
:1056D000202F0E94CA0E002331F08D2D68ED72E05C
:1056E00042E00E94E32588E0C80E88E38C1508F4A8
:1056F00059C18091F905893008F058C080E06C2DBF
:1057000041EC56E020E00E94354FC0E0D0E01CE3C1
:10571000EB2CFF2447010894810891088C169D0604
:1057200029F489E0A81611F402E00BC08091D90297
:1057300090E00C2E02C0959587950A94E2F7082F09
:105740000170AE014754594F812F6C2D21E00E940A
:10575000034F21961A5F163609F789E0A81601F55E
:1057600080E6D81631F08091440590914505892B4B
:10577000B9F08D2D0E949E521092FA050894E1080E
:10578000F10881E090E002C0880F991FEA94E2F7E7
:105790002091D90228272093D90282E00E940C4848
:1057A00088E0C80E88E38C1508F4FCC08091F905E8
:1057B0008A3008F09DC080E06C2D43EB56E020E07D
:1057C0000E94354F9091D3028AE0A81659F481E0E7
:1057D000B81641F48091FA05882311F401E003C062
:1057E00002E001C000E046E0949FA00111244C5665
:1057F000594F84E26C2D26E00E94034F8091D30222
:10580000882309F041C04091D4028AE0A81659F4D7
:1058100082E0B81641F48091FA05882311F401E082
:1058200003C002E001C000E0552747FD5095440F3A
:10583000551F440F551F4158594F8CE36C2D24E0E0
:105840000E94034F86E66C2D42E756E020E00E945E
:10585000354F9091D7028AE0A81659F483E0B81624
:1058600041F48091FA05882311F421E003C022E07D
:1058700001C020E042E39402A0011124445D5E4F88
:1058800086E66C2D0E9444508AE0A81659F5809156
:10589000FA05882331F48091440590914505892BC0
:1058A00009F182E0B81661F083E0B81689F081E072
:1058B000B816C1F48D2D63ED72E040E050E005C0F4
:1058C0008D2D64ED72E04EEF5FEF24E030E007C015
:1058D0008D2D67ED72E04CEF5FEF2AE030E002E0E3
:1058E0000E94C60988E0C80E88E38C1508F45AC0E7
:1058F0008091F9058B3058F580E06C2D48E656E034
:1059000020E00E94354F10E08BE0A81609F411E06A
:105910004091DA0283E0489FA00111244F59594F6A
:105920008CE36C2D23E0012F0E94034F112351F0D3
:105930008D2D6AED72E040E050E021E030E002E0C1
:105940000E94C60988E0C80E88E38C1558F1809142
:10595000F9058C3038F58091FB05882311F020E0A3
:1059600005C020E08CE0A81609F421E080E06C2D51
:105970004BE456E00E94354F8CE0A81699F480E87D
:10598000D81681F41092FA0589E18093FB0580E82E
:105990000E949E528EEE96E20E94F70C03C022E017
:1059A00000E025CDDF91CF911F910F91FF90EF90F7
:1059B000DF90CF90BF90AF909F908F9008952F92DF
:1059C0003F924F925F926F927F928F929F92AF928F
:1059D000BF92CF92DF92EF92FF920F931F93DF93CC
:1059E000CF93CDB7DEB72B970FB6F894DEBF0FBEBF
:1059F000CDBFD82E80E060E049EB57E021E00E9467
:105A0000354F86EA9AE06D2D43E027EA33E008E05F
:105A1000F1ECEF2EF7E0FF2ECC24C394E4E0AE2EA1
:105A20000E9446270091A60A01502091A70A2F83C1
:105A300031E6D316D1F03D1520F080E6D81639F5C1
:105A400009C090E8D916D9F0EFEBDE1601F51092F7
:105A5000FA051DC007FD1BC090E08091FA05882360
:105A600009F491E09093FA0512C08091FA05882319
:105A700071F01092FA0581E60E949E5208C007FD5F
:105A800006C00093A10A87E998E30E94F70C85E11C
:105A900068E049EA57E00E94634F2AE734E03D831B
:105AA0002C8372EA272E7AE0372E8BEC95E09B83CD
:105AB0008A834424552460E1F62EE02FFF27E7FD7A
:105AC000F095F987E887CF01880F991F9C0143E083
:105AD000220F331F4A95E1F7281B390B3B872A8792
