:100000000C94D7100C94FF100C94FF100C94FF105C
:100010000C94FF100C94FF100C94FF100C94FF1024
:100020000C94FF100C94FF100C947A160C94326E02
:100030000C94EA700C945F6E0C94FF100C94D9161B
:100040000C9468160C94FF100C947B770C94E97553
:100050000C94FF100C94FF100C94FF100C94FF10E4
:100060000C946B710C9420170C94C46E0C94AC71AE
:100070000C94FF100C94FF100C94FF100C94FF10C4
:100080000C94FF100C94FF100C94FF10C518CA18A4
:10009000901896189C189C189C18BB18C018C51866
:1000A000CA18D918D918D018232223222322232290
:1000B0008F224A224A224A224A224A224A224A229B
:1000C00034223C223C22542254229A229A22662232
:1000D0009A229A229A229A229A22842284229A226C
:1000E0009A229A229A229A229A229A229A229A2230
:1000F0009A229A229A229A229A229A229A229A2220
:100100009A229A229A2280229A229A2237229A228C
:10011000342234229222283460341735C0364A37CC
:10012000C235EA39203AD938FD370F386D38D7470C
:100130009747A247B147B747BB47C0472A533E53EB
:100140004B5366536F5378538853A453BD53315464
:10015000475455546354715484549654BF540755AE
:10016000155554557C559955A755B555C355D15579
:10017000E86BD66BD06BD96BDD6BE16BD36BE56B4A
:10018000EA6BD972DB72DE72E372F6720773177371
:100190002273347346734B73647367736B736D733D
:1001A0006F737473787384738873907397739B738E
:1001B0009D73A173A373A573A773AB73AF73B4736C
:1001C000B973BE73C373C87320454550524F4D2059
:1001D00069737420766572616C7465742020205494
:1001E000455354452045494E5354454C4C2F4B41A3
:1001F0004C494200416C61726D20697374206465E2
:10020000616B7469766965727400536368616C74BC
:100210006572205761726E756E6700536368616C1A
:1002200074657220617573736368616C74656E00C8
:10023000454550524F4D2077656E69672053706574
:100240006963686572004C41454454006D537461A4
:10025000636B206F666C6F77006D537461636B2006
:1002600075666C6F77004E414348524943485400CD
:1002700054617374652064727565636B656E0047C5
:100280006173206E6963687420696D2052756865BA
:100290007A737464007365747A652061756620539F
:1002A00074616E646761730062656C2E20546173C3
:1002B00074652064727565636B656E00032D2D2D6A
:1002C000783E30783C307C787C663E30663C307CD2
:1002D000667C6331206332206333206334206335CE
:1002E0002063362063372063382063392063313040
:1002F00063313163313263313363313463313563B8
:1003000031360003415553414E2053653053652526
:10031000486F30486F25476130476125517530512E
:100320007525503120503125503220503225503320
:1003300020503325002D2D2D002D2D2D2D000000BA
:1003400064281007030100000000010101020202FD
:10035000020101030020414C41524D000001020303
:100360000002010303010200030201000453454996
:1003700020484F4520474153205155452000414ECC
:1003800020004155530003474153534549484F45C9
:1003900049443049443149443251554546574B54FC
:1003A000524E535731535732535733535734535791
:1003B0003553573653573753573853573953574197
:1003C000535742535743001B1E272D36394B4E635C
:1003D0006C7278878D939CB1B4C6C9D2D8E1E453CE
:1003E000706C617368008040000000000000000035
:1003F00000000000000000000000000000000000FD
:1004000000000000000000000000000000000000EC
:1004100000000000000000000000000000000000DC
:1004200000000000000000000000000000000000CC
:1004300000000080C0E0E0F0F8F8FCFCFCF8F8F800
:10044000F0400000000000808080000000000000FC
:100450000000000000000000000000000080C0C09C
:10046000E0E0E0F0F0F0E0C00000000000C0F8FFC5
:10047000FF9F8783838383838383838383838383B0
:1004800083838383838383838303838083838383BF
:10049000838383838383838383838383838383832C
:1004A000838383C3E3733F1F0000000080E0F0F804
:1004B000FCFEFFFFFFFF7F3F1F1F0F0783C3E1E12C
:1004C000E0E0C0000E1F3F7F7FFFF3E0E080000010
:1004D000000000000000000080F0FCFEFFFFFFFFB6
:1004E0007F3F0F0301010100000080F0FEFFFFC706
:1004F000C1C1C1C1C1C1C1C1C1C1C1C1C1C1C1C1EC
:10050000C1C1C1C1C1C101C1F0FEFF3F0F070F0D45
:100510000D0D1D191919193131313171616161E107
:10052000C1C1C18100000080E0F8FCFFFFFFFF2F88
:10053000170F038180C0E0F0F8FCFEFFFFFFFFFF14
:10054000FF7F010000000000000001010307070E0B
:100550001E1C3870E0F0F8FEFFFF7F1F0F03000144
:10056000000000000000000000000000000000008B
:10057000000000000000000000000000000000007B
:10058000000000000000000000000000000000006B
:10059000000000000000000000000000000000005B
:1005A0000000000000007EFFFFFFFFFFFFFBF8FCE4
:1005B000FCFEFF7F3F1F0F07C3FFFFFFFFFFFF7F13
:1005C000070000000000000000000000000000C064
:1005D000E0F8FEFFFF7F1F0F1F3D7CF8F8F0E08082
:1005E000000000000000000000000000000000000B
:1005F00000000000000000000000000000000000FB
:1006000000000000000000000000000000000000EA
:1006100000000000000000000000000000000000DA
:1006200000000000000000000101010101030707B4
:10063000070301000000E0FCFFFFFFFFFF1F0300B6
:1006400000000000000000000000C0F078DE27136A
:10065000090E0703000000000000000001030F7FE7
:10066000FFFC7878F80000000000000000000000A7
:1006700080808080808080808000808000808000FA
:10068000000000000000808080808080808080806A
:10069000808080808080808000000000000000005A
:1006A000000000000000000000000000000000004A
:1006B00000000080F0FEFFFFFFFF3F0F0100000081
:1006C0000000000000C0E0381E0F03000100000021
:1006D000000000000000000000000000000000001A
:1006E0000000000303010000000000000000000003
:1006F0000E0E02020202020303000F0F000F0F088A
:100700000808080808080F0F08080808080F0F0055
:100710000000000F0F0000000000000000000000BB
:1007200000000000000000000000000000000000C9
:1007300000C0F8BFFFFFFF1F7F01000000000000A6
:100740000000F0FCFF7F7830000000000000000097
:100750000000000000000000000000000000000099
:100760000000000000000000000000000000000089
:100770000000000000000000000000000000000079
:100780000000000000000000000000000000000069
:100790000000000000000000000000000000000059
:1007A0000000000000000000000000000000003019
:1007B0001C070E0F070100000000000000000000F1
:1007C0000000000000000000000000000000000029
:1007D0000000000000000000000000000000000019
:1007E000000000000000000000204D4F443A204669
:1007F00052534B59204E5420202020002053564E57
:100800003A20657239782D723831350054494D459A
:100810003A2031313A31333A303800444154453A84
:100820002031342E31322E3230313400564552537D
:100830003A2056312E3432352D4D696B6500034216
:1008400045574720535449434B532F504F5453005F
:1008500005534554204D495450554E4B5400035BAD
:100860004D454E555D205A554D205354415254002C
:1008700054656C656D657472455A3E3D7239300041
:1008800042616E644C7565636B65004B616C004D35
:10089000756C7469706C696B610003617573202BF2
:1008A0003D203A3D00036D6F64650A252071756532
:1008B000207363680007536C61766500124247003D
:1008C000414E41005472696D2D202B00054D656E1F
:1008D0007565204578697452756E747220486F632F
:1008E0006852656368744C696E6B73004449414794
:1008F00000FC072C081B080C08E907537469636B9C
:100900005363726F6C6C00506F745363726F6C6CD6
:1009100000537464722E536368616C740053746185
:100920007274204E616D6500537461727462696CFB
:100930006473636869726D005069657020436F75F8
:100940006E74646F776E00416C61726D20576172D6
:100950006E756E67005370656963686572205761D4
:10096000726E756E6700476173205761726E756EA7
:100970006700496E616B74697669746174616C615A
:10098000726D136D00426174746572696520576100
:10099000726E756E67004D6F647573002053484723
:1009A0005100014B616E616C2052656968656E662D
:1009B0006F6C676500416B7469766965726520507C
:1009C000504D53494D00476173756D6B65687200FA
:1009D0004B7265757A5472696D004D696E757465F8
:1009E0006E746F6E0048617074697363686520533C
:1009F000746165726B6500546F6E686F6568650041
:100A00000A5069657065722020202050694C61751C
:100A100074737072655069657072546F6E202050E7
:100A200069654C617574546F6E4D656761536F7580
:100A30006E642000536F756E646D6F64757300068D
:100A40004C6175746C73547374417573784B757223
:100A50007A204B75727A20204E6F726D616C4C61FA
:100A60006E672020784C616E672000506965706564
:100A700072004C617574737400426C69747A206200
:100A800065692050696570004C6963687420616E07
:100A90002053746B62657765671373004C696368F4
:100AA0007420617573206E6163681373004C696311
:100AB000687420756D6B656872656E004C6963685B
:100AC00074736368616C746572004B6F6E747261ED
:100AD0007374003614EC130E141E1405141514F858
:100AE000132E142614E213DA1353455454494E4777
:100AF000530056343D0756353D0E56363D005631AF
:100B00003D0756323D0E56333D00096D7068004773
:100B100065733D096B7473204D61783D00486F65C6
:100B20003D096D2020204D61783D004C61653D0000
:100B30004272653D000A55504D0054414E4B002213
:100B4000047C5E47546D00034578707846654665C1
:100B5000694D697453746B0041323D0041313D0071
:100B600011544F54000153544B1153542500015458
:100B70004D4511545357005354415400035B4D45A8
:100B80004E555D20746F20726566726573680074DF
:100B90006D61696E0F6D7300746D7231204A6974F6
:100BA0007465720F757300746D72314C6174206DD1
:100BB000696E0F757300746D72314C6174206D61D4
:100BC000780F757300535441543200096672656999
:100BD000004D4F44454C5741484C004B4F4C20551D
:100BE0006D6B6568720051554520556D6B65687277
:100BF00000484F4520556D6B65687200416E736308
:100C0000686C6167004B6F6C6C656B74697600068D
:100C10002D2D2D202020313230202020313230580F
:100C20002020313430202020393020202020005452
:100C300061756D656C747970000048454C492045BC
:100C4000494E53540001534847510020464D30004F
:100C50004D4F44490020464D0046616465204F7564
:100C600074004661646520496E005472696D6D655B
:100C70007200536368616C74657200000300464C37
:100C8000204D4F44555300015348475100032D2D2B
:100C90002D5031205032205033204756344756359E
:100CA00047563647563700566F6C756D6520436F53
:100CB0006E74726F6C00052D31303025202020308D
:100CC00025005468726F74746C65204F666600432B
:100CD0007573746F6D53746B4E616D657300417500
:100CE000746F6772656E7A650047617353746154FF
:100CF0003200547261696E657200452E204772653C
:100D00006E7A650003504F534E4547005369676E36
:100D1000616C6172740050504D20312E204B616E19
:100D2000616C0003416D654A617045757200204336
:100D30006F756E74727900034431364438204C521A
:100D40005000205479706500094C50342F4C5035B8
:100D5000202044534D326F6E6C792044534D322F16
:100D600044534D580044534D205479700042696EED
:100D700064202052616E67650050504D204C6165C3
:100D80006E67650D6D53656B000B456D4E756D009F
:100D90000434434820364348203843482031304308
:100DA00048313243483134434831364348001375A3
:100DB0005300117553656B000650504D2020205094
:100DC000585820202044534D32202050504D313669
:100DD0002050504D53494D0050726F746F0053486E
:100DE000475131323300506965702043656E0046CB
:100DF000617374204D69782044656C617900547288
:100E0000696D2053636800064578706F6E204578E1
:100E10004665696E4665696E20204D697474656C1F
:100E200047726F622020005472696D20496E6B001A
:100E3000472D4578706F00472D5472696D000A5A2E
:100E40006165686C2072756E745A6165686C2068A3
:100E50006F6368005369676E616C42005369676E27
:100E6000616C00546F6E6672657120114D454E5570
:100E7000000009000100000000000000000602015F
:100E80000045494E53540052414E47452043484582
:100E9000434B20525353493A000642494E44494E6F
:100EA00047004B6F7069657265204D6F64656C6CAF
:100EB000004C4F4553434845204D4F44454C4C0052
:100EC0004B4F5049455245204D4F44454C4C0044F2
:100ED0007253636832004472536368310002447590
:100EE000616C205261746500024578706F000444A3
:100EF0005220486F636800044452205469656600BC
:100F0000044452204D697474656C00004558504F7C
:100F10002F445200012B2A52004D49534348455259
:100F200000032020202020202020004C4F45534348
:100F30004845204D4953434845523F00035B4D45CA
:100F40004E555D0B5B455849545D00034A41200BEB
:100F50004E45494E005B455849545D207A756D20D9
:100F600041626272656368656E004D6178204D690B
:100F7000782065727265696368743A2033320003C1
:100F8000494478544852525544454C4541494C4790
:100F9000454154524E0033504F5320537769746388
:100FA0006800024C616E6773616D20686F63680052
:100FB000024C616E6773616D2072756E747200020F
:100FC0005665727A2E20686F636800025665727AE1
:100FD0002E2072756E746572000848696E7A7566A7
:100FE000676E20204D756C7469706C697A69457202
:100FF0007365747A656E202000024D756C7470788C
:1010000000025761726E756E6700024D4F44455382
:101010000002536368616C746572004B757276658B
:10102000000D44696666004578706F00025472696D
:101030006D6D656E0002456E61626C654578706F1E
:1010400044520002466978204F6666736574000258
:101050004F666673657400024475616C205261745A
:101060006500025175656C6C6500426561726220B5
:101070004D49534348455220000000000000000045
:10108000000004005B4E6578745D00032D2D2D7803
:101090003E30783C307C787C663E30663C307C6606
:1010A0007C63312063322063332063342063352036
:1010B000633620633720633820633920633130631F
:1010C000313163313263313363313463313563310C
:1010D00036000D416E00072D2D2D2D202020763E4F
:1010E0006F66732020763C6F667320207C767C3E92
:1010F0006F66737C767C3C6F6673554E442020206F
:10110000204F444552202020584F52202020207646
:10111000313D3D7632207631213D76322076313EAA
:101120007632202076313C763220204C6174636820
:101130002020462D466C6F70205A65697441757386
:101140007631603D6F6673000003494E442E205394
:101150004348414C5445520006414E202020204136
:101160005553202020424549444520313553656B75
:1011700020333053656B20363053656B20456967EB
:10118000656E65005653000720382053656B20318B
:10119000322053656B2031362053656B200001539C
:1011A000415658004E756D6D657220546F6E205318
:1011B000636800000002534943484552484549547A
:1011C0005320534348005343092B0D2A122F000389
:1011D0002D2D2D53746D48746D47746D51746D527F
:1011E000454E534549484F45474153515545503168
:1011F000205032205033206331206332206333206B
:1012000063342063352063362063372063382063DE
:1012100039206331306331316331326331336331CB
:1012200034633135633136000001010101010101F0
:1012300000474C4F42414C45205641525300054611
:10124000697273744C61737420004F6666736574C1
:1012500020417400446563696D616C730053696774
:101260006E00556E69740044697669736F72004D43
:10127000756C7469706C69657200024F666673659F
:101280007400536F757263650053430000030004DC
:101290002D2D2D2D41312020413220204641535605
:1012A00053433120534332205343332053433400BC
:1012B00043757272656E7420536F75726365005367
:1012C000696E6B20546F6E65730002456D706669C0
:1012D0006E646C6963686B740002536368616C745C
:1012E000657200042D2D2D2D564765734132202047
:1012F00000566172696F3A205175656C6C650046E5
:101300004153204F666673657400496E642E204217
:10131000696C6473636869726D00475053486F6508
:10132000686548616C74656E004E756D20426C6135
:101330006574746572006D4168204C696D69740054
:10134000456D00536E52535349416C726D0000015C
:10135000010054454C454D455452494532000176F3
:101360002D5641004120204B616E616C00034D659C
:1013700074496D7000054672487562575348686934
:101380000042656E50726F746F00000154454C4509
:101390004D4554524945004B4F5049452054524900
:1013A0004D205B4D454E555D0000034752454E5A5A
:1013B000454E004B56004B555256454E00564F5227
:1013C00045494E535400004B5552564500032D2DB0
:1013D0002D554D4B004E616D650044696167416E4E
:1013E000610044696167537774636800417564699B
:1013F0006F486170746963004B616C696272696502
:1014000072756E6700436F6E74726F6C7300416C1F
:1014100061726D730048617264776172650047653F
:101420006E6572616C0056657273696F6E005472FE
:1014300061696E657200446973706C6179005B4D1F
:10144000454E555D2057454E4E204645525449471E
:101450000042454152424549004B4F5049455200D8
:10146000424557454745004C4F4553434800424588
:1014700041524245490045494E46554547004B4F6C
:101480005049455200424557454745004C4F45534A
:101490004348006957262B03334840C6504D5C57DC
:1014A000500556DE5D9E28252C7F29120812000863
:1014B0001C0808081C080000082200490022080037
:1014C00000000000227F22000000082200490022C4
:1014D00008000008220049002208000000227F22A4
:1014E0000000000000082200490022080000081C3B
:1014F0000808081C0800475600010101000000020E
:1015000002020202020202020200020202020202BD
:1015100002020000000000000002020202020303B7
:101520000303054665657420566F6C7473446567E4
:101530005F434465675F466D41682020416D70736D
:10154000204D657472655761747473004656434646
:101550006D416D5718242F2F0033383B00010203D3
:10156000065761726E31205761726E322043686592
:1015700061702052696E672020536369466920526A
:101580006F626F74204368697270205461646120D7
:1015900020437269636B74536972656E20416C6D90
:1015A000436C6B5261746174615469636B202048B1
:1015B0006170746331486170746332486170746340
:1015C000330054696D657200032D2D2D47656C4FF6
:1015D0007267526F740054524530313241470045B2
:1015E0006D3D00536E3D002041424344454647480F
:1015F000494A4B4C4D4E4F505152535455565758E3
:10160000595A6162636465666768696A6B6C6D6E7E
:101610006F707172737475767778797A303132338E
:101620003435363738395F2D2E0000010203FEFFB6
:101630000406080A0B0C0D0E0F23FD202425261D81
:101640001E1F27F6F7F8F9FAFBFCF52811292AF1F5
:10165000F2F3F4042D2D2D2D41313D2041323D205A
:10166000525353495453534954696D3154696D323F
:10167000486F656847486F654747657354313D203B
:1016800054323D2055504D2054414E4B4D616831F0
:101690004D61683243766C74416B6B75416D70734C
:1016A0004D61682043746F74466173564265735888
:1016B000426573594265735A56476573477672316E
:1016C0004776723247767233477672344776723590
:1016D000477672364776723746776174527856206D
:1016E0004864672041333D2041343D20534331203D
:1016F00053433220534333205343342000045031AA
:101700002020503220205033202048414C42564F58
:101710004C4C43594331435943324359433350505E
:101720004D3150504D3250504D3350504D3450503B
:101730004D3550504D3650504D3750504D38434830
:101740003120434832204348332043483420434823
:101750003520434836204348372043483820434803
:1017600039204348313043483131434831324348CE
:1017700031334348313443483135434831363350AF
:101780004F5347563120475632204756332047564D
:101790003420475635204756362047563720544880
:1017A000495300536368616C746572205761726EAF
:1017B000756E6700536368726569626665686C651B
:1017C0007200666F726D617469657265204545507F
:1017D000524F4D0066616C736368652045457072B9
:1017E0006F6D20446174656E00434845434B204D46
:1017F00049582F445220534F5552434553004D4FA3
:1018000044454C4C202020200049434820202020E3
:1018100020202000454550524F4D206F666C6F7759
:1018200000E2AEA1A6A4A2C02F25AF0000000000D8
:1018300000000000000000000000000000000000A8
:101840000000000000000000000000333B1F0F00FC
:10185000000000C0C0C0C0C0C0C0C0C0C000000008
:101860000000000000000000000000000000000078
:10187000000000183C3C180000000000000080C080
:10188000E070381C0C0C0E07030100000000000083
:1018900000FCFE87C3E377FEFC00000F1F3B3130E6
:1018A000381F0F00000C0EFFFF000000000000308A
:1018B000303F3F3030000000000C0E0783C3E77E4E
:1018C0003C00003C3E37333130303000000303C36E
:1018D000C3C3E7FE3C00003030303030391F0F000A
:1018E00000C0E070381C0EFFFF0000030303030379
:1018F000033F3F00003F3F33333373E3C300000C2B
:101900001C383030381F0F0000FCFEC7C3C3C78E21
:101910000C00000F1F383030391F0F00000303C3C5
:10192000E3733B1F0F000000003F3F00000000007A
:10193000003CFEE7C3C3E7FE3C00000F1F39303018
:10194000391F0F00003C7EE7C3C3E7FEFC00000028
:101950000030381C0E07030000183C3C1800000043
:10196000000000060F0F0600000000F0F8DCCEC7F4
:10197000C7CEDCF8F03F3F0000000000003F3FFF13
:10198000FFC3C3C3C3C3E7FE3C3F3F3030303030FA
:10199000391F0FFCFE0703030303070E0C0F1F384C
:1019A00030303030381C0CFFFF030303070E1CF8E7
:1019B000F03F3F303030381C0E0703FFFFC3C3C376
:1019C000C3C3C303033F3F3030303030303030FFCB
:1019D000FFC3C3C3C3C3C303033F3F0000000000F2
:1019E000000000FCFE0703C3C3C3C7CECC0F1F38E3
:1019F00030303030303F3FFFFFC0C0C0C0C0C0FFFC
:101A0000FF3F3F0000000000003F3F00000303FFD6
:101A1000FF03030000000030303F3F303000000083
:101A20000000000303FFFF03030C1C383030381F95
:101A30000F0000FFFFC0E0F0381C0E07033F3F001F
:101A40000103070E1C3830FFFF00000000000000FB
:101A5000003F3F3030303030303030FFFF0E1CF868
:101A6000F81C0EFFFF3F3F0000000000003F3FFF5B
:101A7000FF3870E0C08000FFFF3F3F00000001031F
:101A8000033F3FFCFE070303030307FEFC0F1F3861
:101A900030303030381F0FFFFFC3C3C3C3C3E77EEE
:101AA0003C3F3F0000000000000000FCFE07030375
:101AB000030307FEFC0F1F383033371E1C3F33FF74
:101AC000FFC3C3C3C3C3E77E3C3F3F000003070E11
:101AD0001C38303C7EE7C3C3C3C3C78E0C0C1C3814
:101AE00030303030391F0F03030303FFFF030303BC
:101AF00003000000003F3F00000000FFFF00000067
:101B0000000000FFFF0F1F3830303030381F0FFF4C
:101B1000FF000000000000FFFF03070E1C38381C08
:101B20000E0703FFFF000000000000FFFF0F1F383B
:101B3000381F1F38381F0F0F1F38F0E0E0F0381F34
:101B40000F3C3E0703010103073E3C3F7FE0C0809E
:101B500080C0E07F3F000000013F3F010000000324
:101B6000030383C3E3733B1F0F3C3E3733313030F5
:101B70003030300000000000000000000030303045
:101B8000303030303030300000303030303070E0C5
:101B9000C00C1E3F33333333333F3FFFFFC0E07091
:101BA000303070E0C03F3F3030303030381F0FC031
:101BB000E070303030303000000F1F3830303030BF
:101BC000381C0CC0E070303070E0C0FFFF0F1F38D1
:101BD00030303030303F3FC0E0703030303070E077
:101BE000C00F1F3B33333333330303C0C0FCFEC786
:101BF000C303070E0C00003F3F000000000000F090
:101C0000F89C0C0C0C0C0CFCFC000133333333330C
:101C10003B1F0FFFFFC0E070303070E0C03F3F005F
:101C200000000000003F3F00003030F3F3000000F0
:101C300000000030303F3F30300000000000003036
:101C400030F3F300000C1C383030381F0F0000FF59
:101C5000FF0080C0E0703000003F3F03070F1C38DA
:101C600030000000000303FFFF0000000000003010
:101C7000303F3F30300000F0F03070E0E07070E056
:101C8000C03F3F0000030300003F3FF0F0C0E070A2
:101C9000303070E0C03F3F0000000000003F3FC018
:101CA000E0703030303070E0C00F1F3830303030EE
:101CB000381F0FF0F03030303030F0E0C03F3F03DD
:101CC00003030303030100C0E0F0303030E0C0F054
:101CD000F000010303030303033F3FF0F0C0E07093
:101CE000303070E0C03F3F0000000000000000C046
:101CF000E0F03030303030000030313333333333C4
:101D00003F1E0C3030FFFF30300000000000000F9D
:101D10001F383030381C0CF0F0000000000000F0DC
:101D2000F00F1F383030381C0C3F3FF0F00000003F
:101D3000000000F0F003070E1C38381C0E0703F0FB
:101D4000F0000000000000F0F00F1F38381C1C38B5
:101D5000381F0F3070E0C08080C0E0703030381C19
:101D60000F07070F1C3830F0F0800000000000F073
:101D7000F0000133333333333B1F0F30303030301A
:101D8000B0F0F0703030383C3E3733313030300016
:101D9000000000000000006F000007000700147F33
:101DA000147F14242A7F2A122313086462364955AB
:101DB00022500005030000001C2241000041221CAB
:101DC0000014083E081408083E08080050300000BF
:101DD00008080808080060600000201008040200DD
:101DE0003E49453E0000427F400062514946004165
:101DF000494936001814127F0027454539003E49ED
:101E0000493200017905030036494936000649295F
:101E10001E0000363600000056360000081422412D
:101E2000141414141441221408000201510906006C
:101E3000060909067E0909097E7F494949363E415E
:101E40004141227F4141221C7F494949417F090983
:101E500009013E4149497A7F0808087F00417F41D6
:101E6000002040413F017F081422417F4040404014
:101E70007F020C027F7F0408107F3E4141413E7F7C
:101E8000090909063E4151215E7F09192946264963
:101E900049493201017F01013F4040403F1F20403E
:101EA000201F3F4030403F63140814630708700848
:101EB000076151494543007F414100020408102059
:101EC0000041417F000402010204404040404008BC
:101ED0000408100820545454787F48444438384447
:101EE000444420384444487F3854545418087E09E8
:101EF00001020C5252523E7F0804047800447D4097
:101F0000002040443D007F1028440000417F4000F5
:101F10007C041804787C0804047838444444387CF1
:101F200014141408081414187C7C08040408485479
:101F3000545420043F4440203C4040207C1C20401E
:101F4000201C3C4020403C44281028440C50505059
:101F50003C4464544C44000836410000007F0000BB
:101F600000413608000808221C08081C2208080145
:101F70000204081020408040800804201002010064
:101F800000891112239B322446AD573665BF744831
:101F90008CC19D5AAFD3BE6CCAE5DB7EE9F7F881F0
:101FA00010080193331A22A5562C47B7753E64C911
:101FB0009C408DDBBF52AEEDDA64CBFFF976E802D0
:101FC000218B30100299132667AF763444BD554AF1
:101FD000ADC3BC588ED19F6EEBE7FA7CC8F5D983B0
:101FE000310A2091121803A7772E66B5543C45CBD1
:101FF000BD42ACD99E508FEFFB66EAFDD874C90490
:10200000428D5316619F702004A9153227BB364CB0
:10201000CEC5DF5EEDD7FC6888E1997AABF3BA856F
:10202000520C4397711E60A1142805B3373A26CD90
:10203000DE44CFDFFD56ECE9986089FBBB72AA064F
:10204000638F7214409D512225AB343006B9174E70
:10205000EFC7FE5CCCD5DD6AA9E3B8788AF19B872F
:10206000730E6295501C41A3352A24B1163807CF50
:10207000FF46EEDDDC54CDEBB962A8F99A708B080F
:102080008481951AA793B62CC2A5D33EE1B7F04040
:1020900008C919522BDB3A644EED5F766DFF7C89DF
:1020A0009400859BB712A6ADD224C3BFF136E0C120
:1020B000184809D33B5A2AE55E6C4FF77D7E6C0ABF
:1020C000A583B4188691972EE3A7F23CC0B5D14200
:1020D00029CB38500AD91B666FEF7E744CFD5D8B9F
:1020E000B502A499961087AFF326E2BDD034C1C3E0
:1020F000394A28D11A580BE77F6E6EF55C7C4D0C7F
:10210000C685D71EE597F42880A1913AA3B3B244BF
:102110004ACD5B5669DF78600CE91D722FFB3E8D5E
:10212000D604C79FF516E4A9902081BBB332A2C59F
:102130005A4C4BD7795E68E11C680DF33F7A2E0E3E
:10214000E787F61CC495D52AA1A3B03882B193467F
:102150006BCF7A5448DD59622DEB3C700EF91F8F1E
:10216000F706E69DD414C5ABB122A0B9923083C75F
:102170007B4E6AD5585C49E33D6A2CF11E780F2BE3
:10218000860A0C0D0B102B2B072B2B2B2B2B2B84A8
:1021900088979A111314151609181B122B2B2B2B29
:1021A00005191C1D1E1F2720A122262B277B112469
:1021B0001FBECFEFD0E1DEBFCDBF11E0A0E0B1E0A8
:1021C000E0E7F8EF02C005900D92A232B107D9F70F
:1021D0001FE0A2E2B1E001C01D92AB36B107E1F70A
:1021E00011E2CEEAD1E204C02297FE010E94E57B13
:1021F000CC3AD107C9F70E948E790C94367C0C94A6
:102200000000E091D90594E0E99FF0011124E80F66
:10221000F11DE45AFC4F84918F5F08950895F8945E
:102220008091850D9091860D78940895E82FF0E0C7
:10223000EB5BFC4F849108952AE0829FC00111243A
:1022400082519E4F089525E0829FC0011124825D36
:102250009C4F08950F93022F207104FF03C00F7E3F
:102260009DE201C094E2411104C024E049E353E03F
:102270000EC04530A0F49091450594FF0BC000615D
:1022800094E0499FA00111244D505A4F24E00E9430
:102290004E6716C02FEF240F4CE653E00FC0941783
:1022A00028F02BEF240F4DEF56E108C0222311F048
:1022B000475B491B2CED240F43E556E10E947367F1
:1022C0000F910895442311F04C5E01C040E00C943E
:1022D0002A110F931F93CF93DF93D62FC42F022F72
:1022E00016E0180F442339F0463141F04A3E81F49C
:1022F00042E853E005C045E353E002C04EE753E037
:102300006D2F812FDF91CF911F910F910C948767D3
:1023100047FF04C041E20E94C066C1952FEF2C0F19
:1023200046E853E06D2F812F0E947367DF91CF91B4
:102330001F910F910895EF92FF920F931F93CF93E8
:10234000DF93D82F162FF42EE22EC091DF0181E00B
:10235000821708F442C02C2F27FD2195203168F404
:10236000042F43E053E08D2F0E947367CF3FCCF5DD
:102370002F2D41E2612F8AEF19C0253230F41C164F
:1023800014F441EF22C04FE020C0CA339CF0C35385
:10239000042F2C2F4CEB52E08D2F0E947367C0311D
:1023A0000CF4D6502F2D45E2612F82E18D0F0E9453
:1023B000C06617C0242F4DE682E18D0F0E94C066D3
:1023C0001C1614F44CED01C044E24C0F2F2D612F6C
:1023D0008AEF8D0F0E94691104C082E028130DC09E
:1023E00004C0E1100AC0C13041F42F2D40914F04C8
:1023F000612F8AEF8D0F0E946911DF91CF911F919C
:102400000F91FF90EF9008951F93CF93DF93EA0110
:1024100094E0699FF0011124EF58FB4F408150E098
:102420001381107C103811F4440F551F9A01A82F06
:10243000B0E00E94337B103C49F424E630E040E0F9
:1024400050E00E94A27B81E091E41CC0443651051B
:1024500060F4660F771F881F991F23E330E040E088
:1024600050E00E94A27B82E007C02FEF30E040E006
:1024700050E00E94A27B81E0103411F096E702C088
:1024800080E090E2209709F0888390936201C9016F
:10249000DF91CF911F910895DF92EF92FF920F93FA
:1024A0001F93CF93DF931F92CDB7DEB7D82EF62EB2
:1024B000842F102FAE014F5F5F4F622F0E940412D6
:1024C000AC018981813011F4106203C0823009F4BB
:1024D000106380916201863781F49A0140E050E0F8
:1024E00065E0E62E012F6F2D8D2D0E94966817FD59
:1024F00016C0212F409162010DC0212F6F2D8D2D0F
:102500000E94A66980916201813449F417FD07C0D9
:10251000212F41E46F2D8091830D0E94C066809130
:1025200062010F90DF91CF911F910F91FF90EF907B
:10253000DF900895873038F4E82FF0E0EE0FFF1FAA
:10254000EF56F74F24C08C3050F18431C0F4482F3F
:1025500050E0DA01AA0FBB1FA45EBE4F2D913C9143
:10256000803148F4FA01EE0FFF1FE155FA4F8081E8
:102570009181281B390BC901880F991F0895843256
:1025800048F4E82FF0E0EE0FFF1FE75BF74F808184
:10259000918108958D3418F484520C94922180E036
:1025A00090E008950E948A798111FCCF1092B40DB9
:1025B00008950F931F93CF93DF938C01EB010E943B
:1025C000746624E045E553E060E082E20E9487679C
:1025D000B80180E20E94A767BE0188E20E94A76757
:1025E00068EA72E080E3DF91CF911F910F910C9424
:1025F000A76720914505207679F0E62FF0E0EE0FF1
:10260000FF1FEB56FA4F21813281821B930B0F96ED
:102610004F9728F080E0089548175907DCF381E0D0
:1026200008950F93262F00E046E853E060E10E94F2
:1026300073670F910895CF93DF93D6E1C0E08D2F9C
:102640000E94B26BCC0FC82BD150DE30C1F78C2F5B
:10265000DF91CF9108950F931F93CF93DF93082FAE
:10266000C4EDD1E01AE0499124E0602F812F0E944F
:10267000C066155F1837B9F7DF91CF911F910F91A1
:1026800008951F93CF93DF93EC01162F0E94746679
:10269000BE0188E10E94A767111109C040E752E01E
:1026A00068E38CE10E94AD6745E553E002C046E671
:1026B00052E024E060E086E10E948767DF91CF91DD
:1026C0001F910C94C76A61E00C94411370E0882359
:1026D00099F090E0019725E0289FF001299FF00DE7
:1026E0001124E60FF71FEE0FFF1FE756FB4F808107
:1026F00091818B509E4F0895FB01EA54FC4F8081DD
:10270000992787FD909508951F93CF93DF93D82F36
:10271000162FC4E0DD2399F0612F8D2F0E946613E0
:102720009C01253F81E0380764F08BE0820F8D1714
:1027300010F08CE0820FC15029F0D82FEBCFC0E011
:1027400001C0CD2F8C2FDF91CF911F910895CF9392
:10275000C62F0E9484136C2FCF910C946613EF92B6
:10276000FF920F931F93CF93DF93EA019A012358AF
:102770003F4F7901062F10E0882319F10E9484133E
:102780008823F9F03BEFE316F10440F01C161D0618
:102790001CF4CDE7D0E002C0C3E8DFEF90E0019782
:1027A00025E0289FF001299FF00D1124E00FF11F73
:1027B000EE0FFF1FE756FB4FC55FD140D183C083AB
:1027C00010C08BEFE816F10440F01C161D061CF437
:1027D000CDE7D0E002C0C3E8DFEFF801EA54FC4FD8
:1027E000C08386E0DF91CF911F910F91FF90EF9012
:1027F0000C94D160AF92BF92CF92DF92EF92FF9292
:102800000F931F93CF93DF938C017B016A01A22E5C
:10281000B090B4019B2D9F7D943439F080916F0866
:10282000882309F495C0933461F4E801B19903C099
:10283000CC59DF4F01C0219683E10E94D47385E01B
:102840000EC0953419F0923409F087C0E801B199AF
:1028500082C0C456D10984E10E94D47384E00E94EE
:10286000B26B81116AC0E114F10401F581E0C81670
:10287000D104E1F480E6B81619F08EE2B81212C065
:1028800010926F08C1E00115110509F0C0E0D0E019
:102890008B2D0E94016C8EE2B81207C081E08093FC
:1028A000A50803C0C170DD2701C0B12C40914B01C8
:1028B00050914C01C41BD50B8091A508833071F455
:1028C0004091BD01B19905C084E64802A0011124E0
:1028D00003C0552747FD5095C40FD51FCC16DD0604
:1028E00044F48B2D0E94016C83E10E94D473E601B5
:1028F0000AC0CE15DF053CF48B2D0E94016C84E1EB
:102900000E94D473E701C017D107A1F0209751F4BA
:102910008B2D0E94F16B17FF02C083E101C084E19F
:102920000E94D4738A2D83700E94D16081E08093CD
:10293000530115C01092530112C0CC27DD27C01BD4
:10294000D10B85E00E94016C84E00E94016C8BCF6A
:10295000953419F47BCF21977ECFE80184CFCE0147
:10296000DF91CF911F910F91FF90EF90DF90CF906B
:10297000BF90AF900895552747FD5095772767FD85
:102980007095992787FD90950E94FA13089522E08B
:102990000C94BB14462F22E060E00C94BB14462F2D
:1029A00050E022E060E070E00C94FA1321E00C9417
:1029B000BB14462F21E060E00C94BB14E09155015C
:1029C000F0E0EE0FFF1FE85AFE4F808191810895DD
:1029D000E0915501F0E0EE0FFF1FEA5AFE4F9183A0
:1029E00080838FEB809354010895E6EAF8E0108E1F
:1029F000168A158A178A08958091DD052AEF829F2D
:102A0000C0011124880F991F209145013091460182
:102A10002817390720F490934601809345010895C3
:102A2000E5E5FEE037A1303180F420A541E0420F1A
:102A300040A7DF01A20FB11DA20FB11D8D939C9382
:102A4000403108F010A63F5F37A3089590E08C5FF7
:102A50009E4F0C94101590E00C9410158093BF01BC
:102A600090E040970C941015FC019091E40580A132
:102A700091FF74C091A1882311F0946001C09B7FE5
:102A800091A386A1813059F5C79A37A121A133239B
:102A900021F181A541E0480F41A7DF01A80FB11D39
:102AA000A80FB11D8D919C9195A384A3403108F08E
:102AB00011A6315037A397FD02C031E101C038E2C1
:102AC00033A32C7F97FD226021A381A18BBBC798E4
:102AD0008FE182A382E086A308952BBB48C08111B9
:102AE0000CC0C79A81A1836081A38BBB8091840DA8
:102AF0008D3308F43CC086E02FC0823009F438C022
:102B000081A18BBBC79ABF9800C0000000C086B3EC
:102B10008078BF9A96A1933049F4882329F083A145
:102B2000815083A3811123C084E016C0943021F426
:102B30008823E9F083E00EC0953039F483A18150F9
:102B400083A3811114C081E007C0963081F48823EB
:102B500071F084E183A385E086A309C09091E1052B
:102B600096FB992790F9891711F0C79A0895C7988D
:102B700008951BBA8FE18ABB00C099B38FEF8ABB5F
:102B8000E5EBF1E08781882311F080E202C0892F14
:102B9000807E8483292F207C8081281759F08074BF
:102BA000880F90783181891711F0315001C03F5F53
:102BB0003183208382819381891711F083838183FC
:102BC00008959091D90590FD02C093E08927E82FE0
:102BD000F0E0E156F74FE081E7FDE95FE595E59527
:102BE000E5951E1624F0EE2321F0E19502C080E861
:102BF00001C080E0E83008F0E7E0F0E0E25CFC4F84
:102C0000E491EE2319F099E0909360018E2B0895E2
:102C1000482F833021F0882321F0E82F03C0E0E023
:102C200001C0E3E0F0E0EE0FFF1FED5DFE4F80819D
:102C30009181443080F42091F60530E002C0359552
:102C400027954A95E2F720FF06C020E038E0A90169
:102C5000481B590BCA010895FF920F931F93CF93FE
:102C6000DF93F12CC0E0D0E08F2D0E940816092FD1
:102C700010E0C00FD11FF39484E0F812F5CFCE011D
:102C8000DF91CF911F910F91FF9008950E94081638
:102C90002091DB0520FF03C091958195910908954E
:102CA000E3E2F1E040E0842F806487B9369A3699F8
:102CB000FECF24B135B1369A3699FECF84B195B1A5
:102CC000820F931F819391934F5F483061F708956E
:102CD00078941F920F920FB60F9211248F938091C8
:102CE00022018F5F809322018F910F900FBE0F9072
:102CF0001F90189578941F920F920FB60F9211247F
:102D00002F938F939F93EF93FF93F89487B78F7BC5
:102D100087BF789420917E01809180019091E40595
:102D2000882359F090FF07C08091680F820F80932D
:102D3000680F87FF02C01B9A01C01B9891FF2AC031
:102D400080918009811126C0E5E5FEE086A18230F0
:102D500009F583A1882311F081501BC021A1C79AD6
:102D600082A180FD09C02D7F84A195A196FD2260DE
:102D7000880F991F95A384A381E082278BBB81A331
:102D8000C79882A1815082A3811104C083E086A3E9
:102D900085E083A3F89487B7806487BF7894FF9118
:102DA000EF919F918F912F910F900FBE0F901F90D9
:102DB000189578941F920F920FB60F9211242F93AB
:102DC0003F934F935F936F937F938F939F93AF93B3
:102DD000BF93EF93FF9381B7845681BF8CE791E057
:102DE0000E9409720E94106C0E9485788091C10D2A
:102DF00082608093C10DE2E0F1E08081815011F0AA
:102E0000808304C084E6808381E081838281815055
:102E100011F0828304C08AE0828381E08383FF9182
:102E2000EF91BF91AF919F918F917F916F915F9142
:102E30004F913F912F910F900FBE0F901F901895BB
:102E400078941F920F920FB60F9211242F933F93F5
:102E50004F935F936F937F938F939F93AF93BF93A2
:102E6000EF93FF932091800030918100F89480913E
:102E70007D008F7D80937D007894809117069091DE
:102E80001806A901481B590BCA01969587953093DE
:102E90001806209317069C01215A3F402F3D3E42C1
:102EA00020F481E0809333012CC0E09133012FEFB7
:102EB0002E0F283030F59C01215233402737354002
:102EC000F0F424E62093BE0121E02E0F209333017D
:102ED000F0E0EE0FFF1FEE5CFE4F9C012C5D3540D5
:102EE0004091DF05465F429FC001439F900D112432
:102EF0006AE070E00E948E7B7183608302C0109252
:102F00003301F89480917D00806280937D007894F5
:102F1000FF91EF91BF91AF919F918F917F916F91B1
:102F20005F914F913F912F910F900FBE0F901F9087
:102F3000189590E0880F991F8954914FFC01F894DF
:102F4000808191817894089584E00E94991720915E
:102F5000C4073091C507820F931F089592EC980F14
:102F600081E0973008F080E008959C0165E0359598
:102F700027956A95E1F7280F391FAC01440F452FBB
:102F8000441F550B241B350B892F990F990B8595E1
:102F9000820F931F08959DE7980F9B3F88F08E57EF
:102FA000E82FF0E0EE0FFF1FE557FB4F80818617FB
:102FB0001CF46083862F0895481714F44083842FEF
:102FC000089544E66CE90C94CB17982F8091E501A5
:102FD00084FF03C081E0923009F080E0089549E267
:102FE000840290011124359527953595279587FD05
:102FF000815C86FB880F880B80F9A901481B510969
:1030000087FD5395CA0108955F926F927F928F92C8
:103010009F92AF92BF92CF92DF92EF92FF920F9367
:103020001F93CF93DF93982E742E882309F4EBC05F
:1030300086E1981621F09AEE991203C0E6C081E06D
:10304000E5C086E189150CF4E0C0892D87FD8195E6
:103050008A3040F4825F0E94B26B19140CF4D6C01F
:1030600091E01BC08A50C82ED12C5601AA0CBB1C63
:10307000E501CC0DDD1DC65DDB4F8A818F7009F443
:10308000C4C094E0941758F4F601E95FF94F9081B9
:10309000917019140CF4B5C081E08927B7C068801D
:1030A00059800E941611811119C08FEF860D0E9460
:1030B0009A127C01888185326CF01BED812E880E7E
:1030C0006981882D0E941D218C01882D0E94F0208D
:1030D000882E19C089810E94EF170BC0823069F4D5
:1030E0008FEF860D0E949A127C01898181500E9487
:1030F0009A128C018824839406C08824839400E06B
:1031000010E0E12CF12C8A818F7090E0FC01319766
:10311000EE30F10508F068C0EA5BFF4F0C94E37BEA
:10312000F7FE33C0F194E194F1082FC0F7FE32C0EE
:10313000F194E194F1082EC001E0070D402F60E00A
:10314000862D0E940418182F402F60E0852D0E94C4
:103150000418982F2A812F70253031F4112309F497
:1031600043C081113FC040C0263019F411113AC04C
:1031700025C0912723C091E0E016F10679F41EC026
:1031800091E0E016F106D1F409C091E00E151F059B
:10319000ACF004C091E0E016F10684F090E00EC0BF
:1031A000F501ED59FE4F91819095991F9927991F2F
:1031B00005C0F601E95FF94F908191708820A1F078
:1031C000992399F08A8182958F7051F089300CF0A3
:1031D0008F5F41E0470D60E00E940418982F05C002
:1031E00091E003C08110EECF90E02A812F7030E093
:1031F0002C3031050CF04DCFF601E95FF94F90838B
:1032000048CF892F03C0862F01C080E0DF91CF9186
:103210001F910F91FF90EF90DF90CF90BF90AF90F4
:103220009F908F907F906F905F90089540E060E056
:103230008091C6050E940418811114C08091450137
:1032400090914601892B71F41092750E8091840D36
:1032500090911D06981751F080931D0685E59EE01C
:103260000C94341581E08093750EF0CF08951F9370
:10327000CF93DF938091D80580FD44C08091D9051C
:10328000817012E0181B0E945016E12FF0E0EE0F43
:10329000FF1FEB56FA4F418152818091DB0580FF81
:1032A00006C0519541955109258D368D02C027855F
:1032B0003089421B530BEA016096812F0E9446160B
:1032C000AE01612F0E94F91281111CC065E972E004
:1032D0008FE792E00E94D9120E94C76A0E94D21220
:1032E0000E9450160E941619A895812F0E9446161A
:1032F000AE01612F0E94F912811104C00E948A79E7
:10330000882371F3DF91CF911F910895CF93DF93BD
:10331000C62F2091D101222339F09093D3018093BD
:10332000D201DF91CF91089560E00E944113C11155
:1033300003C08091C30501C089E10E94916A67E1E1
:1033400082E10E94E0730E94D212D1E00E948A7949
:10335000882321F0DF91CF910C94D2128091C10D7E
:10336000833019F4A8951092C10DCC2319F0D09395
:10337000750E02C01092750E0E941619E7CF60E01C
:103380000C94861990915501911103C0811106C0CA
:103390000CC0811103C08FEF890F01C080E08093C2
:1033A00055018EEB80935401089589E592E00C94C9
:1033B000BF19E0915501E43020F08CE492E00C94C8
:1033C000BF192FEB20935401EF5FE0935501F0E01C
:1033D000EE0FFF1FEA5AFE4F9183808308958111FB
:1033E0000E94FC148091450190914601009709F0DC
:1033F000019720914401222361F02091E5054AEFD5
:10340000249F90011124220F331F8217930708F481
:10341000C90190934601809345010C941619CF92EF
:10342000DF92EF92FF920F931F93CF93DF938091E0
:10343000850D9091860D90911C06282F291B2093B5
:10344000470180931C0660E089E498E00E945A4F8F
:1034500080914701882309F4B6C2E6EAF8E087893B
:1034600080FF0DC0808D91E0980F908F943638F0DA
:103470008356808F858996890196968B858B80915E
:10348000BE01882319F081508093BE0180E00E9424
:103490002C610E9474660E94466B182F482F4F7053
:1034A000E42E5AEFE50EC091E601C43021F0C3309E
:1034B00019F4C4E001C0C8E087E08E1508F48EC09E
:1034C000812F807F803209F489C08E2D86950E94DD
:1034D00001119091F50590FD03C00FEF080F02C098
:1034E00004E0081B602F80916D060E948413F82E63
:1034F000602F0E94A7139C01C1110CC0EC0197FF23
:1035000004C0CC27DD27C81BD90BD595C795D59509
:10351000C795CF5F023061F48091E50180FF51C211
:1035200081E0C2E09091DB0590FF03C0C19501C02E
:1035300080E0DD27C7FDD095E0FE03C0C20FD31F9A
:1035400004C0A9014C1B5D0BEA01209721F09D2FBF
:10355000932797FF11C081110FC0232B69F040E022
:1035600050E0602F8F2D0E94AF13812F0E94016CBD
:1035700086E10E94D47331C09E0124583F4F293FF9
:10358000310548F4AE01602F8F2D0E94AF136C2FD0
:10359000C7FF17C015C01C161D061CF44DE750E0F0
:1035A00002C043E85FEF602F8F2D0E94AF13CE0162
:1035B00083589F4F8B3F910580F46C2F1C160CF4A1
:1035C000619567FD6D5F65956595772767FD7095DA
:1035D000645C7F4F85E10E94DA7310E0E9E4F1E07A
:1035E00080919D0890919E0820813181281B390B84
:1035F00037FF02C0215E3F4F65E0359527956A95FC
:10360000E1F72115310561F024813581281B390B43
:1036100037FF02C02F5F3F4F3595279591838083F9
:10362000958384838091DB0585FD04C080916B08C0
:10363000882311F020E030E033832283C5EBD1E012
:103640002D818981821B8F3F09F480E087FD8F5F88
:1036500085958887982F990F920F9D83812B0E94C3
:10366000EF198091F105895FE0915501F0E0EE0FCF
:10367000FF1FEA5AFE4F2081318126583A4409F053
:1036800044C028852223B1F09E81332727FD309541
:10369000290F311D97FD3A952E37310514F09DE71E
:1036A00005C023389FEF39071CF493E89E8301C0BF
:1036B0002E831886E09150049E2F907E31F1E29582
:1036C000E695E770F0E0E430F10554F4EE0FFF1FEB
:1036D000E956F74F208131813C5F60E078E00CC013
:1036E000EE0FFF1FE757FB4F2081332727FD309553
:1036F00023583F4F6AEF70E047E0429FC001439F6D
:10370000900D11240E947A7B862F9091BF0189131E
:103710000E942E158091E10587FF3BC080916101D9
:103720008823B9F1809160018823A9F180911B065B
:1037300087FD03C08F5F80931B0682E00E94E11526
:10374000982F9F7789F020911B06921720F51092F1
:103750001B06111120C0182F1095111F1127111FC2
:1037600083E6811B182F17C083E00E94E115982F74
:103770009F7789F020911B06921768F410921B0620
:10378000111109C0182F1095111F1127111F1C5955
:1037900002C01092600181E08093610100916D068A
:1037A000E090BB01FF24E7FCF094CCE8D4E09AE081
:1037B000C92ED12C6881662309F440C0653030F4ED
:1037C0006150802F0E94A713BC012BC0653041F1CE
:1037D000E62FF0E0EE0FFF1F6A3048F4EB57F74F8B
:1037E0006081718177FF0EC0695F7F4F0BC06D30C4
:1037F00078F4EB57F74F2081318137FF02C0295F02
:103800003F4FB901B3E075956795BA95E1F709C0E7
:10381000E95AF74F80819181B6010E948E7B01C0E9
:10382000B70163382FEF72072CF06D3771051CF06C
:103830006DE701C063E8FE0131976083229644E0A2
:10384000CA39D40709F0B6CF8091D2019091D30143
:103850000097B1F060E00E9441130E948A79909134
:103860001A06992339F0811125C01092D3011092C4
:10387000D20120C08823F1F081E080931A061AC09B
:1038800010921A06C0915401CC2331F010925401C9
:1038900087E10E94D4731C2F1093B401E09155016D
:1038A000F0E0EE0FFF1FEA5AFE4F0190F081E02D8D
:1038B000812F09950E94C76AC09165008CE791E04D
:1038C0000E94F571882311F084E105C080916A0F90
:1038D000882321F0815080936A0F06C08091630095
:1038E000869581708093690F8091690F8093D001D4
:1038F000882309F464C08091E10585FD60C0CF7E16
:10390000C09365008091840D8F71823009F054C09E
:103910008091310190913201AC01F4E0440F551FC8
:10392000FA95E1F797FD0796BC01E3E07595679579
:10393000EA95E1F72091C505332727FD30952A5FE9
:103940003F4F629FC001639F900D729F900D1124A5
:10395000840F951F2091DB0526FD05C060910001B5
:103960007091010102C060EF70E00E947A7B80914B
:103970004801680F711D6F5F7F4F75956795609364
:10398000480180911906805F80931906811114C047
:103990008091C405681780F4623370F06EE281E1B3
:1039A0000E94E0738091DB0583FF06C082E390E014
:1039B00090934601809345011092440104C0C06178
:1039C0009FCF80E0AFCDDF91CF911F910F91FF90FE
:1039D000EF90DF90CF9008951F93CF93DF93C1EACC
:1039E000D4E090E0888111E0190F882341F040E095
:1039F00060E00E940418882311F0812F05C0912FE8
:103A00002A96143079F780E0DF91CF911F910895C5
:103A10008F929F92AF92BF92CF92DF92EF92FF92DE
:103A20000F931F93CF93DF931092A40880912201EC
:103A3000C2B7909122018913F9CFD0E0D82B8091A1
:103A400050048F7130E1D32ED81A0E9450161EE513
:103A500017B90E94B9150E940F1A17B9369A3699EC
:103A6000FECF84B195B104964091000150910101BF
:103A700067E0649F9001659F300D1124820F931FB2
:103A800023E0969587952A95E1F79093010180931D
:103A900000018091C10D833019F4A8951092C10DD9
:103AA0002091220182B7909122012913F9CF90E051
:103AB000922B8C1B9D0B20910A0130910B01281732
:103AC000390720F490930B0180930A01809105013E
:103AD000882309F490C180911506909116060196ED
:103AE0009093160680931506BD2CFFE0FB1508F495
:103AF00075C00B2D10E0E801CC0FDD1FCF5ADB4F56
:103B00008881E82EE294E69497E0E922F98095E036
:103B10009E1550F0EAEFEF1538F4EF2DF0E0EE0FC0
:103B2000FF1FE556FD4FF0808F7109F455C040E04E
:103B300060E00E940418A82E8091050100541E4FD9
:103B400081FD48C08E2D857051F4F801808181116E
:103B500006C0AA2021F08F2D90E00E9410158FEF53
:103B60008E0D823058F4F8018081813099F5A110D2
:103B700031C0F2E0EF122AC0F39428C085E08E1520
:103B800050F4F8018081811125C0AA2019F18981A2
:103B90000E94F3211FC0F2E0FE15E0F4AA20D1F04C
:103BA00084E0E81631F095E0E91631F066E970E05E
:103BB00005C06CE271E002C068E572E08091150614
:103BC000909116060E947A7B892B21F48F2D90E02C
:103BD0000E941015F801A082B39487CF0AE214E086
:103BE000E7E08E2EE6E09E2EF3E6AF2EF1E0BF2E4C
:103BF000E12CF12CF801C2808C2D8F700E941611DF
:103C0000833009F03EC0F501C081D181209771F465
:103C1000F801C081C7FD06C0C095FAE0CF02E001FF
:103C200011241BC0DD27C7FDD09517C0D7FF14C0D6
:103C3000219699F4F701E55DFB4FC081C7FD06C0F1
:103C4000CF5F8AE0C802E001112406C0DD27C7FD6E
:103C5000D095C095D09501C021978C2D807F71F0B3
:103C60008C2D82958F7089300CF08F5F40E060E082
:103C70000E940418811102C0CFEFDFEFF501D1835C
:103C8000C083F401C081F80182818F708C30A1F46F
:103C900040E060E080810E94041881110CC040E087
:103CA00060E0F701E55DFB4F80810E9404188823E6
:103CB00019F0C0E001C0C1E0F80182818F708D3041
:103CC000C1F440E060E080810E940418882371F014
:103CD000C1FD0FC040E060E0F701E55DFB4F808172
:103CE0000E940418882321F0C3E003C0CD7F01C0E7
:103CF000C2E0F401C1934F010D5F1F4FF3E0EF0EDF
:103D0000F11C82E0A80EB11C94E2E916F10409F05E
:103D100071CF109205018091C104882309F46BC012
:103D200040E060E08091C2040E940418882309F4F6
:103D300062C080911406882319F081508093140684
:103D400080911406811157C08091C104813081F4A3
:103D500087E20E949917EC016091C304669566950D
:103D600070E062307105D4F00E948E7BEB0116C0CA
:103D700081E00E949917805891099C012E5F3F4F66
:103D80002530310510F480E090E02091C3042695A1
:103D90002695289FE001299FD00D11242097C9F076
:103DA000D7FF09C0D195C195D1098091C30480FD89
:103DB00005C082E201C081E20E94D473CB34D105F8
:103DC0008CF0CD37D10584F0CF3AD1057CF484E076
:103DD00010C08091C30480FD0BC081E20E94D473A7
:103DE00084E107C088E005C086E003C082E001C02E
:103DF00080E08093140680910301882309F4A3C016
:103E00008091390F882319F16091860E27E83EE0F2
:103E1000F9014CED80E090E05E2F521B561738F40C
:103E20005191850F911D5417B8F7452FF5CF65E0D7
:103E300070E00E947A7B7093020F6093010F4C3DFB
:103E400031F0842F90E09093FE0E8093FD0E209130
:103E500013062F5E822F8F7090E00C970CF0207F5E
:103E600020931306C4EDD1E0F12CE22FE073EE2E87
:103E7000F22FFF70BF2E822F8077A82E207F922EE8
:103E8000FD1409F457C08E0103581D4FF8018081BD
:103E9000982F907C9034C1F4E11016C0880F880FE1
:103EA00040E060E0859585950E940418882361F0C4
:103EB0008091E40580FF05C0FE01E258FD4F80813E
:103EC00001C081E00E94D473F8018081982F907C1A
:103ED000903869F5880F880F859585958731BCF0F6
:103EE0008751813039F018F0823039F020C0A110AC
:103EF0001EC006C0B1101BC003C0F0E29F1217C065
:103F0000FE01E258FD4F80810E94F32110C0E110B4
:103F10000EC040E060E00E940418882341F0FE01DA
:103F2000E258FD4F8081805890E00E941015F39474
:103F30002296A6CF1092030180916001882319F088
:103F4000815080936001DF91CF911F910F91FF907D
:103F5000EF90DF90CF90BF90AF909F908F9008959B
:103F6000282F30E0883058F02850310949E0429F2E
:103F7000C001439F900D11248E519C4F089545E040
:103F8000429FC001439F900D112486549C4F089579
:103F9000CF93DF93D82F9091BF0DC92FC17090FFA1
:103FA00003C069E97EE002C067E87EE088E10E9424
:103FB000A767D13629F41092BF0D80E00E94C21984
:103FC000C11109C04091BB0E5091BC0E24E060E3CA
:103FD00088E40E94A66980910909815080930909AB
:103FE000811103C081E00E94D473DF91CF910895C5
:103FF000813649F40E94016C81E00E94C21986EC6E
:1040000090E50E94D9196AE67FE080E10E94A767E7
:1040100065E57FE080E20C94A767FF920F931F9302
:10402000CF93DF93182FF62E0AE08AE0189FE00165
:104030001124C251DE4F2FE130E0211B3109029FD4
:10404000A001039F500D1124BE01CE010A960E94CB
:10405000047CFF2049F0BE016A5071094AE050E03B
:10406000CE010E94047C0DC0FE0111920A95E9F771
:1040700080911A098883898384E68A838F81886086
:104080008F8310931C09DF91CF911F910F91FF90A7
:1040900008959C01220F331F280F391F959587958E
:1040A00095958795280F391F9595879595958795AF
:1040B00095958795820F931F0895429643E7489FF1
:1040C0009001499F300D1124C901E6E0959587952F
:1040D000EA95E1F70895CF92DF92EF92FF920F9366
:1040E0001F93CF93DF937B018A01D090A40895E0C2
:1040F0009D1508F46AC091E09D0D9093A408EBE033
:104100008E9FE0011124C95EDA4F88818823A1F0D7
:1041100081500E949A129C01442737FD4095542FEC
:1041200068816552623058F440E050E00E94041209
:104130009C0140E050E003C020E030E0A901D092B3
:10414000A408DE80FD2DF870CF2ED3FC0AC0898133
:104150009A81AA2797FDA095BA2F280F391F4A1FC9
:104160005B1FAB81B0E011960E94547B2C8130E044
:104170002F5F3F4F442737FD4095542F0E94C47B4B
:10418000CC2051F089819A81AA2797FDA095BA2F5A
:10419000280F391F4A1F5B1FD0FE07C0509540955E
:1041A000309521953F4F4F4F5F4FE114F10419F0C7
:1041B0008D81F70180830115110529F08E81869587
:1041C0008370F8018083C90102C080E090E0DF9134
:1041D000CF911F910F91FF90EF90DF90CF900895B6
:1041E00090E0FC01E750FB4EE491E330A9F48597A1
:1041F0002BE0289FF001299FF00D1124E95EFA4F72
:10420000E0818FEF8E0F8432B0F0E550F0E0E750A0
:10421000FB4EE491E33079F0EE2369F0E13021F4D4
:1042200080913A0F811107C081E09091390F91116F
:1042300003C080E0089581E00895E82FF0E0E65D96
:10424000F94EE491262F332727FD3095C901835875
:104250009F4FEC3009F44AC09CF4E43021F14CF457
:10426000E53F09F454C00CF45CC0EE5FE230C8F0E6
:104270000895E630C1F00CF454C0EA30FCF508951E
:10428000E43209F43FC044F4EE300CF44AC0E031AB
:10429000CCF1E332C9F10895E732B4F1E732E9F144
:1042A00008952AE024C0803491059CF0880F991F5E
:1042B00080549109813C910564F0880F991F805CBE
:1042C0009109813C51E0950724F0880F991F885E81
:1042D00091402AE0AC01249FC001259F900D11243C
:1042E0002091E00125FF1DC00C94492024E6AC017B
:1042F000249FC001259F900D11240895C901815A62
:104300009F4F089522E3F3CF880F991F0895F3E09C
:10431000880F991FFA95E1F708955AE06502C001E8
:1043200011240895CF93DF93E82FF0E0E65DF94E76
:104330008491853FC9F486E20E949917EC0180E2DE
:104340000E949917D595C7959C0135952795C29FD1
:10435000C001C39F900DD29F900D112469E170E0C0
:104360000E948E7BCB013CC0863F4CF440E050E085
:1043700060E070E0815FDF91CF910C946B208D3F06
:1043800054F4E82FEE0FFF0BE156FB4F8081992785
:1043900087FD909525C08F3F09F044F48E3F84F44B
:1043A0008D3FD1F48091480190E01AC0843081F0B3
:1043B000833291F483E20E949917880F991F10C0ED
:1043C000E82FEE0FFF0BE655F74F8389948908C05D
:1043D000DF91CF910C94A417DF91CF910C94991792
:1043E000DF91CF910895CF92DF92EF92FF921F93CA
:1043F000CF93DF9300D0CDB7DEB7D82E1A821982C3
:104400000E9492217C018D2D0E94F020811105C017
:104410008AE30E942B1511E001C010E0ED2DF0E0C1
:10442000E65DF94E8491482F552747FD5095652F3D
:10443000752FFA013F96E733F10508F07BC0EC5A7F
:10444000FF4F0C94E37BAE014F5F5F4FBE016E5F89
:104450007F4F815F0E946B207C01EA81F0E0EC5A83
:10446000FA4EE491EA8366C084E28A8347C084E21C
:104470008A8382E089835EC06CE370E0C7010E949A
:104480008E7B6B017C0146E260E0C6010E94E9730D
:1044900085E346C0E82FEE0FFF0BE156FB4FE080AF
:1044A000FF24E7FCF09446C0AE014F5F5F4F682FDA
:1044B0008E2D0E9404127C0184E28A838091620125
:1044C000813401F18130B1F51A8234C088E38A83E6
:1044D0009091E001892F807293FF03C0882349F0F7
:1044E00006C0882331F0C7010E9449207C0188E181
:1044F0008A8388EEE81683E0F806B4F481E0BACF48
:1045000081E0898383E30CC08FE28A838091E0019C
:1045100085FF10C0C7010E945D207C010BC08BE3AA
:104520008A8308C081E08983C7016AE070E00E9445
:104530008E7B7B01111105C04A816981C7010E94F0
:10454000E9730F900F90DF91CF911F91FF90EF9043
:10455000DF90CF9008957F928F929F92AF92BF92FB
:10456000CF92DF92EF92FF920F931F93CF93DF933F
:1045700000D0CDB7DEB7F82EB62E6901102F80E23D
:104580008A83E42FFF27E7FDF095E65DF94EA490BE
:104590008E2D8170882EE0FE23C0AFE0AA0DA430DE
:1045A00008F008C18BE0A89FD0011124FD01E25E54
:1045B000FA4F8081882309F4FDC0AF0100E124E0B7
:1045C0008F2D0E944E6712FD04C0E8E19E2E9F0CC5
:1045D00008C07CE1972E9F0C88EFB80E0CE002C05B
:1045E0009F2C06E08E2D8870782EE3FC1F7B84E0E4
:1045F000A81609F493C08A15DCF08DEFA81609F40B
:10460000A5C08A1564F081EFA8160CF4A9C084EF48
:104610008A1594F585EFA812A3C087E799C08FEF9C
:104620008A150CF045C081E08A150CF058C098C07E
:1046300080E2A81609F487C08A156CF086E0A816F7
:1046400009F46CC0A8160CF48BC0E6EFEA0DE2305A
:1046500008F456C085C086E28A154CF085E2A8169B
:104660000CF074C083E2A8127BC0106370C087E2B4
:10467000A81276C010626EC0AE014F5F5F4FBE01E0
:104680006E5F7F4F8FE08A0D0E946B202981213061
:1046900011F4106203C0223009F41063EA81F0E0E3
:1046A000E45BFA4EE491EA83E7FCC6016C0158C072
:1046B00012FD02C08CEF980E882011F08AE0980E4F
:1046C0001770012F212FA6016B2D8AEF890D0E94F3
:1046D000E269E3E3EA0DEA838AEFF80E4AC0912F1C
:1046E00090684C2D772019F08DE38F0D02C0892D35
:1046F000801B092F2A2D6B2D0E944C128A8339C0F2
:1047000083E48A838091E00185FF2AC0C6010E946C
:104710005D206C0186E48A83901A22C08DE68A832C
:104720008091E00185FF08C083FD04C0C6010E949E
:1047300049206C0186E68A8388EEC81683E0D80695
:104740004CF410620DC0106281E402C0106286E772
:104750008A8306C0C6016AE070E00E948E7B6B010E
:10476000772091F18DE38F0D212FA6016B2D0E94F3
:10477000A6698E2D867069F0E2FE04C08AE08F0D76
:104780001B7F02C08091830D212F4A816B2D0E94D7
:10479000C0668A810F900F90DF91CF911F910F918A
:1047A000FF90EF90DF90CF90BF90AF909F908F9051
:1047B0007F90089521E0240F00E043E556E16B2D42
:1047C0008F2D0E947367FFCE892DCECF0F931F933D
:1047D000CF93DF93C82FD62F042F122F46EF54E12B
:1047E0000E94876740E3400F212F6D2F8CE08C0FD4
:1047F000DF91CF911F910F910C94C066DF92EF92E1
:10480000FF920F931F93CF93DF93182FF62EC42F91
:10481000D22EDE2DD370A1F08091B401803881F4C6
:104820008DE7840F8B3F40F0E42FF0E0EE0FFF1F89
:10483000E157FC4FC08101C0CEE782E00E94D16009
:104840008DE78C0F2E2D8B3F98F043E84C0F6F2D8A
:104850008EEE810F0E94E623DD23D1F022E042E8B4
:1048600050E06EE770E08C2F90E00E94FA130FC0CA
:104870004C2F552747FD50956F2D812F0E94A6691B
:10488000DD2331F0402F6D2D8C2F0E94C714C82FCF
:104890008C2FDF91CF911F910F91FF90EF90DF90C0
:1048A0000895CF93DF939EE0899FE0011124C258C1
:1048B000DC4F40E060E08C850E940418882349F0BA
:1048C00040E060E08D850E940418811104C081E001
:1048D00003C080E001C082E0DF91CF910895EF92A4
:1048E000FF920F931F93CF93DF93F82EE62EC42FE2
:1048F000D42FD695062F0D1B182F1D1B602F812F2F
:104900000E9452686D2F6E0D4C2F812F0E944F68B0
:104910004C2F602F8D2F8F0D0E9452684C2F602FCF
:10492000812FDF91CF911F910F91FF90EF900C9409
:104930004F6821E0AC0160E080E00C9487670F9342
:104940001F93CF93DF93182FC6EAD8E087E79BE049
:104950000E949924113678F0133628F0133659F452
:104960008AE895E202C086E89AE4DF91CF911F9130
:104970000F910C94E8146EE67BE088E00E94A76734
:104980004A815B8100E020E068E08AE20E94E269FF
:104990004C815D8120E068E08EE40E94E26965E67A
:1049A0007BE080E10E94A7674E815F8120E060E1AB
:1049B0008AE20E94E26948855985B4E05695479598
:1049C000BA95E1F720E060E18EE40E94E26960E6DA
:1049D0007BE080E00E94A7674881598120E060E089
:1049E0008EE40E94E2694EE76CE382E00E944F6829
:1049F00043E26CE185E00E945268CBE043E06BE368
:104A00008C2F0E945268CA5FC338C1F71091C70744
:104A10008091C607893710F4C0E001C0C12FD6E0ED
:104A20000CE3EC2FF0E0E853F84F4081602F641B5B
:104A30008D2F0E945268CF5FC83708F0C0E0C117C1
:104A400019F0DF5FDE3769F7DF91CF911F910F918A
:104A50000895222319F02091690801C020E0442321
:104A600019F04EE753E002C042E853E00C94876728
:104A70000F93222319F00091690801C000E0242F50
:104A80004DEC53E10E9473670F910895FF920F93CD
:104A90001F93CF93DF93182FEA01F22E0E94A7678E
:104AA0002F2DAE01612F802FDF91CF911F910F919C
:104AB000FF900C94A669EF92FF920F931F93CF93F0
:104AC000DF93E82EF62E142FE901662329F06FE01C
:104AD000842F0E94CA14182F8091E501412F83FF73
:104AE00004C0440F8F2D8062F82E50E000E62F2D79
:104AF000BE018E2D0E944625812FDF91CF911F91FF
:104B00000F91FF90EF9008950F9304E50E944625C2
:104B10000F9108951F93CF93DF93182FC8E0D1E032
:104B200085EC9BE00E9499241136A1F058F41036D0
:104B3000C1F48FEF888319821B821A8287E10E9459
:104B4000D4730FC0123619F0133621F00AC08FE962
:104B500094E202C086E89AE4DF91CF911F910C9411
:104B6000E8144981469550E020E066EB7BE088E060
:104B70000E9484254881469550E020E067EA7BE06A
:104B800080E10E94842549818881481B469550E038
:104B900020E068E97BE088E10E9484258A819B818E
:104BA00029E1289FA001299F500D11245695479572
:104BB0005695479520E36FE87BE080E20E948425CC
:104BC0006CE77BE088E3DF91CF911F910C94A7679E
:104BD0007F928F929F92AF92BF92CF92DF92EF928D
:104BE000FF920F931F93CF93DF93EC01162FD42ED8
:104BF0004901B09048084091990850919A08209135
:104C00009B0830919C08E9E4F1E086819781841B40
:104C1000950B97FDCF96A6E095958795AA95E1F718
:104C2000682F80936C0880859185821B930B97FD7C
:104C3000CF9676E0959587957A95E1F7982F8093B2
:104C40006A08662311F057834683992311F0318750
:104C5000208780916B08811104C08091DB0585FF5E
:104C600006C010926C0810926A0810926B0880912E
:104C70006C08811108C080916A08811104C082818A
:104C80009381892B11F00E94FC148114910429F066
:104C90008881882309F4B8C18CC18091A50881114D
:104CA00003C081E08093A508E114F10451F09881DC
:104CB0008C2D9C1508F4892FF701E80FF11DE49164
:104CC00001C0E0E08FEFA81609F43FC08091A5086D
:104CD000813081F58091BD0118166CF4BE1610F478
:104CE000B39411F588818A1518F48F5F888301C009
:104CF0001882B12C19C08823B9F0B11014C0888172
:104D0000882319F08150888301C0A882E114F1043E
:104D100059F098818C2D9C1508F4892FF701E80F24
:104D2000F11DB49001C0BA941092BD011E3269F415
:104D300083E009C0833049F41E3221F080916F086E
:104D4000811103C081E08093A508E114F10451F0C2
:104D500098818C2D9C1508F4892FF701E80FF11D1F
:104D6000549101C050E080916F08811145C080913D
:104D70006A08882301F14881481B47FD40E08A2DDD
:104D800090E0242F332727FD3095281739070CF0A2
:104D90004A2D4883E114F10459F0C41608F44C2D4F
:104DA000F701E40FF11DE491EB1518F4BE2E01C0DC
:104DB000B12C10926A0828812223F1F080916C08AE
:104DC0008823D1F0B81AB7FCB12C8B2D992787FD19
:104DD0009095E114F10479F03C2D2C1508F4322F54
:104DE000F701E30FF11DE4912E2F30E082179307B6
:104DF0001CF0BE2E01C0B12C103679F198F412349B
:104E000009F483C030F4113209F442C01E3229F192
:104E1000A6C0143409F453C008F485C0153409F44D
:104E20005FC09DC0153609F45FC048F4133609F41D
:104E30007DC008F047C0123609F46AC090C01E3821
:104E400021F11F3B31F0113809F089C010926F0831
:104E50002DC0188210926F0845C08881811103C04F
:104E6000892809F07CC08FEFA81609F478C081E08A
:104E700090916F08911180E080936F08882309F466
:104E80006EC083E08093A5086AC08EE80E94016C22
:104E900080916F08882319F010926F0860C0888194
:104EA000882311F0892831F41092A50880E00E942F
:104EB000C21955C087E10E94D473188250C0B5163C
:104EC00009F44DC0E114F10409F449C080916F0860
:104ED000811145C0B51610F4B39412C0B12C10C0A6
:104EE000B11002C0B12C3BC0E114F104C1F18091BA
:104EF0006F08811134C0BB2011F0BA9401C0B52EE7
:104F0000552369F11092B4012AC088818A1539F1BC
:104F100080916F08811123C088818A1510F48F5FFA
:104F20000DC018820EC088818823C9F080916F0857
:104F3000811115C08881882319F08150888301C0B0
:104F4000A882E114F10471F288818C1508F4C82E4E
:104F5000F701EC0DF11DE491EB1508F4BE2E209144
:104F60006F0821110AC031E080914B0190914C01F2
:104F7000892B09F430E0832F01C081E080936E0813
:104F8000B0924808EF2811F482E003C02111FCCF51
:104F900081E080936908DF91CF911F910F91FF907D
:104FA000EF90DF90CF90BF90AF909F908F907F90C9
:104FB000089580916F08811103C081E08093A50856
:104FC000712C8091A508811102C082E0782E402FBB
:104FD00050E0272D60E08FE70E94A6690A3010F0AC
:104FE0000FE601C005E7272D4FE260E0802F0E9409
:104FF000C0664D2D50E04F5F5F4F272D60E08FEF73
:10500000800F0E94A66950CE8091A508811111C021
:105010008091BD01181624F0882319F015E601C00F
:1050200014E61092BD011E3259F481E08093A50868
:1050300006C0813029F41E3219F41092A50810E040
:1050400080916C08882311F190916F0891111EC016
:10505000ED2DE81BE7FDE0E0202F30E08E2F9927B3
:1050600087FD90958217930714F0EFEFE00FFF276D
:10507000E7FDF0958D2D90E0E817F90729F0EE0F88
:10508000FF1FE80DF91D21C010926C08153651F470
:10509000D11001C0D02EF401ED0DF11DED0DF11D6B
:1050A000329713C0143611F52D2D30E0802F90E08B
:1050B0000197281739071CF411E01D0D01C010E0FD
:1050C000810E911C810E911CF40185919491DF91C8
:1050D000CF911F910F91FF90EF90DF90CF90BF90F5
:1050E000AF909F908F907F900C94E81477247394E6
:1050F00068CFAF92CF92EF92FF920F93AE2CC12C5C
:10510000E12CF12C0E94E8250F91FF90EF90CF90B9
:10511000AF900895AF92CF92EF92FF920F93A02E8F
:10512000C22E7A0100E020E030E040E00E94E82555
:105130000F91FF90EF90CF90AF9008958F929F9234
:10514000AF92BF92CF92DF92EF92FF920F931F9395
:10515000CF93DF93C82F8CE893E10E94992483E0DA
:10516000A82ECC24C3949AE8E92E93E1F92E0CE002
:1051700023E934E149E06C2F82E199E00E94E825BF
:10518000B0901209C0904808A090690861E873E1E6
:1051900088E00E94A7678091E00183FB882780F95F
:1051A00091E0B9120DC0C1100BC061E00E94CA1499
:1051B0009091E00180FB93F99093E00101E001C040
:1051C00000E0282F45E753E168E08CE30E94736715
:1051D0008091E00185FB882780F9E1E0BE120DC0D7
:1051E000CE120BC061E00E94CA149091E00180FBD6
:1051F00095F99093E00101E001C000E0282F4DE611
:1052000053E168E080E60E947367C1E7D4E011E2F1
:10521000E12E1FE0F12E02E0D02E10E1FA2DF06811
:105220008F2E64E673E1812F0E94A767BEEF9B2E4D
:105230009D0C4FE24D0D612F86E00E944B67BD1023
:1052400004C0C11002C0082D01C000E8292D4FEF95
:10525000612F80E60E944C1200E8292DF701408161
:10526000612F8EE70E944C12BD1003C0F1E0CF16F3
:1052700011F000E001C00A2D2B812295269526957C
:1052800023704EE553E1612F80E60E947367BD10E5
:1052900020C080916E088823E1F0CC20A1F081E04D
:1052A000C81217C08B8163E08295869586958370BE
:1052B0000E94CA148295880F880F807C9B819F73FF
:1052C000982B9B8306C088816FEF90E00E94CF14DB
:1052D0008883D394185F249696E0E90EF11C10326F
:1052E00009F09FCFDF91CF911F910F91FF90EF9029
:1052F000DF90CF90BF90AF909F908F900895AF9226
:10530000BF92CF92DF92EF92FF920F931F93CF93B2
:10531000DF93D82F81E392E10E9499247BE0A72EAE
:10532000E8E0CE2EF8E2EF2EF2E1FF2E0CE023E9CA
:1053300034E14BE06D2F8FE099E00E94E825C091A9
:105340000F09A0904808DE3211F0D036A9F4C83019
:1053500038F4EE24E394F12C18E0CC2ED12C10C0BC
:1053600088EF8C0F80931F098D2F0E94016C84EDB4
:1053700092E50E94D9195FC0C83008F05CC0E9CF3F
:1053800066EF74E1812F0E94A76740E34E0D612F05
:105390008CE00E944B67E701CC0FDD1FC757DB4F46
:1053A000B12CCE14DF0459F4AB1009C00091690888
:1053B000002331F080916F08811104C001C000E02A
:1053C00080E001C081E0B1100FC0882329F06CE1BA
:1053D00089810E94CA14898329814FEC51E1612F90
:1053E00088E40E94736711C0882331F04DE763E8B9
:1053F00088810E94C71488834881552747FD5095AE
:10540000202F612F8CE60E94A669B39482E0B81227
:10541000C8CF185F8FEFE81AF80A103409F0B0CF40
:10542000DF91CF911F910F91FF90EF90DF90CF9080
:10543000BF90AF90089528EFC22ECC0E07E115E083
:1054400031E3E32E48E0F42E66EC71E18F2D0E94EB
:10545000A7674E2D6F2D8CE00E944B67E80120E07E
:1054600048816F2D88E10E942A1149815A8120E0EC
:105470006F2D8BE40E94A6694B8150E04F5F5F4F18
:1054800020E06F2D80E60E94A6694C8150E04F5FBE
:105490005F4F20E06F2D8EE70E94A66988E0F80E2E
:1054A000E394055F1F4F88E2F812CECF6C2D660F94
:1054B000660F660F685F20E04EE780E0DF91CF91D6
:1054C0001F910F91FF90EF90DF90CF90BF90AF9022
:1054D0000C94D5671F93CF93DF93C82FD62F142F2B
:1054E00047E16CE20E946F2443E06BE28C2F0E9444
:1054F000526843E06CE28FEF8C0F0E944F68812F5F
:1055000069EF0E946C7B282F245D8D2F67E00E943D
:105510006C7B45E0622F8C0FDF91CF911F910C9433
:105520006F24CF92DF92EF92FF920F931F93CF934E
:10553000DF93CFE9D8E0498168818AE20E946A2A34
:105540004A816B8186E50E946A2AC1E9D8E02896E3
:10555000AAE3FA2E0DE510E0B7E3CB2E89919991DD
:105560009C5FB8010E948E7BDD24D394D60EEC2C78
:10557000E61A4D2D6E2D8F2D0E9452684D2D6E2DE9
:1055800081E08F0D0E9452684D2D6E2D82E08F0DAF
:105590000E94526885E0F80E89E4F812DFCFDF91AF
:1055A000CF911F910F91FF90EF90DF90CF900895D2
:1055B000EF92FF920F931F93CF93DF93182FF62E46
:1055C000EA01E22E202FEE2029F041E060E00E9467
:1055D000BB14182FBE018F2D0E94A7672E2D412FBF
:1055E0006F2D86E60E942925812FDF91CF911F9193
:1055F0000F91FF90EF9008950F9301E00E94D82A39
:105600000F910895CF93C1E09C2F981B892F0E9482
:10561000FC2AC81B8C2FCF9108950F9302E00E94A3
:10562000D82A0F9108951F93CF93DF93D62F122F6F
:105630000E940D2BC82F212F482F6D2F86E60E9428
:1056400038258C2FDF91CF911F910895AF92CF9283
:10565000EF92FF920F93CF93DF93C82F8AE39CE0E2
:105660000E949924D6E0AD2EC12C09E3E02E0CE077
:10567000F02E0CE023E934E141E06C2F85E099E065
:105680000E94E825C0910509D091EA01D295D695EE
:10569000D7706FE27CE088E00E94A767C13089F490
:1056A00064E08D2F0E94CA14D82F982F9295990FDD
:1056B000907E8091EA018F71892B8093EA0101E04D
:1056C00001C000E02D2F4FE05CE068E08AE50E9419
:1056D000736765E07CE080E10E94A767C23049F40F
:1056E00064E28091EB010E94CA148093EB0121E0F7
:1056F00001C020E04091EB0160E184E50E942A11A5
:10570000C33049F464E68091EC010E94CA1480938E
:10571000EC0121E401C020E44091EC0150E06CEF89
:105720007BE088E10E94842521E0C43009F020E07C
:105730008091EA0141EF5BE060E282FB882780F91B
:105740000E94132B9091EA0180FB92F99093EA0159
:1057500021E0C53009F020E08091EA0146EE5BE0EF
:1057600068E283FB882780F90E94132B9091EA015D
:1057700080FB93F99093EA0121E0C63009F020E024
:105780008091EA014BED5BE060E3829581700E94BD
:10579000132B9091EA0180FB94F99093EA01DF9139
:1057A000CF910F91FF90EF90CF90AF9008950F930E
:1057B0001F93CF93DF93142F022FC42FD0E0AE019D
:1057C0004F5F5F4F0E948425002329F06FEFCE01C9
:1057D0000E94CF14182F812FDF91CF911F910F912D
:1057E0000895CF93482FCAE02AE0829FC001112478
:1057F00082519E4F2FE130E0241B3109C29FA0014E
:10580000C39F500D1124BC01665F7F4F0E94047C32
:10581000E4E2F3E0DF011D92CA95E9F782E00E941D
:10582000D160CF910C94D9610F93CF93C42F0E9474
:105830006911002331F046E16AEE8C2F0E94C714F3
:10584000C82F8C2FCF910F9108957F928F929F92A6
:10585000AF92BF92CF92DF92EF92FF920F931F937E
:10586000CF93DF93C82F82E593E10E949924A1E1B1
:10587000AA2EB3E0CB2EDEE4ED2ED3E1FD2E0CE01C
:1058800023E934E14AE06C2F81E199E00E94E825A8
:105890001091110980904808C23288F0C63230F069
:1058A000CF3B69F48091800E806407C080916F08BF
:1058B000882329F08091800E80638093800E709001
:1058C0006908163008F0A3C077E1A72E7FE0B72E55
:1058D000E5E1CE2EEFE0DE2EE501FF24F394F8E0C3
:1058E0009F2E63E473E1892D0E94A7678C2F8A198C
:1058F000813029F460E473E1892D0E94A7671F11AC
:1059000002C0882011F000E001C0072DF6012081BF
:1059100048EC55E1692D82E40E9473671F1103C0B2
:10592000F1E08F1611F000E001C0072D288130E072
:1059300040E050E063E0E62E692D86E60E9496681E
:105940001F1116C080916E08882391F0811008C045
:1059500063E0F60180810E94CA14F601808308C0CA
:10596000F1E08F1205C068E788810E94CA1488831D
:10597000F39488E0980E21969FEFC91AD90AE3E0C4
:10598000FE12AFCF80917A0490E0133051F4C091B1
:105990006908CC2339F068EC0E94CF1480937A0414
:1059A00001C0C0E0AC0126E0440F551F2A95E1F785
:1059B0002C2F66E373E188E10E948425143051F4B2
:1059C0004FE761E080917C040E94C71480937C04BF
:1059D00021E001C020E040917C0450E069E273E1E5
:1059E00080E20E94842521E0153009F020E08091BA
:1059F000E0014AE153E168E2829581700E940D2B3B
:105A00009091E00180FB94F99093E001CCC01C30B0
:105A100028F56AE073E188E00E94A767C5E8D4E052
:105A200080E1F82E96E0D92EDC1A8C2F8D0D1813FC
:105A300007C069E288810E94CA14888301E001C01E
:105A400000E0299143E556E16F2D80E00E947367E5
:105A500088E0F80E90E4F912E8CFA5C01C3089F474
:105A6000809179046FE082958F700E94CA148295AC
:105A7000807F909179049F70982B9093790421E214
:105A800001C020E24091790442954F7050E06FEFE1
:105A900072E188E00E948425D0E1D12CFF24F394A8
:105AA000C1E08DE08D0D1813C0E0D11014C061EF7E
:105AB00072E180E10E94A767CC2339F062E0809117
:105AC000C1040E94CA148093C1040C2F2091C10408
:105AD00043EE52E15FC0E1E0DE1210C069ED72E119
