:100000000C94B90E0C94E10E0C94E10E0C94E10EDC
:100010000C94E10E0C94E10E0C94E10E0C94E10EA4
:100020000C94E10E0C94E10E0C94E10E0C9401641E
:100030000C94B2670C942E640C94E10E0C94F4169C
:100040000C94E2160C94E10E0C94E10E0C94E10E6B
:100050000C94E10E0C94E10E0C94E10E0C94E10E64
:100060000C9472670C94A0170C9498640C944267DB
:100070000C94E10E0C94E10E0C94E10E0C94E10E44
:100080000C94E10E0C94E10E0C94E10E506956694B
:1000900063696C6982699B69AE69BD69D169E6690A
:1000A000EF690C6A126A1A6A1F6A246A8D6A976A73
:1000B0002C6A336A3D6A476A4E6A526A596A746AA0
:1000C000796A7E6A866A5C695D6A646A6C6A010242
:1000D00003040103020404020301040302014F4E5E
:1000E00020004F4646001B1E272D36394B4E636CB1
:1000F0007278878D939CB1B4C6C9D2D8E1E48040B0
:1001000000000000000000000000000000000000EF
:1001100000000000000000000000000000000000DF
:1001200000000000000000000000000000000000CF
:1001300000000000000000000000000000000000BF
:10014000000000000000000000000080C0E0E0F0BF
:10015000F8F8FCFCFCF8F8F8F04000000000008023
:10016000808000000000000000000000000000008F
:10017000000000000080C0C0E0E0E0F0F0F0E0C06F
:100180000000000000C0F8FFFF9F87838383838304
:10019000838383838383838383838383838383832F
:1001A00083038380838383838383838383838383A2
:1001B0008383838383838383838383C3E3733F1F27
:1001C0000000000080E0F0F8FCFEFFFFFFFF7F3F33
:1001D0001F1F0F0783C3E1E1E0E0C0000E1F3F7F58
:1001E0007FFFF3E0E080000000000000000000005E
:1001F00080F0FCFEFFFFFFFF7F3F0F0301010100C6
:10020000000080F0FEFFFFC7C1C1C1C1C1C1C1C1B3
:10021000C1C1C1C1C1C1C1C1C1C1C1C1C1C101C18E
:10022000F0FEFF3F0F070F0D0D0D1D1919191931A4
:1002300031313171616161E1C1C1C1810000008072
:10024000E0F8FCFFFFFFFF2F170F038180C0E0F0F5
:10025000F8FCFEFFFFFFFFFFFF7F01000000000032
:10026000000001010307070E1E1C3870E0F0F8FEC5
:10027000FFFF7F1F0F0300010000000000000000CF
:10028000000000000000000000000000000000006E
:10029000000000000000000000000000000000005E
:1002A000000000000000000000000000000000004E
:1002B00000000000000000000000000000007EFFC1
:1002C000FFFFFFFFFFFBF8FCFCFEFF7F3F1F0F0758
:1002D000C3FFFFFFFFFFFF7F0700000000000000DB
:1002E00000000000000000C0E0F8FEFFFF7F1F0FCD
:1002F0001F3D7CF8F8F0E0800000000000000000E6
:1003000000000000000000000000000000000000ED
:1003100000000000000000000000000000000000DD
:1003200000000000000000000000000000000000CD
:1003300000000000000000000000000000000000BD
:100340000101010101030707070301000000E0FCB0
:10035000FFFFFFFFFF1F0300000000000000000080
:100360000000C0F078DE2713090E0703000000002C
:100370000000000001030F7FFFFC7878F800000008
:10038000000000000000000080808080808080806D
:1003900080008080008080000000000000008080DD
:1003A000808080808080808080808080808080804D
:1003B000000000000000000000000000000000003D
:1003C000000000000000000000000080F0FEFFFFC1
:1003D000FFFF3F0F010000000000000000C0E038F8
:1003E0001E0F0300010000000000000000000000DC
:1003F00000000000000000000000000303010000F6
:1004000000000000000000000E0E020202020203C3
:1004100003000F0F000F0F080808080808080F0F47
:1004200008080808080F0F000000000F0F00000068
:1004300000000000000000000000000000000000BC
:10044000000000000000000000C0F8BFFFFFFF1F19
:100450007F010000000000000000F0FCFF7F78300A
:10046000000000000000000000000000000000008C
:10047000000000000000000000000000000000007C
:10048000000000000000000000000000000000006C
:10049000000000000000000000000000000000005C
:1004A000000000000000000000000000000000004C
:1004B000000000000000000000000000000000003C
:1004C00000000000000000301C070E0F07010000B4
:1004D000000000000000000000000000000000001C
:1004E000000000000000000000000000000000000C
:1004F00000000000000000000000000000000000FC
:100500000053706C617368002D2D2D2D00525544E1
:1005100020454C45205448522041494C200004506D
:10052000312020503220205033202048414C464674
:10053000554C4C435943314359433243594333504B
:10054000504D3150504D3250504D3350504D34502D
:10055000504D3550504D3650504D3750504D38431A
:100560004831204348322043483320434834204315
:1005700048352043483620434837204348382043F5
:1005800048392043483130434831314348313243C0
:1005900048313343483134434831354348313600DC
:1005A0002D2D2D20004348002D2D2D005448525252
:1005B0005544454C45494430494431494432414908
:1005C0004C47454154524E5357315357325357338A
:1005D0005357345357355357365357375357385368
:1005E000573953574153574253574300034F4646D9
:1005F000414253525573525525454C73454C255431
:100600004873544825414C73414C2550312050319A
:100610002550322050322550332050332500414C94
:1006200045525400507265737320616E79206B657A
:100630007920746F20736B6970007072657373201A
:10064000616E79204B657900414C455254004D450F
:100650005353414745006D656E75537461636B205C
:10066000756E646572666C6F77006D656E75537438
:1006700061636B206F766572666C6F7700030102B1
:1006800000040506074C4F4144494E47004545507C
:10069000524F4D206C6F77206D656D005468726FFE
:1006A00074746C65206E6F742069646C65005265AB
:1006B000736574207468726F74746C650053776925
:1006C000746368205761726E696E6700506C656173
:1006D0007365205265736574205377697463686528
:1006E00073002020202020202020202020202020D7
:1006F000202020202020202000416C61726D73207A
:1007000044697361626C656400204F6C64205665B7
:100710007273696F6E20454550524F4D2020204323
:100720004845434B2053455454494E47532F43416A
:100730004C494200204D4F443A20202020002053B5
:10074000564E3A20657239782D7237363700544943
:100750004D453A2031303A31313A33380044415432
:10076000453A2032312E30372E3230313200564564
:1007700052533A2056312E353639382D4D696B6536
:1007800000FEFFFD0454494D3154494D324241545D
:1007900054002D2D2D783E30783C307C787C663EA0
:1007A00030663C307C667C633120633220633320CA
:1007B0006334206335206336206337206338206339
:1007C0003920633130633131633132633133633126
:1007D0003463313563313600032D2D2D494E5600DB
:1007E0004355525645000900454449542D3E00509A
:1007F00052455345540043555256455300A92015C0
:1008000040243FB0286B241550344D454578516243
:100810004C4356004C494D495453000003434F503C
:1008200059205452494D205B4D454E555D0054456D
:100830004D504C4154455300014368616E6E656CE8
:10084000204F7264657200205245544100434C456C
:100850004152204D49584553205B4D454E555D0052
:100860005341464554592053574954434845530032
:100870000000024E756D62657220566F69636520D7
:100880005377000720382053656373313220536556
:1008900063733136205365637300065761726E319E
:1008A000205761726E322043686561702052696E14
:1008B000672020536369466920526F626F7420433A
:1008C0006869727020546164612020437269636BAF
:1008D00074536972656E20416C6D436C6B52617428
:1008E0006174615469636B2020486170746331489E
:1008F000617074633248617074633300565300064C
:100900004F4E202020204F4646202020424F544862
:10091000202031355365637333305365637336304C
:100920005365637356617269626C00435553544F4B
:100930004D20535749544348455300000253570034
:10094000072D2D2D2D202020763E6F6673202076DA
:100950003C6F667320207C767C3E6F66737C767C71
:100960003C6F6673414E44202020204F52202020AF
:100970002020584F522020202076313D3D763220D5
:100980007631213D76322076313E76322020763126
:100990003C7632202076313E3D76322076313C3D29
:1009A00076322054696D654F666600104F6E0049BF
:1009B0004E53455254204D49582000454449542037
:1009C0004D4958200002536F7572636500025765E8
:1009D0006967687400466D5472696D56616C004FAA
:1009E00066667365740002466C4D6F646574726967
:1009F0006D00025472696D00024375727665730072
:100A00000253776974636800025761726E696E679A
:100A100000024D756C7470780008416464202020D9
:100A200020204D756C7469706C795265706C6163CF
:100A30006520000244656C617920446F776E000286
:100A400044656C61792055700002536C6F772020EB
:100A5000446F776E0002536C6F772020557000440E
:100A6000454C455445204D4958205B4D454E555DFC
:100A7000004D6178206D69786572732072656163DD
:100A8000683A20005072657373205B455849545D85
:100A900020746F2061626F727400035945530B4ECE
:100AA0004F00035B4D454E555D0B5B455849545D0A
:100AB0000044454C455445204D49583F004D495848
:100AC0004552002B2A52004558504F2F44520000E7
:100AD0004578706F00576569676874004472537792
:100AE00031004472537732004452204D696400440F
:100AF00052204C6F7700445220486967680045587F
:100B0000504F2F445200000365787020202520208C
:100B10007377312073773200204142434445464782
:100B200048494A4B4C4D4E4F5051525354555657CD
:100B300058595A6162636465666768696A6B6C6D6F
:100B40006E6F707172737475767778797A3031322E
:100B5000333435363738395F2D2E004455504C49E3
:100B600043415445204D4F44454C0044454C455469
:100B700045204D4F44454C004475706C6963617469
:100B8000696E67206D6F64656C0053455455500065
:100B900000090001000000000000000602004E6194
:100BA0006D6500566F69636520496E646578005411
:100BB000696D657200547269676765720054726985
:100BC0006767657242000A436F756E7420446F77E1
:100BD0006E436F756E74205570202000542D547232
:100BE000696D00542D4578706F005472696D20490D
:100BF0006E630006457870202020457846696E6552
:100C000046696E6520204D656469756D436F61723C
:100C10007365005472696D205377004265657020DA
:100C2000436E7400524554413132330050726F7438
:100C30006F0050504D202020505858202020445301
:100C40004D32202050504D31362050504D53494D9B
:100C50000011755365630013755300043443482035
:100C600036434820384348203130434831324348E6
:100C70003134434831364348000B52784E756D008D
:100C800050504D2046724C656E0D6D536563005398
:100C9000656E64205278204E756D626572205B4DE2
:100CA000454E555D0044534D2054797065004C50BD
:100CB000342F4C5035202044534D326F6E6C7920C8
:100CC00044534D322F44534D580053686966742085
:100CD00053656C00504F534E454700452E204C69DC
:100CE0006D69747300547261696E65720054325498
:100CF00068547269670044454C455445204D4F4443
:100D0000454C0F5B4D454E555D0048454C492053C1
:100D100045545550000053776173682054797065CD
:100D200000062D2D2D202020313230202020313280
:100D3000305820203134302020203930202020200D
:100D400000436F6C6C6563746976650053776173FB
:100D5000682052696E6700454C452044697265639E
:100D600074696F6E0041494C20446972656374690F
:100D70006F6E00434F4C20446972656374696F6EF7
:100D8000004D4F44454C53454C0009667265650063
:100D900043414C4942524154494F4E00B346091E0B
:100DA000641F921F1C20722202535441525420434C
:100DB000414C4942524154494F4E00035B4D454E10
:100DC000555D20544F20535441525400055345540F
:100DD000204D4944504F494E54005B4D454E555DA2
:100DE000205748454E20444F4E4500034D4F564531
:100DF00020535449434B532F504F545300414E41BD
:100E0000004247004449414700204D656E7520452A
:100E100078697420446F776E20202055705269677E
:100E20006874204C656674005472696D2D202B0027
:100E300012081200081C0808081C080000082200FC
:100E4000490022080000000000227F220000000864
:100E50002200490022080000082200490022080060
:100E60000000227F2200000000000822004900222A
:100E7000080000081C0808081C0800564552534981
:100E80004F4E00545241494E4552000003030303A4
:100E90000007536C61766500036F6666202B3D206A
:100EA0003A3D0003636831636832636833636834D2
:100EB000004D756C7469706C6965720043616C00FB
:100EC000036D6F64650A25207372632020737700B9
:100ED000524144494F205345545550004F776E6559
:100EE00072204E616D650042656570657200065145
:100EF00075696574204E6F4B6579207853686F7201
:100F00007453686F7274204E6F726D20204C6F6E38
:100F1000672020784C6F6E672000536F756E6420D9
:100F20004D6F6465000A426565706572202020205F
:100F3000506953706B722020202042656570725694
:100F40006F696365506953706B566F6963650056CE
:100F50006F6C756D6500537065616B6572205069CB
:100F60007463680048617074696320537472656EBD
:100F700067746800436F6E747261737400426174C9
:100F800074657279207761726E696E6700496E616F
:100F90006374697669747920616C61726D00466969
:100FA0006C74657220414443000453494E474F53CB
:100FB0004D5046494C54005468726F74746C6520EF
:100FC00072657665727365004D696E757465206231
:100FD000656570004265657020636F756E74646F3F
:100FE000776E00466C617368206F6E206265657075
:100FF000004C6967687420737769746368004261A4
:10100000636B6C6967687420696E76657274004CF6
:1010100069676874206F6666206166746572004C4B
:1010200069676874206F6E2053746B204D7600538F
:10103000706C6173682073637265656E0053706CC9
:10104000617368204E616D65005468726F74746CD2
:1010500065205761726E696E6700537769746368C3
:10106000205761726E696E670044656661756C74C5
:10107000205377005452453031324147004D656D61
:101080006F7279205761726E696E6700416C617290
:101090006D205761726E696E6700506F7453637292
:1010A0006F6C6C0042616E6447617000456E6162F6
:1010B0006C652050504D53494D004D6F6465005391
:1010C0005441543200746D72314C6174206D6178FA
:1010D0000F757300746D72314C6174206D696E0F01
:1010E000757300746D7231204A69747465720F757E
:1010F0007300746D61696E0F6D7300537461636B7F
:101100000F6200035B4D454E555D20746F20726584
:10111000667265736800535441540001544D451183
:10112000545357000153544B115354250011544F3D
:10113000540003457870457846466E654D656443B6
:1011400072730054546D004D452020202020202033
:1011500020004D4F44454C20202020200042616457
:1011600020454570726F6D204461746100454550A3
:10117000524F4D20466F726D617474696E670067DF
:10118000656E7772697465206572726F720045458D
:1011900050524F4D206F766572666C6F7700500825
:1011A0005000000000000000006F00000700070072
:1011B000147F147F14242A7F2A12231308646236B2
:1011C000495522500005030000001C224100004147
:1011D000221C0014083E081408083E08080050307D
:1011E00000000808080808006060000020100804DB
:1011F00002003E49453E0000427F400062514946A0
:101200000041494936001814127F0027454539002E
:101210003E49493200017905030036494936000646
:1012200049291E000036360000005636000008141A
:10123000224114141414144122140800020151090B
:101240000600060909067E0909097E7F49494936D3
:101250003E414141227F4141221C7F494949417F12
:10126000090909013E4149497A7F0808087F004180
:101270007F41002040413F017F081422417F4040D0
:1012800040407F020C027F7F0408107F3E414141B5
:101290003E7F090909063E4151215E7F0919294611
:1012A000264949493201017F01013F4040403F1F2B
:1012B0002040201F3F4030403F631408146307085C
:1012C0007008076151494543007F4141000204080D
:1012D00010200041417F00040201020440404040D0
:1012E00040000102040020545454787F484444389C
:1012F0003844444420384444487F385454541808EF
:101300007E0901020C5252523E7F080404780044C8
:101310007D40002040443D007F1028440000417F74
:1013200040007C041804787C080404783844444461
:10133000387C14141408081414187C7C080404085D
:101340004854545420043F4440203C4040207C1CDE
:101350002040201C3C4020403C44281028440C5095
:1013600050503C4464544C44000836410000007F17
:10137000000000413608000808221C08081C22084A
:1013800008A06080000000000000000000000000D5
:101390000000FFFF0000000000001F3F00003F1F93
:1013A00000003030FFFF3030FFFF30303078CCCCE1
:1013B000FFFFCCCC8C0C060F0F86C0E070381C0CE5
:1013C0003CFEC7E3F33B1E0C00000000333B1F0F45
:1013D000000000000000F0F81C0E070300000000F1
:1013E00003070E1CF8F000003030E0C0FCFCC0E049
:1013F0003030C0C0C0C0FCFCC0C0C0C00000000095
:10140000000000000000C0C0C0C0C0C0C0C0C0C05C
:101410000000000000000000000000000080C0E0AC
:1014200070381C0C000000000000000000000000EC
:10143000000038380000000000000000000000003C
:10144000000003033F3F03033F3F03030C0C0C0C5E
:101450003F3F0C0C07030C0E07030100183C3C181F
:101460000F1F383133331E1E3333000000000000DD
:1014700000000000000003070E1C383000000000D0
:1014800030381C0E07030000030301000F0F00019A
:101490000303000000000F0F000000000000333BBA
:1014A0001F0F00000000000000000000000000000E
:1014B0000000183C3C18000000000C0E070301005F
:1014C000000000000000FCFE87C3E377FEFC000084
:1014D0000C0EFFFF0000000000000C0E0783C3E7A6
:1014E0007E3C00000303C3C3C3E7FE3C0000C0E032
:1014F00070381C0EFFFF00003F3F33333373E3C3EC
:101500000000FCFEC7C3C3C78E0C00000303C3E387
:10151000733B1F0F00003CFEE7C3C3E7FE3C000027
:101520003C7EE7C3C3E7FEFC0000183C3C1800000B
:1015300000000000183C3C18000000000000C0E063
:10154000F0381C0E0703303030303030303030305F
:1015500003070E1C38F0E0C000000C0E07030383E5
:10156000C3E77E3C00000F1F3B3130381F0F0000E7
:1015700030303F3F3030000000003C3E37333130E8
:10158000303000003030303030391F0F000003039E
:10159000030303033F3F00000C1C383030381F0F9B
:1015A00000000F1F383030391F0F000000003F3F90
:1015B0000000000000000F1F393030391F0F0000FD
:1015C000000030381C0E07030000060F0F06000055
:1015D00000000000333B1F0F00000000000000016E
:1015E00003070E1C38300303030303030303030341
:1015F00030381C0E070301000000000000003333E8
:101600000100000000003C7EE7C3C3E77E3CF0F829
:10161000DCCEC7C7CEDCF8F0FFFFC3C3C3C3C3E74C
:10162000FE3CFCFE0703030303070E0CFFFF03034E
:1016300003070E1CF8F0FFFFC3C3C3C3C3C30303F8
:10164000FFFFC3C3C3C3C3C30303FCFE0703C3C37A
:10165000C3C7CECCFFFFC0C0C0C0C0C0FFFF0000EA
:101660000303FFFF03030000000000000303FFFF6C
:101670000303FFFFC0E0F0381C0E0703FFFF00006C
:10168000000000000000FFFF0E1CF8F81C0EFFFF1A
:10169000FFFF3870E0C08000FFFFFCFE070303037C
:1016A0000307FEFC000000000000000000003F3FB8
:1016B0000000000000003F3F3F3F30303030303905
:1016C0001F0F0F1F3830303030381C0C3F3F303088
:1016D00030381C0E07033F3F303030303030303070
:1016E0003F3F00000000000000000F1F3830303086
:1016F00030303F3F3F3F0000000000003F3F000010
:1017000030303F3F303000000C1C383030381F0F75
:1017100000003F3F000103070E1C38303F3F3030D0
:101720003030303030303F3F0000000000003F3F9D
:101730003F3F0000000103033F3F0F1F38303030B0
:1017400030381F0FFFFFC3C3C3C3C3E77E3CFCFE9B
:10175000070303030307FEFCFFFFC3C3C3C3C3E7C1
:101760007E3C3C7EE7C3C3C3C3C78E0C03030303A5
:10177000FFFF03030303FFFF000000000000FFFF63
:10178000FFFF000000000000FFFFFFFF000000005F
:101790000000FFFF0F1F38F0E0E0F0381F0F3F7F21
:1017A000E0C08080C0E07F3F03030383C3E3733B5B
:1017B0001F0F0000FFFF0303030300000C1C387021
:1017C000E0C080000000000003030303FFFF0000EF
:1017D00030381C0E07070E1C3830000000000000D7
:1017E000000000003F3F00000000000000000F1F4D
:1017F000383033371E1C3F333F3F000003070E1CB9
:1018000038300C1C3830303030391F0F00000000E9
:101810003F3F000000000F1F3830303030381F0FBE
:1018200003070E1C38381C0E07030F1F38381F1F04
:1018300038381F0F3C3E0703010103073E3C000000
:1018400000013F3F010000003C3E37333130303073
:10185000303000003F3F30303030000000000000EA
:10186000000103070E0C0000303030303F3F000015
:101870000000000000000000000030303030303048
:1018800030303030000003070E1C383000000000FC
:10189000303030303070E0C0FFFFC0E0703030706A
:1018A000E0C0C0E07030303030300000C0E0703058
:1018B0003070E0C0FFFFC0E0703030303070E0C00A
:1018C000C0C0FCFEC7C303070E0CF0F89C0C0C0C48
:1018D0000C0CFCFCFFFFC0E070303070E0C000007A
:1018E0003030F3F300000000000000003030F3F36C
:1018F0000000FFFF0080C0E0703000000000030324
:10190000FFFF00000000F0F03070E0E07070E0C019
:10191000F0F0C0E070303070E0C0C0E070303030C7
:101920003070E0C0000000000000000000000C1E4D
:101930003F33333333333F3F3F3F30303030303845
:101940001F0F0F1F3830303030381C0C0F1F38304D
:10195000303030303F3F0F1F3B33333333330303DB
:1019600000003F3F0000000000000001333333332C
:10197000333B1F0F3F3F0000000000003F3F0000CF
:1019800030303F3F303000000C1C383030381F0FF3
:1019900000003F3F03070F1C3830000000003030CC
:1019A0003F3F303000003F3F0000030300003F3F57
:1019B0003F3F0000000000003F3F0F1F3830303035
:1019C00030381F0FF0F03030303030F0E0C0C0E081
:1019D000F0303030E0C0F0F0F0F0C0E07030307047
:1019E000E0C0C0E0F0303030303000003030FFFF79
:1019F000303000000000F0F0000000000000F0F0C7
:101A0000F0F0000000000000F0F0F0F00000000036
:101A10000000F0F03070E0C08080C0E07030F0F086
:101A2000800000000000F0F03030303030B0F0F0D6
:101A300070300000C0E03C3E0703000000000000E2
:101A4000FFFF00000000000003073E3CE0C0000074
:101A5000C0C0C0C00C1CF8F0E0C0C0E0F0F81C0C26
:101A6000C0C0C0C03F3F03030303030301000001E4
:101A70000303030303033F3F3F3F00000000000058
:101A80000000303133333333333F1E0C00000F1F5F
:101A9000383030381C0C0F1F383030381C0C3F3FAA
:101AA00003070E1C38381C0E07030F1F38381C1C88
:101AB00038381F0F30381C0F07070F1C3830000153
:101AC00033333333333B1F0F30383C3E3733313001
:101AD0003030000000010F1F38300000000000000F
:101AE0003F3F00000000000030381F0F01000000E1
:101AF000000000000C0E07030100000103070E0C9C
:101B00000000000040800804201002011C1B281B5C
:101B10002E1B3B1B421B4F1B5A1B651B53696D70D1
:101B20006C6520342D434800542D43757400537464
:101B300069636B7920542D43757400562D54616987
:101B40006C00456C65766F6E5C44656C7461004832
:101B5000656C69205365747570004779726F205306
:101B60006574757000536572766F205465737400E8
:101B70000000891112239B322446AD573665BF748D
:101B8000488CC19D5AAFD3BE6CCAE5DB7EE9F7F83D
:101B90008110080193331A22A5562C47B7753E646D
:101BA000C99C408DDBBF52AEEDDA64CBFFF976E81D
:101BB00002218B30100299132667AF763444BD554D
:101BC0004AADC3BC588ED19F6EEBE7FA7CC8F5D9FD
:101BD00083310A2091121803A7772E66B5543C452D
:101BE000CBBD42ACD99E508FEFFB66EAFDD874C9DD
:101BF00004428D5316619F702004A9153227BB360D
:101C00004CCEC5DF5EEDD7FC6888E1997AABF3BABC
:101C100085520C4397711E60A1142805B3373A26EC
:101C2000CDDE44CFDFFD56ECE9986089FBBB72AA9C
:101C300006638F7214409D512225AB343006B917CC
:101C40004EEFC7FE5CCCD5DD6AA9E3B8788AF19B7C
:101C500087730E6295501C41A3352A24B1163807AC
:101C6000CFFF46EEDDDC54CDEBB962A8F99A708B5C
:101C7000088481951AA793B62CC2A5D33EE1B7F08C
:101C80004008C919522BDB3A644EED5F766DFF7C3C
:101C9000899400859BB712A6ADD224C3BFF136E06C
:101CA000C1184809D33B5A2AE55E6C4FF77D7E6C1C
:101CB0000AA583B4188691972EE3A7F23CC0B5D14C
:101CC0004229CB38500AD91B666FEF7E744CFD5DFC
:101CD0008BB502A499961087AFF326E2BDD034C12C
:101CE000C3394A28D11A580BE77F6E6EF55C7C4DDC
:101CF0000CC685D71EE597F42880A1913AA3B3B20C
:101D0000444ACD5B5669DF78600CE91D722FFB3EBB
:101D10008DD604C79FF516E4A9902081BBB332A2EB
:101D2000C55A4C4BD7795E68E11C680DF33F7A2E9B
:101D30000EE787F61CC495D52AA1A3B03882B193CB
:101D4000466BCF7A5448DD59622DEB3C700EF91F7B
:101D50008FF706E69DD414C5ABB122A0B9923083AB
:101D6000C77B4E6AD5585C49E33D6A2CF11E780F5B
:101D7000476D11241FBECFEFD0E1DEBFCDBF11E014
:101D8000A0E0B1E0E4E8FCED02C005900D92A434BF
:101D9000B107D9F71EE0A4E4B1E001C01D92AF3C49
:101DA000B107E1F71DE1C2E7DDE104C02297FE01C2
:101DB0000E94FB6DC037D107C9F70E942E6B0C94AF
:101DC000406E0C9400009AE0899F900111242D50E0
:101DD0003E4FC901089595E0899F900111242D5C23
:101DE0003C4FC90108958F929F92AF92BF92EF929C
:101DF000FF920F931F93CF93DF93D82F162F5A0183
:101E0000C22FF02E57FF11C022FF02C08CE101C08B
:101E10008FE02C2F4DE2612F9D2F981B892F0E9460
:101E2000D859B094A194B108B3942F2D2C234AE330
:101E3000612F8D2F0E94D8596CE370E0C5010E947C
:101E4000A76D4B015C010C2F00619B01442737FDFE
:101E50004095542F62E0E62E612F8D2F0E94015C89
:101E6000C2FF02C08AE101C08FE00F2D0061950121
:101E7000442737FD4095542F92E0E92E612F8D0FB6
:101E80000E94015CDF91CF911F910F91FF90EF9025
:101E9000BF90AF909F908F900895CF93DF93D62FF0
:101EA000C22F206250E00E94695DC7FD09C02C2F3F
:101EB00046E76D2F8091E40DDF91CF910C94D859B6
:101EC000DF91CF910895242F409102010C944D0F82
:101ED0000F93022F411104C024E048E055E015C0E3
:101EE0004530B0F4E091CE0494E0E99FF001112474
:101EF0003197E40FF11DE253FF4FE49194E0E99F25
:101F0000A0011124475F5A4F24E00E948C5A08C058
:101F1000453230F4242F25504EE155E00E94AE5A50
:101F20000F9108950F93CF93DF93C82FD62F022FD1
:101F3000411104C024E040EA55E00DC04A3010F0E1
:101F40008A5E01C08F5E202F50E06D2F0E94695D78
:101F500022E045EA55E06D2F8C2F0E948C5ADF91CC
:101F6000CF910F9108950F931F93CF93DF93D62FA7
:101F7000C42F022F182F1A5F442329F0463131F065
:101F80004A3E89F406C048EA55E005C04EED50E0EF
:101F900002C042EE50E06D2F812FDF91CF911F9153
:101FA0000F910C94C25A4095441F4427441F91E25C
:101FB000941B492F0E94D859C7FDC195EC2FFF27CC
:101FC000E7FDF0953197AF01440F551F4E0F5F1F8E
:101FD00044555A4F23E06D2F812F0E948C5ADF9178
:101FE000CF911F910F9108958CEA95E00895EF929B
:101FF000FF920F931F93CF93DF93D82F162FF42EBA
:10200000E22EC091E40181E08217D0F14C2F415FB4
:102010004F31D0F42C2F332727FD309537FF03C0E5
:10202000309521953F4F0F2D4CEE55E0612F8D2FB0
:102030000E94AE5ACF3FC4F52F2D41E2612F8D2F64
:1020400086500E94D85930C00C2F0C5D093428F4FA
:102050001C167CF44C2F4F500CC02F2D4DE68D2FAD
:102060008E5E0E94D8591C161CF44C2F445201C09D
:10207000402F2F2D612F8D2F86500E94B30F14C03B
:1020800082E0281313C02F2D40915404612F8D2F0F
:102090008650DF91CF911F910F91FF90EF900C949C
:1020A000B30FC13019F4EFCFEE20D9F3DF91CF9108
:1020B0001F910F91FF90EF9008958C3038F4E82F26
:1020C000F0E0EE0FFF1FEF5AF74F29C0803190F478
:1020D000E82FF0E0DF01AA0FBB1FA25DBE4FEE0F9D
:1020E000FF1FEC55FB4F2D913C9180819181281B66
:1020F000390B0AC0843158F4E82FF0E0EE0FFF1FCF
:10210000E25DFE4F20813181220F331F0DC08432EA
:1021100048F4E82FF0E0EE0FFF1FE75FF74F208154
:10212000318102C020E030E0C90108959F92AF9252
:10213000BF92CF92DF92EF92FF920F931F93CF93B4
:10214000DF93082F942E45E0491508F4D9C0882361
:1021500009F4FEC0863119F08A3E19F4D1C061E05D
:10216000F7C087310CF0CCC0875F202F332727FDC5
:1021700030958331C8F4101644F08DE090E0821B56
:10218000930B0E94CC5E61E0B9C0C9010D96DF914E
:10219000CF911F910F91FF90EF90DF90CF90BF9064
:1021A000AF909F900C94CC5E37FF03C03095219583
:1021B0003F4F2A50E22EF12C6701CC0CDD1CCE0CD7
:1021C000DF1C8FE294E0C80ED91EF60112811123A4
:1021D00009F496C0F5E09F1205C0F701EE58FE4FD6
:1021E000608189C0F601A080B180153008F48AC0F2
:1021F000183018F01E3008F4A1C080E090E0C0E074
:10220000D0E0183009F44BC068F41330F1F038F422
:10221000113009F44EC0123009F068C04FC01430BC
:1022200001F519C01B3009F449C030F41930E1F14F
:102230001A3009F05BC03DC01D3009F449C008F4F4
:1022400042C01E3009F052C048C0D7FF32C0D095FE
:10225000C195DF4F2EC0D7FF31C0D095C195DF4F5C
:102260002DC09394492D60E08A2D0E949610C82FAE
:10227000492D60E08B2D0E949610682FF601828117
:10228000853031F4CC2391F1662389F161E02FC0D0
:10229000863019F4C111FACF2AC06C2728C061E03A
:1022A000C817D90721F122C061E0C817D907F9F48E
:1022B0001DC061E08C179D07D4F018C061E0C817FD
:1022C000D907ACF013C061E0C817D90784F40EC079
:1022D00061E08C179D075CF409C0F701E258FE4FDE
:1022E00060816095661F6627661F01C060E0F70188
:1022F000EE58FE4F608310165CF181E0682728C01D
:1023000060E026C08A2D81500E945D10EC01FB2DFB
:1023100049E2F402900111243595279535952795CA
:102320008B2DB7FC815C86FB880F880B80F9F90147
:10233000E81BF10987FDF395CF0163CF8A2D81500A
:102340000E945D10EC018B2D81500E945D1059CFD1
:10235000862FDF91CF911F910F91FF90EF90DF902B
:10236000CF90BF90AF909F9008950E942A6B8111EB
:10237000FCCF0C94455E0F931F93CF93DF938C019A
:10238000EB010E94725924E04EE156E060E082E2E7
:102390000E94C25AB80180E20E94E15ABE0188E25E
:1023A0000E94E15A64E276E080E30E94E15A0E94D2
:1023B000D25D8091B8040E94C35DDF91CF911F91DF
:1023C0000F910C94B5110F93462F50E044555A4F7E
:1023D00000E023E060E10E948C5A0F9108950F9372
:1023E0001F93CF93DF93082FC9EDD1E01AE04991F5
:1023F00024E0602F812F0E94D859155F1837B9F754
:10240000DF91CF911F910F9108951F93CF93DF9389
:10241000EC01162F0E947259BE0188E10E94E15A18
:10242000111109C04AE356E068E38CE10E94E75AC3
:1024300048E456E002C04EE456E024E060E082E268
:102440000E94C25ADF91CF911F910C94D25D61E03E
:102450000E9405128091B8040C94C35DCF93DF9362
:10246000C62F2091D601213029F49093D801809372
:10247000D70131C060E00E940512C11103C08091F4
:10248000B80401C089E10E94C35D66E182E10E9457
:10249000B76A0E94B511D1E00E942A6B81111BC05E
:1024A00080911E0E833019F4A89510921E0E40E004
:1024B00060E08091BB040E949610811106C080915B
:1024C000D204811102C0CC2319F0D093B10EE4CF15
:1024D0001092B10EE1CFDF91CF9108958F929F922C
:1024E000AF92BF92CF92DF92EF92FF920F931F9322
:1024F000CF93DF93182F7B015A016901802E84FF4F
:1025000006C01F70106674E0972E05E003C065E0FA
:10251000962E04E0802F8066181761F0802F80646B
:10252000181741F090912F08992359F0133611F0A4
:10253000133439F4E701219683E10E94B16A892DB1
:1025400061C0892D8066181761F0892D8064181785
:1025500041F0992309F45CC0123619F0123409F0E5
:1025600057C0E701219784E10E94B16A802F4AC0D9
:10257000A114B10491F481E0C816D10471F41036AD
:1025800061F410922F08C1E0D0E0E114F10411F0E1
:10259000C0E0D0E080E60E942D5F20916201309182
:1025A0006301C21BD30BCC16DD0644F4812F0E94BD
:1025B0002D5F83E10E94B16AE6010AC0CA15DB05FE
:1025C0003CF4812F0E942D5F84E10E94B16AE501F5
:1025D000CE15DF05A1F0209751F4812F0E941E5FD8
:1025E000F7FE02C083E101C084E10E94B16A882D38
:1025F00083700E94005581E08093660116C010929E
:10260000660113C090E00E94CC5E811103C0B0CF80
:10261000E701AECFCC27DD27CE19DF09892D0E9437
:102620002D5F802F0E942D5FA3CFCE01DF91CF9130
:102630001F910F91FF90EF90DF90CF90BF90AF90E0
:102640009F908F9008950F93332727FD309555273E
:1026500047FD5095772767FD70950E946E120F9188
:1026600008950F9302E00E9423130F9108950F9392
:1026700001E00E9423130F910895E0916701F0E0BB
:10268000EE0FFF1FE659FE4F8081918108959091D2
:102690006701911103C0811106C017C0811103C0E9
:1026A000892F815001C080E08093670187E10E94FB
:1026B000B16AE0916701F0E0EE0FFF1FE859FE4FAD
:1026C0000190F081E02D8EEB099460E086E596E0C4
:1026D0000C942E12FC01A0916701B0E0AA0FBB1F61
:1026E000A859BE4FED93FC938FEB099587E10C94AD
:1026F000B16ACF93DF93EC0180916701982F9F5FC0
:1027000090936701953048F08093670160E08AE616
:1027100096E0DF91CF910C942E1287E10E94B16A6E
:10272000A0916701B0E0AA0FBB1FA859BE4FCD937F
:10273000DC938FEBFE01DF91CF910994EFE5F8E098
:10274000108E168A158A178A08951F93CF93DF93E8
:10275000182F0E94276BFC018085803150F49185F1
:10276000EF01C90FD11D1B879F5F9F7091878F5FFE
:1027700080879091EA04983040F4E92FF0E0EA5A1B
:10278000FE4F10839F5F9093EA04DF91CF911F91DA
:102790000895CF93C82F0E94276BFC0180858F304E
:1027A00038F48FEF0E94A5138C2FCF910C94A513B2
:1027B000CF910895CF93DF93FC019091D90480814C
:1027C00091FF73C09181882311F0946001C09B7FB9
:1027D000918386818130B1F5C79A90858181992353
:1027E00079F18E7F81838BBBC7982285EF01C20F61
:1027F000D11D8B8590E0958384832F5F2F70228776
:102800002085215020872781222329F017828C5F81
:102810009E4F9583848380E1838384819581803F6B
:1028200058F08F3F910519F481E0878348C09F6F6E
:102830009583848388E283838FE1828382E009C069
:102840008BBB3CC0811107C08091E50D8937B8F181
:1028500081E0868334C0823091F181818BBBC79A3D
:10286000BF980000000086B38078BF9A96819330AD
:1028700051F4811101C005C083818150838381118E
:102880001DC084E010C0943031F48823B9F082E098
:10289000838385E008C0953089F4838181508383E8
:1028A00081110CC081E0868309C09091D60496FB0B
:1028B000992790F9891711F0C79A01C0C798DF913D
:1028C000CF91089540E060E08091BB040E94961093
:1028D00081110EC080915F0190916001892B41F4BC
:1028E00004C081EB9EE00C94DA131092B10EF9CF84
:1028F00081E08093B10EF5CF20915F0130916001AE
:102900002115310511F021503109882319F08091EA
:10291000D20401C080E090915E01992329F090914A
:10292000DA04891708F4892F4AEF849FC001112423
:10293000880F991F8217930708F4C90190936001CB
:1029400080935F010C946214FF920F931F93CF93B7
:10295000DF93F8948091E60D9091E70D789441E033
:102960002091EB043091EC048217930709F440E0C6
:10297000409361019093EC048093EB0460E08BE062
:1029800098E00E94DC3280916101882309F4A8C19B
:10299000EFE5F8E0878980FF0DC0808D982F9F5F5D
:1029A000908F943638F08356808F8589968901966A
:1029B000968B858B80E00E9412550E9472590E946E
:1029C000485EF82E982F9F7096508091EB018430CE
:1029D00019F0833021F402C088E001C084E098300F
:1029E00008F096C0492F4595552747FD5095FA01A7
:1029F000EE0FFF1FED5FFE4F0190F081E02D608133
:102A0000C62FDD27C7FDD09581110DC09E01D7FFD0
:102A100004C0222733272C1B3D0B35952795359570
:102A20002795822F8F5F2091CE04022F017010E036
:102A300022E030E0201B310B2417350761F4209190
:102A4000EA0120FF4BC141E084E02091D00420FF47
:102A500003C0819501C040E0282F332727FD309522
:102A600090FF03C0C20FD31F02C0C21BD30B20971D
:102A700021F08D2F862787FF0CC041110AC06623E5
:102A800041F010828F2D0E942D5F86E10E94B16A75
:102A90003EC0CE0184589F4F8E0103581F4F893F7F
:102AA000910598F4C08386E00E9400550B3F110504
:102AB00008F02DC0D7FF03C0D095C195DF4FD59545
:102AC000C795D595C7954C2F1CC01C161D0614F430
:102AD0008DE701C083E8808386E00E9400550B3FAC
:102AE0001105A8F4D7FF03C0D095C195DF4FD7FDDE
:102AF0002396AE0155954795559547955095419527
:102B00005F4F445C65E18DE891E00E943569F12CEE
:102B10008F2D0E947C1440915D0850915E08209199
:102B2000640130916501241B350B37FF02C0215E23
:102B30003F4F15E0359527951A95E1F72115310599
:102B400081F02091ED043091EE04241B350B37FF0A
:102B500002C02F5F3F4F35952795509365014093F5
:102B600064015093EE044093ED048091D00485FFFE
:102B700002C020E030E03093630120936201809135
:102B8000D7019091D801009761F060E00E94051292
:102B90000E942A6B882389F01092D8011092D701E5
:102BA0000CC0E0916701F0E0EE0FFF1FE859FE4F07
:102BB0000190F081E02D8F2D09950E94D25D8DE866
:102BC00091E00E945468882311F084E105C080914F
:102BD000CC0E882321F081508093CC0E06C08091CA
:102BE0006300869581708093CD0E8091CD0E809389
:102BF000D501882309F46CC08091D60485FF64C098
:102C000067C08091E50D8F71823009F05AC0E4E809
:102C1000F6E0E491F0E0EE0FFF1FE051FB4F808102
:102C200091819C01B4E0220F331FBA95E1F797FD23
:102C30000796BC01E3E075956795EA95E1F7409149
:102C4000BA04552747FD50954A5F5F4F649FC00106
:102C5000659F900D749F900D1124820F931F2091FA
:102C6000D00426FD05C0609100017091010102C0F1
:102C700060EF70E00E94936D80910201680F711DFA
:102C80006F5F7F4F75956795609302018091EF04A8
:102C9000805F8093EF04811114C08091B90468179C
:102CA00080F4623370F06EE281E10E94B76A809135
:102CB000D00483FF06C082E390E09093600180938C
:102CC0005F0110925E010CC0809165008F7E03C091
:102CD0008091650080618093650093CF40E0B5CE20
:102CE000DF91CF911F910F91FF900895E82FF0E0B1
:102CF000E358F94FE491F0E0EE0FFF1FE051FB4F76
:102D000020813181C9010895FF920F931F93CF93C2
:102D1000DF93F12CC0E0D0E08F2D0E947616092FB2
:102D200010E0C00FD11FF39484E0F812F5CFCE016C
:102D3000DF91CF911F910F91FF900895A0EFB4E024
:102D4000E0E0F5E040E0842F806487B9369A20897E
:102D500031898D919C91119796958795820F931F3C
:102D60008E7F11969C938E9380819181820F931F09
:102D700096958795918B808B349BFECF349A84B146
:102D800095B120813181820F931F9695879581930C
:102D900091934F5F12964830B1F60895E0EFF4E05A
:102DA00020E0822F806487B9369A349BFECF349A14
:102DB00084B195B1880F991F819391932F5F28302B
:102DC00081F7089578941F920F920FB60F921124F5
:102DD0008F93809144018F5F809344018F910F9076
:102DE0000FBE0F901F90189578941F920F920FB6F8
:102DF0000F9211242F933F934F935F936F937F9381
:102E00008F939F93AF93BF93EF93FF93F89487B7FC
:102E10008D7F87BF789481B78E5F81BF90918F013E
:102E200080919101882369F08091D90480FF07C0C7
:102E30008091CE0E890F8093CE0E87FF02C01B9A21
:102E400001C01B988091D90481FF2FC08091E309B4
:102E500081112BC00E94276BFC018681823029F5ED
:102E60008381882311F081501FC0C79A828180FF1F
:102E70000DC021812D7F21838481958197FF02C020
:102E800022602183880F991F95838483818191E03B
:102E9000892781838BBBC79882818150828381116E
:102EA00004C083E0868385E0838380910E01982FA0
:102EB000915090930E0181112DC08DE480930E01ED
:102EC0008DE891E00E9468680E943E5F80911E0E2E
:102ED000826080931E0E80910D01815019F08093C5
:102EE0000D010BC084E680930D0180918B018F5FF3
:102EF00080938B0181E080938A0180910C01815045
:102F000080930C01811106C08AE080930C0181E05E
:102F100080930B01F89487B7826087BF7894FF9104
:102F2000EF91BF91AF919F918F917F916F915F9141
:102F30004F913F912F910F900FBE0F901F901895BA
:102F400078941F920F920FB60F9211242F933F93F4
:102F50004F935F936F937F938F939F93AF93BF93A1
:102F6000CF93EF93FF932091800030918100F894EC
:102F700080917D008F7D80937D00789480912005E5
:102F800090912105A901481B590BCA019695879577
:102F900030932105209320059C01215A3F402F3D6D
:102FA0003E4220F481E0809345012FC0C09145014D
:102FB0002C2F2150283048F59C01215233402737CF
:102FC000354008F5EC2FF0E0EE0FFF1FEC5BFE4FF5
:102FD000AC014C5D55402091D404332727FD30953A
:102FE000265F3F4F429FC001439F900D529F900D1F
:102FF00011246AE070E00E94A76D71836083CF5F47
:10300000C093450102C010924501F89480917D0063
:10301000806280937D007894FF91EF91CF91BF9172
:10302000AF919F918F917F916F915F914F913F9160
:103030002F910F900FBE0F901F90189520ED3EE03E
:10304000F9012F5F3F4F80818535D1F39F012F5CC0
:103050003E40C9010895DF92EF92FF920F931F93B4
:10306000CF93DF932091440132B78091440128131C
:10307000F9CF922F80E0EC01C32B60E1F62E809116
:103080005504F81A8091D104813019F40E949E16DB
:1030900020C08230E1F4E0EFF4E040E012C067B914
:1030A000369A349BFECF349A24B135B1820F931FE8
:1030B0005150A9F796958795819391934F5F48302A
:1030C00041F054E080E090E0642F6064E8CF0E941B
:1030D000CE161EE517B90E94A41417B9369A349B70
:1030E000FECF349A84B195B104964091000150917D
:1030F000010167E0649F9001659F300D1124820FEC
:10310000931F33E0969587953A95E1F790930101E7
:103110008093000180911E0E833019F4A8951092BF
:103120001E0E2091440132B7809144012813F9CF3B
:10313000922F80E0832B8C1B9D0B20919306309166
:1031400094062817390720F49093940680939306E9
:1031500080918B01823028F480910B01811171C024
:10316000EBC010928B01809122058F5E982F977F84
:10317000903618F49093220503C08770809322053F
:1031800000E010E05AC0E801CC0FDD1FCA5ADB4F47
:103190008881982F907C9034B1F4880F880F40E09C
:1031A00060E0859585950E949610882361F0809156
:1031B000D90480FF02C0698101C061E046E48DE866
:1031C00091E00E9435698881982F907C903899F51C
:1031D000880F880F859585958731FCF0992787FDA5
:1031E000909547978130910549F08230910561F0C3
:1031F000892B09F580912205837003C080912205F7
:10320000807F811118C005C08091220587708230AF
:1032100091F489810E94341A0EC09091220590FD8C
:103220000AC040E060E00E949610882321F0898166
:1032300080580E94A5130F5F1F4F0F1508F4A3CFEE
:103240008BCF8091230590912405019690932405BE
:10325000809323056BC00F2D10E0E801CC0FDD1F1C
:10326000CA5ADB4F8881E82EE294E69497E0E9227F
:103270008F7109F45AC040E060E00E949610D82E89
:1032800080910B01823009F44CC0EE2019F082E0ED
:10329000E8120BC0F801EB53FE4F8081811105C08D
:1032A000DD2019F089810E94A5138E2D8150F8012F
:1032B000EB53FE4F823058F48081813091F5D1106C
:1032C00030C0898192E0E9122AC08F5F28C085E072
:1032D0008E1548F48081811124C0DD2011F189818F
:1032E0000E94341A1EC092E09E15D8F4DD20C9F069
:1032F00084E0E81631F095E0E91631F066E970E017
:1033000005C06CE271E002C068E572E080912305BF
:10331000909124050E94936D892B19F489810E9454
:10332000A513F801EB53FE4FD082F3948FE08F1575
:1033300008F091CF10920B0180918A01882351F1FE
:1033400010928A01AEE7B1E080E090E0FC01EE0F60
:10335000FF1FE80FF91FE15DFB4F2281283080F04D
:103360002E3070F013C02081209509C027FF06C0C1
:103370002F5F2C93211104C0218101C021502C9377
:10338000019611968C30910509F704C02C912223E7
:1033900051F3ECCFDF91CF911F910F91FF90EF9000
:1033A000DF9008959C01F5E035952795FA95E1F7B2
:1033B000280F391FAC01440F452F441F550B241B08
:1033C000350B892F990F990B8595280F391FC90146
:1033D00008959C01220F331F280F391F959587955B
:1033E00095958795280F391F95958795959587957C
:1033F00095958795280F391FC901089581E0089593
:10340000E82FFF27E7FDF095EF57F84FE491772776
:1034100067FD709563587F4FEE5FE23038F48AE0C5
:103420009B01829FB001839F700D1124CB010895F1
:10343000E82FFF27E7FDF095EF57F84FE491ED3FB8
:1034400059F074F0EF3F09F05CF4EE0FFF0BED590B
:10345000F74F2389348906C02091020130E002C071
:1034600020E030E0C9010895CF93C82F0E94181AB8
:10347000EC2FFF27E7FDF095EF57F84FE491ED3F74
:1034800019F060E040E002C061E044E2CF910C94AA
:10349000C06ABF92CF92DF92EF92FF920F931F9379
:1034A000CF93DF93F82ED62EC42EE901102FBB2424
:1034B000B394BE20E0FE0FC000E0242F44E857E0A4
:1034C0000E94AE5A8F2D12FD02C0885E04C0845E39
:1034D00098EFD90E00C09E2D9870E3FC1F7BEC2D59
:1034E000FF27E7FDF095EF57F84FC4902C2D2E5F86
:1034F000223040F5B110865F1470012F212FAE01EC
:103500006D2D86500E94F30ECC2DCD5C8F2D8650F4
:1035100009C08F2D835C212FAE016D2D0E94695D46
:103520008F2DC0E29E2D967081F0E2FE03C0865F73
:103530001B7F02C08091E40D212F4C2F6D2D0E9426
:10354000D85903C09111E5CFE6CF8C2FDF91CF91F1
:103550001F910F91FF90EF90DF90CF90BF90089553
:10356000EF92FF920F931F93CF93DF93F82EE62EE7
:10357000C42FD42FD695062F0D1B182F1D1B602F7F
:10358000812F0E94635B6D2F6E0D4C2F812F0E9447
:10359000605B4C2F602F8D2F8F0D0E94635B4C2F33
:1035A000602F812FDF91CF911F910F91FF90EF90AE
:1035B0000C94605B21E0AC0160E080E00C94C25AA6
:1035C0000F931F93CF93DF93182FCFE5D8E086E1B9
:1035D00091E10E94DA1A113658F0133628F01336AA
:1035E00039F48FE69BE102C084EA9CE30E946A13EF
:1035F0006BE171E188E00E94E15A4A815B8100E061
:1036000020E068E08AE20E94F30E4C815D8120E0B8
:1036100068E08EE40E94F30E64E271E180E10E94B2
:10362000E15A4E815F8120E060E18AE20E94F30E60
:1036300048855985E4E056954795EA95E1F720E0FD
:1036400060E18EE40E94F30E6DE271E180E00E9481
:10365000E15A4881598120E060E08EE40E94F30E37
:1036600080919706909198068937910520F0C09136
:103670009906D0E002C0C0E0D0E04EE76CE382E003
:103680000E94605B43E26CE185E00E94635B1BE0AB
:1036900043E06BE3812F0E94635B1A5F1338C1F72D
:1036A00016E00CE3FE01E656F94F4081602F641BE3
:1036B000812F0E94635B2196C837D10510F0C0E0CE
:1036C000D0E02091990630E0C217D30719F01F5FB0
:1036D0001E3741F7DF91CF911F910F910895CF933E
:1036E000C82F8FEB90E10E94DA1AC236D9F028F485
:1036F000C03631F0C136E9F418C0C336D1F415C074
:103700008FEF97E09093100180930F01109296062F
:1037100010929506109294061092930687E10E94EB
:10372000B16A07C080EE9AE102C084EA9CE30E947D
:103730006A1365EC70E188E00E94E15A40919506B9
:10374000509196065695479568E084E50E94785D0D
:1037500064ED70E180E10E94E15A40910F015091C7
:1037600010015695479560E184E50E94785D63EE0F
:1037700070E188E10E94E15A4091950650919606C9
:1037800080910F0190911001481B590B5695479558
:1037900068E184E50E94785D62EF70E180E20E945A
:1037A000E15A809193069091940629E1289FA00107
:1037B000299F500D1124569547955695479520E31E
:1037C00060E284E50E94695D6BEF70E188E20E942F
:1037D000E15A0E941E18AC0168E28FE30E94EA5A87
:1037E00063E071E188E3CF910C94E15A82E997E0BC
:1037F000089591E0211101C090E0442319F04EEDAD
:1038000050E002C042EE50E0292F0C94C25A0F93B0
:1038100001E0211101C000E0242F48ED57E00E9493
:10382000AE5A0F9108951F93CF93DF93182FC62F91
:10383000D42F242F462F50E060E08FE70E94695D6F
:10384000CA3010F0CFE601C0C5E72D2F4FE260E08F
:103850008C2F0E94D859612F70E0AB014F5F5F4FF2
:103860002D2F60E08C2F8150DF91CF911F910C9410
:10387000695D8F929F92AF92CF92DF92EF92FF920B
:103880000F931F93CF93DF93EC01162FD42E490192
:10389000A0915908B0915A0820915B0830915C08BA
:1038A000E0917A08F0917B08EA1BFB0BF7FDFF968D
:1038B00056E0F595E7955A95E1F79E2FE0932C0891
:1038C000E0917C08F0917D08E21BF30BF7FDFF9679
:1038D00046E0F595E7954A95E1F78E2FE0932B08A2
:1038E000992321F0B0937B08A0937A08882321F0D4
:1038F00030937D0820937C0880912D08811104C0AD
:103900008091D00485FF06C010922C0810922B08DD
:1039100010922D0840912C0841110AC080912B086B
:10392000811106C08091620190916301892B61F041
:103930002091D2048AEF289F90011124220F331F77
:103940003093600120935F018114910409F459C000
:103950008881882309F44EC140E04FC080912F0830
:10396000811122C0ED2DE41BE7FDE0E0202F30E0C7
:103970008E2F992787FD90958217930714F0E02FDB
:10398000E150FF27E7FDF0958D2D90E0E817F9074E
:1039900049F0EE0FFF1FE80DF91D25913491C90183
:1039A0000E946A1310922C08153669F4DD2011F07C
:1039B0008D2D01C0802FF40192E0899FE00DF11D53
:1039C0001124329714C01436B9F42D2D30E0802F15
:1039D00090E00197281739071CF48D2D8F5F01C0E7
:1039E00080E0F40192E0899FE00DF11D1124259102
:1039F0003491C9010E946A1341E0602F8D2D0E940D
:103A0000131CE114F10451F098818C2D9C1508F4DD
:103A1000892FF701E80FF11D649101C060E050911A
:103A20002F08511149C080912B08882311F148813A
:103A3000481B47FD40E0242F332727FD30958A2D72
:103A400090E0281739070CF04A2D4883E114F1045F
:103A500041F0C41608F44C2DF701E40FF11DE49178
:103A600001C0E0E089818E1708F4E82FE983109205
:103A70002B082881222301F180912C088823E1F072
:103A80004981481B47FD40E0842F992787FD909589
:103A9000E114F10479F03C2D2C1508F4322FF701D4
:103AA000E30FF11DE4912E2F30E0821793071CF0F5
:103AB0004E2F01C040E04983103641F188F41334A1
:103AC00009F479C030F4113269F1123409F095C06B
:103AD00066C0143409F444C0153409F08EC050C0D7
:103AE000143609F441C038F4123609F45BC01336B9
:103AF00009F083C063C0113891F01F3B21F01536E7
:103B000009F07BC040C0198218820EC0662309F4F8
:103B100074C081E0511180E080932F086EC0109234
:103B20002F080AC0552319F010922F0866C088810B
:103B3000882311F0892871F480E0DF91CF911F91E3
:103B40000F91FF90EF90DF90CF90AF909F908F906C
:103B50000C94471387E10E94B16A198218824DC004
:103B60008981861709F449C0EF2809F446C051112C
:103B700044C08981861710F48F5F0DC019823DC043
:103B800089818823D1F1EF28C1F1511136C0898193
:103B9000882319F08150898330C069832EC08881C1
:103BA0008A1559F1511129C088818A1510F48F5F47
:103BB0000BC018820CC088818823F9F051111DC0F8
:103BC0008881882319F08150888301C0A882E1147C
:103BD000F10449F088818C1508F4C82EF701EC0D2A
:103BE000F11DE49001C0E12C89818E1508F4E82EC6
:103BF000E98203C04111B2CED7CEDF91CF911F91A0
:103C00000F91FF90EF90DF90CF90AF909F908F90AB
:103C100008956F927F928F929F92AF92BF92CF92B0
:103C2000DF92EF92FF920F931F93CF93DF93B82E03
:103C300083E89EE00E94DA1AD6E0AD2E15E0C12E90
:103C40000BE8E02E0EE0F02E06E02CE93DE041E02E
:103C50006B2D88EF98E00E94391CA090F8087090B6
:103C6000F9088091630081FF04C061E97EE088E18A
:103C70000AC1AA9480912F08882319F0C3E09C2ED2
:103C800002C099249394E12CF12CB0E1DB2EE701E2
:103C9000CC0FDD1FCC53DB4F8E2C4E2D4F5F20E021
:103CA0006D2D80E00E94680FC12CA81002C07C140A
:103CB00011F010E001C0192D82E0C81609F448C0C7
:103CC000E3E0CE1609F45BC0F1E0CF16E9F06980BD
:103CD000629466946694F3E06F22012F262D48E9E2
:103CE0005EE06D2D88E10E94AE5A11FF61C022E0B6
:103CF00040E0662D8B2D0E9437138295880F880F28
:103D0000807C99819F7321C00981000F000F059568
:103D100005958DE00802A001112457FF02C04D5FF8
:103D20005F4F5595479555954795212F6D2D82E409
:103D30000E94695D11FF3CC02FE141EE602F8B2D89
:103D40000E9437138F739981907C982B998330C090
:103D50006880E7E06E22012F262D43EA5EE06D2D9C
:103D600088E40E94AE5A11FF23C023E040E0662D94
:103D70008B2D0E94371387709881987F17C0088118
:103D8000059505950595212F402F6D2D8AE50E94FB
:103D9000B30F11FF0DC026E14AEE602F8B2D0E945C
:103DA0003713880F880F880F98819770982B988306
:103DB000C394F4E0CF1279CF88E0D80EEFEFEE1A7B
:103DC000FE0AF0E3DF1263CF61EB7EE080E30E9446
:103DD000E15A84E0A81202C021E201C020E2409131
:103DE000D404552747FD5095465F5F4F60E38EE44E
:103DF0000E94695DE4E0AE1209C028E246EF6091DE
:103E0000D4048B2D0E9437138093D404EE24E394C2
:103E1000F5E0AF12E12C2E2D4CEB5EE068E380E084
:103E20000E94C25A06E411E0CCEBD4E070E3F72E16
:103E3000F801419151918F01E991F9914E1B5F0B6E
:103E4000440F551F20E268E38F2D0E94695DF8E161
:103E5000FF0E80E9F812ECCFEE2091F0E0E6BE1202
:103E60000FC088E0E6E4F1E0ACEBB4E001900D9225
:103E70008A95E1F781E00E94005587E10E94B16ACE
:103E800060EC7EE088E0DF91CF911F910F91FF9071
:103E9000EF90DF90CF90BF90AF909F908F907F90EA
:103EA0006F900C94E15AAF92CF92EF92FF920F93E2
:103EB000AE2CC12CE12CF12C0E94391C0F91FF90EB
:103EC000EF90CF90AF900895EF920F93CF93C82FBC
:103ED0008BE79EE00E94DA1AE12C06E02CE93DE037
:103EE00042E06C2F86EF98E00E94531F6EE377E06C
:103EF00080E10E94E15A6EE677E088E10E94E15A93
:103F00006DE577E080E20E94E15A6EE477E088E2B6
:103F10000E94E15A64E377E080E3CF910F91EF9044
:103F20000C94E15AEF92FF920F931F93CF93DF937C
:103F3000C82F84E09EE00E94DA1AE12C06E02CE90A
:103F40003DE043E06C2F84EF98E00E94531FCEE0E9
:103F5000D0E010E0EC2E8C2F8E50012F843008F032
:103F60000850CE010E94CC5EF82E4E2D4D5020E020
:103F7000602F8AE20E94B30F4F2D405D2F2D602FDE
:103F800084E40E94D859185F2196183419F788E301
:103F9000F82EC0E0D0E000E010E0C8010E94CC5E46
:103FA000E82EAE01475F514F25E06F2D80E00E9463
:103FB000BC5A4E2D405D2E2D6F2D80E20E94D859A7
:103FC0000F5F1F4F259688EFF80E88E0F812E5CFB7
:103FD00048E25EE068E184E50E94E75AC6E0D0E08E
:103FE00010E2F12C00E02F2D40E35EE0612F84E52C
:103FF0000E947D59CE010E94CC5E482F405D282F43
:10400000612F8CE60E94D859CE0101960E94CC5EA9
:10401000482F405D282F612F88E70E94D859F394DC
:10402000185F229684E0F812DDCFDF91CF911F91C7
:104030000F91FF90EF900895AF92BF92CF92DF92D1
:10404000EF92FF920F931F93CF93DF93B82E8DEFD4
:104050009DE00E94DA1AEE24E39406E02CE93DE0AC
:1040600044E06B2D82EF98E00E94531FA090F2086D
:10407000C1E5D8E010E000E0C12C94E0D92EE12C9D
:10408000F12C41E4612F88E10E94895A402F4F5C56
:10409000612F8EE10E94895A802F0E947616AC0112
:1040A000612F8AE20E94EA5A073081F0A881B98123
:1040B00024E630E00E94696DA70196010E94DD6D43
:1040C000A901612F8AE50E94785D0AC081E0A816E7
:1040D00011F040E201C041E2612F8AE50E94630FC6
:1040E0000F5F185F2296083061F622E041E05EE043
:1040F00068E28CE60E94BC5A409100015091010197
:1041000060E388E70E94785D81E0A8120BC0A0926E
:104110002D082FE741E86091BA048B2D0E943713D8
:104120008093BA04DF91CF911F910F91FF90EF9090
:10413000DF90CF90BF90AF900895EF920F93E42E51
:1041400000E020E030E040E00E94531F0F91EF902C
:104150000895BF92CF92DF92EF92FF920F931F9339
:10416000CF93DF93D82F81E89DE00E94DA1A8091E7
:104170002F08811114C0E0912C08E7FF10C0E195D1
:10418000EA3008F0E9E0F0E0EE0FFF1FE350F84FEF
:1041900025913491C9010E946A1310922C08109144
:1041A000B3084FE06D2F83EB98E00E949D206AE8F2
:1041B0007DE080E00E94E15A0E941856AC0160E068
:1041C00086E60E94785D41E06AE080E00E94131C70
:1041D000C091B30880911307823021F41092B50882
:1041E00010921307D63648F4D436B8F5D03609F411
:1041F00060C0D13609F07FC00AC0D13809F460C070
:10420000DF3B09F46FC0D03809F075C05DC0809104
:10421000B508882311F11092B50887E10E94B16AB0
:1042200081E60E942D5F0E94A4558091B30880937F
:10423000B7040E94E8538091E3010E94C91382E011
:1042400080930B0181E00E9400550E94A45582E0FA
:104250000E9400550E94A4554EC08091B7048C174F
:10426000E1F08D2F0E942D5F8091B3088093B704F9
:104270000E94A4558091B7040E94E8538091E30105
:104280000E94C91382E080930B0181E00E940055D7
:104290000E94A45581E00E94B16AD53619F482E6E5
:1042A0009CE404C0D43639F585E190E40E946A1399
:1042B00022C081E08093B50887E10E94B16A1BC0EB
:1042C00081E00E94471317C08091B508882399F0B8
:1042D00081E080931307C093120787EC96E20E9457
:1042E000791309C01092B5088091B7048093B30880
:1042F00081E00E9412558091B508882341F01C1777
:1043000031F06C2F6F5F812F8F5F0E94DB56DD27AE
:10431000C7FDD095809130089E01281B3109C90145
:10432000181619065CF0CE01019797FF02C080E0D5
:1043300090E08093300810E1B12C0BC0253031059E
:10434000D4F3CE0104978B3091059CF38AE090E082
:10435000F0CFF0903008FB0CCF2CD12CCC15DD0524
:1043600011F401E101C000E196012F5F3F4F4427A6
:1043700037FD4095542F62E0E62E612F82E10E94C6
:10438000015C8091B704F81205C04AE2612F81E018
:104390000E94895A4FE066EB78E08F2D0E94B1535E
:1043A000CC15DD0531F48091B508882311F001E1C9
:1043B00001C000E12FE046EB58E0612F88E10E9448
:1043C0008C5AB394185F36E0B312C3CFDF91CF910C
:1043D0001F910F91FF90EF90DF90CF90BF900895C5
:1043E000CF92DF92EF92FF920F931F93CF93DF93C1
:1043F000C1E5D8E047E16CE28AE20E94B01A47E1E9
:104400006CE286E50E94B01A43E06BE28AE20E9409
:10441000635B43E06CE289E20E94605B43E06BE235
:1044200086E50E94635B43E06CE285E50E94605B89
:104430008A819B81EFE8EE2EFF24FA94B7010E9457
:10444000A76D262F245D8881998101E710E0B801CE
:104450000E94A76D862F45E0622F865D0E94B01AEC
:104460008C819D81B7010E94A76D262F245D8E81CE
:104470009F81B8010E94A76D862F45E0622F8A5A5E
:104480000E94B01A2896FAE3FF2E0DE510E0A7E38C
:10449000CA2E899199919C5FB8010E94A76DD62E72
:1044A000D394EC2CE61A4D2D6E2D8F2D0E94635B5C
:1044B0004D2D6E2D8F2D8F5F0E94635B4D2D6E2DC8
:1044C0008F2D8E5F0E94635B85E0F80E89E4F81201
:1044D000E0CFDF91CF911F910F91FF90EF90DF9090
:1044E000CF9008959F92AF92BF92CF92DF92EF92BA
:1044F000FF920F931F93CF93DF93A82E80E99DE047
:104500000E94DA1AEE24E39406E02CE93DE045E04F
:104510006A2D85EC98E00E94531F1092C508C7ECE5
:10452000D8E005ED18E078016E01B12C8B2D0E94CA
:1045300076169C01D6014C91F6015181841795079E
:104540000CF4AC01D6014D935D936D01F7014081F0
:104550005181421753070CF4A901D7014D935D9384
:104560007D01B394B7E0BB12E1CF8091E308809363
:104570002D08E0E2AE1621F0FFEBAF120EC00BC02B
:104580008F5F8093E308833041F487E10E94B16A32
:1045900081E00E9400551092E3088091E308813089
:1045A00081F020F0823009F098C035C068EA7DE0E3
:1045B00080E10E94E15A6BEB7DE088E10E94E15AC4
:1045C0008CC06CEC7DE080E10E94E15A4AED5DE038
:1045D00068E182E10E94E75A84EEE82E88E0F82E36
:1045E000912C98E9A92E9AE3B92E28E6C22E25EC43
:1045F000D22EA992B992D801CD92DD928D01892D4A
:104600000E947616F701819391937F019394F7E0CE
:104610009F12EFCF62C06BEE7DE080E10E94E15A15
:104620004AED5DE068E182E10E94E75A44EE58E01D
:10463000BBE8CB2EB4E0DB2EF601E990F990D8016F
:104640008D919D918D019701281B390B37FF03C078
:10465000309521953F4F233331053CF1DA016D91BF
:104660007C91718360839B012E193F09790137FF8B
:1046700003C0BFE3EB0EF11CA6E0F594E794AA9506
:10468000E1F72E193F0937872687861B970B9C0178
:1046900097FF02C0215C3F4FB6E035952795BA954C
:1046A000E1F7821B930B958F848F4E5F5F4F32969D
:1046B00028E0C53DD20709F680E090E0D6012D91B3
:1046C0003D916D01820F931FB3EACB16B4E0DB0678
:1046D000A9F79093B6048093B504DF91CF911F9111
:1046E0000F91FF90EF90DF90CF90BF90AF909F9091
:1046F0000C94F0210F931F93CF93DF93C82F162FA5
:10470000D22FBA01812F0E94E15A2D2F4C2F612FF9
:1047100086E60E94F91BDD2351F021E040E06C2F7A
:10472000802FDF91CF911F910F910C9437138C2F15
:10473000DF91CF911F910F910895CF93CAE09AE036
:10474000899F900111242D503E4F90E080959095C7
:104750008096C89FA001C99F500D1124B901665FC2
:104760007F4FC9010E940E6EE9E2F3E0DF011D9266
:10477000CA95E9F782E00E940055CF910C94A455A8
:104780000F931F93CF93DF9385EFE6E1F7E0DF010F
:104790001D928A95E9F750911507ADEFB1E030E031
:1047A00081E090E040E0D5E0FD013A977081772309
:1047B00011F0272F01C020E1421710F5C82F642FF8
:1047C000092F041BE02FE60F6F5FDE9FF00111241D
:1047D000EA5EF84F162F1F735081507C512B5064A6
:1047E0005083C183CF5F33836213ECCF642F609516
:1047F000582F541B860F820F960F920F520F422F85
:10480000711103C05093150724C0D99FF0011124E2
:10481000EA5EF84F2F735081507C3483522B5068DE
:1048200050838283282F2F5F5C91751304C01182FF
:104830001382822F05C021838E5F232F2F5F238356
:10484000582F9F5F3F5F1A96303209F0ADCF8093AB
:104850001507DF91CF911F910F910895E3EFF1E0DC
:1048600080E090819150903108F48F5F3A9693E008
:10487000E333F907B1F70895CF93C82F61E77AE0E2
:1048800080E10E94E15A0E942E24482F50E060E10E
:1048900088E70E94785D64E87AE080E20E94E15A4D
:1048A000C13659F481E60E942D5F81E00E944713D2
:1048B0008BE694E2CF910C947913CF9108950E94E6
:1048C0002E24803230F08CE394E20E94791381E050
:1048D000089580E008955F926F927F928F929F92E9
:1048E000AF92BF92CF92DF92EF92FF920F931F93FE
:1048F000CF93DF93182F8DEB9AE00E94DA1AE090A5
:104900001507EA940AE02DEF37E044E0612F80EAD2
:1049100098E00E94531FD090A008D11002C01092BE
:10492000A2081236C9F168F41334A1F120F412344C
:1049300009F0C7C031C01036C1F0113609F0C1C04E
:104940009FC0103809F4ACC020F4133609F0B9C088
:1049500021C01E3B09F491C01F3B09F0B2C081E0A9
:104960008093A3081092A20888C01D143CF481E033
:104970009091A208911180E08093A2088091A208F2
:104980008093A30880919E08882309F49AC010920E
:10499000A20897C01092A3088091A208882309F466
:1049A00090C0C090A30800919F08013208F05CC03D
:1049B000FF24F394123609F0F12C011103C0F11019
:1049C00008C052C0003219F4FF2031F04DC0FF2062
:1049D00019F0E02EE39402C0E02EEA94802F0E94AA
:1049E000E30EEC018E2D0E94E30EFC018881982FCE
:1049F00091509031C8F520812131B0F5CC20E1F003
:104A00000E945F24811130C08AE0089F9001112428
:104A10002D503E4F402F50E040955095CA01809652
:104A20006AE0689FA001699F500D1124B901C90176
:104A30000A960E940E6E18C0281771F0FF2029F008
:104A4000803190F48F5F88830FC098830DC0908170
:104A500028812193999301C08BE08150C1F782E0B6
:104A60000E9400550E94A4558091A308882319F044
:104A7000133609F4DA941092A3080E94C02321C0CF
:104A80008091A2088823E9F080919F088093140701
:104A90001092A20881E60E942D5F87E497E20FC082
:104AA0001D147CF480919E08882329F00E945F24C5
:104AB000882309F425C11092A20889EF9DE40E9481
:104AC000791338E0C32E77247A9443E6842EA12C00
:104AD00099249A9455E0652E55245394C09130083A
:104AE000CA0D6C9EE0011124CA5ED84F4881842F04
:104AF000807C09F4D4C046FF06C04F7320E06C2DC3
:104B000080E00E94920F1D149CF48981D81210C07D
:104B10006C2D695F48E180E00E94605B8B8180932F
:104B20009F0888818F738093A40850929E089A2CC6
:104B3000888187FF9CC09C81EAE09E02700111245D
:104B400023EF31E0E20EF31EBB24B3949A81D91215
:104B5000B12C86FD13C08091A208811102C000E033
:104B600001C00B2DF70147814695477050E04D532A
:104B7000554F21E06C2D82E10E948C5AF701428151
:104B8000552747FD50952B2D6C2D8DE20E94695DB8
:104B90008091A208811102C020E001C02B2D45E2C6
:104BA0006C2D8DE20E94D8598091A208811102C01B
:104BB00020E001C02B2DF70141816C2D86E30E947E
:104BC000680FF7014381442359F08091A2088111B5
:104BD00002C020E001C02B2D6C2D8EE40E94B30F8B
:104BE000F7014481442391F08091A208811102C011
:104BF00000E001C00B2DF3E04F9FA00111244E56A1
:104C0000584F23E06C2D86E60E948C5A81E0F70114
:104C10009581911101C080E0F7019681992309F4F3
:104C200097C0811198C043E501C044E480912F08EA
:104C3000811102C020E001C02B2D6C2D89E70E945C
:104C4000D859F1E0BF1213C02DE743E8F7016281A4
:104C5000812F0E943113F70182838C8180939F08FA
:104C600088818F738093A40810929E089A2C898162
:104C7000882331F088150CF4882E87150CF0782ED7
:104C80008A81882331F088150CF4882E87150CF062
:104C9000782EA394F8E0CF0E27E0A2121FCFDD20DC
:104CA000A9F03FEF931220C0D81464F4809130082B
:104CB00090E001978F3FEFEF9E0711F480E090E0C6
:104CC000809330087D140CF048C014C0FFEF9F1291
:104CD0000BC08091300890E001978F3F2FEF920733
:104CE00061F480E090E009C035E03915B4F587E063
:104CF0008A1598F5809130088F5F809330082DC019
:104D000020919F080AE0EAE02E9FE0011124CD5097
:104D1000DE4F30E020953095205E3F4F029FA0018E
:104D2000039F500D1124BE01CE010A960E940E6E03
:104D3000FE0111920A95E9F78091A408888389837E
:104D400084E68A8382E00E9400550E94A455B3CE77
:104D500081116BCF76CF4AE269CFDF91CF911F915E
:104D60000F91FF90EF90DF90CF90BF90AF909F900A
:104D70008F907F906F905F9008956AE97AE088E263
:104D80000E94E15A62EA7AE080E30C94E15A0F93C0
:104D9000CF93C82F80911307882319F06BE57BE030
:104DA00002C06BE67BE088E00E94E15A00E12AE065
:104DB00049ED51E060E181E00E948C5A4FE360E1EF
:104DC00082E40E94895A0E94BD26C13609F450C06F
:104DD000CF3B21F0C03609F057C005C080E0CF912D
:104DE0000F910C94B16A809113078823A9F088E78A
:104DF0009BE00E942712809112070E941F54882373
:104E000039F087E10E94B16A82E0809313072EC0D7
:104E100080E00E94B16A2AC08091B7048F5F0E942F
:104E2000FD56C091B70408C0C150C13108F0CFE0B1
:104E30008091B704C81739F08C2F8F5F0E94CD5630
:104E4000882391F301C0C0E0C093B70481E00E94C1
:104E500000550E94A4558091B7040E94E8538091A8
:104E6000E3010E94C91382E080930B0180E601C038
:104E700081E60E942D5F81E00E94471389EA90E25B
:104E8000CF910F910C947913CF910F910895CF93F7
:104E9000C82F61EB7AE088E00E94E15A0E94BD26AB
:104EA000C13679F0CF3B19F0C036B1F404C080E0D0
:104EB000CF910C94B16A809114070E949D230E94A7
:104EC000C0238C2F0E942D5F81E00E9447138BE648
:104ED00094E2CF910C947913CF9108954F925F9201
:104EE0006F927F928F929F92AF92BF92CF92DF92FA
:104EF000EF92FF920F931F93CF93DF9300D000D0D8
:104F0000CDB7DEB78C01A0E0B0E089839A83AB8394
:104F1000BC832B01612C712C64E6862E912CA12C74
:104F2000B12CA50194012419350946095709BC0182
:104F3000CD010E94836D6B017C0192E3C90ED11CEF
:104F4000E11CF11C9801D8010E945D6D9B01AC0130
:104F500069817A818B819C810E94836D9C014427A9
:104F60005527C301B2010E94836DF4E096958795A1
:104F700077956795FA95D1F7C60ED71EE81EF91EEC
:104F8000C701B601A50194010E94BB6DC9010F9034
:104F90000F900F900F90DF91CF911F910F91FF9085
:104FA000EF90DF90CF90BF90AF909F908F907F90C9
:104FB0006F905F904F9008951F93CF93DF939C0164
:104FC0006115710509F1132F111F1127111F19F018
:104FD000309521953F4F77FF0EC0709561957F4FBB
:104FE000C0E0D4E0CE01821B930B0E946E279E018D
:104FF000281B390B04C0C9010E946E279C01112394
:1050000019F0309521953F4FC901DF91CF911F9144
:1050100008958F929F92AF92BF92CF92DF92EF92BC
:10502000FF920F931F93CF93DF93CDB7DEB7F82E88
:10503000362F922F802F6E2D222319F0411104C09C
:1050400079C020E0912C03C022E099249394992305
:1050500011F0311121E0D12C93E6A91209C09EE094
:105060009C9D80019D9D100D112401571C4F0BC06C
:10507000F2E6AF1214C09EE09C9D80019D9D100D34
:10508000112400571C4FF80140810E94B30F992052
:1050900009F459C0F801608126E14AEE45C0B12CFF
:1050A0004F8550E081101EC09EE09C9D80019D9D1B
:1050B000100D1124AA0CBB1CAA0CBB1C0A0D1B1D35
:1050C000040F151F0D571C4FF8014081552747FD50
:1050D00050950E94695D9920B1F1F801608124E644
:1050E0004CE922C08501000F111F97E09C9DF00143
:1050F0009D9DF00D11240E0F1F1F080D111D000F97
:10510000111F040F151F0D571C4FF8014081552723
:1051100047FD50954C595F4F0E94695D992099F069
:1051200020E04CE9F80160818F2D0E943113F801D5
:10513000808309C0409162015091630121E0452BB9
:1051400009F083CF7FCFDF91CF911F910F91FF9017
:10515000EF90DF90CF90BF90AF909F908F90089589
:105160002F923F924F925F926F927F928F929F9277
:10517000AF92BF92CF92DF92EF92FF920F931F9365
:10518000CF93DF93CDB7DEB72E970FB6F894DEBF7F
:105190000FBECDBFB82E8EEF9AE00E94DA1A74E0EF
:1051A000A72ECC24C394E6E0EE2EEBE0FE2E0AE020
:1051B0002DEF37E043E06B2D89EA98E00E94391C1F
:1051C0004090A9084A942091AA082A8330E8B31293
:1051D00008C047FC06C04092A70885E99AE20E94F1
:1051E000791348E05BE068E085E10E94E75A89EDC9
:1051F00091E09D838C835BEA652E58E0752EE1E596
:10520000F8E0F887EF8360E1F62E1E861D865524B0
:1052100047FC50944EE0449D9001459D300D112473
:105220003C872B879D84AC81BD81AA54BE4F40E052
:1052300060E08C910E949610882371F0AC81BD8152
:10524000A954BE4F40E060E08C910E9496108111FD
:1052500005C081E0898304C0198202C092E099836D
:10526000F981E4E0FE9F10011124EEE08D859E851A
:10527000E89F9001E99F300D1124220D331D275224
:105280003E4FD901A355BE4FF901E455FE4F9C9105
:10529000808198130AC0F901E555FE4FD901A65542
:1052A000BE4F41E090818C91981340E0EF81F885EA
:1052B00021913191F887EF83C9014996C39708F08E
:1052C00040E04B832A3131051CF0F301108206C007
:1052D000273E3F4F1CF421E0F30120838091CE0450
:1052E000817089871A8682E090E0E985FA858E1BB5
:1052F0009F0B2D853E858217930751F48091EA011B
:1053000084FF06C0F901E555F74F108231E03B8379
:10531000492D4F5F20E06F2D80E00E94680FF30160
:105320003081F1E0FE8331111E8280912F08DD244F
:10533000D394811107C08091620190916301892B00
:1053400009F4D12C8D859E854816590619F421E063
:105350009A81911120E03F93812CA980C92CEF2CD8
:1053600007E24D2D60E08B2D0E9409280F90ED85FE
:10537000FE854E165F06E1F4FA81F11119C0DD20B9
:10538000B9F02B812223A1F00B851C85020D131D82
:1053900007521E4F3E81030F111D06551E4F24E676
:1053A0004CE9F80160818B2D0E943113F801808354
:1053B000F30180812D853E854216530621F421E0BC
:1053C0003A81313009F020E08F9388248394A980BA
:1053D000C92CEF2C09E34D2D60E08B2D0E9409288C
:1053E0000F908D859E854816590609F59A81913052
:1053F00009F07CC0DD2009F479C0EB81EE2309F4CB
:1054000075C02B853C85220D331D27523E4FFE81F2
:105410002F0F311D890104551E4F20E04CE9F80182
:1054200060818B2D0E943113F80180835FC020E0E2
:105430001F92812C43E6A42EC92CEF2C0FE34D2D97
:1054400060E08B2D0E9409280F902D853E85421625
:10545000530621F421E03A81333009F020E01F9215
:10546000812C32E6A32EC92CEF2C07E54D2D60E0F0
:105470008B2D0E9409280F904B81411106C0F3012A
:105480008081882321F04FE703C04DE201C04EE741
:10549000F3018081811105C0FB81F11102C08BE312
:1054A00001C08AE36F2D0E94895A2981213021F0A1
:1054B000223021F44CE403C04DE401C048E46F2DD8
:1054C00085E70E94895A8D859E8501969E878D87E6
:1054D000EC81FD813E96FD83EC83F8E0FF0E2FEF1B
:1054E000621A720A049709F09DCE06C021E03A8143
:1054F000323009F49DCF9BCF2E960FB6F894DEBFC5
:105500000FBECDBFDF91CF911F910F91FF90EF9014
:10551000DF90CF90BF90AF909F908F907F906F90D3
:105520005F904F903F902F9008952F923F924F920F
:105530005F926F927F928F929F92AF92BF92CF9223
:10554000DF92EF92FF920F931F93CF93DF93CDB72C
:10555000DEB729970FB6F894DEBF0FBECDBFD82EA9
:1055600087EC9AE00E94DA1A33E0A32EC12C4FECAC
:10557000E42E4AE0F42E00E020E030E040E06D2D23
:1055800085EA98E00E94391C4091A7084F5F20E00F
:1055900060E080E30E94680F1091A508A091A70821
:1055A0000EE00A9FD0011124A157BC4F40E060E0FB
:1055B0008C910E949610882389F0E091A7080E9F95
:1055C000F0011124E057FC4F40E060E080810E9430
:1055D0009610811105C0FF24F39404C0F12C02C081
:1055E00022E0F22E8091A708482F50E0FA01EE0F3A
:1055F000FF1FEF5AF74F208131812A3131051CF00E
:105600001092A80806C0273E3F4F1CF491E09093EB
:10561000A8089091CE0490FB882480F8912C22E079
:1056200030E0281939092417350739F4843028F473
:105630008091EA0184FD1092A80860ED7AE080E193
:105640000E94E15A21E0111120E08091A8088F9377
:10565000812CAF2CC090A70880E1E82E06E341E042
:1056600061E08D2D0E94092865ED7AE088E10E94B5
:10567000E15A21E0113009F020E08091A8088F93D1
:1056800088248394AF2CC090A70808E1E02E06E39D
:1056900041E061E08D2D0E9409286CED7AE080E206
:1056A0000E94E15A21E0123009F020E01F92812C83
:1056B000A3E6AA2EC090A708B0E2EB2E0EE141E0CF
:1056C00061E08D2D0E94092862EE7AE088E20E9456
:1056D000E15A21E0133009F020E01F92812CE2E62C
:1056E000AE2EC090A708F8E2EF2E0EE141E061E097
:1056F0008D2D0E9409280F900F900F900F90E1E0E0
:10570000FE1621F0F2E0FF1207C003C068EE7AE057
:1057100005C06FEE7AE002C066EF7AE080E30E9497
:10572000E15A4091A708242F30E05EE0459FC00178
:105730001124E4E0FE9E800D911D112487529E4F9E
:10574000DC01A655BE4FFC91FC83DC01A555BE4F84
:105750005C915B83FC01E455FE4F50815C59598795
:10576000DC01A355BE4F8C918C598A838091CE0465
:1057700080FB662460F8712C82E090E0861997091E
:10578000EC812E2E332427FC3094A52EBB24A7FCBD
:10579000B0948217930709F07AC0443008F077C0BC
:1057A0008091EA0184FF73C0C12CD12C760119824B
:1057B00001E210E064E6862E912C70E4672ED7019A
:1057C000C601B595A79597958795B1010E94DC27ED
:1057D000880F991FB8010E94A76D6A9DC0016B9D3B
:1057E000900D7A9D900D11245FE3752EF9817F0E47
:1057F000B4010E94936D262D261B622F872D0E94D7
:10580000125B8981837051F46FE3872D0E94125BD4
:1058100069816695605E8FE30E94125B39813F5F0C
:10582000398351E2C50ED11CE11CF11C3E3339F61F
:10583000E091A708F0E0EE0FFF1FEF5AF74F00814D
:1058400011814801AA2497FCA094BA2CC501B40187
:1058500021E230E040E050E00E94DD6D4EE361E087
:10586000822F825A0E94635B4091A7088091CE04E8
:1058700080FB442440F8512C82E090E08419950983
:10588000242F30E08217930709F0B2C06DC000E00A
:1058900010E0188681E2E82EF12C94E6C92ED12C76
:1058A0008B81882E992487FC90949A81692E772485
:1058B00067FC70940E831F83B101C8010E94DC272E
:1058C000B7010E94A76D6A9DC0016B9D900D7A9DE6
:1058D000900D1124E885E25AE983B6010E94936D88
:1058E000F0E2F61B6F2F8E2F0E94125B288523702B
:1058F0002D83211109C060E289810E94125B6885B5
:10590000605E8EE50E94125BB4018E819F810E94D1
:10591000DC27B7010E94A76D669DC001679D900DB1
:10592000769D900D11243EE55885351B3983B601CF
:105930000E94936D605E832F0E94125B8D818111A6
:105940000AC060E289810E94125B60E29885691B4F
:105950008EE50E94125BE885EF5FE8870F5D1F4FC1
:10596000EF3109F0A7CF64CF443008F041C08091F7
:10597000EA0184FF3DC0C501B4017C5F8F4F9F4F9A
:1059800022E030E040E050E00E94DD6DB101C9014D
:105990000E94DC279C01220F331FA985A7FDAD5F64
:1059A000A595A595BB27A7FDB0950E94556D29E14A
:1059B00030E040E050E00E94DD6D69017A01CA01EB
:1059C000B9012FED3FEF4FEF5FEF0E94DD6D622FCA
:1059D000605C4EE38FE30E94605BC701B60122E08A
:1059E00030E040E050E00E94DD6D69017A0136C090
:1059F000181419041A041B0414F46C8101C06B817F
:105A0000772767FD7095C8010E94DC2718141904D8
:105A10001A041B0414F4A98501C0AA81A7FDAD5F77
:105A2000A595A5959C01BB27A7FDB0950E94556D36
:105A300029E130E040E050E00E94DD6D69017A012B
:105A4000CA01B9012FED3FEF4FEF5FEF0E94DD6D0F
:105A5000622F605E4EE38FE30E94605B29E130E0DD
:105A6000D8010E94696D412C512C32015394A3013D
:105A700092010E94DD6DA90160E382E70E94785DDA
:105A8000A9E1B0E0A70196010E94706DA301920107
:105A90000E94DD6DA90168E084E50E94785D18141C
:105AA00019041A041B0454F4B101C80144970E945C
:105AB000DC279601281B390BC9010BC03B81632FE2
:105AC000772767FD7095C80144960E94DC278C19E2
:105AD0009D0945E0489F9001499F300D11244427BE
