:100000000C94EB0D0C94130E0C94130E0C94130E15
:100010000C94130E0C94130E0C94130E0C94130EDC
:100020000C94130E0C94130E0C94130E0C94130ECC
:100030000C94FB650C94130E0C94130E0C94BC0FD3
:100040000C94110F0C94130E0C94FB680C94130E6B
:100050000C94130E0C94130E0C94130E0C94130E9C
:100060000C94130E0C94220F0C94130E0C94130E7C
:100070000C94130E0C94130E0C94130E0C94130E7C
:100080000C94130E0C94130E0C94130E57686C689A
:100090007068746878687C68826888689268966816
:1000A0009E68A468A968AE68B368B968BF68C46888
:1000B000CF68DD683169406A4F695469406A6A698E
:1000C0006F69406A85698A69406AA069A569406A62
:1000D000BB69C069406AD669DA69F169F369F56993
:1000E000F769FB698040000000000000000000008C
:1000F0000000000000000000000000000000000000
:1001000000000000000000000000000000000000EF
:1001100000000000000000000000000000000000DF
:1001200000000000000000000000000000000000CF
:100130000080C0E0E0F0F8F8FCFCFCF8F8F8F040D3
:10014000000000000080808000000000000000002F
:10015000000000000000000000000080C0C0E0E0DF
:10016000E0F0F0F0E0C00000000000C0F8FFFF9FEA
:10017000878383838383838383838383838383834B
:1001800083838383838383038380838383838383C2
:10019000838383838383838383838383838383832F
:1001A00083C3E3733F1F0000000080E0F0F8FCFE13
:1001B000FFFFFFFF7F3F1F1F0F0783C3E1E1E0E069
:1001C000C0000E1F3F7F7FFFF3E0E08000000000D3
:1001D00000000000000080F0FCFEFFFFFFFF7F3FFB
:1001E0000F0301010100000080F0FEFFFFC7C1C145
:1001F000C1C1C1C1C1C1C1C1C1C1C1C1C1C1C1C1EF
:10020000C1C1C1C101C1F0FEFF3F0F070F0D0D0DB0
:100210001D191919193131313171616161E1C1C1A2
:10022000C18100000080E0F8FCFFFFFFFF2F170FE7
:10023000038180C0E0F0F8FCFEFFFFFFFFFFFF7FBF
:10024000010000000000000001010307070E1E1C52
:100250003870E0F0F8FEFFFF7F1F0F030001000081
:10026000000000000000000000000000000000008E
:10027000000000000000000000000000000000007E
:10028000000000000000000000000000000000006E
:10029000000000000000000000000000000000005E
:1002A000000000007EFFFFFFFFFFFFFBF8FCFCFEED
:1002B000FF7F3F1F0F07C3FFFFFFFFFFFF7F070009
:1002C00000000000000000000000000000C0E0F896
:1002D000FEFFFF7F1F0F1F3D7CF8F8F0E08000005D
:1002E000000000000000000000000000000000000E
:1002F00000000000000000000000000000000000FE
:1003000000000000000000000000000000000000ED
:1003100000000000000000000000000000000000DD
:1003200000000000000001010101010307070703AD
:1003300001000000E0FCFFFFFFFFFF1F03000000C3
:100340000000000000000000C0F078DE2713090E56
:100350000703000000000000000001030F7FFFFC06
:100360007878F800000000000000000000008080A5
:1003700080808080808080008080008080000000FD
:10038000000000008080808080808080808080806D
:10039000808080808080000000000000000000005D
:1003A000000000000000000000000000000000004D
:1003B0000080F0FEFFFFFFFF3F0F01000000000084
:1003C000000000C0E0381E0F030001000000000024
:1003D000000000000000000000000000000000001D
:1003E00000030301000000000000000000000E0EEA
:1003F00002020202020303000F0F000F0F08080899
:10040000080808080F0F08080808080F0F00000068
:10041000000F0F00000000000000000000000000BE
:10042000000000000000000000000000000000C00C
:10043000F8BFFFFFFF1F7F01000000000000000069
:10044000F0FCFF7F7830000000000000000000009A
:10045000000000000000000000000000000000009C
:10046000000000000000000000000000000000008C
:10047000000000000000000000000000000000007C
:10048000000000000000000000000000000000006C
:10049000000000000000000000000000000000005C
:1004A00000000000000000000000000000301C07F9
:1004B0000E0F070100000000000000000000000017
:1004C000000000000000000000000000000000002C
:1004D000000000000000000000000000000000001C
:1004E00000000000000000010203040102040301F7
:1004F00003020401030402010402030104030202D3
:1005000001030402010403020301040203040102C3
:1005100004010302040301030102040301040203B2
:1005200002010403020401030401020304020104A2
:100530000102030401030204020103040203010493
:100540000301020403020152554420454C45205446
:1005500048522041494C205255442054485220458D
:100560004C452041494C2041494C20454C452054A4
:100570004852205255442041494C2054485220456D
:100580004C45205255442000030102000405060793
:100590006D656E75537461636B206F766572666C02
:1005A0006F77006D656E75537461636B20756E6453
:1005B0006572666C6F7700707265737320616E7917
:1005C000204B657900414C455254004D45535341F1
:1005D0004745004C4F4144494E4700506C6561739C
:1005E00065207265736574207468656D0053776962
:1005F0007463686573206E6F74206F666600204FA9
:100600006C642056657273696F6E20454550524F79
:100610004D202020434845434B2053455454494ED8
:1006200047532F43414C494200416C61726D732026
:1006300044697361626C656400526573657420740B
:1006400068726F74746C65005468726F74746C6552
:10065000206E6F742069646C65005072657373203E
:10066000616E79206B657920746F20736B697000FF
:10067000414C45525400454550524F4D206C6F77C8
:10068000206D656D004F4646414253525573525599
:1006900025454C73454C25544873544825414C73AB
:1006A000414C2550312050312550322050322550B8
:1006B000332050332500544852525544454C454947
:1006C000443049443149443241494C4745415452F0
:1006D0004E5357315357325357335357345357357B
:1006E0005357365357375357385357395357415346
:1006F0005742535743004F4646004F4E20002D2D82
:100700002D002D2D2D2043483120434832204348D1
:10071000332043483420434835204348362043485B
:100720003720434838204348392043483130434834
:1007300031314348313243483133434831344348FF
:1007400031354348313643483137434831384348DF
:1007500031394348323043483231434832324348DA
:1007600032334348323443483235434832364348C3
:1007700032374348323843483239434833300050E7
:1007800031202050322020503320204D4158204627
:10079000554C4C43594331435943324359433350E9
:1007A000504D3150504D3250504D3350504D3450CB
:1007B000504D3550504D3650504D3750504D3843B8
:1007C00048312043483220434833204348342043B3
:1007D0004835204348362043483720434838204393
:1007E000483920434831304348313143483132435E
:1007F000483133434831344348313543483136007A
:100800002D2D2D2D00564552533A2056312E35317F
:1008100035312D6572657A00444154453A203133B3
:100820002E31312E323031310054494D453A20318C
:10083000373A30353A3539002053564E3A207472E3
:10084000756E6B2D7236323100204D4F443A204187
:100850005244552020200012081200081C080808E5
:100860001C080000082200490022080000000000C7
:10087000227F220000000822004900220800000810
:10088000220049002208000000227F220000000010
:1008900000082200490022080000081C0808081C63
:1008A000080082391C3CE73A4442B64BFA50B03853
:1008B0005644EA4923506C31C02F54368B361A37D0
:1008C0009C3720202054546D00457870457846466A
:1008D0006E654D656443727300544F540053542544
:1008E0000053544B0054535700544D45005354414A
:1008F00054005B4D454E555D20746F2072656672E5
:1009000065736800537461636B20202020202020D1
:100910002020206200746D61696E2020202020203C
:10092000202020206D7300746D7231204A69747428
:10093000657220202020757300746D72314C6174D3
:10094000206D696E20202020757300746D72314C0B
:100950006174206D6178202020207573005354410C
:100960005432004D6F64650042616E6447617000EF
:10097000506F745363726F6C6C00416C61726D20C8
:100980005761726E696E67004D656D6F72792057A1
:1009900061726E696E67005377697463682057618E
:1009A000726E696E67005468726F74746C6520575C
:1009B00061726E696E670053706C61736820736357
:1009C0007265656E004F4646004C69676874206F1B
:1009D0006666206166746572004C6967687420738E
:1009E000776974636800466C617368206F6E20627B
:1009F000656570004265657020636F756E74646F25
:100A0000776E004D696E757465206265657000547F
:100A100068726F74746C65207265766572736500B8
:100A200053494E474F534D5046494C540046696C0C
:100A30007465722041444300496E6163746976694C
:100A4000747920616C61726D0042617474657279B1
:100A5000207761726E696E6700436F6E74726173A6
:100A6000740048617074696320537472656E6774B2
:100A70006800537065616B6572205069746368002B
:100A8000426565706572506953706B7250636D5743
:100A9000617600536F756E64204D6F64650051750B
:100AA000696574204E6F4B6579207853686F727456
:100AB00053686F7274204E6F726D20204C6F6E679A
:100AC0002020784C6F6E672000426565706572006B
:100AD0004F776E6572204E616D6500524144494FFB
:100AE0002053455455500043616C004D756C74693A
:100AF000706C696572006368316368326368336380
:100B00006834006F6666202B3D203A3D006D6F64AF
:100B10006520202025207372632020737700536C9A
:100B200061766500545241494E455200000303036B
:100B3000030056455253494F4E005472696D2D20A3
:100B40002B00204D656E75204578697420446F77C1
:100B50006E20202055705269676874204C65667459
:100B6000004449414700424700414E4100205B4D4F
:100B7000454E555D205748454E20444F4E45200078
:100B8000204D4F564520535449434B532F504F54FB
:100B9000532000202020534554204D4944504F49B4
:100BA0004E5420202000205B4D454E555D20544F73
:100BB0002053544152542020005354415254204356
:100BC000414C4942524154494F4E200043414C4907
:100BD00042524154494F4E0066726565004D4F4484
:100BE000454C53454C00434F4C2044697265637437
:100BF000696F6E0041494C20446972656374696F86
:100C00006E00454C4520446972656374696F6E00DF
:100C100053776173682052696E6700436F6C6C652F
:100C20006374697665002D2D2D202020313230200F
:100C300020203132305820203134302020203930EB
:100C4000202020200053776173682054797065005C
:100C500048454C49205345545550000044454C45A7
:100C60005445204D4F44454C2020205B4D454E556A
:100C70005D00543254685472696700547261696E41
:100C8000657200452E204C696D69747300504F5396
:100C90004E45470053686966742053656C00505098
:100CA0004D2046724C656E202020206D53656300F8
:100CB0007553656300344348203643482038434821
:100CC0002031304348313243483134434831364390
:100CD000480050504D202020505858202020445388
:100CE0004D3220200050726F746F005245544131D4
:100CF0003233004265657020436E74005472696D32
:100D000020537700457870202020457846696E652D
:100D100046696E6520204D656469756D436F61722B
:100D20007365005472696D20496E6300542D4578D7
:100D3000706F00542D5472696D00436F756E74208E
:100D4000446F776E436F756E742055702020005489
:100D5000696D657220005472696767657200546935
:100D60006D6572004E616D6500534554555000002D
:100D700009010000000000000602004475706C6963
:100D8000636174696E67206D6F64656C005B4D45CF
:100D90004E555D20205B455849545D005945532010
:100DA000202020204E4F0044454C455445204D4FB7
:100DB00044454C004455504C4943415445204D4F07
:100DC00044454C00204142434445464748494A4B2C
:100DD0004C4D4E4F505152535455565758595A61D5
:100DE00062636465666768696A6B6C6D6E6F70716B
:100DF00072737475767778797A3031323334353668
:100E00003738395F2D2E006578702020252020731B
:100E1000773120737732004558504F2F44520000ED
:100E20000344522048696768004452204C6F7700A1
:100E30004452204D69640044725377320044725327
:100E4000773100576569676874004578706F0045B1
:100E500058504F2F445200002B2A52004D495845FC
:100E600052005072657373205B455849545D20747D
:100E70006F2061626F7274004D6178206D697865D2
:100E800072732072656163683A200044454C455492
:100E900045204D4958205B4D454E555D00536C6FC4
:100EA000772020557000536C6F772020446F776E49
:100EB0000044656C61792055700044656C6179204F
:100EC000446F776E0041646420202020204D756CB3
:100ED0007469706C795265706C61636520004D7542
:100EE0006C747078004F4646005761726E696E6789
:100EF0000053776974636800437572766573004FB9
:100F00004E204F4646005472696D004F46464F4E84
:100F10002000466C4D6F64657472696D004F6666A3
:100F200073657400466D5472696D56616C00576547
:100F30006967687400536F7572636500454449546E
:100F4000204D49582000494E53455254204D495890
:100F500020002D2D2D2D202020763E6F6673202021
:100F6000763C6F667320207C767C3E6F66737C7661
:100F70007C3C6F6673414E44202020204F5220203D
:100F8000202020584F522020202076313D3D7632BF
:100F9000207631213D76322076313E763220207621
:100FA000313C7632202076313E3D76322076313C1F
:100FB0003D76322000535700435553544F4D205334
:100FC000574954434845530000025341464554593C
:100FD000205357495443484553000002434C454170
:100FE00052204D49584553205B4D454E555D0020DC
:100FF00052455441004368616E6E656C204F7264C7
:1010000065720054454D504C4154455300434F5078
:1010100059205452494D205B4D454E555D002D2DB4
:101020002D494E56004C494D4954530000030303CB
:1010300003030303030303030303030303004356F0
:1010400000435552564553005052455345540045B0
:101050004449542D3E0043555256450009002D2D5C
:101060002D494E56004F46464F4E20002D2D2D78CF
:101070003E30783C307C787C663E30663C307C6626
:101080007C63312063322063332063342063352056
:10109000633620633720633820633920633130633F
:1010A000313163313263313363313463313563312C
:1010B0003600454550524F4D206F766572666C6F15
:1010C0007700454550524F4D206F766572666C6FC4
:1010D000770067656E7772697465206572726F72EA
:1010E00000454550524F4D20466F726D61747469D2
:1010F0006E670042616420454570726F6D204461E7
:101100007461004D4F44454C2020202020004D4567
:101110002020202020202020005008500000000027
:10112000000000006F000007000700147F147F1408
:10113000242A7F2A1223130864623649552250005C
:1011400005030000001C2241000041221C0014087D
:101150003E081408083E080800503000000808083F
:10116000080800606000002010080402003E4945A5
:101170003E0000427F4000625149460041494936E5
:10118000001814127F0027454539003E49493200B6
:10119000017905030036494936000649291E000039
:1011A000363600000056360000081422411414148C
:1011B000141441221408000201510906000609090D
:1011C000067E0909097E7F494949363E414141224F
:1011D0007F4141221C7F494949417F090909013E5C
:1011E0004149497A7F0808087F00417F410020403B
:1011F000413F017F081422417F404040407F020C64
:10120000027F7F0408107F3E4141413E7F0909096A
:10121000063E4151215E7F09192946264949493236
:1012200001017F01013F4040403F1F2040201F3F00
:101230004030403F63140814630708700807615189
:10124000494543007F41410002040810200041410C
:101250007F000402010204404040404000010204BB
:101260000020545454787F4844443838444444203F
:10127000384444487F3854545418087E0901020CFD
:101280005252523E7F0804047800447D40002040C2
:10129000443D007F1028440000417F40007C04183A
:1012A00004787C0804047838444444387C141414CA
:1012B00008081414187C7C0804040848545454206A
:1012C000043F4440203C4040207C1C2040201C3CEB
:1012D0004020403C44281028440C5050503C44646A
:1012E000544C44000836410000007F0000004136A5
:1012F00008000808221C08081C220808A0608000BA
:1013000000000000000000000000000000FFFF00DF
:1013100000000000001F3F00003F1F00003030FFB2
:10132000FF3030FFFF30303078CCCCFFFFCCCC8C9E
:101330000C060F0F86C0E070381C0C3CFEC7E3F3B0
:101340003B1E0C00000000333B1F0F00000000009C
:1013500000F0F81C0E07030000000003070E1CF845
:10136000F000003030E0C0FCFCC0E03030C0C0C055
:10137000C0FCFCC0C0C0C0000000000000000000B5
:1013800000C0C0C0C0C0C0C0C0C0C00000000000DD
:10139000000000000000000080C0E070381C0C005D
:1013A00000000000000000000000000000383800CD
:1013B0000000000000000000000000000003033FE8
:1013C0003F03033F3F03030C0C0C0C3F3F0C0C0787
:1013D000030C0E07030100183C3C180F1F38313373
:1013E000331E1E3333000000000000000000000028
:1013F0000003070E1C38300000000030381C0E07B8
:10140000030000030301000F0F00010303000000AD
:10141000000F0F000000000000333B1F0F00000012
:1014200000000000000000000000000000183C3C2C
:1014300018000000000C0E0703010000000000006F
:1014400000FCFE87C3E377FEFC00000C0EFFFF00EC
:1014500000000000000C0E0783C3E77E3C00000381
:1014600003C3C3C3E7FE3C0000C0E070381C0EFF9E
:10147000FF00003F3F33333373E3C30000FCFEC77C
:10148000C3C3C78E0C00000303C3E3733B1F0F00ED
:10149000003CFEE7C3C3E7FE3C00003C7EE7C3C35D
:1014A000E7FEFC0000183C3C18000000000000189B
:1014B0003C3C18000000000000C0E0F0381C0E07A3
:1014C000033030303030303030303003070E1C38CD
:1014D000F0E0C000000C0E07030383C3E77E3C006E
:1014E000000F1F3B3130381F0F000030303F3F30BE
:1014F00030000000003C3E373331303030000030E7
:1015000030303030391F0F00000303030303033F63
:101510003F00000C1C383030381F0F00000F1F3800
:101520003030391F0F000000003F3F000000000076
:10153000000F1F393030391F0F0000000030381CF9
:101540000E07030000060F0F060000000000003326
:101550003B1F0F000000000000000103070E1C38B5
:10156000300303030303030303030330381C0E0794
:101570000301000000000000003333010000000000
:10158000003C7EE7C3C3E77E3CF0F8DCCEC7C7CEA5
:10159000DCF8F0FFFFC3C3C3C3C3E7FE3CFCFE0798
:1015A00003030303070E0CFFFF030303070E1CF8DE
:1015B000F0FFFFC3C3C3C3C3C30303FFFFC3C3C35E
:1015C000C3C3C30303FCFE0703C3C3C3C7CECCFF1F
:1015D000FFC0C0C0C0C0C0FFFF00000303FFFF0387
:1015E000030000000000000303FFFF0303FFFFC030
:1015F000E0F0381C0E0703FFFF00000000000000B1
:1016000000FFFF0E1CF8F81C0EFFFFFFFF3870E014
:10161000C08000FFFFFCFE070303030307FEFC007E
:101620000000000000000000003F3F00000000003C
:10163000003F3F3F3F3030303030391F0F0F1F38F1
:1016400030303030381C0C3F3F303030381C0E0703
:10165000033F3F30303030303030303F3F0000000B
:1016600000000000000F1F3830303030303F3F3F67
:101670003F0000000000003F3F000030303F3F309F
:101680003000000C1C383030381F0F00003F3F0086
:101690000103070E1C38303F3F30303030303030DF
:1016A000303F3F0000000000003F3F3F3F00000090
:1016B0000103033F3F0F1F3830303030381F0FFF1A
:1016C000FFC3C3C3C3C3E77E3CFCFE07030303039E
:1016D00007FEFCFFFFC3C3C3C3C3E77E3C3C7EE7FA
:1016E000C3C3C3C3C78E0C03030303FFFF0303037A
:1016F00003FFFF000000000000FFFFFFFF000000ED
:10170000000000FFFFFFFF000000000000FFFF0FD0
:101710001F38F0E0E0F0381F0F3F7FE0C08080C04E
:10172000E07F3F03030383C3E3733B1F0F0000FF0E
:10173000FF0303030300000C1C3870E0C0800000AE
:1017400000000003030303FFFF000030381C0E07F6
:10175000070E1C3830000000000000000000003FB1
:101760003F00000000000000000F1F383033371E1C
:101770001C3F333F3F000003070E1C38300C1C3861
:1017800030303030391F0F000000003F3F000000B4
:10179000000F1F3830303030381F0F03070E1C3851
:1017A000381C0E07030F1F38381F1F38381F0F3C17
:1017B0003E0703010103073E3C000000013F3F01DB
:1017C0000000003C3E373331303030303000003FD5
:1017D0003F30303030000000000000000103070EF1
:1017E0000C0000303030303F3F00000000000000AF
:1017F0000000000000303030303030303030300009
:101800000003070E1C38300000000030303030304C
:1018100070E0C0FFFFC0E070303070E0C0C0E0702A
:1018200030303030300000C0E070303070E0C0FF49
:10183000FFC0E0703030303070E0C0C0C0FCFEC788
:10184000C303070E0CF0F89C0C0C0C0C0CFCFCFFFA
:10185000FFC0E070303070E0C000003030F3F300C3
:10186000000000000000003030F3F30000FFFF0034
:1018700080C0E07030000000000303FFFF000000A4
:1018800000F0F03070E0E07070E0C0F0F0C0E070A8
:10189000303070E0C0C0E0703030303070E0C000F8
:1018A0000000000000000000000C1E3F3333333303
:1018B000333F3F3F3F3030303030381F0F0F1F383D
:1018C00030303030381C0C0F1F3830303030303F63
:1018D0003F0F1F3B3333333333030300003F3F00DD
:1018E0000000000000000133333333333B1F0F3F50
:1018F0003F0000000000003F3F000030303F3F301D
:101900003000000C1C383030381F0F00003F3F0300
:10191000070F1C38300000000030303F3F303000EF
:10192000003F3F0000030300003F3F3F3F00000037
:101930000000003F3F0F1F3830303030381F0FF0AD
:10194000F03030303030F0E0C0C0E0F0303030E027
:10195000C0F0F0F0F0C0E070303070E0C0C0E0F0F7
:10196000303030303000003030FFFF3030000000C9
:1019700000F0F0000000000000F0F0F0F0000000C7
:10198000000000F0F0F0F0000000000000F0F03087
:1019900070E0C08080C0E07030F0F0800000000097
:1019A00000F0F03030303030B0F0F070300000C077
:1019B000E03C3E0703000000000000FFFF000000C5
:1019C00000000003073E3CE0C00000C0C0C0C00CE7
:1019D0001CF8F0E0C0C0E0F0F81C0CC0C0C0C03F74
:1019E0003F03030303030301000001030303030395
:1019F000033F3F3F3F000000000000000030313354
:101A0000333333333F1E0C00000F1F383030381C87
:101A10000C0F1F383030381C0C3F3F03070E1C38AA
:101A2000381C0E07030F1F38381C1C38381F0F30A6
:101A3000381C0F07070F1C383000013333333333A2
:101A40003B1F0F30383C3E37333130303000000020
:101A5000010F1F38300000000000003F3F00000071
:101A600000000030381F0F01000000000000000CD3
:101A70000E07030100000103070E0C0000000040E8
:101A800080080420100201A71AB31AB91AC61ACD89
:101A90001ADA1AE51AF01A01020304010302040417
:101AA0000203010403020153696D706C6520342D3B
:101AB000434800542D43757400537469636B792057
:101AC000542D43757400562D5461696C00456C6546
:101AD000766F6E5C44656C74610048656C69205378
:101AE00065747570004779726F2053657475700066
:101AF000536572766F2054657374002041524455CB
:101B00002050494C4F54204D656761203F2F3820AD
:101B1000002052544C2044697374616E6365002048
:101B20004172647550696C6F74204D6F646500205C
:101B3000506974636820416E676C650020526F6C59
:101B40006C20416E676C650020436C696D622052A9
:101B500061746520002041697220537065656420BE
:101B6000002044697374616E6365200020576179B9
:101B700020506F696E7420232000204265617269D5
:101B80006E670020436F757273650020416C746945
:101B90007475646520486F6C640020416C746974CE
:101BA0007564650020436C696D6220726174650024
:101BB0002047726F756E6420737065656400204CF9
:101BC0006F6E67697475646500204C617469747523
:101BD00064650000A60F11241FBECFEFD0E1DEBF69
:101BE000CDBF11E0A0E0B1E0E6ECFBED02C0059056
:101BF0000D92A634B107D9F71EE0A6E4B1E001C00A
:101C00001D92AF3BB107E1F71BE1C6EDDBE104C07C
:101C10002297FE010E94A46DC43DD107C9F70E941E
:101C2000A6170C94E16D0C9400009AE0899F900136
:101C3000112425543E4FC901089595E0899F9001D4
:101C4000112425503D4FC901089586EB96E0089573
:101C50008C3038F4E82FF0E0EE0FFF1FED50FB4F13
:101C60002CC0803188F4E82FF0E0EE0FFF1FDF0179
:101C7000A05ABE4FE157FB4F0190F081E02D8D91AE
:101C80009C91E81BF90B0BC0843160F4E82FF0E065
:101C9000EE0FFF1FE157FB4F0190F081E02DEE0F9B
:101CA000FF1F0EC0843218F0E0E0F0E009C0E82F1A
:101CB000F0E0EE0FFF1FE752FB4F0190F081E02DA7
:101CC000CF010895E0919904F0E0EE0FFF1FEF5669
:101CD000FB4F8081918108958091630090E09695FB
:101CE000879581708093BB0408951092A40410928C
:101CF000A6041092A5041092A3040895E8E8F5E064
:101D0000E80FF11DE491F0E0EE0FFF1FE254FB4FEE
:101D100020813181C9010895AEEBB4E0EEECF4E02E
:101D200060E0862F806487B9369A208931898D9149
:101D30009C91119796958795820F931F8E7F119690
:101D40009C938E9340815181240F351F36952795A2
:101D5000318B208B349BFECF349A84B195B1840FA4
:101D6000951F96958795819391936F5F1296683032
:101D7000C1F60895EEEBF4E050E013C067B9369A6F
:101D8000349BFECF349A84B195B1280F391F4F5F31
:101D90004430A1F736952795219331935F5F5830F2
:101DA00031F020E030E040E0652F6064E7CF089537
:101DB000EEEBF4E020E0822F806487B9369A349B02
:101DC000FECF349A84B195B1880F991F8193919376
:101DD0002F5F283081F708958EE587B9369A349BB6
:101DE000FECF349A369A349BFECF349A84B195B1A3
:101DF00004964091B8045091B9049A01F3E0220F7F
:101E0000331FFA95E1F7241B350B820F931FE3E094
:101E100096958795EA95E1F79093B9048093B80475
:101E200008951F920F920FB60F9211248F938091F5
:101E3000BA048F5F8093BA048F910F900FBE0F90FA
:101E40001F90189578941F920F920FB60F9211243D
:101E50002F933F934F935F936F937F938F939F93B2
:101E6000AF93BF93EF93FF93209180003091810057
:101E7000F89480917D008F7D80937D00789480918F
:101E8000BC049091BD04A901481B590B5695479578
:101E90003093BD042093BC042091B704822F81505D
:101EA000883048F5CA01815293408757954000F524
:101EB000E22FF0E0EE0FFF1FEB55FB4F4C5D55405E
:101EC00080919001992787FD90950A96BC01469FC5
:101ED000C001479F900D569F900D11246AE070E05D
:101EE0000E94526D718360832F5F2093B7040BC0F3
:101EF0001092B70408C0415A5F404F5D5E4218F42B
:101F000081E08093B704F89480917D008062809393
:101F10007D00FF91EF91BF91AF919F918F917F9144
:101F20006F915F914F913F912F910F900FBE0F9046
:101F30001F901895E0ECFEE001C031968081853558
:101F4000E1F39F012F5B3E40C901089586E494E0D0
:101F50000E940E6708959C01E0919904F0E0EE0F55
:101F6000FF1FE157FB4F318320838FEBF901099568
:101F700089E00E94F468089578941F920F920FB63A
:101F80000F9211242F933F934F935F936F937F93FF
:101F90008F939F93AF93BF93EF93FF93F89487B77B
:101FA0008D7F87BF789481B78E5F81BF86E494E090
:101FB0000E943E6780910E01815080930E018F5FD9
:101FC00051F48DE480930E010E94E86080919B0E95
:101FD000826080939B0EF89487B7826087BFFF91E1
:101FE000EF91BF91AF919F918F917F916F915F9191
:101FF0004F913F912F910F900FBE0F901F9018950A
:10200000AF92BF92CF92DF92EF92FF920F931F9306
:10201000CF93DF93C82EB42E85E0841708F4FAC05E
:10202000CC2009F4F8C096E1C91621F0EAEECE16EC
:1020300019F4F0C061E0EFC02C2D332727FD309557
:10204000C90137FF04C088279927821B930B8A3068
:1020500074F41C143CF08DE090E0821B930B0E9402
:10206000756024C0C9010D960E9475601DC08A501C
:10207000E82EFF24D701AA0FBB1FAE0DBF1DAF5521
:10208000BE4FA85ABD4F8C91A855B240882309F481
:10209000C1C0F5E0BF1669F483E894E0E80EF91ECC
:1020A000F70180811C1414F4682FB5C061E0682723
:1020B000B2C0FD01EA5AFD4FD080ED01C95ADD4F93
:1020C000A880853008F4B3C0883028F400E010E020
:1020D000E0E0F0E00AC08D2D81500E94280E8C01B6
:1020E000888181500E94280EFC01E701CC0FDD1F82
:1020F000CE0DDF1DC750DC4F2881283088F42530F5
:10210000E8F5223009F467C0233020F4213009F0CB
:1021100071C05CC02330D1F0243009F06BC022C004
:102120002A3009F453C02B3038F4283009F444C065
:10213000293009F05FC045C02C3009F451C02C3063
:1021400008F449C02D3009F055C04FC020E0C80147
:1021500017FF03C0909581959F4FE817F9070CF082
:102160004CC04AC020E0C80117FF03C0909581957C
:102170009F4F8E179F070CF040C03EC01B2D1F5F66
:102180008D2D60E0412F0E940010082F8A2D60E005
:10219000412F0E9400109881953019F4002351F1CD
:1021A00004C0963029F4002339F5882329F522C08C
:1021B00020E0081709F521C020E00E171F07E9F4F9
:1021C0001BC020E00E171F07B9F417C020E0E0176E
:1021D000F1079CF411C020E00E171F0774F40CC027
:1021E00020E00E171F074CF007C020E0E017F107B2
:1021F00024F002C020E001C021E083E894E0E80E72
:10220000F91EF70120831C1414F4622F04C061E04E
:10221000622701C060E0862FDF91CF911F910F915F
:10222000FF90EF90DF90CF90BF90AF9008958D2DED
:1022300081500E94280E8C01988189E29802F00159
:102240001124F595E795F595E79597FD915C96FB3B
:10225000990F990B90F9892F992787FD9095E81B85
:10226000F90B43CF8F929F92AF92BF92CF92DF92A2
:10227000EF92FF920F931F93CF93DF93182F7B0161
:102280004A015901C02E84FD04C005E064E0D62E49
:1022900005C01F70106604E055E0D52E8D2D8066B8
:1022A000181761F08D2D8064181741F09091220568
:1022B000992359F0133611F0133439F4E7012196BC
:1022C00085E00E94F468802F16C0802F8066181762
:1022D00061F0802F8064181741F0992309F471C0D0
:1022E000123619F0123409F06CC0E701219786E02C
:1022F0000E94F4688D2D90E00E947560882351F053
:10230000CC27DD27CE19DF09802F0E94D7608D2DC5
:102310000E94D7608114910491F481E0A816B10461
:1023200071F4103661F410922205C0E0D0E0E1149F
:10233000F10411F4C1E0D0E080E60E94D760809102
:102340009D0490919E04C81BD90BAC16BD0644F4A5
:10235000812F0E94D76085E00E94F468E5010AC0E1
:10236000C815D9053CF4812F0E94D76086E00E94F1
:10237000F468E401CE15DF05A1F0209751F4812F18
:102380000E94C860F7FE02C085E001C086E00E949E
:10239000F4688C2D83700E94E05481E080939A044D
:1023A00002C010929A04CE01DF91CF911F910F913C
:1023B000FF90EF90DF90CF90BF90AF909F908F9065
:1023C0000895E701A7CF0F93772767FD70955527ED
:1023D00047FD5095332727FD30950E9432110F910C
:1023E00008950F93772767FD7095552747FD509502
:1023F000332727FD309501E00E9432110F91089597
:102400000F93772767FD7095552747FD5095332724
:1024100027FD309502E00E9432110F9108951F931D
:10242000CF93DF93682F782F7F7076502091B30180
:1024300022306CF0332727FD30952150304081E069
:1024400090E002C0880F991F2A95E2F7282F783074
:1024500008F09FC0872F8595A82FB0E0FD01EE0FF3
:10246000FF1FE050FF4F0190F081E02D10812223EB
:1024700011F0422F10C0412F552747FD509557FFAF
:1024800003C0509541955F4F242F47FD2D5F422F8C
:10249000459545954F5F20918A0130E0217030705D
:1024A00082E090E0821B930B8A179B0711F050E0AB
:1024B0000CC08091B2018F7011F450E002C044E072
:1024C00051E080918C0180FD4195812F992787FDF6
:1024D0009095242F332727FD309570FF04C0E90124
:1024E000C80FD91F03C0EC01C21BD30B209721F0EA
:1024F000812F8D2787FF0CC0552351F4112341F004
:102500001082862F0E94D76088E00E94F46840C045
:10251000CE0184589F4F893F9105B0F4C08386E077
:102520000E94E054CE0183589F4F8B3F910580F568
:102530009E01D7FF03C0309521953F4F35952795D4
:1025400035952795422F1EC01C161D0614F083E8F2
:1025500001C08DE7808386E00E94E054CE0183585D
:102560009F4F8B3F9105A0F4CE01D7FF03C09095FC
:1025700081959F4F64E070E00E94526DAB015095D1
:1025800041955F4F445C86E494E067E00E943D68BB
:1025900060E0862FDF91CF911F9108951F93CF9315
:1025A000DF93F89420910B0E30910C0E789440E05C
:1025B0008091F1049091F2042817390709F041E065
:1025C0004093A004F89480910B0E90910C0E789497
:1025D0009093F2048093F10487E295E060E00E941A
:1025E000981D8091A004882309F40BC18091A30455
:1025F00080FF14C09091A404892F8F5F8093A4045E
:10260000843660F093569093A4048091A504909131
:10261000A60401969093A6048093A50480E00E94EE
:10262000F3540E94D75F0E94E55F0E940F12182F9B
:102630008091A1049091A204009729F001979093B2
:10264000A2048093A104112389F080918E0190E06F
:1026500024EF31E0AC01429FC001439F900D529F97
:10266000900D11249093A2048093A104809177018E
:1026700060E040E00E940010882339F48091A104BA
:102680009091A204892B09F4BAC0C79A2091FF0443
:102690003091000580919B0490919C04821B930BC8
:1026A00060E270E00E94526D70939E0460939D04FE
:1026B0006115710591F08091EF049091F004821BF7
:1026C000930B62E070E00E94526D70939E046093E1
:1026D0009D0430939C0420939B043093F00420933A
:1026E000EF0480918C0185FF04C010929E0410922B
:1026F0009D04E0919904F0E0EE0FFF1FE157FB4FBE
:102700000190F081E02D812F09950E94A45F8091B6
:10271000630090E09695879581708093BB04882331
:1027200021F0809165008F7E03C0809165008061FB
:1027300080936500F89480910B0E90910C0E789424
:102740008F719070029709F05CC0EFE8F5E0E491BA
:10275000F0E0EE0FFF1FE254FB4F0190F081E02DFF
:102760002091760180918C0186FF03C0C0EFD0E0FC
:1027700004C0C091B804D091B904CF0168E070E002
:102780000E94526D822F992787FD909506969C0195
:10279000629FC001639F900D729F900D112424E0F1
:1027A000EE0FFF1F2A95E1F720919F0430E02F5F85
:1027B0003F4F8E0F9F1FBE010E94526D260F371F85
:1027C0003595279520939F048091EE04805E809339
:1027D000EE048823B1F480917501281790F4223318
:1027E00080F083E10E94F46880918C0183FF09C02E
:1027F00082E390E09093A2048093A10402C0C79862
:1028000045CFDF91CF911F9108950F931F93809132
:10281000BA0402B71091BA048117C9F7E0918D018B
:10282000F0E0EE0FFF1FE85FFE4F0190F081E02D1A
:1028300009950E94EC0E0E94CE1280919B0E83306F
:1028400019F4A89510929B0E4091BA0452B780914A
:10285000BA044817C9F7912F80E0202F30E0822B6F
:10286000932B342F20E0452F50E0422B532B209107
:10287000FA063091FB06481B590B4217530708F420
:10288000A9015093FB064093FA061F910F910895FA
:102890000F931F938C010E94D75F82E260E04BECA4
:1028A00055E024E00E94D65C80E068E1A8010E9427
:1028B000105D0E94A45F809174010E949A5F1F9135
:1028C0000F910895EF92FF920F931F93082FF62E0A
:1028D000142FE22E442329F0463139F04A3E81F488
:1028E00008C08A5F4EEF56E007C08A5F4AEF56E0A5
:1028F00003C08A5F46EF56E02E2D0E94D65C23C0AF
:10290000441F4427441F405E0E94DA5B202F2A5F49
:10291000412F552747FD509557FF03C050954195CE
:102920005F4F842F992787FD90950197AC01440F45
:10293000551F480F591F4A54594F822F6F2D23E0BE
:102940000E2D0E94955C1F910F91FF90EF900895BE
:10295000DF92EF92FF920F931F93F82EE62ED42E64
:102960001091AC01812F992787FD909597FF03C0A7
:10297000909581959F4F80319CF443E08402A001A3
:1029800011244B57594F8F2D6E2D23E00D2D0E9492
:10299000955C1F3F4CF58F2D86506E2D41E221C076
:1029A000853274F411161CF4412F4F5002C0412F90
:1029B000415F8F2D86506E2D2D2D0E94621414C004
:1029C00011161CF4412F445202C0412F4C5D8F2D33
:1029D00086506E2D2D2D0E9462148F2D8E5E6E2DD1
:1029E0004DE62D2D0E94DA5B1F910F91FF90EF9025
:1029F000DF9008950F93022F50E0440F551F440FAE
:102A0000551F4E5F584F24E00E94955C0F9108952A
:102A10000F93942F022F442319F440E058E01DC077
:102A2000453090F440918A0150E0440F551F440F07
:102A3000551F41505040490F511D440F551F440F21
:102A4000551F495B5A4F09C0453250F450E0440FBE
:102A5000551F440F551F4559584F24E00E94955C5F
:102A60000F91089586B380958E77E1F70E94E25F1B
:102A70000895FF920F931F938C01F62E0E94D75F4B
:102A800082E260E045EC55E024E00E94D65C80E004
:102A900068E1A8010E94105D8CE168E347EB55E016
:102AA0000E94105D0E94A45FFF2011F089E102C026
:102AB000809174010E949A5F84E00E94F4680E94F1
:102AC000321586B380958E77C9F480919B0E833042
:102AD00019F4A89510929B0E8091770160E040E078
:102AE0000E940010882331F480918E01882311F414
:102AF000FF2011F0C79AE5CFC798E3CF1F910F9140
:102B0000FF900895CF93DF93EC0190919904892F62
:102B10008F5F80939904853040F09093990480E909
:102B200095E060E00E9439150FC089E00E94F468CA
:102B3000E0919904F0E0EE0FFF1FE157FB4FD183C6
:102B4000C0838FEBFE010995DF91CF91089590919D
:102B50009904992319F4882331F418C0882319F4AF
:102B6000892F815001C080E08093990489E00E9400
:102B7000F468E0919904F0E0EE0FFF1FE157FB4F7E
:102B80000190F081E02D8EEB0995089583EA95E0A0
:102B900060E00E943915089580918204882351F0E5
:102BA0008EEF95E060E00E943915809182048E7F5F
:102BB0008093820408958091890187FD07C08873FE
:102BC00029F489E296E060E00E9439150895809129
:102BD000890182FD0AC00E94F657883C910528F4BD
:102BE00086E796E060E00E94391508951F93CF9321
:102BF000DF9386B380958E7721E030E0682F70E018
:102C0000422FCB01022E02C0959587950A94E2F7D8
:102C100080FD06C04F5F2F5F3F4F2830310581F7A1
:102C2000142F11501630A8F5812F0E949955882332
:102C300081F110937301812F0E94E75681E00E9479
:102C4000E0540E94D75F86E160E043ED55E024E068
:102C50000E94D65CC1EAD1E01AE0812F68E1499177
:102C600024E00E94DA5B155F1837B9F70E94A45F71
:102C7000809174010E949A5F80917701882321F4EA
:102C800080918E01882311F0C79A01C0C7980E94D5
:102C90003215DF91CF911F910895EF92FF920F931C
:102CA0001F938C017B010E94D75F82E260E040E7C6
:102CB00056E024E00E94D65C80E060E2A8010E9419
:102CC000105D80E068E2A7010E94105D80E060E393
:102CD0004AE556E00E94105D0E94A45F8091740155
:102CE0000E949A5F0E9432151F910F91FF90EF9002
:102CF00008951F938091890181FD2EC08DEE95E08E
:102D00006BED75E00E944D161EE00BC0113141F0D5
:102D1000812F8D5060E040E00E940010882329F44C
:102D20001F5F163198F31631B9F086B380958E7710
:102D300099F406C080918E01882359F0C79A0AC081
:102D40008091770160E040E00E9400108823B1F795
:102D5000F1CFC7981EE0DCCF1F9108950F931F930A
:102D6000CF93DF938091890180FD51C080918A01CA
:102D700090E081709070C2E0D0E0C81BD90BFE01DA
:102D8000EE0FFF1FEA5BFE4F01811281005F1F4FB4
:102D900087859089081B190B0E94D80EEC2FF0E054
:102DA000E857FA4F8491C82FD0E0CC0FDD1FC254F2
:102DB000DB4F88819981081719074CF586B38095F8
:102DC0008E7729F512C00E94D80E88819981081744
:102DD0001907ECF486B380958E77C9F40DC0809105
:102DE0008E01882391F0C79AEECF88E496E069E3DC
:102DF00076E00E944D16E7CF8091770160E040E0D9
:102E00000E940010882379F7EACFC798DCCFDF91C2
:102E1000CF911F910F9108950F931F93CF93DF933D
:102E200080918C0184FD8DC08091770160E040E04D
:102E30000E940010882329F480918E01882309F4D0
:102E400073C0C79A0E94D75F80E060E044EE50E014
:102E500020E000E00E947D5B80E068E347E951E00C
:102E60002AE000E10E94955C0E94A45F80917401B9
:102E70000E949A5F0E94321500E00E948C0E0F5F44
:102E80000032D9F728E835E000E010E0F90184913C
:102E9000E82FF0E0EE0FFF1FE254FB4F808191819D
:102EA000892F9927080F191F2F5F3F4FF5E02C3806
:102EB0003F0761F7F894C0910B0ED0910C0E7894F7
:102EC000C057DE4F27C00E948C0E28E835E040E056
:102ED00050E0F9018491E82FF0E0EE0FFF1FE2547B
:102EE000FB4F80819181892F9927480F591F2F5FB0
:102EF0003F4FF5E02C383F0761F786B380958E771A
:102F000001F540175107E9F411C080918E01882323
:102F1000B1F0C79AF89480910B0E90910C0E7894B2
:102F2000C817D90781F60DC0C7988CCF809177015B
:102F300060E040E00E940010882359F7E6CFC79870
:102F4000E9CFDF91CF911F910F9108951F939FEFCC
:102F50009ABB1BBA81E887BB8EE788BB8EE384BB34
:102F600081EC85BB11BA92BB88E082B987EF83B947
:102F7000109261001092620084E1809364008BEFF4
:102F8000809365000E945F5F0E94546A80E487B965
:102F900085E886B987E083BF8CE981BF87B7836006
:102FA00087BF1FBC8AE08EBD10928B0082E88093A1
:102FB0008A0080917D00806280937D00EDB7FEB72E
:102FC000329785E502C0808331974EE0EF3BF407EE
:102FD00009F0C8F7789487E299E29093900480937F
:102FE0008F0489E10E949A5F0E941F57109173011C
:102FF0000E94F61580919501813039F480918C0101
:1030000084FD03C080E00E94F4680E940C170E94B7
:10301000E7150E94D80E0E94AE160E9479160E94F3
:10302000DB150E94CC150E94321580EF90E0909342
:10303000B9048093B8040E94ED652DE088E190E02A
:103040000FB6F894A89581BD0FBE21BD87E295E02B
:1030500060E00E94981D82E899E30E94821581E059
:103060000E94A715809174010E949A5F80918E0141
:1030700090E024EF31E0AC01429FC001439F900DEE
:10308000529F900D11249093A2048093A1048091EB
:103090007301181729F081E00E94E0540E948955BD
:1030A00080ED97E09BBD8ABD80E186BF87B78061D8
:1030B00087BF0E940514FDCF0F931F93062F122F79
:1030C000206250E00E942E5F17FD07C08091DD0D49
:1030D000602F46E7212F0E94DA5B1F910F91089520
:1030E000242F40919F040E945C180895AF92BF92D4
:1030F000CF92DF92EF92FF920F931F93CF93DF93C4
:10310000F82EB62EEA01122FA02E57FF10C022FD76
:1031100002C08FE001C08CE19F2D981B892F6B2D81
:103120004DE2212F0E94DA5BD095C195DF4F2A2D09
:1031300021238F2D6B2D4AE30E94DA5B812F90E0D3
:1031400004E0C02ED12CC822D92212FD02C0E0E03A
:1031500001C0E2E0CE016CE370E00E94526D9B0181
:10316000442737FD4095542F10618E2F8F0D6B2D06
:10317000012F12E0E12E0E94EE5DCD2811F4E1E175
:1031800001C0ECE1CE016CE370E00E94526D9C0145
:10319000442737FD4095542F80E1A82A8E2F8F0DAC
:1031A0006B2D0A2DB2E0EB2E0E94EE5DDF91CF91E8
:1031B0001F910F91FF90EF90DF90CF90BF90AF9055
:1031C000089599E289029001112435952795359546
:1031D000279587FD815C86FB880F880B80F99927EE
:1031E00087FD9095281B390BC90108958CE690E165
:1031F0000895EBEBF1E090E080818150803108F49C
:103200009F5F3A9682E0EB3FF807B1F7892F089568
:103210006F927F928F929F92AF92BF92CF92DF92E6
:10322000EF92FF920F931F933B017C0100E010E0AF
:103230008824992464E670E080E090E066197709BC
:1032400088099909A80197010E941F6D5B016C0113
:1032500082E390E0A0E0B0E0A80EB91ECA1EDB1E1B
:10326000C801B7010E941F6D0E941F6DBC01882715
:103270009927A40193010E941F6D24E096958795DC
:10328000779567952A95D1F7A60EB71EC81ED91E49
:10329000C601B50124E630E040E050E00E94656DD3
:1032A000C9011F910F91FF90EF90DF90CF90BF90D9
:1032B000AF909F908F907F906F900895FF920F93A3
:1032C0001F939C01AB016115710531F1FF2497FF3C
:1032D00005C0FF24F394309521953F4F57FF10C050
:1032E00000E014E066277727641B750BC801821B7A
:1032F000930B0E9408199801281B390BC90104C0BF
:10330000C901BA010E940819FF2011F49C0104C0F0
:1033100022273327281B390BC9011F910F91FF90DA
:103320000895282FE4ECFDE080E09491921731F0AD
:103330003196992311F08F5FF8CF80E008958234A1
:1033400010F080E20895E82FF0E0EC53F24F849102
:10335000089510927A0610927306109272061092D7
:1033600077061092760610927506109274061092E7
:103370007906109278060895AF92BF92CF92DF92AD
:10338000EF92FF920F931F93CF93DF935B016C013A
:10339000C0E0D0E800E010E8EE24FF249E0140E009
:1033A00050E0CA01B9010E941F6DA616B706C806F3
:1033B000D90610F4C027D127169507950894E11C6B
:1033C000F11C80E1E816F10461F4CE01DF91CF91A8
:1033D0001F910F91FF90EF90DF90CF90BF90AF9033
:1033E0000895C02BD12BDACF9C0140E0683008F063
:1033F00041E070E0442371F0CB010897FC0163E0E9
:10340000EE0FFF1F6A95E1F7E80FF91FDF01A155E5
:10341000BC4F0AC0FB01EE0FFF1FEE0FFF1FE60FB0
:10342000F71FDF01A957BC4FFD01808120503C4FA1
:1034300037FD0EC068E02030360784F0442319F4CD
:1034400084E090E002C088E090E0A80FB91F8C9162
:10345000992787FD9095582F442733C0442331F096
:10346000432FB9017070660F771F04C0432F469534
:10347000B9017170842F90E0FD01E80FF91F81817F
:10348000992787FD90959B0135952795829FA001EF
:10349000839F500D929F500D11242081332727FDCB
:1034A000309580E092E0861B970B95958795BC013F
:1034B000269FC001279F900D369F900D1124480F25
:1034C000591FCA0169E170E00E94526DCB01089555
:1034D000482F18161CF0109221050895282F332725
:1034E00027FD309580912105281B3109862F90E01A
:1034F0008217930724F4461B4093210508950697ED
:103500002817390724F44A5F461B40932105089584
:10351000FF920F931F93CF93DF93082F1091AC016D
:10352000812F992787FD909597FF03C090958195EE
:103530009F4FF82E24E228170CF03FC02091770807
:10354000309178088091750890917608282B392B56
:103550008091790890917A08282B392B80917408F2
:1035600090E0282B392B8091710890E0282B392B83
:10357000232B39F41092710817FF03C081E0809368
:10358000710811161CF4812F845202C0812F8C5DAA
:1035900060E040E00E940010282F882361F08091B5
:1035A0007108882341F490E080917408882309F41D
:1035B00091E09093740820937108C0917708D0919E
:1035C00078082196D0937808C0937708E091750821
:1035D000F0917608E00FF11DF0937608E0937508FE
:1035E000F89480910B0E90910C0E789420917908AC
:1035F00030917A08821B930B8436910508F45EC1E2
:103600002C593F4F30937A0820937908CF01BE019F
:103610000E943E6D062F862F90E0AC014C9FC001AA
:103620004D9F900D5C9F900D1124E81BF90BF093BA
:103630007608E093750810927808109277085FE09A
:103640005F151CF01092740810C084E28F156CF0A6
:1036500011161CF4812F8F5002C0812F815F60E012
:1036600040E00E9400108093740880917006909151
:10367000710601969093710680937006E091720630
:10368000F09173063196F0937306E093720600236F
:1036900049F080917606909177060196909377068F
:1036A0008093760680917408882349F0809174068F
:1036B0009091750601969093750680937406069511
:1036C0004091780650917906400F511D509379062C
:1036D000409378066091AE017091AF0170937C06C3
:1036E00060937B063091AC01832F992787FD9095DD
:1036F00097FF03C0909581959F4F882319F41092EE
:103700007A0622C0813021F4CB018E1B9F0B18C09A
:10371000803170F480FF07C0CA01E4E09695879578
:10372000EA95E1F709C0809176069091770604C08A
:103730008091740690917506AB01481B590BCA0124
:1037400090937C0680937B0680917A06813041F0CD
:10375000813018F0823001F50FC03323E9F019C031
:1037600080917B0690917C0618161906ACF06115C5
:10377000710591F082E00EC080917B0690917C06ED
:10378000855C9F4F1CF483E080937A066115710578
:1037900019F481E080937A0620917B0630917C06B3
:1037A00080917208909173088217930709F470C092
:1037B00080917A06813009F05CC080918C0182FF93
:1037C0003CC0672BD1F12E31310519F48EE00E94F7
:1037D000F46880917B0690917C06449719F48FE001
:1037E0000E94F46880917B0690917C060A9719F4F8
:1037F00080E10E94F46880917B0690917C0604979A
:103800001CF481E10E94F46880918C0183FF15C053
:1038100080917B0690917C068E31910541F0843138
:10382000910529F08A30910511F0049734F482E370
:1038300090E09093A2048093A10480918C0181FF79
:1038400027C08091AD0120917B0630917C0680FFDE
:1038500007C08091AE019091AF01821B930B01C014
:10386000C9016CE370E00E943E6D892B89F481E010
:1038700003C0823069F481E10E94F46880918C0178
:1038800083FF06C082E390E09093A2048093A1049A
:1038900020917B0630917C06309373082093720848
:1038A0008091AD0180FF0AC08091AE019091AF017F
:1038B000821B930B90937C0680937B06DF91CF91C4
:1038C0001F910F91FF9008958091AC01992787FD7A
:1038D000909597FF03C0909581959F4F82304CF152
:1038E00080313CF5982F95958A3034F4892F0E94C9
:1038F000B561E82FF0E004C0E92FFF27E7FDF09560
:103900003197EE0FFF1FED50FB4F208131818091E9
:10391000AC0187FF05C080E094E0821B930B03C0DD
:10392000C90180509C4F26E0969587952A95E1F72E
:1039300002C080E090E00E94881A83E00E94B56196
:10394000E82FF0E0EE0FFF1FEF50FB4F0190F081EA
:10395000E02DE050FC4FA6E0F695E795AA95E1F73B
:103960008091AD0182FF0AC0E530F10538F0809109
:10397000A304882319F483E08093A30460916D0865
:1039800070916E086F5F7F4F70936E0860936D0843
:1039900040916B0850916C084E0F5F1F50936C085C
:1039A00040936B08F89480910B0E90910C0E7894D4
:1039B00020916F0830917008821B930B885E9340B2
:1039C00060F1F89480910B0E90910C0E7894909386
:1039D000700880936F0810926C0810926B08109218
:1039E0006E0810926D088091F6069091F706019688
:1039F0009093F7068093F6062091F506E22FF0E00B
:103A0000E358F94FCA010E943E6D60832F5F2093F7
:103A1000F506283710F01092F50608950F931F93BE
:103A2000CF93DF9386E291E0E7E4F5E0DF019C01CC
:103A30001D9221503040E1F790916D06CBEBD1E023
:103A400000E010E051E060E04881442309F440E1E7
:103A5000041750F5202F712F352F2F5F872F90E0FF
:103A6000FC01EE0FFF1FE80FF91FEE0FFF1FDF0134
:103A7000A95BBA4F11962C9311978C9181608C930E
:103A8000E75BFA4F30833F5F14966C937F5F241798
:103A900020F3802F8095042F952F9F5F980F180F8C
:103AA000140F940F592F515078817723D1F1812F22
:103AB00090E09C01220F331F280F391FD901AA0F54
:103AC000BB1FA95BBA4F11964C93119715966C9337
:103AD00015978C9182608C9313965C9313975F5F1C
:103AE0008A85F9013196781741F4EE0FFF1FE95BE3
:103AF000FA4F108214961C920AC0EE0FFF1FE95B6A
:103B0000FA4F50835F5F6F5F14966C936150952FEF
:103B10006F5F2A96603219F450936D0604C01F5FE0
:103B200093CF90936D06DF91CF911F910F910895E0
:103B30002F923F924F925F926F927F928F929F92BD
:103B4000AF92BF92CF92DF92EF92FF920F931F93AB
:103B5000DF93CF93CDB7DEB76A970FB6F894DEBF89
:103B60000FBECDBF998F888F6A8F8091A004882364
:103B700009F470C080912305882319F08150809347
:103B8000230580918B01863F09F464C080919F04D6
:103B9000823308F45FC0809184078F5F809384072D
:103BA000803158F080918507909186070196909317
:103BB000860780938507109284072091FC06309138
:103BC000FD068091FE069091FF06280F391F809117
:103BD000000790910107280F391F809102079091EB
:103BE0000307280F391F8091870790918807A90143
:103BF000481B590BCA0157FF03C0909581959F4FF1
:103C00008150914044F030938807209387071092A9
:103C1000860710928507409185075091860780910D
:103C20008B01992787FD90950A9627E731E0BC0123
:103C3000629FC001639F900D729F900D11248417A5
:103C4000950740F4437050704130510519F482E1FA
:103C50000E94F46880918A01782F71707F5F7F875E
:103C600081FD03C083E08E8701C01E869090B9015C
:103C7000992009F44BC09F85E92FF0E0EE0FFF1F5C
:103C8000ED50FB4FE080F1800027F7FC0095102FEE
:103C9000AE85EA2FF0E0EE0FFF1FED50FB4F2081C5
:103CA0003181442737FD4095542FCA01B9010E9444
:103CB0001F6D5B016C01C801B701A80197010E944B
:103CC0001F6DA60EB71EC81ED91E692D70E080E0BC
:103CD00090E00AE0660F771F881F991F0A95D1F7B9
:103CE00024E630E040E050E00E94876DB901CA014F
:103CF0000E941F6D6A157B058C059D0538F4C60171
:103D0000B5010E94BC199A8B898B02C01A8A198A44
:103D1000E989FA89BF0180E090E024E630E040E0E4
:103D200050E00E941F6D6C8B7D8B8E8B9F8B17E4F8
:103D3000612E11E0712EB7E54B2EB3E05B2E1B8A8E
:103D4000CC24DD2488249924FA8D2F2E332421E0DD
:103D500022223324BC2C8C2D0E947E0E9C01D30188
:103D60008D919C911197281B390B121613062CF478
:103D70005C96ED91FC915D9705C0D3011E96ED9187
:103D8000FC911F97E436F10514F4E4E6F0E0B90184
:103D9000882777FD8095982FAAE0660F771F881FE8
:103DA000991FAA95D1F79F01442737FD4095542FBD
:103DB0000E94876D7901BCEF21303B0724F4E12C90
:103DC000FCEFFF2E07C0E4E020303E071CF0E12CA2
:103DD000E4E0FE2E80918C0180FF10C080918A016A
:103DE00090E08170907022E030E0281B390BC21601
:103DF000D30621F4F094E194F108F394F401ED502A
:103E0000FB4FF182E082C7010F964F97F0F434E048
:103E1000C316D1047CF48B2D8F5F0E94B56190E0B6
:103E2000019741E050E002C0440F551F8A95E2F728
:103E3000CA0108C081E090E00C2C02C0880F991FD5
:103E40000A94E2F75B89582B5B8B63E06B1508F4EF
:103E50007CC1222009F05BC08091AD0181FF57C079
:103E60008601000F111F00581E4FD80111968C912A
:103E70001197807C09F44BC08C918595859585952B
:103E800061E040E00E940010882309F440C0D8019E
:103E9000EC91E770F0E0EE0FFF1FDF01A858BE4F76
:103EA000E955FB4F808191812D913C91821B930BB1
:103EB00062E070E00E94526DF601EE0FFF1FEF57B7
:103EC000FE4F4081842F880F880F8595859599270F
:103ED00087FD9095FC016E9FC0016F9F900D7E9FA6
:103EE000900D11246FE170E00E94526DCB01880F9C
:103EF000991F880F991F429546954695437041300A
:103F000021F0423021F47C0102C0E80EF91E29891B
:103F10003A89232B01F13F85B31619F04E85B4166B
:103F2000D1F46091B90170E080E090E00AE0660FA2
:103F3000771F881F991F0A95D1F79701442737FDEE
:103F40004095542F0E941F6D2C893D894E895F89B1
:103F50000E94876D7901D2018C9160E040E00E945F
:103F60000010882311F400E00BC0F201818160E0B1
:103F700040E00E940010882311F002E001C001E03F
:103F800080918A0190E08170907012E0A12EB12C96
:103F9000A81AB90AAC14BD0461F58091B201807F02
:103FA00041F1C70180509C4F62E070E00E94526D69
:103FB000CB01E02FF0E0EE0FFF1FEE0FFF1FA60179
:103FC000440F551F9A0173E0220F331F7A95E1F7D2
:103FD000241B350BE20FF31FE55BFC4F6081772755
:103FE00067FD70950E945E19DC01AA0FBB1F10E0EF
:103FF00026C010E01E141F040CF011E0802F90E08A
:104000009601220F331FF90143E0EE0FFF1F4A957F
:10401000E1F7E21BF30B880F991F880F991FE80F38
:10402000F91FEF55FE4FE10FF11DE655FE4F608180
:10403000772767FD7095C7010E945E19DC01E02FAC
:10404000F0E0EE0FFF1FEE0FFF1F9601220F331F50
:10405000C90103E0880F991F0A95E1F7821B930BB2
:10406000E80FF91FEF55FE4FE10FF11DE455FE4F2C
:104070006081772767FD70956C597F4F882777FDA2
:104080008095982F9D01442737FD4095542F0E941D
:104090001F6D24E630E040E050E00E94876D79011A
:1040A000AC14BD04D9F59091B201892F807F09F439
:1040B000D6C620E03CEFE20EF31ED1C6F501EE0FAE
:1040C000FF1FE050FF4F0190F081E02D6081809153
:1040D0008C0180FD6195772767FD7095872F972F5D
:1040E00063587F4F8F4F9F4F20E034E02E193F09D8
:1040F000442737FD4095542F0E941F6D20E038E083
:1041000040E050E00E94876DC901DA01803038E05C
:10411000930730E0A30730E0B30761F4F401E05007
:10412000FF4F0190F081E02D8081282F332727FD5C
:10413000309501C09C01220F331FE1E0F0E0EC0F4D
:10414000FD1FE80DF91D31832083F401E450F94F80
:10415000F182E0820894C11CD11C42E050E0640E60
:10416000751E840E951E6EE070E0460E571E77E0B9
:10417000C716D10409F0EECD1091B6018B89182332
:10418000212F30E08091890790E0822793278223B6
:104190009323892B19F08AE00E94F4681093890711
:1041A00080E094E090930B0780930A0790930D07AB
:1041B00080930C07F4E12F2EF7E03F2EB10140E091
:1041C00050E0FA01E955FB4FDA01AA5BBE4F80814E
:1041D0009181D2962D913C91D397821B930B880F9E
:1041E000991FDB018D939D93BD014E5F5F4F48305A
:1041F000510539F78091AF049091B004880F991F51
:1042000090931D0780931C078091B1049091B20494
:10421000880F991F90931F0780931E078091B30406
:104220009091B404880F991F9093210780932007E1
:104230008091B5049091B604880F991F909323073D
:1042400080932207E4E4F7E0FA87E987A4E2B7E085
:10425000808191818D939D93349627E0E438F20715
:10426000B9F75090B901552009F489C03F85832ED4
:104270009924880C991C4CEF56E0840E951ED401AD
:10428000ED90FC900027F7FC0095102FBE856B2E5B
:104290007724660C771C640E751EF3012081318132
:1042A000442737FD4095542FCA01B9010E941F6D64
:1042B0005B016C01C801B701A80197010E941F6D45
:1042C000A60EB71EC81ED91E652D70E080E090E0D6
:1042D0001AE0660F771F881F991F1A95D1F724E6F9
:1042E00030E040E050E00E94876DB901CA010E94B1
:1042F0001F6D6A157B058C059D0508F040C0C60141
:10430000B5010E94BC19A0E0B0E0BC01CD0124E6DB
:1043100030E040E050E00E941F6D5B016C01E090D6
:10432000B901FF2400E010E0BAE0EE0CFF1C001F12
:10433000111FBA95D1F7D4012D913C91442737FD37
:104340004095542FC801B7010E941F6DA601950129
:104350000E94876DF40131832083D3012D913C911C
:10436000442737FD4095542FC801B7010E941F6DA7
:10437000A60195010E94876DF30131832083B090DF
:10438000B7018B2D807E09F4E3C02F85E22FF0E08A
:10439000EE0FFF1FDF01A450B94F6D917C91DE013C
:1043A0001196EA0FFB1F408151813E85832F90E0DB
:1043B000880F991FFC01E450F94F0190F081E02D26
:1043C000A80FB91F2D913C918A8D81FF05C0CC2487
:1043D000DD24EE24FF2406C06A01C60ED71E790133
:1043E000EE0EFF1EE091B801EE2319F400E010E09C
:1043F00007C0F0E0EE0FFF1FE650F94F008111817A
:10440000B2FE04C0D094C194D108D394B3FE04C0CA
:10441000F094E194F108F394B4FE03C01095019573
:104420001F4F8091B701829586958770823079F110
:10443000833020F4813009F08BC007C0833009F449
:104440005BC0843009F084C06FC0C70160E072E0D7
:104450000E94526DFB01C70168E070E00E94526D3E
:104460009B01C70160E870E00E94526DD701A21B5A
:10447000B30B9D01261B370B2E1B3F0BC8018C195C
:104480009D0990930F0780930E07C60121C0C601B6
:1044900060E072E00E94526DFB01C60168E070E0CE
:1044A0000E94526D9B01C60160E870E00E94526D4F
:1044B000A601421B530B9A01261B370B2E1B3F0BE9
:1044C000C8018E199F0990930F0780930E07C701AB
:1044D00062E070E00E94526D600F711FCB01820F8D
:1044E000931F9093110780931007621B730B7093B7
:1044F0001307609312072CC0C8018C199D09909373
:104500000F0780930E07C8018C0D9D1D9C012E0D79
:104510003F1D30931107209310078E199F09909328
:1045200013078093120714C0C8018C199D0990933A
:104530000F0780930E07C8018E0D9F1D90931107E2
:10454000809310070E191F09109313070093120789
:104550008091A004882311F00E94641C80E4E4E4AC
:10456000F7E0DF011D928A95E9F7BA8DB1FF28C007
:10457000ACEFB6E0FE01319620E030E042E050E0E2
:1045800080918A0190E081709070BA01681B790B6C
:104590006217730729F011961C921E9211821082E5
:1045A0002F5F3F4F129632962430310549F7D101E3
:1045B0001D921D921D01BCE12B16B7E03B06B9F719
:1045C00083E893E09093010180930001019690931A
:1045D00003018093020101969093050180930401E9
:1045E000019690930701809306015AE4252E58E026
:1045F000352E4AEC642E47E0742E3AE8432E37E01D
:10460000532E188A1D868D850E94150E5C01FC01B3
:1046100080818150803108F0D6C2838161E040E022
:104620000E940010D1019C918823B9F4192F1C928B
:10463000F5019181892F8850823008F0B3C28781BB
:104640008E70843009F4AEC2993019F0CC24DD2488
:104650004FC0C12C2CEFD22E4BC010E0992309F48F
:1046600011E081E0D1018C93F5013181832F8150DC
:10467000A82FB0E0FD01EE0FFF1FE450F94FC080FE
:10468000D180843158F0FD858F1740F4AA0FBB1FED
:10469000AA0FBB1FAC5BB84FCD90DC90D50117962D
:1046A0002C91822F807381F0822F8295837090E00D
:1046B0000197E1E0F0E002C0EE0FFF1F8A95E2F7FC
:1046C000CF01F889F82BF88B26FF12C0353080F423
:1046D000E32FF0E0EE0FFF1FE250FF4F28E030E045
:1046E000A20EB31EB182A08248EF5FEFA40EB51EEA
:1046F000D50117968C91179786FD08C018968C9156
:10470000882321F00E94E118C80ED91EF501868188
:10471000882321F48581882309F45DC1D3016D913B
:104720007D918D919C91112389F420E031E040E04E
:1047300050E00E94876D50954095309521953F4FF0
:104740004F4F5F4F4601820E931E5AC0F50187817D
:104750008E70843049F5E081F0E0EE0FFF1FEE5DD2
:10476000F84F60817181882777FD8095982F20E030
:1047700034E640E050E00E941F6DD3016D937D93BD
:104780008D939C931397F5012281222369F033279F
:1047900027FD3095432F532F0E94876DD3012D9312
:1047A0003D934D935C931397F301608171818281F6
:1047B000938120E031E040E050E00E94876D509509
:1047C0004095309521953F4F4F4F5F4F4601820EE8
:1047D000931E81149104A1F0D50115968C9197FE3A
:1047E00082958F7090E0FC0124E630E0E29FC001EA
:1047F000E39F900DF29F900D1124D2018D939C9315
:10480000F201208131812115310599F08091A004B8
:10481000882321F02150304031832083D2018D91B3
:104820009C91892B31F0F3016081718182819381A8
:10483000BCC08114910409F4CEC0D50116968C91A8
:104840001697882309F4B9C08091A004882309F43D
:1048500075C012962C91222329F460E070E080E26A
:1048600093E017C0332727FD309537FF03C03095FD
:1048700021953F4F332727FD3095432F532F60E07D
:1048800070E080E293E00E94876DC901DA01BC010B
:10489000CD01F5012681181419040CF52F70422F53
:1048A00050E041155105D9F1A4E6B0E04A9F9001CE
:1048B0004B9F300D5A9F300D1124442737FD4095F2
:1048C000542F0E94876D79018A01F30180819181C3
:1048D000A281B381E80EF91E0A1F1B1F29C0229571
:1048E0002F70422F50E041155105C9F0A4E6B0E009
:1048F0004A9F90014B9F300D5A9F300D1124442741
:1049000037FD4095542F0E94876DF301E080F180C0
:1049100002811381E21AF30A040B150B09C0C601C8
:10492000AA2797FDA095BA2FEE24F82E092F1A2F4B
:10493000D301ED92FD920D931C931397F3016081C7
:1049400071818281938176010027F7FC0095102FF9
:104950001814190464F420E031E040E050E00E94B3
:10496000876DE216F3060407150764F019C020E00E
:1049700031E040E050E00E94876D2E153F05400772
:10498000510774F4C601AA2797FDA095BA2FBA2F34
:10499000A92F982F8827F30180839183A283B38363
:1049A000D3016D917D918D919C9120E031E040E0AB
:1049B00050E00E94876D69010EC0C601AA2797FDCD
:1049C000A095BA2FBA2FA92F982F8827F30180839B
:1049D0009183A283B383D50114966C91633079F1EE
:1049E000643028F4613051F06230B0F449C0653071
:1049F00089F1653058F16630B9F52FC0F501818134
:104A0000893039F4D7FC2CC020E03EEFC20ED31E13
:104A10000FC0D7FE35C02EC0D50111968C918930BC
:104A200051F41C141D044CF1E0E0F2E0CE0EDF1E48
:104A3000CC0CDD1C25C01C141D04E4F021C0D7FEE5
:104A40001FC0D094C194D108D3941AC01C141D0463
:104A5000A4F010C0D7FE0EC003C01C141D046CF0DF
:104A6000C12C5CEFD52E0CC06750C6010E94F41912
:104A70006C0106C0CC24DD2403C0C12C44E0D42E3C
:104A8000D50117968C91179780FD14C01196EC9163
:104A9000EE2381F0E53070F4F0E03197EE0FFF1F68
:104AA00021E030E02C0F3D1FE20FF31F8081918148
:104AB000C80ED91EB601882777FD8095982FD5019D
:104AC00012962C91332727FD3095432F532F0E94A8
:104AD0001F6D6B017C01F501278126952770213020
:104AE00089F08081223009F049C0E82FF0E0EE0F14
:104AF000FF1FEE0FFF1FE05CF84FC082D182E28201
:104B0000F38250C0D5012C91022F10E0000F111F2D
:104B1000000F111F005C184FC701B60124E630E0FA
:104B200040E050E00E94876DCA01B901F801208180
:104B30003181428153810E941F6DD8016D937D9315
:104B40008D939C931397F5016081062F10E0000F61
:104B5000111F000F111F005C184FD8016D917D913E
:104B60008D919C9120E034E040E050E00E94876D00
:104B7000F801208331834283538314C0E82FF0E08F
:104B8000EE0FFF1FEE0FFF1FE05CF84F8081918159
:104B9000A281B3818C0D9D1DAE1DBF1D80839183AD
:104BA000A283B383FD85FF5FFD870894211C311C20
:104BB00024E030E0620E731E42E050E0440E551EC9
:104BC000F03209F020CDF89400910B0E10910C0EEC
:104BD0007894F888F0FE05C0002319F48BE00E9459
:104BE000F468F1FE0BC0C80190708034910519F093
:104BF0008834910519F48CE00E94F468F2FE0EC02E
:104C0000C80190708038910531F08838910519F00D
:104C10008039910519F48DE00E94F4681BEF412E54
:104C200012E0512E6EE174E07C876B8722243324DE
:104C3000A985BA85AD90BD90CD90DC90C601B50137
:104C400024E630E040E050E00E94876DE985FA8577
:104C50002083318342835383F101EF5FFA4FC9010F
:104C600020839183D20113962D913C911497119634
:104C70008C91BAE08B0240011124E8EEF3E08E0E35
:104C80009F1ED2018C91BAE08B0230011124E8E121
:104C9000FCEF6E0E7F1EC401582D492F28153905D3
:104CA0001CF4C901522F492F852F942F8C01061512
:104CB00017050CF48301A114B104C104D10469F1F6
:104CC0009801442737FD4095542F1A141B041C04E7
:104CD0001D0454F4B401882777FD8095982F621B3A
:104CE000730B840B950B0BC0C301AA2797FDA095EE
:104CF000BA2F281B390B4A0B5B0BCA01B901A6015D
:104D000095010E941F6D20EA36E841E050E00E94C4
:104D1000876DC901DA015C016D01C801B5E09595A7
:104D20008795BA95E1F7800F911F9801232F330FD4
:104D3000330B2595820F931F000F012F001F110BBE
:104D4000801B910B7C010027F7FC0095102FC401FC
:104D5000E5E095958795EA95E1F7880D991D930112
:104D600075E0359527957A95E1F7F301EE0FEF2F72
:104D7000EE1FFF0B260D371D880C892C881C990807
:104D8000881999099594879495948794880D991D0D
:104D9000AC01662757FD6095762FEA0CFB1C0C1DB5
:104DA0001D1D4E155F056007710714F47A018B0114
:104DB0002E1B3F0BF595E795F595E7952E0F3F1FB9
:104DC000C901AA2797FDA095BA2FE816F9060A0788
:104DD0001B0714F47C018D01D20112968C9188235B
:104DE00041F010950095F094E094E11CF11C011D38
:104DF000111DEB85FC858081882389F060E040E00F
:104E00000E940010882359F0AB85BC8511968C91C7
:104E10000E94E1187C010027F7FC0095102FF89400
:104E2000E88DF98DE20DF31DF182E0827894E98539
:104E3000FA853496FA87E98722E030E0220E331EA5
:104E400045E050E0440E551E6B857C856E5F7F4FBC
:104E50007C876B87E458F74009F0EACE04C09F7066
:104E600009F02CC95BC96A960FB6F894DEBF0FBE75
:104E7000CDBFCF91DF911F910F91FF90EF90DF9009
:104E8000CF90BF90AF909F908F907F906F905F90EA
:104E90004F903F902F9008950E94F918803210F49F
:104EA00080E0089584E89DE20E94821581E00895E3
:104EB000EF92FF920F931F93DF93CF93CDB7DEB79F
:104EC000C054D0400FB6F894DEBF0FBECDBF7E01F8
:104ED0000894E11CF11CC70163E00E94981D8E013B
:104EE0000F5D1F4FC80161E00E94981DEDEFF2E0D9
:104EF000B7017801018112818081DB014D915C91C4
:104F0000D7012D913C91882321F0CA01821B930B7C
:104F100003C0C901841B950B800F911FB3E0883E2D
:104F20009B071CF088EE93E006C02CEF89319207B6
:104F300014F488E19CEF9283818335966E5F7F4FF6
:104F400082E090E0E80EF91E93E0ED34F90791F667
:104F500080918A0190E08170907022E030E0281BFF
:104F6000390B16AA2130310511F01092840322303A
:104F7000310511F0109285031092860386E00E949D
:104F8000E05482E00E94F468C05CDF4F0FB6F894F2
:104F9000DEBF0FBECDBFCF91DF911F910F91FF906C
:104FA000EF9008950F93982F83E0489FA00111245C
:104FB000425A5F4E00E0211101E0892F23E00E9458
:104FC000955C0F9108950F93982F83E0489FA0015F
:104FD00011244B595F4E00E0211101E0892F23E09D
:104FE0000E94955C0F910895DF92EF92FF920F93CC
:104FF0001F93CF93DF938FE161E247E10E94905DC1
:105000008FE167E347E10E948C5D85E361E247E160
:105010000E94905D8FE161E247E10E948C5D8BE42C
:1050200061E247E10E94905D8BE467E347E10E9403
:105030008C5D81E661E247E10E94905D8BE461E274
:1050400047E10E948C5D8AE26BE243E00E94905D42
:1050500089E26CE243E00E948C5D86E56BE243E00E
:105060000E94905D85E56CE243E00E948C5D80913A
:10507000F3049091F404880F991F9C0143E0220FE0
:10508000331F4A95E1F7820F931F60E078E00E949A
:10509000526DD62E8091F5049091F604880F991FD9
:1050A0009C0113E0220F331F1A95E1F7820F931F23
:1050B00060E078E00E94526D8B01109501951F4FC2
:1050C000B8E2FB2EFD0CAAE2EA2EE00E8F2D6E2D2B
:1050D00045E00E94905D025D8F2D602F45E00E94AB
:1050E0008C5D8D2D845D6E2D45E00E94905D8F2D31
:1050F0006E2D45E00E948C5D8091F9049091FA0438
:10510000880F991F9C01E3E0220F331FEA95E1F716
:10511000820F931F60E078E00E94526DD62E80913E
:10512000F7049091F804880F991F9C0163E0220F07
:10513000331F6A95E1F7820F931F60E078E00E94C9
:10514000526D8B01109501951F4F54E5F52EFD0C06
:105150004AE2E42EE00E8F2D6E2D45E00E94905D18
:10516000025D8F2D602F45E00E948C5D8D2D885A49
:105170006E2D45E00E94905D8F2D6E2D45E00E94C2
:105180008C5DCBEFD4E03AE3F32E28E3E22E699175
:105190007991882777FD8095982F26E130E040E0CF
:1051A00050E00E941F6D6050784A8F4F9F4F20E063
:1051B00038E040E050E00E94876D122F1F5F0E2DF7
:1051C000011B8F2D602F412F0E94905D8F2D8F5FCF
:1051D000602F412F0E94905D8F2D8E5F602F412F99
:1051E0000E94905D85E0F80E89E4F81681F6DF9163
:1051F000CF911F910F91FF90EF90DF900895FF9254
:105200000F931F93F82E162F042F80E860E0412F94
:1052100050E0202F0E942E5F1A3010F485E701C065
:105220008FE660E04FE2202F0E94DA5B1A3010F424
:1052300085E701C08FE64F2D50E04F5F5F4F60E084
:10524000202F0E942E5F1F910F91FF9008954F9283
:105250005F926F927F928F929F92AF92BF92CF9206
:10526000DF92EF92FF920F931F93DF93CF930F92F2
:10527000CDB7DEB7F09088019FE0F922813809F4BC
:105280007CC0823890F4833209F43FC0843230F419
:105290008032E1F0823209F092C046C0813609F4D2
:1052A00060C0803809F08BC01CC0843801F185389B
:1052B00038F4823809F44DC0833809F080C043C007
:1052C0008538E9F08F3B09F07AC06DC0A5E0FA1689
:1052D00009F075C08091A30491E089278093A3040D
:1052E00060C00E94620E0E94821580E805C082E8BC
:1052F00099E30E94821584E80E94D76060C08CE622
:1053000091E30E94821585E8F7CF8F2D8F5F809300
:105310008801863010F01092880181E00E94E054EC
:1053200085E00E94F4684BC0FF2029F0FA94F092C7
:105330008801F39403C085E08093880181E00E9496
:10534000E05486E0EECF85E19CE20E94AB0F83E85B
:10535000D3CF0E946B6A8CE19DE60E94AB0F82E87E
:10536000CBCF80917A06823021F483E080937A0655
:1053700018C0B5E0FB1619F512C010927A0610920B
:1053800073061092720610927706109276061092AB
:1053900075061092740610927906109278060E9493
:1053A000750E89E0BECF81E00E94D76083E00E9445
:1053B000D76082E00E94D76081E080936A08809184
:1053C000B50160E040E00E940010882331F0809138
:1053D0006A08882311F40E9458278091B50160E083
:1053E00040E00E94001080936A088091880180311B
:1053F00008F0D8C090919F0480917501981710F023
:1054000004E001C006E061EAC62E61E0D62E1AE093
:10541000812F60E0F60141916F0124E00E94DA5B88
:10542000155F1837A9F7006884E260E1402F0E94F9
:10543000701884E268E146E50E94915C80917A06EA
:10544000882399F0823011F004E001C006E0409119
:105450007B0650917C068EE560E1202F0E94761835
:1054600083E368E140E00E94A8144091B30113E097
:105470004102A00111244753574F84E260E123E029
:1054800000E00E94955C4091B2014295407F4595B5
:105490004595459545954102A00111244E53574F1E
:1054A00089E360E123E00E94955C50E0C52E51E065
:1054B000D52E882499244FE1B42EF401EB5EFE4FE3
:1054C000E080D601ED91FC91E081E7FDED5FE5958F
:1054D000E595E43E0CF4E4EE0E2FED310CF00CE11A
:1054E000F401EF5EFE4F80818823F9F08E2D64E099
:1054F00046E30E94905D80918A0190E0882599257D
:1055000080FD04C08091B2018F7061F48E2D8150B6
:105510006EE143E00E94905D8E2D8F5F6EE143E06F
:105520000E94905D9B2D901B14C08E2D8B516BE3C0
:1055300046E30E948C5D1E2D1150812F6AE343E0EB
:105540000E948C5D812F6CE343E00E948C5DE00E35
:105550009BE31E2D1350092F0350812F602F47E02E
:1055600099830E94905D99819D5F812F692F47E00B
:105570000E948C5D8E2D8D5F602F47E00E94905DB4
:10558000812F602F47E00E948C5D0894811C911C44
:10559000E2E0F0E0CE0EDF1EF4E08F16910409F099
:1055A0008CCF27C080E060E041EA51E02AE001E1D1
:1055B0000E94955C90919F0480917501981710F05E
:1055C00040E001C042E084E560E00E9470188091F4
:1055D0007A06882371F0823011F000E001C002E009
:1055E00040917B0650917C068FE660E0202F0E9460
:1055F000761881E08F1508F49AC037E2A32E35E0C3
:10560000B32ECC24DD242BE1622E712C99E1892E5E
:10561000912C2C2DD5014D905C90FF2029F0B1E00C
:10562000FB1609F077C02BC0C60183709070869D71
:105630008001879D100D969D100D112426952695AD
:1056400030E02B5F3F4F83E0220F331F8A95E1F755
:10565000C20160E270E00E94526DFB01C20160E88D
:1056600070E00E94526D6E1B7F0B460E571E802FFE
:105670008F5D622FA20120E20E942E5F4BC024307A
:1056800010F01EE501C012E2960123703070C901CE
:10569000880F991F880F991F820F931F082F0A5D8B
:1056A000920157FE04C02227332724193509289D6B
:1056B000C001299D900D389D900D112480509E4F62
:1056C000892F990F990B85958595E82EE9E1E817C3
:1056D00014F4A9E1EA2E812F8951602F43E325E5D7
:1056E0000E945A5D602F6250812F45E00E94905DBC
:1056F0001414150414F41F5F01C01E190F5F812FCD
:10570000602F4E2D0E948C5D0250812F602F4E2DF8
:105710000E948C5D0894C11CD11C82E090E0A80E10
:10572000B91E98E0C916D10409F073CF6CC0A4E08B
:10573000AF1508F45EC00E94F427B2E0FB1621F416
:10574000F6E0CF2E40E013C08F2D90E09C01220F99
:10575000331F280F391F220F331F422F4950019743
:105760009C01220F331F280F391FC22ECC0CD42EC0
:1057700083E048025001112410E216C00E94250E59
:105780007C018D2D60E040E00E940010082FEA0CA3
:10579000FB1C8AE0612FA70123E00E94955CE3E0F7
:1057A000F0E0AE0EBF1E185FD394183339F7DC2C2F
:1057B00083E0FC2DF8025001112410E216C00E9473
:1057C000250E7C018D2D60E040E00E940010082F26
:1057D000EA0CFB1C85E6612FA70123E00E94955C83
:1057E00083E090E0A80EB91E185FD394183339F700
:1057F0000AC04091A5045091A6048CE368E224E01D
:1058000004E00E9476180F90CF91DF911F910F91C5
:10581000FF90EF90DF90CF90BF90AF909F908F90D0
:105820007F906F905F904F9008950F931F93CF9349
:10583000DF93082F80E060E04DEE58E021E00E9409
:10584000D65C013658F0033628F0033639F48FEB76
:105850009CE202C087E299E20E94AB0F86E068E01A
:1058600049EE58E00E94105D409172065091730617
:105870008AE268E020E000E00E94761886E668E0B0
:1058800045EE58E00E94105D4091740650917506F7
:105890008EE468E020E00E94761886E060E141EE48
:1058A00058E00E94105D40917606509177068AE29A
:1058B00060E120E00E94761886E660E14DED58E058
:1058C0000E94105D409178065091790674E05695DB
:1058D00047957A95E1F78EE460E120E00E94761822
:1058E00086E660E049ED58E00E94105D4091700648
:1058F000509171068EE460E020E00E94761880915D
:10590000F6069091F7068937910518F4C0E0D0E0CB
:1059100004C08091F506C82FD0E082E06CE34EE72A
:105920000E948C5D85E06CE143E20E94905D0BE09B
:10593000802F6BE343E00E94905D0A5F0338C1F75C
:1059400006E01CE3FE01E358F94F4081612F641B20
:10595000802F0E94905D2196C837D10510F0C0E0DD
:10596000D0E08091F50690E0C817D90719F00F5FD5
:105970000E3741F7DF91CF911F910F9108951F933B
:10598000182F80E060E04DE559E021E00E94D65CF0
:105990001236E1F0133628F4103631F01136E9F4FE
:1059A00018C01336D1F415C08FEF97E09093100113
:1059B00080930F011092F9061092F8061092FB06E0
:1059C0001092FA0689E00E94F46807C085E19CE223
:1059D00002C087E299E20E94AB0F80E068E04BE4EE
:1059E00059E00E94105D4091F8065091F9065695D5
:1059F000479584E568E00E94455F80E060E149E307
:105A000059E00E94105D40910F0150911001569590
:105A1000479584E560E10E94455F80E068E147E2E8
:105A200059E00E94105D4091F8065091F90680916E
:105A30000F0190911001481B590B5695479584E52D
:105A400068E10E94455F80E060E245E159E00E9424
:105A5000105D2091FA063091FB0684E690E0289FC5
:105A6000A001299F500D389F500D1124E4E0569558
:105A70004795EA95E1F784E560E220E30E942E5F16
:105A800080E068E244E059E00E94105D0E949A0FB5
:105A9000AC018FE368E20E94145D82E168E342EFAB
:105AA00058E00E94105D1F910895DF92EF92FF92DF
:105AB0000F931F93CF93DF93F82ED62E122F80E0F3
:105AC0000E94105DC12FD0E0112707FD109520E046
:105AD000C017D10709F421E086E66D2D4F2D0E94F5
