:100000000C94CB0D0C94E80D0C94E80D0C94E80DB9
:100010000C94E80D0C94E80D0C94E80D0C94E80D8C
:100020000C94E80D0C94E80D0C94E80D0C94E80D7C
:100030000C945C100C94E80D0C94E80D0C94DF10FB
:100040000C94C70F0C94E80D0C941D6E0C94116C5D
:100050000C94E80D0C94E80D0C94E80D0C94E80D4C
:100060000C94E80D0C94D80F0C94E80D0C94E80D4A
:100070000C94E80D0C94E80D0C94E80D0C94E80D2C
:100080000C94E80D0C94E80D0C94E80D80400000F1
:100090000000000000000000000000000000000060
:1000A0000000000000000000000000000000000050
:1000B0000000000000000000000000000000000040
:1000C0000000000000000000000000000000000030
:1000D00000000000000000000080C0E0E0F0F8F840
:1000E000FCFCFCF8F8F8F040000000000080808084
:1000F0000000000000000000000000000000000000
:1001000000000080C0C0E0E0E0F0F0F0E0C00000DF
:10011000000000C0F8FFFF9F87838383838383836E
:10012000838383838383838383838383838383031F
:100130008380838383838383838383838383838392
:10014000838383838383838383C3E3733F1F00009D
:10015000000080E0F0F8FCFEFFFFFFFF7F3F1F1F65
:100160000F0783C3E1E1E0E0C0000E1F3F7F7FFF88
:10017000F3E0E0800000000000000000000080F0DC
:10018000FCFEFFFFFFFF7F3F0F03010101000000A6
:1001900080F0FEFFFFC7C1C1C1C1C1C1C1C1C1C1A2
:1001A000C1C1C1C1C1C1C1C1C1C1C1C101C1F0FE93
:1001B000FF3F0F070F0D0D0D1D19191919313131A1
:1001C0003171616161E1C1C1C18100000080E0F86D
:1001D000FCFFFFFFFF2F170F038180C0E0F0F8FC4A
:1001E000FEFFFFFFFFFFFF7F010000000000000097
:1001F00001010307070E1E1C3870E0F0F8FEFFFF38
:100200007F1F0F030001000000000000000000003D
:1002100000000000000000000000000000000000DE
:1002200000000000000000000000000000000000CE
:1002300000000000000000000000000000000000BE
:100240000000000000000000000000007EFFFFFF33
:10025000FFFFFFFBF8FCFCFEFF7F3F1F0F07C3FF04
:10026000FFFFFFFFFF7F070000000000000000000D
:100270000000000000C0E0F8FEFFFF7F1F0F1F3DE1
:100280007CF8F8F0E08000000000000000000000B2
:10029000000000000000000000000000000000005E
:1002A000000000000000000000000000000000004E
:1002B000000000000000000000000000000000003E
:1002C000000000000000000000000000000001012C
:1002D000010101030707070301000000E0FCFFFF25
:1002E000FFFFFF1F030000000000000000000000EF
:1002F000C0F078DE2713090E07030000000000009D
:10030000000001030F7FFFFC7878F8000000000078
:10031000000000000000808080808080808080005D
:1003200080800080800000000000000080808080CD
:1003300080808080808080808080808080800000BD
:1003400000000000000000000000000000000000AD
:1003500000000000000000000080F0FEFFFFFFFF33
:100360003F0F010000000000000000C0E0381E0F39
:100370000300010000000000000000000000000079
:100380000000000000000000000303010000000066
:100390000000000000000E0E020202020203030031
:1003A0000F0F000F0F080808080808080F0F0808AB
:1003B0000808080F0F000000000F0F0000000000E9
:1003C000000000000000000000000000000000002D
:1003D00000000000000000C0F8BFFFFFFF1F7F010A
:1003E0000000000000000000F0FCFF7F78300000FB
:1003F00000000000000000000000000000000000FD
:1004000000000000000000000000000000000000EC
:1004100000000000000000000000000000000000DC
:1004200000000000000000000000000000000000CC
:1004300000000000000000000000000000000000BC
:1004400000000000000000000000000000000000AC
:100450000000000000301C070E0F07010000000024
:10046000000000000000000000000000000000008C
:10047000000000000000000000000000000000007C
:10048000000000000000000000000000000000521A
:10049000554420454C45205448522041494C205257
:1004A00055442054485220454C452041494C204158
:1004B000494C20454C452054485220525544204137
:1004C000494C2054485220454C4520525544200068
:1004D00003010200040506070000000000000108F7
:1004E0001E640101081E6401010F32960A0A1E32C1
:1004F000966D656E75537461636B206F7665726679
:100500006C6F77006D656E75537461636B20756EEB
:10051000646572666C6F7700707265737320616ECC
:1005200079204B657900414C455254004D45535359
:10053000414745004C4F4144494E4700506C65616E
:100540007365207265736574207468656D005377F8
:10055000697463686573206E6F74206F666600202F
:100560004F6C642056657273696F6E20454550521A
:100570004F4D202020434845434B20534554544978
:100580004E47532F43414C494200416C61726D7399
:100590002044697361626C65640052657365742000
:1005A0007468726F74746C65005468726F74746CE4
:1005B00065206E6F742069646C650050726573739A
:1005C00020616E79206B657920746F20736B697080
:1005D00000414C45525400454550524F4D206C6FE0
:1005E00077206D656D004F46464142535255735218
:1005F0005525454C73454C25544873544825414C6A
:1006000073414C2550312050312550322050322535
:1006100050332050332500544852525544454C45E0
:1006200049443049443149443241494C4745415499
:10063000524E5357315357325357335357345357FE
:100640003553573653573753573853573953574104
:10065000535742535743004F4646004F4E20002DFC
:100660002D2D002D2D2D204348312043483220438D
:1006700048332043483420434835204348362043FC
:1006800048372043483820434839204348313043D5
:1006900048313143483132434831334348313443A0
:1006A0004831354348313643483137434831384380
:1006B000483139434832304348323143483232437B
:1006C0004832334348323443483235434832364364
:1006D0004832374348323843483239434833300090
:1006E0005031202050322020503320204D415820BE
:1006F00046554C4C43594331435943324359433394
:1007000050504D3150504D3250504D3350504D346B
:1007100050504D3550504D3650504D3750504D384B
:100720004348312043483220434833204348342053
:100730004348352043483620434837204348382033
:1007400043483920434831304348313143483132FE
:1007500043483133434831344348313543483136D7
:100760004144312041443220002D2D2D2D0056458D
:1007700052533A2056312E343538322D6572657A0F
:1007800000444154453A2030352E30382E32303135
:10079000310054494D453A2032303A30383A3537F5
:1007A000002053564E3A207472756E6B2D7234339E
:1007B000340012081200081C0808081C0800000871
:1007C0002200490022080000000000227F220000D1
:1007D00000082200490022080000082200490022E7
:1007E00008000000227F22000000000008220049CB
:1007F0000022080000081C0808081C08009E3E3D56
:1008000041FF3F6F47FD50B75ACC3D8149264F3ECF
:10081000566B55DD3630355B3B8C3B1B3C9D3C704D
:10082000756C736520746162206F766572666C6F9B
:1008300077004E4F20444154410054783D00527897
:100840003D0041203D0054783D0052783D0041205C
:100850003D0020202054546D004578704578464670
:100860006E654D656443727300544F5400535425B4
:100870000053544B0054535700544D4500535441BA
:1008800054005B4D454E555D20746F207265667255
:1008900065736800537461636B2020202020202042
:1008A0002020206200746D61696E202020202020AD
:1008B000202020206D7300746D7231204A69747499
:1008C000657220202020757300746D72314C617444
:1008D000206D696E20202020757300746D72314C7C
:1008E0006174206D6178202020207573005354417D
:1008F0005432004D6F646500416C61726D20576128
:10090000726E696E67004D656D6F72792057617206
:100910006E696E6700537769746368205761726E01
:10092000696E67005468726F74746C6520576172E9
:100930006E696E670053706C6173682073637265D3
:10094000656E004F4646004C69676874206F6666A6
:10095000206166746572004C6967687420737769FA
:1009600074636800466C617368206F6E2062656511
:1009700070004265657020636F756E74646F776E8A
:10098000004D696E7574652062656570005468720B
:100990006F74746C65207265766572736500534977
:1009A0004E474F534D5046494C540046696C746550
:1009B000722041444300496E6163746976697479B9
:1009C00020616C61726D0042617474657279207788
:1009D00061726E696E6700436F6E7472617374004A
:1009E00051756965744E6F4B65794E6F726D204C11
:1009F0006F6E6720784C6F6E670042656570657238
:100A0000004F776E6572204E616D6500524144491A
:100A10004F2053455455500043616C004D756C7424
:100A200069706C696572006368316368326368334A
:100A3000636834006F6666202B3D203A3D006D6F81
:100A40006465202020252073726320207377005373
:100A50006C61766500545241494E455200000303D3
:100A600003030056455253494F4E005472696D2D91
:100A7000202B00204D656E75204578697420446FE9
:100A8000776E20202055705269676874204C656627
:100A900074004449414700424700413141324133EB
:100AA0004134413541364137413800414E41002003
:100AB0005B4D454E555D205748454E20444F4E45B1
:100AC0002000204D4F564520535449434B532F503F
:100AD0004F54532000205B4D454E555D20574845EF
:100AE0004E20444F4E452000202020534554204D99
:100AF0004944504F494E5420202000205B4D454E24
:100B0000555D20544F2053544152542020005354DB
:100B10004152542043414C4942524154494F4E2086
:100B20000043414C4942524154494F4E0066726560
:100B300065004D4F44454C53454C00434F4C2044B9
:100B40006972656374696F6E0041494C2044697233
:100B5000656374696F6E00454C4520446972656336
:100B600074696F6E0053776173682052696E670015
:100B7000436F6C6C656374697665002D2D2D2020A4
:100B80002031323020202031323058202031343092
:100B900020202039302020202000537761736820E6
:100BA000547970650048454C4920534554555000D0
:100BB0000044454C455445204D4F44454C20202091
:100BC0005B4D454E555D0054325468547269670060
:100BD000547261696E657200452E204C696D6974AE
:100BE0007300504F534E4547005368696674205355
:100BF000656C0050504D2046724C656E20202020C0
:100C00006D53656300755365630034434820364374
:100C1000482038434820313043483132434831344A
:100C20004348313643480050504D20202053494C12
:100C3000565F4153494C565F4253494C565F4354AB
:100C400052414330390050726F746F005245544125
:100C5000313233004265657020436E74005472690E
:100C60006D20537700457870202020457846696EC6
:100C70006546696E6520204D656469756D436F61D9
:100C8000727365005472696D20496E6300542D457E
:100C900078706F00542D5472696D00436F756E74D7
:100CA00020446F776E436F756E742055702020005E
:100CB00054696D65722000547269676765720054EB
:100CC000696D6572004E616D650053455455500065
:100CD0000009010000000000000602004475706C6D
:100CE00069636174696E67206D6F64656C005B4D4C
:100CF000454E555D20205B455849545D005945538C
:100D000020202020204E4F0044454C455445204D86
:100D10004F44454C004455504C4943415445204DA7
:100D20004F44454C00204142434445464748494AC8
:100D30004B4C4D4E4F505152535455565758595A8B
:100D40006162636465666768696A6B6C6D6E6F701B
:100D50007172737475767778797A303132333435CD
:100D6000363738395F2D2E006578702020252020F9
:100D700073773120737732004558504F2F4452001B
:100D8000000344522048696768004452204C6F7742
:100D9000004452204D69640044725377320044721B
:100DA00053773100576569676874004578706F0044
:100DB0004558504F2F445200002D2D2D783E30784D
:100DC0003C307C787C663E30663C307C667C6331AF
:100DD0002063322063332063342063352063362060
:100DE00063372063382063392063313063313163E6
:100DF0003132633133633134633135633136002B43
:100E00002A52004D49584552005072657373205B59
:100E1000455849545D20746F2061626F7274004DB3
:100E20006178206D69786572732072656163683AD4
:100E3000200044454C455445204D4958205B4D45C4
:100E40004E555D00536C6F772020557000536C6FCA
:100E5000772020446F776E0044656C61792055706F
:100E60000044656C617920446F776E0041646420B2
:100E7000202020204D756C7469706C795265706CFF
:100E800061636520004D756C747078004F464600B4
:100E90005761726E696E6700537769746368002DDD
:100EA0002D2D783E30783C307C787C663E30663C38
:100EB000307C667C633120633220633320633420CE
:100EC000633520633620633720633820633920631D
:100ED0003130633131633132633133633134633103
:100EE0003563313600437572766573004F4E204F7F
:100EF0004646005472696D004F46464F4E200046EC
:100F00006C4D6F64657472696D004F6666736574CD
:100F100000466D5472696D56616C0057656967686B
:100F20007400536F757263650045444954204D4900
:100F3000582000494E53455254204D495820002D09
:100F40002D2D2D202020763E6F66732020763C6F5D
:100F5000667320207C767C3E6F66737C767C3C6F6B
:100F60006673414E44202020204F52202020202014
:100F7000584F522020202076313D3D763220763168
:100F8000213D76322076313E7632202076313C7615
:100F900032202076313E3D76322076313C3D76322D
:100FA0002000535700435553544F4D205357495435
:100FB0004348455300000253414645545920535776
:100FC000495443484553000002010203040102044E
:100FD00003010302040103040201040203010403E8
:100FE00002020103040201040302030104020304D8
:100FF00001020401030204030103010204030104CA
:1010000002030201040302040103040102030402B7
:1010100001040102030401030204020103040203A8
:10102000010403010204030201434C454152204DD7
:1010300049584553205B4D454E555D00205245545F
:1010400041004368616E6E656C204F72646572008A
:1010500054454D504C41544553003C3E002D2D2DE0
:1010600059656C4F726752656400616C726D0076F1
:101070002D004120206368616E6E656C0054454C04
:10108000454D4554525900000102020102434F50A0
:1010900059205452494D205B4D454E555D002D2D34
:1010A0002D494E56004C494D49545300000303034B
:1010B0000303030303030303030303030300435670
:1010C0000043555256455300505245534554004530
:1010D0004449542D3E0043555256450009002D2DDC
:1010E0002D494E56004F46464F4E20004545505222
:1010F0004F4D206F766572666C6F77004545505294
:101100004F4D206F766572666C6F770067656E77FE
:1011100072697465206572726F7200454550524F56
:101120004D20466F726D617474696E670042616430
:1011300020454570726F6D2044617461004D4F44CD
:10114000454C2020202020004D452020202020201C
:1011500020200050085000000000000000006F0038
:101160000007000700147F147F14242A7F2A12230B
:101170001308646236495522500005030000001C24
:101180002241000041221C0014083E081408083EB9
:1011900008080050300000080808080800606000D7
:1011A000002010080402003E49453E0000427F40F6
:1011B00000625149460041494936001814127F0027
:1011C00027454539003E494932000179050300367B
:1011D000494936000649291E0000363600000056EF
:1011E0003600000814224114141414144122140867
:1011F00000020151090600060909067E0909097E57
:101200007F494949363E414141227F4141221C7F6D
:10121000494949417F090909013E4149497A7F0805
:1012200008087F00417F41002040413F017F0814B2
:1012300022417F404040407F020C027F7F04081023
:101240007F3E4141413E7F090909063E4151215EF1
:101250007F09192946264949493201017F01013F89
:101260004040403F1F2040201F3F4030403F63141C
:1012700008146307087008076151494543007F411E
:10128000410002040810200041417F0004020102D5
:10129000044040404040000102040020545454786F
:1012A0007F484444383844444420384444487F38D4
:1012B00054545418087E0901020C5252523E7F08C1
:1012C00004047800447D40002040443D007F102805
:1012D000440000417F40007C041804787C0804042A
:1012E0007838444444387C14141408081414187CC6
:1012F0007C080404084854545420043F4440203CD3
:101300004040207C1C2040201C3C4020403C442885
:101310001028440C5050503C4464544C440008364F
:10132000410000007F000000413608000808221C30
:1013300008081C220808A0608000000000000000CF
:1013400000000000000000FFFF0000000000001F80
:101350003F00003F1F00003030FFFF3030FFFF3004
:10136000303078CCCCFFFFCCCC8C0C060F0F86C075
:10137000E070381C0C3CFEC7E3F33B1E0C00000081
:1013800000333B1F0F000000000000F0F81C0E07A8
:10139000030000000003070E1CF8F000003030E0EE
:1013A000C0FCFCC0E03030C0C0C0C0FCFCC0C0C04D
:1013B000C000000000000000000000C0C0C0C0C0AD
:1013C000C0C0C0C0C000000000000000000000005D
:1013D000000080C0E070381C0C000000000000001D
:1013E000000000000000003838000000000000008D
:1013F0000000000000000003033F3F03033F3F03E2
:10140000030C0C0C0C3F3F0C0C07030C0E070301E4
:1014100000183C3C180F1F383133331E1E33330085
:10142000000000000000000000000003070E1C3850
:10143000300000000030381C0E07030000030301D9
:10144000000F0F00010303000000000F0F00000059
:10145000000000333B1F0F000000000000000000F0
:1014600000000000000000183C3C18000000000CC8
:101470000E07030100000000000000FCFE87C3E32C
:1014800077FEFC00000C0EFFFF0000000000000CC7
:101490000E0783C3E77E3C00000303C3C3C3E7FE1C
:1014A0003C0000C0E070381C0EFFFF00003F3F33DF
:1014B000333373E3C30000FCFEC7C3C3C78E0C0005
:1014C000000303C3E3733B1F0F00003CFEE7C3C3ED
:1014D000E7FE3C00003C7EE7C3C3E7FEFC000018CB
:1014E0003C3C18000000000000183C3C18000000C4
:1014F000000000C0E0F0381C0E0703303030303000
:10150000303030303003070E1C38F0E0C000000CE3
:101510000E07030383C3E77E3C00000F1F3B3130FF
:10152000381F0F000030303F3F3030000000003CDB
:101530003E37333130303000003030303030391FFA
:101540000F00000303030303033F3F00000C1C389C
:101550003030381F0F00000F1F383030391F0F0098
:101560000000003F3F0000000000000F1F39303036
:10157000391F0F0000000030381C0E070300000662
:101580000F0F06000000000000333B1F0F0000009B
:10159000000000000103070E1C383003030303039F
:1015A000030303030330381C0E070301000000008F
:1015B00000000033330100000000003C7EE7C3C39D
:1015C000E77E3CF0F8DCCEC7C7CEDCF8F0FFFFC307
:1015D000C3C3C3C3E7FE3CFCFE0703030303070EBC
:1015E0000CFFFF030303070E1CF8F0FFFFC3C3C388
:1015F000C3C3C30303FFFFC3C3C3C3C3C30303FC0A
:10160000FE0703C3C3C3C7CECCFFFFC0C0C0C0C06A
:10161000C0FFFF00000303FFFF0303000000000002
:10162000000303FFFF0303FFFFC0E0F0381C0E07B9
:1016300003FFFF0000000000000000FFFF0E1CF889
:10164000F81C0EFFFFFFFF3870E0C08000FFFFFCBA
:10165000FE070303030307FEFC0000000000000078
:101660000000003F3F0000000000003F3F3F3F30D0
:1016700030303030391F0F0F1F3830303030381CC9
:101680000C3F3F303030381C0E07033F3F303030C6
:1016900030303030303F3F00000000000000000FCD
:1016A0001F3830303030303F3F3F3F0000000000F7
:1016B000003F3F000030303F3F303000000C1C380E
:1016C0003030381F0F00003F3F000103070E1C3869
:1016D000303F3F30303030303030303F3F0000005E
:1016E0000000003F3F3F3F0000000103033F3F0F6A
:1016F0001F3830303030381F0FFFFFC3C3C3C3C3A0
:10170000E77E3CFCFE070303030307FEFCFFFFC369
:10171000C3C3C3C3E77E3C3C7EE7C3C3C3C3C78E1A
:101720000C03030303FFFF03030303FFFF00000099
:10173000000000FFFFFFFF000000000000FFFFFFB0
:10174000FF000000000000FFFF0F1F38F0E0E0F096
:10175000381F0F3F7FE0C08080C0E07F3F0303035E
:1017600083C3E3733B1F0F0000FFFF03030303006A
:10177000000C1C3870E0C080000000000003030370
:1017800003FFFF000030381C0E07070E1C38300026
:101790000000000000000000003F3F0000000000CB
:1017A0000000000F1F383033371E1C3F333F3F000F
:1017B0000003070E1C38300C1C3830303030391F15
:1017C0000F000000003F3F000000000F1F383030C6
:1017D0003030381F0F03070E1C38381C0E07030F5C
:1017E0001F38381F1F38381F0F3C3E070301010305
:1017F000073E3C000000013F3F010000003C3E3737
:101800003331303030303000003F3F303030300046
:101810000000000000000103070E0C000030303013
:10182000303F3F00000000000000000000000030DA
:10183000303030303030303030000003070E1C388C
:101840003000000000303030303070E0C0FFFFC0AA
:10185000E070303070E0C0C0E070303030303000C8
:1018600000C0E070303070E0C0FFFFC0E07030308A
:10187000303070E0C0C0C0FCFEC7C303070E0CF0E0
:10188000F89C0C0C0C0C0CFCFCFFFFC0E070303022
:1018900070E0C000003030F3F300000000000000F2
:1018A000003030F3F30000FFFF0080C0E070300034
:1018B0000000000303FFFF00000000F0F03070E0C4
:1018C000E07070E0C0F0F0C0E070303070E0C0C098
:1018D000E0703030303070E0C000000000000000E8
:1018E0000000000C1E3F33333333333F3F3F3F3064
:1018F00030303030381F0F0F1F3830303030381C48
:101900000C0F1F3830303030303F3F0F1F3B333328
:10191000333333030300003F3F00000000000000AA
:101920000133333333333B1F0F3F3F0000000000D0
:10193000003F3F000030303F3F303000000C1C388B
:101940003030381F0F00003F3F03070F1C383000B6
:1019500000000030303F3F303000003F3F000003C8
:101960000300003F3F3F3F0000000000003F3F0FEB
:101970001F3830303030381F0FF0F030303030301A
:10198000F0E0C0C0E0F0303030E0C0F0F0F0F0C087
:10199000E070303070E0C0C0E0F030303030300007
:1019A000003030FFFF303000000000F0F000000099
:1019B000000000F0F0F0F0000000000000F0F0F097
:1019C000F0000000000000F0F03070E0C08080C047
:1019D000E07030F0F0800000000000F0F0303030B7
:1019E0003030B0F0F070300000C0E03C3E07030043
:1019F0000000000000FFFF00000000000003073EA1
:101A00003CE0C00000C0C0C0C00C1CF8F0E0C0C08A
:101A1000E0F0F81C0CC0C0C0C03F3F030303030349
:101A200003010000010303030303033F3F3F3F00A3
:101A300000000000000000303133333333333F1EE9
:101A40000C00000F1F383030381C0C0F1F3830309E
:101A5000381C0C3F3F03070E1C38381C0E07030FC1
:101A60001F38381C1C38381F0F30381C0F07070F61
:101A70001C3830000133333333333B1F0F30383CD5
:101A80003E373331303030000000010F1F38300056
:101A900000000000003F3F00000000000030381F41
:101AA0000F01000000000000000C0E070301000001
:101AB0000103070E0C000000004080080420100203
:101AC00001411B4D1B531B601B671B741B7F1B8A33
:101AD0001B010203040102040301030204010304C5
:101AE00002010402030104030202010304020104CF
:101AF00003020301040203040102040103020403BC
:101B000001030102040301040203020104030204AD
:101B1000010304010203040201040102030401039E
:101B2000020402010304020301040301020403028C
:101B3000010102030401030204040203010403027D
:101B40000153696D706C6520342D434800542D435A
:101B5000757400537469636B7920542D4375740058
:101B6000562D5461696C00456C65766F6E5C4465FA
:101B70006C74610048656C6920536574757000472A
:101B800079726F20536574757000536572766F209B
:101B900054657374000011241FBECFEFD0E1DEBF87
:101BA000CDBF11E0A0E0B1E0E2E2FFED02C00590A0
:101BB0000D92A433B107D9F71EE0A4E3B1E001C050
:101BC0001D92A43BB107E1F70E94E8180C948F6FB7
:101BD0000C9400009AE0899F9001112427553E4FF4
:101BE000C901089595E0899F9001112427513D4F27
:101BF000C901089587E196E008958C3038F4E82F04
:101C0000F0E0EE0FFF1FE954FB4F29C0803188F44C
:101C1000E82FF0E0EE0FFF1FDF01A25BBE4FE05C9C
:101C2000FB4F0190F081E02D8D919C91E81BF90B09
:101C30000BC0843160F4E82FF0E0EE0FFF1FE05C92
:101C4000FB4F0190F081E02DEE0FFF1F1DC084328D
:101C500050F4E82FF0E0EE0FFF1FE356FB4F01902A
:101C6000F081E02D11C0863218F0E0E0F0E00CC009
:101C700090E08497FC01EE0FFF1FE80FF91FE95673
:101C8000F14F8081E82FF0E0CF010895E09140040A
:101C9000F0E0EE0FFF1FE85CFB4F8081918108951B
:101CA000FC01A0914004B0E0AA0FBB1FAA5CBB4F8F
:101CB000ED93FC938FEB099580914204809341044E
:101CC000089580914104882341F480915104882330
:101CD00021F480915304882311F084E105C08091A0
:101CE0006C04882321F0815080936C0408C080919B
:101CF000630090E096958795817080936D04809144
:101D00006D040895109255041092570410925604D1
:101D1000809154048170809354040895E0EDF4E0C0
:101D2000E80FF11DE491F0E0EE0FFF1FEF58FB4FBD
:101D300020813181C9010895EF92FF920F931F9383
:101D4000CF93DF938091780190E081709070C2E032
:101D5000D0E0C81BD90B10917A011170E1E8F4E0D2
:101D6000A1E7B4E040E050E0E12C78E0F72E042F4A
:101D7000842F806487B9369A349BFECF349A2089A9
:101D800031898D919C91119796958795820F931F1C
:101D90008E7F11969C938E9360817181260F371FE1
:101DA00036952795318B208B84B195B1C417D50713
:101DB00041F4043030F4112321F09701281B390B32
:101DC000C901860F971F96958795819391934F5FD1
:101DD0005F4F12964830510551F6DF91CF911F9118
:101DE0000F91FF90EF9008958F929F92AF92BF92C4
:101DF000CF92DF92EF92FF920F931F93DF93CF93D7
:101E0000CDB7DEB760970FB6F894DEBF0FBECDBF7B
:101E1000FE01319680E1DF011D928A95E9F78091FC
:101E2000780190E081709070A2E0B0E0A81BB90B3F
:101E300070917A0171704F0121E7E22E24E0F22EB9
:101E400040E050E08D01000F111F0E0D1F1DA12C51
:101E500088E0B82E2EC0D7B8369A349BFECF349A7D
:101E600084B195B1280F391F6F5F6430A1F7F40179
:101E700031832083C90196958795F70191838083EB
:101E8000A417B50759F4F3E0FC1540F0772331F0BF
:101E90009501281B390BF801318320834F5F5F4F79
:101EA00022E030E0820E931EE20EF31E4830510510
:101EB00049F0C42EF4012081318160E0E0E4DE2E9F
:101EC000D42AC9CF60960FB6F894DEBF0FBECDBF3F
:101ED000CF91DF911F910F91FF90EF90DF90CF9006
:101EE000BF90AF909F908F9008950F931F93CF93C3
:101EF000DF938091780190E08170907042E050E033
:101F0000481B590B60917A016170A1E7B4E020E0B1
:101F100030E0FA01EE0FFF1FEA0FFB1FC0E0D8E030
:101F2000722F822F806487B9369A349BFECF349A01
:101F300084B195B1880F991F11969C938E93421787
:101F4000530749F4743038F4662329F08E01081BD6
:101F5000190B118300832F5F3F4F129628303105F4
:101F6000F9F6DF91CF911F910F9108958EE587B912
:101F7000369A349BFECF349A369A349BFECF349AED
:101F800084B195B190936A048093690408951F9277
:101F90000F920FB60F9211248F9380916B048F5F75
:101FA00080936B048F910F900FBE0F901F90189528
:101FB00078941F920F920FB60F9211242F933F9394
:101FC0004F935F936F937F938F939F93AF93BF9341
:101FD000EF93FF932091800030918100F8948091DD
:101FE0007D008F7D80937D00789480916E04909128
:101FF0006F04A901481B590B5695479530936F0400
:1020000020936E0420916804822F8150883048F517
:10201000CA01815293408757954000F5E22FF0E0C6
:10202000EE0FFF1FEA5AFB4F4C5D554080917E0139
:10203000992787FD90950A96BC01469FC001479F4E
:10204000900D569F900D11246AE070E00E94FD6E85
:10205000718360832F5F209368040BC01092680423
:1020600008C0415A5F404F5D5E4218F481E08093A2
:102070006804F89480917D00806280937D00FF91D8
:10208000EF91BF91AF919F918F917F916F915F91F0
:102090004F913F912F910F900FBE0F901F90189569
:1020A000E5EBFEE001C0319680818535E1F39F01CB
:1020B000245B3E40C90108951F920F920FB60F9204
:1020C00011242F933F934F935F936F937F938F933D
:1020D0009F93AF93BF93EF93FF9390E08CB58A30BB
:1020E00008F065C09F5F923309F461C0F7CFC09AD2
:1020F0001092B10404C0C09881E08093B104809133
:10210000BD069091BE069C012417350708F49A017C
:102110003093BE062093BD0680911001909111016D
:102120009C014217530708F49A0130931101209340
:102130001001A0910E01B0910F01FD0181919191CB
:102140009BBD8ABDF0930F01E0930E0112968D9115
:102150009C911397892BA9F481EC96E090930F0141
:1021600080930E018091A50181708093B10487B79F
:102170008F7E87BF78940E94951EF89487B7806100
:1021800087BF80914704816080934704FF91EF915E
:10219000BF91AF919F918F917F916F915F914F917F
:1021A0003F912F910F900FBE0F901F9018954CB537
:1021B0005DB58091B104882309F099CF9CCF7894C4
:1021C0001F920F920FB60F9211242F933F934F93AC
:1021D0005F936F937F938F939F93AF93BF93EF938F
:1021E000FF93F89487B78D7F87BF789481B7845623
:1021F00081BF90914104992369F080915204882312
:1022000029F49093520481E0809353049150909369
:10221000410421C0309151043323B9F0209152047C
:10222000222399F090E080915304882309F491E0EF
:1022300090935304992309F428E0209341049923AF
:1022400051F031503093510406C010925204109254
:1022500053041092340480915304882381F08091B8
:102260003404882311F490E004C09091700481E05C
:10227000982790937004992311F41B9A01C01B981E
:102280000E941B6880914704826080934704F89401
:1022900087B7826087BFFF91EF91BF91AF919F9108
:1022A0008F917F916F915F914F913F912F910F90FF
:1022B0000FBE0F901F9018958F929F92AF92BF9272
:1022C000CF92DF92EF92FF920F931F93CF93DF9302
:1022D000B82E942E85E0841708F412C1BB2009F4AF
:1022E00012C196E1B91609F40DC1AAEEBA1609F4A5
:1022F00007C12B2D332727FD3095C90137FF04C0B7
:1023000088279927821B930B8A3084F41B144CF086
:102310008DE090E0821B930B0E94726761E068275A
:10232000F2C0C9010D960E947267C6C0C82EDD2496
:10233000C7FCD094E6EFFFEFCE0EDF1EF601EE0FE6
:10234000FF1FEC0DFD1DE157FE4FE85AFD4F808148
:10235000E855F240882309F4D3C056E5E52E52E053
:10236000F52EEE0EFF1ED701AC90EF01C95ADD4FDE
:102370008880853008F4D5C0883028F400E010E06B
:1023800040E050E029C08A2D81500E94FD0D8C0153
:10239000888181500E94FD0DAC011EC08881482FAC
:1023A000552747FD509543585F4F16C0988189E2E5
:1023B000980290011124359527953595279597FD1D
:1023C000915C96FB990F990B90F9892F992787FDBE
:1023D0009095A901481B590BE601CC0FDD1FCC0DD0
:1023E000DD1DC951DC4F2881283088F4253008F0E4
:1023F00049C0223031F1233020F4213009F080C06F
:102400001CC0233011F1243009F07AC029C02A30D1
:1024100009F462C02B3038F4283009F453C0293055
:1024200009F06EC054C02C3009F460C02C3008F4A0
:1024300058C02D3009F064C05EC01B140CF44CC0B1
:102440005AC01B140CF44DC051C020E0C80117FF46
:1024500003C0909581959F4F4817590764F40AC0AF
:1024600020E0C80117FF03C0909581959F4F841706
:1024700095070CF421E01B1414F4622F44C061E0B2
:10248000622741C0192D1F5F8A2D60E0412F0E94F5
:102490005C11082F882D60E0412F0E945C1198810B
:1024A000953031F4002361F1682F882361F12AC04F
:1024B000963021F4002331F5682F25C060E008171D
:1024C00009F521C060E004171507E9F41BC060E0BE
:1024D00004171507B9F417C060E0401751079CF4C2
:1024E00011C060E00417150774F40CC060E0041715
:1024F00015074CF007C060E04017510724F002C0F8
:1025000060E001C061E0862FDF91CF911F910F91B4
:10251000FF90EF90DF90CF90BF90AF909F908F9003
:1025200008958A2D81500E94FD0D8C01F701808154
:1025300085320CF033CF3ACF1F93182FA82FAF70EE
:10254000A6502091A10122306CF0332727FD309551
:102550002150304081E090E002C0880F991F2A95F9
:10256000E2F7282FA83008F07FC08A2F8595682FC2
:1025700070E0FB01EE0FFF1FE050FF4F0190F08174
:10258000E02DB081222311F0422F10C04B2F552790
:1025900047FD509557FF03C0509541955F4F242F3D
:1025A00047FD2D5F422F459545954F5F209178015E
:1025B00030E02170307082E090E0821B930B861730
:1025C000970711F050E00CC08091A0018F7011F4BA
:1025D00050E002C044E051E080917A0180FD4195D5
:1025E0008B2F992787FD9095242F332727FD309532
:1025F000A0FF03C0280F391F04C0BC01621B730B6E
:102600009B012115310521F08B2F832787FF09C0FE
:10261000552339F4BB2329F01082812F0E94F967DA
:102620001CC0C90184589F4F893F910560F42083E5
:1026300086E00E945D5C16FF03C081E08093340455
:10264000809143040EC01216130614F083E801C0F3
:102650008DE7808386E00E945D5C10923404809157
:1026600045048093410410E0812F1F9108951F932A
:10267000F89420916A0E30916B0E789440E080912E
:10268000B5049091B6042817390709F041E040934A
:102690004E04F89480916A0E90916B0E789490930A
:1026A000B6048093B5048BEE94E060E00E94A22112
:1026B00080914E04882309F410C18091540480FF56
:1026C00014C090915504892F8F5F809355048436F0
:1026D00060F093569093550480915604909157045E
:1026E0000196909357048093560480E00E94705C9A
:1026F0000E94D4660E94E2660E949C12182F80916C
:102700004F0490915004009729F001979093500442
:1027100080934F04112389F080917C0190E024EF95
:1027200031E0AC01429FC001439F900D529F900D3C
:1027300011249093500480934F048091650160E0D0
:1027400040E00E945C11882339F480914F049091FD
:102750005004892B09F4BFC0C79A2091C30430915B
:10276000C4048091490490914A04821B930B60E257
:1027700070E00E94FD6E70934C0460934B046115F1
:10278000710591F08091B3049091B404821B930B76
:1027900062E070E00E94FD6E70934C0460934B0405
:1027A00030934A04209349043093B4042093B30433
:1027B000E0914004F0E0EE0FFF1FEA5CFB4F019058
:1027C000F081E02D812F09950E94A1660E94610E83
:1027D000882321F0809165008F7E03C08091650081
:1027E000806180936500F89480916A0E90916B0EE1
:1027F00078948F7190708230910521F0039709F0E1
:102800006CC052C0E7EDF4E0E491F0E0EE0FFF1F82
:10281000EF58FB4F0190F081E02DCF0168E070E0B0
:102820000E94FD6E80916401992787FD9095069620
:102830009C01629FC001639F900D729F900D1124B7
:1028400020914D0430E02F5F3F4F609169047091FB
:102850006A0444E0EE0FFF1F4A95E1F78E0F9F1FB9
:102860000E94FD6E260F371F3595279520934D0446
:102870008091B204805E8093B204882371F58091C8
:102880006301281750F5223340F18091460480936C
:10289000410480917A0183FF20C082E390E090930D
:1028A000500480934F0419C08091770186958695D6
:1028B0008695877090E0BC01660F771F660F771FC3
:1028C000680F791F68527B4F82E494E045E050E046
:1028D0000E944D6F02C0C79840CF1F9108950F937B
:1028E0001F9380916B0402B710916B048117C9F795
:1028F000E0917B01F0E0EE0FFF1FE85FFE4F0190DB
:10290000F081E02D09950E94B60F0E943713809147
:102910004704833019F4A8951092470440916B0442
:1029200052B780916B044817C9F7912F80E0202F90
:1029300030E0822B932B342F20E0452F50E0422BA8
:10294000532B2091BF063091C006481B590B4217EC
:10295000530708F4A9015093C0064093BF061F9186
:102960000F9108958F929F92AF92BF92CF92DF9274
:10297000EF92FF920F931F93CF93DF93182F7B015A
:102980004A015901C02E84FD04C0F4E0DF2E05E0A9
:1029900005C01F701066E5E0DE2E04E08D2D806618
:1029A000181761F08D2D8064181741F09091E6049E
:1029B000992361F0133611F0133441F4E7012196A5
:1029C0008091420480934104802F17C0802F80663D
:1029D000181761F0802F8064181741F0992309F4CB
:1029E00071C0123619F0123409F06CC0E70121975A
:1029F00080914204809341048D2D90E00E94726783
:102A0000882351F0CC27DD27CE19DF09802F0E94C3
:102A1000F9678D2D0E94F9678114910491F481E08A
:102A2000A816B10471F4103661F41092E604C0E007
:102A3000D0E0E114F10411F4C1E0D0E080E60E949E
:102A4000F96780914B0490914C04C81BD90BAC16CC
:102A5000BD064CF4812F0E94F96780914504809354
:102A60004104E5010BC0C815D90544F4812F0E942B
:102A7000F9678091450480934104E401CE15DF0598
:102A800089F0209739F4812F0E94EA6780914204EF
:102A9000809341048C2D83700E945D5C81E0809363
:102AA000480402C010924804CE01DF91CF911F91DB
:102AB0000F91FF90EF90DF90CF90BF90AF909F90DD
:102AC0008F900895E701A8CF0F93772767FD709542
:102AD000552747FD5095332727FD30950E94B214A6
:102AE0000F9108950F93772767FD7095552747FD40
:102AF0005095332727FD309501E00E94B2140F91C5
:102B000008950F93772767FD7095552747FD5095DA
:102B1000332727FD309502E00E94B2140F910895EB
:102B20000F931F938C010E94D46682E260E04CE216
:102B300055E024E00E94476480E068E1A8010E941B
:102B400081640E94A166809162010E9497661F9134
:102B50000F910895EF92FF920F931F93082FF62E77
:102B6000142FE22E442329F0463139F04A3E81F4F5
:102B700008C08A5F4FE556E007C08A5F4BE556E024
:102B800003C08A5F47E556E02E2D0E94476423C0AC
:102B9000441F4427441F405E0E945A63202F2A5F2F
:102BA000412F552747FD509557FF03C0509541953C
:102BB0005F4F842F992787FD90950197AC01440FB3
:102BC000551F480F591F495E594F822F6F2D23E023
:102BD0000E2D0E9415641F910F91FF90EF900895A4
:102BE000DF92EF92FF920F931F93F82EE62ED42ED2
:102BF00010919A01812F992787FD909597FF03C027
:102C0000909581959F4F80319CF443E08402A00110
:102C100011244A515A4F8F2D6E2D23E00D2D0E9405
:102C200015641F3F4CF58F2D86506E2D41E221C05B
:102C3000853274F411161CF4412F4F5002C0412FFD
:102C4000415F8F2D86506E2D2D2D0E94AA1514C028
:102C500011161CF4412F445202C0412F4C5D8F2DA0
:102C600086506E2D2D2D0E94AA158F2D8E5E6E2DF5
:102C70004DE62D2D0E945A631F910F91FF90EF900A
:102C8000DF9008950F93022F50E0440F551F440F1B
:102C9000551F4D59594F24E00E9415640F91089516
:102CA0000F93942F022F442319F449E657E01DC0D7
:102CB000453090F44091780150E0440F551F440F87
:102CC000551F41505040490F511D440F551F440F8F
:102CD000551F41575B4F09C0473250F450E0440F35
:102CE000551F440F551F4453594F24E00E9415644B
:102CF0000F91089586B380958E77E1F70E94DF6685
:102D00000895FF920F931F938C01F62E0E94D466B4
:102D100082E260E046E255E024E00E94476480E001
:102D200068E1A8010E9481648CE168E348E155E014
:102D30000E9481640E94A166FF2011F089E102C017
:102D4000809162010E9497668091460480934104BD
:102D50000E947A1686B380958E77C9F480914704D5
:102D6000833019F4A895109247048091650160E0C2
:102D700040E00E945C11882331F480917C0188231B
:102D800011F4FF2011F0C79AE5CFC798E3CF1F9148
:102D90000F91FF9008959C0180914004E82FEF5F10
:102DA000E0934004E53040F08093400481EF94E0EC
:102DB00060E00E948116089580914204809341044E
:102DC000F0E0EE0FFF1FEA5CFB4F318320838FEBB7
:102DD000F90109950895E0914004EE2319F4882340
:102DE00029F416C0882311F4E15001C0E0E0E0931B
:102DF00040048091420480934104F0E0EE0FFF1FF5
:102E0000EA5CFB4F0190F081E02D8EEB099508956F
:102E100084E095E060E00E94811608958091350479
:102E2000882351F08FE595E060E00E948116809143
:102E300035048E7F8093350408958091770187FD56
:102E400007C0887329F48AE895E060E00E94811643
:102E500008958091770182FD0AC00E94765F883CC8
:102E6000910528F487ED95E060E00E9481160895B1
:102E70001F93CF93DF9386B380958E7721E030E068
:102E8000682F70E0422FCB01022E02C095958795E6
:102E90000A94E2F780FD06C04F5F2F5F3F4F283056
:102EA000310581F7142F11501630A8F5812F0E949B
:102EB000165D882381F110936101812F0E94645E69
:102EC00081E00E945D5C0E94D46686E160E044E39C
:102ED00055E024E00E944764CFE8D1E01AE0812F5A
:102EE00068E1499124E00E945A63155F1837B9F7E9
:102EF0000E94A166809162010E949766809165019F
:102F0000882321F480917C01882311F0C79A01C0A5
:102F1000C7980E947A16DF91CF911F910895EF9282
:102F2000FF920F931F938C017B010E94D46682E273
:102F300060E041ED55E024E00E94476480E060E2FB
:102F4000A8010E94816480E068E2A7010E94816478
:102F500080E060E34BEB55E00E9481640E94A16633
:102F6000809162010E9497660E947A161F910F91CC
:102F7000FF90EF9008951F938091770181FD2EC0FF
:102F80008EE495E06CE375E00E948F171EE00BC0A5
:102F9000113141F0812F8D5060E040E00E945C11C2
:102FA000882329F41F5F163198F31631B9F086B3E0
:102FB00080958E7799F406C080917C01882359F022
:102FC000C79A0AC08091650160E040E00E945C11F0
:102FD0008823B1F7F1CFC7981EE0DCCF1F91089589
:102FE0000F931F93CF93DF938091770180FD51C0A2
:102FF0008091780190E081709070C2E0D0E0C81BB1
:10300000D90BFE01EE0FFF1FEC5CFE4F0181128118
:10301000005F1F4F87859089081B190B0E94750F51
:10302000EC2FF0E0E053FB4F8491C82FD0E0CC0FA1
:10303000DD1FCF58DB4F88819981081719074CF5A0
:1030400086B380958E7729F512C00E94750F88810E
:10305000998108171907ECF486B380958E77C9F427
:103060000DC080917C01882391F0C79AEECF89EA48
:1030700095E06AE975E00E948F17E7CF80916501BE
:1030800060E040E00E945C11882379F7EACFC7989E
:10309000DCCFDF91CF911F910F9108950F931F9374
:1030A000CF93DF9380917A0184FD8DC0809165017B
:1030B00060E040E00E945C11882329F480917C014B
:1030C000882309F473C0C79A0E94D46680E060E048
:1030D0004CE850E020E000E00E94FD6280E068E300
:1030E00045E851E02AE000E10E9415640E94A166D3
:1030F000809162010E9497660E947A1600E00E9409
:103100009C0E0F5F0032D9F720ED34E000E010E0B4
:10311000F9018491E82FF0E0EE0FFF1FEF58FB4F0D
:1031200080819181892F9927080F191F2F5F3F4FA9
:10313000F4E0243D3F0761F7F894C0916A0ED09106
:103140006B0E7894C057DE4F27C00E949C0E20ED76
:1031500034E040E050E0F9018491E82FF0E0EE0F18
:10316000FF1FEF58FB4F80819181892F9927480FCE
:10317000591F2F5F3F4FF4E0243D3F0761F786B3AF
:1031800080958E7701F540175107E9F411C08091C1
:103190007C018823B1F0C79AF89480916A0E9091CF
:1031A0006B0E7894C817D90781F60DC0C7988CCFDD
:1031B0008091650160E040E00E945C11882359F72E
:1031C000E6CFC798E9CFDF91CF911F910F91089576
:1031D0001F939FEF9ABB1BBA81E887BB8EE788BB22
:1031E0008EE384BB81EC85BB11BA92BB88E082B9C7
:1031F00087EF83B9109261001092620080E18093A2
:103200006400909365000E945C660E94AA6E80E450
:1032100087B985E886B987E083BF8CE981BF87B726
:10322000836087BF1FBC8AE08EBD10928B0082E84E
:1032300080938A0080917D00806280937D00EDB74D
:10324000FEB7329785E502C0808331974EE0E43BBC
:10325000F40709F0C8F7789483E39EE2909337046B
:103260008093360489E10E9497660E949F5E1091C8
:1032700061010E9438170E944E180E9429170E946F
:10328000750F0E94F0170E94BB170E941D170E9425
:103290000E170E947A160E94951E2DE088E190E09C
:1032A0000FB6F894A89581BD0FBE21BD8BEE94E0BA
:1032B00060E00E94A2218EE99EE30E94CB1681E08D
:1032C0000E94EB16809162010E94976680917C01BA
:1032D00090E024EF31E0AC01429FC001439F900D8C
:1032E000529F900D11249093500480934F0480912D
:1032F0006101181729F081E00E945D5C0E94065D63
:1033000080ED97E09BBD8ABD80E186BF87B7806175
:1033100087BF0E946F14FDCFBF92CF92DF92EF92D2
:10332000FF920F931F93CF93DF93D82EC62EEA01FF
:10333000122FB02E57FF10C022FD02C08FE001C037
:103340008CE19D2D981B892F6C2D4DE2212F0E9421
:103350005A63D095C195DF4F2B2D21238D2D6C2DD8
:103360004AE30E945A63812F90E024E0E22EF12C80
:10337000E822F92212FD02C020E001C022E0CE01C5
:103380006CE370E00E94FD6EAB011061822F8D0D29
:103390006C2D212F02E00E945365EF2811F421E1EA
:1033A00001C02CE1CE016CE370E00E94FD6EAC0127
:1033B00080E1B82A822F8D0D6C2D2B2D02E00E940A
:1033C0005365DF91CF911F910F91FF90EF90DF90A8
:1033D000CF90BF9008957F928F929F92AF92BF92AD
:1033E000CF92DF92EF92FF920F931F93782E962E3B
:1033F000822EF02EA42EBB24CC24DD24EE2071F1ED
:10340000E22FF0E0EE0FFF1FEE0FFF1FE45DFB4F1A
:103410001081212F30E040E050E0C601B5010E944C
:10342000CA6E143688F4660F771F881F991F23E32E
:1034300030E040E050E00E94106FC901DA015C0109
:103440006D0180E3F82A0AC02FEF30E040E050E041
:103450000E94106FC901DA015C016D01E82DF0E0F6
:10346000EE0FFF1FEE0FFF1FE15DFB4F8081829586
:1034700086958695837091F42F2D2062872D692D76
:10348000A50105E00E945365F7FC0EC080913F0E38
:10349000692D46E72F2D0E945A6306C0872D692D9E
:1034A000A5012F2D0E943C661F910F91FF90EF9078
:1034B000DF90CF90BF90AF909F908F907F900895B6
:1034C0000F931F93062F122F206250E00E943C663C
:1034D00017FD07C080913F0E602F46E7212F0E9405
:1034E0005A631F910F910895242F40914D040E941B
:1034F000601A089599E28902900111243595279563
:103500003595279587FD815C86FB880F880B80F9B0
:10351000992787FD9095281B390BC9010895E9EA81
:10352000F1E090E080818150803108F49F5F3A960D
:1035300082E0E93EF807B1F7892F08956F927F92F4
:103540008F929F92AF92BF92CF92DF92EF92FF92B3
:103550000F931F933B017C0100E010E08824992425
:1035600064E670E080E090E06619770988099909BF
:10357000A80197010E94CA6E5B016C0182E390E092
:10358000A0E0B0E0A80EB91ECA1EDB1EC801B7013C
:103590000E94CA6E0E94CA6EBC0188279927A401A6
:1035A00093010E94CA6E24E096958795779567955A
:1035B0002A95D1F7A60EB71EC81ED91EC601B501A1
:1035C00024E630E040E050E00E94106FC9011F91F6
:1035D0000F91FF90EF90DF90CF90BF90AF909F90B2
:1035E0008F907F906F900895FF920F931F939C018F
:1035F000AB016115710531F1FF2497FF05C0FF2470
:10360000F394309521953F4F57FF10C000E014E030
:1036100066277727641B750BC801821B930B0E94DA
:103620009E1A9801281B390BC90104C0C901BA01AF
:103630000E949E1AFF2011F49C0104C02227332708
:10364000281B390BC9011F910F91FF900895282F56
:10365000E5E2FDE080E09491921731F031969923F4
:1036600011F08F5FF8CF80E00895823410F080E28F
:103670000895E82FF0E0EB5DF24F849108951092E9
:103680003E06109237061092360610923B061092B4
:103690003A06109239061092380610923D061092A2
:1036A0003C060895AF92BF92CF92DF92EF92FF92C5
:1036B0000F931F93CF93DF935B016C0100E010E841
:1036C000C0E0D0E8EE24FF249E0140E050E0CA01B3
:1036D000B9010E94CA6EA616B706C806D90610F42C
:1036E000C027D127169507950894E11CF11C80E1AD
:1036F000E816F10461F4CE01DF91CF911F910F9193
:10370000FF90EF90DF90CF90BF90AF900895C02BC7
:10371000D12BDACF9C0140E0683008F041E070E046
:10372000442371F0CB010897FC0163E0EE0FFF1F0B
:103730006A95E1F7E80FF91FDF01A356BC4F0AC0F5
:10374000FB01EE0FFF1FEE0FFF1FE60FF71FDF015C
:10375000AB58BC4FFD01808120503C4F37FD0EC05F
:1037600068E02030360784F0442319F484E090E0C8
:1037700002C088E090E0A80FB91F8C91992787FDBF
:103780009095582F442733C0442331F0432FB9017B
:103790007070660F771F04C0432F4695B901717092
:1037A000842F90E0FD01E80FF91F8181992787FDA3
:1037B00090959B0135952795829FA001839F500D81
:1037C000929F500D11242081332727FD309580E0F2
:1037D00092E0861B970B95958795BC01269FC001AB
:1037E000279F900D369F900D1124480F591FCA0135
:1037F00069E170E00E94FD6ECB0108956F927F92A7
:103800008F929F92BF92CF92DF92EF92FF920F938F
:103810001F93CF93DF938091A50181FD04C0C12C3C
:1038200094E0D92E03C0C12C85E0D82EB0909F0122
:10383000BB0C88E0B80E9091A20184E69802A0012A
:103840001124485A5D4F66247724641A750A8091C2
:10385000A801992787FD909528EE33E0829FB0015B
:10386000839F700D929F700D112468537045641BE7
:10387000750BCBEED4E0E1ECF6E0AB2DB0E0AA0F97
:10388000BB1FAC0FBD1F882499248C189D0808E528
:1038900012E0041B150B1BC02881398176012C1501
:1038A0003D050CF47901C701E814F9040CF4C401D6
:1038B000805A964F9301281B390B620F731F518357
:1038C0004083800F911F9383828322963496CA1778
:1038D000DB0711F7EB2DEE0FAE2FB0E0AA0FBB1FE9
:1038E000AF53B94F4D935C93EF5FAE2FB0E0AA0F8B
:1038F000BB1FAF53B94F6D937C93EF5FF0E0EE0FBA
:10390000FF1FEF53F94F11821082DF91CF911F916A
:103910000F91FF90EF90DF90CF90BF909F908F908E
:103920007F906F900895A091C008B091C108FD01EB
:103930008193919313967C936E9312973296F093A2
:10394000C108E093C0080895882329F020E639E0F3
:1039500080E699E004C020EB34E080EB94E0A09195
:10396000C008B091C108FD018193919313963C93D7
:103970002E9312973296F093C108E093C0080895F1
:103980001F93182F82700E94A41C812F81700E94A7
:10399000A41C1F910895CF92DF92FF920F931F9363
:1039A000DF93CF9300D0CDB7DEB780919E018130F9
:1039B00019F0823019F404C010E003C011E001C016
:1039C00012E02091EB043091EC0420503C4F220F88
:1039D000331F8091ED049091EE0480509C4F880F2E
:1039E000991F892F232F37FD20E087FD80E0022FCC
:1039F00020310CF00FE0F82E2FE0281714F45FE0D0
:103A0000F52E2F2D332727FD3095802F992787FD01
:103A1000909509968217930714F40F2D0950C02E24
:103A2000DD24C7FCD094275F3F4F2C153D051CF4C7
:103A300047EFF42EF00E80E797E19093C206809353
:103A4000C10680EB94E09093C4068093C30685EC96
:103A500096E09093C1088093C00880E00E94C01C4B
:103A6000A091C008B091C10880E699E0FD01819362
:103A7000919320EB34E013963C932E931297DF0141
:103A800012969383828313963C932E9312971496E7
:103A9000B093C108A093C008812F0E94C01C11954B
:103AA000C60195958795959587958A830E94C01C38
:103AB0003A81131B802F0E94C01C101B8F2D992749
:103AC00087FD9095959587959595879589830E9413
:103AD000C01C8981181B8F2D0E94C01C812F8F193B
:103AE0000E94C01C80E00E94A41CE091C008F091DC
:103AF000C10880E69AEE92938293329611921192C7
:103B0000F093C108E093C0080F900F90CF91DF9120
:103B10001F910F91FF90DF90CF900895A091C00862
:103B2000B091C108882341F0FD0180E293E08193C8
:103B3000919380E496E007C0FD0180E496E08193D4
:103B4000919380E293E013969C938E931297329612
:103B5000F093C108E093C00808950F931F93082FB6
:103B600010E0802F81700E948E1D1F5F0695183017
:103B7000C1F71F910F910895482F18161CF010924D
:103B8000E5040895282F332727FD30958091E5041B
:103B9000281B3109862F90E08217930724F4461BD7
:103BA0004093E504089506972817390724F44A5FDF
:103BB000461B4093E50408950F931F9381EC96E014
:103BC0009093C1088093C0088091C20891E0892732
:103BD0008093C208882309F454C08091EB0490912B
:103BE000EC04885F9B4F34E0969587953A95E1F712
:103BF0008038910510F08FE790E0182F2091ED04A8
:103C00003091EE0437FD0FC0C901409625E096952E
:103C100087952A95E1F78034910510F08FE390E0C5
:103C2000082F00640FC080E190E0821B930B05E039
:103C3000969587950A95E1F78034910510F08FE30A
:103C400090E0082F812F0E94AD1D802F0E94AD1D96
:103C50000127802F90E09C0114E0359527951A9557
:103C6000E1F7B4E0880F991FBA95E1F7822B0E9423
:103C7000AD1DA091C008B091C108FD0180E197E29F
:103C800030C08091EF049091F00480509C4FA4E0EC
:103C900096958795AA95E1F78038910510F08FE702
:103CA00090E0082F0068802F0E94AD1D8EE80E94D2
:103CB000AD1D8EE8082710E0C801F4E095958795C2
:103CC000FA95E1F7E4E0000F111FEA95E1F7802B88
:103CD0000E94AD1DA091C008B091C108FD0180EB0C
:103CE00096E38193919380EA9FE013969C938E9341
:103CF00012973296F093C108E093C008E091C00893
:103D0000F091C10811921192F093C108E093C0089C
:103D1000E15CF640EC38F1052CF08FE198E060E0D2
:103D20000E9481161F910F91089580919E01843009
:103D300018F4813038F403C0843049F406C00E947E
:103D4000FE1B08950E94CB1C08950E94DC1D08955F
:103D5000FF920F931F93CF93DF93082F10919A0137
:103D6000812F992787FD909597FF03C090958195A6
:103D70009F4FF82E24E228170CF03FC02091D7085F
:103D80003091D8088091D5089091D608282B392BEE
:103D90008091D9089091DA08282B392B8091D4088A
:103DA00090E0282B392B8091D10890E0282B392BDB
:103DB000232B39F41092D10817FF03C081E08093C0
:103DC000D10811161CF4812F845202C0812F8C5D02
:103DD00060E040E00E945C11282F882361F0809110
:103DE000D108882341F490E08091D408882309F415
:103DF00091E09093D4082093D108C091D708D09136
:103E0000D8082196D093D808C093D708E091D50858
:103E1000F091D608E00FF11DF093D608E093D50895
:103E2000F89480916A0E90916B0E78942091D90845
:103E30003091DA08821B930B8436910508F441C156
:103E40002C593F4F3093DA082093D908CF01BE0197
:103E50000E94E96E062F862F90E0AC014C9FC001B6
:103E60004D9F900D5C9F900D1124E81BF90BF09372
:103E7000D608E093D5081092D8081092D7085FE0D2
:103E80005F151CF01092D40810C084E28F156CF0FE
:103E900011161CF4812F8F5002C0812F815F60E0CA
:103EA00040E00E945C118093D40880913406909188
:103EB0003506019690933506809334066091360658
:103EC000709137066F5F7F4F7093370660933606A9
:103ED000002349F080913A0690913B060196909319
:103EE0003B0680933A068091D408882349F080915C
:103EF00038069091390601969093390680933806DA
:103F0000069540913C0650913D06400F511D50933F
:103F10003D0640933C06E0919C01F0919D01F09399
:103F20004006E0933F0630919A01832F992787FD41
:103F3000909597FF03C0909581959F4F882319F422
:103F400010923E0622C0813021F4CF01861B970BD0
:103F500018C0803170F480FF07C0CA0144E0969514
:103F600087954A95E1F709C080913A0690913B0602
:103F700004C08091380690913906AF01481B590B57
:103F8000CA019093400680933F0680913E0681309F
:103F900041F0813018F08230F1F40EC03323D9F0B3
:103FA00017C080913F0690914006181619069CF0A4
:103FB000309789F082E00DC080913F0690914006D5
:103FC000855C9F4F1CF483E080933E06309719F484
:103FD00081E080933E0620913F063091400680911B
:103FE000D2089091D3088217930709F45CC080919E
:103FF0003E06813009F047C040917A0142FF2BC054
:10400000309749F12E31310511F482E003C024319B
:10401000310519F48093510406C02A30310519F096
:104020002430310524F4809144048093410443FFFB
:1040300012C02E31310549F02431310531F02A30DA
:10404000310519F02430310534F482E390E0909387
:10405000500480934F0441FF26C080919B0180FF54
:1040600004C0CF01821B930B01C0C9016CE370E057
:104070000E94E96E892BB9F4809144048093410435
:1040800043FF11C00AC0823071F4809145048093CF
:10409000410480917A0183FF06C082E390E090930F
:1040A000500480934F043093D3082093D20880911A
:1040B0009B0180FF06C0E21BF30BF0934006E093E8
:1040C0003F06DF91CF911F910F91FF90089580914E
:1040D0009A01992787FD909597FF03C09095819548
:1040E0009F4F82304CF180313CF5982F95958A3066
:1040F00034F4892F0E94F568E82FF0E004C0E92F1E
:10410000FF27E7FDF0953197EE0FFF1FE954FB4FB6
:104110002081318180919A0187FF05C080E094E081
:10412000821B930B03C0C90180509C4F76E096958B
:1041300087957A95E1F702C080E090E00E94A81E82
:1041400083E00E94F568E82FF0E0EE0FFF1FEB54CC
:10415000FB4F0190F081E02DE050FC4F56E0F695CA
:10416000E7955A95E1F780919B0182FF0AC0E530FF
:10417000F10538F080915404882319F483E080938A
:1041800054046091CD087091CE086F5F7F4F70939B
:10419000CE086093CD084091CB085091CC084E0FCB
:1041A0005F1F5093CC084093CB08F89480916A0E1F
:1041B00090916B0E78942091CF083091D008821B9B
:1041C000930B885E934098F1F89480916A0E9091D9
:1041D0006B0E78949093D0088093CF081092CC08FF
:1041E0001092CB081092CE081092CD088091BB0699
:1041F0009091BC0601969093BC068093BB062091DB
:10420000B9063091BA06F901EF5BF94FCA010E9475
:10421000E96E60832F5F3F4F3093BA062093B90653
:104220002837310520F01092BA061092B906089589
:104230000F931F93CF93DF9386E291E0EBE0F5E0DD
:10424000DF019C011D9221503040E1F79091310631
:10425000C9EAD1E000E010E051E060E04881442389
:1042600009F440E1041750F5202F712F352F2F5FEF
:10427000872F90E0FC01EE0FFF1FE80FF91FEE0FF4
:10428000FF1FDF01A55FBA4F11962C9311978C91F8
:1042900081608C93E35FFA4F30833F5F14966C9399
:1042A0007F5F241720F3802F8095042F952F9F5F29
:1042B000980F180F140F940F592F515078817723AE
:1042C000D1F1812F90E09C01220F331F280F391F5D
:1042D000D901AA0FBB1FA55FBA4F11964C93119736
:1042E00015966C9315978C9182608C9313965C93C2
:1042F00013975F5F8A85F9013196781741F4EE0FC5
:10430000FF1FE55FFA4F108214961C920AC0EE0F51
:10431000FF1FE55FFA4F50835F5F6F5F14966C93EA
:104320006150952F6F5F2A96603219F450933106D1
:1043300004C01F5F93CF90933106DF91CF911F91FF
:104340000F9108952F923F924F925F926F927F92BA
:104350008F929F92AF92BF92CF92DF92EF92FF9295
:104360000F931F93DF93CF93CDB7DEB76A970FB646
:10437000F894DEBF0FBECDBF998F888F6A8F809172
:104380004E04882309F486C08091E704882319F03D
:1043900081508093E70480917901863F09F47AC0C7
:1043A00080914D04823308F475C08091D9079091B3
:1043B000DA07A091DB07B091DC070196A11DB11DC2
:1043C0008093D9079093DA07A093DB07B093DC07BB
:1043D00020914D0730914E0780914F0790915007E3
:1043E000280F391F8091510790915207280F391FCC
:1043F0008091530790915407280F391F8091DD0752
:104400009091DE07A901481B590BCA0157FF03C051
:10441000909581959F4F8150914064F03093DE07D5
:104420002093DD071092D9071092DA071092DB076C
:104430001092DC07E090D907F090DA070091DB07D3
:104440001091DC0760917901772767FD7095665FB1
:104450007F4F882777FD8095982F20E737E140E050
:1044600050E00E94CA6E6E157F058007910790F498
:104470006FE370E080E090E0E622F7220823192342
:104480007AE0E716F1040105110521F48091450455
:10449000809341049090A701992009F468C080910D
:1044A000780190E0FC01E170F0703196EE0FFF1F93
:1044B000E954FB4F0190F081E02D9C012270307097
:1044C00081FD03C0A3E0B0E002C0A0E0B0E0AA0F0D
:1044D000BB1FA954BB4FCD90DC90232B19F4A3E054
:1044E000B0E002C0A0E0B0E07F010027F7FC00953B
:1044F000102FAA0FBB1FA954BB4F6D917C91882729
:1045000077FD8095982F9601442737FD4095542FCD
:104510000E94CA6E5B016C01C801B701A801970136
:104520000E94CA6EA60EB71EC81ED91E692D70E065
:1045300080E090E00AE0660F771F881F991F0A95B8
:10454000D1F724E630E040E050E00E94326FB9013C
:10455000CA010E94CA6E6A157B058C059D0538F458
:10456000C601B5010E94521B9A8B898B02C01A8A20
:10457000198AA989BA89BD0180E090E024E630E07B
:1045800040E050E00E94CA6E6C8B7D8B8E8B9F8BBF
:1045900015E3612E11E0712EB5E44B2EB3E05B2ED6
:1045A0001B8ACC24DD2488249924BA8D2B2E332415
:1045B000E1E02E2233241C2D8C2D0E948E0E9C01B6
:1045C000D3018D919C911197281B390B121613065C
:1045D0002CF45C96ED91FC915D9705C0D3011E967D
:1045E000ED91FC911F97E436F10514F4E4E6F0E058
:1045F000B901882777FD8095982FAAE0660F771F6D
:10460000881F991FAA95D1F79F01442737FD409530
:10461000542F0E94326F7901BCEF21303B0724F404
:10462000E12C5CEFF52E07C0E4E020303E071CF0E3
:10463000E12C44E0F42EF401E954FB4FF182E082D6
:10464000C7010F964F97F0F4F4E0CF16D1047CF435
:10465000812F8F5F0E94F56890E0019721E030E0A4
:1046600002C0220F331F8A95E2F7C90108C081E01A
:1046700090E00C2C02C0880F991F0A94E2F73B8946
:10468000382B3B8B143008F08AC1222009F05EC021
:1046900080919B0181FF5AC08601000F111F0259B2
:1046A0001E4FD80111968C911197807C09F44EC051
:1046B0008C9185958595859561E040E00E945C111F
:1046C000882309F443C0D801EC91E770F0E0EE0FC5
:1046D000FF1FDF01AA59BE4FE85AFB4F808191812D
:1046E0002D913C91821B930B62E070E00E94FD6E65
:1046F000F601EE0FFF1FE159FE4F4081842F880F16
:10470000880F85958595992787FD9095FC016E9F6B
:10471000C0016F9F900D7E9F900D11246FE170E09E
:104720000E94FD6ECB01880F991F880F991F42953B
:1047300046954695437050E04130510529F042308E
:10474000510521F47C0102C0E80EF91E29893A893D
:10475000232B79F180917801282F30E0C9018170F5
:1047600090700196C816D90651F021FD03C083E070
:1047700090E002C080E090E0C816D906D1F46091C4
:10478000A70170E080E090E01AE0660F771F881FB5
:10479000991F1A95D1F79701442737FD4095542F5B
:1047A0000E94CA6E2C893D894E895F890E94326FB2
:1047B0007901D2018C9160E040E00E945C11882375
:1047C00011F400E00BC0F201818160E040E00E9442
:1047D0005C11882311F002E001C001E080917801B2
:1047E00090E081709070B2E0AB2EB12CA81AB90A9B
:1047F000AC14BD0461F58091A001807F41F1C70137
:1048000080509C4F62E070E00E94FD6ECB01E02F73
:10481000F0E0EE0FFF1FEE0FFF1FA601440F551F24
:104820009A0163E0220F331F6A95E1F7241B350BD1
:10483000E20FF31FE75CFC4F6081772767FD7095FF
:104840000E94F41ADC01AA0FBB1F10E026C010E082
:104850001E141F040CF011E0802F90E09601220F2F
:10486000331FF901A3E0EE0FFF1FAA95E1F7E21B4A
:10487000F30B880F991F880F991FE80FF91FE15755
:10488000FE4FE10FF11DE655FE4F6081772767FD72
:104890007095C7010E94F41ADC01E02FF0E0EE0FE2
:1048A000FF1FEE0FFF1F9601220F331FC90143E0C8
:1048B000880F991F4A95E1F7821B930BE80FF91FA8
:1048C000E157FE4FE10FF11DE455FE4F6081772760
:1048D00067FD70956C597F4F882777FD8095982FDD
:1048E0009D01442737FD4095542F0E94CA6E24E64F
:1048F00030E040E050E00E94326F7901AC14BD041A
:10490000B9F59091A001892F807F09F408C720E0B4
:104910003CEFE20EF31E03C760E074E06E197F09FE
:10492000882777FD8095982FF501EE0FFF1FE05047
:10493000FF4F0190F081E02D2081332727FD309536
:10494000432F532F23583F4F4F4F5F4F0E94CA6E44
:1049500020E038E040E050E00E94326FC901DA0107
:10496000803038E0930730E0A30730E0B30761F40C
:10497000F401E050FF4F0190F081E02D8081282F5D
:10498000332727FD309501C09C01220F331FE1E042
:10499000F0E0EC0FFD1FE80DF91D31832083F401D9
:1049A000E35BF84FF182E0820894C11CD11C42E025
:1049B00050E0640E751E840E951E6EE070E0460E8B
:1049C000571E77E0C716D10409F0F5CD4091A40138
:1049D0008B894823242F30E08091DF0790E08227E5
:1049E000932782239323892B21F080914304809382
:1049F00041044093DF0780E094E090935C0780934C
:104A00005B0790935E0780935D0705E6402E07E005
:104A1000502EB20140E050E0FA01E85AFB4FDA01B3
:104A2000AC5CBE4F80819181D2962D913C91D39701
:104A3000821B930B880F991FDB018D939D93BD0102
:104A40004E5F5F4F4830510539F780916004909177
:104A50006104880F991F90936E0780936D07809172
:104A6000620490916304880F991F9093700780935C
:104A70006F078091640490916504880F991F90934B
:104A80007207809371078091660490916704880F84
:104A9000991F9093740780937307E9E9F7E0FA8709
:104AA000E987A5E7B7E0808191818D939D93349646
:104AB00027E0E93DF207B9F79090A701992009F4A2
:104AC000C1C08091780190E0FC01E170F0703196F6
:104AD000EE0FFF1FE35BF84F0190F081E02D9C018A
:104AE0002270307081FD03C0A3E0B0E002C0A0E0FE
:104AF000B0E0AA0FBB1FA35BB84FCD90DC90232B77
:104B000019F4A3E0B0E002C0A0E0B0E07F0100270C
:104B1000F7FC0095102FAA0FBB1FA35BB84F6D9138
:104B20007C91882777FD8095982F9601442737FD43
:104B30004095542F0E94CA6E5B016C01C801B701F9
:104B4000A80197010E94CA6EA60EB71EC81ED91EE4
:104B5000692D70E080E090E04AE0660F771F881FC3
:104B6000991F4A95D1F724E630E040E050E00E94DA
:104B7000326FB901CA010E94CA6E6A157B058C05A5
:104B80009D0508F05FC0C601B5010E94521BE09070
:104B90007801FF248701017010700F5F1F4F209173
:104BA000A701A22EBB24CC24DD243AE0AA0CBB1C16
:104BB000CC1CDD1C3A95D1F7A0E0B0E0BC01CD01E2
:104BC00024E630E040E050E00E94CA6E3B014C0118
:104BD000000F111F035B184FD8012D913C91442702
:104BE00037FD4095542FC601B5010E94CA6EA4013D
:104BF00093010E94326FF80131832083E1FC05C0EC
:104C0000E3E0F0E003E010E004C0E0E0F0E000E00A
:104C100010E0000F111F035B184FEE0FFF1FE35B47
:104C2000F84F20813181442737FD4095542FC6012C
:104C3000B5010E94CA6EA40193010E94326FD8018F
:104C40002D933C934091A501842F807E09F4EFC001
:104C50002091780130E0F901E170F0703196EE0FAB
:104C6000FF1FDE01AE0FBF1FE35BF84F1196CD9023
:104C7000DC90129780819181C80ED91EC901827083
:104C8000907021FD03C0E3E0F0E002C0E0E0F0E05E
:104C9000EE0FFF1FE35BF84F20813181892B19F460
:104CA000E3E0F0E002C0E0E0F0E0EE0FFF1FEC0F09
:104CB000FD1F01811281020F131FE091A601EE2357
:104CC00019F4EE24FF2407C0F0E0EE0FFF1FE55BB0
:104CD000F84FE080F18042FF04C0D094C194D10825
:104CE000D39443FF03C0109501951F4F44FF04C0A8
:104CF000F094E194F108F3948091A5018295869552
:104D0000877090E08230910589F18330910524F419
:104D1000019709F08CC008C08330910509F45BC08D
:104D2000049709F084C06FC0C80160E072E00E947F
:104D3000FD6EFB01C80168E070E00E94FD6E9B0102
:104D4000C80160E870E00E94FD6EA801421B530B91
:104D50009A01261B370B2E1B3F0BC7018C199D098F
:104D60009093600780935F07C60121C0C60160E091
:104D700072E00E94FD6EFB01C60168E070E00E94D7
:104D8000FD6E9B01C60160E870E00E94FD6EC601E9
:104D9000821B930B9C01261B370B2E1B3F0BC7015D
:104DA000801B910B9093600780935F07C80162E0BE
:104DB00070E00E94FD6E6E0D7F1DCB01820F931F70
:104DC0009093620780936107621B730B7093640773
:104DD000609363072CC0C7018C199D0990936007ED
:104DE00080935F07C7018C0D9D1D9C01200F311F13
:104DF0003093620720936107801B910B90936407A7
:104E00008093630714C0C7018C199D0990936007B4
:104E100080935F07C701800F911F90936207809373
:104E20006107E01AF10AF0926407E092630780914B
:104E30004E04882311F00E94672080E4E9E9F7E03E
:104E4000DF011D928A95E9F7BA8DB1FF28C0ADE464
:104E5000B7E0FE01319620E030E042E050E0809182
:104E6000780190E081709070BA01681B790B62172D
:104E7000730729F011961C921E92118210822F5FE7
:104E80003F4F129632962430310549F7D2011D92D8
:104E90001D922D01BDE64B16B7E05B06B9F781E721
:104EA00093E0909301018093000101969093030198
:104EB000809302010196909305018093040101966D
:104EC000909307018093060150EA252E58E0352E75
:104ED00040E2642E48E0742E30EE432E37E0532E2D
:104EE000188A1F868F850E94EA0D5C01FC01808173
:104EF0008150803108F0BEC2838161E040E00E94B1
:104F00005C11D1019C918823B9F4192F1C92F501F1
:104F10009181892F8850823008F09BC287818E70E2
:104F2000843009F496C2993019F0CC24DD244FC0A6
:104F3000C12C2CEFD22E4BC010E0992309F411E0C4
:104F400081E0D1018C93F5013181832F8150A82F0D
:104F5000B0E0FD01EE0FFF1FE35BF84FC080D18092
:104F6000843158F0FF858F1740F4AA0FBB1FAA0F9A
:104F7000BB1FA756B84FCD90DC90D50117962C914A
:104F8000822F807381F0822F8295837090E0019749
:104F9000E1E0F0E002C0EE0FFF1F8A95E2F7CF01DB
:104FA000F889F82BF88B26FF12C0353080F4E32FF8
:104FB000F0E0EE0FFF1FE250FF4F28E030E0A20EBE
:104FC000B31EB182A08248EF5FEFA40EB51ED501DB
:104FD00017968C91179786FD08C018968C91882398
:104FE00021F00E947A1AC80ED91EF5018681882305
:104FF00021F48581882309F443C1D3016D917D910A
:105000008D919C91112389F420E031E040E050E043
:105010000E94326F50954095309521953F4F4F4FEC
:105020005F4F4601820E931E5AC0F50187818E7034
:10503000843049F5E081F0E0EE0FFF1FED58F84FA6
:1050400060817181882777FD8095982F20E034E674
:1050500040E050E00E94CA6ED3016D937D938D9322
:105060009C931397F5012281222369F0332727FDB2
:105070003095432F532F0E94326FD3012D933D93D0
:105080004D935C931397F3016081718182819381C9
:1050900020E031E040E050E00E94326F50954095B2
:1050A000309521953F4F4F4F5F4F4601820E931E23
:1050B00081149104A1F0D50115968C9197FE8295EB
:1050C0008F7090E0FC0124E630E0E29FC001E39F96
:1050D000900DF29F900D1124D2018D939C93F201BB
:1050E000208131812115310551F080914E048823B2
:1050F00009F4BAC02150304031832083B5C08114F7
:10510000910409F4BDC0F5018681882309F4B8C073
:1051100080914E04882309F475C02281222329F44A
:1051200060E070E080E293E017C0332727FD309500
:1051300037FF03C0309521953F4F332727FD30952A
:10514000432F532F60E070E080E293E00E94326FC3
:10515000C901DA01BC01CD01D50116962C911814B4
:1051600019040CF52F70422F50E041155105D9F16B
:10517000E4E6F0E04E9F90014F9F300D5E9F300DB2
:105180001124442737FD4095542F0E94326F790136
:105190008A01F30180819181A281B381E80EF91E19
:1051A0000A1F1B1F29C022952F70422F50E0411566
:1051B0005105C9F0A4E6B0E04A9F90014B9F300D25
:1051C0005A9F300D1124442737FD4095542F0E94DB
:1051D000326FF301E080F18002811381E21AF30A59
:1051E000040B150B09C0C601AA2797FDA095BA2F7D
:1051F000EE24F82E092F1A2FD301ED92FD920D9374
:105200001C931397F30160817181828193817601F0
:105210000027F7FC0095102F1814190464F420E0FF
:1052200031E040E050E00E94326FE216F3060407DE
:10523000150764F019C020E031E040E050E00E9422
:10524000326F2E153F054007510774F4C601AA2797
:1052500097FDA095BA2FBA2FA92F982F8827F30171
:1052600080839183A283B383D3016D917D918D91CE
:105270009C9120E031E040E050E00E94326F6901F3
:10528000F5016481633071F1643028F4613051F0CC
:105290006230A8F448C0653081F1653050F1663065
:1052A000B1F52EC0D50111968C91893029F4D7FC27
:1052B0002AC0E0E0FEEF0DC0D7FE35C02EC0D501FC
:1052C00011968C91893051F41C141D044CF1E0E0CE
:1052D000F2E0CE0EDF1ECC0CDD1C25C01C141D041C
:1052E000E4F021C0D7FE1FC0D094C194D108D3945C
:1052F0001AC01C141D04A4F010C0D7FE0EC003C0B9
:105300001C141D046CF0C12C4CEFD42E0CC0675043
:10531000C6010E948A1B6C0106C0CC24DD2403C098
:10532000C12C34E0D32ED50117968C91179780FDB0
:1053300014C01196EC91EE2381F0E53070F4F0E0AA
:105340003197EE0FFF1F21E030E02C0F3D1FE20FE1
:10535000F31F80819181C80ED91EB601882777FD81
:105360008095982FD50112962C91332727FD3095E3
:10537000432F532F0E94CA6E6B017C01F501878178
:1053800086958770282F30E02130310591F080819B
:105390002230310509F049C0E82FF0E0EE0FFF1F81
:1053A000EE0FFF1FEB56F84FC082D182E282F382EC
:1053B00050C0D5012C91022F10E0000F111F000FDB
:1053C000111F0B56184FC701B60124E630E040E02C
:1053D00050E00E94326FCA01B901F8012081318189
:1053E000428153810E94CA6ED8016D937D938D9343
:1053F0009C931397F5016081062F10E0000F111F99
:10540000000F111F0B56184FD8016D917D918D9192
:105410009C9120E034E040E050E00E94326FF801BF
:10542000208331834283538314C0E82FF0E0EE0FD2
:10543000FF1FEE0FFF1FEB56F84F80819181A28175
:10544000B3818C0D9D1DAE1DBF1D80839183A283F2
:10545000B383FF85FF5FFF870894211C311C24E084
:1054600030E0620E731E42E050E0440E551EF032F2
:1054700009F038CDF89420916A0E30916B0E789433
:10548000488940FF06C0222321F480914304809381
:10549000410441FF0CC0C90190708034910519F09E
:1054A0008834910521F4809143048093410442FFA4
:1054B0000FC0C90190708038910531F0883891058E
:1054C00019F08039910521F48091430480934104BF
:1054D000E9EE2E2EE2E03E2E6CE074E07C876B87D6
:1054E0001E861D86A985BA858D909D90AD90BC9035
:1054F000C501B40124E630E040E050E00E94326F84
:10550000E985FA852083318342835383ED85FE85C7
:10551000EB53FB4FC90120839183D10113962D9149
:105520003C91149711968C91BAE08B0230011124B2
:10553000E8EEF3E06E0E7F1ED1018C91BAE08B0293
:1055400020011124E8E1FCEF4E0E5F1EC301562D31
:10555000492F261537051CF4C901522F492F852FD5
:10556000942F8C01041515050CF48201811491040B
:10557000A104B10469F19801442737FD4095542FE7
:10558000181419041A041B0454F4B301882777FD76
:105590008095982F621B730B840B950B0BC0C20177
:1055A000AA2797FDA095BA2F281B390B4A0B5B0B36
:1055B000CA01B901A50194010E94CA6E20EA36E829
:1055C00041E050E00E94326FC901DA014C015D01F7
:1055D000C80175E0959587957A95E1F7800F911F41
:1055E0009801232F330F330B2595820F931F000F44
:1055F000012F001F110B801B910B6C01EE24D7FCB7
:10560000E094FE2CC30145E0959587954A95E1F716
:10561000860D971DA20135E0559547953A95E1F71E
:10562000B201660F672F661F770B440D551D93015E
:10563000232F330F330B2595820F931F660C672C96
:10564000661C7708861997098C01222717FD20957B
:10565000322FC80CD91CEA1CFB1C0C151D052E058D
:105660003F0514F468017901461B570B7595679542
:1056700075956795460F571FCA01AA2797FDA095F4
:10568000BA2F87017601E816F9060A071B0714F4FA
:105690007C018D01D10112968C91882341F01095E7
:1056A0000095F094E094E11CF11C011D111DEB85A7
:1056B000FC858081882389F060E040E00E945C11D5
:1056C000882359F0AB85BC8511968C910E947A1A7B
:1056D0007C010027F7FC0095102FF894E88DF98DD8
:1056E0002D853E85E20FF31FF182E0827894498593
:1056F0005A854C5F5F4F5A8749872E5F3F4F3E87E1
:105700002D8765E070E0260E371E8B859C850296FE
:105710009C878B87495D574009F0E4CE04C09F7099
:1057200009F0FAC825C96A960FB6F894DEBF0FBE15
:10573000CDBFCF91DF911F910F91FF90EF90DF9040
:10574000CF90BF90AF909F908F907F906F905F9021
:105750004F903F902F9008950E948F1A803210F43E
:1057600080E008958BEF92E30E94CB1681E00895CC
:10577000EF92FF920F931F93DF93CF93CDB7DEB7D6
:10578000C054D0400FB6F894DEBF0FBECDBF7E012F
:105790000894E11CF11CC70163E00E94A2218E0164
:1057A0000F5D1F4FC80161E00E94A221EBEEF2E005
:1057B000B7017801018112818081DB014D915C91FB
:1057C000D7012D913C91882321F0CA01821B930BB4
:1057D00003C0C901841B950B800F911FB3E0883E65
:1057E0009B071CF088EE93E006C02CEF89319207EE
:1057F00014F488E19CEF9283818335966E5F7F4F2E
:1058000082E090E0E80EF91E93E0EB33F90791F6A1
:105810008091780190E08170907022E030E0281B48
:10582000390B16AA2130310511F010927203223083
:10583000310511F0109273031092740386E00E94F8
:105840005D5C8091430480934104C05CDF4F0FB6E0
:10585000F894DEBF0FBECDBFCF91DF911F910F91A6
:10586000FF90EF9008950F93982F83E0489FA00139
:10587000112442525F4E00E0211101E0892F23E004
:105880000E9415640F9108950F93982F83E0489F0D
:10589000A00111244B515F4E00E0211101E0892F3E
:1058A00023E00E9415640F910895DF92EF92FF921A
:1058B0000F931F93CF93DF938FE161E247E10E9443
:1058C000FD648FE167E347E10E94F96485E361E2EB
:1058D00047E10E94FD648FE161E247E10E94F964C3
:1058E0008BE461E247E10E94FD648BE467E347E1FA
:1058F0000E94F96481E661E247E10E94FD648BE465
:1059000061E247E10E94F9648AE26BE243E00E94AF
:10591000FD6489E26CE243E00E94F96486E56BE293
:1059200043E00E94FD6485E56CE243E00E94F96477
:105930008091B7049091B804880F991F9C0143E0AF
:10594000220F331F4A95E1F7820F931F60E078E042
:105950000E94FD6ED62E8091B9049091BA04880FF2
:10596000991F9C0103E0220F331F0A95E1F7820F74
:10597000931F60E078E00E94FD6E8B011095019509
:105980001F4F18E2F12EFD0CBAE2EB2EE00E8F2D28
:105990006E2D45E00E94FD64025D8F2D602F45E075
:1059A0000E94F9648D2D845D6E2D45E00E94FD649A
:1059B0008F2D6E2D45E00E94F9648091BD04909179
:1059C000BE04880F991F9C01F3E0220F331FFA9544
:1059D000E1F7820F931F60E078E00E94FD6ED62E03
:1059E0008091BB049091BC04880F991F9C0173E0C7
:1059F000220F331F7A95E1F7820F931F60E078E062
:105A00000E94FD6E8B01109501951F4F64E5F62EE7
:105A1000FD0C5AE2E52EE00E8F2D6E2D45E00E9422
:105A2000FD64025D8F2D602F45E00E94F9648D2D8D
:105A3000885A6E2D45E00E94FD648F2D6E2D45E045
:105A40000E94F964CFEBD4E04AE3F42E38E3E32E6E
:105A500069917991882777FD8095982F26E130E02C
:105A600040E050E00E94CA6E6050784A8F4F9F4FCE
:105A700020E038E040E050E00E94326F122F1F5FBC
:105A80000E2D011B8F2D602F412F0E94FD648F2D45
:105A90008F5F602F412F0E94FD648F2D8E5F602FDE
:105AA000412F0E94FD6485E0F80E89E4F81681F626
:105AB000DF91CF911F910F91FF90EF90DF900895AC
:105AC000FF920F931F93F82E162F042F80E860E0AB
:105AD000412F50E0202F0E943C661A3010F485E7D9
