:100000000C947D0F0C94A50F0C94A50F0C94A50FC8
:100010000C94A50F0C94A50F0C94A50F0C94A50F90
:100020000C94A50F0C94A50F0C9467140C943D67C9
:100030000C94F5690C946A670C94A50F0C94C61483
:100040000C9455140C94A50F0C94756D0C94A50F7D
:100050000C94A50F0C94A50F0C94A50F0C94A50F50
:100060000C946D6A0C940B150C94CF670C94AE6ACB
:100070000C94A50F0C94A50F0C94A50F0C94A50F30
:100080000C94A50F0C94A50F0C94A50F851689163A
:100090004C1652165816581658167D168116851687
:1000A0008916961696168D16511E511E511E511EFA
:1000B0007F1E761E761E761E761E761E761E761E97
:1000C000621E671E671E582DB22D6C2E822FE632DF
:1000D0001A2F06322132F4300E302A308830BD3FDC
:1000E0007D3F883F973F9D3FA13FA63F18492C4940
:1000F00039494F495849614971498D49AA498C4B41
:10010000A24BB04BC54BD34BE24BF44B1A4C434C78
:10011000514C904CB64CD44CE24CF04CFE4C0C4D37
:100120000E63FC62F662FF6203630763F9620B63AE
:100130001063DB6BDD6BE06BE56BF86B096C196CC6
:10014000246C366C486C4D6C666C696C6D6C6F6CB5
:10015000716C766C7A6C866C8A6C926C996C9D6C06
:100160009F6CA36CA56CA76CA96CAD6CB16CB66CE4
:10017000BB6CC06CC56CCA6C204F6C642056657239
:1001800073696F6E20454550524F4D2020204348E3
:1001900045434B2053455454494E47532F43414CFC
:1001A000494200416C61726D732044697361626CF5
:1001B000656400537769746368205761726E696E75
:1001C0006700506C656173652052657365742053D8
:1001D00077697463686573005468726F74746C65D2
:1001E000206E6F742069646C6500526573657420BD
:1001F0007468726F74746C6500454550524F4D20A1
:100200006C6F77206D656D004C4F4144494E47003F
:100210006D537461636B206F666C6F77006D537400
:1002200061636B2075666C6F77004D455353414792
:100230004500707265737320616E79204B6579009B
:10024000507265737320616E79206B657920746FCD
:1002500020736B697000032D2D2D783E30783C3073
:100260007C787C663E30663C307C667C6331206303
:1002700032206333206334206335206336206337B4
:100280002063382063392063313063313163313288
:1002900063313363313463313563313600034F46A4
:1002A00046414253525573525525454C73454C2592
:1002B000544873544825414C73414C2550312050CB
:1002C0003125503220503225503320503325002D17
:1002D0002D2D004348002D2D2D20000450312020CD
:1002E000503220205033202048414C4646554C4C3B
:1002F00043594331435943324359433350504D31AD
:1003000050504D3250504D3350504D3450504D356B
:1003100050504D3650504D3750504D384348312095
:100320004348322043483320434834204348352053
:100330004348362043483720434838204348392033
:1003400043483130434831314348313243483133F7
:1003500043483134434831354348313633504F53A5
:1003600047563120475632204756332047563420CF
:10037000475635204756362047563720544849536C
:10038000002D2D2D2D000000642810070301000012
:10039000000001010102020202010103045255445E
:1003A00020454C45205448522041494C20002041D2
:1003B0004C455254000001020300020103030102F4
:1003C00000030201004F4E20004F464600035448F0
:1003D00052525544454C45494430494431494432D0
:1003E00041494C47454154524E535731535732536C
:1003F000573353573453573553573653573753574B
:1004000038535739535741535742535743001B1ED4
:10041000272D36394B4E636C7278878D939CB1B41F
:10042000C6C9D2D8E1E453706C61736800804000A3
:1004300000000000000000000000000000000000BC
:1004400000000000000000000000000000000000AC
:10045000000000000000000000000000000000009C
:10046000000000000000000000000000000000008C
:100470000000000000000000000080C0E0E0F0F894
:10048000F8FCFCFCF8F8F8F0400000000000808068
:1004900080000000000000000000000000000000DC
:1004A0000000000080C0C0E0E0E0F0F0F0E0C0003C
:1004B00000000000C0F8FFFF9F878383838383834E
:1004C00083838383838383838383838383838383FC
:1004D000038380838383838383838383838383836F
:1004E00083838383838383838383C3E3733F1F0077
:1004F00000000080E0F0F8FCFEFFFFFFFF7F3F1FE1
:100500001F0F0783C3E1E1E0E0C0000E1F3F7F7FC4
:10051000FFF3E0E080000000000000000000008029
:10052000F0FCFEFFFFFFFF7F3F0F03010101000012
:100530000080F0FEFFFFC7C1C1C1C1C1C1C1C1C1BF
:10054000C1C1C1C1C1C1C1C1C1C1C1C1C101C1F02C
:10055000FEFF3F0F070F0D0D0D1D19191919313130
:10056000313171616161E1C1C1C18100000080E090
:10057000F8FCFFFFFFFF2F170F038180C0E0F0F8AA
:10058000FCFEFFFFFFFFFFFF7F01000000000000F7
:100590000001010307070E1E1C3870E0F0F8FEFF93
:1005A000FF7F1F0F0300010000000000000000009B
:1005B000000000000000000000000000000000003B
:1005C000000000000000000000000000000000002B
:1005D000000000000000000000000000000000001B
:1005E000000000000000000000000000007EFFFF8F
:1005F000FFFFFFFFFBF8FCFCFEFF7F3F1F0F07C361
:10060000FFFFFFFFFFFF7F0700000000000000006A
:10061000000000000000C0E0F8FEFFFF7F1F0F1F7A
:100620003D7CF8F8F0E080000000000000000000D1
:1006300000000000000000000000000000000000BA
:1006400000000000000000000000000000000000AA
:10065000000000000000000000000000000000009A
:100660000000000000000000000000000000000189
:1006700001010101030707070301000000E0FCFF7F
:10068000FFFFFFFF1F03000000000000000000004C
:1006900000C0F078DE2713090E07030000000000F9
:1006A00000000001030F7FFFFC7878F800000000D5
:1006B00000000000000000808080808080808080BA
:1006C00000808000808000000000000000808080AA
:1006D000808080808080808080808080808080009A
:1006E000000000000000000000000000000000000A
:1006F0000000000000000000000080F0FEFFFFFF8F
:10070000FF3F0F010000000000000000C0E0381EA5
:100710000F030001000000000000000000000000C6
:1007200000000000000000000000030301000000C2
:10073000000000000000000E0E020202020203038D
:10074000000F0F000F0F080808080808080F0F080F
:10075000080808080F0F000000000F0F000000003D
:100760000000000000000000000000000000000089
:100770000000000000000000C0F8BFFFFFFF1F7F67
:10078000010000000000000000F0FCFF7F78300056
:100790000000000000000000000000000000000059
:1007A0000000000000000000000000000000000049
:1007B0000000000000000000000000000000000039
:1007C0000000000000000000000000000000000029
:1007D0000000000000000000000000000000000019
:1007E0000000000000000000000000000000000009
:1007F000000000000000301C070E0F070100000081
:1008000000000000000000000000000000000000E8
:1008100000000000000000000000000000000000D8
:1008200000000000000000000000000000000000C8
:10083000204D4F443A204A45544920202020200092
:100840002053564E3A20657239782D723831330074
:1008500054494D453A2031333A32353A3438004420
:100860004154453A2031342E30382E323031340064
:10087000564552533A2056312E3237312D4D696B41
:100880006500034D4F564520535449434B532F5059
:100890004F54530005534554204D4944504F494E41
:1008A0005400035B4D454E555D20544F2053544139
:1008B00052540042616E644761700043616C004DA8
:1008C000756C7469706C6965720003636831636884
:1008D0003263683363683400036F6666202B3D2003
:1008E0003A3D00036D6F64650A2520737263202012
:1008F00073770007536C6176650012424700414EE2
:1009000041005472696D2D202B0005204D656E75D8
:10091000204578697420446F776E202020557052EE
:1009200069676874204C656674004449414700411A
:100930006C61726D205761726E696E67004D656DF6
:100940006F7279205761726E696E67005468726FBA
:1009500074746C65205761726E696E6700496E61D0
:100960006374697669747920616C61726D136D00CE
:1009700042617474657279207761726E696E670086
:10098000205245544100014368616E6E656C204FF2
:100990007264657200456E61626C652050504D5303
:1009A000494D005468726F74746C65207265766589
:1009B0007273650043726F73735472696D004D6991
:1009C0006E75746520626565700020486170746999
:1009D0006320537472656E6774680020537065619C
:1009E0006B6572205069746368000A4265657065C2
:1009F0007220202020506953706B722020202042EA
:100A000065657072566F696365506953706B566F98
:100A10006963654D656761536F756E642000536F40
:100A2000756E64204D6F64650006517569657420AC
:100A30004E6F4B6579207853686F727453686F728C
:100A400074204E6F726D20204C6F6E672020784CA2
:100A50006F6E67200042656570657200566F6C7539
:100A60006D6500466C617368206F6E20626565700D
:100A7000004C69676874206F6E2053746B204D764C
:100A8000004C69676874206F6666206166746572E1
:100A9000004261636B6C6967687420696E76657289
:100AA00074004C69676874207377697463680043E5
:100AB0006F6E74726173740044696167416E6100A6
:100AC0004469616753777463680053455454494ED1
:100AD00047530022047C5E54546D000345787045F2
:100AE0007846466E654D65644372730011544F54E9
:100AF000000153544B115354250001544D451154DA
:100B000053570053544154004A45544900035B4D28
:100B1000454E555D20746F2072656672657368007E
:100B2000746D61696E0F6D7300746D7231204A6966
:100B3000747465720F757300746D72314C6174203A
:100B40006D696E0F757300746D72314C6174206D38
:100B500061780F7573005354415432004D6F6465D2
:100B600000537469636B5363726F6C6C00506F74E5
:100B70005363726F6C6C0044656661756C742053CE
:100B8000770053706C617368204E616D650053701F
:100B90006C6173682073637265656E004265657091
:100BA00020636F756E74646F776E00090047656E21
:100BB0006572616C000966726565004D4F44454C75
:100BC00053454C00434F4C20446972656374696F10
:100BD0006E0041494C20446972656374696F6E0010
:100BE000454C4520446972656374696F6E005377A4
:100BF0006173682052696E6700436F6C6C65637443
:100C000069766500062D2D2D2020203132302020E0
:100C1000203132305820203134302020203930200B
:100C2000202020005377617368205479706500009C
:100C300048454C49205345545550000152455441B4
:100C40000020464D30004D4F4445530020464D0096
:100C500046616465204F7574004661646520496E85
:100C6000005472696D730053776974636800000300
:100C700000464C204D4F444500015245544100036D
:100C80002D2D2D50312050322050332047563447DF
:100C9000563547563647563700566F6C756D65208A
:100CA000436F6E74726F6C004175746F204C696D88
:100CB00069747300543254685472696700547261E5
:100CC000696E657200452E204C696D69747300036E
:100CD000504F534E45470053686966742053656C06
:100CE0000050504D20317374204368616E00034101
:100CF0006D654A61704575720020436F756E747240
:100D00007900034431364438204C52500020547945
:100D1000706500094C50342F4C5035202044534D01
:100D2000326F6E6C792044534D322F44534D58002E
:100D300044534D20547970650042696E64202052FE
:100D4000616E67650050504D2046724C656E0D6DAA
:100D5000536563000B52784E756D00043443482090
:100D600036434820384348203130434831324348E5
:100D700031344348313643480013755300117553DD
:100D80006563000650504D202020505858202020E8
:100D900044534D32202050504D31362050504D5349
:100DA000494D0050726F746F0052455441313233D7
:100DB000004265657020436E740046617374204D77
:100DC00069782044656C6179005472696D205377AD
:100DD0000006457870202020457846696E65466992
:100DE0006E6520204D656469756D436F6172736532
:100DF000005472696D20496E6300542D4578706F00
:100E000000542D5472696D000A436F756E7420444E
:100E10006F776E436F756E7420557020200054728A
:100E20006967676572420054726967676572005648
:100E30006F69636520496E646578114D454E5500B4
:100E4000000900010000000000000000060201008F
:100E500053455455500052414E4745204348454361
:100E60004B20525353493A000642494E44494E479B
:100E7000004475706C69636174696E67206D6F649E
:100E8000656C0044454C455445204D4F44454C004D
:100E90004455504C4943415445204D4F44454C0026
:100EA00044725377320044725377310002576569B8
:100EB00067687400024578706F00044452204869E6
:100EC00000044452204C6F7700044452204D696462
:100ED00000004558504F2F445200012B2A52004D1C
:100EE0004958455200032020202020202020004483
:100EF000454C455445204D49583F00035B4D454EF8
:100F0000555D0B5B455849545D00035945530B4EE5
:100F10004F005072657373205B455849545D2074CF
:100F20006F2061626F7274004D6178206D69786521
:100F300072732072656163683A203332000349445A
:100F400078544852525544454C4541494C474541D7
:100F500054524E0033504F532053776974636800E6
:100F600002536C6F77202055700002536C6F77200E
:100F700020446F776E000244656C617920557000E3
:100F80000244656C617920446F776E0008416464A7
:100F900020202020204D756C7469706C795265702A
:100FA0006C6163652000024D756C747078000257A7
:100FB00061726E696E6700024D4F444553000253E3
:100FC0007769746368004375727665000D446966DD
:100FD0006600025472696D0002466C4D6F64657460
:100FE00072696D0002466978204F66667365740009
:100FF0004F666673657400466D5472696D56616C18
:1010000000025765696768740002536F7572636503
:101010000045444954204D4958200000000000007C
:10102000000000000400032D2D2D783E30783C3068
:101030007C787C663E30663C307C667C6331206325
:1010400032206333206334206335206336206337D6
:1010500020633820633920633130633131633132AA
:10106000633133633134633135633136000D4F6E94
:1010700000072D2D2D2D202020763E6F6673202019
:10108000763C6F667320207C767C3E6F66737C7640
:101090007C3C6F6673414E44202020204F5220201C
:1010A000202020584F522020202076313D3D76329E
:1010B000207631213D76322076313E763220207600
:1010C000313C763220204C617463682020462D46E6
:1010D0006C6F702054696D654F6666000003435560
:1010E00053544F4D20535749544348455300064FDE
:1010F0004E202020204F4646202020424F5448209A
:101100002031355365637333305365637336305321
:1011100065637356617269626C005653000720382C
:101120002053656373313220536563733136205326
:10113000656373000153415658004E756D626572C8
:1011400020566F69636520537700000002534146C3
:1011500045545920535749544348455300434C453F
:101160004152204D49584553205B4D454E555D0039
:1011700054454D504C41544553005343092B0D2ABF
:10118000122F00032D2D2D52746D45746D54746D06
:1011900041746D52454E525544454C455448524158
:1011A000494C50312050322050332063312063327B
:1011B0002063332063342063352063362063372077
:1011C00063382063392063313063313163313263F6
:1011D00031336331346331356331360047560000B3
:1011E00001474C4F42414C2056415253000546693D
:1011F0007273744C61737420004F6666736574205B
:10120000417400446563696D616C73005369676E76
:1012100000556E69740044697669736F72004D758C
:101220006C7469706C696572004F666673657400F2
:10123000536F7572636500534300000300434F50C2
:1012400059205452494D205B4D454E555D000003D9
:101250004C494D495453004356004355525645534B
:101260000050524553455400004355525645000323
:101270002D2D2D494E56004E616D650047560000DC
:10128000010203417564696F4861707469630043CA
:10129000414C4942524154494F4E00436F6E747263
:1012A0006F6C7300416C61726D730048617264779A
:1012B0006172650047656E6572616C0056455253F8
:1012C000494F4E00545241494E4552004469737093
:1012D0006C6179005B4D454E555D205748454E2069
:1012E000444F4E450053454C45435400434F5059DD
:1012F000004D4F56450044454C4554450045444932
:101300005400494E5345525400434F5059004D4FDD
:1013100056450044454C455445003F4DF125272C8A
:101320001F38BB465C53BE45D649ED542D463C2480
:1013300012081200081C0808081C080000082200F7
:10134000490022080000000000227F22000000085F
:10135000220049002208000008220049002208005B
:101360000000227F22000000000008220049002225
:10137000080000081C0808081C080005466565747C
:1013800020566F6C74734465675F434465675F46BE
:101390006D41682020416D7073204D6574726557F2
:1013A0006174747300465643466D416D5718242F7F
:1013B0002F0033383B065761726E31205761726ED1
:1013C000322043686561702052696E672020536344
:1013D00069466920526F626F742043686972702099
:1013E000546164612020437269636B745369726550
:1013F0006E20416C6D436C6B526174617461546911
:10140000636B20204861707463314861707463328B
:101410004861707463330054696D657200545245BD
:101420003031324147002041424344454647484914
:101430004A4B4C4D4E4F5051525354555657585994
:101440005A6162636465666768696A6B6C6D6E6F2A
:10145000707172737475767778797A30313233348B
:1014600035363738395F2D2E00FEFFFDF6F7F8F9D7
:10147000FAFBFC042D2D2D2D54494D3154494D328C
:10148000424154544776723147767232477672330E
:1014900047767234477672354776723647767237BA
:1014A00000537769746368205761726E696E6700D4
:1014B00067656E7772697465206572726F72004538
:1014C0004550524F4D20466F726D617474696E675E
:1014D0000042616420454570726F6D204461746103
:1014E00000434845434B204D49582F445220534F09
:1014F0005552434553004D4F44454C202020202059
:10150000004D45202020202020202000454550521D
:101510004F4D206F766572666C6F7700E2AEA1A6C4
:10152000A4A2C02F25AF00000000000000000000B2
:1015300000000000000000000000000000000000AB
:10154000000000000000333B1F0F00000000C0C07F
:10155000C0C0C0C0C0C0C0C000000000000000008B
:101560000000000000000000000000000000183C27
:101570003C180000000000000080C0E070381C0C27
:101580000C0E07030100000000000000FCFE87C3F2
:10159000E377FEFC00000F1F3B3130381F0F0000C7
:1015A0000C0EFFFF00000000000030303F3F3030E5
:1015B000000000000C0E0783C3E77E3C00003C3EA9
:1015C00037333130303000000303C3C3C3E7FE3C80
:1015D00000003030303030391F0F0000C0E070386C
:1015E0001C0EFFFF00000303030303033F3F000043
:1015F0003F3F33333373E3C300000C1C38303038C3
:101600001F0F0000FCFEC7C3C3C78E0C00000F1FD6
:10161000383030391F0F00000303C3E3733B1F0F43
:10162000000000003F3F0000000000003CFEE7C358
:10163000C3E7FE3C00000F1F393030391F0F000098
:101640003C7EE7C3C3E7FEFC0000000030381C0E00
:1016500007030000183C3C18000000000000060FC3
:101660000F0600000000F0F8DCCEC7C7CEDCF8F0B3
:101670003F3F0000000000003F3FFFFFC3C3C3C364
:10168000C3E7FE3C3F3F3030303030391F0FFCFEA7
:101690000703030303070E0C0F1F383030303038B8
:1016A0001C0CFFFF030303070E1CF8F03F3F303014
:1016B00030381C0E0703FFFFC3C3C3C3C3C30303F8
:1016C0003F3F3030303030303030FFFFC3C3C3C312
:1016D000C3C303033F3F0000000000000000FCFE06
:1016E0000703C3C3C3C7CECC0F1F383030303030F0
:1016F0003F3FFFFFC0C0C0C0C0C0FFFF3F3F000072
:10170000000000003F3F00000303FFFF0303000051
:10171000000030303F3F3030000000000000030385
:10172000FFFF03030C1C383030381F0F0000FFFF91
:10173000C0E0F0381C0E07033F3F000103070E1CFA
:101740003830FFFF00000000000000003F3F303055
:10175000303030303030FFFF0E1CF8F81C0EFFFF29
:101760003F3F0000000000003F3FFFFF3870E0C037
:101770008000FFFF3F3F0000000103033F3FFCFEEE
:10178000070303030307FEFC0F1F383030303038E7
:101790001F0FFFFFC3C3C3C3C3E77E3C3F3F00002F
:1017A000000000000000FCFE070303030307FEFC2B
:1017B0000F1F383033371E1C3F33FFFFC3C3C3C373
:1017C000C3E77E3C3F3F000003070E1C38303C7EE1
:1017D000E7C3C3C3C3C78E0C0C1C3830303030395C
:1017E0001F0F03030303FFFF0303030300000000B5
:1017F0003F3F00000000FFFF000000000000FFFF6F
:101800000F1F3830303030381F0FFFFF000000004E
:101810000000FFFF03070E1C38381C0E0703FFFFF4
:10182000000000000000FFFF0F1F38381F1F38386E
:101830001F0F0F1F38F0E0E0F0381F0F3C3E07038A
:10184000010103073E3C3F7FE0C08080C0E07F3F56
:10185000000000013F3F0100000003030383C3E3D6
:10186000733B1F0F3C3E3733313030303030000097
:1018700000000000000000003030303030303030E8
:1018800030300000303030303070E0C00C1E3F335C
:10189000333333333F3FFFFFC0E070303070E0C080
:1018A0003F3F3030303030381F0FC0E070303030C4
:1018B000303000000F1F3830303030381C0CC0E0A2
:1018C00070303070E0C0FFFF0F1F383030303030E4
:1018D0003F3FC0E0703030303070E0C00F1F3B330E
:1018E000333333330303C0C0FCFEC7C303070E0CFE
:1018F00000003F3F000000000000F0F89C0C0C0CC2
:101900000C0CFCFC000133333333333B1F0FFFFF60
:10191000C0E070303070E0C03F3F000000000000C9
:101920003F3F00003030F3F3000000000000303093
:101930003F3F30300000000000003030F3F3000083
:101940000C1C383030381F0F0000FFFF0080C0E053
:10195000703000003F3F03070F1C383000000000CC
:101960000303FFFF00000000000030303F3F303035
:101970000000F0F03070E0E07070E0C03F3F000029
:10198000030300003F3FF0F0C0E070303070E0C073
:101990003F3F0000000000003F3FC0E070303030AB
:1019A0003070E0C00F1F3830303030381F0FF0F08B
:1019B0003030303030F0E0C03F3F03030303030317
:1019C0000100C0E0F0303030E0C0F0F0000103036F
:1019D000030303033F3FF0F0C0E070303070E0C01D
:1019E0003F3F0000000000000000C0E0F030303059
:1019F00030300000303133333333333F1E0C30305E
:101A0000FFFF30300000000000000F1F383030387A
:101A10001C0CF0F0000000000000F0F00F1F383048
:101A200030381C0C3F3FF0F0000000000000F0F0E8
:101A300003070E1C38381C0E0703F0F000000000EE
:101A40000000F0F00F1F38381C1C38381F0F3070A2
:101A5000E0C08080C0E0703030381C0F07070F1CDA
:101A60003830F0F0800000000000F0F00001333367
:101A70003333333B1F0F3030303030B0F0F0703044
:101A800030383C3E37333130303000000000000049
:101A900000006F000007000700147F147F14242A41
:101AA0007F2A122313086462364955225000050329
:101AB0000000001C2241000041221C0014083E08C6
:101AC0001408083E080800503000000808080808FC
:101AD00000606000002010080402003E49453E00FE
:101AE00000427F4000625149460041494936001892
:101AF00014127F0027454539003E494932000179DB
:101B000005030036494936000649291E00003636CD
:101B10000000005636000008142241141414141456
:101B20004122140800020151090600060909067E37
:101B30000909097E7F494949363E414141227F4199
:101B400041221C7F494949417F090909013E414918
:101B5000497A7F0808087F00417F41002040413FCB
:101B6000017F081422417F404040407F020C027FE9
:101B70007F0408107F3E4141413E7F090909063E2E
:101B80004151215E7F0919294626494949320101FF
:101B90007F01013F4040403F1F2040201F3F403019
:101BA000403F6314081463070870080761514945F2
:101BB00043007F41410002040810200041417F00A2
:101BC00004020102044040404040000102040020A1
:101BD000545454787F48444438384444442038446A
:101BE00044487F3854545418087E0901020C52525C
:101BF000523E7F0804047800447D40002040443D6C
:101C0000007F1028440000417F40007C04180478C5
:101C10007C0804047838444444387C1414140808BC
:101C20001414187C7C080404084854545420043FBD
:101C30004440203C4040207C1C2040201C3C402054
:101C4000403C44281028440C5050503C4464544CB0
:101C500044000836410000007F00000041360800C3
:101C60000808221C08081C22080801020408102089
:101C7000408040800804201002019CCE003264E2C3
:101C8000F1003264645A505A6450463C46649C14D5
:101C90001E465A536572766F2054657374004779F7
:101CA000726F2053657475700048656C69205365C8
:101CB00074757000456C65766F6E5C44656C74611C
:101CC00000562D5461696C00537469636B7920541C
:101CD0002D43757400542D4375740053696D706CF9
:101CE0006520342D434800DB1CD51CC81CC11CB426
:101CF0001CA91C9E1C931C0000891112239B3224DA
:101D000046AD573665BF74488CC19D5AAFD3BE6C83
:101D1000CAE5DB7EE9F7F88110080193331A22A5A2
:101D2000562C47B7753E64C99C408DDBBF52AEED63
:101D3000DA64CBFFF976E802218B30100299132682
:101D400067AF763444BD554AADC3BC588ED19F6E43
:101D5000EBE7FA7CC8F5D983310A2091121803A762
:101D6000772E66B5543C45CBBD42ACD99E508FEF23
:101D7000FB66EAFDD874C904428D5316619F70203A
:101D800004A9153227BB364CCEC5DF5EEDD7FC6803
:101D900088E1997AABF3BA85520C4397711E60A122
:101DA000142805B3373A26CDDE44CFDFFD56ECE9E3
:101DB000986089FBBB72AA06638F7214409D512202
:101DC00025AB343006B9174EEFC7FE5CCCD5DD6AC3
:101DD000A9E3B8788AF19B87730E6295501C41A3E2
:101DE000352A24B1163807CFFF46EEDDDC54CDEBA3
:101DF000B962A8F99A708B088481951AA793B62CBA
:101E0000C2A5D33EE1B7F04008C919522BDB3A64B2
:101E10004EED5F766DFF7C899400859BB712A6AD71
:101E2000D224C3BFF136E0C1184809D33B5A2AE592
:101E30005E6C4FF77D7E6C0AA583B4188691972E51
:101E4000E3A7F23CC0B5D14229CB38500AD91B6672
:101E50006FEF7E744CFD5D8BB502A499961087AF31
:101E6000F326E2BDD034C1C3394A28D11A580BE752
:101E70007F6E6EF55C7C4D0CC685D71EE597F42809
:101E800080A1913AA3B3B2444ACD5B5669DF786032
:101E90000CE91D722FFB3E8DD604C79FF516E4A9F1
:101EA000902081BBB332A2C55A4C4BD7795E68E112
:101EB0001C680DF33F7A2E0EE787F61CC495D52AD1
:101EC000A1A3B03882B193466BCF7A5448DD5962F2
:101ED0002DEB3C700EF91F8FF706E69DD414C5ABB1
:101EE000B122A0B9923083C77B4E6AD5585C49E3D2
:101EF0003D6A2CF11E780F00CC6F11241FBECFEF6E
:101F0000D0E1DEBFCDBF11E0A0E0B1E0EAEBF1EE41
:101F100002C005900D92AC32B107D9F71EE0ACE2D9
:101F2000B1E001C01D92AF36B107E1F71EE1CAEF83
:101F3000DEE104C02297FE010E948A70C83FD107EB
:101F4000C9F70E94F86D0C94DB700C940000E091CE
:101F5000800594E0E99FF0011124E80FF11DEB5496
:101F6000FC4F84918F5F08950895E82FF0E0E357C8
:101F7000FC4F849108952AE0829FC0011124895169
:101F80009E4F089525E0829FC0011124895D9C4FDA
:101F900008950F93022F24FF03C00F7E9DE201C01E
:101FA00094E2411106C024E041E853E00E946E5ED5
:101FB0000FC0453028F42FEF240F4CE953E006C042
:101FC000941730F02BEF240F4BED52E00E94935EFC
:101FD0000F9108950F93CF93DF93C82FD62F022F21
:101FE000411104C024E046ED52E00EC04A3010F02A
:101FF00086E101C081E18C0F50E0202F6D2F0E94FF
:10200000206122E043ED52E06D2F8C2F0E946E5E26
:10201000DF91CF910F9108950F931F93CF93DF938B
:10202000D62FC42F022F16E0180F442339F0463163
:1020300041F04A3E81F449EC53E005C04FEC52E0D8
:1020400002C045EC53E06D2F812FDF91CF911F919E
:102050000F910C94A75E47FF04C041E20E94E05D2F
:10206000C1952FEF2C0F4DEC53E06D2F812F0E9467
:10207000935EDF91CF911F910F910895EF92FF92A0
:102080000F931F93CF93DF93D82F162FF42EE22EAA
:10209000C091D80181E0821708F442C02C2F27FD9F
:1020A0002195203168F4042F4DE952E08D2F0E94D4
:1020B000935ECF3FCCF52F2D41E2612F8AEF19C0FF
:1020C000253230F41C1614F441EF22C04FE020C03A
:1020D000CA339CF0C353042F2C2F46E552E08D2FBA
:1020E0000E94935EC0310CF4D6502F2D45E2612F33
:1020F00082E18D0F0E94E05D17C0242F4DE682E142
:102100008D0F0E94E05D1C1614F44CED01C044E2FA
:102110004C0F2F2D612F8AEF8D0F0E940C1004C0E1
:1021200082E028130DC004C0E1100AC0C13041F4A0
:102130002F2D40914804612F8AEF8D0F0E940C10C3
:10214000DF91CF911F910F91FF90EF90089587300D
:1021500038F4E82FF0E0EE0FFF1FE35AF74F24C0EA
:102160008C3050F18431C0F4482F50E0DA01AA0FCE
:10217000BB1FAA5EBE4F2D913C91803148F4FA01FD
:10218000EE0FFF1FEA5AFA4F80819181281B390B0D
:10219000C901880F991F0895843248F4E82FF0E0B0
:1021A000EE0FFF1FEB5EF74F8081918108958E3215
:1021B00018F484520C940A1E80E090E008950E9466
:1021C000F46D8111FCCF10927F0D08950F931F9332
:1021D000CF93DF938C01EB010E94945D24E04EEAE3
:1021E00053E060E082E20E94A75EB80180E20E94B4
:1021F000C75EBE0188E20E94C75E60E472E080E3D1
:10220000DF91CF911F910F910C94C75E0F93262FF2
:1022100000E04DEC53E060E10E94935E0F91089561
:10222000CF93DF93D6E1C0E08D2F0E94D862CC0F10
:10223000C82BD150DE30C1F78C2FDF91CF9108959C
:102240000F931F93CF93DF93082FCDECD1E01AE0CB
:10225000499124E0602F812F0E94E05D155F1837BF
:10226000B9F7DF91CF911F910F9108951F93CF93ED
:10227000DF93EC01162F0E94945DBE0188E10E945D
:10228000C75E111109C042E352E068E38CE10E948D
:10229000CD5E4EEA53E002C04AE252E024E060E044
:1022A00086E10E94A75EDF91CF911F910C94ED61B2
:1022B00061E00C94361170E0882399F090E001976A
:1022C00025E0289FF001299FF00D1124E60FF71F4C
:1022D000EE0FFF1FEE56FB4F808191818B509E4F7A
:1022E0000895FB01EE0FFF1FEE5FFE4F0190F0819E
:1022F000E02D8081992787FD909508951F93CF93B6
:10230000DF93D82F162FC4E0DD2399F0612F8D2F96
:102310000E945B119C01253F81E0380764F08BE04F
:10232000820F8D1710F08CE0820FC15029F0D82F4A
:10233000EBCFC0E001C0CD2F8C2FDF91CF911F914B
:102340000895CF93C62F0E947E116C2FCF910C94CD
:102350005B11EF92FF920F931F93CF93DF93EA01EC
:102360009A0123583F4F7901062F10E0882319F175
:102370000E947E118823F9F03BEFE316F10440F050
:102380001C161D061CF4CDE7D0E002C0C3E8DFEF49
:1023900090E0019725E0289FF001299FF00D11247E
:1023A000E00FF11FEE0FFF1FEE56FB4FC55FD14050
:1023B000D183C08315C08BEFE816F10440F01C16E2
:1023C0001D061CF4CDE7D0E002C0C3E8DFEFF80142
:1023D000EE0FFF1FEE5FFE4F0190F081E02DC083F6
:1023E00086E0DF91CF911F910F91FF90EF900C94B9
:1023F000E657AF92BF92CF92DF92EF92FF920F9388
:102400001F93CF93DF938C017B016A01A22EB090C2
:10241000AD019B2D9F7D943439F080913B0888233A
:1024200009F485C0933439F4E801219683E10E94D0
:10243000D66C85E00BC0953419F0923409F07AC05F
:10244000E801219784E10E94D66C84E00E94D86262
:10245000811162C0E114F10401F581E0C816D104D4
:10246000E1F480E6B81619F08EE2B81212C01092AC
:102470003B08C1E00115110509F0C0E0D0E08B2D4B
:102480000E9427638EE2B81207C081E08093700833
:1024900003C0C170DD2701C0B12C409145015091AE
:1024A0004601C41BD50B80917008833031F48091B4
:1024B000B601C80FD11D87FDDA95CC16DD0644F4B0
:1024C0008B2D0E94276383E10E94D66CE6010AC02F
:1024D000CE15DF053CF48B2D0E94276384E10E941A
:1024E000D66CE701C017D107A1F0209751F48B2DCE
:1024F0000E94176317FF02C083E101C084E10E94BC
:10250000D66C8A2D83700E94E65781E080934D013E
:1025100013C010924D0110C0CC27DD27C01BD10B7A
:1025200085E00E94276384E00E94276393CF95345F
:1025300009F486CFE8018ECFCE01DF91CF911F91B4
:102540000F91FF90EF90DF90CF90BF90AF900895E4
:10255000552747FD5095772767FD7095992787FD8B
:1025600090950E94F911089522E00C94A812462F2C
:1025700022E060E00C94A812462F50E022E060E0D8
:1025800070E00C94F91121E00C94A812462F21E080
:1025900060E00C94A812E0914F01F0E0EE0FFF1FF5
:1025A000EE5AFE4F808191810895E0914F01F0E055
:1025B000EE0FFF1FE05BFE4F918380838FEB8093D4
:1025C0004E010895E1E7F8E0108E168A158A178A01
:1025D0000895809184052AEF829FC0011124880FFD
:1025E000991F20913F01309140012817390720F4AD
:1025F0009093400180933F010895E0E2FEE037A10F
:10260000303180F420A541E0420F40A7DF01A20F46
:10261000B11DA20FB11D8D939C93403108F010A6FF
:102620003F5F37A3089590E08C5F9E4F0C94FD129E
:1026300090E00C94FD128093B80190E040970C94C8
:10264000FD12FC0190918B0580A191FF74C091A1B6
:10265000882311F0946001C09B7F91A386A18130F3
:1026600059F5C79A37A121A1332321F181A541E072
:10267000480F41A7DF01A80FB11DA80FB11D8D9113
:102680009C9195A384A3403108F011A6315037A343
:1026900097FD02C031E101C038E233A32C7F97FDE2
:1026A000226021A381A18BBBC7988FE182A382E026
:1026B00086A308952BBB48C081110CC0C79A81A185
:1026C000836081A38BBB80914F0D8D3308F43CC098
:1026D00086E02FC0823009F438C081A18BBBC79A35
:1026E000BF9800C0000000C086B38078BF9A96A152
:1026F000933049F4882329F083A1815083A3811169
:1027000023C084E016C0943021F48823E9F083E0EC
:102710000EC0953039F483A1815083A3811114C078
:1027200081E007C0963081F4882371F084E183A3AF
:1027300085E086A309C09091880596FB992790F9BA
:10274000891711F0C79A0895C79808951BBA8FE1A9
:102750008ABB00C099B38FEF8ABBEEEAF1E08781B4
:10276000882311F080E202C0892F807E8483292F84
:10277000207C8081281759F08074880F90783181EF
:10278000891711F0315001C03F5F3183208382816E
:102790009381891711F08383818308959091800537
:1027A00090FD02C093E08927E82FF0E0E559F74F4C
:1027B000E081E7FDE95FE595E595E5951E1624F0D6
:1027C000EE2321F0E19502C080E801C080E0E8300E
:1027D00008F0E7E0F0E0EA57FC4FE491EE2319F04F
:1027E00099E090935A018E2B0895482F833021F061
:1027F000882321F0E82F03C0E0E001C0E3E0F0E02F
:10280000EE0FFF1FEC54FA4F80819181443080F429
:1028100020919D0530E002C0359527954A95E2F755
:1028200020FF06C020E038E0A901481B590BCA016F
:102830000895FF920F931F93CF93DF93F12CC0E085
:10284000D0E08F2D0E94F513092F10E0C00FD11F8B
:10285000F39484E0F812F5CFCE01DF91CF911F9170
:102860000F91FF9008950E94F5132091820520FF9B
:1028700003C09195819591090895E4EBF5E040E05E
:10288000842F806487B9369A3699FECF24B135B14A
:10289000369A3699FECF84B195B1820F931F8193FA
:1028A00091934F5F483061F7089578941F920F928B
:1028B0000FB60F9211248F9380912C018F5F80931C
:1028C0002C018F910F900FBE0F901F901895789448
:1028D0001F920F920FB60F9211242F938F939F93F5
:1028E000EF93FF93F89487B78F7B87BF78942091FD
:1028F00077018091790190918B05882359F090FFA1
:1029000007C080916C0E820F80936C0E87FF02C00F
:102910001B9A01C01B9891FF2AC080914B0981111D
:1029200026C0E0E2FEE086A1823009F583A188237B
:1029300011F081501BC021A1C79A82A180FD09C05E
:102940002D7F84A195A196FD2260880F991F95A3E4
:1029500084A381E082278BBB81A3C79882A1815089
:1029600082A3811104C083E086A385E083A3F89449
:1029700087B7806487BF7894FF91EF919F918F9183
:102980002F910F900FBE0F901F90189578941F9263
:102990000F920FB60F9211242F933F934F935F9393
:1029A0006F937F938F939F93AF93BF93EF93FF9317
:1029B00081B7845681BF85E791E00E940B6B0E942E
:1029C000366380918C0D826080938C0DEAE0F1E09B
:1029D0008081815011F0808304C084E6808381E08F
:1029E00081838281815011F0828304C08AE08283D6
:1029F00081E08383FF91EF91BF91AF919F918F9180
:102A00007F916F915F914F913F912F910F900FBEEA
:102A10000F901F90189578941F920F920FB60F92F7
:102A200011242F933F934F935F936F937F938F93D3
:102A30009F93AF93BF93EF93FF93209180003091CA
:102A40008100F89480917D008F7D80937D00789443
:102A50008091AD059091AE05A901481B590BCA01A3
:102A6000969587953093AE052093AD059C01215A2C
:102A70003F402F3D3E4220F481E080932D012CC049
:102A8000E0912D012FEF2E0F283030F59C012152BF
:102A9000334027373540F0F424E62093B70121E096
:102AA0002E0F20932D01F0E0EE0FFF1FE45DFE4F8F
:102AB0009C012C5D354040918605465F429FC001D8
:102AC000439F900D11246AE070E00E94337071837F
:102AD000608302C010922D01F89480917D00806285
:102AE00080937D007894FF91EF91BF91AF919F917A
:102AF0008F917F916F915F914F913F912F910F90A7
:102B00000FBE0F901F9018959C0155E035952795A5
:102B10005A95E1F7280F391FAC01440F452F441F88
:102B2000550B241B350B892F990F990B8595820F17
:102B3000931F08959DE7980F9B3F88F08E57E82FCD
:102B4000F0E0EE0FFF1FEC57FB4F808186171CF45F
:102B50006083862F0895481714F44083842F0895C6
:102B600044E66CE90C949A15982F8091DE0184FF5D
:102B700003C081E0923009F080E0089549E28402C8
:102B800090011124359527953595279587FD815C12
:102B900086FB880F880B80F9A901481B510987FD26
:102BA0005395CA0108954F925F926F927F928F92D0
:102BB0009F92AF92BF92CF92DF92EF92FF920F93CC
:102BC0001F93CF93DF93782E642E882309F4CDC012
:102BD00086E1781621F09AEE791203C0C8C081E030
:102BE000CAC086E187150CF4C2C0872D87FD819588
:102BF0008A3040F4825F0E94D86217140CF4BBC084
:102C000091E01BC08A50E82EF12C6701CC0CDD1C32
:102C1000E601CE0DDF1DCD5DDB4F8A818F7009F49B
:102C2000A6C094E0941758F4F701E256FA4F908149
:102C3000917017140CF497C081E089279CC05880CC
:102C400049800E94B50F811109C08FEF850D0E9448
:102C5000A7108C0189810E94BE1510C0823051F4EA
:102C60008FEF850D0E94A7108C01898181500E94F1
:102C7000A71004C080E090E000E010E02A812F70EF
:102C8000822E912CF4013197EE30F10508F071C0DD
:102C9000EA5BFF4F0C94887017FF37C011950195C0
:102CA000110933C017FF35C011950195110931C0C5
:102CB00001E0060D402F60E0852D0E94D315182FEE
:102CC000402F60E0842D0E94D3152A812F7025307B
:102CD00061F4112309F44DC0882309F44AC08A81A4
:102CE00082958F7059F591E032C0263019F4111198
:102CF000F6CFF2CF982F91271EC008171907C9F5F4
:102D0000EECF0817190759F734C0801791073CF325
:102D100030C0081719071CF32CC0F601E45AFE4F07
:102D200091819095991F9927991F05C0F701E25647
:102D3000FA4F908191709111D2CF09C089300CF077
:102D40008F5F41E0460D60E00E94D315982F2A81E5
:102D50002F7030E02C3031050CF06BCFF701E256CC
:102D6000FA4F908366CF892F06C0862F04C080E07B
:102D700002C090E0ECCFDF91CF911F910F91FF90B7
:102D8000EF90DF90CF90BF90AF909F908F907F900B
:102D90006F905F904F90089540E060E080916D05E6
:102DA0000E94D315811114C080913F019091400180
:102DB000892B71F41092400E80914F0D9091B305C4
:102DC000981751F08093B30580E29EE00C94211394
:102DD00081E08093400EF0CF089581110E94E912A6
:102DE00080913F0190914001009709F00197209157
:102DF0003E01222361F020918C054AEF249F90012F
:102E00001124220F331F8217930708F4C9019093EE
:102E1000400180933F010C94CC16CF92DF92EF9249
:102E2000FF920F931F93CF93DF938091500D90915A
:102E3000510D9091B205282F291B209341018093B9
:102E4000B20560E085E198E00E94C14480914101B3
:102E5000882309F4C2C2E1E7F8E0878980FF0DC04A
:102E6000808D91E0980F908F943638F08356808F44
:102E7000858996890196968B858B8091B7018823E9
:102E800019F081508093B70180E00E9442580E945F
:102E9000945D0E946C62182F482F4F70E42E5AEFF9
:102EA000E50EC091DF01C43021F0C33019F4C4E055
:102EB00001C0C8E087E08E1508F49AC0812F807F9A
:102EC000803209F495C08E2D86950E94A70F9091AF
:102ED0009C0590FD03C00FEF080F02C004E0081B23
:102EE000602F809113060E947E11F82E602F0E94A1
:102EF000A1119C01C1110CC0EC0197FF04C0CC27AB
:102F0000DD27C81BD90BD595C795D595C795CF5F3C
:102F1000023061F48091DE0180FF5DC281E0C2E099
:102F20009091820590FF03C0C19501C080E0DD272C
:102F3000C7FDD095E0FE03C0C20FD31F04C0A90196
:102F40004C1B5D0BEA01209721F09D2F932797FFE3
:102F500011C081110FC0232B69F040E050E0602FB9
:102F60008F2D0E94A911812F0E94276386E10E9464
:102F7000D66C3DC09E0124583F4F293F310580F457
:102F8000AE01602F8F2D0E94A911D7FF03C0D195EC
:102F9000C195D109D595C795D595C7954C2F21C019
:102FA0001C161D061CF44DE750E002C043E85FEF1D
:102FB000602F8F2D0E94A911CE0183589F4F8B3F08
:102FC0009105A8F4D7FF03C0D195C195D109D7FDCC
:102FD0002396AE0155954795559547955195419541
:102FE0005109445C65E185E791E00E94C06B10E007
:102FF000E3E4F1E08091690890916A0820813181D1
:10300000281B390B37FF02C0215E3F4F65E0359525
:1030100027956A95E1F72115310561F02481358105
:10302000281B390B37FF02C02F5F3F4F359527957F
:1030300091838083958384838091820585FD04C07C
:1030400080913708882311F020E030E03383228319
:10305000CEEAD1E02D818981821B8F3F09F480E087
:1030600087FD8F5F85958887982F990F920F9D8395
:10307000812B0E94ED1680919805895FE0914F01A8
:10308000F0E0EE0FFF1FE05BFE4F208131812556FF
:10309000324409F044C028852223B1F09E813327B1
:1030A00027FD3095290F311D97FD3A952E373105B3
:1030B00014F09DE705C023389FEF39071CF493E80F
:1030C0009E8301C02E831886E09149049E2F907E36
:1030D00031F1E295E695E770F0E0E430F10554F463
:1030E000EE0FFF1FED59F74F208131813C5F60E00B
:1030F00078E00CC0EE0FFF1FEC57FB4F2081332709
:1031000027FD309523583F4F6AEF70E047E0429F1C
:10311000C001439F900D11240E941F70862F909133
:10312000B80189130E941B138091880587FF3BC05B
:1031300080915B018823B9F180915A018823A9F11C
:103140008091B10587FD03C08F5F8093B10582E058
:103150000E94CE13982F9F7789F02091B105921786
:1031600020F51092B105111120C0182F1095111FD4
:103170001127111F83E6811B182F17C083E00E94BF
:10318000CE13982F9F7789F02091B105921768F49C
:103190001092B105111109C0182F1095111F112798
:1031A000111F1C5902C010925A0181E080935B01EB
:1031B00000911306E090B401FF24E7FCF094C5E809
:1031C000D4E09AE0C92ED12C6881662309F440C06E
:1031D000653030F46150802F0E94A111BC012BC0DA
:1031E000653041F1E62FF0E0EE0FFF1F6A3048F442
:1031F000EF5AF74F6081718177FF0EC0695F7F4F93
:103200000BC06D3078F4EF5AF74F2081318137FFD2
:1032100002C0295F3F4FB901B3E075956795BA9534
:10322000E1F709C0ED5DF74F80819181B6010E9401
:10323000337001C0B70163382FEF72072CF06D3780
:1032400071051CF06DE701C063E8FE0131976083F2
:10325000229644E0C339D40709F0B6CF8091CB0160
:103260009091CC010097B1F060E00E9436110E946D
:10327000F46D9091B005992339F0811125C0109219
:10328000CC011092CB0120C08823F1F081E0809323
:10329000B0051AC01092B005C0914E01CC2331F098
:1032A00010924E0187E10E94D66C1C2F1093AD0145
:1032B000E0914F01F0E0EE0FFF1FE05BFE4F019049
:1032C000F081E02D812F09950E94ED61C09165008C
:1032D00085E791E00E94F76A882311F084E105C038
:1032E00080916E0E882321F0815080936E0E06C06F
:1032F000809163008695817080936D0E80916D0E34
:103300008093C901882309F464C08091880585FDF4
:1033100060C0CF7EC093650080914F0D8F71823069
:1033200009F054C08091C2059091C305AC01F4E04E
:10333000440F551FFA95E1F797FD0796BC01E3E0AE
:1033400075956795EA95E1F720916C05332727FD80
:1033500030952A5F3F4F629FC001639F900D729F1F
:10336000900D1124840F951F2091820526FD05C024
:10337000609100017091010102C060EF70E00E9455
:103380001F7080914201680F711D6F5F7F4F7595AF
:103390006795609342018091AF05805F8093AF0590
:1033A000811114C080916B05681780F4623370F04E
:1033B0006EE281E10E94DC6C8091820583FF06C091
:1033C00082E390E09093400180933F0110923E0190
:1033D00004C0C0619FCF80E0A3CDDF91CF911F914A
:1033E0000F91FF90EF90DF90CF900895CF93DF93F0
:1033F000C62F2091CA01222339F09093CC018093EB
:10340000CB01DF91CF91089560E00E943611C11188
:1034100003C080916A0501C089E10E94B76167E13C
:1034200082E10E94DC6C0E94DF10D1E00E94F46D0A
:10343000882321F0DF91CF910C94DF1080918C0DC7
:10344000833019F4A89510928C0D40E060E08091D3
:103450006D050E94D315811106C0809184058111EC
:1034600002C0CC2329F0D093400E0E94CC16DECFB0
:103470001092400EFACF60E00C94F61990914F0133
:10348000911103C0811106C00CC0811103C08FEFE0
:10349000890F01C080E080934F018EEB80934E0135
:1034A00008958DE192E00C943B1AE0914F01E430D5
:1034B00020F080E192E00C943B1A2FEB20934E0118
:1034C000EF5FE0934F01F0E0EE0FFF1FE05BFE4F78
:1034D0009183808308951F93CF93DF93CAE9D4E04B
:1034E00090E0888111E0190F882341F040E060E00E
:1034F0000E94D315882311F0812F05C0912F2A96A1
:10350000143079F780E0DF91CF911F9108955F9299
:103510006F927F928F929F92AF92BF92CF92DF92E3
:10352000EF92FF920F931F93CF93DF9310926F0848
:1035300080912C01C2B790912C018913F9CFD0E072
:10354000D82B809149048F7150E1B52EB81A0E9492
:103550003D141EE517B90E94A6130E940D1717B956
:10356000369A3699FECF84B195B104964091000108
:103570005091010167E0649F9001659F300D112417
:10358000820F931F43E0969587954A95E1F79093B4
:1035900001018093000180918C0D833019F4A8956E
:1035A00010928C0D20912C0182B790912C0129133F
:1035B000F9CF90E0922B8C1B9D0B20911201309142
:1035C00013012817390720F49093130180931201F7
:1035D00080910D01882309F42CC18091AB05909155
:1035E000AC0501969093AC058093AB05DB2CFFE016
:1035F000FD1508F476C00D2D10E0E801CC0FDD1F9D
:10360000C65BDB4F8881E82EE294E69437E0E32244
:10361000F98095E09E1550F0EAEFEF1538F4EF2DA4
:10362000F0E0EE0FFF1FEC56FD4FF0808F7109F4B4
:1036300056C040E060E00E94D315C82E80910D0175
:1036400007541E4F823009F448C08E2D857051F406
:10365000F8018081811106C0CC2021F08F2D90E0EF
:103660000E94FD128FEF8E0D823058F4F801808198
:10367000813099F5C11031C0F2E0EF122AC0F39405
:1036800028C085E08E1550F4F8018081811125C095
:10369000CC2019F189810E942E1E1FC0F2E0FE1578
:1036A000E0F4CC20D1F084E0E81631F095E0E916A2
:1036B00031F066E970E005C06CE271E002C068E5D7
:1036C00072E08091AB059091AC050E941F70892B30
:1036D00021F48F2D90E00E94FD12F801C082D39456
:1036E00086CFB3E2EB2EB4E0FB2E0EE915E0CCE57D
:1036F0008C2EC1E09C2EC12CD12CAA24A394D2E004
:103700007D2E83E0682EF7015280852D8F700E94F8
:10371000B50F833009F03EC0F401C081D1812097FC
:1037200071F4F701C081C7FD06C0C095FAE0CF0271
:10373000E00111241BC0DD27C7FDD09517C0D7FFBE
:1037400014C0219699F4F601EC5DFB4FC081C7FDD2
:1037500006C0CF5F8AE0C802E001112406C0DD2761
:10376000C7FDD095C095D09501C02197852D807F4C
:1037700071F0852D82958F7089300CF08F5F40E05D
:1037800060E00E94D315811102C0CFEFDFEFF4019A
:10379000D183C083F70182818F708C30B1F440E017
:1037A00060E080810E94D315882319F0F801A0827F
:1037B0000CC040E060E0F601EC5DFB4F80810E94B0
:1037C000D315882311F0F8011082F70182818F70E0
:1037D0008D30E9F440E060E080810E94D315F8016B
:1037E000882391F0808181FD12C040E060E0F60105
:1037F000EC5DFB4F80810E94D315F801882311F006
:10380000608205C0708203C080818D7F8083F3E079
:10381000EF0EF11C83E0C80ED11C0F5F1F4F92E02A
:10382000890E911CE4E2CE16D10409F06CCF1092FF
:103830000D0180910B01882309F47FC02091AA0516
:103840002F5E822F8F7090E00C970CF0207F2093DA
:10385000AA05CDECD1E0F12CF22FF073EF2E822FE0
:103860008F70D82E922F9077C92E207FA22EFB1416
:1038700009F45AC08E0103581D4FF8018081982F1A
:10388000907C9034D9F4E11019C0880F880F40E083
:1038900060E0859585950E94D315882379F0809105
:1038A0008B0580FF05C0FE01E258FD4F608101C01D
:1038B00061E046E485E791E00E94C06BF8018081F9
:1038C000982F907C903869F5880F880F859585959D
:1038D0008731BCF08751813039F018F0823039F0EF
:1038E00020C0C1101EC006C0D1101BC003C0F0E232
:1038F000AF1217C0FE01E258FD4F80810E942E1EBC
:1039000010C0E1100EC040E060E00E94D315882393
:1039100041F0FE01E258FD4F8081805890E00E9406
:10392000FD12F3942296A3CF10920B0180915A01BD
:10393000882319F0815080935A01DF91CF911F9114
:103940000F91FF90EF90DF90CF90BF90AF909F903E
:103950008F907F906F905F900895282F30E088308F
:1039600058F02850310949E0429FC001439F900D13
:10397000112485529C4F089545E0429FC001439F0A
:10398000900D11248D549C4F0895CF93C82F809192
:103990008A0D80FF03C068E67EE002C066E57EE037
:1039A00088E10E94C75EC13629F410928A0D80E03A
:1039B0000E943E1A8091D50881508093D5088111CC
:1039C00003C081E00E94D66CCF910895813649F4FE
:1039D0000E94276381E00E943E1A8BEB96E40E94CE
:1039E000551A68E27FE080E10E94C75E62E17FE0F5
:1039F00080E20C94C75E1F93CF93DF93182FD62FCE
:103A0000C42FB9010E94C75EDD2329F06FE08C2F1F
:103A10000E94B712C82F8091DE014C2F83FF02C095
:103A2000440FD06250E02D2F612F80E60E9420616C
:103A30008C2FDF91CF911F910895FF920F931F93C9
:103A4000CF93DF93182FF62E0AE08AE0189FE0014B
:103A50001124C951DE4F2FE130E0211B3109029FB3
:103A6000A001039F500D1124BE01CE010A960E94B1
:103A7000A970FF2049F0BE016A5071094AE050E088
:103A8000CE010E94A9700AC0FE0111920A95E9F7C1
:103A90008091E5088883898384E68A831093E70808
:103AA000DF91CF911F910F91FF9008959C01220FFC
:103AB000331F280F391F9595879595958795280F62
:103AC000391F959587959595879595958795820F3B
:103AD000931F0895429643E7489F9001499F300DF8
:103AE0001124C901E6E095958795EA95E1F70895D7
:103AF000CF92DF92EF92FF920F931F93CF93DF93BA
:103B00007B018A01D0906F0895E09D1508F45FC095
:103B100091E09D0D90936F08EBE08E9FE0011124E2
:103B2000C05FDA4F8881882349F081500E94A71036
:103B30009C01442737FD4095542F03C020E030E01E
:103B4000A901D0926F08DE80FD2DF870CF2ED3FC36
:103B50000AC089819A81AA2797FDA095BA2F280FBC
:103B6000391F4A1F5B1FAB81B0E011960E94F96FAD
:103B70002C8130E02F5F3F4F442737FD4095542F75
:103B80000E946970CC2051F089819A81AA2797FD03
:103B9000A095BA2F280F391F4A1F5B1FD0FE07C000
:103BA00050954095309521953F4F4F4F5F4FE11411
:103BB000F10419F08D81F70180830115110529F0B9
:103BC0008E8186958370F8018083C90102C080E0F0
:103BD00090E0DF91CF911F910F91FF90EF90DF90D8
:103BE000CF90089581E00895E82FF0E0E759FB4E6B
:103BF000E491862F992787FD909583589F4FEE5F1C
:103C0000E23038F42AE0AC01249FC001259F900DDA
:103C100011240895E82FF0E0E759FB4EE491ED3FC1
:103C20004CF4EE0FFF0BE856FB4F8081992787FD80
:103C300090950895ED3F59F074F0EF3F09F05CF472
:103C4000EE0FFF0BEB58F74F83899489089580910D
:103C5000420190E0089580E090E00895CF92DF92D5
:103C6000EF92FF92CF93DF9300D0CDB7DEB7F82E5F
:103C70001A8219820E940A1EEF2DF0E0E759FB4ECE
:103C80002491422F552747FD5095652F752F415F91
:103C90005F4F4F30510598F54C5A5F4FFA010C9425
:103CA0008870AE014F5F5F4FBE016E5F7F4F8FE048
:103CB000820F0E94781DEA81F0E0E355FC4EE4910A
:103CC000EA831DC024E22A8321E0298318C06CE323
:103CD00070E00E9433706B017C0146E260E0C60137
:103CE0000E94E56CC70125E32A8309C0E22FEE0F8D
:103CF000FF0BE856FB4F8081992787FD90954A81FD
:103D000069810E94E56C0F900F90DF91CF91FF9039
:103D1000EF90DF90CF9008958F929F92AF92BF92D5
:103D2000CF92DF92EF92FF920F931F93CF93DF9387
:103D300000D0CDB7DEB7F82ED62EC22EB32E102F60
:103D400080E28A83E42FFF27E7FDF095E759FB4ED9
:103D500094908E2D8170882EE0FE22C0AFE0A90DD8
:103D6000A43008F08FC08BE0A89FD0011124FD0182
:103D7000E95EFA4F8081882309F484C0AF0100E135
:103D800024E08F2D0E946E5E12FD04C0A8E1AA2ED1
:103D9000AF0C07C0FCE1AF2EAF0C88EFD80E01C00E
:103DA000AF2C0E2D0870E3FC1F7B81EF98160CF4EE
:103DB0003FC084EF89152CF482E0890D823000F138
:103DC00037C0AE014F5F5F4FBE016E5F7F4F8FE028
:103DD000890D0E94781D2981213011F4106203C0E1
:103DE000223009F41063EA81F0E0EB55FC4EE491D7
:103DF000EA83E7FE02C08C2D9B2DC82EB92E18C079
:103E000012FD02C08CEFA80E882011F08AE0A80EE7
:103E10001770012F212F4C2D5B2D6D2D8AEF8A0DF0
:103E20000E94C660E3E3E90DEA838AEFF80E0AC058
:103E3000002391F18DE38F0D212F4C2D5B2D6D2DE6
:103E40000E9420618E2D867069F0E2FE04C08AE037
:103E50008F0D1B7F02C080914E0D212F4A816D2D49
:103E60000E94E05D8A810F900F90DF91CF911F91AA
:103E70000F91FF90EF90DF90CF90BF90AF909F9009
:103E80008F90089521E0240F00E043E754E16D2D69
:103E90008F2D0E94935E78CF8A2DCECF0F931F93E4
:103EA000CF93DF93C82FD62F042F122F4CE752E168
:103EB0000E94A75E40E3400F212F6D2F8CE08C0FF6
:103EC000DF91CF911F910F910C94E05DDF92EF9203
:103ED000FF920F931F93CF93DF93182FF62EC42FCB
:103EE000D22EDE2DD370A1F08091AD01803881F407
:103EF0008DE7840F8B3F40F0E42FF0E0EE0FFF1FC3
:103F0000E857FC4FC08101C0CEE782E00E94E6572F
:103F10008DE78C0F2E2D8B3F98F043E84C0F6F2DC3
:103F20008EEE810F0E944E1FDD23D1F022E042E889
:103F300050E06EE770E08C2F90E00E94F9110FC006
:103F40004C2F552747FD50956F2D812F0E942061E2
:103F5000DD2331F0402F6D2D8C2F0E94B412C82F1D
:103F60008C2FDF91CF911F910F91FF90EF90DF90F9
:103F70000895CF93DF939EE0899FE0011124C958F3
:103F8000DC4F40E060E08C850E94D315882349F027
:103F900040E060E08D850E94D315811104C081E06E
:103FA00003C080E001C082E0DF91CF910895EF92DD
:103FB000FF920F931F93CF93DF93F82EE62EC42F1B
:103FC000D42FD695062F0D1B182F1D1B602F812F68
:103FD0000E94725F6D2F6E0D4C2F812F0E946F5FBC
:103FE0004C2F602F8D2F8F0D0E94725F4C2F602FF2
:103FF000812FDF91CF911F910F91FF90EF900C9443
:104000006F5F21E0AC0160E080E00C94A75EFF925E
:104010000F931F93CF93DF93C82F88E09BE00E94FC
:104020000120C13659F40E94CA6D85E692E4DF9101
:10403000CF911F910F91FF900C94D5120BE41EE0CD
:10404000CBE5DEE08CE0F82EF80141918F0120E114
:1040500068E18F2D0E94E05D499120E160E28F2DA3
:104060000E94E05DF6E0FF0E8CE6F812EDCF809145
:104070004A0E882309F454C00E94C86D83E00E9450
:10408000D862882351F080912A0190912B01807D84
:10409000992790932B0180932A0182E00E94D86295
:1040A000882351F080912A0190912B01807B9927E0
:1040B00090932B0180932A0185E00E94D862882387
:1040C00051F080912A0190912B018077992790934C
:1040D0002B0180932A0184E00E94D862882351F04A
:1040E00080912A0190912B01807E992790932B013A
:1040F00080932A0110924A0E80912A0190912B01FF
:104100000E94D06DEFE9FFE03197F1F700C00000A9
:104110000E94C66D80EF90E090932B0180932A015E
:10412000DF91CF911F910F91FF9008950F931F93EF
:10413000CF93DF93182FC1E7D8E083E09BE00E9484
:104140000120113678F0133628F0133659F480E543
:1041500091E202C085E692E4DF91CF911F910F9129
:104160000C94D5126AEF7AE088E00E94C75E4A811B
:104170005B8100E020E068E08AE20E94C6604C813A
:104180005D8120E068E08EE40E94C66061EF7AE025
:1041900080E10E94C75E4E815F8120E060E18AE29B
:1041A0000E94C6604885598594E0569547959A9532
:1041B000E1F720E060E18EE40E94C6606CEE7AE0F8
:1041C00080E00E94C75E4881598120E060E08EE473
:1041D0000E94C6604EE76CE382E00E946F5F43E29C
:1041E0006CE185E00E94725FCBE043E06BE38C2FD3
:1041F0000E94725FCA5FC338C1F710919307809124
:104200009207893710F4C0E001C0C12FD6E00CE35B
:10421000EC2FF0E0EC56F84F4081602F641B8D2F9F
:104220000E94725FCF5FC83708F0C0E0C11719F075
:10423000DF5FDE3769F7DF91CF911F910F9108950E
:10424000222319F02091350801C020E0442319F001
:1042500045EC53E002C049EC53E00C94A75E0F9389
:10426000222319F00091350801C000E0242F4FE609
:1042700052E10E94935E0F9108950F931F93CF9385
:10428000DF93182FEA01022F0E94C75E202FAE0194
:10429000612F84E5DF91CF911F910F910C942061E4
:1042A0001F93CF93DF93182FC0E1D1E086E59BE009
:1042B0000E9401201136A1F058F41036C1F48FEF9E
:1042C000888319821B821A8287E10E94D66C0FC0F4
:1042D000123619F0133621F00AC086E990E202C0C6
:1042E00085E692E4DF91CF911F910C94D51249811C
:1042F000469550E020E067E47BE088E00E943D21A5
:104300004881469550E020E068E37BE080E10E9430
:104310003D2149818881481B469550E020E069E2B3
:104320007BE088E10E943D218A819B8129E1289FD1
:10433000A001299F500D11245695479556954795F4
:1043400020E360E27BE080E20E943D216DE07BE0C3
:1043500088E3DF91CF911F910C94C75E7F928F927B
:104360009F92AF92BF92CF92DF92EF92FF920F9304
:104370001F93CF93DF93EC01162FD42E4901B090F9
:1043800014084091650850916608209167083091A3
:104390006808E3E4F1E086819781841B950B97FD23
:1043A000CF96A6E095958795AA95E1F7682F80931B
:1043B000380880859185821B930B97FDCF9676E018
:1043C000959587957A95E1F7982F8093360866231F
:1043D00011F057834683992311F03187208780910C
:1043E0003708811104C08091820585FF06C01092B4
:1043F00038081092360810923708809138088111D9
:1044000008C080913608811104C082819381892B74
:1044100011F00E94E9128114910429F08881882307
:1044200009F4A4C178C180917008811103C081E0B2
:1044300080937008E114F10451F098818C2D9C1543
:1044400008F4892FF701E80FF11DE49101C0E0E0C5
:1044500080917008813081F58091B60118166CF456
:10446000BE1610F4B39411F588818A1518F48F5F85
:10447000888301C01882B12C19C08823B9F0B1100B
:1044800014C08881882319F08150888301C0A882D4
:10449000E114F10459F098818C2D9C1508F4892FB2
:1044A000F701E80FF11DB49001C0BA941092B60163
:1044B0001E3249F483E005C0833029F41E3219F41A
:1044C00081E080937008E114F10451F098818C2D03
:1044D0009C1508F4892FF701E80FF11D549101C0D4
:1044E00050E080913B08811145C0809136088823B7
:1044F00001F14881481B47FD40E08A2D90E0242FC0
:10450000332727FD3095281739070CF04A2D4883AB
:10451000E114F10459F0C41608F44C2DF701E40F2E
:10452000F11DE491EB1518F4BE2E01C0B12C1092D0
:10453000360828812223F1F0809138088823D1F0B1
:10454000B81AB7FCB12C8B2D992787FD9095E114F3
:10455000F10479F03C2D2C1508F4322FF701E30F0C
:10456000F11DE4912E2F30E0821793071CF0BE2E30
:1045700001C0B12C103669F190F4123409F477C0FF
:1045800028F41132B9F11E3221F19BC0143409F420
:1045900048C008F47AC0153409F454C092C01536E6
:1045A00009F454C040F4133609F472C0E8F5123629
:1045B00009F460C086C01E38D1F01F3B31F01138BD
:1045C00009F07FC010923B0823C0188210923B086C
:1045D0003BC08881811103C0892809F072C081E045
:1045E00090913B08911180E080933B086AC08EE86F
:1045F0000E94276380913B08882319F010923B08A2
:1046000060C08881882311F0892831F410927008E5
:1046100080E00E943E1A55C087E10E94D66C188245
:1046200050C0B51609F44DC0E114F10409F449C0B5
:1046300080913B08811145C0B51610F4B39412C0A7
:10464000B12C10C0B11002C0B12C3BC0E114F10478
:10465000C1F180913B08811134C0BB2011F0BA94A4
:1046600001C0B52E552369F11092AD012AC0888191
:104670008A1539F180913B08811123C088818A1500
:1046800010F48F5F0DC018820EC088818823C9F096
:1046900080913B08811115C08881882319F08150D1
:1046A000888301C0A882E114F10471F288818C151D
:1046B00008F4C82EF701EC0DF11DE491EB1508F498
:1046C000BE2E20913B0821110AC031E080914501A6
:1046D00090914601892B09F430E0832F01C081E0DD
:1046E00080933A08B0921408EF2811F482E003C0D6
:1046F0002111FCCF81E080933508DF91CF911F918C
:104700000F91FF90EF90DF90CF90BF90AF909F9070
:104710008F907F90089580913B08811103C081E0C4
:1047200080937008712C80917008811102C032E072
:10473000732E402F50E0272D60E08FE70E9420610C
:104740000A3010F00FE601C005E7272D4FE260E0C8
:10475000802F0E94E05D4D2D50E04F5F5F4F272D71
:1047600060E08FEF800F0E94206164CE809170081E
:10477000811111C08091B601181624F0882319F018
:1047800015E601C014E61092B6011E3259F481E01C
:104790008093700806C0813029F41E3219F41092FB
:1047A000700810E080913808882311F190913B083F
:1047B00091111EC0ED2DE81BE7FDE0E0202F30E059
:1047C0008E2F992787FD90958217930714F0EFEFAE
:1047D000E00FFF27E7FDF0958D2D90E0E817F90732
:1047E00029F0EE0FFF1FE80DF91D21C010923808C7
:1047F000153651F4D11001C0D02EF401ED0DF11D8C
:10480000ED0DF11D329713C0143611F52D2D30E04A
:10481000802F90E00197281739071CF411E01D0D37
:1048200001C010E0810E911C810E911CF401859154
:104830009491DF91CF911F910F91FF90EF90DF90B6
:10484000CF90BF90AF909F908F907F900C94D51297
:104850007724739468CFAF92CF92EF92FF920F9329
:10486000AE2CC12CE12CF12C0E94AE210F91FF90B7
:10487000EF90CF90AF9008958F929F92AF92BF929A
:10488000CF92DF92EF92FF920F931F93CF93DF931C
:10489000C82F81EE91E10E9401209BE0A92ECC243B
:1048A000C3942FEDE22E21E1F22E0BE02AE133E159
:1048B0004AE06C2F8CED98E00E94AE210091DC085C
:1048C00080901408C03611F0CE36D9F4083068F460
:1048D00015E8E12E14E0F12EC4E8D4E0CC24C39412
:1048E000D12C18E0A02EB12C10C088EF800F80933F
:1048F000EA088C2F0E94276385EC98E40E94551AE1
:1049000063C0083008F060C0E3CF6CED71E1812F27
:104910000E94C75E40E34C0D612F8CE00E946B5EED
:10492000912CAC14BD0459F4891009C000913508CC
:10493000002331F080913B08811104C001C000E0E8
:1049400080E001C081E0911012C0882339F06CE151
:10495000F70180810E94B712F7018083F70120815F
:1049600043E851E1612F88E40E94935E11C08823DF
:1049700031F04DE763E888810E94B4128883488152
:10498000552747FD5095202F612F8CE60E9420610E
:104990009394F2E09F12C5CF185F82E0E80EF11CFD
:1049A0002296EFEFCE1ADE0A103409F0AECFDF9177
:1049B000CF911F910F91FF90EF90DF90CF90BF901C
:1049C000AF909F908F900895B8EFAB2EA00E00E1AE
:1049D00015E0C1E3EC2ED8E0FD2E6AE771E18F2DE2
:1049E0000E94C75E4E2D6F2D8CE00E946B5EE80129
:1049F00020E048816F2D88E10E94C90F49815A81CA
:104A000020E06F2D8BE40E9420614B8150E04F5FCE
:104A10005F4F20E06F2D80E60E9420614C8150E0C6
:104A20004F5F5F4F20E06F2D8EE70E942061F8E01E
:104A3000FF0EE394055F1F4F88E2F812CECF6A2D78
:104A4000660F660F660F685F20E04EE780E0DF913B
:104A5000CF911F910F91FF90EF90DF90CF90BF907B
:104A6000AF909F908F900C94F55E1F93CF93DF9340
:104A7000C82FD62F142F47E16CE20E94D71F43E0C6
:104A80006BE28C2F0E94725F43E06CE28FEF8C0F21
:104A90000E946F5F812F69EF0E941170282F245DA3
:104AA0008D2F67E00E94117045E0622F8C0FDF911F
:104AB000CF911F910C94D71FCF92DF92EF92FF926C
:104AC0000F931F93CF93DF93CBE6D8E049816881A2
:104AD0008AE20E9435254A816B8186E50E94352550
:104AE000CDE5D8E028963AE3F32E0DE510E047E354
:104AF000C42E899199919C5FB8010E943370DD2486
:104B0000D394D60EEC2CE61A4D2D6E2D8F2D0E94CF
:104B1000725F4D2D6E2D81E08F0D0E94725F4D2DC5
:104B20006E2D82E08F0D0E94725F85E0F80E89E4A1
:104B3000F812DFCFDF91CF911F910F91FF90EF908F
:104B4000DF90CF900895EF92FF920F931F93CF9332
:104B5000DF93182FF62EEA01E22E202FEE2029F007
:104B600041E060E00E94A812182FBE018F2D0E9424
:104B7000C75E2E2D412F6F2D86E60E942021812FAA
:104B8000DF91CF911F910F91FF90EF9008950F93B8
:104B900001E00E94A3250F910895CF93C1E09C2FBF
:104BA000981B892F0E94C725C81B8C2FCF91089571
:104BB0000F9302E00E94A3250F9108951F93CF93B6
:104BC000DF93D62F122F0E94D825C82F212F482FD0
:104BD0006D2F86E60E942F218C2FDF91CF911F91A0
:104BE0000895AF92CF92EF92FF920F93CF93DF93FE
:104BF000C82F80E39CE00E94012056E0A52EC12C26
:104C00006FE2E62E6CE0F62E0BE02AE133E141E0A4
:104C10006C2F81ED98E00E94AE21C091D108D09117
:104C2000E301D295D695D77064E27CE088E00E94DB
:104C3000C75EC13089F464E08D2F0E94B712D82F6F
:104C4000982F9295990F907E8091E3018F71892B17
:104C50008093E30101E001C000E02D2F44E05CE01F
:104C600068E08AE50E94935E69EF7BE080E10E9444
:104C7000C75EC23049F464E28091E4010E94B71239
:104C80008093E40121E001C020E04091E40160E173
:104C900084E50E94C90FC33049F464E68091E501C0
:104CA0000E94B7128093E50121E401C020E4409105
:104CB000E50150E06EEE7BE088E10E943D2121E0BD
:104CC000C43009F020E08091E30140EE5BE060E257
:104CD00082FB882780F90E94DE259091E30180FB0A
:104CE00092F99093E30121E0C53009F020E0809132
:104CF000E30142ED5BE068E283FB882780F90E94D4
:104D0000DE259091E30180FB93F99093E30121E08C
:104D1000C63009F020E08091E30144EC5BE060E301
:104D2000829581700E94DE259091E30180FB94F9C9
:104D30009093E301DF91CF910F91FF90EF90CF908F
:104D4000AF900895FF920F931F93CF93DF93F82EA8
:104D5000142F022F0E94C75EC12FD0E0AE014F5F1B
:104D60005F4F202F6F2D84E50E942061002329F0E2
:104D70006FEFCE010E94BC12182F812FDF91CF91CF
:104D80001F910F91FF900895CF93482FCAE02AE01A
:104D9000829FC001112489519E4F2FE130E0241BD6
:104DA0003109C29FA001C39F500D1124BC01665F51
:104DB0007F4F0E94A970EDE1F3E0DF011D92CA95DB
:104DC000E9F782E00E94E657CF910C94F9580F93CF
:104DD000CF93C42F0E940C10002331F046E16AEEFD
:104DE0008C2F0E94B412C82F8C2FCF910F91089551
:104DF0000F931F93CF93DF93D82F162FC42F022F1B
:104E000047FF08C041E28AEF8D0F0E94E05D86E017
:104E10008C1BC82F2C2F46E250E1612F8D2F0E9452
:104E2000935EDF91CF911F910F9108950F931F9380
:104E3000CF93DF93182F062F0E94BB0FEC011111A7
:104E400008C001110FC08881882379F181508883BF
:104E50002CC0113288F5103219F4002329F02CC02F
:104E6000002311F01F5F01C01150812F0E94BB0F62
:104E7000FC0198818FEF890F8031F0F4208121317E
:104E8000D8F4291302C08BE007C0002301F390314E
:104E900060F49F5F988309C0815029F09081288138
:104EA00021939993F9CF1093E60882E0DF91CF9197
:104EB0001F910F910C94E657DF91CF911F910F91A5
:104EC000089580911D03882329F086EE9CE10E94BD
:104ED000551A81E00895BC0188E00E94C75E6AE02F
:104EE0007FE088E20E94C75E6BEF7EE080E30C9477
:104EF000C75ECF93C82F813669F08F3B39F080367B
:104F000099F4809111080E94C42604C080E00E9498
:104F1000D66C0AC08C2F0E94276381E00E943E1A43
:104F20008BEB96E40E94551A8FEE9EE0CF910C9485
:104F30006B270F93CF93C82F4FE06CE878E08091F8
:104F40000D080E94335700E12AE04CE858E060E188
:104F500081E00E946E5E4FE360E182E40E946B5E3E
:104F600080910E08882319F080E99EE002C083E852
:104F70009EE00E946B27C13651F1CF3B19F0C0363D
:104F800091F505C080E0CF910F910C94D66C809183
:104F90000E088823A9F081E79EE00E9458118091B5
:104FA0000D080E946A57882339F087E10E94D66C69
:104FB00082E080930E0809C080E00E94D66C05C094
:104FC00080910D088F5F0E941F5B80E601C081E623
:104FD0000E94276381E00E943E1A83E598E2CF9108
:104FE0000F910C94551ACF910F9108959091B6019D
:104FF00081E0191624F0911101C080E08195109292
:10500000B6010895CF93C82F0E94F62790911008FB
:105010002091AD012136E1F028F4203249F02E3202
:1050200039F008C0233671F038F02E3889F002C00C
:1050300081E00FC0181624F49C1730F49F5F04C061
:10504000882311F0911191509093100880E001C0D5
:1050500082E0CF9108950F931F93CF93DF93EC01DC
:10506000062F000F000F000F18E0011788F065EE03
:105070007EE0812F0E94C75EAE01612F88E10E9411
:10508000CD5EFE01849121968111FBCF185FEDCF9B
:105090002AEF210F40E367E082E1DF91CF911F917A
:1050A0000F910C944D618F929F92AF92BF92CF92CD
:1050B000DF92EF92FF920F931F93CF93DF93182FFE
:1050C0008BEB9BE00E940120F090D00880910C08AF
:1050D00081110BC0FFE0EF2E00E020E030E040E067
:1050E000612F80ED98E00E942B2465EB7BE080E04F
:1050F0000E94C75E0E943B5AAC0160E086E60E94B7
:105100004A61B090D00880910E08823021F410924C
:10511000CF0810920E08CB2DDD27C7FDD0958091CA
:105120003C089E01281B3109C901181619066CF0AC
:105130009E012150310937FF02C020E030E020936A
:105140003C08E0E1AE2E812C3CC025303105CCF38B
:105150009E01245031092B3031058CF32AE030E0D8
:10516000EECF00E196012F5F3F4F40E050E072E04C
:10517000E72E6A2D82E10E94B65F80916905981240
:1051800005C04AE26A2D81E00E946B5E4FE06CE848
:1051900078E0892D0E943357CC15DD05E1F480912C
:1051A000CF088823C1F001E12FE04CE858E06A2DD8
:1051B00088E10E946E5E839438E0A30E86E0881634
:1051C00061F090903C08980CC92CD12CCC15DD05D1
:1051D00041F601E1C7CF00E1E7CF80910C088823B9
:1051E00009F466C0909169058091D008981302C0B7
:1051F00003E001C004E0602F85EE92E10E942B28BD
:105200008FEF800F0E940228D82E00911008602F87
:10521000660F660F660F685F20E044E288E10E9437
:10522000F55E21E0D2123BC0011123C00091D008ED
:1052300000936905812F0E9427630E94F95800930B
:105240006905802F0E9409598091D7010E9413138C
:1052500082E080930D0181E00E94E6570E94F95898
:1052600080910C08823009F58FE39DE40E94D512ED
:105270001CC0033031F4812F0E94276310920E0866
:1052800004C0013049F400930E08B0920D0889E97A
:1052900097E20E94551A09C0D092CF0806C032E0AA
:1052A000D31256C0812F0E94276310920C0850C061
:1052B000163638F41436A0F4103649F1113649F098
:1052C00047C01138B1F11F3BC1F11E3609F040C093
:1052D0001EC08091CF088823D9F11092CF0838C022
:1052E000909169058091D008981749F0812F0E940C
:1052F00027631092100882E080930C0829C0109256
:105300007008153609F052C08CE394E251C08091C8
:10531000CF08882319F01092CF0808C0812F0E946F
:1053200027631092100881E080930C0810923B08CC
:105330000FC081E00E943E1A0BC01092CF0810925D
:105340000C08809169058093D00881E00E94425842
:105350008091CF088823E9F0FB14D9F061E06B0D50
:1053600081E08F0D0E94FD5A8091690590E0C81779
:10537000D90719F4F092690509C02F2D332727FDAD
:1053800030952817390729F4B092690581E00E9409
:10539000E657DF91CF911F910F91FF90EF90DF9033
:1053A000CF90BF90AF909F908F9008958FE39DE432
:1053B0000E94D512CDCFCF92DF92EF92FF92CF9382
:1053C000DF93FC01EB019C01DC010E94D86F9B0183
:1053D000AC01DE010E94EE6F272F382F492F552791
:1053E000DF010E94EE6F6B017C018CE0F694E79484
:1053F000D794C7948A95D1F724E630E02C1B3D0B57
:105400000E94D86F6E5C7F4F8F4F9F4F6C0D7D1D3C
:105410008E1D9F1D24E630E040E050E00E94477062
:10542000C901DF91CF91FF90EF90DF90CF90089569
:105430001F93CF93DF936115710529F1192F111F68
:105440001127111F19F091958195910977FF10C0CF
:10545000719561957109C0E0D4E09E01281B390B5C
:10546000C9010E94DB299E01281B390BC90102C01A
:105470000E94DB29112329F022273327281B390B0F
:1054800001C09C01C901DF91CF911F910895EF9256
:105490000F93CF93DF93382F862F642F922F21E025
:1054A000311101C020E0C091E8084EE0C49FE00146
:1054B0001124C958DC4F933631F4032F4C850E94D8
:1054C000E7268C8727C0923631F4032F4D850E9442
:1054D000E7268D871FC0E02FF0E0E90FF11DE90FEF
:1054E000F11DEE0FFF1FEE0DF11DEC0FFD1FEF0183
:1054F000011107C0E22E04E62CE948810E94661FD4
:1055000008C048814C59E22E04E620E00E94661F44
:1055100084568883DF91CF910F91EF90089590E0AA
:10552000E92FF0E0EA5DFB4EE491E81721F0EE236D
:1055300021F09F5FF5CF892F089580E00895823490
:1055400030F4E82FF0E0EA5DFB4E8491089580E2AC
:105550000895DF92EF92FF920F931F93CF93DF9303
:10556000E82E162FEA01D22EF02E67E772E1812F86
:105570000E94C75E00E12D2DAE01612F82E40E94E2
:105580006E5EFF20A1F18E2D880F8E0D880F209169
:105590003B0846E0612F8E5B0E94F55E4D2D440F67
:1055A0004D0D440F4C5F6FEF610F29E080E40E94C6
:1055B0004D6180913B088823D1F0CE0DD11D8881AB
:1055C00081110E948F2A2F2D41E460E00E94A812D1
:1055D0000E949F2A688170E0482F552747FD50950B
:1055E0006417750721F088838F2D0E94E657DF919D
:1055F000CF911F910F91FF90EF90DF900895FF9250
:105600000F931F93CF93DF93C82FD62FF42E122F13
:10561000622F842F0E945B11FC01E53F81E0F807B7
:1056200074F09BE09E0F9F1510F09CE09E0F40E3EE
:10563000490F202F6D2F8C2F0E94E05D07C0212F76
:1056400049E75CE06D2F8C2F0E94935EDF91CF9134
:105650001F910F91FF9008959F92AF92BF92CF92AA
:10566000DF92EF92FF920F931F93CF93DF93182F48
:10567000C091EA082AE0C29FE0011124CE56DB4F18
:1056800081E79CE00E94012033E0A32E42E0C42E7B
:105690005EE6E52E5CE0F52E00E020E030E040E044
:1056A000612F83ED98E00E94AE214091EA084F5CA3
:1056B00060E080E30E946B5EC090D30818E0D12CBC
:1056C000CD1003C0B090350801C0B12C82E0D816CF
:1056D00009F465C0A3E0DA1609F478C0B1E0DB167E
:1056E00071F067E67CE0812F0E94C75E0B2D2B2DA9
:1056F0004885612F80E30E94E726888783C061E6A2
:105700007CE0812F0E94C75E2CE3922EA12C809119
:1057100014088A1511F000E001C00B2D4091EA0831
:105720004F5F2A2D612F892D0E94FF2ABB2081F116
:10573000809114088A112CC080913A08882341F185
:105740007E01EA0CF11CEA0CF11CD701ED91FC91F1
:10575000CF018B509E4F843FB1E09B0714F484EF40
:1057600091E022E048EF51E064EF71E00E94F9110E
:10577000AC0180914D01882359F0443FE1E05E0780
:1057800011F440E050E0455F5140D7014D935C93E8
:10579000A394B6E09B0EE4E0AE12B9CF33C0BB20B9
:1057A00051F089856FE08F700E94B7128F709985D4
:1057B000907F982B998749854F702B2D2062F5E0BB
:1057C0004F9FA001112469E57CE019C0BB2061F066
:1057D00089856FE082958F700E94B7128295807FD5
:1057E00099859F70982B9987498542954F702B2DED
:1057F000206285E0489FA001112460E57CE0812FB4
:105800000E943D21D394185FA4E0DA1259CFDF91B2
:10581000CF911F910F91FF90EF90DF90CF90BF90AD
:10582000AF909F9008951F93CF93DF93C82FD62FEB
:10583000142F4DE45CE00E94CD5E40E3410F6D2FDC
:105840008CE08C0FDF91CF911F910C946B5E9F9237
:10585000AF92BF92CF92DF92EF92FF920F931F937E
:10586000CF93DF93C82F86E49CE00E940120E4E000
:10587000EE2E0BE02AE133E142E06C2F82ED98E05E
:105880000E942B24A090D208C03611F0CE3669F4C5
:10589000AA2059F08FEF8A0D8093EA088C2F0E947E
:1058A00027638CE29BE20E94551A61E47CE080E170
:1058B0000E94C75EDCE3C0E000E02C2F4BE35CE01D
:1058C00060E18D2F0E94935ECF5FDA5FC430A1F755
:1058D000CDECD1E078E1D72E11E07E018BE3E81A20
:1058E0008DEFF80ACC24C3941A11C12C412F6D2DD1
:1058F00086E00E94132C2C2DFE01E353FD4F4081C6
:105900006D2D88E10E940C106CE3962EB12C0C2DAD
:105910002B2D412F6D2D892D0E94FF2AB394E6E097
:105920009E0EF4E0BF12F3CFF7018185882331F09A
:105930002C2D4AE26D2D89E70E94E05D1F5FF8E0A3
:10594000DF0E2A96153049F60E946B1A682F660FF3
:10595000660F660F615F29E04AE180E0DF91CF9139
:105960001F910F91FF90EF90DF90CF90BF90AF907D
:105970009F900C944D6121E0411101C020E0405DF9
:105980000C94E05D4F925F926F927F928F929F9204
:10599000AF92BF92CF92DF92EF92FF920F931F933D
:1059A000CF93DF93482E82E4840D823038F48091C7
:1059B000E30881508093C4081092E3088091E308C3
:1059C000882301F121E8421206C010923B08109290
:1059D000E30881E813C091E6491691F0E1E24E1226
:1059E0003CC090913B08992319F010923B0808C0E5
:1059F00081508093C4081092E30881E20E942763DB
:105A000060E02CC09091C40881E0890FF4E64F1249
:105A100004C09430F8F488E006C025E6421205C0C0
:105A20008830C0F08AEF890F15C090E6491619F04A
:105A3000EEE24E120FC08093E308842D0E9427638C
:105A40008091E308843021F48AEE91E50E94551A92
:105A500081E0412C81508093C408642DA090E2081D
:105A6000AA94E0900E01F0900F01C12C00E020E01C
:105A700030E040E084EC98E00E94AE214092AD011D
:105A80001091C4088FE792E190930F0180930E016B
:105A90001092E208B09035084091E30850E04C3095
:105AA000510508F093C5FA01ED59FF4F0C94887029
:105AB0008AEC9AE00E9401208BE08093E208C1E02A
:105AC000C10F6CEC72E188E00E94C75E63E872E18E
:105AD00080E10E94C75E64EA72E188E10E94C75ECD
