:100000000C94230E0C944B0E0C944B0E0C944B0E34
:100010000C944B0E0C944B0E0C944B0E0C944B0EFC
:100020000C944B0E0C944B0E0C944B0E0C944B0EEC
:100030000C946C120C944B0E0C944B0E0C94EF120F
:100040000C9433100C944B0E0C94676C0C944B0E68
:100050000C944B0E0C944B0E0C944B0E0C944B0EBC
:100060000C944B0E0C94B7110C944B0E0C944B0E3D
:100070000C944B0E0C944B0E0C944B0E0C944B0E9C
:100080000C944B0E0C944B0E0C944B0E9D6CAC6D63
:10009000BB6CC06CAC6DD66CDB6CAC6DF16CF66C93
:1000A000AC6D0C6D116DAC6D276D2C6DAC6D426D32
:1000B000466D5D6D5F6D616D636D676D80400000C5
:1000C0000000000000000000000000000000000030
:1000D0000000000000000000000000000000000020
:1000E0000000000000000000000000000000000010
:1000F0000000000000000000000000000000000000
:1001000000000000000000000080C0E0E0F0F8F80F
:10011000FCFCFCF8F8F8F040000000000080808053
:1001200000000000000000000000000000000000CF
:1001300000000080C0C0E0E0E0F0F0F0E0C00000AF
:10014000000000C0F8FFFF9F87838383838383833E
:1001500083838383838383838383838383838303EF
:100160008380838383838383838383838383838362
:10017000838383838383838383C3E3733F1F00006D
:10018000000080E0F0F8FCFEFFFFFFFF7F3F1F1F35
:100190000F0783C3E1E1E0E0C0000E1F3F7F7FFF58
:1001A000F3E0E0800000000000000000000080F0AC
:1001B000FCFEFFFFFFFF7F3F0F0301010100000076
:1001C00080F0FEFFFFC7C1C1C1C1C1C1C1C1C1C172
:1001D000C1C1C1C1C1C1C1C1C1C1C1C101C1F0FE63
:1001E000FF3F0F070F0D0D0D1D1919191931313171
:1001F0003171616161E1C1C1C18100000080E0F83D
:10020000FCFFFFFFFF2F170F038180C0E0F0F8FC19
:10021000FEFFFFFFFFFFFF7F010000000000000066
:1002200001010307070E1E1C3870E0F0F8FEFFFF07
:100230007F1F0F030001000000000000000000000D
:1002400000000000000000000000000000000000AE
:10025000000000000000000000000000000000009E
:10026000000000000000000000000000000000008E
:100270000000000000000000000000007EFFFFFF03
:10028000FFFFFFFBF8FCFCFEFF7F3F1F0F07C3FFD4
:10029000FFFFFFFFFF7F07000000000000000000DD
:1002A0000000000000C0E0F8FEFFFF7F1F0F1F3DB1
:1002B0007CF8F8F0E0800000000000000000000082
:1002C000000000000000000000000000000000002E
:1002D000000000000000000000000000000000001E
:1002E000000000000000000000000000000000000E
:1002F00000000000000000000000000000000101FC
:10030000010101030707070301000000E0FCFFFFF4
:10031000FFFFFF1F030000000000000000000000BE
:10032000C0F078DE2713090E07030000000000006C
:10033000000001030F7FFFFC7878F8000000000048
:10034000000000000000808080808080808080002D
:10035000808000808000000000000000808080809D
:10036000808080808080808080808080808000008D
:10037000000000000000000000000000000000007D
:1003800000000000000000000080F0FEFFFFFFFF03
:100390003F0F010000000000000000C0E0381E0F09
:1003A0000300010000000000000000000000000049
:1003B0000000000000000000000303010000000036
:1003C0000000000000000E0E020202020203030001
:1003D0000F0F000F0F080808080808080F0F08087B
:1003E0000808080F0F000000000F0F0000000000B9
:1003F00000000000000000000000000000000000FD
:1004000000000000000000C0F8BFFFFFFF1F7F01D9
:100410000000000000000000F0FCFF7F78300000CA
:1004200000000000000000000000000000000000CC
:1004300000000000000000000000000000000000BC
:1004400000000000000000000000000000000000AC
:10045000000000000000000000000000000000009C
:10046000000000000000000000000000000000008C
:10047000000000000000000000000000000000007C
:100480000000000000301C070E0F070100000000F4
:10049000000000000000000000000000000000005C
:1004A000000000000000000000000000000000004C
:1004B00000000000000000000000000000000052EA
:1004C000554420454C45205448522041494C205227
:1004D00055442054485220454C452041494C204128
:1004E000494C20454C452054485220525544204107
:1004F000494C2054485220454C4520525544200038
:1005000003010200040506070000000000000108C6
:100510001E640101081E6401010F32960A0A1E3290
:10052000966D656E75537461636B206F7665726648
:100530006C6F77006D656E75537461636B20756EBB
:10054000646572666C6F7700707265737320616E9C
:1005500079204B657900414C455254004D45535329
:10056000414745004C4F4144494E4700506C65613E
:100570007365207265736574207468656D005377C8
:10058000697463686573206E6F74206F66660020FF
:100590004F6C642056657273696F6E2045455052EA
:1005A0004F4D202020434845434B20534554544948
:1005B0004E47532F43414C494200416C61726D7369
:1005C0002044697361626C656400526573657420D0
:1005D0007468726F74746C65005468726F74746CB4
:1005E00065206E6F742069646C650050726573736A
:1005F00020616E79206B657920746F20736B697050
:1006000000414C45525400454550524F4D206C6FAF
:1006100077206D656D004F464641425352557352E7
:100620005525454C73454C25544873544825414C39
:1006300073414C2550312050312550322050322505
:1006400050332050332500544852525544454C45B0
:1006500049443049443149443241494C4745415469
:10066000524E5357315357325357335357345357CE
:1006700035535736535737535738535739535741D4
:10068000535742535743004F4646004F4E20002DCC
:100690002D2D002D2D2D204348312043483220435D
:1006A00048332043483420434835204348362043CC
:1006B00048372043483820434839204348313043A5
:1006C0004831314348313243483133434831344370
:1006D0004831354348313643483137434831384350
:1006E000483139434832304348323143483232434B
:1006F0004832334348323443483235434832364334
:10070000483237434832384348323943483330005F
:100710005031202050322020503320204D4158208D
:1007200046554C4C43594331435943324359433363
:1007300050504D3150504D3250504D3350504D343B
:1007400050504D3550504D3650504D3750504D381B
:100750004348312043483220434833204348342023
:100760004348352043483620434837204348382003
:1007700043483920434831304348313143483132CE
:1007800043483133434831344348313543483136A7
:10079000002D2D2D2D00564552533A2056312E3422
:1007A0003836312D6572657A00444154453A20321D
:1007B000322E30392E323031310054494D453A20F5
:1007C00031313A31313A3537002053564E3A2074A0
:1007D00072756E6B2D7235343300204D4F443A20C4
:1007E000415244552020200012081200081C08081D
:1007F000081C080000082200490022080000000030
:1008000000227F2200000008220049002208000088
:1008100008220049002208000000227F2200000078
:100820000000082200490022080000081C080808EF
:100830001C08008C403E4309426649FD525E58BA8E
:100840003F784B26517D57D1381E373D3D743D03CF
:100850003E853E70756C736520746162206F7665AD
:1008600072666C6F770020202054546D00457870BC
:10087000457846466E654D656443727300544F5427
:10088000005354250053544B0054535700544D45C6
:100890000053544154005B4D454E555D20746F200C
:1008A0007265667265736800537461636B20202003
:1008B000202020202020206200746D61696E20209D
:1008C00020202020202020206D7300746D723120A4
:1008D0004A697474657220202020757300746D72EB
:1008E000314C6174206D696E202020207573007476
:1008F0006D72314C6174206D6178202020207573F9
:10090000005354415432004D6F646500416C617274
:100910006D205761726E696E67004D656D6F7279FB
:10092000205761726E696E6700537769746368203F
:100930005761726E696E67005468726F74746C658B
:10094000205761726E696E670053706C6173682026
:1009500073637265656E004F4646004C6967687444
:10096000206F6666206166746572004C6967687402
:100970002073776974636800466C617368206F6EDA
:100980002062656570004265657020636F756E74E6
:10099000646F776E004D696E757465206265657071
:1009A000005468726F74746C65207265766572733A
:1009B000650053494E474F534D5046494C540046ED
:1009C000696C7465722041444300496E61637469C7
:1009D0007669747920616C61726D0042617474652E
:1009E0007279207761726E696E6700436F6E747200
:1009F0006173740051756965744E6F4B65794E6F04
:100A0000726D204C6F6E6720784C6F6E6700426588
:100A100065706572004F776E6572204E616D65007E
:100A2000524144494F2053455455500043616C0096
:100A30004D756C7469706C696572006368316368C8
:100A400032636833636834006F6666202B3D203A5A
:100A50003D006D6F64652020202520737263202087
:100A6000737700536C61766500545241494E45528C
:100A70000000030303030056455253494F4E0054F0
:100A800072696D2D202B00204D656E7520457869AB
:100A90007420446F776E2020205570526967687407
:100AA000204C656674004449414700424700414E6E
:100AB0004100205B4D454E555D205748454E204432
:100AC0004F4E452000204D4F564520535449434B2F
:100AD000532F504F54532000205B4D454E555D2001
:100AE0005748454E20444F4E452000202020534576
:100AF00054204D4944504F494E5420202000205B43
:100B00004D454E555D20544F2053544152542020A2
:100B10000053544152542043414C4942524154499C
:100B20004F4E200043414C4942524154494F4E00E0
:100B300066726565004D4F44454C53454C00434F2C
:100B40004C20446972656374696F6E0041494C20A2
:100B5000446972656374696F6E00454C4520446951
:100B600072656374696F6E005377617368205269B0
:100B70006E6700436F6C6C656374697665002D2D3C
:100B80002D202020313230202020313230582020BA
:100B9000313430202020393020202020005377614C
:100BA000736820547970650048454C49205345547A
:100BB0005550000044454C455445204D4F44454C4C
:100BC0002020205B4D454E555D00543254685472D0
:100BD000696700547261696E657200452E204C6928
:100BE0006D69747300504F534E45470053686966F2
:100BF000742053656C0050504D2046724C656E2039
:100C00002020206D536563007553656300344348AD
:100C1000203643482038434820313043483132435E
:100C20004831344348313643480050504D2020204D
:100C300050585820202053494C565F4153494C5638
:100C40005F4253494C565F43545241433039005040
:100C5000726F746F00524554413132330042656502
:100C60007020436E74005472696D2053770045788C
:100C700070202020457846696E6546696E652020A3
:100C80004D656469756D436F617273650054726977
:100C90006D20496E6300542D4578706F00542D54BB
:100CA00072696D00436F756E7420446F776E436F89
:100CB000756E7420557020200054696D6572200097
:100CC000547269676765720054696D6572004E61A0
:100CD0006D650053455455500000090100000000A7
:100CE00000000602004475706C69636174696E6788
:100CF000206D6F64656C005B4D454E555D20205B3B
:100D0000455849545D0059455320202020204E4F1E
:100D10000044454C455445204D4F44454C004455F6
:100D2000504C4943415445204D4F44454C002041CF
:100D300042434445464748494A4B4C4D4E4F50511B
:100D400052535455565758595A61626364656667E1
:100D500068696A6B6C6D6E6F70717273747576779B
:100D600078797A303132333435363738395F2D2E51
:100D7000006578702020252020737731207377322A
:100D8000004558504F2F44520000034452204869F8
:100D90006768004452204C6F77004452204D6964CC
:100DA00000447253773200447253773100576569BB
:100DB000676874004578706F004558504F2F445253
:100DC00000002D2D2D783E30783C307C787C663EBE
:100DD00030663C307C667C63312063322063332094
:100DE0006334206335206336206337206338206303
:100DF00039206331306331316331326331336331F0
:100E000034633135633136002B2A52004D49584541
:100E100052005072657373205B455849545D2074CD
:100E20006F2061626F7274004D6178206D69786522
:100E300072732072656163683A200044454C4554E2
:100E400045204D4958205B4D454E555D00536C6F14
:100E5000772020557000536C6F772020446F776E99
:100E60000044656C61792055700044656C6179209F
:100E7000446F776E0041646420202020204D756C03
:100E80007469706C795265706C61636520004D7592
:100E90006C747078004F4646005761726E696E67D9
:100EA00000537769746368002D2D2D783E30783CAF
:100EB000307C787C663E30663C307C667C633120DA
:100EC000633220633320633420633520633620632C
:100ED0003720633820633920633130633131633127
:100EE00032633133633134633135633136004375F6
:100EF00072766573004F4E204F4646005472696DFE
:100F0000004F46464F4E2000466C4D6F646574722C
:100F1000696D004F666673657400466D5472696D45
:100F200056616C0057656967687400536F7572632A
:100F3000650045444954204D49582000494E5345C9
:100F40005254204D495820002D2D2D2D2020207643
:100F50003E6F66732020763C6F667320207C767C23
:100F60003E6F66737C767C3C6F6673414E442020F6
:100F700020204F522020202020584F522020202077
:100F800076313D3D7632207631213D763220763104
:100F90003E7632202076313C7632202076313E3D3E
:100FA00076322076313C3D7632200053570043554F
:100FB00053544F4D20535749544348455300000262
:100FC00053414645545920535749544348455300CB
:100FD00000020102030401020403010302040103ED
:100FE00004020104020301040302020103040201DA
:100FF00004030203010402030401020401030204C6
:1010000003010301020403010402030201040302B9
:1010100004010304010203040201040102030401A8
:101020000302040201030402030104030102040396
:101030000201434C454152204D49584553205B4DD8
:10104000454E555D002052455441004368616E6E27
:10105000656C204F726465720054454D504C41548C
:10106000455300434F5059205452494D205B4D4544
:101070004E555D002D2D2D494E56004C494D49547D
:1010800053000003030303030303030303030303E6
:101090000303030043560043555256455300505234
:1010A0004553455400454449542D3E00435552563E
:1010B000450009002D2D2D494E56004F46464F4EF6
:1010C0002000454550524F4D206F766572666C6F1B
:1010D0007700454550524F4D206F766572666C6FB4
:1010E000770067656E7772697465206572726F72DA
:1010F00000454550524F4D20466F726D61747469C2
:101100006E670042616420454570726F6D204461D6
:101110007461004D4F44454C2020202020004D4557
:101120002020202020202020005008500000000017
:10113000000000006F000007000700147F147F14F8
:10114000242A7F2A1223130864623649552250004C
:1011500005030000001C2241000041221C0014086D
:101160003E081408083E080800503000000808082F
:10117000080800606000002010080402003E494595
:101180003E0000427F4000625149460041494936D5
:10119000001814127F0027454539003E49493200A6
:1011A000017905030036494936000649291E000029
:1011B000363600000056360000081422411414147C
:1011C00014144122140800020151090600060909FD
:1011D000067E0909097E7F494949363E414141223F
:1011E0007F4141221C7F494949417F090909013E4C
:1011F0004149497A7F0808087F00417F410020402B
:10120000413F017F081422417F404040407F020C53
:10121000027F7F0408107F3E4141413E7F0909095A
:10122000063E4151215E7F09192946264949493226
:1012300001017F01013F4040403F1F2040201F3FF0
:101240004030403F63140814630708700807615179
:10125000494543007F4141000204081020004141FC
:101260007F000402010204404040404000010204AB
:101270000020545454787F4844443838444444202F
:10128000384444487F3854545418087E0901020CED
:101290005252523E7F0804047800447D40002040B2
:1012A000443D007F1028440000417F40007C04182A
:1012B00004787C0804047838444444387C141414BA
:1012C00008081414187C7C0804040848545454205A
:1012D000043F4440203C4040207C1C2040201C3CDB
:1012E0004020403C44281028440C5050503C44645A
:1012F000544C44000836410000007F000000413695
:1013000008000808221C08081C220808A0608000A9
:1013100000000000000000000000000000FFFF00CF
:1013200000000000001F3F00003F1F00003030FFA2
:10133000FF3030FFFF30303078CCCCFFFFCCCC8C8E
:101340000C060F0F86C0E070381C0C3CFEC7E3F3A0
:101350003B1E0C00000000333B1F0F00000000008C
:1013600000F0F81C0E07030000000003070E1CF835
:10137000F000003030E0C0FCFCC0E03030C0C0C045
:10138000C0FCFCC0C0C0C0000000000000000000A5
:1013900000C0C0C0C0C0C0C0C0C0C00000000000CD
:1013A000000000000000000080C0E070381C0C004D
:1013B00000000000000000000000000000383800BD
:1013C0000000000000000000000000000003033FD8
:1013D0003F03033F3F03030C0C0C0C3F3F0C0C0777
:1013E000030C0E07030100183C3C180F1F38313363
:1013F000331E1E3333000000000000000000000018
:101400000003070E1C38300000000030381C0E07A7
:10141000030000030301000F0F000103030000009D
:10142000000F0F000000000000333B1F0F00000002
:1014300000000000000000000000000000183C3C1C
:1014400018000000000C0E0703010000000000005F
:1014500000FCFE87C3E377FEFC00000C0EFFFF00DC
:1014600000000000000C0E0783C3E77E3C00000371
:1014700003C3C3C3E7FE3C0000C0E070381C0EFF8E
:10148000FF00003F3F33333373E3C30000FCFEC76C
:10149000C3C3C78E0C00000303C3E3733B1F0F00DD
:1014A000003CFEE7C3C3E7FE3C00003C7EE7C3C34D
:1014B000E7FEFC0000183C3C18000000000000188B
:1014C0003C3C18000000000000C0E0F0381C0E0793
:1014D000033030303030303030303003070E1C38BD
:1014E000F0E0C000000C0E07030383C3E77E3C005E
:1014F000000F1F3B3130381F0F000030303F3F30AE
:1015000030000000003C3E373331303030000030D6
:1015100030303030391F0F00000303030303033F53
:101520003F00000C1C383030381F0F00000F1F38F0
:101530003030391F0F000000003F3F000000000066
:10154000000F1F393030391F0F0000000030381CE9
:101550000E07030000060F0F060000000000003316
:101560003B1F0F000000000000000103070E1C38A5
:10157000300303030303030303030330381C0E0784
:1015800003010000000000000033330100000000F0
:10159000003C7EE7C3C3E77E3CF0F8DCCEC7C7CE95
:1015A000DCF8F0FFFFC3C3C3C3C3E7FE3CFCFE0788
:1015B00003030303070E0CFFFF030303070E1CF8CE
:1015C000F0FFFFC3C3C3C3C3C30303FFFFC3C3C34E
:1015D000C3C3C30303FCFE0703C3C3C3C7CECCFF0F
:1015E000FFC0C0C0C0C0C0FFFF00000303FFFF0377
:1015F000030000000000000303FFFF0303FFFFC020
:10160000E0F0381C0E0703FFFF00000000000000A0
:1016100000FFFF0E1CF8F81C0EFFFFFFFF3870E004
:10162000C08000FFFFFCFE070303030307FEFC006E
:101630000000000000000000003F3F00000000002C
:10164000003F3F3F3F3030303030391F0F0F1F38E1
:1016500030303030381C0C3F3F303030381C0E07F3
:10166000033F3F30303030303030303F3F000000FB
:1016700000000000000F1F3830303030303F3F3F57
:101680003F0000000000003F3F000030303F3F308F
:101690003000000C1C383030381F0F00003F3F0076
:1016A0000103070E1C38303F3F30303030303030CF
:1016B000303F3F0000000000003F3F3F3F00000080
:1016C0000103033F3F0F1F3830303030381F0FFF0A
:1016D000FFC3C3C3C3C3E77E3CFCFE07030303038E
:1016E00007FEFCFFFFC3C3C3C3C3E77E3C3C7EE7EA
:1016F000C3C3C3C3C78E0C03030303FFFF0303036A
:1017000003FFFF000000000000FFFFFFFF000000DC
:10171000000000FFFFFFFF000000000000FFFF0FC0
:101720001F38F0E0E0F0381F0F3F7FE0C08080C03E
:10173000E07F3F03030383C3E3733B1F0F0000FFFE
:10174000FF0303030300000C1C3870E0C08000009E
:1017500000000003030303FFFF000030381C0E07E6
:10176000070E1C3830000000000000000000003FA1
:101770003F00000000000000000F1F383033371E0C
:101780001C3F333F3F000003070E1C38300C1C3851
:1017900030303030391F0F000000003F3F000000A4
:1017A000000F1F3830303030381F0F03070E1C3841
:1017B000381C0E07030F1F38381F1F38381F0F3C07
:1017C0003E0703010103073E3C000000013F3F01CB
:1017D0000000003C3E373331303030303000003FC5
:1017E0003F30303030000000000000000103070EE1
:1017F0000C0000303030303F3F000000000000009F
:1018000000000000003030303030303030303000F8
:101810000003070E1C38300000000030303030303C
:1018200070E0C0FFFFC0E070303070E0C0C0E0701A
:1018300030303030300000C0E070303070E0C0FF39
:10184000FFC0E0703030303070E0C0C0C0FCFEC778
:10185000C303070E0CF0F89C0C0C0C0C0CFCFCFFEA
:10186000FFC0E070303070E0C000003030F3F300B3
:10187000000000000000003030F3F30000FFFF0024
:1018800080C0E07030000000000303FFFF00000094
:1018900000F0F03070E0E07070E0C0F0F0C0E07098
:1018A000303070E0C0C0E0703030303070E0C000E8
:1018B0000000000000000000000C1E3F33333333F3
:1018C000333F3F3F3F3030303030381F0F0F1F382D
:1018D00030303030381C0C0F1F3830303030303F53
:1018E0003F0F1F3B3333333333030300003F3F00CD
:1018F0000000000000000133333333333B1F0F3F40
:101900003F0000000000003F3F000030303F3F300C
:101910003000000C1C383030381F0F00003F3F03F0
:10192000070F1C38300000000030303F3F303000DF
:10193000003F3F0000030300003F3F3F3F00000027
:101940000000003F3F0F1F3830303030381F0FF09D
:10195000F03030303030F0E0C0C0E0F0303030E017
:10196000C0F0F0F0F0C0E070303070E0C0C0E0F0E7
:10197000303030303000003030FFFF3030000000B9
:1019800000F0F0000000000000F0F0F0F0000000B7
:10199000000000F0F0F0F0000000000000F0F03077
:1019A00070E0C08080C0E07030F0F0800000000087
:1019B00000F0F03030303030B0F0F070300000C067
:1019C000E03C3E0703000000000000FFFF000000B5
:1019D00000000003073E3CE0C00000C0C0C0C00CD7
:1019E0001CF8F0E0C0C0E0F0F81C0CC0C0C0C03F64
:1019F0003F03030303030301000001030303030385
:101A0000033F3F3F3F000000000000000030313343
:101A1000333333333F1E0C00000F1F383030381C77
:101A20000C0F1F383030381C0C3F3F03070E1C389A
:101A3000381C0E07030F1F38381C1C38381F0F3096
:101A4000381C0F07070F1C38300001333333333392
:101A50003B1F0F30383C3E37333130303000000010
:101A6000010F1F38300000000000003F3F00000061
:101A700000000030381F0F01000000000000000CC3
:101A80000E07030100000103070E0C0000000040D8
:101A900080080420100201171B231B291B361B3D45
:101AA0001B4A1B551B601B010203040102040301B6
:101AB00003020401030402010402030104030202FD
:101AC00001030402010403020301040203040102EE
:101AD00004010302040301030102040301040203DD
:101AE00002010403020401030401020304020104CD
:101AF00001020304010302040201030402030104BE
:101B000003010204030201010203040103020404AD
:101B10000203010403020153696D706C6520342DCA
:101B2000434800542D43757400537469636B7920E6
:101B3000542D43757400562D5461696C00456C65D5
:101B4000766F6E5C44656C74610048656C69205307
:101B500065747570004779726F20536574757000F5
:101B6000536572766F20546573740020415244555A
:101B70002050494C4F54204D656761203F2F38203D
:101B8000002052544C2044697374616E63650020D8
:101B90004172647550696C6F74204D6F64650020EC
:101BA000506974636820416E676C650020526F6CE9
:101BB0006C20416E676C650020436C696D62205239
:101BC000617465200020416972205370656564204E
:101BD000002044697374616E636520002057617949
:101BE00020506F696E742023200020426561726965
:101BF0006E670020436F757273650020416C7469D5
:101C00007475646520486F6C640020416C7469745D
:101C10007564650020436C696D62207261746500B3
:101C20002047726F756E6420737065656400204C88
:101C30006F6E67697475646500204C6174697475B2
:101C4000646500003B1211241FBECFEFD0E1DEBF60
:101C5000CDBF11E0A0E0B1E0E0EBF2EE02C00590F4
:101C60000D92A833B107D9F71EE0A8E3B1E001C097
:101C70001D92A83EB107E1F71CE1C6E4DCE104C017
:101C80002297FE010E941071C434D107C9F70E9447
:101C9000491B0C9456710C9400009AE0899F9001A6
:101CA000112423553E4FC901089595E0899F900165
:101CB000112423513D4FC901089587E496E008950A
:101CC0008C3038F4E82FF0E0EE0FFF1FE15FFA4FA1
:101CD0002CC0803188F4E82FF0E0EE0FFF1FDF0109
:101CE000AE5ABE4FE75BFB4F0190F081E02D8D9126
:101CF0009C91E81BF90B0BC0843160F4E82FF0E0F5
:101D0000EE0FFF1FE75BFB4F0190F081E02DEE0F20
:101D1000FF1F0EC0843218F0E0E0F0E009C0E82FA9
:101D2000F0E0EE0FFF1FEB50FB4F0190F081E02D34
:101D3000CF010895E0914904F0E0EE0FFF1FEF5B43
:101D4000FB4F8081918108959C01E0914904F0E06E
:101D5000EE0FFF1FE15CFB4F918380838FEBF90156
:101D6000099590914B048CE38093380490933A0446
:101D700082E080933B04089580914A04882341F4D3
:101D800080915A04882321F480915C04882311F007
:101D900084E105C08091C504882321F0815080939F
:101DA000C50408C08091630090E096958795817086
:101DB0008093C6048091C604089510925E04109228
:101DC000600410925F0410925D040895E0E0F5E075
:101DD000E80FF11DE491F0E0EE0FFF1FE753FB4F1A
:101DE00020813181C9010895EF92FF920F931F93D3
:101DF000CF93DF9380917C0190E081709070C2E07E
:101E0000D0E0C81BD90B10917E011170E9EDF4E010
:101E1000A9ECB4E040E050E0E12C78E0F72E042F8C
:101E2000842F806487B9369A349BFECF349A2089F8
:101E300031898D919C91119796958795820F931F6B
:101E40008E7F11969C938E9360817181260F371F30
:101E500036952795318B208B84B195B1C417D50762
:101E600041F4043030F4112321F09701281B390B81
:101E7000C901860F971F96958795819391934F5F20
:101E80005F4F12964830510551F6DF91CF911F9167
:101E90000F91FF90EF9008958F929F92AF92BF9213
:101EA000CF92DF92EF92FF920F931F93DF93CF9326
:101EB000CDB7DEB760970FB6F894DEBF0FBECDBFCB
:101EC000FE01319680E1DF011D928A95E9F780914C
:101ED0007C0190E081709070A2E0B0E0A81BB90B8B
:101EE00070917E0171704F0129ECE22E24E0F22EF8
:101EF00040E050E08D01000F111F0E0D1F1DA12CA1
:101F000088E0B82E2EC0D7B8369A349BFECF349ACC
:101F100084B195B1280F391F6F5F6430A1F7F401C8
:101F200031832083C90196958795F701918380833A
:101F3000A417B50759F4F3E0FC1540F0772331F00E
:101F40009501281B390BF801318320834F5F5F4FC8
:101F500022E030E0820E931EE20EF31E483051055F
:101F600049F0C42EF4012081318160E0E0E4DE2EEE
:101F7000D42AC9CF60960FB6F894DEBF0FBECDBF8E
:101F8000CF91DF911F910F91FF90EF90DF90CF9055
:101F9000BF90AF909F908F9008950F931F93CF9312
:101FA000DF9380917C0190E08170907042E050E07E
:101FB000481B590B60917E016170A9ECB4E020E0F0
:101FC00030E0FA01EE0FFF1FEA0FFB1FC0E0D8E080
:101FD000722F822F806487B9369A349BFECF349A51
:101FE00084B195B1880F991F11969C938E934217D7
:101FF000530749F4743038F4662329F08E01081B26
:10200000190B118300832F5F3F4F12962830310543
:10201000F9F6DF91CF911F910F9108958EE587B961
:10202000369A349BFECF349A369A349BFECF349A3C
:1020300084B195B1049640917204509173049A0151
:1020400063E0220F331F6A95E1F7241B350B820FE3
:10205000931F23E0969587952A95E1F79093730453
:102060008093720408951F920F920FB60F9211245D
:102070008F93809174048F5F809374048F910F907D
:102080000FBE0F901F901895FC0114AE15AE16AE42
:1020900017AEE05CFF4F1192108234961082329698
:1020A000108236961192118210820895CF93DF9399
:1020B000DC01FC01EC01659690E0993099F41996E9
:1020C0001C92199753961C9253975D961C925D979C
:1020D00097961C929797D1961C92D197DB961C925B
:1020E000DB970CC081818083838582878881848B84
:1020F000878D868F8C898B8B8E8D8D8F9F5F319690
:1021000021969A30D1F6DF91CF910895CF93DF9346
:10211000EC01C75BDF4F8881C954D040813059F54D
:10212000CC5BDF4F8881C454D040882311F01B9AC8
:1021300001C01B98DE01A35BBF4F8C91FE01E25BE7
:10214000FF4F813091F4808191811816190624F493
:1021500080916500846013C0809165008B7F8093BF
:1021600065001C92118210820CC0808191810197C0
:102170009183808306C01B98809165008B7F80933C
:1021800065009881992321F48AA9813009F0A0C0C3
:10219000CC5BDF4F8881C454D040882309F098C0BD
:1021A000C75BDF4F8881C954D040882309F090C0B5
:1021B0002A852223D1F12917C1F130918501CE5B07
:1021C000DF4F930F9883C254D0408881281720F4A2
:1021D000982F921B20E003C0922F981B21E0CE5B2A
:1021E000DF4F830F8883C254D0408A85830FCD5B35
:1021F000DF4F888321969883C454D0408E8DC85B6E
:10220000DF4F8883239781E089932883C654D04089
:1022100088A5C65BDF4F8883CA54D0408AA9C35BB8
:10222000DF4F8883CD54D04026C0CE5BDF4F8091F6
:102230008501980F965F9883C254D0408C89CC5BFF
:10224000DF4F8883C454D0408E8DC85BDF4F8883B6
:10225000C854D04088A5C65BDF4F8883CA54D0409D
:102260008AA9C35BDF4F8883279718821A92229727
:102270001882C354D040C75BDF4F21E028832596E6
:1022800084EF91E09983888324979881CA54D04041
:10229000992361F0FE01E45BFF4F8081882331F4D4
:1022A0002083C55BDF4F9883CB54D040DE01A45B15
:1022B000BF4F8C91813049F4FE01E55BFF4F808177
:1022C00081508083882321F41C92CE010E945610F5
:1022D000809110018150809310018F5F09F044C0FC
:1022E0008DE480931001CC5BDF4F8881C454D040D3
:1022F000882321F1C75BDF4F8881C954D0408130EA
:10230000E9F4CB5BDF4F8881C554D040813081F444
:10231000CA5BDF4F8881C654D040FE01EE5BFF4FA1
:10232000813019F480818F5F02C080818150808369
:10233000FE01EC5BFF4F808181508083CC5BDF4FDF
:102340008881C454D040882379F4DE01A75BBF4F55
:102350008C91813049F4FE01E85BFF4F8081815010
:1023600080838F5F09F41C92DF91CF910895789458
:102370001F920F920FB60F9211242F933F934F93FA
:102380005F936F937F938F939F93AF93BF93EF93DD
:10239000FF932091800030918100F89480917D001E
:1023A0008F7D80937D0078948091C7049091C804BC
:1023B000A901481B590B569547953093C8042093A3
:1023C000C70420917104822F8150883048F5CA01DA
:1023D000815293408757954000F5E22FF0E0EE0FD1
:1023E000FF1FE15AFB4F4C5D5540809182019927B8
:1023F00087FD90950A96BC01469FC001479F900DAE
:10240000569F900D11246AE070E00E94BE707183A7
:1024100060832F5F209371040BC01092710408C079
:10242000415A5F404F5D5E4218F481E08093710431
:10243000F89480917D00806280937D00FF91EF9100
:10244000BF91AF919F918F917F916F915F914F91CC
:102450003F912F910F900FBE0F901F901895E9EEAE
:10246000FEE001C0319680818535E1F39F01285E51
:102470003E40C9010895809165008B7F809365007F
:10248000A5E7B4E0FD0174961C921A961C921A9767
:1024900010825E961C925E97148A168E1196319663
:1024A00084E0A038B80781F7FD01F796D7961C9213
:1024B000D797D8961C92D897DF961C92DF97D9961B
:1024C0001C92D997DE961C92DE9711861286CD015A
:1024D0000B970E94441008951F920F920FB60F920F
:1024E00011242F933F934F935F936F937F938F9319
:1024F0009F93AF93BF93EF93FF9390E08CB58A3097
:1025000008F065C09F5F923309F461C0F7CFC09AAD
:102510001092090504C0C09881E08093090580915C
:102520001407909115079C012417350708F49A01A8
:102530003093150720931407809113019091140193
:102540009C014217530708F49A0130931401209319
:102550001301A0911101B0911201FD01819191919E
:102560009BBD8ABDF0931201E093110112968D91EB
:102570009C911397892BA9F488E197E0909312011D
:10258000809311018091A90181708093090587B71B
:102590008F7E87BF78940E946621F89487B7806108
:1025A00087BF80915004816080935004FF91EF9128
:1025B000BF91AF919F918F917F916F915F914F915B
:1025C0003F912F910F900FBE0F901F9018954CB513
:1025D0005DB580910905882309F099CF9CCF789447
:1025E0001F920F920FB60F9211242F933F934F9388
:1025F0005F936F937F938F939F93AF93BF93EF936B
:10260000FF93F89487B78D7F87BF789481B78E5FEB
:1026100081BF85E794E00E94861080915C04882346
:1026200021F480915A048823B9F08CE38093B1049B
:1026300080914E048093B30480915A04882319F04A
:102640008F5F8093B50481E08093B4048093BC04D1
:1026500010925C0410925A04909138049923A9F1C5
:102660009093B104409139044093B20430913A04FC
:102670003093B30420913B042093B40481E0809311
:10268000BC0480913D04813011F48093B604909392
:10269000750440937F0430938904209393048091C0
:1026A000B50480939D048091B6048093A70485E7C8
:1026B00094E00E9444101092380410923904109251
:1026C0003A0410923B0410923D0480910F01815016
:1026D00080930F018F5F51F48DE480930F010E946E
:1026E0007E6880915004826080935004F89487B78C
:1026F000826087BFFF91EF91BF91AF919F918F91C2
:102700007F916F915F914F913F912F910F900FBEED
:102710000F901F901895AF92BF92CF92DF92EF92D9
:10272000FF920F931F93CF93DF93D82EA42E85E0B3
:10273000841708F4EFC0DD2009F4EFC096E1D91644
:1027400009F4EAC08AEED81609F4E4C02D2D332727
:1027500027FD3095C90137FF04C088279927821BC0
:10276000930B8A3084F41D144CF08DE090E0821BB2
:10277000930B0E94D56761E06827CFC0C9010D9611
:102780000E94D567A3C0E82EFF24E7FCF09486EFF3
:102790009FEFE80EF91ED701AA0FBB1FAE0DBF1D9C
:1027A000AD56BE4FA85ABD4F8C91A855B240882354
:1027B00009F4B0C0FD01EA5AFD4FC080ED01C95ACD
:1027C000DD4FB880853008F4B4C0883028F400E0CC
:1027D00010E0E0E0F0E00AC08C2D81500E94600E15
:1027E0008C01888181500E94600EFC01E701CC0FB2
:1027F000DD1FCE0DDF1DC551DC4F2881283088F448
:10280000253008F049C0223031F1233020F4213046
:1028100009F080C01CC0233011F1243009F07AC0C7
:1028200029C02A3009F462C02B3038F4283009F46A
:1028300053C0293009F06EC054C02C3009F460C078
:102840002C3008F458C02D3009F064C05EC01D144F
:102850000CF44CC05AC01D140CF44DC051C020E003
:10286000C80117FF03C0909581959F4FE817F9079E
:1028700064F40AC020E0C80117FF03C09095819559
:102880009F4F8E179F070CF421E01D1414F4622F44
:1028900044C061E0622741C01A2D1F5F8C2D60E0AB
:1028A000412F0E948B13082F8B2D60E0412F0E9437
:1028B0008B139881953031F4002361F1682F8823C0
:1028C00061F12AC0963021F4002331F5682F25C02C
:1028D00060E0081709F521C060E00E171F07E9F452
:1028E0001BC060E00E171F07B9F417C060E0E017C7
:1028F000F1079CF411C060E00E171F0774F40CC0C0
:1029000060E00E171F074CF007C060E0E017F1070A
:1029100024F002C060E001C061E0862FDF91CF911A
:102920001F910F91FF90EF90DF90CF90BF90AF90ED
:1029300008958C2D81500E94600E8C01988189E24F
:102940009802F0011124F595E795F595E79597FD27
:10295000915C96FB990F990B90F9892F992787FD28
:102960009095E81BF90B42CF1F93CF93DF93682F0D
:10297000782F7F7076502091A50122306CF033279C
:1029800027FD30952150304081E090E002C0880F53
:10299000991F2A95E2F7282F783008F082C0872FF8
:1029A0008595A82FB0E0FD01EE0FFF1FEF5FFE4FF2
:1029B0000190F081E02D1081222311F0422F10C0F0
:1029C000412F552747FD509557FF03C0509541951E
:1029D0005F4F242F47FD2D5F422F459545954F5F53
:1029E00020917C0130E02170307082E090E0821B09
:1029F000930B8A179B0711F050E00CC08091A40143
:102A00008F7011F450E002C044E051E080917E01EB
:102A100080FD4195812F992787FD9095242F33279D
:102A200027FD309570FF04C0E901C80FD91F03C00E
:102A3000EC01C21BD30B209721F0812F8D2787FF3C
:102A40000BC0552349F4112339F01082862F0E94C0
:102A50005C6890914E0419C0CE0184589F4F893F05
:102A6000910510F4C08307C01C161D0614F083E8FE
:102A700001C08DE7808386E00E94635CC358DF4F0E
:102A8000CB3FD10568F490914C048CE380933804DB
:102A900090933A0482E080933B0481E080933D046C
:102AA00060E0862FDF91CF911F9108951F93F894D6
:102AB0002091C40E3091C50E789440E080910D05B0
:102AC00090910E052817390709F041E0409357040B
:102AD000F8948091C40E9091C50E789490930E0551
:102AE00080930D0583E495E060E00E949724809137
:102AF0005704882309F419C180915D0480FF14C034
:102B000090915E04892F8F5F80935E04843660F01D
:102B1000935690935E0480915F04909160040196B7
:102B20009093600480935F0480E00E94765C0E9432
:102B300037670E9445670E94B414182F809158048B
:102B400090915904009729F001979093590480932C
:102B50005804112389F08091800190E024EF31E046
:102B6000AC01429FC001439F900D529F900D1124D4
:102B700090935904809358048091690160E040E08B
:102B80000E948B13882339F4809158049091590442
:102B9000892B09F4C8C0C79A20911B0530911C05E8
:102BA0008091520490915304821B930B60E270E079
:102BB0000E94BE70709355046093540461157105B2
:102BC00091F080910B0590910C05821B930B62E0B4
:102BD00070E00E94BE70709355046093540430936B
:102BE00053042093520430930C0520930B05E0917D
:102BF0004904F0E0EE0FFF1FE15CFB4F0190F08114
:102C0000E02D812F09950E9404670E94BC0E882345
:102C100021F0809165008F7E03C080916500806106
:102C200080936500F8948091C40E9091C50E7894BD
:102C30008F7190708230910521F0039709F075C073
:102C40005BC0E7E0F5E0E491F0E0EE0FFF1FE75333
:102C5000FB4F0190F081E02DCF0168E070E00E9411
:102C6000BE7080916801992787FD909506969C011A
:102C7000629FC001639F900D729F900D112420915F
:102C8000560430E02F5F3F4F6091720470917304DF
:102C900054E0EE0FFF1F5A95E1F78E0F9F1F0E9421
:102CA000BE70260F371F35952795209356048091C7
:102CB0000A05805E80930A058823B9F58091670133
:102CC000281798F5223388F190914F048CE3809374
:102CD000380490933A0482E080933B0481E080932F
:102CE0003D0480917E0183FF20C082E390E09093B9
:102CF00059048093580419C080917B01869586956C
:102D00008695877090E0BC01660F771F660F771F6E
:102D1000680F791F685F7A4F8BE494E045E050E0DC
:102D20000E94147102C0C79837CF1F9108950F9366
:102D30001F938091740402B7109174048117C9F72E
:102D4000E0917F01F0E0EE0FFF1FE75FFE4F019083
:102D5000F081E02D09950E940E100E945615809179
:102D60005004833019F4A8951092500440917404D3
:102D700052B7809174044817C9F7912F80E0202F33
:102D800030E0822B932B342F20E0452F50E0422B54
:102D9000532B2091160730911707481B590B4217E8
:102DA000530708F4A90150931707409316071F9182
:102DB0000F9108958F929F92AF92BF92CF92DF9220
:102DC000EF92FF920F931F93CF93DF93182F7B0106
:102DD0004A015901C02E84FD04C004E0D02E05E054
:102DE00005C01F701066B5E0DB2E04E08D2D8066F7
:102DF000181761F08D2D8064181741F090913E05F1
:102E0000992391F0133611F0133471F4E7012196F0
:102E100080914B049CE39093380480933A0482E0C1
:102E200080933B04802F1DC0802F8066181761F0AF
:102E3000802F8064181741F0992309F48FC012364F
:102E400019F0123409F08AC0E701219780914B04F0
:102E50009CE39093380480933A0482E080933B048F
:102E60008D2D90E00E94D567882351F0CC27DD2777
:102E7000CE19DF09802F0E945C688D2D0E945C684E
:102E80008114910491F481E0A816B10471F4103614
:102E900061F410923E05C0E0D0E0E114F10411F4B9
:102EA000C1E0D0E080E60E945C688091540490917B
:102EB0005504C81BD90BAC16BD0694F4812F0E9493
:102EC0005C6890914E048CE38093380490933A04AC
:102ED00082E080933B0481E080933D04E50114C0CF
:102EE000C815D9058CF4812F0E945C6890914E041E
:102EF0008CE38093380490933A0482E080933B04FF
:102F000081E080933D04E401CE15DF05B9F0209700
:102F100069F4812F0E944D6880914B049CE390934B
:102F2000380480933A0482E080933B048C2D8370B4
:102F30000E94635C81E08093510402C010925104AE
:102F4000CE01DF91CF911F910F91FF90EF90DF9015
:102F5000CF90BF90AF909F908F900895E70190CF52
:102F60000F93772767FD7095552747FD50953327B9
:102F700027FD30950E94DA160F9108950F93772759
:102F800067FD7095552747FD5095332727FD3095F0
:102F900001E00E94DA160F9108950F93772767FDDD
:102FA0007095552747FD5095332727FD309502E052
:102FB0000E94DA160F9108950F931F938C010E94BF
:102FC000376782E260E04CE555E024E00E945964F6
:102FD00080E068E1A8010E9493640E9404678091E8
:102FE00066010E94FA661F910F910895EF92FF9279
:102FF0000F931F93082FF62E142FE22E442329F04F
:10300000463139F04A3E81F408C08A5F4FE856E005
:1030100007C08A5F4BE856E003C08A5F47E856E086
:103020002E2D0E94596423C0441F4427441F405E34
:103030000E945D63202F2A5F412F552747FD509541
:1030400057FF03C0509541955F4F842F992787FD07
:1030500090950197AC01440F551F480F591F495BCC
:10306000594F822F6F2D23E00E2D0E9418641F915F
:103070000F91FF90EF900895DF92EF92FF920F93E0
:103080001F93F82EE62ED42E10919E01812F9927A2
:1030900087FD909597FF03C0909581959F4F803154
:1030A0009CF443E08402A00111244A5E594F8F2D05
:1030B0006E2D23E00D2D0E9418641F3F4CF58F2DBF
:1030C00086506E2D41E221C0853274F411161CF435
:1030D000412F4F5002C0412F415F8F2D86506E2DE2
:1030E0002D2D0E94F61714C011161CF4412F4452C6
:1030F00002C0412F4C5D8F2D86506E2D2D2D0E94CC
:10310000F6178F2D8E5E6E2D4DE62D2D0E945D6380
:103110001F910F91FF90EF90DF9008950F93022F72
:1031200050E0440F551F440F551F4D56594F24E092
:103130000E9418640F9108950F93942F022F442337
:1031400019F441E957E01DC0453090F440917C01ED
:1031500050E0440F551F440F551F41505040490F38
:10316000511D440F551F440F551F41545B4F09C05B
:10317000453250F450E0440F551F440F551F445042
:10318000594F24E00E9418640F91089586B38095EA
:103190008E77E1F70E9442670895FF920F931F9385
:1031A0008C01F62E0E94376782E260E046E555E02A
:1031B00024E00E94596480E068E1A8010E949364C1
:1031C0008CE168E348E455E00E9493640E94046740
:1031D000FF2011F089E102C0809166010E94FA6629
:1031E00090914F048CE38093380490933A0482E0EA
:1031F00080933B0481E080933D040E94C61886B30F
:1032000080958E77C9F480915004833019F4A89585
:10321000109250048091690160E040E00E948B139D
:10322000882331F480918001882311F4FF2011F06C
:10323000C79AE5CFC798E3CF1F910F91FF900895EC
:103240009C0180914904E82FEF5FE0934904E53049
:1032500040F08093490481E295E060E00E94CD183F
:10326000089590914B048CE38093380490933A0432
:1032700082E080933B04F0E0EE0FFF1FE15CFB4F28
:10328000318320838FEBF90109950895E09149047A
:10329000EE2319F4882329F41CC0882311F4E1508B
:1032A00001C0E0E0E093490490914B048CE38093EB
:1032B000380490933A0482E080933B04F0E0EE0FF0
:1032C000FF1FE15CFB4F0190F081E02D8EEB099533
:1032D000089584E395E060E00E94CD180895809100
:1032E0003E04882351F08FE895E060E00E94CD18FD
:1032F00080913E048E7F80933E04089580917B01EF
:1033000087FD07C0887329F48AEB95E060E00E948E
:10331000CD18089580917B0182FD0AC00E94795FDB
:10332000883C910528F487E096E060E00E94CD1883
:1033300008951F93CF93DF9386B380958E7721E016
:1033400030E0682F70E0422FCB01022E02C095952D
:1033500087950A94E2F780FD06C04F5F2F5F3F4FCD
:103360002830310581F7142F11501630A8F5812F20
:103370000E941C5D882381F110936501812F0E94BA
:103380006A5E81E00E94635C0E94376786E160E0CC
:1033900044E655E024E00E945964C3E9D1E01AE014
:1033A000812F68E1499124E00E945D63155F183721
:1033B000B9F70E940467809166010E94FA668091C5
:1033C0006901882321F480918001882311F0C79A34
:1033D00001C0C7980E94C618DF91CF911F91089530
:1033E000EF92FF920F931F938C017B010E9437672E
:1033F00082E260E041E056E024E00E94596480E00F
:1034000060E2A8010E94936480E068E2A7010E9444
:10341000936480E060E34BEE55E00E9493640E9469
:103420000467809166010E94FA660E94C6181F9187
:103430000F91FF90EF9008951F9380917B0181FD84
:103440002EC08EE795E06CE675E00E94F0191EE054
:103450000BC0113141F0812F8D5060E040E00E949F
:103460008B13882329F41F5F163198F31631B9F0B6
:1034700086B380958E7799F406C080918001882369
:1034800059F0C79A0AC08091690160E040E00E944B
:103490008B138823B1F7F1CFC7981EE0DCCF1F91C3
:1034A00008950F931F93CF93DF9380917B0180FD4D
:1034B00051C080917C0190E081709070C2E0D0E0BA
:1034C000C81BD90BFE01EE0FFF1FE85CFE4F018108
:1034D0001281005F1F4F87859089081B190B0E947E
:1034E000CD0FEC2FF0E0E050FB4F8491C82FD0E0DF
:1034F000CC0FDD1FC753DB4F88819981081719074F
:103500004CF586B380958E7729F512C00E94CD0FB9
:103510008881998108171907ECF486B380958E7716
:10352000C9F40DC080918001882391F0C79AEECF35
:1035300089ED95E06AEC75E00E94F019E7CF809183
:10354000690160E040E00E948B13882379F7EACF9D
:10355000C798DCCFDF91CF911F910F9108950F9302
:103560001F93CF93DF9380917E0184FD8DC0809166
:10357000690160E040E00E948B13882329F4809168
:103580008001882309F473C0C79A0E94376780E0DE
:1035900060E04CEB50E020E000E00E94006380E03F
:1035A00068E349E851E02AE000E10E9418640E94C3
:1035B0000467809166010E94FA660E94C61800E0C6
:1035C0000E94F40E0F5F0032D9F720E035E000E0F2
:1035D00010E0F9018491E82FF0E0EE0FFF1FE753B0
:1035E000FB4F80819181892F9927080F191F2F5F29
:1035F0003F4FF5E024303F0761F7F894C091C40EC7
:10360000D091C50E7894C057DE4F27C00E94F40EAB
:1036100020E035E040E050E0F9018491E82FF0E04F
:10362000EE0FFF1FE753FB4F80819181892F992770
:10363000480F591F2F5F3F4FF5E024303F0761F7D8
:1036400086B380958E7701F540175107E9F411C0D4
:10365000809180018823B1F0C79AF8948091C40EBC
:103660009091C50E7894C817D90781F60DC0C798F8
:103670008CCF8091690160E040E00E948B13882329
:1036800059F7E6CFC798E9CFDF91CF911F910F91FE
:1036900008951F939FEF9ABB1BBA81E887BB8EE703
:1036A00088BB8EE384BB81EC85BB11BA92BB88E0FA
:1036B00082B987EF83B9109261001092620080E1B5
:1036C00080936400909365000E94BF660E94C06D65
:1036D00080E487B985E886B987E083BF8CE981BF3C
:1036E00087B7836087BF1FBC8AE08EBD10928B00B6
:1036F00082E880938A0080917D00806280937D00C3
:10370000EDB7FEB7329785E502C0808331974EE072
:10371000E83EF40709F0C8F7789483EA90E39093C1
:10372000400480933F0489E10E94FA660E94A25EF1
:10373000109165010E9499190E94AF1A0E948A197E
:103740000E94CD0F0E94511A0E941C1A0E947E19DD
:103750000E946F190E94C61880EF90E09093730446
:10376000809372040E9466212DE088E190E00FB6FC
:10377000F894A89581BD0FBE21BD83E495E060E07B
:103780000E9497248CE890E40E94201981E00E9416
:103790004619809166010E94FA668091800190E04E
:1037A00024EF31E0AC01429FC001439F900D529F36
:1037B000900D1124909359048093580480916501D1
:1037C000181729F081E00E94635C0E940C5D80ED77
:1037D00097E09BBD8ABD80E186BF87B7806187BFC8
:1037E0000E949716FDCF0F931F93062F122F206272
:1037F00050E00E948E6617FD07C08091990E602FE1
:1038000046E7212F0E945D631F910F910895242F99
:10381000409156040E94F31B0895AF92BF92CF923D
:10382000DF92EF92FF920F931F93CF93DF93F82EC7
:10383000B62EEA01122FA02E57FF10C022FD02C0A3
:103840008FE001C08CE19F2D981B892F6B2D4DE2DD
:10385000212F0E945D63D095C195DF4F2A2D212332
:103860008F2D6B2D4AE30E945D63812F90E004E071
:10387000C02ED12CC822D92212FD02C0E0E001C026
:10388000E2E0CE016CE370E00E94BE709B01442731
:1038900037FD4095542F10618E2F8F0D6B2D012F0A
:1038A00012E0E12E0E946565CD2811F4E1E101C02E
:1038B000ECE1CE016CE370E00E94BE709C014427F5
:1038C00037FD4095542F80E1A82A8E2F8F0D6B2D48
:1038D0000A2DB2E0EB2E0E946565DF91CF911F911A
:1038E0000F91FF90EF90DF90CF90BF90AF90089531
:1038F00099E28902900111243595279535952795F0
:1039000087FD815C86FB880F880B80F9992787FDEE
:103910009095281B390BC9010895EDEAF1E090E07C
:1039200080818150803108F49F5F3A9682E0ED3EBD
:10393000F807B1F7892F08956F927F928F929F9227
:10394000AF92BF92CF92DF92EF92FF920F931F93AD
:103950003B017C0100E010E08824992464E670E0DB
:1039600080E090E06619770988099909A801970114
:103970000E948B705B016C0182E390E0A0E0B0E0FC
:10398000A80EB91ECA1EDB1EC801B7010E948B70AB
:103990000E948B70BC0188279927A40193010E9483
:1039A0008B7024E096958795779567952A95D1F742
:1039B000A60EB71EC81ED91EC601B50124E630E00A
:1039C00040E050E00E94D170C9011F910F91FF901B
:1039D000EF90DF90CF90BF90AF909F908F907F90AF
:1039E0006F900895FF920F931F939C01AB01611597
:1039F000710531F1FF2497FF05C0FF24F394309542
:103A000021953F4F57FF10C000E014E0662777274D
:103A1000641B750BC801821B930B0E949C1C9801B0
:103A2000281B390BC90104C0C901BA010E949C1CA2
:103A3000FF2011F49C0104C022273327281B390BD7
:103A4000C9011F910F91FF900895282FEEE2FDE02C
:103A500080E09491921731F03196992311F08F5FA5
:103A6000F8CF80E00895823410F080E20895E82FC6
:103A7000F0E0E25DF24F8491089510929606109264
:103A80008F0610928E061092930610929206109254
:103A90009106109290061092950610929406089541
:103AA000AF92BF92CF92DF92EF92FF920F931F934C
:103AB000CF93DF935B016C0100E010E8C0E0D0E839
:103AC000EE24FF249E0140E050E0CA01B9010E94AB
:103AD0008B70A616B706C806D90610F4C027D127E2
:103AE000169507950894E11CF11C80E1E816F10495
:103AF00061F4CE01DF91CF911F910F91FF90EF9074
:103B0000DF90CF90BF90AF900895C02BD12BDACF2C
:103B10009C0140E0683008F041E070E0442371F01F
:103B2000CB010897FC0163E0EE0FFF1F6A95E1F7F8
:103B3000E80FF91FDF01AF55BC4F0AC0FB01EE0FC4
:103B4000FF1FEE0FFF1FE60FF71FDF01A758BC4F47
:103B5000FD01808120503C4F37FD0EC068E02030D1
:103B6000360784F0442319F484E090E002C088E032
:103B700090E0A80FB91F8C91992787FD9095582F39
:103B8000442733C0442331F0432FB9017070660FCE
:103B9000771F04C0432F4695B9017170842F90E0C0
:103BA000FD01E80FF91F8181992787FD90959B0101
:103BB00035952795829FA001839F500D929F500DB0
:103BC00011242081332727FD309580E092E0861B69
:103BD000970B95958795BC01269FC001279F900D57
:103BE000369F900D1124480F591FCA0169E170E0FA
:103BF0000E94BE70CB0108956F927F928F929F9228
:103C0000BF92CF92DF92EF92FF920F931F93CF93C9
:103C1000DF938091A90181FD04C0C12C94E0D92ECD
:103C200003C0C12C85E0D82EB090A301BB0C88E066
:103C3000B80E9091A60184E69802A0011124485A7A
:103C40005D4F66247724641A750A8091AC01992728
:103C500087FD909528EE33E0829FB001839F700D21
:103C6000929F700D112468537045641B750BC3E45B
:103C7000D5E0E8E1F7E0AB2DB0E0AA0FBB1FAC0F39
:103C8000BD1F882499248C189D0808E512E0041BA8
:103C9000150B1BC02881398176012C153D050CF4CC
:103CA0007901C701E814F9040CF4C401805A964F55
:103CB0009301281B390B620F731F51834083800FC0
:103CC000911F9383828322963496CA17DB0711F7DC
:103CD000EB2DEE0FAE2FB0E0AA0FBB1FA85EB84FC2
:103CE0004D935C93EF5FAE2FB0E0AA0FBB1FA85EB1
:103CF000B84F6D937C93EF5FF0E0EE0FFF1FE85E2F
:103D0000F84F11821082DF91CF911F910F91FF9098
:103D1000EF90DF90CF90BF909F908F907F906F90AB
:103D20000895EF92FF920F931F93DF93CF93CDB738
:103D3000DEB760970FB6F894DEBF0FBECDBF80919F
:103D4000A90181FD03C060E074E002C060E075E09D
:103D500080EF8093120980910D04809313091092D3
:103D600015091092140940E050E000271127061BA6
:103D7000170B7E010894E11CF11CFA01ED5BFA4F70
:103D80000190F081E02D9B01E617F7070CF49F01ED
:103D9000F701E40FF51FC801A02F892F02171307A1
:103DA0001CF4C901A22F892FA08381834E5F5F4F2E
:103DB0004E30510511F78981809316098A819B81C4
:103DC000292F2295207F8F70822B809317098C8159
:103DD0008295807F92959F70982B909318098D8182
:103DE000809319098E819F81292F2295207F8F70C2
:103DF000822B80931A0988858295807F92959F7087
:103E0000982B90931B09898580931C098A859B8533
:103E1000292F2295207F8F70822B80931D098C85FE
:103E20008295807F92959F70982B90931E098D8527
:103E300080931F098E859F85292F2295207F8F7063
:103E4000822B8093200988898295807F92959F702C
:103E5000982B9093210940E050E0A2E1B9E070E096
:103E600060E004E110E03C91603111F4372F01C0B3
:103E7000730FFA01EE0FFF1FE85EF84F20E0118389
:103E8000008330FD03C08AE090E002C08EE190E044
:103E9000938382832F5F3496283011F0330FEFCF56
:103EA000405F5F4F6F5F613111F01196DCCF60961C
:103EB0000FB6F894DEBF0FBECDBFCF91DF911F913B
:103EC0000F91FF90EF900895A0912309B0912409DC
:103ED000FD018193919313967C936E931297329682
:103EE000F0932409E09323090895882329F020E61C
:103EF00039E080E699E004C020EB34E080EB94E008
:103F0000A0912309B0912409FD0181939193139607
:103F10003C932E9312973296F0932409E093230951
:103F200008951F93182F82700E94751F812F817032
:103F30000E94751F1F910895CF92DF92FF920F93F9
:103F40001F93DF93CF9300D0CDB7DEB78091A2014E
:103F5000823019F0833019F404C010E003C011E07E
:103F600001C012E0209143053091440520503C4FA0
:103F7000220F331F809145059091460580509C4F3C
:103F8000880F991F892F232F37FD20E087FD80E0C0
:103F9000022F20310CF00FE0F82E2FE0281714F438
:103FA0006FE0F62E2F2D332727FD3095802F992790
:103FB00087FD909509968217930714F40F2D0950E9
:103FC000C02EDD24C7FCD094275F3F4F2C153D0544
:103FD0001CF457EFF52EF00E80E797E19093190748
:103FE0008093180780EB94E090931B0780931A0747
:103FF0008CE197E0909324098093230980E00E944C
:10400000911FA0912309B091240980E699E0FD0158
:104010008193919320EB34E013963C932E93129767
:10402000DF0112969383828313963C932E9312970B
:104030001496B0932409A0932309812F0E94911F05
:104040001195C60195958795959587958A830E94C8
:10405000911F3A81131B802F0E94911F101B8F2DDF
:10406000992787FD9095959587959595879589834F
:104070000E94911F8981181B8F2D0E94911F812FF3
:104080008F190E94911F80E00E94751FE091230903
:10409000F091240980E69AEE9293829332961192DF
:1040A0001192F0932409E09323090F900F90CF9180
:1040B000DF911F910F91FF90DF90CF900895A09115
:1040C0002309B0912409882341F0FD0180E293E0A7
:1040D0008193919380E496E007C0FD0180E496E02F
:1040E0008193919380E293E013969C938E93129721
:1040F0003296F0932409E093230908950F931F93B8
:10410000082F10E0802F81700E945F201F5F0695AE
:104110001830C1F71F910F910895482F18161CF001
:1041200010923D050895282F332727FD3095809163
:104130003D05281B3109862F90E08217930724F450
:10414000461B40933D05089506972817390724F428
:104150004A5F461B40933D0508950F931F9388E1E6
:1041600097E090932409809323098091250991E099
:10417000892780932509882309F454C08091430539
:1041800090914405885F9B4F44E0969587954A95AA
:10419000E1F78038910510F08FE790E0182F20911B
:1041A00045053091460537FD0FC0C901409635E001
:1041B000969587953A95E1F78034910510F08FE355
:1041C00090E0082F00640FC080E190E0821B930B09
:1041D00025E0969587952A95E1F78034910510F0B2
:1041E0008FE390E0082F812F0E947E20802F0E9475
:1041F0007E200127802F90E09C0104E035952795D3
:104200000A95E1F714E0880F991F1A95E1F7822BC0
:104210000E947E20A0912309B0912409FD0180E134
:1042200097E230C0809147059091480580509C4F9F
:10423000B4E096958795BA95E1F78038910510F02E
:104240008FE790E0082F0068802F0E947E208EE884
:104250000E947E208EE8082710E0C801A4E0959512
:104260008795AA95E1F7F4E0000F111FFA95E1F7A1
:10427000802B0E947E20A0912309B0912409FD018A
:1042800080EB96E38193919380EA9FE013969C9351
:104290008E9312973296F0932409E0932309E091CC
:1042A0002309F091240911921192F0932409E093CB
:1042B0002309E851F740EC38F1052CF083E598E04C
:1042C00060E00E94CD181F910F9108958091A20186
:1042D000853038F4823070F4882331F0813079F4FD
:1042E00006C0853061F409C00E94FC1D08950E943B
:1042F000911E08950E949C1F08950E94AD2008956C
:10430000FF920F931F93CF93DF93082F10919E017D
:10431000812F992787FD909597FF03C090958195F0
:104320009F4FF82E24E228170CF03FC0209133094C
:10433000309134098091310990913209282B392B21
:104340008091350990913609282B392B80913009BD
:1043500090E0282B392B80912D0990E0282B392BC8
:10436000232B39F410922D0917FF03C081E08093AD
:104370002D0911161CF4812F845202C0812F8C5DEF
:1043800060E040E00E948B13282F882361F0809129
:104390002D09882341F490E080913009882309F4A5
:1043A00091E09093300920932D09C0913309D09169
:1043B00034092196D0933409C0933309E09131092F
:1043C000F0913209E00FF11DF0933209E0933109C9
:1043D000F8948091C40E9091C50E7894209135097F
:1043E00030913609821B930B8436910508F465C120
:1043F0002C593F4F3093360920933509CF01BE0128
:104400000E94AA70062F862F90E0AC014C9FC0013D
:104410004D9F900D5C9F900D1124E81BF90BF093BC
:104420003209E093310910923409109233095FE0A8
:104430005F151CF01092300910C084E28F156CF0EB
:1044400011161CF4812F8F5002C0812F815F60E014
:1044500040E00E948B138093300980918C069091EC
:104460008D06019690938D0680938C0660918E0642
:1044700070918F066F5F7F4F70938F0660938E06EB
:10448000002349F0809192069091930601969093B3
:1044900093068093920680913009882349F0809199
:1044A00090069091910601969093910680939006C4
:1044B00006954091940650919506400F511D5093DA
:1044C000950640939406C091A001D091A101D0938C
:1044D0009806C093970630919E01832F992787FDF8
:1044E000909597FF03C0909581959F4F882319F46D
:1044F0001092960622C0813021F4CE01861B970BC4
:1045000018C0803170F480FF07C0CA0154E096954E
:1045100087955A95E1F709C080919206909193068C
:1045200004C08091900690919106AE01481B590BF2
:10453000CA019093980680939706809196068130E1
:1045400041F0813018F08230F1F40EC03323D9F0FD
:1045500017C08091970690919806181619069CF03E
:10456000209789F082E00DC080919706909198067F
:10457000855C9F4F1CF483E080939606209719F486
:1045800081E080939606E0919706F09198068091DD
:104590002E0990912F098E179F0709F480C0309142
:1045A0009606313009F063C040917E0142FF3EC063
:1045B0002097E1F1EE31F10569F422E020935A04ED
:1045C00090914D048CE38093380490933A042093A7
:1045D0003B0416C0E431F10519F430935A0406C0C7
:1045E000EA30F10519F0E430F10564F480914D04EE
:1045F0009CE39093380480933A0482E080933B04D8
:1046000030933D0443FF12C0EE31F10549F0E4312F
:10461000F10531F0EA30F10519F0E430F10534F438
:1046200082E390E0909359048093580441FF37C08F
:1046300080919F0180FF04C0CE018E1B9F0B01C0A3
:10464000CF016CE370E00E94AA70892B41F5909134
:104650004D048CE38093380490933A0482E0809375
:104660003B0481E080933D0443FF19C012C0323007
:10467000B1F490914E048CE38093380490933A0403
:1046800030933B0481E080933D0480917E0183FF61
:1046900006C082E390E09093590480935804F0930D
:1046A0002F09E0932E0980919F0180FF06C0CE1B49
:1046B000DF0BD0939806C0939706DF91CF911F919F
:1046C0000F91FF90089580919E01992787FD909505
:1046D00097FF03C0909581959F4F82304CF18031B8
:1046E0003CF5982F95958A3034F4892F0E944B69B8
:1046F000E82FF0E004C0E92FFF27E7FDF0953197A0
:10470000EE0FFF1FE15FFA4F2081318180919E0102
:1047100087FF05C080E094E0821B930B03C0C901B2
:1047200080509C4FE6E096958795EA95E1F702C0A8
:1047300080E090E00E94802183E00E944B69E82F96
:10474000F0E0EE0FFF1FE35FFA4F0190F081E02DE4
:10475000E050FC4F66E0F695E7956A95E1F78091A9
:104760009F0182FF0AC0E530F10538F080915D04B9
:10477000882319F483E080935D0460912909709186
:104780002A096F5F7F4F70932A096093290940912E
:104790002709509128094E0F5F1F50932809409315
:1047A0002709F8948091C40E9091C50E78942091B9
:1047B0002B0930912C09821B930B885E934060F18A
:1047C000F8948091C40E9091C50E789490932C0922
:1047D00080932B09109228091092270910922A0918
:1047E00010922909809112079091130701969093D6
:1047F00013078093120720911107E22FF0E0E7568C
:10480000F94FCA010E94AA7060832F5F209311079D
:10481000283710F01092110708950F931F93CF932C
:10482000DF9386E291E0E3E6F5E0DF019C011D9273
:1048300021503040E1F790918906CDEAD1E000E0C7
:1048400010E051E060E04881442309F440E104179E
:1048500050F5202F712F352F2F5F872F90E0FC010F
:10486000EE0FFF1FE80FF91FEE0FFF1FDF01AD591D
:10487000BA4F11962C9311978C9181608C93EB59C0
:10488000FA4F30833F5F14966C937F5F241720F3B9
:10489000802F8095042F952F9F5F980F180F140F6E
:1048A000940F592F515078817723D1F1812F90E0C7
:1048B0009C01220F331F280F391FD901AA0FBB1FDC
:1048C000AD59BA4F11964C93119715966C93159755
:1048D0008C9182608C9313965C9313975F5F8A85AB
:1048E000F9013196781741F4EE0FFF1FED59FA4F99
:1048F000108214961C920AC0EE0FFF1FED59FA4F5A
:1049000050835F5F6F5F14966C936150952F6F5F5C
:104910002A96603219F45093890604C01F5F93CF22
:1049200090938906DF91CF911F910F9108952F9257
:104930003F924F925F926F927F928F929F92AF922F
:10494000BF92CF92DF92EF92FF920F931F93DF936C
:10495000CF93CDB7DEB76A970FB6F894DEBF0FBE20
:10496000CDBF998F888F6A8F80915704882309F46F
:104970007FC080913F05882319F0815080933F05C7
:1049800080917D01863F09F473C080915604823383
:1049900008F46EC080912C088F5F80932C088031C2
:1049A00058F080912D0890912E08019690932E0832
:1049B00080932D0810922C082091A4073091A50710
:1049C0008091A6079091A707280F391F8091A8070B
:1049D0009091A907280F391F8091AA079091AB07E2
:1049E000280F391F80912F0890913008A901481B8A
:1049F000590BCA0157FF03C0909581959F4F815075
:104A0000914044F03093300820932F0810922E08E4
:104A100010922D0840912D0850912E0880917D0113
:104A2000992787FD90950A9620E737E1BC01629FA0
:104A3000C001639F900D729F900D112434E09695F4
:104A400087953A95E1F78417950790F44370507075
:104A50004130510569F490914E048CE38093380401
:104A600090933A0482E080933B0481E080933D047C
:104A70009090AB01992009F468C080917C0190E08E
:104A8000FC01E170F0703196EE0FFF1FE15FFA4F0D
:104A90000190F081E02D9C012270307081FD03C0F7
:104AA000A3E0B0E002C0A0E0B0E0AA0FBB1FA15F8E
:104AB000BA4FCD90DC90232B19F4A3E0B0E002C0F4
:104AC000A0E0B0E07F010027F7FC0095102FAA0FAF
:104AD000BB1FA15FBA4F6D917C91882777FD8095B0
:104AE000982F9601442737FD4095542F0E948B70D4
:104AF0005B016C01C801B701A80197010E948B708E
:104B0000A60EB71EC81ED91E692D70E080E090E089
:104B10000AE0660F771F881F991F0A95D1F724E6D0
:104B200030E040E050E00E94F370B901CA010E94F9
:104B30008B706A157B058C059D0538F4C601B5019F
:104B40000E94501D9A8B898B02C01A8A198AA989E2
:104B5000BA89BD0180E090E024E630E040E050E01A
:104B60000E948B706C8B7D8B8E8B9F8B19E3612EDB
:104B700011E0712EB9E44B2EB3E05B2E1B8ACC24DE
:104B8000DD2488249924BA8D2B2E3324E1E02E22B3
:104B900033241C2D8C2D0E94E60E9C01D3018D9197
:104BA0009C911197281B390B121613062CF45C9656
:104BB000ED91FC915D9705C0D3011E96ED91FC919E
:104BC0001F97E436F10514F4E4E6F0E0B901882714
:104BD00077FD8095982FAAE0660F771F881F991F91
:104BE000AA95D1F79F01442737FD4095542F0E9485
:104BF000F3707901BCEF21303B0724F4E12C5CEF2A
:104C0000F52E07C0E4E020303E071CF0E12C44E024
:104C1000F42EF401E15FFA4FF182E082C7010F96B2
:104C20004F97F0F4F4E0CF16D1047CF4812F8F5F1E
:104C30000E944B6990E0019721E030E002C0220F12
:104C4000331F8A95E2F7C90108C081E090E00C2C7F
:104C500002C0880F991F0A94E2F73B89382B3B8BDF
:104C6000143008F08AC1222009F05EC080919F01B3
:104C700081FF5AC08601000F111F0E581E4FD80128
:104C800011968C911197807C09F44EC08C9185957A
:104C90008595859561E040E00E948B13882309F497
:104CA00043C0D801EC91E770F0E0EE0FFF1FDF0189
:104CB000A659BE4FEF59FB4F808191812D913C91B8
:104CC000821B930B62E070E00E94BE70F601EE0F53
:104CD000FF1FED58FE4F4081842F880F880F859568
:104CE0008595992787FD9095FC016E9FC0016F9F68
:104CF000900D7E9F900D11246FE170E00E94BE70B8
:104D0000CB01880F991F880F991F429546954695AC
:104D1000437050E04130510529F04230510521F4F3
:104D20007C0102C0E80EF91E29893A89232B79F10A
:104D300080917C01282F30E0C9018170907001962C
:104D4000C816D90651F021FD03C083E090E002C0EF
:104D500080E090E0C816D906D1F46091AB0170E014
:104D600080E090E01AE0660F771F881F991F1A9560
:104D7000D1F79701442737FD4095542F0E948B703F
:104D80002C893D894E895F890E94F3707901D20197
:104D90008C9160E040E00E948B13882311F400E0C6
:104DA0000BC0F201818160E040E00E948B138823F8
:104DB00011F002E001C001E080917C0190E081707F
:104DC0009070B2E0AB2EB12CA81AB90AAC14BD0495
:104DD00061F58091A401807F41F1C70180509C4F13
:104DE00062E070E00E94BE70CB01E02FF0E0EE0FB9
:104DF000FF1FEE0FFF1FA601440F551F9A0163E02E
:104E0000220F331F6A95E1F7241B350BE20FF31FC6
:104E1000E35CFC4F6081772767FD70950E94F21C70
:104E2000DC01AA0FBB1F10E026C010E01E141F04F7
:104E30000CF011E0802F90E09601220F331FF90152
:104E4000A3E0EE0FFF1FAA95E1F7E21BF30B880F1B
:104E5000991F880F991FE80FF91FED56FE4FE10FBC
:104E6000F11DE655FE4F6081772767FD7095C701FC
:104E70000E94F21CDC01E02FF0E0EE0FFF1FEE0FAE
:104E8000FF1F9601220F331FC90143E0880F991FAE
:104E90004A95E1F7821B930BE80FF91FED56FE4F81
:104EA000E10FF11DE455FE4F6081772767FD709596
:104EB0006C597F4F882777FD8095982F9D01442757
:104EC00037FD4095542F0E948B7024E630E040E07F
:104ED00050E00E94F3707901AC14BD04B9F59091D3
:104EE000A401892F807F09F42CC720E03CEFE20E5B
:104EF000F31E27C760E074E06E197F09882777FDED
:104F00008095982FF501EE0FFF1FEF5FFE4F019088
:104F1000F081E02D2081332727FD3095432F532F3B
:104F200023583F4F4F4F5F4F0E948B7020E038E077
:104F300040E050E00E94F370C901DA01803038E0AF
:104F4000930730E0A30730E0B30761F4F401EF5FAB
:104F5000FE4F0190F081E02D8081282F332727FD1F
:104F6000309501C09C01220F331FE1E0F0E0EC0F0F
:104F7000FD1FE80DF91D31832083F401EC55F84F36
:104F8000F182E0820894C11CD11C42E050E0640E22
:104F9000751E840E951E6EE070E0460E571E77E07B
:104FA000C716D10409F0F5CD4091A8018B8948239B
:104FB000242F30E08091310890E0822793278223CC
:104FC0009323892B69F090914C048CE380933804EF
:104FD00090933A0482E080933B0481E080933D0407
:104FE0004093310880E094E09093B3078093B20738
:104FF0009093B5078093B4070CEB402E07E0502E3A
:10500000B20140E050E0FA01EF59FB4FDA01A85C31
:10501000BE4F80819181D2962D913C91D397821B76
:10502000930B880F991FDB018D939D93BD014E5FFC
:105030005F4F4830510539F78091690490916A04B7
:10504000880F991F9093C5078093C40780916B04C4
:1050500090916C04880F991F9093C7078093C6079F
:1050600080916D0490916E04880F991F9093C907E9
:105070008093C80780916F0490917004880F991FE6
:105080009093CB078093CA07ECEEF7E0FA87E987A5
:10509000ACECB7E0808191818D939D93349628E0AC
:1050A000EC32F207B9F79090AB01992009F4C1C036
:1050B00080917C0190E0FC01E170F0703196EE0F80
:1050C000FF1FEC55F84F0190F081E02D9C012270FC
:1050D000307081FD03C0A3E0B0E002C0A0E0B0E00A
:1050E000AA0FBB1FAC55B84FCD90DC90232B19F401
:1050F000A3E0B0E002C0A0E0B0E07F010027F7FC31
:105100000095102FAA0FBB1FAC55B84F6D917C9125
:10511000882777FD8095982F9601442737FD409585
:10512000542F0E948B705B016C01C801B701A8016C
:1051300097010E948B70A60EB71EC81ED91E692D3E
:1051400070E080E090E04AE0660F771F881F991FAB
:105150004A95D1F724E630E040E050E00E94F37039
:10516000B901CA010E948B706A157B058C059D05EB
:1051700008F05FC0C601B5010E94501DE0907C019F
:10518000FF248701017010700F5F1F4F2091AB014A
:10519000A22EBB24CC24DD243AE0AA0CBB1CCC1CE0
:1051A000DD1C3A95D1F7A0E0B0E0BC01CD0124E6CA
:1051B00030E040E050E00E948B703B014C01000F5A
:1051C000111F0C55184FD8012D913C91442737FDE4
:1051D0004095542FC601B5010E948B70A401930124
:1051E0000E94F370F80131832083E1FC05C0E3E005
:1051F000F0E003E010E004C0E0E0F0E000E010E0E8
:10520000000F111F0C55184FEE0FFF1FEC55F84FF4
:1052100020813181442737FD4095542FC601B501C7
:105220000E948B70A40193010E94F370D8012D930A
:105230003C934091A901842F807E09F4EFC0209116
:105240007C0130E0F901E170F0703196EE0FFF1F44
:10525000DE01AE0FBF1FEC55F84F1196CD90DC90DC
:10526000129780819181C80ED91EC90182709070F9
:1052700021FD03C0E3E0F0E002C0E0E0F0E0EE0F6B
:10528000FF1FEC55F84F20813181892B19F4E3E0A1
:10529000F0E002C0E0E0F0E0EE0FFF1FEC0FFD1FBA
:1052A00001811281020F131FE091AA01EE2319F46C
:1052B000EE24FF2407C0F0E0EE0FFF1FEE55F84F7D
:1052C000E080F18042FF04C0D094C194D108D3940F
:1052D00043FF03C0109501951F4F44FF04C0F09495
:1052E000E194F108F3948091A901829586958770E5
:1052F00090E08230910589F18330910524F4019783
:1053000009F08CC008C08330910509F45BC0049794
:1053100009F084C06FC0C80160E072E00E94BE70F6
:10532000FB01C80168E070E00E94BE709B01C801EB
:1053300060E870E00E94BE70A801421B530B9A0106
:10534000261B370B2E1B3F0BC7018C199D09909311
:10535000B7078093B607C60121C0C60160E072E0BE
:105360000E94BE70FB01C60168E070E00E94BE7042
:105370009B01C60160E870E00E94BE70C601821BFE
:10538000930B9C01261B370B2E1B3F0BC701801B69
:10539000910B9093B7078093B607C80162E070E065
:1053A0000E94BE706E0D7F1DCB01820F931F9093E4
:1053B000B9078093B807621B730B7093BB076093A8
:1053C000BA072CC0C7018C199D099093B707809329
:1053D000B607C7018C0D9D1D9C01200F311F309316
:1053E000B9072093B807801B910B9093BB0780935C
:1053F000BA0714C0C7018C199D099093B707809311
:10540000B607C701800F911F9093B9078093B80723
:10541000E01AF10AF092BB07E092BA0780915704B4
:10542000882311F00E94632380E4ECEEF7E0DF01B3
:105430001D928A95E9F7BA8DB1FF28C0A4EAB7E0BA
:10544000FE01319620E030E042E050E080917C01A6
:1054500090E081709070BA01681B790B6217730736
:1054600029F011961C921E92118210822F5F3F4FDD
:10547000129632962430310549F7D2011D921D92C1
:105480002D01B4EC4B16B7E05B06B9F785E793E066
:1054900090930201809301010196909304018093FF
:1054A0000301019690930601809305010196909364
:1054B00008018093070152EF252E58E0352E42E770
:1054C000642E48E0742E32E3432E38E0532E188ABF
:1054D0001F868F850E944D0E5C01FC0180818150EA
:1054E000803108F0BEC2838161E040E00E948B13EE
:1054F000D1019C918823B9F4192F1C92F501918157
:10550000892F8850823008F09BC287818E7084304A
:1055100009F496C2993019F0CC24DD244FC0C12C77
:105520002CEFD22E4BC010E0992309F411E081E05A
:10553000D1018C93F5013181832F8150A82FB0E0E8
:10554000FD01EE0FFF1FEC55F84FC080D180843174
:1055500058F0FF858F1740F4AA0FBB1FAA0FBB1F7F
:10556000A451B84FCD90DC90D50117962C91822F85
:10557000807381F0822F8295837090E00197E1E043
:10558000F0E002C0EE0FFF1F8A95E2F7CF01F88925
:10559000F82BF88B26FF12C0353080F4E32FF0E0B3
:1055A000EE0FFF1FE150FF4F28E030E0A20EB31EC8
:1055B000B182A08248EF5FEFA40EB51ED501179609
:1055C0008C91179786FD08C018968C91882321F03E
:1055D0000E94781CC80ED91EF5018681882321F40B
:1055E0008581882309F443C1D3016D917D918D910B
:1055F0009C91112389F420E031E040E050E00E94CA
:10560000F37050954095309521953F4F4F4F5F4F28
:105610004601820E931E5AC0F50187818E70843038
:1056200049F5E081F0E0EE0FFF1FE653F84F60818F
:105630007181882777FD8095982F20E034E640E03F
:1056400050E00E948B70D3016D937D938D939C935A
:105650001397F5012281222369F0332727FD309526
:10566000432F532F0E94F370D3012D933D934D93FD
:105670005C931397F301608171818281938120E0B3
:1056800031E040E050E00E94F37050954095309535
:1056900021953F4F4F4F5F4F4601820E931E81145D
:1056A0009104A1F0D50115968C9197FE82958F708B
:1056B00090E0FC0124E630E0E29FC001E39F900D02
:1056C000F29F900D1124D2018D939C93F2012081C1
:1056D00031812115310551F080915704882309F457
:1056E000BAC02150304031832083B5C08114910469
:1056F00009F4BDC0F5018681882309F4B8C0809102
:105700005704882309F475C02281222329F460E01C
:1057100070E080E293E017C0332727FD309537FF14
:1057200003C0309521953F4F332727FD3095432FF8
:10573000532F60E070E080E293E00E94F370C901B3
:10574000DA01BC01CD01D50116962C91181419046B
:105750000CF52F70422F50E041155105D9F1E4E6C8
:10576000F0E04E9F90014F9F300D5E9F300D112451
:10577000442737FD4095542F0E94F37079018A0128
:10578000F30180819181A281B381E80EF91E0A1F85
:105790001B1F29C022952F70422F50E04115510543
:1057A000C9F0A4E6B0E04A9F90014B9F300D5A9F8C
:1057B000300D1124442737FD4095542F0E94F3707B
:1057C000F301E080F18002811381E21AF30A040BF5
:1057D000150B09C0C601AA2797FDA095BA2FEE2484
:1057E000F82E092F1A2FD301ED92FD920D931C93E1
:1057F0001397F30160817181828193817601002783
:10580000F7FC0095102F1814190464F420E031E01F
:1058100040E050E00E94F370E216F306040715071B
:1058200064F019C020E031E040E050E00E94F370E5
:105830002E153F054007510774F4C601AA2797FDAE
:10584000A095BA2FBA2FA92F982F8827F30180830C
:105850009183A283B383D3016D917D918D919C91AE
:1058600020E031E040E050E00E94F3706901F50172
:105870006481633071F1643028F4613051F062303A
:10588000A8F448C0653081F1653050F16630B1F55B
:105890002EC0D50111968C91893029F4D7FC2AC0ED
:1058A000E0E0FEEF0DC0D7FE35C02EC0D501119649
:1058B0008C91893051F41C141D044CF1E0E0F2E0AD
:1058C000CE0EDF1ECC0CDD1C25C01C141D04E4F024
:1058D00021C0D7FE1FC0D094C194D108D3941AC060
:1058E0001C141D04A4F010C0D7FE0EC003C01C146D
:1058F0001D046CF0C12C4CEFD42E0CC06750C601B7
:105900000E94881D6C0106C0CC24DD2403C0C12C7C
:1059100034E0D32ED50117968C91179780FD14C0D3
:105920001196EC91EE2381F0E53070F4F0E03197C0
:10593000EE0FFF1F21E030E02C0F3D1FE20FF31FA1
:1059400080819181C80ED91EB601882777FD809588
:10595000982FD50112962C91332727FD3095432F90
:10596000532F0E948B706B017C01F5018781869516
:105970008770282F30E02130310591F0808122306E
:10598000310509F049C0E82FF0E0EE0FFF1FEE0FE0
:10599000FF1FE851F84FC082D182E282F38250C0EB
:1059A000D5012C91022F10E0000F111F000F111FC5
:1059B0000851184FC701B60124E630E040E050E03E
:1059C0000E94F370CA01B901F8012081318142813E
:1059D00053810E948B70D8016D937D938D939C931E
:1059E0001397F5016081062F10E0000F111F000FC3
:1059F000111F0851184FD8016D917D918D919C9187
:105A000020E034E040E050E00E94F370F801208391
:105A100031834283538314C0E82FF0E0EE0FFF1F61
:105A2000EE0FFF1FE851F84F80819181A281B38171
:105A30008C0D9D1DAE1DBF1D80839183A283B383FA
:105A4000FF85FF5FFF870894211C311C24E030E0B4
:105A5000620E731E42E050E0440E551EF03209F013
:105A600038CDF8942091C40E3091C50E78944889B1
:105A700040FF0FC0222369F490914C048CE3809383
:105A8000380490933A0482E080933B0481E0809351
:105A90003D0441FF15C0C90190708034910519F093
:105AA0008834910569F490914C048CE38093380418
:105AB00090933A0482E080933B0481E080933D041C
:105AC00042FF18C0C90190708038910531F08838C4
:105AD000910519F08039910569F490914C048CE39B
