:100000000C94530E0C947B0E0C947B0E0C947B0E74
:100010000C947B0E0C947B0E0C947B0E0C947B0E3C
:100020000C947B0E0C947B0E0C9478130C947362DE
:100030000C94E5640C94A0620C947B0E0C94D71382
:100040000C9466130C947B0E0C9453680C947B0EEA
:100050000C947B0E0C947B0E0C947B0E0C947B0EFC
:100060000C9455650C941C140C940A630C949565BF
:100070000C947B0E0C947B0E0C947B0E0C947B0EDC
:100080000C947B0E0C947B0E0C947B0EAC15B0156F
:10009000711577157D157D157D15A415A815AC1561
:1000A000B015B415B815BC156B392B39363945392F
:1000B0004B394F3954390D3E233E313E463E543E76
:1000C000633E753E9B3EC43ED23EF83E163F243F03
:1000D000323F403F435D315D2B5D345D385D3C5DBB
:1000E0002E5D405D455DC166C366C666CB66DE6655
:1000F000EF66FF660A671C672E6733674C674F67BA
:100100005367556757675C6760676C6770677867A8
:100110007F678367856789678B678D678F6793675D
:1001200097679C67A167A667AB67B067204F6C6451
:100130002056657273696F6E20454550524F4D20B1
:100140002020434845434B2053455454494E475380
:100150002F43414C494200416C61726D73204469E8
:100160007361626C656400506C65617365205265F3
:10017000736574205377697463686573005468729B
:100180006F74746C65206E6F742069646C650052C6
:1001900065736574207468726F74746C650045458E
:1001A00050524F4D206C6F77206D656D004C4F4164
:1001B00044494E47006D537461636B206F666C6FEA
:1001C00077006D537461636B2075666C6F77004DBB
:1001D00045535341474500707265737320616E79D2
:1001E000204B657900507265737320616E79206BC6
:1001F000657920746F20736B697000034F46464128
:100200004253525573525525454C73454C2554481D
:1002100073544825414C73414C25503120503125B1
:10022000503220503225503320503325002D2D2DB3
:10023000004348002D2D2D20000450312020503245
:1002400020205033202048414C4646554C4C4359C1
:100250004331435943324359433350504D31505049
:100260004D3250504D3350504D3450504D3550500C
:100270004D3650504D3750504D384348312043484B
:1002800032204348332043483420434835204348F4
:1002900036204348372043483820434839204348D4
:1002A0003130434831314348313243483133434898
:1002B0003134434831354348313633504F53475634
:1002C0003120475632204756332047563420475670
:1002D00035204756362047563720002D2D2D2D002E
:1002E000000064281007030152554420454C452066
:1002F0005448522041494C2000414C455254000181
:100300000203040103020404020301040302014F77
:100310004E20004F464600544852525544454C45E5
:1003200049443049443149443241494C474541549C
:10033000524E535731535732535733535734535701
:100340003553573653573753573853573953574107
:10035000535742535743001B1E272D36394B4E63CC
:100360006C7278878D939CB1B4C6C9D2D8E1E4533E
:10037000706C6173680080400000000000000000A5
:10038000000000000000000000000000000000006D
:10039000000000000000000000000000000000005D
:1003A000000000000000000000000000000000004D
:1003B000000000000000000000000000000000003D
:1003C00000000080C0E0E0F0F8F8FCFCFCF8F8F871
:1003D000F04000000000008080800000000000006D
:1003E0000000000000000000000000000080C0C00D
:1003F000E0E0E0F0F0F0E0C00000000000C0F8FF36
:10040000FF9F878383838383838383838383838320
:10041000838383838383838383038380838383832F
:10042000838383838383838383838383838383839C
:10043000838383C3E3733F1F0000000080E0F0F874
:10044000FCFEFFFFFFFF7F3F1F1F0F0783C3E1E19C
:10045000E0E0C0000E1F3F7F7FFFF3E0E080000080
:10046000000000000000000080F0FCFEFFFFFFFF26
:100470007F3F0F0301010100000080F0FEFFFFC776
:10048000C1C1C1C1C1C1C1C1C1C1C1C1C1C1C1C15C
:10049000C1C1C1C1C1C101C1F0FEFF3F0F070F0DB6
:1004A0000D0D1D191919193131313171616161E178
:1004B000C1C1C18100000080E0F8FCFFFFFFFF2FF9
:1004C000170F038180C0E0F0F8FCFEFFFFFFFFFF85
:1004D000FF7F010000000000000001010307070E7C
:1004E0001E1C3870E0F0F8FEFFFF7F1F0F030001B5
:1004F00000000000000000000000000000000000FC
:1005000000000000000000000000000000000000EB
:1005100000000000000000000000000000000000DB
:1005200000000000000000000000000000000000CB
:100530000000000000007EFFFFFFFFFFFFFBF8FC54
:10054000FCFEFF7F3F1F0F07C3FFFFFFFFFFFF7F83
:10055000070000000000000000000000000000C0D4
:10056000E0F8FEFFFF7F1F0F1F3D7CF8F8F0E080F2
:10057000000000000000000000000000000000007B
:10058000000000000000000000000000000000006B
:10059000000000000000000000000000000000005B
:1005A000000000000000000000000000000000004B
:1005B0000000000000000000010101010103070725
:1005C000070301000000E0FCFFFFFFFFFF1F030027
:1005D00000000000000000000000C0F078DE2713DB
:1005E000090E0703000000000000000001030F7F58
:1005F000FFFC7878F8000000000000000000000018
:10060000808080808080808080008080008080006A
:1006100000000000000080808080808080808080DA
:1006200080808080808080800000000000000000CA
:1006300000000000000000000000000000000000BA
:1006400000000080F0FEFFFFFFFF3F0F01000000F1
:100650000000000000C0E0381E0F03000100000091
:10066000000000000000000000000000000000008A
:100670000000000303010000000000000000000073
:100680000E0E02020202020303000F0F000F0F08FA
:100690000808080808080F0F08080808080F0F00C6
:1006A0000000000F0F00000000000000000000002C
:1006B000000000000000000000000000000000003A
:1006C00000C0F8BFFFFFFF1F7F0100000000000017
:1006D0000000F0FCFF7F7830000000000000000008
:1006E000000000000000000000000000000000000A
:1006F00000000000000000000000000000000000FA
:1007000000000000000000000000000000000000E9
:1007100000000000000000000000000000000000D9
:1007200000000000000000000000000000000000C9
:100730000000000000000000000000000000003089
:100740001C070E0F07010000000000000000000061
:100750000000000000000000000000000000000099
:100760000000000000000000000000000000000089
:10077000000000000000000000204D4F443A204AD5
:100780004554492020202020002053564E3A206511
:100790007239782D723739350054494D453A203237
:1007A000313A34363A333800444154453A203231F4
:1007B0002E30362E3230313300564552533A2056C1
:1007C000312E3939362D4D696B650022047C5E541B
:1007D000546D0003457870457846466E654D6564F6
:1007E0004372730011544F54000153544B1153542E
:1007F000250001544D4511545357005354415400A2
:100800004A45544900035B4D454E555D20746F20A9
:100810007265667265736800746D61696E0F6D73E1
:1008200000746D7231204A69747465720F757300BB
:10083000746D72314C6174206D696E0F7573007444
:100840006D72314C6174206D61780F757300535473
:10085000415432004D6F64650043726F737354727C
:10086000696D00456E61626C652050504D53494D75
:100870000042616E6447617000537469636B536337
:10088000726F6C6C00506F745363726F6C6C0041CC
:100890006C61726D205761726E696E67004D656D97
:1008A0006F7279205761726E696E67004465666188
:1008B000756C74205377005468726F74746C652083
:1008C0005761726E696E670053706C617368204E79
:1008D000616D650053706C61736820736372656548
:1008E0006E004C69676874206F6E2053746B204DE6
:1008F00076004C69676874206F666620616674656F
:1009000072004261636B6C6967687420696E76651A
:100910007274004C69676874207377697463680047
:10092000466C617368206F6E206265657000426579
:10093000657020636F756E74646F776E004D696EBD
:100940007574652062656570005468726F74746CAC
:1009500065207265766572736500496E61637469BE
:100960007669747920616C61726D136D00426174F7
:1009700074657279207761726E696E6700436F6E7D
:1009800074726173740020486170746963205374D9
:1009900072656E6774680020537065616B657220C4
:1009A000506974636800566F6C756D65000A426526
:1009B0006570657220202020506953706B72202072
:1009C00020204265657072566F6963655069537087
:1009D0006B566F6963654D656761536F756E642013
:1009E00000536F756E64204D6F6465000651756924
:1009F0006574204E6F4B6579207853686F7274531D
:100A0000686F7274204E6F726D20204C6F6E67207D
:100A100020784C6F6E672000426565706572004FEC
:100A2000776E6572204E616D6500524144494F20DA
:100A3000534554555000036D6F64650A2520737249
:100A400063202073770043616C004D756C7469708E
:100A50006C6965720003636831636832636833638D
:100A6000683400036F6666202B3D203A3D00075333
:100A70006C61766500000303030300545241494E44
:100A800045520056455253494F4E005472696D2DE0
:100A9000202B0005204D656E752045786974204433
:100AA0006F776E20202055705269676874204C65FE
:100AB000667400444941470012424700414E4100DC
:100AC000034D4F564520535449434B532F504F54D9
:100AD000530005534554204D4944504F494E54004E
:100AE000035B4D454E555D20544F205354415254A5
:100AF0000043414C4942524154494F4E00096672ED
:100B00006565004D4F44454C53454C00434F4C20C8
:100B1000446972656374696F6E0041494C20446991
:100B200072656374696F6E00454C45204469726557
:100B30006374696F6E0053776173682052696E67E2
:100B400000436F6C6C65637469766500062D2D2D0E
:100B500020202031323020202031323058202031E6
:100B6000343020202039302020202000537761733A
:100B7000682054797065000048454C49205345541D
:100B8000555000464D00464D300F52455441004DE2
:100B90004F444553005472696D7300537769746311
:100BA00068000003464C204D4F4445000152455417
:100BB000410044454C455445204D4F44454C0F5B46
:100BC0004D454E555D004175746F204C696D6974DB
:100BD0007300543254685472696700547261696ECC
:100BE000657200452E204C696D6974730003504F87
:100BF000534E45470053686966742053656C005036
:100C0000504D20317374204368616E004C50342F76
:100C10004C5035202044534D326F6E6C7920445334
:100C20004D322F44534D580044534D205479706534
:100C30000053656E64205278204E756D6265722097
:100C40005B4D454E555D0050504D2046724C656ED3
:100C50000D6D536563000B52784E756D000434437F
:100C60004820364348203843482031304348313209
:100C7000434831344348313643480013755300111B
:100C8000755365630050504D202020505858202047
:100C90002044534D32202050504D31362050504D7D
:100CA00053494D0050726F746F00524554413132B8
:100CB00033004265657020436E74005472696D2084
:100CC00053770006457870202020457846696E6588
:100CD00046696E6520204D656469756D436F61726C
:100CE0007365005472696D20496E6300542D457818
:100CF000706F00542D5472696D000A436F756E74E5
:100D000020446F776E436F756E74205570202000FD
:100D100054726967676572420054726967676572E9
:100D200000566F69636520496E646578114D454EC4
:100D300055004E616D6500000900010000000000D3
:100D400000000602005345545550004475706C690C
:100D5000636174696E67206D6F64656C0044454C17
:100D6000455445204D4F44454C004455504C494353
:100D7000415445204D4F44454C0044725377320056
:100D80004472537731000257656967687400024501
:100D900078706F0004445220486900044452204C8B
:100DA0006F7700044452204D696400004558504F4D
:100DB0002F445200012B2A52004D4958455200033E
:100DC0002044454C455445200003204D4F564520B6
:100DD0002020000320434F505920202000032049A9
:100DE0004E534552542000032045444954202020AE
:100DF0000044454C455445204D49583F00035B4D48
:100E0000454E555D0B5B455849545D0003594553AC
:100E10000B4E4F005072657373205B455849545D0B
:100E200020746F2061626F7274004D6178206D696B
:100E3000786572732072656163683A20333200020C
:100E4000536C6F77202055700002536C6F77202011
:100E5000446F776E000244656C6179205570000222
:100E600044656C617920446F776E000841646420AA
:100E7000202020204D756C7469706C795265706CFF
:100E80006163652000024D756C74707800025761D3
:100E9000726E696E67000253776974636800437508
:100EA000727665000D4469666600025472696D00D1
:100EB00002466C4D6F64657472696D000246697814
:100EC000204F6666736574004F66667365740046EE
:100ED0006D5472696D56616C00025765696768747C
:100EE0000002536F757263650045444954204D49B3
:100EF000582000032D2D2D783E30783C307C787CB6
:100F0000663E30663C307C667C6331206332206311
:100F10003320633420633520633620633720633801
:100F200020633920633130633131633132633133CF
:100F3000633134633135633136000D4F6E00072D58
:100F40002D2D2D202020763E6F66732020763C6F5D
:100F5000667320207C767C3E6F66737C767C3C6F6B
:100F60006673414E44202020204F52202020202014
:100F7000584F522020202076313D3D763220763168
:100F8000213D76322076313E7632202076313C7615
:100F900032202076313E3D76322076313C3D76322D
:100FA0002054696D654F6666005300000343555336
:100FB000544F4D20535749544348455300052D2D58
:100FC0002D2D2D766172696F766172413200463146
:100FD00000064F4E202020204F4646202020424F22
:100FE0005448202031355365637333305365637340
:100FF00036305365637356617269626C00565300F4
:101000000720382053656373313220536563733191
:10101000362053656373004E756D62657220566F9E
:1010200069636520537700000002534146455459D7
:1010300020535749544348455300434C454152209F
:101040004D49584553205B4D454E555D0020524556
:10105000544100014368616E6E656C204F72646597
:10106000720054454D504C4154455300032D2D2DD5
:1010700052746D45746D54746D41746D52454E5289
:101080005544454C4554485241494C50312050320A
:1010900020503320633120633220633320633420B7
:1010A000633520633620633720633820633920633B
:1010B0003130633131633132633133633134633121
:1010C00035633136004756000001474C4F42414CD2
:1010D000205641525300434F5059205452494D20FD
:1010E0005B4D454E555D0000034C494D495453003E
:1010F00043560043555256455300505245534554AC
:101100000000435552564500032D2D2D494E5600E3
:101110004756005B4D454E555D205748454E20448F
:101120004F4E4500B1427B23AA222F22B1212C250C
:10113000282D8949104EE62B1D29EB40C94E5C3FF6
:10114000F34727501F40D82212081200081C080835
:10115000081C0800000822004900220800000000C6
:1011600000227F220000000822004900220800001F
:1011700008220049002208000000227F220000000F
:101180000000082200490022080000081C08080886
:101190001C0800065761726E31205761726E322052
:1011A00043686561702052696E6720205363694609
:1011B0006920526F626F74204368697270205461B5
:1011C00064612020437269636B74536972656E2099
:1011D000416C6D436C6B5261746174615469636BF3
:1011E00020204861707463314861707463324861D3
:1011F000707463330054696D657200545245303128
:1012000032414700204142434445464748494A4B02
:101210004C4D4E4F505152535455565758595A6190
:1012200062636465666768696A6B6C6D6E6F707126
:1012300072737475767778797A3031323334353623
:101240003738395F2D2E00FEFFFDF6F7F8F9FAFB6F
:10125000FC042D2D2D2D54494D3154494D32424120
:1012600054544776723147767232477672334776F6
:101270007234477672354776723647767237005346
:101280007769746368205761726E696E670067657D
:101290006E7772697465206572726F720045455091
:1012A000524F4D20466F726D617474696E670042D3
:1012B000616420454570726F6D2044617461004D1A
:1012C0004F44454C2020202020004D452020202048
:1012D0002020202000454550524F4D206F766572EA
:1012E000666C6F7700E2AEA1A6A4A2C02F25812272
:1012F000AF0000000000000000000000000000003F
:1013000000000000000000000000000000000000DD
:1013100000333B1F0F00000000C0C0C0C0C0C0C0F1
:10132000C0C0C0000000000000000000000000007D
:10133000000000000000000000183C3C1800000005
:101340000000000080C0E070381C0C0C0E07030188
:1013500000000000000000FCFE87C3E377FEFC00F5
:10136000000F1F3B3130381F0F00000C0EFFFF0035
:10137000000000000030303F3F3030000000000C23
:101380000E0783C3E77E3C00003C3E3733313030EC
:101390003000000303C3C3C3E7FE3C00003030301D
:1013A0003030391F0F0000C0E070381C0EFFFF0006
:1013B000000303030303033F3F00003F3F33333386
:1013C00073E3C300000C1C383030381F0F0000FCE2
:1013D000FEC7C3C3C78E0C00000F1F383030391F43
:1013E0000F00000303C3E3733B1F0F000000003F27
:1013F0003F0000000000003CFEE7C3C3E7FE3C00E6
:10140000000F1F393030391F0F00003C7EE7C3C387
:10141000E7FEFC0000000030381C0E070300001837
:101420003C3C18000000000000060F0F0600000002
:1014300000F0F8DCCEC7C7CEDCF8F03F3F0000007C
:101440000000003F3FFFFFC3C3C3C3C3E7FE3C3FF1
:101450003F3030303030391F0FFCFE0703030303E9
:10146000070E0C0F1F3830303030381C0CFFFF03D4
:101470000303070E1CF8F03F3F303030381C0E07D6
:1014800003FFFFC3C3C3C3C3C303033F3F303030B5
:101490003030303030FFFFC3C3C3C3C3C303033F87
:1014A0003F0000000000000000FCFE0703C3C3C3B0
:1014B000C7CECC0F1F3830303030303F3FFFFFC039
:1014C000C0C0C0C0C0FFFF3F3F0000000000003FA1
:1014D0003F00000303FFFF03030000000030303F24
:1014E0003F30300000000000000303FFFF03030C47
:1014F0001C383030381F0F0000FFFFC0E0F0381CF0
:101500000E07033F3F000103070E1C3830FFFF00AA
:10151000000000000000003F3F30303030303030FD
:1015200030FFFF0E1CF8F81C0EFFFF3F3F000000CD
:101530000000003F3FFFFF3870E0C08000FFFF3F2A
:101540003F0000000103033F3FFCFE0703030303CA
:1015500007FEFC0F1F3830303030381F0FFFFFC33D
:10156000C3C3C3C3E77E3C3F3F0000000000000050
:1015700000FCFE070303030307FEFC0F1F38303394
:10158000371E1C3F33FFFFC3C3C3C3C3E77E3C3FCB
:101590003F000003070E1C38303C7EE7C3C3C3C3C3
:1015A000C78E0C0C1C3830303030391F0F0303034A
:1015B00003FFFF03030303000000003F3F000000A0
:1015C00000FFFF000000000000FFFF0F1F38303059
:1015D0003030381F0FFFFF000000000000FFFF0346
:1015E000070E1C38381C0E0703FFFF000000000028
:1015F00000FFFF0F1F38381F1F38381F0F0F1F380D
:10160000F0E0E0F0381F0F3C3E0703010103073E06
:101610003C3F7FE0C08080C0E07F3F000000013F92
:101620003F0100000003030383C3E3733B1F0F3C30
:101630003E373331303030303000000000000000E1
:10164000000000303030303030303030300000308A
:101650003030303070E0C00C1E3F33333333333F13
:101660003FFFFFC0E070303070E0C03F3F303030AF
:101670003030381F0FC0E070303030303000000F95
:101680001F3830303030381C0CC0E070303070E023
:10169000C0FFFF0F1F3830303030303F3FC0E070A8
:1016A0003030303070E0C00F1F3B333333333303FF
:1016B00003C0C0FCFEC7C303070E0C00003F3F0081
:1016C0000000000000F0F89C0C0C0C0C0CFCFC0062
:1016D0000133333333333B1F0FFFFFC0E070303033
:1016E00070E0C03F3F0000000000003F3F000030BE
:1016F00030F3F300000000000030303F3F30300096
:1017000000000000003030F3F300000C1C383030D3
:10171000381F0F0000FFFF0080C0E0703000003F66
:101720003F03070F1C3830000000000303FFFF00D9
:10173000000000000030303F3F30300000F0F0305B
:1017400070E0E07070E0C03F3F0000030300003F26
:101750003FF0F0C0E070303070E0C03F3F0000006C
:101760000000003F3FC0E0703030303070E0C00F0C
:101770001F3830303030381F0FF0F030303030301C
:10178000F0E0C03F3F0303030303030100C0E0F0A8
:10179000303030E0C0F0F000010303030303033FE7
:1017A0003FF0F0C0E070303070E0C03F3F0000001C
:1017B0000000000000C0E0F0303030303000003079
:1017C0003133333333333F1E0C3030FFFF303000C2
:1017D00000000000000F1F383030381C0CF0F00003
:1017E0000000000000F0F00F1F383030381C0C3FB4
:1017F0003FF0F0000000000000F0F003070E1C387E
:10180000381C0E0703F0F0000000000000F0F00F9D
:101810001F38381C1C38381F0F3070E0C08080C063
:10182000E0703030381C0F07070F1C3830F0F080A4
:101830000000000000F0F0000133333333333B1F6E
:101840000F3030303030B0F0F0703030383C3E3750
:1018500033313030305008500000000000000000EC
:101860006F000007000700147F147F14242A7F2ACA
:101870001223130864623649552250000503000004
:10188000001C2241000041221C0014083E081408DC
:10189000083E0808005030000008080808080060EA
:1018A0006000002010080402003E49453E0000424E
:1018B0007F400062514946004149493600181412E0
:1018C0007F0027454539003E49493200017905032B
:1018D0000036494936000649291E00003636000008
:1018E0000056360000081422411414141414412226
:1018F000140800020151090600060909067E0909BB
:10190000097E7F494949363E414141227F4141227A
:101910001C7F494949417F090909013E4149497AEA
:101920007F0808087F00417F41002040413F017F40
:10193000081422417F404040407F020C027F7F0418
:1019400008107F3E4141413E7F090909063E415151
:10195000215E7F09192946264949493201017F0143
:10196000013F4040403F1F2040201F3F4030403F4C
:101970006314081463070870080761514945430060
:101980007F41410002040810200041417F00040211
:101990000102044040404040000102040020545431
:1019A00054787F48444438384444442038444448B8
:1019B0007F3854545418087E0901020C5252523E8A
:1019C0007F0804047800447D40002040443D007FAF
:1019D0001028440000417F40007C041804787C08F3
:1019E00004047838444444387C141414080814144B
:1019F000187C7C080404084854545420043F444094
:101A0000203C4040207C1C2040201C3C4020403C8E
:101A100044281028440C5050503C4464544C44001A
:101A20000836410000007F00000041360800080829
:101A3000221C08081C22080840800804201002010B
:101A4000536572766F2054657374004779726F2006
:101A500053657475700048656C69205365747570C2
:101A600000456C65766F6E5C44656C746100562D44
:101A70005461696C00537469636B7920542D43750C
:101A80007400542D4375740053696D706C65203477
:101A90002D434800881A821A751A6E1A611A561A4E
:101AA0004B1A401A0000891112239B322446AD576D
:101AB0003665BF74488CC19D5AAFD3BE6CCAE5DB96
:101AC0007EE9F7F88110080193331A22A5562C47B6
:101AD000B7753E64C99C408DDBBF52AEEDDA64CB76
:101AE000FFF976E802218B30100299132667AF7652
:101AF0003444BD554AADC3BC588ED19F6EEBE7FA56
:101B00007CC8F5D983310A2091121803A7772E6675
:101B1000B5543C45CBBD42ACD99E508FEFFB66EA35
:101B2000FDD874C904428D5316619F702004A91515
:101B30003227BB364CCEC5DF5EEDD7FC6888E19915
:101B40007AABF3BA85520C4397711E60A114280535
:101B5000B3373A26CDDE44CFDFFD56ECE9986089F5
:101B6000FBBB72AA06638F7214409D512225AB34D1
:101B70003006B9174EEFC7FE5CCCD5DD6AA9E3B8D5
:101B8000788AF19B87730E6295501C41A3352A24F5
:101B9000B1163807CFFF46EEDDDC54CDEBB962A8B5
:101BA000F99A708B088481951AA793B62CC2A5D395
:101BB0003EE1B7F04008C919522BDB3A644EED5FA5
:101BC000766DFF7C899400859BB712A6ADD224C3A5
:101BD000BFF136E0C1184809D33B5A2AE55E6C4F85
:101BE000F77D7E6C0AA583B4188691972EE3A7F241
:101BF0003CC0B5D14229CB38500AD91B666FEF7E65
:101C0000744CFD5D8BB502A499961087AFF326E264
:101C1000BDD034C1C3394A28D11A580BE77F6E6E44
:101C2000F55C7C4D0CC685D71EE597F42880A19104
:101C30003AA3B3B2444ACD5B5669DF78600CE91D24
:101C4000722FFB3E8DD604C79FF516E4A990208124
:101C5000BBB332A2C55A4C4BD7795E68E11C680D04
:101C6000F33F7A2E0EE787F61CC495D52AA1A3B0C0
:101C70003882B193466BCF7A5448DD59622DEB3CE4
:101C8000700EF91F8FF706E69DD414C5ABB122A0E4
:101C9000B9923083C77B4E6AD5585C49E33D6A2CC4
:101CA000F11E780FAD6A11241FBECFEFD0E1DEBF69
:101CB000CDBF11E0A0E0B1E0E8E4F7ED02C005908F
:101CC0000D92A234B107D9F71DE0A2E4B1E001C042
:101CD0001D92A937B107E1F71CE1C6EADCE104C0B7
:101CE0002297FE010E945D6BC43AD107C9F70E949A
:101CF000D6680C94A26B0C940000E2E4F5E040E09E
:101D0000842F806487B9369A3699FECF24B135B1D5
:101D1000369A3699FECF84B195B1820F931F819385
:101D200091934F5F483061F70895853050F08830C7
:101D300020F08E3020F482E0089581E0089583E061
:101D4000089580E008952AE0829FC00111248B5FEE
:101D50009D4F089525E0829FC00111248B5B9C4F0D
:101D600008958F929F92AF92BF92DF92EF92FF926F
:101D70000F931F93CF93DF93C82FD62F5A01122FA3
:101D8000F02E822F8470D82E57FF10C0882311F0B8
:101D90008CE101C08FE0212F4DE26D2F9C2F981B0D
:101DA000892F0E94A558B194A194B108212F2F2109
:101DB0004AE36D2F8C2F0E94A5586CE370E0C5019B
:101DC0000E94066B4B015C01012F00619B0140E00A
:101DD00050E062E0E62E6D2F8C2F0E94745ADD20B9
:101DE00011F08AE101C08FE00F2D0061950140E004
:101DF00050E092E0E92E6D2F8C0F0E94745ADF9113
:101E0000CF911F910F91FF90EF90DF90BF90AF9017
:101E10009F908F900895CF93DF93D62FC22F20628B
:101E200050E00E94845BC7FD09C02C2F46E76D2F50
:101E30008091590CDF91CF910C94A558DF91CF91EF
:101E40000895242F409102010C940B0F0F93022F41
:101E500024FF03C00F7E9CE201C094E2411104C044
:101E600024E04BED52E015C04530B0F4E0911C0584
:101E700094E0E99FF00111243197E40FF11DE15046
:101E8000FD4FE49194E0E99FA00111244C515D4F76
:101E900024E00E94375908C0941730F02BEF240F2C
:101EA00049E352E00E9459590F9108950F93CF933F
:101EB000DF93C82FD62F022F411104C024E044E342
:101EC00052E00EC04A3010F086E101C081E18C0F73
:101ED00050E0202F6D2F0E94845B22E041E352E00E
:101EE0006D2F8C2F0E943759DF91CF910F9108955C
:101EF0000F931F93CF93DF93D62FC42F022F16E09B
:101F0000180F442341F0463151F04A3E61F423E07A
:101F100043E153E016C023E04DE252E012C023E05B
:101F20004FE053E00EC047FF04C041E20E94A558B5
:101F3000C195C1504C2F440F4C0F50E0495E5C4F8F
:101F400023E06D2F812F0E943759DF91CF911F9190
:101F50000F910895DF92EF92FF920F931F93CF930B
:101F6000DF93F82ED62F142FE22EC091F60181E0D8
:101F70008217E0F14FE04C0F4F31D0F42C2F332774
:101F800027FD309537FF03C0319521953109012F89
:101F90004BEF51E06D2F8F2D0E945959CF3FC4F563
:101FA000212F41E26D2F8AEF8F0D0E94A55830C07E
:101FB00074E2D72EDC0E0AEF0F0D88E48D1520F0A9
:101FC0001C1674F441EF09C0212F4DE682E18F0DFC
:101FD0000E94A5581C161CF44CED4C0F01C04D2D51
:101FE000212F6D2F802F0E94780F12C082E02813BE
:101FF00013C0212F409166046D2F8AEF8F0DDF9162
:10200000CF911F910F91FF90EF90DF900C94780F7C
:10201000E11002C0C13069F3DF91CF911F910F91A0
:10202000FF90EF90DF9008958C3038F4E82FF0E0C7
:10203000EE0FFF1FE655F84F22C08431C0F4482F41
:1020400050E0DA01AA0FBB1FA45DBE4F2D913C9159
:10205000803148F4FA01EE0FFF1FEE50FB4F8081F4
:102060009181281B390BC901880F991F089584326B
:1020700048F4E82FF0E0EE0FFF1FEE59F84F808193
:10208000918108958E3218F484520C94131C80E0D0
:1020900090E008950E94D2688111FCCF10928A0CC2
:1020A00008950F931F93CF93DF938C01EB010E9450
:1020B000555824E049EF52E060E082E20E946D59F9
:1020C000B80180E20E948D59BE0188E20E948D59BC
:1020D00065EE71E080E30E948D59DF91CF911F91F1
:1020E0000F910C942B5C0F93462F50E0495E5C4F90
:1020F00000E023E060E10E9437590F9108950F93AB
:102100001F93CF93DF93082FCBEED1E01AE04991D4
:1021100024E0602F812F0E94A558155F1837B9F76A
:10212000DF91CF911F910F9108951F93CF93DF936C
:10213000EC01162F0E945558BE0188E10E948D596E
:10214000111109C047ED51E068E38CE10E949359F9
:1021500049EF52E002C04FEC51E024E060E082E23F
:102160000E946D59DF91CF911F910C942F5C61E01B
:102170000E9495100C942B5C70E0882399F090E0FD
:10218000019725E0289FF001299FF00D1124E60F0B
:10219000F71FEE0FFF1FE055FB4F808191818B50A1
:1021A0009E4F0895FB01EE0FFF1FED5FFE4F019064
:1021B000F081E02D8081992787FD909508951F93E8
:1021C000CF93DF93D82F162FC4E0DD2399F0612F32
:1021D0008D2F0E94BC109C01253F81E0380764F0E0
:1021E0008BE0820F8D1710F08CE0820FC15029F028
:1021F000D82FEBCFC0E001C0CD2F8C2FDF91CF9136
:102200001F910895CF93C62F0E94DF106C2FCF919E
:102210000C94BC100F931F93CF93DF93EA01062F0A
:1022200010E08823B9F00E94DF10882399F090E035
:10223000019725E0289FF001299FF00D1124E00F60
:10224000F11FEE0FFF1FE055FB4FC55FD140D1835B
:10225000C08317C0CE0183589F4F8B3F910540F03C
:102260001C161D061CF4CDE7D0E002C0C3E8DFEF6A
:10227000F801EE0FFF1FED5FFE4F0190F081E02DA2
:10228000C08386E0DF91CF911F910F910C94ED53A5
:102290009F92AF92BF92CF92DF92EF92FF920F93F5
:1022A0001F93CF93DF938C017B016A01922EB09034
:1022B000CD019B2D9F7D943439F080918807882330
:1022C00009F487C0933439F4E801219683E10E9430
:1022D000BC6785E00BC0953419F0923409F07CC0DE
:1022E000E801219784E10E94BC6784E00E940D5DB3
:1022F000811164C0E114F104E1F481E0C816D10455
:10230000C1F480E6B81619F08EE2B81212C010922D
:102310008807C1E00115110509F0C0E0D0E08B2D60
:102320000E945C5D8EE2B81206C081E08093B8071F
:1023300002C0A12C02C0AA24A39440915A0150913A
:102340005B01C41BD50B8091B807833031F48091B9
:10235000D601C80FD11D87FDDA95CC16DD0644F4F1
:102360008B2D0E945C5D83E10E94BC67E6010AC080
:10237000CE15DF053CF48B2D0E945C5D84E10E944C
:10238000BC67E701C017D107B1F0209761F4A11035
:1023900003C08B2D0E944C5D17FF02C083E101C07A
:1023A00084E10E94BC67892D83700E94ED5381E017
:1023B0008093620113C01092620110C0CC27DD2708
:1023C000C01BD10B85E00E945C5D84E00E945C5DD7
:1023D00091CF953409F484CFE8018CCFCE01DF9101
:1023E000CF911F910F91FF90EF90DF90CF90BF9012
:1023F000AF909F900895552747FD5095772767FD2B
:102400007095992787FD90950E944811089522E0C4
:102410000C94FB11462F22E060E00C94FB1121E0AC
:102420000C94FB11462F21E060E00C94FB11E0912D
:102430006301F0E0EE0FFF1FEA59FE4F80819181AA
:102440000895FC01A0916301B0E0AA0FBB1FAC5935
:10245000BE4FED93FC938FEB099587E10C94BC671D
:10246000E9EBF7E0108E168A158A178A0895EAE2DA
:10247000FDE037A1303180F420A541E0420F40A7B4
:10248000DF01A20FB11DA20FB11D8D939C934031AE
:1024900008F010A63F5F37A3089590E08C5F9E4F31
:1024A0000C94371290E00C943712809134059927E0
:1024B00087FD909509970C943712FC0190912705A0
:1024C00080A191FF74C091A1882311F0946001C094
:1024D0009B7F91A386A1813059F5C79A37A121A18D
:1024E000332321F181A541E0480F41A7DF01A80F67
:1024F000B11DA80FB11D8D919C9195A384A340316E
:1025000008F011A6315037A397FD02C031E101C098
:1025100038E233A32C7F97FD226021A381A18BBBDE
:10252000C7988FE182A382E086A308952BBB48C0A1
:1025300081110CC0C79A81A1836081A38BBB80915C
:102540005A0C8D3308F43CC086E02FC0823009F469
:1025500038C081A18BBBC79ABF9800C0000000C0E3
:1025600086B38078BF9A96A1933049F4882329F0E6
:1025700083A1815083A3811123C084E016C09430CD
:1025800021F48823E9F083E00EC0953039F483A16B
:10259000815083A3811114C081E007C0963081F47B
:1025A000882371F084E183A385E086A309C090911C
:1025B000240596FB992790F9891711F0C79A089579
:1025C000C79808951BBA8FE18ABB00C099B38FEFFB
:1025D0008ABBEEECF1E08781882311F080E202C033
:1025E000892F807E8483292F207C8081281759F0B1
:1025F0008074880F90783181891711F0315001C0B3
:102600003F5F3183208382819381891711F0838317
:102610008183089590911C0590FD02C093E0892765
:10262000E82FF0E0EE0FFF1FE655F84F20813181D3
:10263000220F331FE32F131624F0332321F0E195EB
:1026400002C080E801C080E0E8300CF0E7E0F0E094
:10265000E052FD4FE491EE2319F099E090936E0162
:102660008E2B0895833021F0811103C083E001C0D7
:1026700080E0E82FF0E0EE0FFF1FEE5BFA4F808165
:1026800091810895FF920F931F93CF93DF93F12CC5
:10269000C0E0D0E08F2D0E943213092F10E0C00F50
:1026A000D11FF39484E0F812F5CFCE01DF91CF91E2
:1026B0001F910F91FF9008950E94321320911E05E3
:1026C00020FF03C0919581959109089578941F92F8
:1026D0000F920FB60F9211248F93809142018F5F5A
:1026E000809342018F910F900FBE0F901F9018950D
:1026F00078941F920F920FB60F9211242F938F93FD
:102700009F93EF93FF93F89487B78F7B87BF78945D
:10271000209197018091990190912705882359F084
:1027200090FF07C08091760D820F8093760D87FF12
:1027300002C01B9A01C01B9891FF2AC080915808C3
:10274000811126C0EAE2FDE086A1823009F583A16D
:10275000882311F081501BC021A1C79A82A180FD5E
:1027600009C02D7F84A195A196FD2260880F991F35
:1027700095A384A381E082278BBB81A3C79882A104
:10278000815082A3811104C083E086A385E083A3E6
:10279000F89487B7806487BF7894FF91EF919F91F9
:1027A0008F912F910F900FBE0F901F9018957894D6
:1027B0001F920F920FB60F9211242F933F934F93B6
:1027C0005F936F937F938F939F93AF93BF93EF9399
:1027D000FF9381B7845681BF85E991E00E94F1653E
:1027E0000E946B5D8091970C82608093970CEBE068
:1027F000F1E08081815011F0808304C084E6808301
:1028000081E081838281815011F0828304C08AE05B
:10281000828381E08383FF91EF91BF91AF919F917C
:102820008F917F916F915F914F913F912F910F9079
:102830000FBE0F901F90189578941F920F920FB6AD
:102840000F9211242F933F934F935F936F937F9336
:102850008F939F93AF93BF93EF93FF93209180004B
:1028600030918100F89480917D008F7D80937D0070
:10287000789480913C0590913D05A901481B590B26
:10288000CA019695879530933D0520933C059C01A0
:10289000215A3F402F3D3E4220F481E08093430186
:1028A00029C0E09143012FEF2E0F283018F59C012D
:1028B0002152334027373540D8F421E02E0F2093A2
:1028C0004301F0E0EE0FFF1FEE5BFE4F9C012C5D1D
:1028D000354040912205465F429FC001439F900DC5
:1028E00011246AE070E00E94066B7183608302C06D
:1028F00010924301F89480917D00806280937D0066
:102900007894FF91EF91BF91AF919F918F917F91BB
:102910006F915F914F913F912F910F900FBE0F904C
:102920001F9018959C0155E0359527955A95E1F72C
:10293000280F391FAC01440F452F441F550B241B92
:10294000350B892F990F990B8595820F931F089549
:102950009DE7980F9B3F88F08E57E82FF0E0EE0F31
:10296000FF1FEE55FB4F808186171CF46083862F76
:102970000895481714F44083842F089544E66CE9C1
:102980000C94A81420911C05217092E0921B21E068
:10299000981320E0822F08959091FC0194FD0C94EF
:1029A000C21480E0089549E2840290011124359513
:1029B00027953595279587FD815C86FB880F880BC9
:1029C00080F9A901481B510987FD5395CA01089553
:1029D0004F925F926F927F928F929F92AF92BF922F
:1029E000CF92DF92EF92FF920F931F93CF93DF93DB
:1029F000782E642E45E0461508F4DBC0882309F4E0
:102A0000D6C056E1851721F08AEE781203C0D1C0F6
:102A100081E0D3C096E197150CF4CBC0872D9927A0
:102A200087FD909597FF03C09195819591098A3014
:102A300040F4825F0E940D5D17140CF4BEC091E05B
:102A40001DC026EF280F30E06901CC0CDD1C86018B
:102A5000020F131F0F5B1B4FF80182818F7009F467
:102A6000A8C0A90140595E4F7A0155E0651208C01F
:102A7000F701908117140CF498C081E089279DC05C
:102A8000F801508041800E94950E81110AC08FEF9D
:102A9000850D0E941410EC01F80181810E94D3146D
:102AA00011C0823059F48FEF850D0E941410EC0193
:102AB000F801818181500E94141004C080E090E0F0
:102AC000C0E0D0E0F80122812F70822E912CF40119
:102AD0003197EE30F10508F06EC0EA5BFF4F0C94C1
:102AE0005B6BD7FF39C0D195C195D10935C0D7FFF0
:102AF00037C0D195C195D10933C0D1E0D60D4D2F46
:102B000060E0852D0E94E814C82F4D2F60E0842DD1
:102B10000E94E814F80122812F70253069F4CC233B
:102B200009F449C0882309F446C0F8018281982F2E
:102B3000907F69F591E036C0263019F4C111F5CFC8
:102B4000F1CF982F9C2720C0C817D907A1F5EDCF4A
:102B5000C817D90751F72FC08C179D0734F32BC026
:102B6000C817D90714F327C0C817D907F4F623C02C
:102B70008C179D07D4F61FC0F601E458FE4F9181D3
:102B80009095991F9927991F9111CFCF0BC08295CE
:102B90008F7089300CF08F5F41E0460D60E00E943D
:102BA000E814982FF701908365CF892F06C0862FF0
:102BB00004C080E002C090E0F5CFDF91CF911F917B
:102BC0000F91FF90EF90DF90CF90BF90AF909F90CC
:102BD0008F907F906F905F904F90089540E060E0FD
:102BE000809109050E94E814811114C0809155015B
:102BF00090915601892B71F410924A0D80915A0CD4
:102C000090914105981751F0809341058AE29DE02B
:102C10000C945D1281E080934A0DF0CF08952091CD
:102C20005501309156012115310511F0215031091E
:102C3000882319F08091200501C080E09091540113
:102C4000992329F090912805891708F4892F4AEFD4
:102C5000849FC0011124880F991F8217930708F4DD
:102C6000C90190935601809355010C94EE15CF92B3
:102C7000DF92EF92FF920F931F93CF93DF93809198
:102C80005B0C90915C0C90914005282F291B2093A0
:102C900057018093400560E083E697E00E94A432EC
:102CA00080915701882309F490C2E9EBF7E0878906
:102CB00080FF0DC0808D91E0980F908F943638F092
:102CC0008356808F858996890196968B858B80E0C7
:102CD0000E94FF530E9455580E94A15C182F082F94
:102CE0000F700650C091FD01C43021F0C33019F4BB
:102CF000C4E001C0C8E0083008F09EC0D02ED694D1
:102D00008091380580FF03C083E08D19D82E6D2D8A
:102D1000809152050E94DF10C82E6D2D0E94021175
:102D20009C01C1110CC0EC0197FF04C0CC27DD272A
:102D3000C81BD90BD595C795D595C795CF5F809101
:102D40001C0580FBEE24E0F8F12C42E050E04E1927
:102D50005F098D2D90E04817590761F48091FC01BF
:102D600080FF31C281E0C4E090911E0590FF03C056
:102D7000C19501C080E0DD27C7FDD09500FF03C0ED
:102D8000C20FD31F04C0A9014C1B5D0BEA012097A1
:102D900021F09D2F932797FF11C081110FC0232B86
:102DA00069F040E050E06D2D8C2D0E940A11812FBA
:102DB0000E945C5D86E10E94BC673DC0CE018458E4
:102DC0009F4F893F910580F4AE016D2D8C2D0E949F
:102DD0000A11D7FF03C0D195C195D109D595C795E3
:102DE000D595C7954C2F21C01C161D061CF44DE728
:102DF00050E002C043E85FEF6D2D8C2D0E940A1158
:102E0000CE0183589F4F8B3F9105A8F4D7FF03C095
:102E1000D195C195D109D7FD2396AE01559547951A
:102E200055954795519541955109445C65E185E972
:102E300091E00E94A66610E0E8E5F1E08091B60717
:102E40009091B70720813181281B390B37FF02C0D1
:102E5000215E3F4FB5E035952795BA95E1F72115ED
:102E6000310561F024813581281B390B37FF02C001
:102E70002F5F3F4F3595279591838083958384837A
:102E800080911E0585FF02C020E030E0338322835D
:102E9000CEECD1E02D818981821B8F3F09F480E047
:102EA00087FD8F5F85958887982F990F920F9D8357
:102EB000812B0E940F16E0916301F0E0EE0FFF1FDF
:102EC000EC59FE4F8081918180589B43B9F48885ED
:102ED0008823A1F02E81992787FD9095820F911D5F
:102EE00027FD9A958E37910514F08DE705C083383C
:102EF000EFEF9E070CF483E88E83188680912405FB
:102F000087FF3BC080916F018823B9F180916E01EA
:102F10008823A9F180913F0587FD03C08F5F8093CF
:102F20003F0582E00E940A13982F9F7789F0209135
:102F30003F05921720F510923F05111120C0182F60
:102F40001095111F1127111F83E6811B182F17C021
:102F500083E00E940A13982F9F7789F020913F0504
:102F6000921768F410923F05111109C0182F10959F
:102F7000111F1127111F1C5902C010926E0181E010
:102F800080936F0153EAE52E54E0F52EC2EAD4E0B7
:102F90006AE0C62ED12CF7018081882309F462C033
:102FA000853068F40E94905EE82FF0E0EE0FFF1F7E
:102FB000EF5FFE4F0190F081E02D808104C08530ED
:102FC00021F48091D40188834DC08A30B8F48550B3
:102FD0000E94905EE82FF0E0EE0FFF1FE855F84FDB
:102FE0008081918197FD079623E0959587952A9595
:102FF000E1F78338FFEF9F07DCF015C08D30D0F488
:10300000E82FF0E0EE0FFF1FE256F84F808191812C
:1030100097FD079603E0959587950A95E1F7833824
:103020002FEF92072CF08D3791056CF28DE7CBCF07
:1030300083E8C9CF8D31B0F4E82FF0E0EE0FFF1F29
:10304000E059F84F80819181B6010E94066B633888
:103050004FEF74072CF06D3771051CF06DE701C060
:1030600063E8688352E0E50EF11C229681EBE816D6
:1030700084E0F80609F08FCF8091E9019091EA0190
:10308000009761F060E00E9495100E94D26888234A
:1030900099F01092EA011092E9010EC01093CD014F
:1030A000E0916301F0E0EE0FFF1FEC59FE4F01903D
:1030B000F081E02D812F09950E942F5CC091650061
:1030C00085E991E00E94DD65882311F084E105C067
:1030D0008091780D882321F081508093780D06C06F
:1030E00080916300869581708093770D8091770D34
:1030F0008093E701882309F464C08091240585FD4D
:1031000060C0CF7EC093650080915A0C8F71823071
:1031100009F054C08091500590915105AC01F4E044
:10312000440F551FFA95E1F797FD0796BC01E3E0C0
:1031300075956795EA95E1F720910805332727FDF6
:1031400030952A5F3F4F629FC001639F900D729F31
:10315000900D1124840F951F20911E0526FD05C09A
:10316000609100017091010102C060EF70E00E9467
:10317000F26A80910201680F711D6F5F7F4F759534
:1031800067956093020180913E05805F80933E05C4
:10319000811114C080910705681780F4623370F0C4
:1031A0006EE281E10E94C26780911E0583FF06C026
:1031B00082E390E090935601809355011092540160
:1031C00004C0C0619FCF80E0CFCDDF91CF911F9130
:1031D0000F91FF90EF90DF90CF900895CF93DF9302
:1031E000C62F2091E801222329F09093EA018093D1
:1031F000E90133C060E00E949510C11103C08091C5
:10320000060501C089E10E941C5C67E182E10E9421
:10321000C2670E944A10D1E00E94D26881111DC08D
:103220008091970C833019F4A8951092970C40E088
:1032300060E0809109050E94E814811106C0809128
:103240002005811102C0CC2329F0D0934A0D0E94A1
:10325000EE15E2CF10924A0DFACFDF91CF9108958B
:1032600090916301911103C0811106C017C08111B3
:1032700003C08FEF890F01C080E08093630187E175
:103280000E94BC67E0916301F0E0EE0FFF1FEC5974
:10329000FE4F0190F081E02D8EEB099460E082EC0E
:1032A00091E00C94EE18CF93DF93EC0180916301D1
:1032B000843038F060E085EB91E0DF91CF910C94A1
:1032C000EE1887E10E94BC67A0916301AF5FA093F5
:1032D0006301B0E0AA0FBB1FAC59BE4FCD93DC9386
:1032E0008FEBFE01DF91CF9109941F93CF93DF9372
:1032F000C8EBD4E090E0888111E0190F882341F0F9
:1033000040E060E00E94E814882311F0812F05C09E
:10331000912F2A96143079F780E0DF91CF911F9199
:103320000895CF92DF92EF92FF920F931F93CF9366
:10333000DF9380914201C2B7909142018913F9CF86
:10334000D0E0D82B70E1D72E80916704D81A0E9464
:103350007D0E1EE517B90E94E2120E94371617B9BA
:10336000369A3699FECF84B195B10496409100010A
:103370005091010167E0649F9001659F300D112419
:10338000820F931F63E0969587956A95E1F7909376
:103390000101809300018091970C833019F4A89566
:1033A0001092970C2091420182B79091420129130B
:1033B000F9CF90E0922B8C1B9D0B2091B1063091A0
:1033C000B2062817390720F49093B2068093B1060D
:1033D00080910E01882309F4CDC080913A05909127
:1033E0003B05019690933B0580933A05CD2CFFE079
:1033F000FC1508F469C00C2D10E0E801CC0FDD1FAE
:10340000C859DB4F8881F82EF294F69457E0F522E4
:103410008F7109F457C040E060E00E94E814E82E84
:1034200080910E0109521E4F823009F449C08F2D40
:10343000857051F4F8018081811106C0EE2021F0E1
:10344000898190E00E9437128FEF8F0D823060F4F7
:10345000F80180818130A1F5E11032C08981F2E06C
:10346000FF122BC08F5F29C085E08F1550F4F80143
:103470008081811125C0EE2019F189810E94391CBB
:103480001FC0F2E0FF15E0F4EE20D1F084E0F81662
:1034900031F095E0F91631F066E970E005C06CE2B4
:1034A00071E002C068E572E080913A0590913B05B9
:1034B0000E94F26A892B21F4898190E00E943712E0
:1034C000F801E082C39493CF31E4E32E34E0F32E8D
:1034D0000CE711E0F701C2808C2D8F700E94950ED1
:1034E0008330E1F5F801C081D181209771F4F701B3
:1034F000C081C7FD06C0C095FAE0CF02E0011124EB
:1035000019C0DD27C7FDD09515C0D7FF12C0219681
:1035100089F4F701C181C7FD06C0CF5FFAE0CF0291
:10352000E001112406C0DD27C7FDD095C095D095D8
:1035300001C021978C2D807F71F08C2D82958F702A
:1035400089300CF08F5F40E060E00E94E814811148
:1035500002C0CFEFDFEFF801D183C083F3E0EF0EBD
:10356000F11C0E5F1F4F81E00439180709F0B2CF3C
:1035700010920E0180910C01882309F47BC0809188
:1035800039058F5E982F977F903618F49093390500
:1035900003C0877080933905CBEED1E0F12CFD1488
:1035A00009F45FC08E0103581D4FF8018081982FE8
:1035B000907C9034C9F4880F880F40E060E08595D6
:1035C00085950E94E814882379F08091270580FF73
:1035D00005C0FE01E258FD4F608101C061E046E494
:1035E00085E991E00E94A666F8018081982F907C81
:1035F0009038A1F520913905880F880F859585951C
:103600008731E4F0992787FD9095479781309105A0
:1036100039F08230910541F0892B01F5237001C00A
:10362000207F21111BC003C027702230B9F4FE0196
:10363000E258FD4F80810E94391C10C020FD0EC051
:1036400040E060E00E94E814882341F0FE01E25867
:10365000FD4F8081805890E00E943712F3942296AB
:103660009ECF10920C0180916E01882319F0815039
:1036700080936E01DF91CF911F910F91FF90EF909A
:10368000DF90CF9008951F93CF93DF93182FD62FFD
:10369000C42F8091B807811101C0C2E04D2F50E0C6
:1036A0002C2F60E08FE70E94845BDA3010F0DFE6B9
:1036B00001C0D5E72C2F4FE260E08D2F0E94A55866
:1036C000412F50E04F5F5F4F2C2F60E08FEF8D0F49
:1036D000DF91CF911F910C94845B1F93CF93DF9365
:1036E000D82F162FC42FB9010E948D59112329F00C
:1036F0006FE08C2F0E940A12C82F4C2F50E0212F10
:103700006D2F80E60E94845B8C2FDF91CF911F91FB
:103710000895813649F40E945C5D81E00E94301971
:103720008BEE90E40E9453196AE27EE080E10E94F1
:103730008D5964E17EE080E20C948D59FF920F93E5
:103740001F93CF93DF93182FF62E0AE08AE0189F7D
:10375000E0011124CB5FDD4F2FE130E0211B310967
:10376000029FA001039F500D1124BE01CE010A96B5
:103770000E94706BFF2049F0BE016A5071094AE057
:1037800050E0CE010E94706B0AC0FE0111920A95B2
:10379000E9F78091F4078883898384E68A8310930C
:1037A000F607DF91CF911F910F91FF9008959C0133
:1037B000220F331F280F391F95958795959587956B
:1037C000280F391F95958795959587959595879598
:1037D000820F931F0895429643E7489F9001499FA7
:1037E000300D1124C901E6E095958795EA95E1F73A
:1037F000089581E00895E82FFF27E7FDF095E95B44
:10380000FD4EE491862F992787FD909583589F4F11
:10381000EE5FE23038F42AE0AC01249FC001259F1E
:10382000900D11240895E82FFF27E7FDF095E95B3F
:10383000FD4EE491ED3F4CF4EE0FFF0BEA54FB4FCD
:103840008081992787FD90950895ED3F59F074F098
:10385000EF3F09F05CF4EE0FFF0BE354F84F838960
:10386000948908958091020190E0089580E090E0AD
:103870000895CF92DF92EF92FF92F82E0E94131CD0
:10388000EF2DFF27E7FDF095E95BFD4EE491ED3F5D
:1038900009F15CF4E63FDCF0EE0FFF0BEA54FB4F5E
:1038A0008081992787FD909512C0EF3F09F07CF445
:1038B0006CE370E00E94066B6B017C0146E260E005
:1038C000C6010E94CB67C70160E045E305C060E028
:1038D00040E002C061E044E2FF90EF90DF90CF90C3
:1038E0000C94CB67BF92CF92DF92EF92FF920F932F
:1038F0001F93CF93DF93F82ED62EC42EE901102FFD
:103900008E2D8170B82EE0FE12C000E021E0240F61
:1039100041E552E18F2D0E94595912FD03C088E103
:103920008F0D06C08CE18F0D98EFD90E01C08F2D41
:103930009E2D9870E3FC1F7BEC2DFF27E7FDF09593
:10394000E95BFD4EC49022E02C0D223088F412FF7A
:103950008450B110865F1770012F212FAE016D2D9D
:1039600086500E94B10EC3E3CC0D8AEFF80E0AC058
:10397000992311F08DE38F0D212FAE016D2D0E9443
:10398000845BC0E28E2D867069F0E2FE04C08AE09E
:103990008F0D1B7F02C08091590C212F4C2F6D2D54
:1039A0000E94A5588C2FDF91CF911F910F91FF900E
:1039B000EF90DF90CF90BF900895DF92EF92FF924B
:1039C0000F931F93CF93DF93D82F162FC42FD22E90
:1039D0008E2D8370F82EA1F08091CD01803881F476
:1039E0008DE7840F8B3F40F0E42FF0E0EE0FFF1FD8
:1039F000EA55FC4FC08101C0CEE782E00E94ED5342
:103A00008DE78C0F2E2D8B3FE0F040E151E1612FCF
:103A10008EEE8D0F0E946D592E2D43EB4C0F612FB2
:103A20008AEF8D0F0E94A558FF2009F122E042E89D
:103A300050E06EE770E08C2F90E00E944811C82F94
:103A400016C04C2F552747FD5095612F8D2F0E9492
:103A5000845BFF2061F0402F6D2D8C2FDF91CF9183
:103A60001F910F91FF90EF90DF900C9407128C2F15
:103A7000DF91CF911F910F91FF90EF90DF9008950C
:103A8000CF93DF939EE0899FE0011124C551DE4F63
:103A9000FE01EA54FE4F40E060E080810E94E8149D
:103AA000882359F0C954DE4F40E060E088810E94CD
:103AB000E814811104C081E003C080E001C082E00D
:103AC000DF91CF910895EF92FF920F931F93CF93C1
:103AD000DF93F82EE62EC42FD42FD695062F0D1B7C
:103AE000182F1D1B602F812F0E94285A6D2F6E0DDD
:103AF0004C2F812F0E94255A4C2F602F8D2F8F0D18
:103B00000E94285A4C2F602F812FDF91CF911F9157
:103B10000F91FF90EF900C94255A21E0AC0160E0EA
:103B200080E00C946D591F93CF93DF93182FCFE053
:103B3000D1E08EE498E00E948D1D1136B1F068F45A
:103B40001036D1F48FEF888319821092B20610924A
:103B5000B10687E10E94BC670FC0123619F0133618
:103B600021F00AC087E99EE102C080E89BE3DF9173
:103B7000CF911F910C9421126FE378E088E00E94AE
:103B80008D594981469550E068E084E50E94935B39
:103B900060E378E080E10E948D594881469550E0CD
:103BA00060E184E50E94935B61E278E088E10E9435
:103BB0008D59498150E08881481B510957FF02C047
:103BC0004F5F5F4F5595479568E184E50E94935B91
:103BD00068E178E080E20E948D598091B106909171
:103BE000B20629E1289FA001299F500D1124569566
:103BF00047955695479520E360E284E50E94845BF3
:103C000065E078E088E3DF91CF911F910C948D59A6
:103C1000FF920F931F93CF93DF93C82F80E098E01C
:103C20000E948D1DC13659F40E94A86880E89BE36C
:103C3000DF91CF911F910F91FF900C94211205E518
:103C40001DE0C5E6DDE08CE0F82EF80141918F0122
:103C500020E168E18F2D0E94A558499120E160E2A2
:103C60008F2D0E94A558F6E0FF0E8CE6F812EDCFDE
:103C70008091540D882309F454C00E94A66883E003
:103C80000E940D5D882351F08091270190912801B9
:103C9000807D9927909328018093270182E00E94DC
:103CA0000D5D882351F08091270190912801807B40
:103CB0009927909328018093270185E00E940D5D4C
:103CC000882351F0809127019091280180779927CE
:103CD000909328018093270184E00E940D5D882342
:103CE00051F08091270190912801807E992790932F
:103CF0002801809327011092540D80912701909103
:103D000028010E94AE68EFE9FFE03197F1F700C0AB
:103D100000000E94A46880EF90E0909328018093B7
:103D20002701DF91CF911F910F91FF9008950F937D
:103D30001F93CF93DF93182FC9EBD7E08BEF97E05A
:103D40000E948D1D113678F0133628F0133659F481
:103D500083E99DE102C080E89BE3DF91CF911F9151
:103D60000F910C94211262EF77E088E00E948D5948
:103D70004A815B8100E020E068E08AE20E94B10EA7
:103D80004C815D8120E068E08EE40E94B10E69EE16
:103D900077E080E10E948D594E815F8120E060E1F3
:103DA0008AE20E94B10E4885598594E05695479560
:103DB0009A95E1F720E060E18EE40E94B10E64EE96
:103DC00077E080E00E948D594881598120E060E0D1
:103DD0008EE40E94B10E4EE76CE382E00E94255A09
:103DE00043E26CE185E00E94285ACBE043E06BE3BC
:103DF0008C2F0E94285ACA5FC338C1F71091B406AD
:103E00008091B306893710F4C0E001C0C12FD6E01D
:103E10000CE3EC2FF0E0EB54F94F4081602F641B72
:103E20008D2F0E94285ACF5FC83708F0C0E0C11715
:103E300019F0DF5FDE3769F7DF91CF911F910F91A6
:103E4000089591E0211101C090E0442319F04FE062
:103E500053E002C043E153E0292F0C946D590F93B6
:103E600001E0211101C000E0242F48E051E10E944F
:103E700059590F9108956F927F928F929F92AF92AE
:103E8000CF92DF92EF92FF920F931F93CF93DF9326
:103E9000EC01162F842F4901602FD09062076090AB
:103EA000B2077090B307A091B407B091B507E8E5E9
:103EB000F1E0268137812619370937FF02C0215CDE
:103EC0003F4F76E0359527957A95E1F7422F20937D
:103ED0008507208531852A1B3B0B37FF02C0215CFB
:103EE0003F4F56E0359527955A95E1F7922F20934D
:103EF0008307442311F077826682992311F0B187FA
:103F0000A08790918407911104C090911E0595FFA0
:103F100006C0109285071092830710928407909133
:103F20008507911108C020918307211104C02281C7
:103F30003381232B61F0209120054AEF249F9001CB
:103F40001124220F331F3093560120935501811401
:103F50009104B1F02881211177C12091B807222363
:103F600009F47BC1213009F48AC191118FC1153642
:103F700009F4AFC1143609F4B6C141E00E94431BF5
:103F8000E114F10451F098818C2D9C1508F4892FCF
:103F9000F701E80FF11DE49101C0E0E08091B8075E
:103FA000813081F58091D60118166CF4DE1610F47C
:103FB000D39411F588818A1518F48F5F888301C026
:103FC0001882D12C19C08823B9F0D11014C088816F
:103FD000882319F08150888301C0A882E114F1047C
:103FE00059F098818C2D9C1508F4892FF701E80F62
:103FF000F11DD49001C0DA941092D6011E3249F41A
:1040000083E005C0833029F41E3219F481E08093E7
:10401000B807E114F10451F098818C2D9C1508F437
:10402000892FF701E80FF11D549101C050E08091F4
:104030008807811145C080918307882301F1488159
:10404000481B47FD40E08A2D90E0242F332727FDB1
:104050003095281739070CF04A2D4883E114F104F4
:1040600059F0C41608F44C2DF701E40FF11DE4914A
:10407000ED1518F4DE2E01C0D12C10928307288193
:104080002223F1F0809185078823D1F0D81AD7FC3C
:10409000D12C8D2D992787FD9095E114F10479F0AD
:1040A0003C2D2C1508F4322FF701E30FF11DE4919C
:1040B0002E2F30E0821793071CF0DE2E01C0D12C8A
:1040C000103669F190F4123409F473C028F41132F7
:1040D000A9F11E3221F197C0143409F446C008F446
:1040E00076C0153409F451C08EC0153609F451C09C
:1040F00040F4133609F46EC0D8F5123609F45CC0EA
:1041000082C01E38C1F01F3B31F0113809F07BC06E
:104110001092880721C018821092880738C08881C1
:10412000882309F470C081E090918807911180E0A4
:104130008093880768C08EE80E945C5D8091880744
:10414000882319F0109288075EC08881882311F0B7
:10415000892831F41092B80780E00E94301953C0CA
:1041600087E10E94BC6718824EC0D51609F44BC087
:10417000EF2809F448C080918807811144C0D51602
:1041800010F4D39411C0D12C0FC0D11002C0D12C87
:104190003AC0EF28C1F180918807811134C0DD2039
:1041A00011F0DA9401C0D52E552369F11092CD019A
:1041B0002AC088818A1539F180918807811123C02E
:1041C00088818A1510F48F5F0DC018820EC0888117
:1041D0008823C9F080918807811115C088818823C0
:1041E00019F08150888301C0A882E114F10479F2AA
:1041F00088818C1508F4C82EF701EC0DF11DE490B0
:10420000ED1408F4DE2C8091880781110AC021E0AA
:1042100080915A0190915B01892B09F420E0822F53
:1042200001C081E080938707D0926207DF91CF9130
:104230001F910F91FF90EF90DF90CF90AF909F90E4
:104240008F907F906F90089590918807911103C08F
:1042500091E09093B80740E091CE2091D6011216DC
:1042600024F0222319F015E601C014E61092D601BD
:104270001E3209F07ACE21E02093B80705C01E3225
:1042800009F073CE1092B80710E06FCE2091880726
:1042900021116DCEE82FE91BE7FDE0E0462F50E04D
:1042A0002E2F332727FD30952417350714F0EFEF15
:1042B000E60FFF27E7FDF095282F30E0E217F30720
:1042C00029F0EE0FFF1FE80DF91D1DC010928507A4
:1042D0004ECE811101C0862FF401E80FF11DE80FC9
:1042E000F11D329710C0282F30E070E06150710945
:1042F0002617370714F48F5F01C080E0880E911CE9
:10430000880E911CF40185919491DF91CF911F91BA
:104310000F91FF90EF90DF90CF90AF909F908F9094
:104320007F906F900C942112AF92CF92EF92FF92F8
:104330000F93AE2CC12CE12CF12C0E943B1F0F914E
:10434000FF90EF90CF90AF900895EF920F93E42EEF
:1043500000E020E030E040E00E9494210F91EF90D7
:104360000895BF92CF92DF92EF92FF920F931F9327
:10437000CF93DF93C82F8CEB9AE00E948D1DEE2423
:10438000E39406E024E231E144E06C2F8FED97E006
:104390000E949421B090DF0710926F01CAEAD7E023
:1043A00010E000E0C12CE4E0DE2EE12CF12C41E431
:1043B000612F88E10E94345941E3400F612F8EE163
:1043C0000E943459802F0E943213AC01612F8AE27F
:1043D0000E949659073081F0A881B98124E630E027
:1043E0000E94C86AA70196010E943C6BA901612F37
:1043F0008AE50E94935B0AC081E0B81611F040E2A2
:1044000001C041E2612F8AE50E94210F0F5F185F12
:104410002296083061F668EB7AE088E20E948D59B6
:10442000409100015091010160E388E70E94935B95
:1044300081E0B8120AC0B09284074FE761E880912A
:1044400008050E940F1280930805DF91CF911F91FC
:104450000F91FF90EF90DF90CF90BF900895EF9273
:104460000F931F93CF93DF93C82F83EB9AE00E94A3
:104470008D1DE12C06E024E231E143E06C2F8EED4E
:1044800097E00E949421D0E0C0E0C43018F018EF0B
:104490001D0F01C01D2F8FE08C0F0E940D5D082F96
:1044A000CF5F20E04C2F612F8AE20E94780F40E31B
:1044B000400F202F612F84E40E94A558D85FC93097
:1044C00021F7D8E3C0E08C2F0E940D5D182F00E08B
:1044D0002C2F43E95AE06D2F80E00E94595940E3A8
:1044E000410F212F6D2F80E20E94A558CF5FD85039
:1044F000C63049F74BE85AE068E184E50E949359D9
:1045000016E0C0E2D0E02D2F48E451E16C2F84E5A5
:104510000E946058812F0E940D5D40E3480F282FB4
:104520006C2F8CE60E94A55881E0810F0E940D5DE2
:1045300040E3480F282F6C2F88E70E94A558DF5FC3
:10454000C85F1E5FD430F9F6DF91CF911F910F91B4
:10455000EF900895EF920F93CF93C82F83E89AE0DE
:104560000E948D1DE12C06E024E231E142E06C2F37
:104570008DED97E00E94942169E877E080E10E9448
:104580008D5969EB77E088E10E948D5968EA77E000
:1045900080E20E948D5969E977E088E20E948D5996
:1045A00069E777E080E3CF910F91EF900C948D59FC
:1045B0004F925F926F927F928F929F92AF92BF9233
:1045C000CF92DF92EF92FF920F931F93CF93DF93DF
:1045D000C82F8AEC90E10E948D1DA7E0AA2ECC2462
:1045E000C394B8ECEB2EB0E1FB2E0CE020E331E1FC
:1045F0004BE06C2F8DEE97E00E943B1F6090ED0723
:1046000080906207C3EAEC2EC4E0FC2EC2EAD4E03C
:10461000AA24A394B12C18E0712C992487FC9094BF
:10462000C12CD12CF0E34F2E4A0C0C2D65EC70E11F
:10463000812F0E948D59442D612F8CE00E943459A6
:104640006A147B0449F48C149D0431F4809188072A
:10465000811105C021E001C020E0512C03C022E0FF
:1046600055245394013099F0022FF70120814CE634
:1046700050E1612F88E40E9459595520C1F06CE146
:10468000F70180810E940A12F701808310C04881DF
:10469000552747FD5095612F8CE60E94845B55207D
:1046A00031F04DE763E888810E9407128883FFEFAD
:1046B000CF1ADF0A82E0C816D10409F0B6CFE2E0D3
:1046C000EE0EF11C2296185FFFEFAF1ABF0A1034EE
:1046D00009F0A6CFDF91CF911F910F91FF90EF903E
:1046E000DF90CF90BF90AF909F908F907F906F9012
:1046F0005F904F9008957F928F929F92AF92BF925A
:10470000CF92DF92EF92FF920F931F93CF93DF939D
:10471000D82E8BE79AE00E948D1D56E0A52E65E00D
:10472000C62E75E7E72E7AE0F72E06E024E231E1A7
:1047300041E06D2D8CED97E00E943B1FC090DC079F
:10474000809062078091630081FF04C06EE67AE08A
:1047500088E1FCC0CA9480918807882319F043E05F
:10476000942E02C099249394C2E1D5E0B12C10E1BB
:10477000AA24A394AB0C20E04A2D612F80E00E9474
:10478000260FF12CCB1002C08F1411F000E001C0F5
:10479000092D802F8270782E92E0F91609F444C01A
:1047A000E3E0FE1609F455C0F1E0E980FF16D1F010
:1047B000E294E694E69433E0E3222E2D43E65AE0B9
:1047C000612F88E10E945959772009F45AC062E0AC
:1047D0008E2D0E9412128295880F880F807C9981FD
:1047E0009F731FC0EE0CEE0CE594E5948E2D9DE0BA
:1047F0008902F0011124F7FD3396AF0155954795D5
:1048000055954795202F612F82E40E94845B772085
:10481000C1F14FE161EE8E2D0E940F128F739981CD
:10482000907C982B99832DC0E880EE2DE770EE2EBA
:104830002E2F45E55AE0612F88E40E9459597720D0
:1048400001F163E08E2D0E94121287709881987F8B
:1048500016C0E880E594E594E594202F4E2D612F55
:104860008AE50E94780F772061F04FE061EF8E2D8E
:104870000E940F12880F880F880F98819770982BCD
:104880009883F394F4E0FF127DCF185F2296AF1661
:1048900011F0BA2C6DCF6AE47AE080E30E948D5962
:1048A00084E0C8120AC048E266EF809122050E94A7
:1048B0000F128093220521E201C020E240912205DF
:1048C000552747FD5095465F5F4F60E38EE40E9499
:1048D000845BEE24E39495E0C912E12C2E2D46E48E
:1048E0005AE068E380E00E946D5904E411E0CAE0F8
:1048F000D5E090E3F92EF801419151918F01699132
:104900007991461B570B440F551F20E268E38F2D0A
:104910000E94845BF8E1FF0E80E9F812ECCFEE20F4
:1049200091F090E6D9120FC088E0E4E4F1E0AAE04B
:10493000B5E001900D928A95E1F781E00E94ED5378
:1049400087E10E94BC6766E37AE088E0DF91CF915F
:104950001F910F91FF90EF90DF90CF90BF90AF909D
:104960009F908F907F900C948D59FF920F931F937F
:10497000CF93DF93F82EEB018A0147E16CE20E94AE
:10498000631D43E06BE28F2D0E94285A43E06CE2E6
:104990008FEF8F0D0E94255AC8016FE87FEF0E94AC
:1049A000066B2CE2260FCE0161E770E00E94066BD9
:1049B000862F45E0622F8F0DDF91CF911F910F91D0
:1049C000FF900C94631DCF92DF92EF92FF920F93B2
:1049D0001F93CF93DF93CAEAD7E04A815B81688156
:1049E00079818AE20E94B5244C815D816E817F814C
:1049F00086E50E94B5242896EAE3FE2E0DE510E038
:104A0000F7E3CF2E899199919C5FB8010E94066BC4
:104A1000DD24D394D60EEC2CE61A4D2D6E2D8F2D61
:104A20000E94285A4D2D6E2D81E08F0D0E94285A2C
:104A30004D2D6E2D82E08F0D0E94285A85E0F80ED4
:104A400089E4F812DFCFDF91CF911F910F91FF9092
:104A5000EF90DF90CF900895DF92EF92FF920F9347
:104A60001F93CF93DF93F82E81EF9AE00E948D1D64
:104A7000EE24E39406E024E231E145E06F2D80EE80
:104A800097E00E9494211092E007C0E4D7E010E084
:104A9000812F0E94321348815981841795070CF4A5
:104AA000AC01499359932C853D85281739070CF49F
:104AB0009C013D872C87143060F0FE017097240F15
:104AC000351F37FF02C02F5F3F4F35952795318344
:104AD00020831F5F1730E1F680915C078093840785
:104AE00090E2F91621F08FEBF8120EC00BC08F5F29
:104AF00080935C07833041F487E10E94BC6781E0CA
:104B00000E94ED5310925C0780915C07813089F020
:104B100050F0823009F072C010926F01C9EDD4E0FC
:104B2000E0E4F7E01FC060EE7AE088E10E948D5972
:104B300065C0C2E3D7E0D12C18E9E12E1AE3F12ECB
:104B400008E615ECFF86EE861D8F0C8F8D2D0E94DA
:104B5000321389939993D39497E0D912F3CF62EDEE
:104B60007AE043C061917191848595859B01281BF2
:104B7000390B37FF03C031952195310923333105B6
:104B80003CF1DF0150974D915C91598348839A0124
:104B9000261B370BB90137FF02C0615C7F4FB6E0BF
:104BA00075956795BA95E1F7261B370B3F872E87DA
:104BB000841B950B9C0197FF02C0215C3F4FA6E030
:104BC00035952795AA95E1F7821B930B9D8F8C8FC6
:104BD000229687E0EE34F80729F60E945652909309
:104BE00004058093030560EC7AE080E10E948D5912
:104BF00043E151E168E182E10E949359DF91CF9155
:104C00001F910F91FF90EF90DF900C94E324FF929F
:104C10000F931F93CF93DF93182F062FEA01F22EE5
:104C2000222321F061E00E941212182FBE01802F72
:104C30000E948D592F2D412F602F86E60E94211F43
:104C4000812FDF91CF911F910F91FF900895FF92D7
:104C50000F931F93CF93DF93182F062FEA01F22EA5
:104C6000222321F061E00E940A12182FBE01802F3A
:104C70000E948D592F2D412F602F86E60E94211F03
:104C8000812FDF91CF911F910F91FF9008951F9376
:104C9000CF93DF93D62F122F0E942726C82F212FC4
:104CA000482F6D2F86E60E942F1F8C2FDF91CF910A
:104CB0001F910895CF93482FCAE02AE0829FC00138
:104CC00011248B5F9D4F2FE130E0241B3109C29FDF
:104CD000A001C39F500D1124BC01665F7F4F0E944D
:104CE000706BEBE3F3E0DF011D92CA95E9F782E018
:104CF0000E94ED53CF910C948C540F93CF93C42FFB
:104D00000E94780F002339F046E16AEE8C2FCF9194
:104D10000F910C9407128C2FCF910F9108950F9340
:104D20001F93CF93DF93D82F162FC42F022F47FF47
:104D300008C041E28AEF8D0F0E94A55886E08C1BC7
:104D4000C82F2C2F43EF5EE0612F8D2F0E94595901
:104D5000DF91CF911F910F9108950F931F93CF93E0
:104D6000DF93162F8132C0F5811103C0611108C095
:104D700033C0803219F4662329F02EC0662311F067
:104D800001E001C00FEF080F0E94A30EEC01802F7D
:104D90000E94A30EFC0198818FEF890F8031E0F40F
:104DA00020812131C8F4291302C08BE009C01123EE
:104DB00029F0903188F49F5F98830EC088830CC0DF
:104DC000815029F09081288121939993F9CF82E035
:104DD0000E94ED530093F507DF91CF911F910F9142
:104DE000089580913B03882329F089E89BE10E9484
:104DF000531981E008956CE07EE088E20E948D59AD
:104E00006DEF7DE080E30C948D59CF93C82F8136F0
:104E100069F08F3B39F0803699F4809131070E9418
:104E20005A2604C080E00E94BC670AC08C2F0E94F2
:104E30005C5D81E00E9430198BEE90E40E94531972
:104E400061EF7DE088E00E948D59CF910C94FB26A4
:104E50000F93CF93C82F80912E07882319F06AE60D
:104E60007DE002C06DE57DE088E00E948D594FE055
:104E700062E377E080912D070E94B85200E12AE0BA
:104E800042E357E060E181E00E9437594FE360E17F
:104E900082E40E9434590E94FB26C13609F44EC0B8
:104EA000CF3B21F0C03609F055C005C080E0CF915E
:104EB0000F910C94BC6780912E078823A9F08BE496
:104EC0009DE00E94B71080912D070E9426538823F1
:104ED00039F087E10E94BC6782E080932E072CC0E6
:104EE00080E00E94BC6728C0809105058F5F0E940A
:104EF000DD55C091050581E08C0F0E94AD558111F3
:104F000009C0C150C13108F0CFE080910505C81338
:104F1000F2CFC0E0C093050581E00E94ED530E94EE
:104F20008C54809105050E94EF528091F5010E94FA
:104F30004D1282E080930E0180E601C081E60E945E
:104F40005C5D81E00E94301988E29DE2CF910F9173
:104F50000C945319CF910F9108959091D60181E04F
:104F6000191624F0911101C080E081951092D601AC
:104F70000895CF93C82F0E94AD27909130072091BC
:104F8000CD01223671F028F4203639F02136A9F00F
:104F900006C0233661F02E3611F481E00FC01816DA
:104FA00024F49C1730F49F5F04C0882311F0911102
:104FB00091509093300780E001C082E0CF91089536
:104FC00067EE7DE088E00E948D596DED7DE080E127
:104FD0000E948D5963ED7DE088E10E948D5969EC56
:104FE0007DE080E20E948D596FEB7DE088E20E94B7
:104FF0008D592AE240E367E082E10C94965BCF93FF
:10500000DF9380E00E94E02784E00E94B927D82F38
:10501000C09130076C2F660F660F660F685F20E047
:1050200044E288E10E94BB59D130A9F5C13079F43E
:105030000E94F12681110DC08091F6078F5F809349
:10504000F60760E00E949E1B10922F0702C0C2303C
:1050500018F481ED9DE30EC08091F607C43069F429
:10506000809331078091CD010E945C5D1092CD014B
:1050700085E097E20E9453190BC0C23031F48F5F74
:105080008093F60761E00E949E1B81E080932F07CA
:1050900010925E070AC0D23041F410925E078091F0
:1050A000CD010E945C5D1092CD018091F607809346
:1050B000F507DF91CF910895CF92DF92EF92FF92A3
:1050C000CF93DF93FC01EB019C01DC010E94B96AE4
:1050D0009B01AC01DE010E94CF6A272F382F492F98
:1050E0005527DF010E94CF6A6B017C013CE0F694FA
:1050F000E794D794C7943A95D1F724E630E02C1B77
:105100003D0B0E94B96A6E5C7F4F8F4F9F4F6C0DB5
:105110007D1D8E1D9F1D24E630E040E050E00E9482
:105120001A6BC901DF91CF91FF90EF90DF90CF9084
:1051300008951F93CF93DF936115710529F1192FFE
:10514000111F1127111F19F091958195910977FF72
:1051500010C0719561957109C0E0D4E09E01281BD3
:10516000390BC9010E945C289E01281B390BC9011B
:1051700002C00E945C28112329F022273327281B14
:10518000390B01C09C01C901DF91CF911F91089596
:10519000EF920F93CF93DF93962F642F322F402FF0
:1051A0008823E1F121E001E0C091F3078EE0C89F80
:1051B000E0011124CB56DC4F333631F44C85892F76
:1051C0000E947D268C8734C0323631F44D85892F7C
:1051D0000E947D268D872CC0E42FF0E0E30FF11DA7
:1051E000E30FF11DEE0FFF1FEE0DF11DEC0FFD1F84
:1051F000EF01411108C0E22E04E62CE94881892F15
:105200000E94DD1C09C048814C59E22E04E620E0D2
:10521000892F0E94DD1C845688830AC001E0E0913A
:105220005A01F0915B01EF2B09F400E020E0BCCFC4
:10523000DF91CF910F91EF9008952F923F924F926F
:105240005F926F927F928F929F92AF92BF92CF9216
:10525000DF92EF92FF920F931F93CF93DF9300D0D3
:1052600000D01F92CDB7DEB7182F8CEA9DE00E94C8
:105270008D1DB5E0AB2EC12C0BEAE02E0DE0F02E1B
:105280000CE020E331E144E0612F87EE97E00E94DB
:105290003B1FF090E707F11002C020E00FC0109212
:1052A0006F0121E0F212F9CF20E043E060E080914D
:1052B000F3070E94FB118093F30721E04091F3076D
:1052C0004F5F68E080E00E94260F8091F3070E9404
:1052D000401DD82E31E0831731F082E0D81206C08D
:1052E0006BE97DE005C063EA7DE002C064E97DE032
:1052F00088E00E948D598091F307E82FF0E0EE0FCF
:10530000FF1FE655F84F40815181453651052CF479
:105310004C395F4F24F012E003C010E001C011E0EF
:105320000E94CC14811110E06EE87DE080E10E94C3
:105330008D59112319F081E0E2E0FE1280E0EE24A5
:10534000E39400E02D2D48E168E10E94C828113067
:1053500019F081E0F2E0FF1280E0E12C00E02D2D59
:1053600048E160E30E94C82866E87DE080E20E9490
:105370008D59112319F081E023E0F21280E0EE2430
:10538000E39401E02D2D48E268E10E94C828113025
:1053900019F081E033E0F31280E0E12C01E02D2DE3
:1053A00048E260E30E94C82860E87DE080E30E9454
:1053B0008D5981E094E0F91280E0E12C00E023E6D1
:1053C00040E36EE10E94C8286AE77DE088E30E941E
:1053D0008D5981E0E5E0FE1280E0E12C00E022E65C
:1053E00048E36EE10E94C8284091F307FEE04F9F1A
:1053F000A001112424E0D29E400D511D11244551DD
:105400005E4FFA01E655FE4FDA01A555BE4F1C91DD
:10541000DA01A455BE4FFC9034E6F30EDA01A35531
:10542000BE4F0C910C5980810E94BE14682E812FB2
:105430000E94BE14782E44E660E08F2D0E94A814CE
:10544000982E44E660E0802F0E94A814882E809158
:10545000F3070E94CC14E62DFF27E7FDF095FD83AE
:10546000EC83092D112707FD1095882309F45DC0F1
:10547000C12CD12C7601B12C61E2262E312C74E6A0
:10548000472E512C6C817D81D701C601B595A7951A
:10549000979587950E949928880F991FB1010E94BE
:1054A000066B609FC001619F900D709F900D11244D
:1054B0005FE3A52EAB0CB2010E94F26AF0E4F61B8A
:1054C0006F2F8A2D0E94D8598B2D8370B394811130
:1054D00008C06FE38A2D0E94D8596B2D8FE30E947C
:1054E000D85921E2C20ED11CE11CF11C3EE3B312DB
:1054F000C9CFE091F307F0E0EE0FFF1FE655F84F3C
:1055000000811181C80161E270E00E94066B862F64
:105510004EE361E0825A0E94285A8091F3070E946C
:10552000CC14882309F49CC069C0E12CF12C512CC7
:1055300081E2C82ED12C94E6A92EB12C872D992773
:1055400087FD90959B838A83282C332427FC3094F5
:105550006C817D81C7010E949928B6010E94066B6B
:10556000609FC001619F900D709F900D1124BEE55A
:105570004B2E450CB5010E94F26A90E2961B692FF2
:10558000842D0E94D859E52DE370E983E11109C00B
:1055900060E2842D0E94D85960E2650D8EE50E947C
:1055A000D8596A817B81C7010E949928B6010E945F
:1055B000066B629DC001639D900D729D900D11243C
:1055C000AEE54A2E4518B5010E94F26A605E842D50
:1055D0000E94D859F981F11109C060E2842D0E941E
:1055E000D85960E265198EE50E94D859539421E29A
:1055F000E20EF11C3FE15312ABCF7BCFC8019C5FA1
:1056000097FD01966C817D81959587950E949928DB
:105610009C01220F331FA92D97FCAD5FA595A59581
:10562000BB27A7FDB0950E94B16A29E130E040E0B8
:1056300050E00E943C6B69017A01C90161E270E0AF
:105640000E94066B80E4861B4EE3682F8FE30E9466
:10565000255AC601D7FC01967C01F594E7942EC02B
:10566000101611060CF4762C672D772767FD7095C0
:10567000C8010E9499281016110614F4A92D01C022
:10568000A82DA7FDAD5FA595A5959C01BB27A7FDFE
:10569000B0950E94B16A29E130E040E050E00E94FC
:1056A0003C6B7901C90161E270E00E94066B80E207
:1056B000861B4EE3682F8FE30E94255A89E1809F65
:1056C000A001819F500D112457FF02C041505F4F30
:1056D000852F880F880B452F582F60E382E70E94A3
:1056E000935B89E18E9DA0018F9D500D112457FF82
:1056F00002C041505F4F852F880F880B452F582FD0
:1057000068E084E50F900F900F900F900F90DF915D
:10571000CF911F910F91FF90EF90DF90CF90BF90AE
:10572000AF909F908F907F906F905F904F903F9041
:105730002F900C94935B90E0E92FF0E0EC5FFD4E2E
:10574000E491E81721F0EE2321F09F5FF5CF892F38
:10575000089580E00895823430F4E82FF0E0EC5FA3
:10576000FD4E8491089580E20895FF920F931F9358
:10577000CF93DF93C82FD62FF42E122F622F842FB2
:105780000E94BC10FC01E53F81E0F80794F09BE02B
:105790009E0F9F1510F09CE09E0F40E3490F202FB5
:1057A0006D2F8C2FDF91CF911F910F91FF900C9453
:1057B000A558212F4CEA5BE06D2F8C2F0E94595980
:1057C000DF91CF911F910F91FF900895BF92CF92DB
:1057D000DF92EF92FF920F931F93CF93DF93C82F27
:1057E0008FE89BE00E948D1D26E0E22E0CE020E376
:1057F00031E143E06C2F84EE97E00E949421B09059
:10580000E407C03611F0CE3669F48FEF8B0D84308B
:1058100048F48093F8078C2F0E945C5D84E59CE23D
:105820000E94531966E87BE088E00E948D59CBEE18
:10583000D1E090E1F92E11E0CC24C3941B11C12CCE
:1058400063E87BE08F2D0E948D5940E3410F6F2D5F
:105850008CE00E9434592C2DFE01E353FD4F408112
:105860006F2D8AE20E94780F8AE5D82EE12C0C2D4C
:105870002E2D412F6F2D8D2D0E94B52BE39486E0A8
:10588000D80E84E0E812F3CF1F5F88E0F80E2A9666
:10589000153091F6DF91CF911F910F91FF90EF900E
:1058A000DF90CF90BF9008958F929F92AF92BF925A
:1058B000CF92DF92EF92FF920F931F93CF93DF93DC
:1058C000C82F8090F8072AE0829E40011124C4016D
:1058D00080559B4F4C0184EA9BE00E948D1DAA24B9
:1058E000A394CC24C39452EAE52E5BE0F52E00E0AD
:1058F00020E030E040E06C2F85EE97E00E943B1FF7
:105900004091F8074F5C60E080E30E943459A0901A
:10591000E507B090880718E0D12CAD1005C01B1426
:105920002CF442E0E42E04C0E12C02C0EE24E39407
:1059300091E0D91681F06BE97BE0812F0E948D59AF
:105940000E2D2E2DF4014085612F80E30E947D26CF
:10595000F401808751C065E97BE0812F0E948D5959
:1059600030E3C32EF12C809162078F1511F000E017
:1059700001C00E2D4091F8074F5F2F2D612F8C2D08
:105980000E94B52BEE2091F1209162072F112EC0BD
:105990001B1434F080915A0190915B01892B31F1F5
:1059A000E401C20FD11DC20FD11DE881F981CF01E1
:1059B0008B509E4F843FF1E09F0714F484EF91E0F9
:1059C00022E048EF51E064EF71E00E944811AC0121
:1059D00080916201882351F0443F21E0520711F485
:1059E00040E050E0455F514059834883F39486E09E
:1059F000C80E94E0F912B7CFD394185FE2E0DE123C
:105A00008CCFDF91CF911F910F91FF90EF90DF909E
:105A1000CF90BF90AF909F908F900895CF93C62F57
:105A20000E945C5D0E948C54C09305058C2F0E94DF
:105A3000EF528091F5010E944D1282E080930E0199
:105A400081E00E94ED530E948C5481E0CF91089533
:105A5000BF92CF92DF92EF92FF920F931F93CF935B
:105A6000DF93D82F83E09BE00E948D1D80918807F3
:105A7000811110C0E0918507E7FF0CC0E195EC3083
:105A800008F0EBE0F0E0EE0FFF1FE05DFE4E8591C9
:105A900094915BC01091E2074FE06D2F82EE97E08A
:105AA0000E94A5216DEF7AE080E00E948D590E944E
:105AB0000055AC0160E086E60E94935B41E06CE03B
:105AC00080E00E94431BC091E20780912E07823044
:105AD00021F41092E10710922E07D63638F4D4360E
