:100000000C9443060C9460060C9460060C946006F5
:100010000C9460060C9460060C9460060C946006C8
:100020000C9460060C9460060C9460060C946006B8
:100030000C94C3070C9460060C9460060C9445085D
:100040000C940A070C9460060C94A8580C94600653
:100050000C9460060C9460060C9460060C94600688
:100060000C9460060C9429070C9460060C946006AE
:100070000C9460060C9460060C9460060C94600668
:100080000C9460060C9460060C9460065255442053
:10009000454C45205448522041494C20525544205B
:1000A00054485220454C452041494C2041494C2060
:1000B000454C4520544852205255442041494C203B
:1000C00054485220454C452052554420000301021B
:1000D000000405060700000000000001081E64017E
:1000E00001081E6401010F32960A0A1E32966D65E0
:1000F0006E75537461636B206F766572666C6F7793
:10010000006D656E75537461636B20756E64657206
:10011000666C6F7700707265737320616E79204B27
:10012000657900414C45525400506C6561736520FF
:100130007265736574207468656D005377697463C4
:10014000686573206E6F74206F666600414C45527F
:100150005400416C61726D732044697361626C6517
:100160006400544852206E6F742069646C650045C9
:100170004550524F4D206C6F77206D656D004F4696
:1001800046414253525573525525454C73454C25B3
:10019000544873544825414C73414C2550312050EC
:1001A0003125503220503225503320503325005411
:1001B0004852525544454C454944304944314944DC
:1001C0003241494C47454154524E535731535732AF
:1001D000535733535734535735535736004F4646CA
:1001E000004F4E20002D2D2D002D2D2D2043483168
:1001F0002043483220434833204348342043483585
:100200002043483620434837204348382043483964
:10021000204348313043483131434831324348313B
:10022000334348313443483135434831364348310C
:1002300037434831384348313943483230434832F4
:1002400031434832324348323343483234434832F0
:1002500035434832364348323743483238434832D0
:100260003943483330005031202050322020503361
:1002700020204D41582046554C4C50504D31505047
:100280004D3250504D3350504D3450504D355050EC
:100290004D3650504D3750504D384348312043482B
:1002A00032204348332043483420434835204348D4
:1002B00036204348372043483820434839204348B4
:1002C0003130434831314348313243483133434878
:1002D0003134434831354348313643483137434858
:1002E000313843483139434832304348323143484A
:1002F000323243483233434832344348323543483C
:10030000323643483237434832384348323943481B
:100310003330002D2D2D2D00564552533A205631A5
:100320002E333336332D6572657A00444154453A95
:100330002030312E31312E323031300054494D458C
:100340003A2030353A30353A3530002053564E3A5F
:10035000207472756E6B2D723234340012081200E4
:10036000081C0808081C0800000822004900220890
:100370000000000000227F22000000082200490047
:100380002208000008220049002208000000227F05
:100390002200000000000822004900220800000896
:1003A0001C0808081C080050376829932DD0450DFB
:1003B0003F6938C62FE0476931FC33EE28E4341535
:1003C00035A435153670756C736520746162206FC5
:1003D000766572666C6F7700544852525544454CAE
:1003E0004549443049443149443241494C474541EB
:1003F00054524E5357315357325357335357345344
:10040000573553573600544852525544454C454988
:10041000443049443149443241494C4745415452A2
:100420004E5357315357325357335357345357352D
:100430005357360020202054546D0045787045787D
:1004400046466E654D656443727300544F540053C5
:1004500054250053544B0054535700544D450053FA
:10046000544154004672536B7900746D61696E207B
:100470002020202020202020206D7300746D7231F8
:10048000204A697474657220202020757300746D91
:1004900072314C6174206D696E20202020757300CC
:1004A000746D72314C6174206D617820202020754C
:1004B00073005354415432004D6F6465004F4646FB
:1004C000007320004C69676874204F4646206166BF
:1004D000746572004C69676874205357004F464634
:1004E000204F4E00466C617368204F6E2042656558
:1004F00070004F4646204F4E004265657020436FA6
:10050000756E74646F776E004F4646204F4E004DF7
:10051000696E7574652042656570004F4646204FD0
:100520004E005468726F74746C6520526576005387
:10053000494E474F534D5046494C540046696C74E0
:10054000657220414443006D20496E616374697691
:1005500069747920416C726D0056204241542057D5
:1005600061726E696E6700436F6E747261737400BE
:100570005345545550004F4646004F4E004F464697
:10058000004F4E00544852205761726E202053573E
:1005900020205761726E20204D454D205761726EAC
:1005A0002020414C41524D205761726E426565706A
:1005B000657220202020005345545550204F505440
:1005C000530043616C0050504D494E0001045645A4
:1005D0005253494F4E005472696D2D202B00204D0F
:1005E000656E75204578697420446F776E202020F1
:1005F00055705269676874204C65667400444941BF
:100600004700413141324133413441354136413770
:10061000413800414E41003C202020203E005365DF
:10062000744D6964205365745370616E446F6E65D8
:100630002020200043414C494200312F380066728F
:100640006565004D4F44454C53454C0044454C4571
:100650005445204D4F44454C2020205B4D454E5580
:100660005D00504F534E45470053686966742053F0
:10067000656C007553656300344348203643482059
:1006800038434820313043483132434831344348BD
:10069000313643480050504D20202053494C565F7E
:1006A0004153494C565F4253494C565F4354524163
:1006B0004330390050726F746F00524554413132EB
:1006C00033004265657020436E74005472696D207A
:1006D000537700457870202020457846696E65463E
:1006E000696E6520204D656469756D436F61727335
:1006F00065005472696D20496E63004F46464F4E47
:100700002000542D4578706F004F46464F4E200014
:10071000542D5472696D00436F756E7420446F7769
:100720006E436F756E7420557020200054696D659E
:10073000722000547269676765720054696D657252
:10074000004E616D650053455455502000010A026A
:10075000010101010101070301015B4D454E555D9A
:1007600020205B455849545D0059455320202020E6
:10077000204E4F0044454C455445204D4F44454C78
:1007800000204142434445464748494A4B4C4D4E60
:100790004F505152535455565758595A303132339D
:1007A0003435363738395F2D2E0065787020202596
:1007B000202073773120737732004558504F2F44F3
:1007C0005200050444522048696768004452204C96
:1007D0006F77004452204D696400447253773200B1
:1007E00044725377310057656967687400457870C3
:1007F0006F004558504F2F445220002D2D2D783E2C
:1008000030783C307C787C663E30663C307C667C60
:1008100063312063322063332063342063352063E7
:1008200036206337206338206339206331306331E9
:10083000316331326331336331346331356331369F
:10084000002B2A5200777420737263202073772064
:10085000637276004D495845520044454C45544515
:10086000204D4958205B4D454E555D00536C6F77C8
:100870002020557000536C6F772020446F776E00F6
:1008800044656C61792055700044656C6179204441
:100890006F776E0041646420202020204D756C74B9
:1008A00069706C795265706C61636520004D756C80
:1008B000747078004F4646005761726E696E67002B
:1008C000537769746368002D2D2D783E30783C3065
:1008D0007C787C663E30663C307C667C633120638D
:1008E000322063332063342063352063362063373E
:1008F0002063382063392063313063313163313212
:10090000633133633134633135633136004375729B
:10091000766573004F4E204F4646005472696D0055
:100920004F66667365740057656967687400536F36
:10093000757263650045444954204D49582000496B
:100940004E53455254204D495820002D2D2D2D2019
:100950002020763E6F66732020763C6F66732020E1
:100960007C767C3E6F66737C767C3C6F6673414E12
:1009700044202020204F522020202020584F522059
:100980002020200046756E6374696F6E20563120FA
:100990002056320043535749544348000303434C05
:1009A000454152204D49584553205B4D454E555DBC
:1009B00000205245544100205245544100205245E8
:1009C0005441002052455441004368616E6E656C8D
:1009D000204F726465720054454D504C415445534C
:1009E00000434F5059205452494D205B4D454E55C0
:1009F0005D002D2D2D494E560073756254206D6992
:100A00006E20206D617820696E76004C494D495406
:100A10005300010443560043555256450050524579
:100A200053455400454449542D3E004355525645C4
:100A300020000A01010101010101010101014545F7
:100A400050524F4D206F766572666C6F770045454A
:100A500050524F4D206F766572666C6F77006765F8
:100A60006E7772697465206572726F7200454550C9
:100A7000524F4D20466F726D617474696E6700420B
:100A8000616420454570726F6D2044617461004D52
:100A90004F44454C202020202000500850000000EA
:100AA000000000005E00000008060806287E287E80
:100AB00028042A7E2A104C2C106864344A56205090
:100AC0000000000806000018244200004224181408
:100AD000083E081408083E08080000B0700000082E
:100AE00008080800006060000060180600003C4232
:100AF000423C0000447E40004462524C00424A4A5C
:100B0000340018147A10002E4A4A32003C4A4A3007
:100B10000002720A0600344A4A34000C52523C0069
:100B2000006C6C000000A86800000008142200148B
:100B300014141400002214080004520A043C425AFF
:100B40005A1C007C12127C007E4A4A34003C42420D
:100B500024007E42423C007E4A4A42007E0A0A024B
:100B6000003C425234007E10107E00427E42000063
:100B70002040403E007E182442007E4040407E04DB
:100B800008047E007E08107E003C42423C007E123B
:100B9000120C003C42225C007E12324C00244A526D
:100BA0002402027E0202003E40403E1E2040201EE3
:100BB0007E2018207E422418244202047804020079
:100BC00062524A46007E424200000618600000421F
:100BD000427E0008040204084040404040000006F5
:100BE00008000030484878007E48483000304848C7
:100BF00048003048487E00784858580008FE0A08E7
:100C00000010A8A878007E08087000487A4000000C
:100C10008088FA00007E10284000427E400078085C
:100C20007008700078080870003048483000F828D4
:100C3000281000102828F80078100808005058687C
:100C40002800087E48480038404078182040201886
:100C5000384030403800483030480098A0A0780034
:100C60004868584800107C440000007E00000000E6
:100C7000447C101010443810103844101040800884
:100C800004201002010011241FBECFEFD0E1DEBF0F
:100C9000CDBF12E0A0E0B1E0E8EDF3EB02C00590BB
:100CA0000D92A639B107D9F710E1A6E9B2E001C06B
:100CB0001D92A331B107E1F70E94110E0C94EA597D
:100CC0000C940000E0915805F0E0EE0FFF1FE05B90
:100CD000FA4F808191810895FC01A0915805B0E000
:100CE000AA0FBB1FA25BBA4FED93FC938FEB099544
:100CF00080915A05809359050895E82FF0E0E35359
:100D0000FF4FE491F0E0EE0FFF1FED55FA4F8FB764
:100D1000F8940190F081E02D87FF01C07894CF0115
:100D20000895A3EAB5E0E3EBF5E060E0862F806488
:100D300087B9369A349BFECF349A208931898D91B8
:100D40009C91119796958795820F931F8E7F8D9317
:100D50009D9340815181240F351F36952795318B06
:100D6000208B84B195B1840F951F969587958193BB
:100D700091936F5F6830D1F60895DF93CF93CDB72D
:100D8000DEB760970FB6F894DEBF0FBECDBFFE0191
:100D9000319680E1DF011D928A95E9F7A3EAB5E07B
:100DA00050E015C067B9369A349BFECF349A84B1AF
:100DB00095B1280F391F4F5F4430A1F7219331932C
:100DC000369527952D933D935F5F583031F0208104
:100DD000318140E0652F6064E5CF60960FB6F894EE
:100DE000DEBF0FBECDBFCF91DF910895E3EAF5E0FE
:100DF00020E0822F806487B9369A349BFECF349AE4
:100E000084B195B1880F991F819391932F5F2830FA
:100E100081F708951F920F920FB60F9211248F93AE
:100E200080919C058F5F80939C058F910F900FBEE2
:100E30000F901F90189540919C0522B780919C05BA
:100E40004817C9F7942F80E030E0282B392BC901CF
:100E5000089578941F920F920FB60F9211242F933A
:100E60004F935F936F937F938F939F93EF93FF9332
:100E70004091800050918100F89480917D008F7D99
:100E800080937D007894209188052F5F2F7080914A
:100E90008905281789F4E0918805F0E03F96EF7006
:100EA000F070EE0FFF1FE859FA4F11821082809107
:100EB0005E058093590513C0E0918805F0E08091AC
:100EC000A0059091A105BA01681B790BCB01EE0F2B
:100ED000FF1FE859FA4F9183808320938805509330
:100EE000A1054093A005F89480917D0080628093D5
:100EF0007D007894FF91EF919F918F917F916F91F9
:100F00005F914F912F910F900FBE0F901F901895EA
:100F100040919A052FC0E0918905F0E0EE0FFF1F88
:100F2000E859FA4F208131813695279580918905BE
:100F30008F5F8F7080938905842F81508830A0F453
:100F4000C901815293408757954010F040E012C08C
:100F5000E42FF0E0EE0FFF1FE857FA4F2C5D35400D
:100F6000318320834F5F06C0215A3F402F5D3E42B0
:100F700008F441E09091890580918805981759F609
:100F800040939A0508951F920F920FB60F92112465
:100F90002F933F934F935F936F937F938F939F9381
:100FA000AF93BF93EF93FF9390E08CB58A3008F036
:100FB00064C09F5F923309F460C0F7CFC09A10926B
:100FC000E30504C0C09881E08093E3058091EA07BF
:100FD0009091EB079C012417350708F49A01309390
:100FE000EB072093EA0780910801909109019C0189
:100FF0004217530708F49A0130930901209308011E
:10100000A0910601B0910701FD01819191919BBDD5
:101010008ABDF0930701E093060112968D919C9191
:101020001397892BA1F48EEE97E09093070180939C
:1010300006018091F8028093E30587B78F7E87BF12
:1010400078940E94A713F89487B7806187BF809136
:101050009B05816080939B05FF91EF91BF91AF91BC
:101060009F918F917F916F915F914F913F912F91C0
:101070000F900FBE0F901F9018954CB55DB58091E5
:10108000E305882309F09ACF9DCF78941F920F92A1
:101090000FB60F9211242F933F934F935F936F934B
:1010A0007F938F939F93AF93BF93EF93FF93F894A6
:1010B00087B78D7F87BF789481B7845681BF909121
:1010C0005905992369F080919E05882329F490930E
:1010D0009E0581E080939F0591509093590521C012
:1010E00030919D053323B9F020919E05222399F07C
:1010F00090E080919F05882309F491E090939F05EB
:10110000992309F428E020935905992351F031508F
:1011100030939D0506C010929E0510929F05109277
:101120004D0580919F05882381F080914D0588238E
:1011300011F490E004C09091A20581E0982790936B
:10114000A205992311F41B9A01C01B980E94B75362
:1011500080919B05826080939B05F89487B782609D
:1011600087BF7894FF91EF91BF91AF919F918F913D
:101170007F916F915F914F913F912F910F900FBE93
:101180000F901F901895FF920F931F93782F142F95
:10119000163008F011C1772309F411C1703109F438
:1011A0000DC1703F09F408C1272F332727FD309563
:1011B000C90137FF04C088279927821B930B8A3007
:1011C0008CF417164CF08DE090E0821B930B0E947C
:1011D0000E5361E06827F3C0C9010D960E940E53BB
:1011E000682FEDC0482F552747FD50954A50504075
:1011F000FA01EE0FFF1FE40FF51FEE51FD4FE85A05
:10120000FD4F6081E855F240662309F4D5C0DF0147
:10121000AA5ABD4F653008F09DC0EC91E150E8300E
:1012200040F4F0E0EE0FFF1FE751FA4F20813181CB
:101230001DC0EA3018F420E034E018C0AE2FB0E052
:10124000E13170F4AA0FBB1FFD01EA54FD4FA8580D
:10125000BA4F2D913C9180819181281B390B06C09A
:10126000AA0FBB1FAB52BA4F2D913C91FA01EE0F62
:10127000FF1FE40FF51FE75CFA4FE0818E2FE7FDBB
:101280008D5F85958595482F552747FD50958AE0B8
:10129000E802C0011124480F591F6230D1F06330B9
:1012A00020F4613009F088C006C0633001F1643079
:1012B00009F082C036C0171634F460E042175307B5
:1012C0000CF07DC07BC060E0421753070CF477C080
:1012D00075C0171634F460E0241735070CF06FC0A2
:1012E0006DC060E0241735070CF469C067C017169D
:1012F00064F460E0F90137FF03C0F095E195FF4F1A
:101300004E175F070CF05BC059C060E0F90137FF72
:1013100003C0F095E195FF4F4E175F070CF44FC0E7
:101320004DC0171664F460E0F90137FF03C0F09573
:10133000E195FF4FE417F5070CF041C03FC060E0B6
:10134000F90137FF03C0F095E195FF4FE417F5076A
:10135000B4F134C08C91E95AFD4FF080663029F029
:10136000012F0F5F6730C9F40AC01F5F60E0412F93
:101370000E94C308882311F57F2D60E009CF60E04B
:10138000402F0E94C308182F8F2D60E0402F0E942D
:10139000C30860E0181791F412C060E0402F0E946B
:1013A000C308882349F08F2D60E0402F0E94C308B6
:1013B000682F882321F002C060E001C061E0862F21
:1013C0001F910F91FF9008954F925F926F927F92BD
:1013D0008F929F92AF92BF92CF92DF92EF92FF9245
:1013E0000F931F93CF93DF93182F5B013A014901AD
:1013F000E02E202F30E094E0492E512C422253223F
:1014000002FF04C0FB01C080D18006C0FB018081C7
:10141000C82EDD24C7FCD09423FD04C084E0F82E40
:1014200005E003C003E0F02E02E014FF05C01F70CA
:101430001066802F0F2DF82E8F2D8066181761F003
:101440008F2D8064181741F090911806992361F050
:10145000133611F0133441F4E601219680915A05B8
:1014600080935905802F17C0802F8066181761F070
:10147000802F8064181741F0992309F467C0123651
:1014800019F0123409F062C0E601219780915A05E3
:10149000809359058F2D90E00E940E53882351F0C0
:1014A000CC27DD27CC19DD09802F0E9495538F2D85
:1014B0000E9495538091620590916305C81BD90BDA
:1014C0008C169D0644F4812F0E94955380915D05F2
:1014D00080935905E401C615D70544F4812F0E9475
:1014E000955380915D0580935905E301CC15DD0589
:1014F000C9F0209739F4812F0E94865380915A05B4
:1015000080935905452821F0F501D183C08302C09D
:10151000F501C0838E2D83700E94FA4881E080938C
:101520005F0503C010925F0580E0DF91CF911F91AE
:101530000F91FF90EF90DF90CF90BF90AF909F9072
:101540008F907F906F905F904F900895E601B2CF9B
:101550000F93DF93CF930F92CDB7DEB769835527F3
:1015600047FD5095332727FD3095BE016F5F7F4FB4
:1015700009E00E94E40989810F90CF91DF910F91DA
:1015800008950F93DF93CF930F92CDB7DEB76983A2
:10159000552747FD5095332727FD3095BE016F5FD6
:1015A0007F4F01E00E94E40989810F90CF91DF9184
:1015B0000F9108950F93DF93CF930F92CDB7DEB7BE
:1015C0006983552747FD5095332727FD3095BE0188
:1015D0006F5F7F4F0AE00E94E40989810F90CF91ED
:1015E000DF910F9108950F93DF93CF930F92CDB7B3
:1015F000DEB76983552747FD5095332727FD309582
:10160000BE016F5F7F4F02E00E94E40989810F9065
:10161000CF91DF910F9108951F93182F682F6F704E
:1016200066502091F40222306CF0332727FD30956C
:101630002150304081E090E002C0880F991F2A9528
:10164000E2F7282F683008F092C0962F9595222354
:1016500011F0422F15C0E92FF0E0EC53FB4F8081D1
:10166000482F552747FD509557FF03C0509541958A
:101670005F4F242F47FD2D5F422F459545954F5FC6
:10168000A92FB0E02091DA0230E02170307082E0C2
:1016900090E0821B930B8A179B0739F48091F30229
:1016A0008F7019F044E071E001C070E0242F3327FF
:1016B00027FD3095FD01EE51FD4F60FF0AC0EE5150
:1016C000FE4F8081482F552747FD5095420F531FED
:1016D00009C0EE51FE4F8081482F552747FD509598
:1016E000421B530B4115510571F0952F9095991F91
:1016F0009927991F20E0FD01EC53FB4F808187FF64
:1017000021E0921769F0772359F4FD01EC53FB4F68
:101710008081882329F01082812F0E94955320C058
:10172000CA0184589F4F893F910570F4AC53BB4F59
:101730004C9382E00E94FA4816FF03C081E0809338
:101740004D0580915B0510C01416150614F083E852
:1017500001C08DE7AC53BB4F8C9382E00E94FA48E6
:1017600010924D0580915D058093590510E0812F01
:101770001F9108951F93209100103091011040E0B7
:101780008091E7059091E8052817390709F041E0B5
:101790004093650580910010909101109093E805A9
:1017A0008093E7058AE196E060E00E94211680912F
:1017B0006505882309F4F6C080E00E940B490E9469
:1017C0005A520E9483520E940C0B182F809166057A
:1017D00090916705009729F0019790936705809392
:1017E0006605112389F08091DE0290E024EF31E05C
:1017F000AC01429FC001439F900D529F900D112458
:1018000090936705809366058091C70260E040E091
:101810000E94C308882339F480916605909167057A
:10182000892B09F4BDC0C79A2091F5053091F605C2
:101830008091600590916105821B930B60E270E0DE
:101840000E94585970936305609362056115710594
:1018500091F08091E5059091E605821B930B62E083
:1018600070E00E945859709363056093620530934D
:101870006105209360053093E6052093E505E0912E
:101880005805F0E0EE0FFF1FE25BFA4F0190F08188
:10189000E02D812F09950E9431528091630081FFD4
:1018A00006C0809165008F7E8093650007C080919F
:1018B00065008061809365000E9488078091001018
:1018C000909101108F7190708230910521F00397F3
:1018D00009F068C04BC0E4EDF0E0E491F0E0EE0FF9
:1018E000FF1FED55FA4F8FB7F8940190F081E02D6E
:1018F00087FF01C078949F013695279536952795E7
:101900008091C602992787FD9095AC01249FC00164
:10191000259F900D349F900D112423E230E0A90102
:10192000E49F9001E59F300DF49F300D1124820F4C
:10193000931F9695909364058091E405805E809353
:10194000E405882379F58091C502981758F58091B0
:101950005E05809359058091DC0283FF23C082E3FA
:1019600090E090936705809366051CC08091D90232
:1019700090E08873907033E0959587953A95E1F7FC
:10198000BC01660F771F660F771F680F791F6B52B8
:101990007F4F8AE595E045E050E00E94A85902C0DB
:1019A000C79842CF1F910895EF92FF920F931F9314
:1019B0008C01E62EF42E0E945A5282E260E043E24D
:1019C00051E020E80E942C5080E068E1A8010E94CC
:1019D0005A50FF2031F08CE168E345E151E00E946C
:1019E0005A500E943152EE2011F089E102C08091DC
:1019F000C4020E942752FF20D9F080915E05809397
:101A000059050E948352807F803291F08091C702F5
:101A100060E040E00E94C308882331F48091DE0238
:101A2000882311F4EE2011F0C79AEBCFC798E9CFC5
:101A30001F910F91FF90EF9008959C0180915805A0
:101A4000E82FEF5FE0935805E53048F080935805A4
:101A50008EEE90E060E041E00E94D40C0895809109
:101A60005A0580935905F0E0EE0FFF1FE25BFA4F35
:101A7000318320838FEBF90109950895E091580592
:101A8000EE23B1F0882311F0E0E001C0E150E093D3
:101A9000580580915A0580935905F0E0EE0FFF1F1D
:101AA000E25BFA4F0190F081E02D8EEB09950895ED
:101AB00081E091E060E041E00E94D40C08958091C3
:101AC000D90287FD08C0887331F482E591E060E0B7
:101AD00041E00E94D40C08950F931F93CF93DF939E
:101AE0008091D90280FD52C0809100109091011028
:101AF0004497D0F38091DA0290E08170907022E0F8
:101B000030E0281B390BE22FF0E0E353FF4FE49164
:101B1000F0E0EE0FFF1FED55FA4F8FB7F8940081FC
:101B2000118187FF01C07894F901EE0FFF1FEA567B
:101B3000FD4FC181D28127853089058CF68DE02D3E
:101B4000C90168E070E00E945859621B730B6C0F6A
:101B50007D1F6017710724F48091DC0280FF10C0A4
:101B6000CE0FDF1FCF0168E070E00E945859C61BFE
:101B7000D70B0C171D0754F48091DC0280FF06C0C0
:101B800082E691E060E041E00E94D40CDF91CF91C9
:101B90001F910F9108951F938091D90281FD2FC04D
:101BA0000E945A5282E260E04CE451E020E80E9438
:101BB0002C5080E060E24BE351E00E945A5080E0FC
:101BC00068E349E251E00E945A500E9431528091EC
:101BD000C4020E9427521EE00EC0113141F0812F35
:101BE0008D5060E040E00E94C308882311F41F5F1D
:101BF00002C01EE0F4CF163180F31631D1F71F91E9
:101C000008958091D90282FD0BC00E949F4B883CB1
:101C1000910530F48FE691E060E041E00E94D40C41
:101C20000895EF92FF920F931F93CF93DF939FEF4F
:101C30009ABB1BBA81E887BB8EE788BB8EE384BB67
:101C400081EC85BB11BA92BB88E082B987EF83B97A
:101C5000109261009093620080E180936400909301
:101C600065000E94EC510E94FF5880E487B985E826
:101C700086B987E083BF8CE981BF87B7836087BF60
:101C80001FBC8AE08EBD10928B0082E880938A0090
:101C900080917D00806280937D00789485EF9DE146
:101CA00090934F0580934E0589E10E9427520E9430
:101CB000C64A0E94010E0E94F6060E946C0D0E9408
:101CC000CB0D0E945F0D0E94A7132DE088E190E0EC
:101CD0000FB6F894A89581BD0FBE21BD8AE196E0AC
:101CE00060E00E94211680E597E30E941D0D81E0CF
:101CF0000E943E0D8091C4020E9427528091DE0214
:101D000090E024EF31E0AC01429FC001439F900D71
:101D1000529F900D1124909367058093660587B7B5
:101D2000806187BFF0909C05E2B680919C05F81613
:101D3000C9F7E091DD02F0E0EE0FFF1FE050FF4F2A
:101D40000190F081E02D09950E94BA0B80919B05CE
:101D5000833019F4A89510929B0520919C0532B709
:101D600080919C052817C9F71F2D00E08E2D90E06B
:101D7000802B912BD22FC0E0232F30E02C2B3D2B3A
:101D80004091EC075091ED07281B390B24173507BC
:101D900008F49A013093ED072093EC07C3CF0F931B
:101DA000022F50E0440F551F440F551F47515E4FFF
:101DB00024E00E94FA4F0F9108950F93022F4423BD
:101DC00019F443E153E01EC0242F30E04150443069
:101DD00090F44091DA0250E0440F551F440F551F14
:101DE00041505040420F531F440F551F440F551F81
:101DF00044575F4F07C0220F331F220F331F2E5A45
:101E00003D4FA90124E00E94FA4F0F910895EF92EF
:101E1000FF920F931F93082FF62E142FE22E4423C8
:101E200029F0403139F0403F81F408C08A5F45EE27
:101E300051E007C08A5F41EE51E003C08A5F4DED7B
:101E400051E02E2D0E942C5023C0441F4427441FD4
:101E5000405E0E94814F202F2A5F412F552747FD6A
:101E6000509557FF03C0509541955F4F842F992798
:101E700087FD90950197AC01440F551F480F591FDE
:101E800041555E4F822F6F2D23E00E2D0E94FA4F99
:101E90001F910F91FF90EF900895DF92EF92FF92C4
:101EA0000F931F93F82EE62ED42E1091ED02812F62
:101EB000992787FD909597FF03C0909581959F4F37
:101EC00080319CF443E08402A001112442585E4F0B
:101ED0008F2D6E2D23E00D2D0E94FA4F1F3F4CF5E4
:101EE0008F2D86506E2D41E221C08F3174F4111672
:101EF0001CF4412F4F5002C0412F415F8F2D86505F
:101F00006E2D2D2D0E94070F14C011161CF4412FA9
:101F10004E5102C0412F425E8F2D86506E2D2D2DC9
:101F20000E94070F8F2D8E5E6E2D4DE62D2D0E9487
:101F3000814F1F910F91FF90EF90DF900895FF92D6
:101F40000F931F93182F062FF22E442321F4885E3F
:101F500046E50E94814F40916405812F885E602F85
:101F600050E02F2D0E943B511F910F91FF9008953B
:101F7000DF92EF92FF920F931F93CF93DF93F82E90
:101F8000E62EEA01122FD02E57FD02C040E201C01A
:101F90004DE28F2D6E2D212F0E94814F17FD02C023
:101FA00081E101C089E1F80E8F2D6E2D4AE3212FCA
:101FB0000E94814FD7FF03C0D095C195DF4FCE015E
:101FC0006CE370E00E945859AB01212F2C5F8F2DDC
:101FD0006E2D02E00E94A25017FD02C022E101C056
:101FE00028E1CE016CE370E00E945859AC0184E016
:101FF000D80E822F8F0D6E2D2D2D02E00E94A25043
:10200000DF91CF911F910F91FF90EF90DF90089596
:10201000982F282F87FD2D5F25952595332727FDA0
:1020200030958AE09802C0011124280F391FC90198
:1020300008956F927F928F929F92AF92BF92CF92AC
:10204000DF92EF92FF920F931F933B017C0100E020
:1020500010E08824992464E670E080E090E066193E
:10206000770988099909A80197010E9419595B010C
:102070006C0182E390E0A0E0B0E0A80EB91ECA1E99
:10208000DB1EC801B7010E9419590E941959BC01F1
:1020900088279927A40193010E94195924E0969555
:1020A0008795779567952A95D1F7A60EB71EC81E16
:1020B000D91EC601B50124E630E040E050E00E94A0
:1020C0006B59C9011F910F91FF90EF90DF90CF9056
:1020D000BF90AF909F908F907F906F900895FF92E8
:1020E0000F931F939C01AB016115710531F1FF2422
:1020F00097FF05C0FF24F394309521953F4F57FF7C
:1021000010C000E014E066277727641B750BC80138
:10211000821B930B0E9419109801281B390BC901CF
:1021200004C0C901BA010E941910FF2011F49C01DA
:1021300004C022273327281B390BC9011F910F9197
:10214000FF900895282FE1E8F7E080E0949192173E
:1021500031F03196992311F08F5FF8CF80E0089528
:10216000883210F080E20895E82FF0E0EF57F84F42
:10217000849108956A3079F0643699F0613011F0F5
:1021800080E012C064E60E943859892F6AE00E94FC
:102190003859892F09C064E60E943859892F6AE0AE
:1021A00001C064E60E943859805D08959C0140E0BA
:1021B000683008F041E070E0442371F0CB010897EB
:1021C000FC0163E0EE0FFF1F6A95E1F7E80FF91FCE
:1021D000DF01A051BB4F0AC0FB01EE0FFF1FEE0F46
:1021E000FF1FE60FF71FDF01A853BB4FFD018081E2
:1021F00020503C4F37FD0EC068E02030360784F099
:10220000442319F484E090E002C088E090E0A80F35
:10221000B91F8C91992787FD9095582F442733C07B
:10222000442331F0432FB9017070660F771F04C04B
:10223000432F4695B9017170842F90E0FD01E80F9E
:10224000F91F8181992787FD90959B0135952795E9
:10225000829FA001839F500D929F500D11242081D9
:10226000332727FD309580E092E0861B970B9595EC
:102270008795BC01269FC001279F900D369F900D2A
:102280001124480F591FCA0169E170E00E94585992
:10229000CB010895EF92FF921F93CF93DF9310919C
:1022A000F202110F185F9091F50284E69802C001C6
:1022B0001124EC01C85ADD4F1A3028F448EC5FEACB
:1022C0004C1B5D0B0DC08853904F212F30E0829F37
:1022D000A001839F500D929F500D1124405C504EE1
:1022E000AEEEB7E0EAE1F6E0612F70E0660F771F2F
:1022F000660F771F6A0F7B1FEE24FF24EC1AFD0A7E
:102300001FC020813181205A364F8DE0203638079A
:1023100018F020E63DE006C085E02136380710F4CD
:1023200020E635E0C701821B930B480F591F119619
:10233000DC93CE9313963C932E9312971496329679
:10234000A617B707F1F6E12FEE0FAE2FB0E0AA0FF8
:10235000BB1FA251B84FCD93DC93EF5FAE2FB0E01F
:10236000AA0FBB1FA251B84F4D935C93EF5FF0E0F3
:10237000EE0FFF1FE251F84F11821082DF91CF91D3
:102380001F91FF90EF900895A091470AB091480ADD
:10239000FD018193919313967C936E9312973296DD
:1023A000F093480AE093470A0895882329F020E62D
:1023B00039E080E699E004C020EB34E080EB94E063
:1023C000A091470AB091480AFD0181939193139619
:1023D0003C932E9312973296F093480AE093470A63
:1023E00008951F93182F82700E94D511812F81703C
:1023F0000E94D5111F910895CF92DF92FF920F9303
:102400001F93DF93CF9300D0CDB7DEB78091F10259
:10241000813019F0823019F404C010E003C011E0DB
:1024200001C012E020911A0630911B0620503C4F4B
:10243000220F331F80911C0690911D0680509C4FE7
:10244000880F991F892F232F37FD20E087FD80E01B
:10245000022F20310CF00FE0F82E2FE0281714F493
:102460005FE0F52E2F2D332727FD3095802F9927FC
:1024700087FD909509968217930714F40F2D095044
:10248000C02EDD24C7FCD094275F3F4F2C153D059F
:102490001CF447EFF42EF00E80E797E19093EF07DE
:1024A0008093EE0780EB94E09093F1078093F00720
:1024B00082EF97E09093480A8093470A80E00E9459
:1024C000F111A091470AB091480A80E699E0FD0118
:1024D0008193919320EB34E013963C932E931297C3
:1024E000DF0112969383828313963C932E93129767
:1024F0001496B093480AA093470A812F0E94F111C5
:102500001195C60195958795959587958A830E9423
:10251000F1113A81131B802F0E94F111101B8F2D96
:10252000992787FD909595958795959587958983AA
:102530000E94F1118981181B8F2D0E94F111812FAA
:102540008F190E94F11180E00E94D511E091470A95
:10255000F091480A80E69AEE929382933296119215
:102560001192F093480AE093470A0F900F90CF9191
:10257000DF911F910F91FF90DF90CF900895A09170
:10258000470AB091480A882341F0FD0180E293E0B8
:102590008193919380E496E007C0FD0180E496E08A
:1025A0008193919380E293E013969C938E9312977C
:1025B0003296F093480AE093470A08950F931F93C9
:1025C000082F10E0802F81700E94BF121F5F0695B8
:1025D0001830C1F71F910F9108950F931F938EEE3E
:1025E00097E09093480A8093470A8091490A91E0C6
:1025F00089278093490A882309F454C080911A06D8
:1026000090911B06885F9B4F34E0969587953A958D
:10261000E1F78038910510F08FE790E0182F2091B6
:102620001C0630911D0637FD0FC0C901409625E0FC
:10263000969587952A95E1F78034910510F08FE300
:1026400090E0082F00640FC080E190E0821B930BA4
:1026500005E0969587950A95E1F78034910510F08D
:102660008FE390E0082F812F0E94DE12802F0E94BE
:10267000DE120127802F90E09C0114E0359527950C
:102680001A95E1F7B4E0880F991FBA95E1F7822B0C
:102690000E94DE12A091470AB091480AFD0180E134
:1026A00097E230C080911E0690911F0680509C4F8B
:1026B000A4E096958795AA95E1F78038910510F0EA
:1026C0008FE790E0082F0068802F0E94DE128EE8CE
:1026D0000E94DE128EE8082710E0C801F4E095950C
:1026E0008795FA95E1F7E4E0000F111FEA95E1F70D
:1026F000802B0E94DE12A091470AB091480AFD018A
:1027000080EB96E38193919380EA9FE013969C93EC
:102710008E9312973296F093480AE093470AE0911D
:10272000470AF091480A11921192F093480AE093F7
:10273000470AEE5EF740E03FF10534F085EC93E0A8
:1027400060E041E00E94D40C1F910F9108958091A8
:10275000F102843018F4813038F403C0843049F435
:1027600006C00E944A1108950E94FC1108950E941B
:10277000ED120895FF920F931F93CF93DF93082FCD
:102780001091ED02812F992787FD909597FF03C047
:10279000909581959F4FF82E2EE12817E4F411169D
:1027A0001CF4812F8E5102C0812F825E60E040E0D8
:1027B0000E94C308282F882361F08091560A88233D
:1027C00041F490E08091590A882309F491E09093B4
:1027D000590A2093560AC0915C0AD0915D0A21964D
:1027E000D0935D0AC0935C0AE0915A0AF0915B0AAB
:1027F000E00FF11DF0935B0AE0935A0A80910010FC
:102800009091011020915E0A30915F0A821B930B18
:102810008436910508F453C12C593F4F30935F0A19
:1028200020935E0ACF01BE010E944459062F862FD5
:1028300090E0AC014C9FC0014D9F900D5C9F900DAE
:102840001124E81BF90BF0935B0AE0935A0A1092EB
:102850005D0A10925C0A5FE05F151CF01092590A45
:1028600010C08EE18F156CF011161CF4812F8F5063
:1028700002C0812F815F60E040E00E94C308809326
:10288000590A8091610790916207019690936207BF
:102890008093610760916307709164076F5F7F4F5A
:1028A0007093640760936307002349F08091670782
:1028B00090916807019690936807809367078091CD
:1028C000590A882349F0809165079091660701961F
:1028D000909366078093650706954091690750912C
:1028E0006A07400F511D50936A0740936907E091B2
:1028F000EF02F091F002F0936D07E0936C073091D6
:10290000ED02832F992787FD909597FF03C090953F
:1029100081959F4F882319F410926B0722C0813054
:1029200021F4CF01861B970B18C0803170F480FF13
:1029300007C0CA0144E0969587954A95E1F709C01A
:10294000809167079091680704C080916507909116
:102950006607AF01481B590BCA0190936D0780931E
:102960006C0780916B07813041F0813018F0823024
:10297000F1F40EC03323D9F017C080916C07909109
:102980006D07181619069CF0309789F082E00DC08B
:1029900080916C0790916D07855C9F4F1CF483E0DC
:1029A00080936B07309719F481E080936B07109147
:1029B000DC0212FF3AC040916B074130B1F5209123
:1029C0006C0730916D078091570A9091580A8217D1
:1029D000930759F12E31310521F482E080939D0552
:1029E0000CC02431310519F440939D0506C02A30EE
:1029F000310519F02430310524F480915C05809371
:102A0000590513FF12C02E31310549F0243131052B
:102A100031F02A30310519F02430310534F482E3E5
:102A200090E090936705809366058091EE0288237D
:102A300051F080916C0790916D07E81BF90BF093B2
:102A40006D07E0936C0711FF22C080916B07813006
:102A5000F1F420916C0730916D07C9016CE370E0CF
:102A60000E945859892B99F48091570A9091580ADD
:102A70008217930761F080915C058093590513FFDD
:102A800006C082E390E0909367058093660580918D
:102A90006B07823061F480915D058093590513FFC7
:102AA00006C082E390E0909367058093660580916D
:102AB0006C0790916D079093580A8093570ADF91A5
:102AC000CF911F910F91FF9008952091ED02822FD9
:102AD000992787FD909597FF03C0909581959F4F0B
:102AE000982F8230A4F1803194F585959A309CF42A
:102AF000E82FFF27E7FDF0958091DA0290E0880F3C
:102B0000991F880F991FE80FF91FE75FFE4F80811B
:102B1000E82FF0E004C0E82FFF27E7FDF09531979C
:102B2000EE0FFF1FE751FA4F0190F081E02D27FFD4
:102B300005C080E094E08E1B9F0B03C0CF01805046
:102B40009C4FE6E096958795EA95E1F702C080E014
:102B500090E00E94BA13E091DA02F0E0EE0FFF1F5E
:102B6000EE0FFF1FE45FFE4FE081F0E0EE0FFF1F6E
:102B7000E951FA4F0190F081E02D8091DC0280FF55
:102B800005C080E094E08E1B9F0B03C0CF018050F6
:102B90009C4F56E0969587955A95E1F76091520AB9
:102BA0007091530A6F5F7F4F7093530A6093520A7C
:102BB0004091500A5091510A480F591F5093510AA1
:102BC0004093500A80910010909101102091540A76
:102BD0003091550A821B930B885E934088F1809157
:102BE0000010909101109093550A8093540A10920E
:102BF000510A1092500A1092530A1092520A809170
:102C0000E8079091E90701969093E9078093E80718
:102C10002091E6073091E707F901E259F84FCA0120
:102C20000E94445960832F5F3F4F3093E707209302
:102C3000E6072837310520F01092E7071092E607E3
:102C400008952F923F924F925F926F927F928F9250
:102C50009F92AF92BF92CF92DF92EF92FF920F932B
:102C60001F93DF93CF93CDB7DEB761970FB6F8947C
:102C7000DEBF0FBECDBF998B888B262E8091650558
:102C8000882309F46CC080911906882319F08150BB
:102C9000809319068091DB02882309F460C080913B
:102CA000600990916109A0916209B0916309019650
:102CB000A11DB11D8093600990936109A0936209E1
:102CC000B0936309EEEDF8E020E030E0819191915E
:102CD00060E870E00E945859260F371F48E0E63E32
:102CE000F407A1F7809164099091650928173907C5
:102CF00061F0309365092093640910926009109285
:102D000061091092620910926309E0906009F090E5
:102D1000610900916209109163096091DB0270E022
:102D200080E090E020E737E140E050E00E94195950
:102D30006E157F058007910790F46FE370E080E0E7
:102D400090E0E622F722082319237AE0E716F1043F
:102D50000105110521F480915D058093590507E96E
:102D6000602E02E0702E18E9412E14E0512E33241B
:102D7000EE24FF2488249924DE2C8E2D0E947D06CB
:102D80009C01D3018D919C911197281B390B121630
:102D900013062CF45C96ED91FC915D9705C0D30170
:102DA0001E96ED91FC911F97E436F10514F4E4E6CC
:102DB000F0E0B901882777FD8095982FBAE0660F7B
:102DC000771F881F991FBA95D1F79F01442737FDB8
:102DD0004095542F0E948D598901BCEF21303B074B
:102DE0001CF400E01CEF06C0E4E020303E0714F0C5
:102DF00000E014E0F401E751FA4F11830083C801A9
:102E00000F964F9720F5F4E0EF16F104BCF4E09133
:102E1000DA02F0E0EE0FFF1FEE0FFF1FEE0DFF1DB9
:102E2000E65FFE4F808190E0019721E030E002C034
:102E3000220F331F8A95E2F7C90108C081E090E0B4
:102E40000E2C02C0880F991F0A94E2F7382A33E04B
:102E50003D1508F406C1D2018C9160E040E00E946B
:102E6000C308882311F4CC240DC0F201818160E0F5
:102E700040E00E94C308882319F0E2E0CE2E02C091
:102E8000CC24C3948091DA0290E08170907072E05B
:102E9000A72EB12CA81AB90AAE14BF0449F5809127
:102EA000F302807F29F100501C4FEC2DF0E0EE0F73
:102EB000FF1FEE0FFF1F9701220F331FC90143E0D1
:102EC000880F991F4A95E1F7821B930BE80FF91FB2
:102ED000E457FB4F6081772767FD7095C801959592
:102EE00087950E946F10DC01AA0FBB1FDD2427C04D
:102EF000DD241016110614F0DD24D3948C2D90E0FF
:102F00009701220F331FF901A3E0EE0FFF1FAA95CF
:102F1000E1F7E21BF30B880F991F880F991FE80F49
:102F2000F91FEE51FD4FED0DF11DE655FE4F60818D
:102F3000772767FD7095C8010E946F10DC01EC2DAA
:102F4000F0E0EE0FFF1FEE0FFF1F9701220F331F60
:102F5000C90143E0880F991F4A95E1F7821B930B43
:102F6000E80FF91FEE51FD4FED0DF11DE455FE4F39
:102F70006081772767FD70956C597F4F882777FDB3
:102F80008095982F9D01442737FD4095542F0E942E
:102F9000195924E630E040E050E00E948D59890143
:102FA000AE14BF0409F04CC09091F302892F807FCA
:102FB00009F40DC5005014400AC58091DC02F501EA
:102FC000EE51FD4F80FF16C000501C4FB8018827FE
:102FD00077FD8095982F00501440EE51FE4F2081D0
:102FE000332727FD3095432F532F2D573040404036
:102FF000504014C060E074E0601B710B882777FDBF
:103000008095982FEE51FE4F2081332727FD309574
:10301000432F532F23583F4F4F4F5F4F0E94195953
:1030200020E038E040E050E00E948D59C901DA010B
:103030008030F8E09F07F0E0AF07F0E0BF0739F419
:10304000F701EC53FB4F8081992787FD9095880FFE
:10305000991FE1E0F0E0EC0FFD1FE80DF91D9183F1
:103060008083F401E252F74F118300830894E11C3E
:10307000F11C22E030E0620E731E820E931E4EE0C1
:1030800050E0440E551E57E0E516F10409F074CEE9
:103090004091F7024321242F30E08091660990E0AF
:1030A0008227932782239323892B21F080915B052C
:1030B000809359054093660980E094E09093ED0871
:1030C0008093EC089093EF088093EE0860EF78E02F
:1030D00040E050E0FA01E657FA4FDA01AA56BD4F38
:1030E00080819181D2962D913C91D397821B930B35
:1030F000DB018D939D93BD014E5F5F4F40315105C4
:1031000049F7E0E2F9E0FA87E987A0E0B9E08081D9
:1031100091818D939D93349629E0E036F207B9F7BB
:1031200080916505882311F00E94651580E4E0E236
:10313000F9E0DF011D928A95E9F72220F9F0AEED62
:10314000B8E0FE01319620E030E042E050E08091AE
:10315000DA0290E081709070BA01681B790B6217F7
:10316000730729F011961C921E92118210822F5F14
:103170003F4F129632962430310549F71CEFA12EAD
:1031800012E0B12E87E29AE09E878D87B7EA6B2E18
:10319000B9E07B2EA7E6B9E0BC87AB871F86442445
:1031A0005524342C252CF50180818150803108F084
:1031B00039C3838161E040E00E94C308AD85BE85CC
:1031C0009C91882321F5192F1C92F5012181822FD2
:1031D0008850823008F00BC3C201FC01A3E0EE0F5F
:1031E000FF1FAA95E1F7880F991FE80FF91FE45018
:1031F000FD4F87818E70843009F4F9C2293019F0AF
:10320000CC24DD2445C0C12C6CEFD62E41C010E08B
:10321000992309F411E081E0AD85BE858C93D50139
:103220001196EC91F0E0EE0FFF1FE452F74FC080D3
:10323000D180832D922DFC0143E0EE0FFF1F4A95B4
:10324000E1F7880F991FE80FF91FE450FD4F8781C0
:10325000807FF1F0832D922DFC0123E0EE0FFF1F04
:103260002A95E1F7880F991FE80FF91FED5FFC4FD2
:10327000808182958F7090E00197E1E0F0E002C0DC
:10328000EE0FFF1F8A95E2F7CF01FF85F82BFF872E
:10329000D50118968C91882321F00E940810C80E41
:1032A000D91E832D922DFC01B3E0EE0FFF1FBA95BE
:1032B000E1F7880F991FE80FF91FE450FD4F868151
:1032C000882391F4832D922DFC0173E0EE0FFF1FF4
:1032D0007A95E1F7880F991FE80FF91FE450FD4F29
:1032E0008581882309F49AC1F3016081718182810B
:1032F0009381112389F420E031E040E050E00E9406
:103300008D5950954095309521953F4F4F4F5F4FC8
:103310004601820E931E85C0832D922DFC0153E041
:10332000EE0FFF1F5A95E1F7880F991FE80FF91F5D
:10333000E450FD4F87818E70843049F5D501EC91C2
:10334000F0E0EE0FFF1FE250F74F60817181882798
:1033500077FD8095982F20E034E640E050E00E9411
:103360001959F3016083718382839383D501129687
:103370002C91222361F0332727FD3095432F532FC3
:103380000E948D59F3012083318342835383D301FB
:103390006D917D918D919C9120E031E040E050E075
:1033A0000E948D5950954095309521953F4F4F4F34
:1033B0005F4F4601820E931E8114910491F197FE96
:1033C00010C0832D922DFC0123E0EE0FFF1F2A95E4
:1033D000E1F7880F991FE80FF91FEF5FFC4F80811D
:1033E00010C0832D922DFC0113E0EE0FFF1F1A95E4
:1033F000E1F7880F991FE80FF91FEF5FFC4F8081FD
:1034000082958F7090E0FC0124E630E0E29FC001DD
:10341000E39F900DF29F900D1124AB85BC858D9399
:103420009C93EB85FC85208131812115310551F07C
:1034300080916505882309F4E5C02150304031832F
:103440002083E0C08114910409F4E8C0832D922DFB
:10345000FC01A3E0EE0FFF1FAA95E1F7880F991F6B
:10346000E80FF91FE450FD4F8681882309F4D6C088
:1034700080916505882309F493C0F50122812223F8
:1034800039F4E12CF12C60E2062F63E0162F17C00F
:10349000332727FD309537FF03C0309521953F4FE7
:1034A000332727FD3095432F532F60E070E080E2F3
:1034B00093E00E948D59C901DA017C018D01181435
:1034C00019048CF5832D922DFC0153E0EE0FFF1FA4
:1034D0005A95E1F7880F991FE80FF91FEE5FFC4F2F
:1034E00080818F7090E0009709F44CC044E650E072
:1034F000849F9001859F300D949F300D11244427A7
:1035000037FD4095542FC801B7010E948D597901AC
:103510008A01F30180819181A281B381E80EF91EB5
:103520000A1F1B1F38C0832D922DFC0133E0EE0FC4
:10353000FF1F3A95E1F7880F991FE80FF91FEE5F1B
:10354000FC4F808182958F7090E00097D9F044E61F
:1035500050E0849F9001859F300D949F300D112481
:10356000442737FD4095542FC801B7010E948D595B
:10357000D301ED90FD900D911C91E21AF30A040B1A
:10358000150B09C0C601AA2797FDA095BA2FEE24F6
:10359000F82E092F1A2FF301E082F18202831383A0
:1035A000D3016D917D918D919C9176010027F7FC5F
:1035B0000095102F1814190464F420E031E040E065
:1035C00050E00E948D59E216F3060407150764F0D7
:1035D00019C020E031E040E050E00E948D592E15E6
:1035E0003F054007510774F4C601AA2797FDA0952F
:1035F000BA2FBA2FA92F982F8827F30180839183A0
:10360000A283B383D3016D917D918D919C9120E034
:1036100031E040E050E00E948D596901F50164817C
:10362000633071F1643028F4613051F06230A8F4F5
:1036300048C0653081F1653050F16630B1F52EC07B
:10364000D50111968C91893029F4D7FC2AC0E0E08D
:10365000FEEF0DC0D7FE35C02EC0D50111968C915E
:10366000893051F41C141D044CF1E0E0F2E0CE0E60
:10367000DF1ECC0CDD1C25C01C141D04E4F021C091
:10368000D7FE1FC0D094C194D108D3941AC01C1483
:103690001D04A4F010C0D7FE0EC003C01C141D04EE
:1036A0006CF0C12CECEFDE2E0CC06750C6010E94FE
:1036B000D6106C0106C0CC24DD2403C0C12C74E0FC
:1036C000D72E832D922DFC0163E0EE0FFF1F6A952C
:1036D000E1F7880F991FE80FF91FE450FD4F87812C
:1036E00080FD15C0D5011196EC91EE2381F0E530F7
:1036F00070F4F0E03197EE0FFF1F21E030E02C0F67
:103700003D1FE20FF31F80819181C80ED91EB601C3
:10371000882777FD8095982FD50112962C91332715
:1037200027FD3095432F532F0E9419596B017C01BF
:10373000832D922DFC0133E0EE0FFF1F3A95E1F748
:10374000880F991FE80FF91FED5FFC4F8081869568
:10375000877090E08130910581F0D501EC9102975E
:1037600099F5F0E0EE0FFF1FEE0FFF1FE45EF64F3E
:10377000C082D182E282F3823AC0F5012081022F19
:1037800010E0000F111F000F111F045E164FC7013C
:10379000B60124E630E040E050E00E948D59CA01B5
:1037A000B901D8012D913D914D915C910E9419591B
:1037B00020E034E040E050E00E948D59F801208381
:1037C00031834283538313C0F0E0EE0FFF1FEE0FEF
:1037D000FF1FE45EF64F80819181A281B3818C0D41
:1037E0009D1DAE1DBF1D80839183A283B38308946A
:1037F000411C511C2AE030E0A20EB31E4D855E85AF
:103800004F5F5F4F5E874D8764E070E0660E771E06
:103810008B859C8502969C878B8790E24916510484
:1038200009F0BFCC2F8520FF0AC080910010909135
:103830000110882321F480915B058093590521FFB5
:1038400010C08091001090910110803431F080916F
:10385000001090910110883421F480915B058093D1
:10386000590522FF16C080910010909101108038F8
:1038700061F08091001090910110883831F08091B2
:10388000001090910110803921F480915B058093A4
:1038900059051CE3C12E14E0D12E44245524D60131
:1038A00011968C911197882E992487FC9094E4E6C8
:1038B000F0E08E0E9F1E8C91682E772467FC70942A
:1038C0002CE93FEF620E731EA985BA85ED90FD903D
:1038D0000D911C91E114F1040105110519F4AA24BC
:1038E000BB2422C01E141F041006110644F4B401A8
:1038F000882777FD8095982FA80197010CC0B30108
:10390000882777FD8095982F22273327A9012E1924
:103910003F09400B510B0E94195920E137E240E06A
:1039200050E00E948D595901C801B70124E630E0EA
:1039300040E050E00E948D59E985FA85208331836B
:1039400042835383F201E950FA4FC90120839183E6
:10395000882D0E940810182F092F862D0E9408100C
:10396000AC01212F302FC901A816B9060CF4C501EE
:10397000841795070CF4CA01D60113962D913C913A
:103980001497280F391F12968C91882319F03095BF
:1039900021953F4FF894E889F989E40DF51D3183AD
:1039A00020837894E5E0F0E0CE0EDF1E29853A858D
:1039B0002C5F3F4F3A87298742E050E0440E551E66
:1039C0005CE8C51654E0D50609F069CF04C09F70C5
:1039D00009F0F3CA35CB61960FB6F894DEBF0FBE7F
:1039E000CDBFCF91DF911F910F91FF90EF90DF90AE
:1039F000CF90BF90AF909F908F907F906F905F908F
:103A00004F903F902F9008950F931F93CF93DF9384
:103A100086E291E0EAE3F6E0DF019C011D9221508D
:103A20003040E1F790916007CCEFD2E000E010E089
:103A300051E060E04881442309F440E1041750F567
:103A4000202F712F352F2F5F872F90E0FC01EE0F75
:103A5000FF1FE80FF91FEE0FFF1FDF01A65CB94F34
:103A600011962C9311978C9181608C93E45CF94FA3
:103A700030833F5F14966C937F5F241720F3802F71
:103A80008095042F952F9F5F980F180F140F940F98
:103A9000592F515078817723D1F1812F90E09C01EB
:103AA000220F331F280F391FD901AA0FBB1FA65C95
:103AB000B94F11964C93119715966C9315978C915D
:103AC00082608C9313965C9313975F5F8A85F901EC
:103AD0003196781741F4EE0FFF1FE65CF94F108224
:103AE00014961C920AC0EE0FFF1FE65CF94F50833C
:103AF0005F5F6F5F14966C936150952F6F5F2A968E
:103B0000603219F45093600704C01F5F93CF909305
:103B10006007DF91CF911F910F910895EF92FF926F
:103B20000F931F93DF93CF93CDB7DEB7A0970FB658
:103B3000F894DEBF0FBECDBF8E010F5F1F4FC801CF
:103B400061E00E942116EEE3F4E0B801BAE1EB2E49
:103B5000B6E0FB2E018112818081DB014D915C91E9
:103B6000D7012D913C91882321F0CA01821B930B30
:103B700003C0C901841B950B800F911F9283818321
:103B800035966E5F7F4F82E090E0E80EF91E94E07C
:103B9000EE38F907F9F68091DA0290E081709070C2
:103BA00022E030E0281B390B16AA2130310511F034
:103BB0001092C5042230310511F01092C604109203
:103BC000C70482E00E94FA4880915B058093590502
:103BD000A0960FB6F894DEBF0FBECDBFCF91DF9198
:103BE0001F910F91FF90EF9008956F927F928F92A7
:103BF0009F92AF92BF92CF92DF92EF92FF920F937C
:103C00001F93DF93CF930F92CDB7DEB7813809F4BE
:103C100093C08238A0F4813609F486C0823638F425
:103C2000823209F466C0833209F0B2C058C08536CA
:103C3000C1F18038C9F0843609F0AAC01BC08438AD
:103C400041F1853838F4823809F466C0833809F0C8
:103C50009FC05CC08E3B09F482C08F3B09F48CC0CE
:103C6000853809F095C035C00E9462060E941D0D7E
:103C700080E814C084E60E94A653823009F036C65C
:103C800080914D0A90914E0A0097C1F42FC681E0B1
:103C900019C080E597E30E941D0D84E80E949553AA
:103CA00077C085E60E94A653823009F025C6809130
:103CB0004B0A90914C0A009709F41EC60E941D0DF4
:103CC00067C0815080934F0A80915A0580935905AF
:103CD0005FC089E691E30E941D0D85E8DFCF8091EA
:103CE000D8028F5F8093D802833060F01092D802A0
:103CF00009C08091D802882311F0815001C082E070
:103D00008093D80281E00E94FA48DECF82E994E2F3
:103D10000E946C0683E8C2CF0E9416598DE395E29B
:103D20000E946C0682E8BACF80916B07823081F5E1
:103D300083E080936B07C8CF10926B0710926407E3
:103D40001092630710926807109267071092660737
:103D50001092650710926A0710926907B5CF80919B
:103D60004F0A082F10E00E946206000F111F055B2A
:103D7000154FD8018D939C9381E00E94955383E069
:103D80000E94955382E00E94955381E080934A0AF5
:103D90008091F60260E040E00E94C308882331F081
:103DA00080914A0A882311F40E948E1D8091F602A8
:103DB00060E040E00E94C30880934A0A9091640545
:103DC0008091C502981710F000E801C002E882EE69
:103DD000C82E82E0D82E1AE0812F60E0F6014191D2
:103DE0006F0120E80E94814F155F1837A9F786E020
:103DF00060E141E0202F0E949F0F84E268E146E5E8
:103E000020E00E94814F20916405822F6AE00E9489
:103E100038599250923010F403E001C002E0822F32
:103E20006AE00E9438590E9438599150923010F03F
:103E30001CE002C00F5F1BE0145F812F6CE1402F7C
:103E40000E947351812F6DE1402F0E947351809128
:103E50006B07882399F0823011F000E801C002E876
:103E600040916C0750916D0782E460E1202F0E9421
:103E7000B80F83E368E140E00E944D0F4091F402E7
:103E800013E04102A0011124455C5B4F84E260E134
:103E900023E000E00E94FA4F4091F3024295407FF8
:103EA00045954595459545954102A00111244C5CE9
:103EB0005B4F89E360E123E00E94FA4FAA24BB2410
:103EC0000FE1D02EF501E25EFE4FE080F501EC53EC
:103ED000FB4FE081E7FDED5FE595E595E43E0CF4F1
:103EE000E4EE0E2FED310CF00CE1F501E65EFE4F35
:103EF00080818823F9F08E2D64E046E30E9477519B
:103F00008091DA0290E08A259B2580FD04C0809193
:103F1000F3028F7061F48E2D81506EE143E00E94B8
:103F200077518E2D8F5F6EE143E00E9477519D2D7A
:103F3000901B14C08E2D8B516CE346E30E9473518D
:103F40001E2D1150812F6BE343E00E947351812F8E
:103F50006DE343E00E947351E00E9CE31E2D13506D
:103F6000092F0350812F602F47E099830E947751DA
:103F700099819D5F812F692F47E00E9473518E2D9B
:103F80008D5F602F47E00E947751812F602F47E0BF
:103F90000E9473510894A11CB11CF4E0AF16B10447
:103FA00009F090CF8091D802823009F4B0C01AE1B4
:103FB000A12E16E0B12ECC24DD24BBE16B2E712C9A
:103FC000A9E18A2E912C2C2DD501ED90FC908091A9
:103FD000D802882321F0813009F08CC02BC0C601A3
:103FE00083709070869D8001879D100D969D100DA9
:103FF00011242695269530E02B5F3F4FF3E0220FEA
:10400000331FFA95E1F7C70160E270E00E9458594A
:10401000FB01C70160E870E00E9458596E1B7F0BDE
:10402000E60EF71E802F8F5D622FA70120E20E940F
:104030003B5160C0243010F01CE501C014E2960131
:1040400023703070C901880F991F880F991F820F44
:10405000931F082F0A5DC70160E470E00E94585961
:104060009B01C70162E070E00E945859FB01E21B0E
:10407000F30BC70160E071E00E945859E60FF71F8B
:10408000F7FF03C0F095E195FF4FE89DC001E99D62
:10409000900DF89D900D1124845D9E4F892F990FEE
:1040A000990B8595E82EB9E1B81714F469E1E62E6D
:1040B000812F8951602F43E325E50E944551602FF0
:1040C0006250812F45E00E947751F50180819181F6
:1040D0001816190614F41F5F01C01E190F5F812FF7
:1040E000602F4E2D0E9473510250812F602F4E2D54
:1040F0000E9473510894C11CD11C82E090E0A80E6C
:10410000B91E98E0C916D10409F05DCFFBC38FE159
:1041100061E247E10E9477518FE167E347E10E9446
:10412000735185E361E247E10E9477518FE161E2DB
:1041300047E10E9473518BE461E247E10E947751AD
:104140008BE467E347E10E94735181E661E247E156
:104150000E9477518BE461E247E10E9473518AE249
:104160006BE243E00E94775189E26CE243E00E94F7
:10417000735186E56BE243E00E94775185E56CE27E
:1041800043E00E9473518091E9059091EA05880F00
:10419000991F9C0143E0220F331F4A95E1F7820FDC
:1041A000931F60E078E00E945859462F8091EB05FC
:1041B0009091EC05880F991F9C0103E0220F331F9B
:1041C0000A95E1F7820F931F60E078E00E9458594A
:1041D000709561957F4F665D842F885D45E00E94F4
:1041E00077518091E9059091EA05880F991F9C010C
:1041F000B3E0220F331FBA95E1F7820F931F60E0FF
:1042000078E00E945859462F8091EB059091EC057B
:10421000880F991F9C01F3E0220F331FFA95E1F7F5
:10422000820F931F60E078E00E9458597095619565
:104230007F4F625D842F885D45E00E9473518091BD
:10424000E9059091EA05880F991F9C0173E0220F00
:10425000331F7A95E1F7820F931F60E078E00E94A8
:104260005859462F8091EB059091EC05880F991FC6
:104270009C0153E0220F331F5A95E1F7820F931FE1
:1042800060E078E00E945859709561957F4F665DB7
:10429000842F845D45E00E9477518091E9059091DB
:1042A000EA05880F991F9C0113E0220F331F1A950E
:1042B000E1F7820F931F60E078E00E945859462F83
:1042C0008091EB059091EC05880F991F9C01A3E06C
:1042D000220F331FAA95E1F7820F931F60E078E069
:1042E0000E945859709561957F4F665D842F885D57
:1042F00045E00E9473518091EF059091F005880F81
:10430000991F9C01E3E0220F331FEA95E1F7820F2A
:10431000931F60E078E00E945859462F8091ED0588
:104320009091EE05880F991F9C0163E0220F331FC7
:104330006A95E1F7820F931F60E078E00E94585978
:10434000709561957F4F665D842F8C5A45E00E9481
:1043500077518091EF059091F005880F991F9C018E
:1043600043E0220F331F4A95E1F7820F931F60E06D
:1043700078E00E945859462F8091ED059091EE0506
:10438000880F991F9C0103E0220F331F0A95E1F764
:10439000820F931F60E078E00E94585970956195F4
:1043A0007F4F625D842F8C5A45E00E94735180914B
:1043B000EF059091F005880F991F9C01B3E0220F43
:1043C000331FBA95E1F7820F931F60E078E00E94F7
:1043D0005859462F8091ED059091EE05880F991F51
:1043E0009C01F3E0220F331FFA95E1F7820F931F30
:1043F00060E078E00E945859709561957F4F665D46
:10440000842F885A45E00E9477518091EF05909162
:10441000F005880F991F9C0173E0220F331F7A95D6
:10442000E1F7820F931F60E078E00E945859462F11
:104430008091ED059091EE05880F991F9C0153E046
:10444000220F331F5A95E1F7820F931F60E078E047
:104450000E945859709561957F4F665D842F8C5AE4
:1044600045E00E9473516091F1057091F205882733
:1044700077FD8095982F26E130E040E050E00E94E3
:1044800019595B016C0180E098E5A0E0B0E0A80E4E
:10449000B91ECA1EDB1EC601B50120E038E040E0AF
:1044A00050E00E948D5979018A0110950095F09491
:1044B000E094E11CF11C011D111D97E3E90EC601FA
:1044C000B50120E038E040E050E00E948D592F5FB8
:1044D0008AE36E2D422F0E9477516091F105709111
:1044E000F205882777FD8095982F26E130E040E09F
:1044F00050E00E9419595B016C0180E098E5A0E052
:10450000B0E0A80EB91ECA1EDB1EC601B50120E030
:1045100038E040E050E00E948D5979018A01109501
:104520000095F094E094E11CF11C011D111D97E32E
:10453000E90EC601B50120E038E040E050E00E94FD
:104540008D592F5F8BE36E2D422F0E947751609122
:10455000F1057091F205882777FD8095982F26E167
:1045600030E040E050E00E9419595B016C0180E0AE
:1045700098E5A0E0B0E0A80EB91ECA1EDB1EC60179
:10458000B50120E038E040E050E00E948D5979010B
:104590008A0110950095F094E094E11CF11C011D36
:1045A000111D97E3E90EC601B50120E038E040E0B7
:1045B00050E00E948D592F5F8CE36E2D422F0E9498
:1045C00077516091F3057091F405882777FD809508
:1045D000982F26E130E040E050E00E9419595B013D
:1045E0006C0180E098E5A0E0B0E0A80EB91ECA1EFC
:1045F000DB1EC601B50120E038E040E050E00E943B
:104600008D5979018A0110950095F094E094E11C90
:10461000F11C011D111D97E3E90EC601B50120E053
:1046200038E040E050E00E948D592F5F8FE36E2DFF
:10463000422F0E9477516091F3057091F40588270D
:1046400077FD8095982F26E130E040E050E00E9411
:1046500019595B016C0180E098E5A0E0B0E0A80E7C
:10466000B91ECA1EDB1EC601B50120E038E040E0DD
:1046700050E00E948D5979018A0110950095F094BF
:10468000E094E11CF11C011D111D97E3E90EC60128
:10469000B50120E038E040E050E00E948D592F5FE6
:1046A00080E46E2D422F0E9477516091F305709146
:1046B000F405882777FD8095982F26E130E040E0CB
:1046C00050E00E9419595B016C0180E098E5A0E080
:1046D000B0E0A80EB91ECA1EDB1EC601B50120E05F
:1046E00038E040E050E00E948D5979018A01109530
:1046F0000095F094E094E11CF11C011D111D97E35D
:10470000E90EC601B50120E038E040E050E00E942B
:104710008D592F5F81E46E2D422F0E947751609159
:10472000F5057091F605882777FD8095982F26E18D
:1047300030E040E050E00E9419595B016C0180E0DC
:1047400098E5A0E0B0E0A80EB91ECA1EDB1EC601A7
:10475000B50120E038E040E050E00E948D59790139
:104760008A0110950095F094E094E11CF11C011D64
:10477000111D97E3E90EC601B50120E038E040E0E5
:1047800050E00E948D592F5F84E46E2D422F0E94CD
:1047900077516091F5057091F605882777FD809532
:1047A000982F26E130E040E050E00E9419595B016B
:1047B0006C0180E098E5A0E0B0E0A80EB91ECA1E2A
:1047C000DB1EC601B50120E038E040E050E00E9469
:1047D0008D5979018A0110950095F094E094E11CBF
:1047E000F11C011D111D97E3E90EC601B50120E082
:1047F00038E040E050E00E948D592F5F85E46E2D37
:10480000422F0E9477516091F5057091F605882737
:1048100077FD8095982F26E130E040E050E00E943F
:1048200019595B016C0180E098E5A0E0B0E0A80EAA
:10483000B91ECA1EDB1EC601B50120E038E040E00B
:1048400050E00E948D5979018A0110950095F094ED
:10485000E094E11CF11C011D111D97E3E90EC60156
:10486000B50120E038E040E050E00E948D592F5F14
:1048700086E46E2D422F0E94775126E0C22E24E05E
:10488000D22E11E090E2E92E812F60E040E00E94FC
:10489000C308082F8AE06E2DA60123E00E94FA4F7C
:1048A0001F5FA8E0EA0EE3E0F0E0CE0EDF1E14305A
:1048B00059F78AEEC82E83E0D82E17E000E3E02EE9
:1048C000812F60E040E00E94C308082F85E66E2D2E
:1048D000A60123E00E94FA4F1F5FF8EFEF0E83E07E
:1048E00090E0C80ED91E1A3059F70CC080914F0ABB
:1048F000882309F4CCC94CCA80914F0A882309F057
:10490000E0C946CA0F90CF91DF911F910F91FF90A0
:10491000EF90DF90CF90BF90AF909F908F907F905F
:104920006F9008950F931F93CF93DF93082F80E02C
:1049300060E04FE554E021E00E942C50013658F031
:10494000033628F0033639F485EE95E202C085EF90
:104950009DE10E946C0686E068E04BE554E00E9411
:104960005A50409163075091640788E168E020E065
:1049700000E00E94B80F86E668E047E554E00E9438
:104980005A5040916507509166078CE368E020E03B
:104990000E94B80F86E060E143E554E00E945A505F
:1049A000409167075091680788E160E120E00E942C
:1049B000B80F86E660E14FE454E00E945A504091FF
:1049C000690750916A0734E0569547953A95E1F7A3
:1049D0008CE360E120E00E94B80F86E660E04BE4E3
:1049E00054E00E945A5040916107509162078CE355
:1049F00060E020E00E94B80F8091E8079091E907FD
:104A00008937910518F4C0E0D0E004C0C091E607F2
:104A1000D091E70782E06CE34EE70E94735185E096
:104A20006CE143E20E9477510BE0802F6BE343E09F
:104A30000E9477510A5F0338C1F706E01CE3FE01CC
:104A4000E259F84F4081612F641B802F0E947751FB
:104A50002196C837D10510F0C0E0D0E08091E6077C
:104A60009091E707C817D90719F00F5F0E3739F78C
:104A7000DF91CF911F910F9108950F931F93CF93C3
:104A8000DF93182F80E060E044E654E021E00E94CC
:104A90002C50113631F40E94135985EF9DE10E948C
:104AA0006C0680910D10882309F477C08091041062
:104AB0008D3711F000E007C08091051090E2892742
:104AC0008093051001E0E02FF0E0EC5FFF4E1081D5
:104AD000812F64E60E94BA1080937802812F6AE0E9
:104AE0000E94BA1080937902812F61E00E94BA106F
:104AF00080937A020F5FE02FF0E0EC5FFF4E808141
:104B00008D3749F40F5FE02FF0E0EC5FFF4E8081BE
:104B100090E289278083E02FF0E0EC5FFF4E108168
:104B2000812F64E60E94BA1080938002812F6AE090
:104B30000E94BA1080938102812F61E00E94BA1016
:104B400080938202202F2F5FE22FF0E0EC5FFF4E78
:104B500080818D3749F42F5FE22FF0E0EC5FFF4E4C
:104B6000808190E289278083E22FF0E0EC5FFF4EA6
:104B70001081812F64E60E94BA1080938D02812FEC
:104B80006AE00E94BA1080938E02812F61E00E9439
:104B9000BA1080938F0210920D10C5E7D2E01CE08E
:104BA000812F68E1488120E10E94814F812F60E2DE
:104BB000488920E10E94814F21961A5F1C3681F7B7
:104BC000DF91CF911F910F9108951F93182F80E0CF
:104BD00060E042EB54E021E00E942C501236E9F0F4
:104BE000133628F4103631F01136F1F419C01336AB
:104BF000D9F416C08FEF97E09093090180930801D4
:104C00001092EB071092EA071092ED071092EC0752
:104C100080915A058093590507C082E994E202C049
:104C200085EF9DE10E946C0680E068E040EA54E078
:104C30000E945A504091EA075091EB0756954795CC
:104C400084E568E00E94415180E060E14EE854E074
:104C50000E945A504091080150910901569547957C
:104C600084E560E10E94415180E068E14CE754E056
:104C70000E945A504091EA075091EB078091080139
:104C800090910901481B590B5695479584E568E1B9
:104C90000E94415180E060E24AE654E00E945A508E
:104CA0002091EC073091ED0784E690E0289FA00169
:104CB000299F500D389F500D112464E0569547955B
:104CC0006A95E1F784E560E220E40E943B511F9180
:104CD00008950F93042F40EF5FEF20E130E00E9432
:104CE000E4090F9108956F927F928F929F92AF92F5
:104CF000BF92CF92DF92EF92FF920F931F93DF93B9
:104D0000CF93CDB7DEB7682E742EF22E302F8A2DBA
:104D1000222329F0442309F400C122E0FFC020E04F
:104D2000833671F58C2D90E0880F991FFC01B3E05C
:104D3000EE0FFF1FBA95E1F7E81BF90BE856FB4FA2
:104D4000832F6E2D40810E94070FFF2009F4EBC0D6
:104D5000772039F48091620590916305892B09F4DD
:104D6000E2C08C2D90E0880F991FBC01F3E0660F24
:104D7000771FFA95E1F7681B790B68567B4F2FC0B8
:104D8000823691F58C2D90E0880F991FFC0173E01D
:104D9000EE0FFF1F7A95E1F7E81BF90BE756FB4F83
:104DA000832F6E2D40810E94070FFF2009F4BBC0A6
:104DB000772039F48091620590916305892B09F47D
:104DC000B2C08C2D90E0880F991FBC0153E0660F94
:104DD000771F5A95E1F7681B790B67567B4F862D35
:104DE00042E00E9469269FC0A82EBB248989082F13
:104DF00010E0882009F048C08C2D90E0880F991FA2
:104E0000FC01B3E0EE0FFF1FBA95E1F7E81BF90BC9
:104E1000C501880F991F880F991FE80FF91FE00F30
:104E2000F11FE457FB4F4081552747FD5095832FD5
:104E30006E2D0E943B51FF2009F475C0772039F494
:104E40008091620590916305892B09F46CC08C2DCB
:104E500090E0880F991F9C0173E0220F331F7A9511
:104E6000E1F7281B390BAA0CBB1CAA0CBB1C2A0D92
:104E70003B1D020F131F04571B4F862DB8014CE931
:104E80005FEF24E630E045C0DD249924F501EE0F04
:104E9000FF1FC60143E0880F991F4A95E1F78C195F
:104EA0009D09E80FF91FE80DF91DEE0FFF1FE00F38
:104EB000F11FE457FB4F4081552747FD50954C5952
:104EC0005F4F832F6E2D0E943B51FF2061F17720B1
:104ED00031F48091620590916305892B21F1AA0C30
:104EE000BB1CC601B3E0880F991FBA95E1F78C1976
:104EF0009D09A80EB91EA80CB91CAA0CBB1C0A0D52
:104F00001B1D04571B4F862DB8014CE95FEF20E0B5
:104F100030E002E00E94E40906C021E0662309F4C3
:104F2000FFCE21E0FDCECF91DF911F910F91FF9039
:104F3000EF90DF90CF90BF90AF909F908F907F9039
:104F40006F9008950F931F93182F80E068E044E757
:104F500057E020E00E942C5081E060E142EE52E0F8
:104F60002AE000E10E94FA4F82E460E14FE320E092
:104F70000E94814F82E168E249E657E00E945A5060
:104F800082E160E34AE557E00E945A50113661F130
:104F90001F3B19F0103659F505C080915D058093CF
:104FA000590525C08091C3028F5F0E94704E009109
:104FB000C3020AC00150013108F00FE08091C30222
:104FC000081711F400E006C0802F8F5F0E94114B7C
:104FD000882381F30093C302802F0E94AC4A80E5AE
:104FE00097E30E946C0603C080E00E943E0D1F9173
:104FF0000F9108956F927F928F929F92AF92CF926E
:10500000DF92EF92FF920F931F93CF93DF93EC0108
:10501000162F4901D02E37012115310509F441C061
:10502000FF248881882311F4FF24F394042F015076
:10503000FF2011F1143671F01536F1F40023E1F080
:10504000E02FF0E03197EE0FFF1FE80DF91D85917D
:10505000949110C0202F30E08D2D90E001972817FB
:10506000390754F4F9013196EE0FFF1FE80DF91DD1
:10507000859194910E946C0680E3D80E8AE760E0E7
:105080004D2D2F2D0E94814F84E760E04FE22F2DA0
:105090000E94814F0F5C8EE660E0402F2F2D0E9412
:1050A000814F6114710411F490E009C088818C155E
:1050B00008F4C82EF301EC0DF11D949191501236B5
:1050C00009F462C0133688F4133409F468C0143448
:1050D00030F41132F9F0123409F072C052C01434B5
:1050E00079F1153409F06CC03BC01536E1F1163684
:1050F00038F4133609F456C0143609F061C023C0E1
:10510000113829F01F3B09F05BC0188259C010927A
:1051100018060CC080911806882319F01092180602
:105120004FC08881882311F0892821F480E00E94F3
:105130003E0D46C080915A058093590519822DC0B5
:1051400089818917E9F16728D9F1809118068823A8
:10515000B9F58981891710F48F5F0FC019822DC0AE
:105160008981882369F1672859F18091180688237D
:1051700039F58981882319F0815089831EC099836C
:105180001CC088818A15E1F0809118068823C1F43B
:1051900088818A1510F48F5F0DC018820EC0888137
:1051A000882371F080911806882351F48881882320
:1051B00019F08150888301C0A88280E68093021094
:1051C000DF91CF911F910F91FF90EF90DF90CF90E3
:1051D000AF909F908F907F906F900895AF92CF92F5
:1051E000DF92EF92FF920F931F93CF93DF93D82E0E
:1051F00080E060E046EC55E021E00E942C5088E61B
:105200009AE06D2D43E027EB33E007E05CECE52E00
:1052100055E0F52ECC24C394AA24A3940E94FA2727
:105220008091680A9FEBD91611F410921806FF249A
:10523000813011F4FF24F39480E068E142EC55E002
:1052400023E00F2D0E94FA4F10E000E3C0E0D0E011
:10525000143018F4202F68E103C0202F205660E29C
:10526000FE01E657FA4FDE01AA56BD4F408151813B
:10527000D2968D919C91D397481B590B440F551F83
:10528000822F20E20E943B511F5F085E2296183059
:10529000F9F6FF2099F080E6D81681F4A8ECB2E088
:1052A000EAE8F5E080E101900D928150E1F781E0BC
:1052B0000E94FA4880915A0580935905DF91CF9159
:1052C0001F910F91FF90EF90DF90CF90AF900895D6
:1052D0008F929F92AF92BF92CF92DF92EF92FF9206
:1052E0000F931F93CF93DF93D82E80E060E046E4C6
:1052F00057E021E00E942C504091C30250E04F5FE4
:105300005F4F845F60E025E002E00E94A2508BEBDB
:105310009AE06D2D42E027EA33E008E05DE4E52EF7
:1053200057E0F52E1CE0C12EBCE0AB2E0E94FA2700
:10533000A090BB0A9091BC0AB92EB3941A141CF029
:105340001092170619C02A2D332727FD309580911A
:105350001706281B3109283031053CF089EFA80ECB
:10536000A092170687E0A80E07C01216130624F0B5
:10537000AA94A0921706A39481E6D81671F18D1510
:1053800098F084E4D81609F43FC08D1528F082E423
:10539000D81608F44CC045C085E4D81641F180E623
:1053A000D81609F044C00EC084E6D81669F1D816A4
:1053B000C0F185E6D816D9F08FEBD816C1F510925A
:1053C000180635C0A7FC33C090E0809118068823EA
:1053D00009F491E0909318062AC08091180688235A
:1053E00031F11092180681E60E94955320C081E0A9
:1053F000A816E9F48B15D8F4809118068823B9F023
:1054000091509093BC0A13C081E0A81681F489E002
:105410008B1568F080911806882349F0B092BC0A79
:1054200006C080911806882311F41092BC0A80915E
:105430001706882319F0A8E0CA2E63C080E068E050
:1054400041E457E020E00E942C5081E0A81619F0BA
:1054500080E090E008C000E080911806811101E032
:1054600081E00827802F082F00618CE368E042EE7E
:1054700052E02AE00E94FA4F81E0A81609F03FC0EE
:10548000809118068823D9F10B2D10E0E8012197AF
:10549000FE01EE51FD4F80810E94A210682F809185
:1054A000620590916305892B61F482E6D81649F074
:1054B00083E6D81631F082E4D81619F083E4D816C2
:1054C00031F48D2D40E027E20E94F30A682F683204
:1054D00010F040E205C0E62FF0E0EF57F84F44919E
:1054E000CE51DD4F4883C801880F991F800F911F4F
:1054F000880F991F8A5C68E021E00E94814F70E16B
:10550000C72E80911706823008F087C080E06C2D8E
:105510004BE357E020E00E942C504091EF02509165
:10552000F00282E0A816A9F481E0B81639F480915F
:105530001806882309F0E7C221E0E6C282E0B81627
:1055400041F480911806882311F401E003C002E0C1
:1055500001C000E020E086E36C2D0E94B80F82E0DD
:10556000A81609F058C080911806882339F4809154
:10557000620590916305892B09F44DC081E0B8164E
:1055800029F082E0B81609F046C021C08091EF02F0
:105590009091F0026CE370E00E9444598D2D40E040
:1055A0002BE30E94F30A282F8CE328029001112498
:1055B0008091EF029091F0026CE370E00E944459F8
:1055C000280F391F3093F0022093EF0224C08091FE
:1055D000EF029091F0026CE370E00E944459082FB2
:1055E0000E5F8D2D602F41E02EE30E94F30A081B11
:1055F000112707FD10958091EF029091F002801B1A
:10560000910B9093F0028093EF0297FF04C01092E9
:10561000F0021092EF0288E0C80E809117068330E6
:10562000F8F480E06C2D43E357E020E00E942C501A
:1056300000E083E0A81609F401E08CE36C2D402F14
:105640000E944D0F002351F08D2D6DEE72E043ED61
:105650005FEF2DE230E002E00E94E40988E0C80E2E
:1056600080911706843038F580E06C2D4CE257E0CD
:1056700020E00E942C5010E084E0A81609F411E00C
:105680004091EE028AE04802A0011124495E584F81
:105690008CE36C2D2AE0012F0E94FA4F112349F070
:1056A0008D2D6091EE0240E021E00E94F30A80938C
:1056B000EE0288E0C80E809117068530E0F580E0A4
:1056C0006C2D40E157E020E00E942C5010E085E076
:1056D000A81609F411E04091F3024295407F4595E8
:1056E00045954595459583E04802A0011124475F03
:1056F000584F8CE36C2D23E0012F0E94FA4F1123A9
:10570000A1F06091F3026295607F6595659565955E
:1057100065958D2D40E021E00E94F30A8F709091F5
:10572000F302907F982B9093F30288E0C80E88E3F1
:105730008C1508F4EBC1809117068630C8F580E01F
:105740006C2D42E057E020E00E942C5010E086E0F3
:10575000A81609F411E04091F30245954595459549
:10576000459583E04802A00111244550594F8CE330
:105770006C2D23E0012F0E94FA4F112399F06091C4
:10578000F30265956595659565958D2D40E021E061
:105790000E94F30A8295807F9091F3029F70982B6C
:1057A0009093F30288E0C80E88E38C1508F4AEC12C
:1057B00080911706873060F580E06C2D42EF56E04F
:1057C00020E00E942C5010E087E0A81609F411E0B8
:1057D0004091F40286E04802A00111244D52594F35
:1057E0008CE36C2D26E0012F0E94FA4F112351F01B
:1057F0008D2D64EF72E040E050E024E030E002E004
:105800000E94E40988E0C80E88E38C1508F47EC184
:1058100080911706883008F580E06C2D4BEC56E03F
:1058200020E00E942C5000E088E0A81609F401E076
:1058300086E36C2D4091F602202F0E94070F002373
:1058400031F08D2D66EF72E042E00E94692688E01B
:10585000C80E88E38C1508F459C180911706893069
:1058600008F058C080E06C2D42EC56E020E00E9429
:105870002C50C0E0D0E01CE3EB2CFF24470108943F
:10588000810891088C169D0629F489E0A81611F468
:1058900002E00BC08091F70290E00C2E02C09595BB
:1058A00087950A94E2F7082F0170AE014654594FCC
:1058B000812F6C2D21E00E94FA4F21961A5F163637
:1058C00009F789E0A81601F580E6D81631F0809135
:1058D000620590916305892BB9F08D2D0E94955337
:1058E000109218060894E108F10881E090E002C0E7
:1058F000880F991FEA94E2F72091F7022827209356
:10590000F70282E00E94FA4888E0C80E88E38C150E
:1059100008F4FCC0809117068A3008F09DC080E032
:105920006C2D44EB56E020E00E942C509091F10247
:105930008AE0A81659F481E0B81641F4809118065F
:10594000882311F401E003C002E001C000E046E05A
:10595000949FA00111244B56594F84E26C2D26E0F0
:105960000E94FA4F8091F102882309F041C04091D2
:10597000F2028AE0A81659F482E0B81641F4809148
:105980001806882311F401E003C002E001C000E022
:10599000552747FD5095440F551F440F551F40583C
:1059A000594F8CE36C2D24E00E94FA4F86E66C2D53
:1059B00043E756E020E00E942C509091F5028AE0E7
:1059C000A81659F483E0B81641F48091180688238C
:1059D00011F421E003C022E001C020E042E3940280
:1059E000A0011124445D5E4F86E66C2D0E943B5160
:1059F0008AE0A81659F580911806882331F4809121
:105A0000620590916305892B09F182E0B81661F077
:105A100083E0B81689F081E0B816C1F48D2D61EFEE
:105A200072E040E050E005C08D2D62EF72E04EEF75
:105A30005FEF24E030E007C08D2D65EF72E04CEFA2
:105A40005FEF2AE030E002E00E94E40988E0C80E3F
:105A500088E38C1508F45AC0809117068B3058F5EE
:105A600080E06C2D49E656E020E00E942C5010E0CA
:105A70008BE0A81609F411E04091F80283E0489FFA
:105A8000A00111244E59594F8CE36C2D23E0012FB6
:105A90000E94FA4F112351F08D2D68EF72E040E023
:105AA00050E021E030E002E00E94E40988E0C80E06
:105AB00088E38C1558F1809117068C3038F5809169
:105AC0001906882311F020E005C020E08CE0A8161C
:105AD00009F421E080E06C2D4CE456E00E942C504B
