:100000000C94EE0D0C940B0E0C940B0E0C940B0E2A
:100010000C940B0E0C940B0E0C940B0E0C940B0EFC
:100020000C940B0E0C940B0E0C940B0E0C940B0EEC
:100030000C9420100C940B0E0C940B0E0C94A4102A
:100040000C94500F0C940B0E0C94606B0C940B0ED4
:100050000C940B0E0C940B0E0C940B0E0C940B0EBC
:100060000C940B0E0C946F0F0C940B0E0C940B0E47
:100070000C940B0E0C940B0E0C940B0E0C940B0E9C
:100080000C940B0E0C940B0E0C940B0E966BA56C33
:10009000B46BB96BA56CCF6BD46BA56CEA6BEF6BD3
:1000A000A56C056C0A6CA56C206C256CA56C3B6C72
:1000B0003F6C566C586C5A6C5C6C606C80400000F5
:1000C0000000000000000000000000000000000030
:1000D0000000000000000000000000000000000020
:1000E0000000000000000000000000000000000010
:1000F0000000000000000000000000000000000000
:1001000000000000000000000080C0E0E0F0F8F80F
:10011000FCFCFCF8F8F8F040000000000080808053
:1001200000000000000000000000000000000000CF
:1001300000000080C0C0E0E0E0F0F0F0E0C00000AF
:10014000000000C0F8FFFF9F87838383838383833E
:1001500083838383838383838383838383838303EF
:100160008380838383838383838383838383838362
:10017000838383838383838383C3E3733F1F00006D
:10018000000080E0F0F8FCFEFFFFFFFF7F3F1F1F35
:100190000F0783C3E1E1E0E0C0000E1F3F7F7FFF58
:1001A000F3E0E0800000000000000000000080F0AC
:1001B000FCFEFFFFFFFF7F3F0F0301010100000076
:1001C00080F0FEFFFFC7C1C1C1C1C1C1C1C1C1C172
:1001D000C1C1C1C1C1C1C1C1C1C1C1C101C1F0FE63
:1001E000FF3F0F070F0D0D0D1D1919191931313171
:1001F0003171616161E1C1C1C18100000080E0F83D
:10020000FCFFFFFFFF2F170F038180C0E0F0F8FC19
:10021000FEFFFFFFFFFFFF7F010000000000000066
:1002200001010307070E1E1C3870E0F0F8FEFFFF07
:100230007F1F0F030001000000000000000000000D
:1002400000000000000000000000000000000000AE
:10025000000000000000000000000000000000009E
:10026000000000000000000000000000000000008E
:100270000000000000000000000000007EFFFFFF03
:10028000FFFFFFFBF8FCFCFEFF7F3F1F0F07C3FFD4
:10029000FFFFFFFFFF7F07000000000000000000DD
:1002A0000000000000C0E0F8FEFFFF7F1F0F1F3DB1
:1002B0007CF8F8F0E0800000000000000000000082
:1002C000000000000000000000000000000000002E
:1002D000000000000000000000000000000000001E
:1002E000000000000000000000000000000000000E
:1002F00000000000000000000000000000000101FC
:10030000010101030707070301000000E0FCFFFFF4
:10031000FFFFFF1F030000000000000000000000BE
:10032000C0F078DE2713090E07030000000000006C
:10033000000001030F7FFFFC7878F8000000000048
:10034000000000000000808080808080808080002D
:10035000808000808000000000000000808080809D
:10036000808080808080808080808080808000008D
:10037000000000000000000000000000000000007D
:1003800000000000000000000080F0FEFFFFFFFF03
:100390003F0F010000000000000000C0E0381E0F09
:1003A0000300010000000000000000000000000049
:1003B0000000000000000000000303010000000036
:1003C0000000000000000E0E020202020203030001
:1003D0000F0F000F0F080808080808080F0F08087B
:1003E0000808080F0F000000000F0F0000000000B9
:1003F00000000000000000000000000000000000FD
:1004000000000000000000C0F8BFFFFFFF1F7F01D9
:100410000000000000000000F0FCFF7F78300000CA
:1004200000000000000000000000000000000000CC
:1004300000000000000000000000000000000000BC
:1004400000000000000000000000000000000000AC
:10045000000000000000000000000000000000009C
:10046000000000000000000000000000000000008C
:10047000000000000000000000000000000000007C
:100480000000000000301C070E0F070100000000F4
:10049000000000000000000000000000000000005C
:1004A000000000000000000000000000000000004C
:1004B00000000000000000000000000000000052EA
:1004C000554420454C45205448522041494C205227
:1004D00055442054485220454C452041494C204128
:1004E000494C20454C452054485220525544204107
:1004F000494C2054485220454C4520525544200038
:1005000003010200040506070000000000000108C6
:100510001E640101081E6401010F32960A0A1E3290
:10052000966D656E75537461636B206F7665726648
:100530006C6F77006D656E75537461636B20756EBB
:10054000646572666C6F7700707265737320616E9C
:1005500079204B657900414C455254004D45535329
:10056000414745004C4F4144494E47005072657326
:100570007320616E79206B657920746F20736B69CD
:100580007000506C656173652072657365742074CA
:1005900068656D005377697463686573206E6F7466
:1005A000206F666600414C45525400416C61726D8B
:1005B000732044697361626C656400507265737383
:1005C00020616E79206B657920746F20736B697080
:1005D000005265736574207468726F74746C650082
:1005E0005468726F74746C65206E6F742069646CEB
:1005F0006500414C45525400454550524F4D206CCA
:100600006F77206D656D004F4646414253525573DA
:10061000525525454C73454C255448735448254143
:100620004C73414C255031205031255032205032EE
:100630002550332050332500544852525544454CE0
:100640004549443049443149443241494C47454188
:1006500054524E53573153573253573353573453E1
:1006600057355357365357375357385357395357CE
:1006700041535742535743004F4646004F4E2000C8
:100680002D2D2D002D2D2D20434831204348322083
:1006900043483320434834204348352043483620DC
:1006A00043483720434838204348392043483130B5
:1006B0004348313143483132434831334348313480
:1006C0004348313543483136434831374348313860
:1006D000434831394348323043483231434832325B
:1006E0004348323343483234434832354348323644
:1006F000434832374348323843483239434833302D
:10070000005031202050322020503320204D4158BD
:100710002046554C4C435943314359433243594386
:100720003350504D3150504D3250504D3350504D4C
:100730003450504D3550504D3650504D3750504D2F
:10074000384348312043483220434833204348341B
:100750002043483520434836204348372043483813
:1007600020434839204348313043483131434831F0
:1007700032434831334348313443483135434831BB
:10078000364348313743483138434831394348329A
:10079000304348323143483232434832334348329F
:1007A000344348323543483236434832374348327F
:1007B000384348323943483330002D2D2D2D005613
:1007C0004552533A2056312E343036302D657265FD
:1007D0007A00444154453A2030332E30332E3230A3
:1007E00031310054494D453A2030393A30393A33A5
:1007F00030002053564E3A207472756E6B2D723352
:1008000034310012081200081C0808081C080000F7
:10081000082200490022080000000000227F220078
:1008200000000822004900220800000822004900B8
:100830002208000000227F220000000000082200A1
:10084000490022080000081C0808081C08003F4353
:10085000F84568449636625897515B42C7388450D1
:10086000765AA93AF535E93F1A40AF4020417075F4
:100870006C736520746162206F766572666C6F7749
:100880000001020304010302040402030104030241
:1008900001544852525544454C454944304944312D
:1008A00049443241494C47454154524E53573153C4
:1008B000573253573353573453573553573653578B
:1008C0003753573853573953574153574253574368
:1008D00000544852525544454C45494430494431EE
:1008E00049443241494C47454154524E5357315384
:1008F000573253573353573453573553573653574B
:100900003753573853573953574153574253574327
:100910000020202054546D00457870457846466E7E
:10092000654D656443727300544F54005354250061
:1009300053544B0054535700544D450053544154A5
:1009400000746D61696E202020202020202020204E
:100950006D7300746D7231204A6974746572202061
:100960002020757300746D72314C6174206D696E56
:1009700020202020757300746D72314C6174206DDD
:100980006178202020207573005354415432004D6B
:100990006F6465004F46464F4E2000416C61726D9A
:1009A000205761726E696E67004F46464F4E2000B9
:1009B0004D656D6F7279205761726E696E67004F79
:1009C00046464F4E20005377697463682057617222
:1009D0006E696E67004F46464F4E20005468726F36
:1009E00074746C65205761726E696E67004F46467D
:1009F0004F4E200053706C6173682073637265659D
:100A00006E004F4646004C69676874206F6666202A
:100A10006166746572004C696768742073776974E5
:100A20006368004F46464F4E2000466C6173682055
:100A30006F6E2062656570004F46464F4E20004243
:100A400065657020636F756E74646F776E004F46D6
:100A5000464F4E20004D696E757465206265657065
:100A6000004F46464F4E20005468726F74746C6598
:100A700020726576657273650053494E474F534D3A
:100A80005046494C540046696C7465722041444399
:100A900000496E616374697669747920616C617272
:100AA0006D0042617474657279207761726E696E4F
:100AB0006700436F6E747261737400517569657479
:100AC0004E6F4B65794E6F726D204C6F6E6720785C
:100AD0004C6F6E6700426565706572004F776E659A
:100AE00072204E616D6500524144494F2053455478
:100AF0005550004D756C7469706C69657200436186
:100B00006C0050504D494E00010456455253494F18
:100B10004E005472696D2D202B00204D656E75209E
:100B20004578697420446F776E2020205570526993
:100B3000676874204C656674004449414700413140
:100B4000413241334134413541364137413800412A
:100B50004E41003C202020203E005365744D6964C6
:100B6000205365745370616E446F6E6520202000C1
:100B700043414C4942524154494F4E004475706CB8
:100B800069636174696E67206D6F64656C00312FF5
:100B900031300066726565004D4F44454C53454CFD
:100BA000002D2D2D494E5600434F4C20446972654F
:100BB0006374696F6E002D2D2D494E560041494CCE
:100BC00020446972656374696F6E002D2D2D494E46
:100BD0005600454C4520446972656374696F6E0028
:100BE00053776173682052696E6700436F6C6C6560
:100BF0006374697665002D2D2D2020203132302040
:100C0000202031323058202031343020202039301B
:100C1000202020200053776173682054797065008C
:100C200048454C49205345545550200001010101CD
:100C300001010144454C455445204D4F44454C204D
:100C400020205B4D454E555D004F46464F4E2000DF
:100C5000452E204C696D69747300504F534E4547C3
:100C60000053686966742053656C007553656300B2
:100C700034434820364348203843482031304348E5
:100C80003132434831344348313643480050504DA7
:100C900020202053494C565F4153494C565F4253E4
:100CA000494C565F435452414330390050726F747F
:100CB0006F00524554413132330042656570204324
:100CC0006E74005472696D2053770045787020204F
:100CD00020457846696E6546696E6520204D6564DD
:100CE00069756D436F61727365005472696D204957
:100CF0006E63004F46464F4E2000542D4578706F6E
:100D0000004F46464F4E2000542D5472696D0043EB
:100D10006F756E7420446F776E436F756E742055D7
:100D20007020200054696D657220005472696767F5
:100D300065720054696D6572004E616D65005345C2
:100D40005455502000010A0201010101010107036D
:100D50000101015B4D454E555D20205B45584954CE
:100D60005D0059455320202020204E4F0044454C23
:100D7000455445204D4F44454C0020414243444595
:100D8000464748494A4B4C4D4E4F5051525354558B
:100D9000565758595A6162636465666768696A6B39
:100DA0006C6D6E6F707172737475767778797A3056
:100DB0003132333435363738395F2D2E006578704F
:100DC000202025202073773120737732004558503A
:100DD0004F2F44520005044452204869676800447C
:100DE00052204C6F77004452204D69640044725386
:100DF0007732004472537731005765696768740031
:100E00004578706F004558504F2F445220002D2DCB
:100E10002D783E30783C307C787C663E30663C30C5
:100E20007C667C633120633220633320633420632B
:100E300035206336206337206338206339206331DF
:100E4000306331316331326331336331346331358F
:100E5000633136002B2A52004D4958455200444513
:100E60004C455445204D4958205B4D454E555D003D
:100E7000536C6F772020557000536C6F772020449F
:100E80006F776E0044656C61792055700044656C25
:100E9000617920446F776E00416464202020202017
:100EA0004D756C7469706C795265706C6163652006
:100EB000004D756C747078004F4646005761726E35
:100EC000696E6700537769746368002D2D2D783E35
:100ED00030783C307C787C663E30663C307C667C8A
:100EE0006331206332206333206334206335206311
:100EF0003620633720633820633920633130633113
:100F000031633132633133633134633135633136C8
:100F100000437572766573004F4E204F464600546D
:100F200072696D004F66667365740057656967681E
:100F30007400536F757263650045444954204D49F0
:100F4000582000494E53455254204D495820002DF9
:100F50002D2D2D202020763E6F66732020763C6F4D
:100F6000667320207C767C3E6F66737C767C3C6F5B
:100F70006673414E44202020204F52202020202004
:100F8000584F522020202076313D3D763220763158
:100F9000213D76322076313E7632202076313C7605
:100FA00032202076313E3D76322076313C3D76321D
:100FB00020005357004353574954434800030353F9
:100FC000414645545920535749544348455300011D
:100FD00002010203040102040301030204010304E9
:100FE00002010402030104030202010304020104DA
:100FF00003020301040203040102040103020403C7
:1010000001030102040301040203020104030204B8
:1010100001030401020304020104010203040103A9
:101020000204020103040203010403010204030297
:1010300001434C454152204D49584553205B4D4595
:101040004E555D0020524554410020524554410008
:101050002052455441002052455441004368616E7E
:101060006E656C204F726465720054454D504C4162
:1010700054455300434F5059205452494D205B4D25
:10108000454E555D002D2D2D494E56004C494D497C
:1010900054530001044356004355525645005052E4
:1010A0004553455400454449542D3E00435552563E
:1010B0004520000A01010101010101010101014571
:1010C0004550524F4D206F766572666C6F770045C4
:1010D0004550524F4D206F766572666C6F77006792
:1010E000656E7772697465206572726F720045452E
:1010F00050524F4D20466F726D617474696E670077
:1011000042616420454570726F6D204461746100D6
:101110004D4F44454C2020202020004D45202020CC
:101120002020202020005008500000000000000077
:10113000006F000007000700147F147F14242A7F2B
:101140002A12231308646236495522500005030011
:1011500000001C2241000041221C0014083E08141B
:1011600008083E0808005030000008080808080079
:10117000606000002010080402003E49453E000067
:10118000427F4000625149460041494936001814E7
:10119000127F0027454539003E4949320001790553
:1011A000030036494936000649291E00003636003C
:1011B000000056360000081422411414141414417F
:1011C00022140800020151090600060909067E09D9
:1011D00009097E7F494949363E414141227F4141CB
:1011E000221C7F494949417F090909013E4149497A
:1011F0007A7F0808087F00417F41002040413F017D
:101200007F081422417F404040407F020C027F7FD4
:101210000408107F3E4141413E7F090909063E41D5
:1012200051215E7F09192946264949493201017F2A
:1012300001013F4040403F1F2040201F3F403040C1
:101240003F63140814630708700807615149454358
:10125000007F41410002040810200041417F00044A
:1012600002010204404040404000010204002054BA
:101270005454787F484444383844444420384444E3
:10128000487F3854545418087E0901020C525252B7
:101290003E7F0804047800447D40002040443D0027
:1012A0007F1028440000417F40007C041804787CB3
:1012B0000804047838444444387C1414140808148E
:1012C00014187C7C080404084854545420043F44F7
:1012D00040203C4040207C1C2040201C3C402040C2
:1012E0003C44281028440C5050503C4464544C4416
:1012F000000836410000007F000000413608000869
:1013000008221C08081C220808A0608000000000B9
:1013100000000000000000000000FFFF00000000CF
:1013200000001F3F00003F1F00003030FFFF303043
:10133000FFFF30303078CCCCFFFFCCCC8C0C060FCC
:101340000F86C0E070381C0C3CFEC7E3F33B1E0C5C
:1013500000000000333B1F0F000000000000F0F809
:101360001C0E07030000000003070E1CF8F000002D
:101370003030E0C0FCFCC0E03030C0C0C0C0FCFC7D
:10138000C0C0C0C000000000000000000000C0C0DD
:10139000C0C0C0C0C0C0C0C000000000000000004D
:1013A000000000000080C0E070381C0C000000004D
:1013B00000000000000000000000383800000000BD
:1013C0000000000000000000000003033F3F030393
:1013D0003F3F03030C0C0C0C3F3F0C0C07030C0E9F
:1013E00007030100183C3C180F1F383133331E1E11
:1013F000333300000000000000000000000003077D
:101400000E1C38300000000030381C0E07030000AE
:10141000030301000F0F00010303000000000F0F82
:10142000000000000000333B1F0F00000000000020
:1014300000000000000000000000183C3C18000004
:1014400000000C0E07030100000000000000FCFE7D
:1014500087C3E377FEFC00000C0EFFFF00000000D6
:1014600000000C0E0783C3E77E3C00000303C3C3E8
:10147000C3E7FE3C0000C0E070381C0EFFFF000018
:101480003F3F33333373E3C30000FCFEC7C3C3C71E
:101490008E0C00000303C3E3733B1F0F00003CFEF0
:1014A000E7C3C3E7FE3C00003C7EE7C3C3E7FEFCA6
:1014B0000000183C3C18000000000000183C3C18DC
:1014C000000000000000C0E0F0381C0E07033030C0
:1014D000303030303030303003070E1C38F0E0C090
:1014E00000000C0E07030383C3E77E3C00000F1FC0
:1014F0003B3130381F0F000030303F3F30300000AC
:1015000000003C3E37333130303000003030303076
:1015100030391F0F00000303030303033F3F0000A4
:101520000C1C383030381F0F00000F1F3830303996
:101530001F0F000000003F3F0000000000000F1FD1
:10154000393030391F0F0000000030381C0E0703FF
:101550000000060F0F06000000000000333B1F0FC5
:10156000000000000000000103070E1C38300303D8
:10157000030303030303030330381C0E07030100B6
:1015800000000000000033330100000000003C7E3A
:10159000E7C3C3E77E3CF0F8DCCEC7C7CEDCF8F08B
:1015A000FFFFC3C3C3C3C3E7FE3CFCFE0703030343
:1015B00003070E0CFFFF030303070E1CF8F0FFFFE9
:1015C000C3C3C3C3C3C30303FFFFC3C3C3C3C3C3F3
:1015D0000303FCFE0703C3C3C3C7CECCFFFFC0C0D9
:1015E000C0C0C0C0FFFF00000303FFFF03030000F3
:1015F000000000000303FFFF0303FFFFC0E0F0381B
:101600001C0E0703FFFF0000000000000000FFFFAA
:101610000E1CF8F81C0EFFFFFFFF3870E0C08000C2
:10162000FFFFFCFE070303030307FEFC00000000AE
:101630000000000000003F3F0000000000003F3FAE
:101640003F3F3030303030391F0F0F1F38303030CF
:1016500030381C0C3F3F303030381C0E07033F3F02
:1016600030303030303030303F3F0000000000007C
:1016700000000F1F3830303030303F3F3F3F000018
:10168000000000003F3F000030303F3F303000009E
:101690000C1C383030381F0F00003F3F000103079B
:1016A0000E1C38303F3F30303030303030303F3F2C
:1016B0000000000000003F3F3F3F00000001030327
:1016C0003F3F0F1F3830303030381F0FFFFFC3C38C
:1016D000C3C3C3E77E3CFCFE070303030307FEFC12
:1016E000FFFFC3C3C3C3C3E77E3C3C7EE7C3C3C3A2
:1016F000C3C78E0C03030303FFFF03030303FFFFB2
:10170000000000000000FFFFFFFF000000000000DD
:10171000FFFFFFFF000000000000FFFF0F1F38F079
:10172000E0E0F0381F0F3F7FE0C08080C0E07F3FE7
:1017300003030383C3E3733B1F0F0000FFFF030397
:10174000030300000C1C3870E0C0800000000000A3
:1017500003030303FFFF000030381C0E07070E1CB5
:101760003830000000000000000000003F3F000093
:101770000000000000000F1F383033371E1C3F33BD
:101780003F3F000003070E1C38300C1C383030304F
:1017900030391F0F000000003F3F000000000F1F06
:1017A0003830303030381F0F03070E1C38381C0E0D
:1017B00007030F1F38381F1F38381F0F3C3E070321
:1017C000010103073E3C000000013F3F0100000013
:1017D0003C3E373331303030303000003F3F303026
:1017E0003030000000000000000103070E0C000074
:1017F000303030303F3F00000000000000000000AB
:1018000000003030303030303030303000000307EE
:101810000E1C383000000000303030303070E0C036
:10182000FFFFC0E070303070E0C0C0E0703030309A
:1018300030300000C0E070303070E0C0FFFFC0E02A
:10184000703030303070E0C0C0C0FCFEC7C303074A
:101850000E0CF0F89C0C0C0C0C0CFCFCFFFFC0E018
:1018600070303070E0C000003030F3F30000000052
:10187000000000003030F3F30000FFFF0080C0E004
:101880007030000000000303FFFF00000000F0F0D4
:101890003070E0E07070E0C0F0F0C0E070303070A8
:1018A000E0C0C0E0703030303070E0C000000000B8
:1018B0000000000000000C1E3F33333333333F3F42
:1018C0003F3F3030303030381F0F0F1F383030304E
:1018D00030381C0C0F1F3830303030303F3F0F1F76
:1018E0003B3333333333030300003F3F000000003A
:1018F0000000000133333333333B1F0F3F3F000001
:10190000000000003F3F000030303F3F303000001B
:101910000C1C383030381F0F00003F3F03070F1CEE
:1019200038300000000030303F3F303000003F3F93
:101930000000030300003F3F3F3F000000000000A5
:101940003F3F0F1F3830303030381F0FF0F030304D
:10195000303030F0E0C0C0E0F0303030E0C0F0F0C7
:10196000F0F0C0E070303070E0C0C0E0F0303030F7
:10197000303000003030FFFF303000000000F0F069
:10198000000000000000F0F0F0F000000000000097
:10199000F0F0F0F0000000000000F0F03070E0C067
:1019A0008080C0E07030F0F0800000000000F0F0B7
:1019B0003030303030B0F0F070300000C0E03C3EED
:1019C0000703000000000000FFFF0000000000000F
:1019D00003073E3CE0C00000C0C0C0C00C1CF8F0D3
:1019E000E0C0C0E0F0F81C0CC0C0C0C03F3F030323
:1019F00003030303010000010303030303033F3F49
:101A00003F3F00000000000000003031333333332B
:101A1000333F1E0C00000F1F383030381C0C0F1FD6
:101A2000383030381C0C3F3F03070E1C38381C0E72
:101A300007030F1F38381C1C38381F0F30381C0F95
:101A400007070F1C3830000133333333333B1F0F8C
:101A500030383C3E373331303030000000010F1F4A
:101A600038300000000000003F3F00000000000090
:101A700030381F0F01000000000000000C0E0703AB
:101A80000100000103070E0C000000004080080464
:101A900020100201010203040102040301030204F5
:101AA000010304020104020301040302020103040E
:101AB00002010403020301040203040102040103FE
:101AC00002040301030102040301040203020104EE
:101AD00003020401030401020304020104010203DE
:101AE00004010302040201030402030104030102CE
:101AF00004030201010203040103020404020301BE
:101B00000403020120415244552050494C4F5420B7
:101B10004D656761203F2F3820002052544C2044EF
:101B2000697374616E636500204172647550696CFD
:101B30006F74204D6F6465002050697463682041A4
:101B40006E676C650020526F6C6C20416E676C652F
:101B50000020436C696D6220526174652000204151
:101B60006972205370656564200020446973746154
:101B70006E636520002057617920506F696E742074
:101B80002320002042656172696E670020436F75F3
:101B90007273650020416C74697475646520486FC8
:101BA0006C640020416C7469747564650020436C3A
:101BB000696D622072617465002047726F756E6492
:101BC00020737065656400204C6F6E67697475647E
:101BD0006500204C617469747564650011241FBE32
:101BE000CFEFD0E1DEBFCDBF11E0A0E0B1E0E4EB8C
:101BF000F0EE02C005900D92A63AB107D9F71FE0AA
:101C0000A6EAB1E001C01D92AF37B107E1F70E942B
:101C10002D190C9458700C940000E091A904F0E088
:101C2000EE0FFF1FEF55FB4F808191810895FC015E
:101C3000A091A904B0E0AA0FBB1FA156BB4FED9322
:101C4000FC938FEB09958091AB048093AA040895CF
:101C5000E0E0F5E0E80FF11DE491F0E0EE0FFF1F8A
:101C6000EC50FB4F20813181C9010895EF92FF9222
:101C70000F931F93CF93DF938091EA0190E08170DF
:101C80009070C2E0D0E0C81BD90B1091EC0111702C
:101C9000E4E0F5E0A4EFB4E040E050E0E12C78E0CF
:101CA000F72E042F842F806487B9369A349BFECF99
:101CB000349A208931898D919C91119796958795B9
:101CC000820F931F8E7F11969C938E9360817181FA
:101CD000260F371F36952795318B208B84B195B110
:101CE000C417D50741F4043030F4112321F09701D3
:101CF000281B390BC901860F971F969587958193ED
:101D000091934F5F5F4F12964830510551F6DF9126
:101D1000CF911F910F91FF90EF9008958F929F9216
:101D2000AF92BF92CF92DF92EF92FF920F931F93E9
:101D3000DF93CF93CDB7DEB760970FB6F894DEBFD1
:101D40000FBECDBFFE01319680E1DF011D928A9565
:101D5000E9F78091EA0190E081709070A2E0B0E034
:101D6000A81BB90B7091EC0171704F0124EFE22EAA
:101D700024E0F22E40E050E08D01000F111F0E0D07
:101D80001F1DA12C88E0B82E2EC0D7B8369A349BE0
:101D9000FECF349A84B195B1280F391F6F5F64303C
:101DA000A1F7F40131832083C90196958795F70146
:101DB00091838083A417B50759F4F3E0FC1540F034
:101DC000772331F09501281B390BF80131832083EB
:101DD0004F5F5F4F22E030E0820E931EE20EF31E53
:101DE0004830510549F0C42EF4012081318160E072
:101DF000E0E4DE2ED42AC9CF60960FB6F894DEBF99
:101E00000FBECDBFCF91DF911F910F91FF90EF904B
:101E1000DF90CF90BF90AF909F908F9008950F93D9
:101E20001F93CF93DF938091EA0190E081709070CF
:101E300042E050E0481B590B6091EC016170A4EF47
:101E4000B4E020E030E0FA01EE0FFF1FEA0FFB1FC5
:101E5000C0E0D8E0722F822F806487B9369A349B15
:101E6000FECF349A84B195B1880F991F11969C9337
:101E70008E934217530749F4743038F4662329F0DF
:101E80008E01081B190B118300832F5F3F4F1296A1
:101E900028303105F9F6DF91CF911F910F91089508
:101EA0001F920F920FB60F9211248F938091ED0421
:101EB0008F5F8093ED048F910F900FBE0F901F9056
:101EC00018954091ED0422B78091ED044817C9F7A9
:101ED000942F80E030E0282B392BC90108957894A5
:101EE0001F920F920FB60F9211242F934F935F936F
:101EF0006F937F938F939F93EF93FF934091800015
:101F000050918100F89480917D008F7D80937D00B9
:101F100078942091D9042F5F2F708091DA042817CC
:101F200089F4E091D904F0E03F96EF70F070EE0F85
:101F3000FF1FE754FB4F118210828091AF04809302
:101F4000AA0413C0E091D904F0E08091F1049091CB
:101F5000F204BA01681B790BCB01EE0FFF1FE754A7
:101F6000FB4F918380832093D9045093F2044093D4
:101F7000F104F89480917D00806280937D007894D4
:101F8000FF91EF919F918F917F916F915F914F9111
:101F90002F910F900FBE0F901F901895CF93DF9346
:101FA0008091F001C82FDD27C7FDD0952A9640917A
:101FB000EB043AC0E091DA04F0E0EE0FFF1FE754C3
:101FC000FB4F20813181369527958091DA048F5F10
:101FD0008F708093DA04842F81508830F8F4C9011F
:101FE000815293408757954010F040E01DC0E42F88
:101FF000F0E0EE0FFF1FE752FB4F2C5D35402C9FAA
:10200000C0012D9F900D3C9F900D11246AE070E05F
:102010000E94C66F718360834F5F06C0215A3F40A4
:102020002F5D3E4208F441E09091DA048091D9049A
:10203000981709F0BFCF4093EB04DF91CF9108953B
:102040001F920F920FB60F9211242F933F934F932D
:102050005F936F937F938F939F93AF93BF93EF9310
:10206000FF93E0910601F091070180819181892B16
:10207000A9F48FE397E09093070180930601809184
:10208000170281708093340587B78F7E87BF78945D
:102090000E94691EF89487B7806187BF90E08CB575
:1020A0008A3008F049C09F5F923309F445C0F7CFEA
:1020B000C09A1092340504C0C09881E08093340522
:1020C00080913B0790913C079C012417350708F449
:1020D0009A0130933C0720933B078091080190912F
:1020E00009019C014217530708F49A013093090132
:1020F00020930801E0910601F091070181919191EF
:102100009BBD8ABDF0930701E09306018091EC042A
:1021100081608093EC04FF91EF91BF91AF919F910B
:102120008F917F916F915F914F913F912F910F9080
:102130000FBE0F901F9018954CB55DB5809134057A
:10214000882309F0B5CFB8CF78941F920F920FB6BD
:102150000F9211242F933F934F935F936F937F932D
:102160008F939F93AF93BF93EF93FF93F89487B7A9
:102170008D7F87BF789481B7845681BF9091AA04E0
:10218000992369F08091EF04882329F49093EF0458
:1021900081E08093F00491509093AA0421C0309183
:1021A000EE043323B9F02091EF04222399F090E05C
:1021B0008091F004882309F491E09093F00499232E
:1021C00009F428E02093AA04992351F03150309368
:1021D000EE0406C01092EF041092F00410929E04D8
:1021E0008091F004882381F080919E04882311F46B
:1021F00090E004C09091F30481E098279093F30459
:10220000992311F41B9A01C01B980E94E4668091E7
:10221000EC0482608093EC04F89487B7826087BFF7
:102220007894FF91EF91BF91AF919F918F917F91A2
:102230006F915F914F913F912F910F900FBE0F9033
:102240001F901895FF920F931F93DF93CF930F92D8
:10225000CDB7DEB7782F142F163008F084C177235E
:1022600009F484C1763109F480C17A3E09F47BC156
:10227000272F332727FD3095C90137FF04C0882752
:102280009927821B930B8A308CF417164CF08DE043
:1022900090E0821B930B0E943B6661E0682766C159
:1022A000C9010D960E943B66682F60C1992787FD82
:1022B00090950A97DC01AA0FBB1FA80FB91FAF5F4B
:1022C000BD4FA85ABD4F6C91A855B240662309F482
:1022D0004AC1FD01EA5AFD4FF080FD01E95AFD4F68
:1022E0000081653008F44AC1683028F440E050E0CD
:1022F00020E030E084C0EF2DE150EC30E0F143C04D
:10230000F0E0EE0FFF1FE65CFA4F4081518118C0EC
:10231000AE2FB0E0E43170F4AA0FBB1FFD01E05412
:10232000FE4FAD53BB4F4D915C9180819181481B15
:10233000590B06C0AA0FBB1FA05EBA4F4D915C910E
:10234000802F07FD8D5F85958595E82FFF27E7FD99
:10235000F0952AE00202C0011124E80FF91F802F36
:1023600007FD815C86FB880F880B80F9992787FD24
:1023700090959F013BC0F0E0EE0FFF1FE65CFA4F27
:102380004081518118C0AE2FB0E0E43170F4AA0F43
:10239000BB1FFD01E054FE4FAD53BB4F4D915C910F
:1023A00080819181481B590B06C0AA0FBB1FA05EFC
:1023B000BA4F4D915C91E02FE150EC3040F4F0E0E9
:1023C000EE0FFF1FE65CFA4F2081318118C0AE2F5F
:1023D000B0E0E43170F4AA0FBB1FFD01E054FE4FE2
:1023E000AD53BB4F2D913C9180819181281B390BBE
:1023F00006C0AA0FBB1FA05EBA4F2D913C9167305B
:1024000009F482C0683088F4633069F1643030F4D4
:10241000613009F1623009F0A6C021C0653009F4CD
:1024200056C0663008F065C038C06A3009F487C00D
:102430006B3038F4683009F478C0693009F093C023
:1024400079C06C3009F485C06C3008F47DC06D3003
:1024500009F089C083C017160CF471C07FC017162D
:102460000CF472C076C0171664F460E0FA0157FFEE
:1024700003C0F095E195FF4F2E173F070CF076C093
:1024800074C060E0FA0157FF03C0F095E195FF4F7B
:102490002E173F070CF46AC068C0171664F460E09A
:1024A000FA0157FF03C0F095E195FF4FE217F307DC
:1024B0000CF05CC05AC060E0FA0157FF03C0F09511
:1024C000E195FF4FE217F3070CF450C04EC01F5FB9
:1024D0008F2D60E0412F0E942211882309F443C010
:1024E000802F60E0412F0E942211682F8823F1F194
:1024F0003CC01F5F8F2D60E0412F0E942211882376
:10250000A1F5702F60E0A8CE1F5F8F2D60E0412FF6
:102510000E9422118983802F60E0412F0E942211A6
:1025200060E09981981709F521C060E042175307D0
:10253000E9F41BC060E042175307B9F417C060E02C
:10254000241735079CF411C060E04217530774F458
:102550000CC060E0421753074CF007C060E024173E
:10256000350724F002C060E001C061E0862F0F90C3
:10257000CF91DF911F910F91FF900895EF2DE150C2
:10258000EC3008F4BDCEC4CE1F93182F782F7F7087
:1025900076502091130222306CF0332727FD3095BE
:1025A0002150304081E090E002C0880F991F2A95A9
:1025B000E2F7282F783008F098C0972F95952223BE
:1025C00011F0422F15C0E92FF0E0ED51FC4F808152
:1025D000482F552747FD509557FF03C0509541950B
:1025E0005F4F242F47FD2D5F422F459545954F5F47
:1025F000A92FB0E02091EA0130E02170307082E034
:1026000090E0821B930B8A179B0711F060E00CC0CF
:10261000809112028F7011F460E002C044E061E02A
:102620008091EC0180FD4195242F332727FD3095C3
:10263000FD01EF5FFD4F70FF0AC0EE51FE4F80813C
:10264000482F552747FD5095420F531F09C0EE51A3
:10265000FE4F8081482F552747FD5095421B530B55
:102660004115510571F0952F9095991F9927991F44
:1026700020E0FD01ED51FC4F808187FF21E09217A2
:1026800069F0662359F4FD01ED51FC4F80818823E8
:1026900029F01082812F0E94C26620C0CA0184588E
:1026A0009F4F893F910570F4AD51BC4F4C9382E030
:1026B0000E94955B16FF03C081E080939E04809189
:1026C000AC0410C01416150614F083E801C08DE7A1
:1026D000AD51BC4F8C9382E00E94955B10929E049A
:1026E0008091AE048093AA0410E0812F1F91089579
:1026F0001F9320915B0F30915C0F40E08091380573
:10270000909139052817390709F041E04093B60444
:1027100080915B0F90915C0F909339058093380501
:102720008BE695E060E00E94E8208091B604882363
:1027300009F4EFC080E00E94A65B0E9482650E94BF
:10274000AB650E94C412182F8091B7049091B80411
:10275000009729F001979093B8048093B704112350
:1027600089F08091EE0190E024EF31E0AC01429FCE
:10277000C001439F900D529F900D11249093B80477
:102780008093B7048091D70160E040E00E9422115D
:10279000882339F48091B7049091B804892B09F407
:1027A000B6C0C79A20914605309147058091B10483
:1027B0009091B204821B930B60E270E00E94C66F9E
:1027C0007093B4046093B3046115710591F0809126
:1027D000360590913705821B930B62E070E00E94F2
:1027E000C66F7093B4046093B3043093B204209323
:1027F000B1043093370520933605E091A904F0E049
:10280000EE0FFF1FE156FB4F0190F081E02D812F6D
:1028100009950E9459658091630081FF06C08091EF
:1028200065008F7E8093650007C0809165008061A0
:10283000809365000E94CE0F80915B0F90915C0F9A
:102840008F7190708230910521F0039709F061C07B
:1028500047C0E7E0F5E0E491F0E0EE0FFF1FEC5039
:10286000FB4F408151819A013695279536952795E2
:102870008091D601992787FD9095BC01269FC001C4
:10288000279F900D369F900D112423E230E0B9016F
:10289000469F9001479F300D569F300D1124820FA7
:1028A000931F96959093B50480913505805E809333
:1028B0003505882371F58091D501981750F592332D
:1028C00040F18091AF048093AA048091EC0183FFD2
:1028D00020C082E390E09093B8048093B70419C0BD
:1028E0008091E901869586958695877090E0BC0178
:1028F000660F771F660F771F680F791F685F7A4F23
:102900008BEA94E045E050E00E94167002C0C79840
:1029100049CF1F9108954F925F926F927F928F924D
:102920009F92AF92BF92CF92DF92EF92FF920F935E
:102930001F93CF93DF93182F5B013A014901C02EFB
:10294000202F30E084E0482E512C4222532202FFF7
:1029500004C0FB01E080F18006C0FB018081E82E0D
:10296000FF24E7FCF09423FD04C004E0D02E05E032
:1029700003C0B3E0DB2E02E014FF05C01F70106639
:10298000802F0D2DD82E8D2D8066181761F08D2D7E
:102990008064181741F090916905992361F013360E
:1029A00011F0133441F4E70121968091AB04809338
:1029B000AA04802F17C0802F8066181761F0802F1F
:1029C0008064181741F0992309F47CC0123619F07D
:1029D000123409F077C0E70121978091AB0480930E
:1029E000AA048D2D90E00E943B66882351F0CC27ED
:1029F000DD27CE19DF09802F0E94C2668D2D0E942F
:102A0000C2666114710491F4F1E08F16910471F4BF
:102A1000103661F410926905C0E0D0E0E114F104D1
:102A200011F4C1E0D0E080E60E94C2668091B30458
:102A30009091B404C81BD90B8C169D0644F4812FC9
:102A40000E94C2668091AE048093AA04E401C61578
:102A5000D70544F4812F0E94C2668091AE04809312
:102A6000AA04E301CE15DF05C9F0209739F4812FC0
:102A70000E94B3668091AB048093AA04452821F09C
:102A8000F501D183C08302C0F501C0838C2D837012
:102A90000E94955B81E08093B00403C01092B00463
:102AA00080E0DF91CF911F910F91FF90EF90DF9029
:102AB000CF90BF90AF909F908F907F906F905F90DE
:102AC0004F900895E7019DCF0F93DF93CF930F921F
:102AD000CDB7DEB76983552747FD5095332727FDCE
:102AE0003095BE016F5F7F4F09E00E948B14898192
:102AF0000F90CF91DF910F9108950F93DF93CF93B4
:102B00000F92CDB7DEB76983552747FD5095332720
:102B100027FD3095BE016F5F7F4F01E00E948B144F
:102B200089810F90CF91DF910F9108950F93DF93DB
:102B3000CF930F92CDB7DEB76983552747FD5095E8
:102B4000332727FD3095BE016F5F7F4F0AE00E945B
:102B50008B1489810F90CF91DF910F9108950F937E
:102B6000DF93CF930F92CDB7DEB76983552747FD2B
:102B70005095332727FD3095BE016F5F7F4F02E0F0
:102B80000E948B1489810F90CF91DF910F9108954E
:102B90000F931F938C010E94826582E260E04CE5F6
:102BA00055E020E80E94466380E068E1A8010E94A9
:102BB00077630E9459658091D4010E944F651F91EF
:102BC0000F910895EF92FF920F931F93DF93CF938E
:102BD0000F92CDB7DEB7982FF62E142FE22E442396
:102BE00029F0463139F04A3E81F408C08A5F40E856
:102BF00056E007C08A5F4CE756E003C08A5F48E7AB
:102C000056E02E2D0E94466326C0441F4427441FD1
:102C1000405E00E099830E945A629981292F2A5FC1
:102C2000412F552747FD509557FF03C050954195BB
:102C30005F4F842F992787FD90950197AC01440F32
:102C4000551F480F591F485C594F822F6F2D23E0A5
:102C50000E2D0E940F630F90CF91DF911F910F9166
:102C6000FF90EF900895DF92EF92FF920F931F93E2
:102C7000F82EE62ED42E10910C02812F992787FD75
:102C8000909597FF03C0909581959F4F80319CF45C
:102C900043E08402A0011124495F594F8F2D6E2D0E
:102CA00023E00D2D0E940F631F3F54F58F2D86509A
:102CB0006E2D41E221C0853274F411161CF4412FAF
:102CC0004F5002C0412F415F8F2D86506E2D2D2D0C
:102CD0000E94E21515C011161CF4412F445202C087
:102CE000412F4C5D8F2D86506E2D2D2D0E94E215AB
:102CF0008F2D8E5E6E2D4DE62D2D00E00E945A62C6
:102D00001F910F91FF90EF90DF9008950F93022F86
:102D100050E0440F551F440F551F4C57594F24E0A6
:102D20000E940F630F9108950F93022F442319F40B
:102D30004AEB57E01EC0242F30E04150443090F45D
:102D40004091EA0150E0440F551F440F551F415078
:102D50005040420F531F440F551F440F551F4154FD
:102D60005B4F07C0220F331F220F331F2351394FF0
:102D7000A90124E00E940F630F91089586B3809506
:102D80008E77E1F70E94A8650895FF920F931F9335
:102D90008C01F62E0E94826582E260E046E555E0F5
:102DA00020E80E94466380E068E1A8010E94776302
:102DB0008CE168E348E455E00E9477630E9459651E
:102DC000FF2011F089E102C08091D4010E944F657B
:102DD0008091AF048093AA040E94BE1686B38095AA
:102DE0008E7791F48091D70160E040E00E9422113B
:102DF000882331F48091EE01882311F4FF2011F033
:102E0000C79AECCFC798EACF1F910F91FF90089512
:102E10009C018091A904E82FEF5FE093A904E530BD
:102E200040F08093A90481E295E060E00E94C5161D
:102E300008958091AB048093AA04F0E0EE0FFF1F89
:102E4000E156FB4F318320838FEBF90109950895FB
:102E5000E091A904EE2319F4882329F416C08823ED
:102E600011F4E15001C0E0E0E093A9048091AB04CB
:102E70008093AA04F0E0EE0FFF1FE156FB4F019094
:102E8000F081E02D8EEB0995089584E395E060E0F4
:102E90000E94C51608958091E90187FD07C08873D7
:102EA00029F48BEA95E060E00E94C51608958091B0
:102EB000E90182FD0AC00E94785E883C910528F4F1
:102EC00088EF95E060E00E94C51608950F931F9368
:102ED000CF93DF9386B380958E7721E030E0682F23
:102EE00070E0422FCB01022E02C0959587950A947F
:102EF000E2F780FD06C04F5F2F5F3F4F283031055E
:102F000081F7042F01500630B8F5802F0E94185C1D
:102F1000882391F10093D301802F60E00E946C5DC3
:102F200081E00E94955B0E94826586E160E044E654
:102F300055E020E80E944663C1E0D2E01AE0812F0C
:102F400068E1499120E800E00E945A62155F183755
:102F5000B1F70E9459658091D4010E944F6580911C
:102F6000D701882321F48091EE01882311F0C79ABC
:102F700001C0C7980E94BE16DF91CF911F910F919B
:102F800008951F938091E90181FD4BC00E948265E5
:102F900082E260E045EA55E020E80E94466380E076
:102FA00060E244E955E00E94776380E068E242E82D
:102FB00055E00E94776380E060E34CE655E00E94B4
:102FC00077630E9459658091D4010E944F650E94E9
:102FD000BE161EE00BC0113141F0812F8D5060E014
:102FE00040E00E942211882329F41F5F163198F3D4
:102FF0001631B9F086B380958E7799F406C080912A
:10300000EE01882359F0C79A0AC08091D70160E089
:1030100040E00E9422118823B1F7F1CFC7981EE04B
:10302000DCCF1F9108950F931F93CF93DF9380916F
:10303000E90180FD77C08091EA0190E08170907095
:10304000C2E0D0E0C81BD90BFE01EE0FFF1FEA550E
:10305000FE4F2785308901811281005F1F4FC90112
:1030600068E070E00E94C66F060F171F021B130B6B
:103070000E940F0FEC2FF0E0E050FB4F8491C82F1F
:10308000D0E0CC0FDD1FCC50DB4F88819981081731
:1030900019070CF047C086B380958E7709F042C0BF
:1030A00012C00E940F0F8881998108171907D4F563
:1030B00086B380958E77B1F52AC08091EE01882382
:1030C00079F1C79AEECF0E94826582E260E042EF1A
:1030D00055E020E80E94466380E060E240EE55E063
:1030E0000E94776380E068E241ED55E00E947763DB
:1030F00080E060E34BEB55E00E9477630E945965E6
:103100008091D4010E944F650E94BE16CACF809163
:10311000D70160E040E00E942211882391F6CDCFD4
:10312000C798BFCFDF91CF911F910F9108950F9353
:103130001F93CF93DF938091EC0184FD89C0809130
:10314000D70160E040E00E942211882329F4809199
:10315000EE01882309F46FC0C79A0E94826580E05F
:1031600060E04CEB50E020E000E00E94FD6180E078
:1031700068E347EF51E02AE000E10E940F630E94FC
:1031800059658091D4010E944F650E94BE1600E0EF
:103190000E94360E0F5F0032D9F720E035E000E0E4
:1031A00010E0F9018491E82FF0E0EE0FFF1FEC50E2
:1031B000FB4F80819181892F9927080F191F2F5F5D
:1031C0003F4FF5E024303F0761F7C0915B0FD0918E
:1031D0005C0FC057DE4F27C00E94360E20E035E05E
:1031E00040E050E0F9018491E82FF0E0EE0FFF1F7E
:1031F000EC50FB4F80819181892F9927480F591FEF
:103200002F5F3F4FF5E024303F0761F786B380958D
:103210008E77F1F440175107D9F40FC08091EE0179
:103220008823A1F0C79A80915B0F90915C0FC8171B
:10323000D90791F60DC0C79890CF8091D70160E073
:1032400040E00E942211882369F7E8CFC798EBCFAE
:10325000DF91CF911F910F910895EF92FF920F93FD
:103260001F93CF93DF939FEF9ABB1BBA81E887BB75
:103270008EE788BB8EE384BB81EC85BB11BA92BB21
:1032800088E082B987EF83B9109261009093620061
:1032900080E180936400909365000E9414650E9411
:1032A000B96C80E487B985E886B987E083BF8CE98B
:1032B00081BF87B7836087BF1FBC8AE08EBD109235
:1032C0008B0082E880938A0080917D0080628093E9
:1032D0007D00789488EC9BE29093A00480939F04F7
:1032E00089E10E944F650E94A25D1091D3010E9466
:1032F00066170E9497180E9457170E940F0F0E948E
:1033000013180E94C1170E944B170E94BE160E94FC
:10331000691E2DE088E190E00FB6F894A89581BD74
:103320000FBE21BD8BE695E060E00E94E8208FE3B0
:1033300093E40E94081781E00E9428178091D4012D
:103340000E944F658091EE0190E024EF31E0AC01E6
:10335000429FC001439F900D529F900D1124909366
:10336000B8048093B7048091D301181719F081E055
:103370000E94955B87B7806187BFF090ED04E2B64D
:103380008091ED04F816C9F7E091ED01F0E0EE0F41
:10339000FF1FE050FF4F0190F081E02D09950E9442
:1033A00078138091EC04833019F4A8951092EC0402
:1033B0002091ED0432B78091ED042817C9F71F2D35
:1033C00000E08E2D90E0802B912BD22FC0E0232F98
:1033D00030E02C2B3D2B40913D0750913E07281BA0
:1033E000390B2417350708F49A0130933E072093D0
:1033F0003D07C3CFEF92FF920F931F93182FF62E26
:10340000E22E442329F4885E46E500E00E945A62D9
:103410004091B504812F885E6F2D50E02E2D0E94C3
:1034200063641F910F91FF90EF900895DF92EF92E8
:10343000FF920F931F93CF93DF93F82EE62EEA01AE
:10344000122FD02E57FD02C040E201C04DE28F2D59
:103450006E2D212F00E00E945A6217FD02C081E10B
:1034600001C089E1F80E17FF06C08F2D8D5F6E2D0C
:103470004AE3212F04C08F2D6E2D4AE320E000E0A7
:103480000E945A62D7FF03C0D095C195DF4FCE018D
:103490006CE370E00E94C66FAB01212F2C5F8F2D73
:1034A0006E2D02E00E94C46317FD02C022E101C03C
:1034B00028E1CE016CE370E00E94C66FAC0184E0AD
:1034C000D80E822F8F0D6E2D2D2D02E00E94C46329
:1034D000DF91CF911F910F91FF90EF90DF900895B2
:1034E000482F282F87FD2D5F25952595332727FD0C
:1034F00030958AE04802C0011124280F391F842F1B
:1035000047FD815C86FB880F880B80F9992787FD32
:103510009095281B390BC90108956F927F928F9265
:103520009F92AF92BF92CF92DF92EF92FF920F9352
:103530001F933B017C0100E010E08824992464E69D
:1035400070E080E090E06619770988099909A80180
:1035500097010E94876F5B016C0182E390E0A0E01D
:10356000B0E0A80EB91ECA1EDB1EC801B7010E943A
:10357000876F0E94876FBC0188279927A401930158
:103580000E94876F24E096958795779567952A9591
:10359000D1F7A60EB71EC81ED91EC601B50124E676
:1035A00030E040E050E00E94D96FC9011F910F91B7
:1035B000FF90EF90DF90CF90BF90AF909F908F9053
:1035C0007F906F900895FF920F931F939C01AB0122
:1035D0006115710531F1FF2497FF05C0FF24F394B5
:1035E000309521953F4F57FF10C000E014E066274B
:1035F0007727641B750BC801821B930B0E948D1AE1
:103600009801281B390BC90104C0C901BA010E94E5
:103610008D1AFF2011F49C0104C022273327281B98
:10362000390BC9011F910F91FF900895282FEAE7E8
:10363000FDE080E09491921731F03196992311F0DA
:103640008F5FF8CF80E00895823410F080E2089513
:10365000E82FF0E0E658F24F849108951092BC06EE
:103660001092B5061092B4061092B9061092B806E0
:103670001092B7061092B6061092BB061092BA06C8
:103680008091AB048093AA040895AF92BF92CF9229
:10369000DF92EF92FF920F931F93CF93DF935B0123
:1036A0006C0100E010E8C0E0D0E8EE24FF249E01A9
:1036B00040E050E0CA01B9010E94876FA616B70624
:1036C000C806D90610F4C027D12716950795089487
:1036D000E11CF11C80E1E816F10461F4CE01DF91F8
:1036E000CF911F910F91FF90EF90DF90CF90BF90FF
:1036F000AF900895C02BD12BDACF9C0140E0683009
:1037000008F041E070E0442371F0CB010897FC0120
:1037100063E0EE0FFF1F6A95E1F7E80FF91FDF0185
:10372000A15FBB4F0AC0FB01EE0FFF1FEE0FFF1F93
:10373000E60FF71FDF01A951BC4FFD01808120502A
:103740003C4F37FD0EC068E02030360784F044233C
:1037500019F484E090E002C088E090E0A80FB91F5F
:103760008C91992787FD9095582F442733C0442387
:1037700031F0432FB9017070660F771F04C0432FDB
:103780004695B9017170842F90E0FD01E80FF91F93
:103790008181992787FD90959B0135952795829F7B
:1037A000A001839F500D929F500D1124208133273B
:1037B00027FD309580E092E0861B970B95958795C5
:1037C000BC01269FC001279F900D369F900D1124AC
:1037D000480F591FCA0169E170E00E94C66FCB0112
:1037E00008958F929F92AF92BF92DF92EF92FF92D5
:1037F0000F931F93CF93DF938091170281FD04C035
:10380000E12C94E0F92E03C0E12C85E0F82E109114
:103810001102110F185F9091140284E69802C00102
:103820001124EC01C85ADD4F1A3028F448EC5FEA45
:103830004C1B5D0B0DC08853904F212F30E0829FB1
:10384000A001839F500D929F500D1124405C504E5B
:10385000EBE6F5E0AFE3B7E0612F70E0660F771FAE
:103860006E0F7F1FAA24BB24AE18BF08882499249A
:103870008C1A9D0A22C020813181C701DE2C092FBC
:103880002E153F051CF4C901D22E092F8D2D902F26
:103890008A159B050CF4C5019C01205A364FC401C2
:1038A000821B930B480F591F1196DC93CE931396EE
:1038B0003C932E93129732961496E617F707D9F693
:1038C000E12FEE0FAE2FB0E0AA0FBB1FA15CB84FE7
:1038D000CD93DC93EF5FAE2FB0E0AA0FBB1FA15CCE
:1038E000B84F4D935C93EF5FF0E0EE0FFF1FE15C8C
:1038F000F84F11821082DF91CF911F910F91FF90AD
:10390000EF90DF90BF90AF909F908F900895A0911F
:103910009E09B0919F09FD018193919313967C9329
:103920006E9312973296F0939F09E0939E09089543
:10393000882329F020E639E080E699E004C020EBF6
:1039400034E080EB94E0A0919E09B0919F09FD01C5
:103950008193919313963C932E9312973296F09302
:103960009F09E0939E0908951F93182F82700E946B
:10397000981C812F81700E94981C1F910895CF92EE
:10398000DF92FF920F931F93DF93CF9300D0CDB7B9
:10399000DEB780911002813019F0823019F404C032
:1039A00010E003C011E001C012E020916B053091DE
:1039B0006C0520503C4F220F331F80916D05909174
:1039C0006E0580509C4F880F991F892F232F37FD3C
:1039D00020E087FD80E0022F20310CF00FE0F82E70
:1039E0002FE0281714F45FE0F52E2F2D332727FD45
:1039F0003095802F992787FD909509968217930718
:103A000014F40F2D0950C02EDD24C7FCD094275F7D
:103A10003F4F2C153D051CF447EFF42EF00E80E7C8
:103A200097E19093400780933F0780EB94E0909359
:103A300042078093410783E497E090939F09809326
:103A40009E0980E00E94B41CA0919E09B0919F093C
:103A500080E699E0FD018193919320EB34E0139689
:103A60003C932E931297DF011296938382831396D1
:103A70003C932E9312971496B0939F09A0939E099E
:103A8000812F0E94B41C1195C60195958795959537
:103A900087958A830E94B41C3A81131B802F0E9451
:103AA000B41C101B8F2D992787FD909595958795B0
:103AB0009595879589830E94B41C8981181B8F2D49
:103AC0000E94B41C812F8F190E94B41C80E00E94B8
:103AD000981CE0919E09F0919F0980E69AEE9293DE
:103AE0008293329611921192F0939F09E0939E096E
:103AF0000F900F90CF91DF911F910F91FF90DF906A
:103B0000CF900895A0919E09B0919F09882341F01C
:103B1000FD0180E293E08193919380E496E007C0F9
:103B2000FD0180E496E08193919380E293E0139607
:103B30009C938E9312973296F0939F09E0939E097F
:103B400008950F931F93082F10E0802F81700E941B
:103B5000821D1F5F06951830C1F71F910F910895C0
:103B60000F931F938FE397E090939F0980939E0993
:103B70008091A00991E089278093A009882309F406
:103B800054C080916B0590916C05885F9B4F34E029
:103B9000969587953A95E1F78038910510F08FE773
:103BA00090E0182F20916D0530916E0537FD0FC004
:103BB000C901409625E0969587952A95E1F78034CE
:103BC000910510F08FE390E0082F00640FC080E1B2
:103BD00090E0821B930B05E0969587950A95E1F797
:103BE0008034910510F08FE390E0082F812F0E9420
:103BF000A11D802F0E94A11D0127802F90E09C0114
:103C000014E0359527951A95E1F7B4E0880F991FD0
:103C1000BA95E1F7822B0E94A11DA0919E09B09157
:103C20009F09FD0180E197E230C080916F0590917E
:103C3000700580509C4FA4E096958795AA95E1F772
:103C40008038910510F08FE790E0082F0068802FF2
:103C50000E94A11D8EE80E94A11D8EE8082710E099
:103C6000C801F4E095958795FA95E1F7E4E0000F37
:103C7000111FEA95E1F7802B0E94A11DA0919E09DA
:103C8000B0919F09FD0180EB96E38193919380EAC7
:103C90009FE013969C938E9312973296F0939F0910
:103CA000E0939E09E0919E09F0919F091192119273
:103CB000F0939F09E0939E09EF53F740E03FF10531
:103CC0002CF08EE698E060E00E94C5161F910F91DF
:103CD000089580911002843018F4813038F403C0C4
:103CE000843049F406C00E94F11B08950E94BF1C55
:103CF00008950E94B01D0895FF920F931F93CF93D4
:103D0000DF93082F10910C02812F992787FD909542
:103D100097FF03C0909581959F4FF82E24E22817B6
:103D20000CF03FC02091B3093091B4098091B109E2
:103D30009091B209282B392B8091B5099091B60941
:103D4000282B392B8091B00990E0282B392B8091BA
:103D5000AD0990E0282B392B232B39F41092AD09B3
:103D600017FF03C081E08093AD0911161CF4812F69
:103D7000845202C0812F8C5D60E040E00E942211DD
:103D8000282F882361F08091AD09882341F490E0C9
:103D90008091B009882309F491E09093B0092093B1
:103DA000AD09C091B309D091B4092196D093B4095B
:103DB000C093B309E091B109F091B209E00FF11D90
:103DC000F093B209E093B10980915B0F90915C0F81
:103DD0002091B5093091B609821B930B8436910569
:103DE00008F441C12C593F4F3093B6092093B509CF
:103DF000CF01BE010E94B26F062F862F90E0AC016A
:103E00004C9FC0014D9F900D5C9F900D1124E81BAD
:103E1000F90BF093B209E093B1091092B409109232
:103E2000B3095FE05F151CF01092B00910C084E286
:103E30008F156CF011161CF4812F8F5002C0812F4A
:103E4000815F60E040E00E9422118093B009809180
:103E5000B2069091B30601969093B3068093B20692
:103E60006091B4067091B5066F5F7F4F7093B50691
:103E70006093B406002349F08091B8069091B9068A
:103E800001969093B9068093B8068091B009882373
:103E900049F08091B6069091B70601969093B706C7
:103EA0008093B60606954091BA065091BB06400F26
:103EB000511D5093BB064093BA06E0910E02F0915B
:103EC0000F02F093BE06E093BD0630910C02832FE3
:103ED000992787FD909597FF03C0909581959F4FF7
:103EE000882319F41092BC0622C0813021F4CF013E
:103EF000861B970B18C0803170F480FF07C0CA0181
:103F000044E0969587954A95E1F709C08091B806F7
:103F10009091B90604C08091B6069091B706AF01A2
:103F2000481B590BCA019093BE068093BD06809131
:103F3000BC06813041F0813018F08230F1F40EC0BF
:103F40003323D9F017C08091BD069091BE06181694
:103F500019069CF0309789F082E00DC08091BD0673
:103F60009091BE06855C9F4F1CF483E08093BC0655
:103F7000309719F481E08093BC062091BD06309102
:103F8000BE068091AE099091AF098217930709F49C
:103F90005CC08091BC06813009F047C04091EC01C3
:103FA00042FF2BC0309749F12E31310511F482E0E8
:103FB00003C02431310519F48093EE0406C02A3081
:103FC000310519F02430310524F48091AD0480933B
:103FD000AA0443FF12C02E31310549F024313105C6
:103FE00031F02A30310519F02430310534F482E300
:103FF00090E09093B8048093B70441FF26C080916D
:104000000D02882321F0CF01821B930B01C0C9014F
:104010006CE370E00E94B26F892BB9F48091AD041B
:104020008093AA0443FF11C00AC0823071F48091CA
:10403000AE048093AA048091EC0183FF06C082E362
:1040400090E09093B8048093B7043093AF09209325
:10405000AE0980910D02882331F0E21BF30BF0933F
:10406000BE06E093BD06DF91CF911F910F91FF90A7
:10407000089530910C02832F992787FD909597FF23
:1040800003C0909581959F4F282F82308CF180310D
:104090007CF585952A308CF4E091EA01F0E0EE0F92
:1040A000FF1FEE0FFF1F992787FD9095E80FF91F5F
:1040B000E058F74FE491F0E004C0E82FFF27E7FD58
:1040C000F0953197EE0FFF1FE65CFA4F80819181EA
:1040D00037FF05C020E034E0281B390B03C09C01EA
:1040E00020503C4F86E0369527958A95E1F702C02F
:1040F00020E030E0822F0E947C1EE091EA01F0E097
:10410000EE0FFF1FEE0FFF1FED57F74FE491F0E0AA
:10411000EE0FFF1FE85CFA4F4081518140505C4F29
:104120006091A9097091AA096F5F7F4F7093AA09E6
:104130006093A909E6E056954795EA95E1F78091E5
:10414000A7099091A809480F591F5093A8094093B7
:10415000A70980915B0F90915C0F2091AB09309182
:10416000AC09821B930B885E934088F180915B0FB2
:1041700090915C0F9093AC098093AB091092A809C1
:104180001092A7091092AA091092A90980913907E3
:1041900090913A07019690933A07809339072091BE
:1041A000370730913807F901E154F94FCA010E94ED
:1041B000B26F60832F5F3F4F3093380720933707EC
:1041C0002837310520F010923807109237070895EC
:1041D0002F923F924F925F926F927F928F929F9217
:1041E000AF92BF92CF92DF92EF92FF920F931F9305
:1041F000DF93CF93CDB7DEB76B970FB6F894DEBFE2
:104200000FBECDBF9A8F898F6B8F8091B6048823A4
:1042100009F477C080916A05882319F08150809352
:104220006A058091EB01882309F46BC08091B50485
:10423000823308F466C08091B7089091B808A091C5
:10424000B908B091BA080196A11DB11D8093B708B5
:104250009093B808A093B908B093BA08EFE2F8E0D9
:1042600020E030E08191919160E870E00E94C66F9B
:10427000260F371F48E0E733F407A1F78091BB080A
:104280009091BC082817390761F03093BC0820933F
:10429000BB081092B7081092B8081092B908109293
:1042A000BA08E090B708F090B8080091B9081091EA
:1042B000BA086091EB01772767FD7095665F7F4FC5
:1042C000882777FD8095982F20E737E140E050E080
:1042D0000E94876F6E157F058007910790F46FE34A
:1042E00070E080E090E0E622F722082319237AE0CC
:1042F000E716F1040105110521F48091AE048093C5
:10430000AA0490901902992009F467C08091EA01EB
:1043100090E0FC01E170F0703196EE0FFF1FE65C5B
:10432000FA4F0190F081E02D9C012270307081FDE8
:1043300003C0A3E0B0E002C0A0E0B0E0AA0FBB1F42
:10434000A65CBA4FCD90DC90232B19F4A3E0B0E02B
:1043500002C0A0E0B0E07F010027F7FC0095102F1D
:10436000AA0FBB1FA65CBA4F6D917C91882777FD81
:104370008095982F9601442737FD4095542F0E9431
:10438000876F5B016C01C801B701A80197010E940A
:10439000876FA60EB71EC81ED91E692D70E080E07B
:1043A00090E02AE0660F771F881F991F2A95D1F7A2
:1043B00024E630E040E050E00E94FB6FB901CA0102
:1043C0000E94876F6A157B058C059D0530F4C60138
:1043D000B5010E94451B1C0102C022243324B101F7
:1043E00080E090E024E630E040E050E00E94876FFB
:1043F0006D8B7E8B8F8B988F07EA602E01E0702E7D
:1044000017EB412E13E0512E1C8AEE24FF24882442
:104410009924DE2C8E2D0E94280E9C01D3018D91B3
:104420009C911197281B390B121613062CF45C96DD
:10443000ED91FC915D9705C0D3011E96ED91FC9125
:104440001F97E436F10514F4E4E6F0E0B90188279B
:1044500077FD8095982FBAE0660F771F881F991F08
:10446000BA95D1F79F01442737FD4095542F0E94FC
:10447000FB6F8901BCEF21303B071CF400E01CEF0F
:1044800006C0E4E020303E0714F000E014E0F40140
:10449000E65CFA4F11830083C8010F964F9738F5F9
:1044A000F4E0EF16F104C4F4E091EA01F0E0EE0F5D
:1044B000FF1FEE0FFF1FEE0DFF1DEF57F74FE491AB
:1044C0008E2F90E0019721E030E002C0220F331FD1
:1044D0008A95E2F7C90108C081E090E00E2C02C085
:1044E000880F991F0A94E2F73C89382B3C8B43E0F4
:1044F0004D1508F41FC12114310479F18091EA01AE
:10450000282F30E0C901817090700196E816F906F5
:1045100051F021FD03C083E090E002C080E090E014
:10452000E816F906D1F46091190270E080E090E09D
:10453000EAE0660F771F881F991FEA95D1F7980167
:10454000442737FD4095542F0E94876F2D893E895F
:104550004F89588D0E94FB6F8901D2018C9160E0D8
:1045600040E00E942211882311F4CC240DC0F201F6
:10457000818160E040E00E942211882319F052E01E
:10458000C52E02C0CC24C3948091EA0190E08170D2
:10459000907042E0A42EB12CA81AB90AAE14BF0440
:1045A00061F580911202807F41F1C80180509C4FDB
:1045B00062E070E00E94C66FCB01EC2DF0E0EE0FE0
:1045C000FF1FEE0FFF1FA701440F551F9A0103E0C5
:1045D000220F331F0A95E1F7241B350BE20FF31F5F
:1045E000E555FC4F6081772767FD70950E94E31ABF
:1045F000DC01AA0FBB1FDD2427C0DD241016110625
:1046000014F0DD24D3948C2D90E09701220F331FFA
:10461000F901A3E0EE0FFF1FAA95E1F7E21BF30BF0
:10462000880F991F880F991FE80FF91FEF5FFD4F43
:10463000ED0DF11DE655FE4F6081772767FD709502
:10464000C8010E94E31ADC01EC2DF0E0EE0FFF1F21
:10465000EE0FFF1F9701220F331FC90143E0880FA0
:10466000991F4A95E1F7821B930BE80FF91FEF5F43
:10467000FD4FED0DF11DE455FE4F6081772767FD7D
:1046800070956C597F4F882777FD8095982F9D01F5
:10469000442737FD4095542F0E94876F24E630E071
:1046A00040E050E00E94FB6F8901AE14BF0481F529
:1046B00090911202892F807F09F44FC70050144057
:1046C0004CC760E074E0601B710B882777FD809514
:1046D000982FF501ED51FC4F2081332727FD3095B0
:1046E000432F532F23583F4F4F4F5F4F0E94876FE9
:1046F00020E038E040E050E00E94FB6FC901DA01A1
:104700008030F8E09F07F0E0AF07F0E0BF0741F42A
:10471000F701ED51FC4F8081282F332727FD30957D
:10472000220F331FE1E0F0E0EC0FFD1FE80DF91D53
:1047300031832083F401E15DF74F118300830894F6
:10474000E11CF11C22E030E0620E731E820E931E0B
:104750004EE050E0440E551E57E0E516F10409F016
:1047600058CE409116026C894623242F30E0809168
:10477000BD0890E08227932782239323892B21F081
:104780008091AC048093AA044093BD0880E094E03B
:1047900090933E0880933D089093400880933F0893
:1047A00067E478E040E050E0FA01E552FB4FDA01BF
:1047B000AA55BE4F80819181D2962D913C91D3977D
:1047C000821B930BDB018D939D93BD014E5F5F4F69
:1047D0004031510549F7E7E7F8E0FA87E987A7E5AF
:1047E000B8E0808191818D939D93349628E0E73BDA
:1047F000F207B9F790901902992009F4C8C0809186
:10480000EA0190E0FC01E170F0703196EE0FFF1FBD
:10481000E15DF74F0190F081E02D9C012270307036
:1048200081FD03C0A3E0B0E002C0A0E0B0E0AA0FA9
:10483000BB1FA15DB74FCD90DC90232B19F4A3E0F3
:10484000B0E002C0A0E0B0E07F010027F7FC0095D7
:10485000102FAA0FBB1FA15DB74F6D917C918827C8
:1048600077FD8095982F9601442737FD4095542F6A
:104870000E94876F5B016C01C801B701A801970115
:104880000E94876FA60EB71EC81ED91E692D70E044
:1048900080E090E0EAE0660F771F881F991FEA9595
:1048A000D1F724E630E040E050E00E94FB6FB90110
:1048B000CA010E94876F6A157B058C059D0508F06B
:1048C00066C0C601B5010E94451BE090EA01FF24C5
:1048D0008701017010700F5F1F4FA0E0B0E0BC01B6
:1048E000CD0124E630E040E050E00E94876F5B019C
:1048F0006C01000F111F015D174F6091190270E0EC
:1049000080E090E05AE0660F771F881F991F5A9544
:10491000D1F7D8012D913C91442737FD4095542F74
:104920000E94876FA60195010E94FB6FF8013183F9
:104930002083E1FC05C0E3E0F0E003E010E004C008
:10494000E0E0F0E000E010E0000F111F015D174F04
:104950006091190270E080E090E03AE0660F771F06
:10496000881F991F3A95D1F7EE0FFF1FE15DF74FB2
:1049700020813181442737FD4095542F0E94876F55
:10498000A60195010E94FB6FD8012D933C934091A5
:104990001702842F807E09F4EFC02091EA0130E0F5
:1049A000F901E170F0703196EE0FFF1FDE01AE0FDE
:1049B000BF1FE15DF74F1196CD90DC90129780817B
:1049C0009181C80ED91EC9018270907021FD03C06B
:1049D000E3E0F0E002C0E0E0F0E0EE0FFF1FE15D99
:1049E000F74F20813181892B19F4E3E0F0E002C018
:1049F000E0E0F0E0EE0FFF1FEC0FFD1F01811281E0
:104A0000020F131FE0911802EE2319F4EE24FF2485
:104A100007C0F0E0EE0FFF1FE35DF74FE080F1808D
:104A200042FF04C0D094C194D108D39443FF03C083
:104A3000109501951F4F44FF04C0F094E194F108D4
:104A4000F3948091170282958695877090E082306A
:104A5000910589F18330910524F4019709F08CC008
:104A600008C08330910509F45BC0049709F084C045
:104A70006FC0C80160E072E00E94C66FFB01C80110
:104A800068E070E00E94C66F9B01C80160E870E0BA
:104A90000E94C66FA801421B530B9A01261B370BBD
:104AA0002E1B3F0BC7018C199D09909342088093E0
:104AB0004108C60121C0C60160E072E00E94C66FD5
:104AC000FB01C60168E070E00E94C66F9B01C60151
:104AD00060E870E00E94C66FC601821B930B9C01C8
:104AE000261B370B2E1B3F0BC701801B910B90938E
:104AF000420880934108C80162E070E00E94C66FDE
:104B00006E0D7F1DCB01820F931F909344088093FD
:104B10004308621B730B70934608609345082CC0D2
:104B2000C7018C199D099093420880934108C701E1
:104B30008C0D9D1D9C01200F311F30934408209344
:104B40004308801B910B909346088093450814C03E
:104B5000C7018C199D099093420880934108C701B1
:104B6000800F911F9093440880934308E01AF10A44
:104B7000F0924608E09245088091B604882311F02F
:104B80000E94392080E4E7E7F8E0DF011D928A9572
:104B9000E9F7BB8DBB23F9F0AFE2B8E0FE01319637
:104BA00020E030E042E050E08091EA0190E0817046
:104BB0009070BA01681B790B6217730729F0119680
:104BC0001C921E92118210822F5F3F4F12963296D6
:104BD0002430310549F7FBE1AF2EF2E0BF2E8EE71E
:104BE00099E09E878D87EEEF6E2EE8E07E2EAEEB8D
:104BF000B8E0BC87AB871B8A44245524042D342C91
:104C0000252CF50180818150803108F047C38381D4
:104C100061E040E00E942211AD85BE859C91882311
:104C200021F5192F1C92F5012181822F88508230A5
:104C300008F019C3C201FC0173E0EE0FFF1F7A9563
:104C4000E1F7880F991FE80FF91FE55EFD4F878197
:104C50008E70843009F407C3293019F0CC24DD2488
:104C600053C0C12C5CEFD52E4FC010E0992309F43E
:104C700011E081E0AD85BE858C93F5018181815085
:104C8000A82FB0E0FD01EE0FFF1FE15DF74FC080E0
:104C9000D180843150F0801740F4AA0FBB1FAA0FB7
:104CA000BB1FA958B74FCD90DC90832D922DFC01EE
:104CB00023E0EE0FFF1F2A95E1F7880F991FE80FF9
:104CC000F91FE55EFD4F8781807FF1F0832D922DE6
:104CD000FC01B3E0EE0FFF1FBA95E1F7880F991FB3
:104CE000E80FF91FEE5DFD4F808182958F7090E097
:104CF000019721E030E002C0220F331F8A95E2F7CE
:104D0000C9013B89382B3B8BD50118968C918823A0
:104D100021F00E94701AC80ED91E832D922DFC011D
:104D200073E0EE0FFF1F7A95E1F7880F991FE80FE8
:104D3000F91FE55EFD4F8681882391F4832D922D26
:104D4000FC0153E0EE0FFF1F5A95E1F7880F991F02
:104D5000E80FF91FE55EFD4F8581882309F49AC1AC
:104D6000F3016081718182819381112389F420E0B4
:104D700031E040E050E00E94FB6F50954095309547
:104D800021953F4F4F4F5F4F4601820E931E85C0C6
:104D9000832D922DFC0133E0EE0FFF1F3A95E1F7D2
:104DA000880F991FE80FF91FE55EFD4F87818E7010
:104DB000843049F5D501EC91F0E0EE0FFF1FEB5A7E
:104DC000F74F60817181882777FD8095982F20E0CB
:104DD00034E640E050E00E94876FF3016083718306
:104DE00082839383D50112962C91222361F033277D
:104DF00027FD3095432F532F0E94FB6FF301208333
:104E0000318342835383D3016D917D918D919C9128
:104E100020E031E040E050E00E94FB6F509540956B
:104E2000309521953F4F4F4F5F4F4601820E931EA5
:104E30008114910491F197FE10C0832D922DFC01F5
:104E400013E0EE0FFF1F1A95E1F7880F991FE80F87
:104E5000F91FE05EFD4F808110C0832D922DFC0173
:104E6000A3E0EE0FFF1FAA95E1F7880F991FE80F47
:104E7000F91FE05EFD4F808182958F7090E0FC010C
:104E800024E630E0E29FC001E39F900DF29F900D79
:104E90001124AB85BC858D939C93EB85FC8520818B
:104EA00031812115310551F08091B604882309F430
:104EB000E5C02150304031832083E0C0811491044B
:104EC00009F4E8C0832D922DFC0163E0EE0FFF1F73
:104ED0006A95E1F7880F991FE80FF91FE55EFD4F0E
:104EE0008681882309F4D6C08091B604882309F40A
:104EF00093C0F5012281222339F4E12CF12C40E208
:104F0000042F43E0142F17C0332727FD309537FFB8
:104F100003C0309521953F4F332727FD3095432F10
:104F2000532F60E070E080E293E00E94FB6FC901C4
:104F3000DA017C018D01181419048CF5832D922D52
:104F4000FC0133E0EE0FFF1F3A95E1F7880F991F40
:104F5000E80FF91FEF5DFD4F80818F7090E00097A3
:104F600009F44CC044E650E0849F9001859F300DC9
:104F7000949F300D1124442737FD4095542FC801CC
:104F8000B7010E94FB6F79018A01F3018081918151
:104F9000A281B381E80EF91E0A1F1B1F38C0832DA2
:104FA000922DFC01B3E0EE0FFF1FBA95E1F7880FD9
:104FB000991FE80FF91FEF5DFD4F808182958F707B
:104FC00090E00097D9F044E650E0849F9001859FDF
:104FD000300D949F300D1124442737FD4095542FF8
:104FE000C801B7010E94FB6FD301ED90FD900D91B8
:104FF0001C91E21AF30A040B150B09C0C601AA277B
:1050000097FDA095BA2FEE24F82E092F1A2FF30141
:10501000E082F18202831383D3016D917D918D91A2
:105020009C9176010027F7FC0095102F18141904A5
:1050300064F420E031E040E050E00E94FB6FE216B3
:10504000F3060407150764F019C020E031E040E0E2
:1050500050E00E94FB6F2E153F054007510774F486
:10506000C601AA2797FDA095BA2FBA2FA92F982F6E
:105070008827F30180839183A283B383D3016D9149
:105080007D918D919C9120E031E040E050E00E94C4
:10509000FB6F6901F5016481633071F1643028F4BC
:1050A000613051F06230A8F448C0653081F165305C
:1050B00050F16630B1F52EC0D50111968C91893032
:1050C00029F4D7FC2AC0E0E0FEEF0DC0D7FE35C0C2
:1050D0002EC0D50111968C91893051F41C141D04F9
:1050E0004CF1E0E0F2E0CE0EDF1ECC0CDD1C25C062
:1050F0001C141D04E4F021C0D7FE1FC0D094C1943D
:10510000D108D3941AC01C141D04A4F010C0D7FEFB
:105110000EC003C01C141D046CF0C12C5CEFD52E16
:105120000CC06750C6010E947D1B6C0106C0CC24D8
:10513000DD2403C0C12C44E0D42E832D922DFC012C
:1051400033E0EE0FFF1F3A95E1F7880F991FE80F44
:10515000F91FE55EFD4F878180FD15C0D5011196D1
:10516000EC91EE2381F0E53070F4F0E03197EE0F32
:10517000FF1F21E030E02C0F3D1FE20FF31F808165
:105180009181C80ED91EB601882777FD8095982F8A
:10519000D50112962C91332727FD3095432F532F9D
:1051A0000E94876F6B017C01832D922DFC0113E01F
:1051B000EE0FFF1F1A95E1F7880F991FE80FF91FEF
:1051C000EE5DFD4F80818695877090E0813091057E
:1051D00081F0D501EC91029799F5F0E0EE0FFF1FF9
:1051E000EE0FFF1FED58F74FC082D182E282F382AB
:1051F0003AC0F5012081022F10E0000F111F000FAF
:10520000111F0D58174FC701B60124E630E040E0EA
:1052100050E00E94FB6FCA01B901D8012D913D9168
:105220004D915C910E94876F20E034E040E050E0B7
:105230000E94FB6FF801208331834283538313C0A4
:10524000F0E0EE0FFF1FEE0FFF1FED58F74F8081CC
:105250009181A281B3818C0D9D1DAE1DBF1D8083E8
:105260009183A283B3830894411C511C2AE030E04F
:10527000A20EB31E4D855E854F5F5F4F5E874D87E3
:1052800064E070E0660E771E8B859C8502969C8795
:105290008B8790E24916510409F0B0CC2B8920FF8E
:1052A0000AC080915B0F90915C0F882321F480915C
:1052B000AC048093AA0421FF10C080915B0F9091F1
:1052C0005C0F803431F080915B0F90915C0F8834DB
:1052D00021F48091AC048093AA0422FF16C080912F
:1052E0005B0F90915C0F803861F080915B0F909123
:1052F0005C0F883831F080915B0F90915C0F8039A2
:1053000021F48091AC048093AA046BE5262E63E01F
:10531000362EAEE7B4E0B88BAF871A8A198AE985D2
:10532000FA8580809180A280B380C501B40124E613
:1053300030E040E050E00E94FB6FA985BA852C93D5
:1053400011963C93119712964C93129713965C9377
:10535000E989FA89E85BFA4FC90120839183F10159
:10536000238134818181FAE08F023001112448EEDB
:1053700053E0640E751ED1018C918F02200111241F
:10538000E8E1FCEF4E0E5F1EC301562D492F261596
:1053900037051CF4C901522F492F852F942F8C01FA
:1053A000041515050CF4820181149104A104B104C3
:1053B00069F19801442737FD4095542F18141904BA
:1053C0001A041B0454F4B301882777FD8095982FA5
:1053D000621B730B840B950B0BC0C201AA2797FDB0
:1053E000A095BA2F281B390B4A0B5B0BCA01B901D8
:1053F000A50194010E94876F20EA36E841E050E061
:105400000E94FB6FC901DA014C015D01C80155E042
:10541000959587955A95E1F7800F911F9801232F55
:10542000330F330B2595820F931F000F012F001FA1
:10543000110B801B910B6C01EE24D7FCE094FE2C29
:10544000C30115E0959587951A95E1F7860D971D8F
:10545000A201B5E055954795BA95E1F7B201660FFF
:10546000672F661F770B440D551D9301232F330FB4
:10547000330B2595820F931F660C672C661C7708EB
:10548000861997098C01222717FD2095322FC80C09
:10549000D91CEA1CFB1C0C151D052E053F0514F438
:1054A00068017901461B570B75956795759567954A
:1054B000460F571FCA01AA2797FDA095BA2F87014B
:1054C0007601E816F9060A071B0714F47C018D0122
:1054D000D10112968C91882341F010950095F0949B
:1054E000E094E11CF11C011D111DEF85F8898081FC
:1054F000882389F060E040E00E942211882359F05F
:10550000AF85B88911968C910E94701A7C01002792
:10551000F7FC0095102FF894E98DFA8D29893A89C6
:10552000E20FF31FF182E082789449855A854C5F3F
:105530005F4F5A8749872E5F3F4F3A8B298B65E033
:1055400070E0260E371E8F8598890296988B8F877C
:10555000475B584009F0E3CE04C09F7009F0B1C822
:10556000D7C86B960FB6F894DEBF0FBECDBFCF91F4
:10557000DF911F910F91FF90EF90DF90CF90BF9040
:10558000AF909F908F907F906F905F904F903F90E3
:105590002F9008950F931F93CF93DF9386E291E0AE
:1055A000EBE8F5E0DF019C011D9221503040E1F76E
:1055B0009091B106CBE1D2E000E010E051E060E074
:1055C0004881442309F440E1041750F5202F712F3E
:1055D000352F2F5F872F90E0FC01EE0FFF1FE80FA4
:1055E000F91FEE0FFF1FDF01A557BA4F11962C933D
:1055F00011978C9181608C93E357FA4F30833F5F12
:1056000014966C937F5F241720F3802F8095042FCE
:10561000952F9F5F980F180F140F940F592F51500B
:1056200078817723D1F1812F90E09C01220F331FE5
:10563000280F391FD901AA0FBB1FA557BA4F1196C2
:105640004C93119715966C9315978C9182608C935F
:1056500013965C9313975F5F8A85F90131967817EB
:1056600041F4EE0FFF1FE557FA4F108214961C927B
:105670000AC0EE0FFF1FE557FA4F50835F5F6F5F61
:1056800014966C936150952F6F5F2A96603219F4CF
:105690005093B10604C01F5F93CF9093B106DF9182
:1056A000CF911F910F910895EF92FF920F931F9347
:1056B000DF93CF93CDB7DEB7A0970FB6F894DEBFD8
:1056C0000FBECDBF8E010F5F1F4FC80161E00E946A
:1056D000E820EDE5F3E0B801BBE6EB2EB5E0FB2EEC
:1056E000018112818081DB014D915C91D7012D9167
:1056F0003C91882321F0CA01821B930B03C0C9018E
:10570000841B950B800F911FB3E0883E9B071CF014
:1057100088EE93E006C02CEF8931920714F488E1FB
:105720009CEF9283818335966E5F7F4F82E090E09D
:10573000E80EF91E93E0ED3AF90791F68091EA013F
:1057400090E08170907022E030E0281B390B16AA9F
:105750002130310511F01092E4032230310511F0AF
:105760001092E5031092E60382E00E94955B80911F
:10577000AC048093AA04A0960FB6F894DEBF0FBEC7
:10578000CDBFCF91DF911F910F91FF90EF900895C2
:105790006F927F928F929F92AF92BF92CF92DF9241
:1057A000EF92FF920F931F93DF93CF930F92CDB79A
:1057B000DEB7813809F493C08238A0F4813609F449
:1057C00086C0823638F4823209F466C0833209F02A
:1057D000A2C058C08536C1F18038C9F0843609F0BE
:1057E0009AC01BC0843841F1853838F4823809F4F6
:1057F00066C0833809F08FC05CC08E3B09F472C06C
:105800008F3B09F47CC0853809F085C035C00E9403
:105810000D0E0E94081780E814C084E60E94D3662B
:10582000823009F04BC68091A4099091A509009798
:10583000C1F444C681E019C08FE393E40E940817C5
:1058400084E80E94C26667C085E60E94D366823003
:1058500009F03AC68091A2099091A309009709F432
:1058600033C60E94081757C081508093A6098091C3
:10587000AB048093AA044FC089EA9AE30E940817F8
:1058800085E8DFCF8091E8018F5F8093E801853064
:1058900060F01092E80109C08091E801882311F0BE
:1058A000815001C084E08093E80181E00E94955B13
:1058B000DECF8AE792E30E94170E83E8C2CF0E94F0
:1058C000D06C84E89FE60E94170E82E8BACF8091E0
:1058D000BC06823001F583E08093BC06C8CF0E94ED
:1058E0002E1B19C08091A609082F10E00E940D0EF2
:1058F000000F111F0E55164FD8018D939C9381E018
:105900000E94C26683E00E94C26682E00E94C26674
:1059100081E08093A1098091150260E040E00E943F
:105920002211882331F08091A109882311F40E946B
:10593000542B8091150260E040E00E942211809378
:10594000A1099091B5048091D501981718F050E8FD
:10595000E52E02C042E8E42E31E0C32E32E0D32E21
:105960001AE0812F60E0F60141916F0120E800E02C
:105970000E945A62155F1837A1F786E060E141E0A6
:105980002E2D0E94FA1984E268E146E520E00E948B
:105990005A622091B504822F6AE00E94A66F0E948D
:1059A000A66F392F822F0E94A66F9150933010F46A
:1059B00003E001C002E0323021F0343011F01CE08D
:1059C00002C00F5F1BE0145F812F6CE1402F0E942B
:1059D0009B64812F6DE1402F0E949B648091BC06E7
:1059E000882399F0823011F000E801C002E840916C
:1059F000BD065091BE0682E460E1202F0E94161A77
:105A000083E368E140E00E9433164091130213E003
:105A10004102A0011124485E564F84E260E123E078
:105A200000E00E940F63409112024295407F45952D
:105A30004595459545954102A00111244F5E564F6D
:105A400089E360E123E00E940F63AA24BB242FE1D5
:105A5000D22EF501E25FFE4FE080F501ED51FC4FE3
:105A6000E081E7FDED5FE595E595E43E0CF4E4EEBD
:105A70000E2FED310CF00CE1F501E65FFE4F808159
:105A80008823F9F08E2D64E046E30E949F648091A4
:105A9000EA0190E08A259B2580FD04C080911202D6
:105AA0008F7061F48E2D81506EE143E00E949F64FF
:105AB0008E2D8F5F6EE143E00E949F649D2D901BB1
:105AC00014C08E2D8B516BE346E30E949B641E2D08
:105AD0001150812F6AE343E00E949B64812F6CE3A5
