:100000000C94640D0C94810D0C94810D0C94810D55
:100010000C94810D0C94810D0C94810D0C94810D28
:100020000C94810D0C94810D0C94810D0C94810D18
:100030000C94E10F0C94810D0C94810D0C946410C0
:100040000C944C0F0C94810D0C94810D0C94810D2B
:100050000C94810D0C94810D0C94810D0C94810DE8
:100060000C94810D0C945D0F0C94810D0C94810DFA
:100070000C94810D0C94810D0C94810D0C94810DC8
:100080000C94810D0C94810D0C94810D8040000026
:100090000000000000000000000000000000000060
:1000A0000000000000000000000000000000000050
:1000B0000000000000000000000000000000000040
:1000C0000000000000000000000000000000000030
:1000D00000000000000000000080C0E0E0F0F8F840
:1000E000FCFCFCF8F8F8F040000000000080808084
:1000F0000000000000000000000000000000000000
:1001000000000080C0C0E0E0E0F0F0F0E0C00000DF
:10011000000000C0F8FFFF9F87838383838383836E
:10012000838383838383838383838383838383031F
:100130008380838383838383838383838383838392
:10014000838383838383838383C3E3733F1F00009D
:10015000000080E0F0F8FCFEFFFFFFFF7F3F1F1F65
:100160000F0783C3E1E1E0E0C0000E1F3F7F7FFF88
:10017000F3E0E0800000000000000000000080F0DC
:10018000FCFEFFFFFFFF7F3F0F03010101000000A6
:1001900080F0FEFFFFC7C1C1C1C1C1C1C1C1C1C1A2
:1001A000C1C1C1C1C1C1C1C1C1C1C1C101C1F0FE93
:1001B000FF3F0F070F0D0D0D1D19191919313131A1
:1001C0003171616161E1C1C1C18100000080E0F86D
:1001D000FCFFFFFFFF2F170F038180C0E0F0F8FC4A
:1001E000FEFFFFFFFFFFFF7F010000000000000097
:1001F00001010307070E1E1C3870E0F0F8FEFFFF38
:100200007F1F0F030001000000000000000000003D
:1002100000000000000000000000000000000000DE
:1002200000000000000000000000000000000000CE
:1002300000000000000000000000000000000000BE
:100240000000000000000000000000007EFFFFFF33
:10025000FFFFFFFBF8FCFCFEFF7F3F1F0F07C3FF04
:10026000FFFFFFFFFF7F070000000000000000000D
:100270000000000000C0E0F8FEFFFF7F1F0F1F3DE1
:100280007CF8F8F0E08000000000000000000000B2
:10029000000000000000000000000000000000005E
:1002A000000000000000000000000000000000004E
:1002B000000000000000000000000000000000003E
:1002C000000000000000000000000000000001012C
:1002D000010101030707070301000000E0FCFFFF25
:1002E000FFFFFF1F030000000000000000000000EF
:1002F000C0F078DE2713090E07030000000000009D
:10030000000001030F7FFFFC7878F8000000000078
:10031000000000000000808080808080808080005D
:1003200080800080800000000000000080808080CD
:1003300080808080808080808080808080800000BD
:1003400000000000000000000000000000000000AD
:1003500000000000000000000080F0FEFFFFFFFF33
:100360003F0F010000000000000000C0E0381E0F39
:100370000300010000000000000000000000000079
:100380000000000000000000000303010000000066
:100390000000000000000E0E020202020203030031
:1003A0000F0F000F0F080808080808080F0F0808AB
:1003B0000808080F0F000000000F0F0000000000E9
:1003C000000000000000000000000000000000002D
:1003D00000000000000000C0F8BFFFFFFF1F7F010A
:1003E0000000000000000000F0FCFF7F78300000FB
:1003F00000000000000000000000000000000000FD
:1004000000000000000000000000000000000000EC
:1004100000000000000000000000000000000000DC
:1004200000000000000000000000000000000000CC
:1004300000000000000000000000000000000000BC
:1004400000000000000000000000000000000000AC
:100450000000000000301C070E0F07010000000024
:10046000000000000000000000000000000000008C
:10047000000000000000000000000000000000007C
:10048000000000000000000000000000000000521A
:10049000554420454C45205448522041494C205257
:1004A00055442054485220454C452041494C204158
:1004B000494C20454C452054485220525544204137
:1004C000494C2054485220454C4520525544200068
:1004D00003010200040506070000000000000108F7
:1004E0001E640101081E6401010F32960A0A1E32C1
:1004F000966D656E75537461636B206F7665726679
:100500006C6F77006D656E75537461636B20756EEB
:10051000646572666C6F7700707265737320616ECC
:1005200079204B657900414C455254004D45535359
:10053000414745004C4F4144494E4700506C65616E
:100540007365207265736574207468656D005377F8
:10055000697463686573206E6F74206F666600202F
:100560004F6C642056657273696F6E20454550521A
:100570004F4D202020434845434B20534554544978
:100580004E47532F43414C494200416C61726D7399
:100590002044697361626C65640052657365742000
:1005A0007468726F74746C65005468726F74746CE4
:1005B00065206E6F742069646C650050726573739A
:1005C00020616E79206B657920746F20736B697080
:1005D00000414C45525400454550524F4D206C6FE0
:1005E00077206D656D004F46464142535255735218
:1005F0005525454C73454C25544873544825414C6A
:1006000073414C2550312050312550322050322535
:1006100050332050332500544852525544454C45E0
:1006200049443049443149443241494C4745415499
:10063000524E5357315357325357335357345357FE
:100640003553573653573753573853573953574104
:10065000535742535743004F4646004F4E20002DFC
:100660002D2D002D2D2D204348312043483220438D
:1006700048332043483420434835204348362043FC
:1006800048372043483820434839204348313043D5
:1006900048313143483132434831334348313443A0
:1006A0004831354348313643483137434831384380
:1006B000483139434832304348323143483232437B
:1006C0004832334348323443483235434832364364
:1006D0004832374348323843483239434833300090
:1006E0005031202050322020503320204D415820BE
:1006F00046554C4C43594331435943324359433394
:1007000050504D3150504D3250504D3350504D346B
:1007100050504D3550504D3650504D3750504D384B
:100720004348312043483220434833204348342053
:100730004348352043483620434837204348382033
:1007400043483920434831304348313143483132FE
:1007500043483133434831344348313543483136D7
:10076000002D2D2D2D00564552533A2056312E3452
:100770003432332D6572657A00444154453A203154
:10078000372E30372E323031310054494D453A2022
:1007900030303A31323A3133002053564E3A2074D9
:1007A00072756E6B2D723337360012081200081CFA
:1007B0000808081C08000008220049002208000060
:1007C000000000227F2200000008220049002208C9
:1007D000000008220049002208000000227F2200B9
:1007E00000000000082200490022080000081C0840
:1007F00008081C0800BA3B363EF83CCD43404D810A
:1008000052E83ADF456F4BAE51243477326A389B59
:10081000382A39AA3970756C736520746162206F4B
:10082000766572666C6F770020202054546D004509
:100830007870457846466E654D6564437273005422
:100840004F54005354250053544B005453570054F5
:100850004D450053544154005B4D454E555D207449
:100860006F207265667265736800537461636B20F4
:100870002020202020202020206200746D61696EDD
:10088000202020202020202020206D7300746D72F5
:1008900031204A69747465722020202075730074B9
:1008A0006D72314C6174206D696E2020202075734B
:1008B00000746D72314C6174206D617820202020AD
:1008C0007573005354415432004D6F646500416CA0
:1008D00061726D205761726E696E67004D656D6F54
:1008E0007279205761726E696E670053776974631D
:1008F00068205761726E696E67005468726F747415
:100900006C65205761726E696E670053706C61731D
:10091000682073637265656E004F4646004C6967D8
:100920006874206F6666206166746572004C696742
:1009300068742073776974636800466C617368201B
:100940006F6E2062656570004265657020636F752B
:100950006E74646F776E004D696E757465206265A4
:100960006570005468726F74746C6520726576658A
:100970007273650053494E474F534D5046494C548E
:100980000046696C7465722041444300496E61639E
:1009900074697669747920616C61726D004261746A
:1009A00074657279207761726E696E6700436F6E4D
:1009B00074726173740051756965744E6F4B65791B
:1009C0004E6F726D204C6F6E6720784C6F6E6700B3
:1009D000426565706572004F776E6572204E616D7D
:1009E0006500524144494F205345545550004361DE
:1009F0006C004D756C7469706C6965720063683168
:100A0000636832636833636834006F6666202B3D29
:100A1000203A3D006D6F64652020202520737263AD
:100A20002020737700536C61766500545241494E23
:100A300045520000030303030056455253494F4EED
:100A4000005472696D2D202B00204D656E75204578
:100A500078697420446F776E202020557052696742
:100A60006874204C65667400444941470042470061
:100A700041314132413341344135413641374138CA
:100A800000414E41003C202020203E005365744D23
:100A90006964205365745370616E446F6E652020E5
:100AA000200043414C4942524154494F4E00667226
:100AB0006565004D4F44454C53454C00434F4C2019
:100AC000446972656374696F6E0041494C204469E2
:100AD00072656374696F6E00454C452044697265A8
:100AE0006374696F6E0053776173682052696E6733
:100AF00000436F6C6C656374697665002D2D2D2045
:100B00002020313230202020313230582020313422
:100B10003020202039302020202000537761736856
:100B200020547970650048454C4920534554555030
:100B3000000044454C455445204D4F44454C202031
:100B4000205B4D454E555D00547261696E657200C3
:100B5000452E204C696D69747300504F534E4547C4
:100B60000053686966742053656C007553656300B3
:100B700034434820364348203843482031304348E6
:100B80003132434831344348313643480050504DA8
:100B900020202053494C565F4153494C565F4253E5
:100BA000494C565F435452414330390050726F7480
:100BB0006F00524554413132330042656570204325
:100BC0006E74005472696D20537700457870202050
:100BD00020457846696E6546696E6520204D6564DE
:100BE00069756D436F61727365005472696D204958
:100BF0006E6300542D4578706F00542D5472696DEA
:100C000000436F756E7420446F776E436F756E741A
:100C100020557020200054696D657220005472695F
:100C2000676765720054696D6572004E616D65009D
:100C30005345545550000009010000000000000613
:100C400002004475706C69636174696E67206D6F32
:100C500064656C005B4D454E555D20205B455849F1
:100C6000545D0059455320202020204E4F0044451C
:100C70004C455445204D4F44454C004455504C493B
:100C800043415445204D4F44454C0020414243448C
:100C900045464748494A4B4C4D4E4F50515253548C
:100CA00055565758595A6162636465666768696A40
:100CB0006B6C6D6E6F707172737475767778797A0C
:100CC000303132333435363738395F2D2E00657880
:100CD000702020252020737731207377320045580B
:100CE000504F2F4452000003445220486967680067
:100CF0004452204C6F77004452204D696400447286
:100D000053773200447253773100576569676874CE
:100D1000004578706F004558504F2F445200002D09
:100D20002D2D783E30783C307C787C663E30663CB9
:100D3000307C667C6331206332206333206334204F
:100D4000633520633620633720633820633920639E
:100D50003130633131633132633133633134633184
:100D600035633136002B2A52004D49584552005008
:100D700072657373205B455849545D20746F206120
:100D8000626F7274004D6178206D697865727320AE
:100D900072656163683A200044454C455445204DD6
:100DA0004958205B4D454E555D00536C6F772020B0
:100DB000557000536C6F772020446F776E00446548
:100DC0006C61792055700044656C617920446F77BF
:100DD0006E0041646420202020204D756C74697081
:100DE0006C795265706C61636520004D756C747030
:100DF00078004F4646005761726E696E6700537700
:100E000069746368002D2D2D783E30783C307C78F5
:100E10007C663E30663C307C667C633120633220E9
:100E200063332063342063352063362063372063C7
:100E300038206339206331306331316331326331BB
:100E4000336331346331356331360043757276650F
:100E500073004F4E204F4646005472696D004F4656
:100E6000464F4E2000466C4D6F64657472696D008C
:100E70004F666673657400466D5472696D56616C99
:100E80000057656967687400536F75726365004544
:100E9000444954204D49582000494E53455254204E
:100EA0004D495820002D2D2D2D202020763E6F6697
:100EB000732020763C6F667320207C767C3E6F66C4
:100EC000737C767C3C6F6673414E44202020204F1B
:100ED000522020202020584F522020202076313DC3
:100EE0003D7632207631213D76322076313E7632A3
:100EF000202076313C7632202076313E3D763220FD
:100F000076313C3D76322000535700435553544FC1
:100F10004D2053574954434845530000025341461E
:100F20004554592053574954434845530000020142
:100F30000203040102040301030204010304020189
:100F40000402030104030202010304020104030278
:100F50000301040203040102040103020403010368
:100F60000102040301040203020104030204010359
:100F70000401020304020104010203040103020448
:100F800002010304020301040301020403020143FA
:100F90004C454152204D49584553205B4D454E55D7
:100FA0005D002052455441004368616E6E656C20BF
:100FB0004F726465720054454D504C415445530086
:100FC000434F5059205452494D205B4D454E555D7D
:100FD000002D2D2D494E56004C494D4954530000CB
:100FE00003030303030303030303030303030303D1
:100FF0000043560043555256455300505245534501
:101000005400454449542D3E00435552564500096D
:10101000002D2D2D494E56004F46464F4E2000457F
:101020004550524F4D206F766572666C6F77004564
:101030004550524F4D206F766572666C6F77006732
:10104000656E7772697465206572726F72004545CE
:1010500050524F4D20466F726D617474696E670017
:1010600042616420454570726F6D20446174610077
:101070004D4F44454C2020202020004D452020206D
:101080002020202020005008500000000000000018
:10109000006F000007000700147F147F14242A7FCC
:1010A0002A122313086462364955225000050300B2
:1010B00000001C2241000041221C0014083E0814BC
:1010C00008083E080800503000000808080808001A
:1010D000606000002010080402003E49453E000008
:1010E000427F400062514946004149493600181488
:1010F000127F0027454539003E49493200017905F4
:10110000030036494936000649291E0000363600DC
:10111000000056360000081422411414141414411F
:1011200022140800020151090600060909067E0979
:1011300009097E7F494949363E414141227F41416B
:10114000221C7F494949417F090909013E4149491A
:101150007A7F0808087F00417F41002040413F011D
:101160007F081422417F404040407F020C027F7F75
:101170000408107F3E4141413E7F090909063E4176
:1011800051215E7F09192946264949493201017FCB
:1011900001013F4040403F1F2040201F3F40304062
:1011A0003F631408146307087008076151494543F9
:1011B000007F41410002040810200041417F0004EB
:1011C000020102044040404040000102040020545B
:1011D0005454787F48444438384444442038444484
:1011E000487F3854545418087E0901020C52525258
:1011F0003E7F0804047800447D40002040443D00C8
:101200007F1028440000417F40007C041804787C53
:101210000804047838444444387C1414140808142E
:1012200014187C7C080404084854545420043F4497
:1012300040203C4040207C1C2040201C3C40204062
:101240003C44281028440C5050503C4464544C44B6
:10125000000836410000007F000000413608000809
:1012600008221C08081C220808A06080000000005A
:1012700000000000000000000000FFFF0000000070
:1012800000001F3F00003F1F00003030FFFF3030E4
:10129000FFFF30303078CCCCFFFFCCCC8C0C060F6D
:1012A0000F86C0E070381C0C3CFEC7E3F33B1E0CFD
:1012B00000000000333B1F0F000000000000F0F8AA
:1012C0001C0E07030000000003070E1CF8F00000CE
:1012D0003030E0C0FCFCC0E03030C0C0C0C0FCFC1E
:1012E000C0C0C0C000000000000000000000C0C07E
:1012F000C0C0C0C0C0C0C0C00000000000000000EE
:10130000000000000080C0E070381C0C00000000ED
:10131000000000000000000000003838000000005D
:101320000000000000000000000003033F3F030333
:101330003F3F03030C0C0C0C3F3F0C0C07030C0E3F
:1013400007030100183C3C180F1F383133331E1EB1
:10135000333300000000000000000000000003071D
:101360000E1C38300000000030381C0E070300004F
:10137000030301000F0F00010303000000000F0F23
:10138000000000000000333B1F0F000000000000C1
:1013900000000000000000000000183C3C180000A5
:1013A00000000C0E07030100000000000000FCFE1E
:1013B00087C3E377FEFC00000C0EFFFF0000000077
:1013C00000000C0E0783C3E77E3C00000303C3C389
:1013D000C3E7FE3C0000C0E070381C0EFFFF0000B9
:1013E0003F3F33333373E3C30000FCFEC7C3C3C7BF
:1013F0008E0C00000303C3E3733B1F0F00003CFE91
:10140000E7C3C3E7FE3C00003C7EE7C3C3E7FEFC46
:101410000000183C3C18000000000000183C3C187C
:10142000000000000000C0E0F0381C0E0703303060
:10143000303030303030303003070E1C38F0E0C030
:1014400000000C0E07030383C3E77E3C00000F1F60
:101450003B3130381F0F000030303F3F303000004C
:1014600000003C3E37333130303000003030303017
:1014700030391F0F00000303030303033F3F000045
:101480000C1C383030381F0F00000F1F3830303937
:101490001F0F000000003F3F0000000000000F1F72
:1014A000393030391F0F0000000030381C0E0703A0
:1014B0000000060F0F06000000000000333B1F0F66
:1014C000000000000000000103070E1C3830030379
:1014D000030303030303030330381C0E0703010057
:1014E00000000000000033330100000000003C7EDB
:1014F000E7C3C3E77E3CF0F8DCCEC7C7CEDCF8F02C
:10150000FFFFC3C3C3C3C3E7FE3CFCFE07030303E3
:1015100003070E0CFFFF030303070E1CF8F0FFFF89
:10152000C3C3C3C3C3C30303FFFFC3C3C3C3C3C393
:101530000303FCFE0703C3C3C3C7CECCFFFFC0C079
:10154000C0C0C0C0FFFF00000303FFFF0303000093
:10155000000000000303FFFF0303FFFFC0E0F038BB
:101560001C0E0703FFFF0000000000000000FFFF4B
:101570000E1CF8F81C0EFFFFFFFF3870E0C0800063
:10158000FFFFFCFE070303030307FEFC000000004F
:101590000000000000003F3F0000000000003F3F4F
:1015A0003F3F3030303030391F0F0F1F3830303070
:1015B00030381C0C3F3F303030381C0E07033F3FA3
:1015C00030303030303030303F3F0000000000001D
:1015D00000000F1F3830303030303F3F3F3F0000B9
:1015E000000000003F3F000030303F3F303000003F
:1015F0000C1C383030381F0F00003F3F000103073C
:101600000E1C38303F3F30303030303030303F3FCC
:101610000000000000003F3F3F3F000000010303C7
:101620003F3F0F1F3830303030381F0FFFFFC3C32C
:10163000C3C3C3E77E3CFCFE070303030307FEFCB2
:10164000FFFFC3C3C3C3C3E77E3C3C7EE7C3C3C342
:10165000C3C78E0C03030303FFFF03030303FFFF52
:10166000000000000000FFFFFFFF0000000000007E
:10167000FFFFFFFF000000000000FFFF0F1F38F01A
:10168000E0E0F0381F0F3F7FE0C08080C0E07F3F88
:1016900003030383C3E3733B1F0F0000FFFF030338
:1016A000030300000C1C3870E0C080000000000044
:1016B00003030303FFFF000030381C0E07070E1C56
:1016C0003830000000000000000000003F3F000034
:1016D0000000000000000F1F383033371E1C3F335E
:1016E0003F3F000003070E1C38300C1C38303030F0
:1016F00030391F0F000000003F3F000000000F1FA7
:101700003830303030381F0F03070E1C38381C0EAD
:1017100007030F1F38381F1F38381F0F3C3E0703C1
:10172000010103073E3C000000013F3F01000000B3
:101730003C3E373331303030303000003F3F3030C6
:101740003030000000000000000103070E0C000014
:10175000303030303F3F000000000000000000004B
:10176000000030303030303030303030000003078F
:101770000E1C383000000000303030303070E0C0D7
:10178000FFFFC0E070303070E0C0C0E0703030303B
:1017900030300000C0E070303070E0C0FFFFC0E0CB
:1017A000703030303070E0C0C0C0FCFEC7C30307EB
:1017B0000E0CF0F89C0C0C0C0C0CFCFCFFFFC0E0B9
:1017C00070303070E0C000003030F3F300000000F3
:1017D000000000003030F3F30000FFFF0080C0E0A5
:1017E0007030000000000303FFFF00000000F0F075
:1017F0003070E0E07070E0C0F0F0C0E07030307049
:10180000E0C0C0E0703030303070E0C00000000058
:101810000000000000000C1E3F33333333333F3FE2
:101820003F3F3030303030381F0F0F1F38303030EE
:1018300030381C0C0F1F3830303030303F3F0F1F16
:101840003B3333333333030300003F3F00000000DA
:101850000000000133333333333B1F0F3F3F0000A1
:10186000000000003F3F000030303F3F30300000BC
:101870000C1C383030381F0F00003F3F03070F1C8F
:1018800038300000000030303F3F303000003F3F34
:101890000000030300003F3F3F3F00000000000046
:1018A0003F3F0F1F3830303030381F0FF0F03030EE
:1018B000303030F0E0C0C0E0F0303030E0C0F0F068
:1018C000F0F0C0E070303070E0C0C0E0F030303098
:1018D000303000003030FFFF303000000000F0F00A
:1018E000000000000000F0F0F0F000000000000038
:1018F000F0F0F0F0000000000000F0F03070E0C008
:101900008080C0E07030F0F0800000000000F0F057
:101910003030303030B0F0F070300000C0E03C3E8D
:101920000703000000000000FFFF000000000000AF
:1019300003073E3CE0C00000C0C0C0C00C1CF8F073
:10194000E0C0C0E0F0F81C0CC0C0C0C03F3F0303C3
:1019500003030303010000010303030303033F3FE9
:101960003F3F0000000000000000303133333333CC
:10197000333F1E0C00000F1F383030381C0C0F1F77
:10198000383030381C0C3F3F03070E1C38381C0E13
:1019900007030F1F38381C1C38381F0F30381C0F36
:1019A00007070F1C3830000133333333333B1F0F2D
:1019B00030383C3E373331303030000000010F1FEB
:1019C00038300000000000003F3F00000000000031
:1019D00030381F0F01000000000000000C0E07034C
:1019E0000100000103070E0C000000004080080405
:1019F00020100201741A801A861A931A9A1AA71ACA
:101A0000B21ABD1A01020304010204030103020415
:101A1000010304020104020301040302020103049E
:101A2000020104030203010402030401020401038E
:101A3000020403010301020403010402030201047E
:101A4000030204010304010203040201040102036E
:101A5000040103020402010304020301040301025E
:101A6000040302010102030401030204040203014E
:101A70000403020153696D706C6520342D434800E6
:101A8000542D43757400537469636B7920542D434E
:101A9000757400562D5461696C00456C65766F6EE7
:101AA0005C44656C74610048656C692053657475AD
:101AB00070004779726F20536574757000536572BA
:101AC000766F20546573740011241FBECFEFD0E1F0
:101AD000DEBFCDBF11E0A0E0B1E0ECE2FDEC02C062
:101AE00005900D92A433B107D9F71EE0A4E3B1E04D
:101AF00001C01D92AA3BB107E1F70E940C180C949B
:101B000094660C9400009AE0899F90011124275557
:101B10003E4FC901089595E0899F900111242751F6
:101B20003D4FC901089587E196E008958C3038F45F
:101B3000E82FF0E0EE0FFF1FE954FB4F2CC080317F
:101B400088F4E82FF0E0EE0FFF1FDF01A25BBE4F2D
:101B5000E15CFB4F0190F081E02D8D919C91E81BA1
:101B6000F90B0BC0843160F4E82FF0E0EE0FFF1F9B
:101B7000E15CFB4F0190F081E02DEE0FFF1F0EC0E6
:101B8000843218F0E0E0F0E009C0E82FF0E0EE0F5A
:101B9000FF1FE356FB4F0190F081E02DCF01089528
:101BA000E0914004F0E0EE0FFF1FE85CFB4F808106
:101BB00091810895FC01A0914004B0E0AA0FBB1FE1
:101BC000AA5CBB4F8D939C938FEB09958091420447
:101BD00080934104089580914104882341F48091C9
:101BE0005004882321F480915204882311F084E169
:101BF00005C080916C04882321F0815080936C048F
:101C000008C08091630090E09695879581708093DD
:101C10006D0480916D04089510925404109256043E
:101C2000109255040895E0EDF4E0E80FF11DE49101
:101C3000F0E0EE0FFF1FEF58FB4F20813181C9010B
:101C40000895EF92FF920F931F93CF93DF938091AC
:101C5000780190E081709070C2E0D0E0C81BD90B91
:101C600010917A011170E1E8F4E0A1E7B4E040E0FE
:101C700050E0E12C78E0F72E042F842F806487B9A0
:101C8000369A349BFECF349A208931898D919C916C
:101C9000119796958795820F931F8E7F11969C932F
:101CA0008E9360817181260F371F36952795318B72
:101CB000208B84B195B1C417D50741F4043030F4BA
:101CC000112321F09701281B390BC901860F971F9B
:101CD00096958795819391934F5F5F4F1296483009
:101CE000510551F6DF91CF911F910F91FF90EF9029
:101CF00008958F929F92AF92BF92CF92DF92EF9210
:101D0000FF920F931F93DF93CF93CDB7DEB760970A
:101D10000FB6F894DEBF0FBECDBFFE01319680E155
:101D2000DF011D928A95E9F78091780190E081703A
:101D30009070A2E0B0E0A81BB90B70917A017170AD
:101D40004F0121E7E22E24E0F22E40E050E08D0129
:101D5000000F111F0E0D1F1DA12C88E0B82E2EC0E4
:101D6000D7B8369A349BFECF349A84B195B1280FF8
:101D7000391F6F5F6430A1F7F40131832083C901FB
:101D800096958795F70191838083A417B50759F439
:101D9000F3E0FC1540F0772331F09501281B390B57
:101DA000F801318320834F5F5F4F22E030E0820EE5
:101DB000931EE20EF31E4830510549F0C42EF40183
:101DC0002081318160E0E0E4DE2ED42AC9CF609624
:101DD0000FB6F894DEBF0FBECDBFCF91DF911F913C
:101DE0000F91FF90EF90DF90CF90BF90AF909F90BA
:101DF0008F9008950F931F93CF93DF938091780175
:101E000090E08170907042E050E0481B590B609167
:101E10007A016170A1E7B4E020E030E0FA01EE0F52
:101E2000FF1FEA0FFB1FC0E0D8E0722F822F8064F3
:101E300087B9369A349BFECF349A84B195B1880F16
:101E4000991F11969C938E934217530749F474304F
:101E500038F4662329F08E01081B190B11830083C7
:101E60002F5F3F4F129628303105F9F6DF91CF9161
:101E70001F910F9108958EE587B9369A349BFECF56
:101E8000349A369A349BFECF349A84B195B19093AC
:101E90006A048093690408951F920F920FB60F92FF
:101EA00011248F9380916B048F5F80936B048F91CB
:101EB0000F900FBE0F901F90189578941F920F925D
:101EC0000FB60F9211242F933F934F935F936F930D
:101ED0007F938F939F93AF93BF93EF93FF93209143
:101EE000800030918100F89480917D008F7D8093F7
:101EF0007D00789480916E0490916F04A901481B35
:101F0000590B5695479530936F0420936E0420919A
:101F10006704822F8150883048F5CA01815293406E
:101F20008757954000F5E22FF0E0EE0FFF1FEB5AC8
:101F3000FB4F4C5D554080917E01992787FD909520
:101F40000A96BC01469FC001479F900D569F900D79
:101F500011246AE070E00E940266718360832F5F43
:101F6000209367040BC01092670408C0415A5F4079
:101F70004F5D5E4218F481E080936704F89480918D
:101F80007D00806280937D00FF91EF91BF91AF91C2
:101F90009F918F917F916F915F914F913F912F9181
:101FA0000F900FBE0F901F901895EBEBFEE001C055
:101FB000319680818535E1F39F012A5B3E40C9015E
:101FC00008951F920F920FB60F9211242F933F93F3
:101FD0004F935F936F937F938F939F93AF93BF9331
:101FE000EF93FF9390E08CB58A3008F065C09F5F57
:101FF000923309F461C0F7CFC09A1092B10404C0C3
:10200000C09881E08093B1048091BD069091BE0696
:102010009C012417350708F49A013093BE062093DB
:10202000BD0680911001909111019C014217530748
:1020300008F49A013093110120931001A0910E0130
:10204000B0910F01FD01819191919BBD8ABDF093EB
:102050000F01E0930E0112968D919C911397892B9D
:10206000A9F481EC96E090930F0180930E0180918A
:10207000A50181708093B10487B78F7E87BF789464
:102080000E94731DF89487B7806187BF80916804B0
:10209000816080936804FF91EF91BF91AF919F9110
:1020A0008F917F916F915F914F913F912F910F9001
:1020B0000FBE0F901F9018954CB55DB58091B1047F
:1020C000882309F099CF9CCF78941F920F920FB676
:1020D0000F9211242F933F934F935F936F937F93AE
:1020E0008F939F93AF93BF93EF93FF93F89487B72A
:1020F0008D7F87BF789481B7845681BF90914104CA
:10210000992369F080915104882329F49093510414
:1021100081E08093520491509093410421C030910A
:1021200050043323B9F020915104222399F090E018
:1021300080915204882309F491E0909352049923EA
:1021400009F428E020934104992351F03150309351
:10215000500406C01092510410925204109234049C
:1021600080915204882381F080913404882311F4F3
:1021700090E004C09091700481E0982790937004DF
:10218000992311F41B9A01C01B980E941E62809132
:102190006804826080936804F89487B7826087BF80
:1021A000FF91EF91BF91AF919F918F917F916F912F
:1021B0005F914F913F912F910F900FBE0F901F9005
:1021C0001895AF92BF92CF92DF92EF92FF920F934A
:1021D0001F93CF93DF93D82EA42E85E0841708F4A5
:1021E000EFC0DD2009F4EFC096E1D91609F4EAC08A
:1021F0008AEED81609F4E4C02D2D332727FD30953B
:10220000C90137FF04C088279927821B930B8A30A6
:1022100084F41D144CF08DE090E0821B930B0E941F
:10222000756161E06827CFC0C9010D960E94756194
:10223000A3C0E82EFF24E7FCF09486EF9FEFE80EA2
:10224000F91ED701AA0FBB1FAE0DBF1DA157BE4F70
:10225000A85ABD4F8C91A855B240882309F4B0C04C
:10226000FD01EA5AFD4FC080ED01C95ADD4FB8802B
:10227000853008F4B4C0883028F400E010E0E0E0D5
:10228000F0E00AC08C2D81500E94960D8C0188814F
:1022900081500E94960DFC01E701CC0FDD1FCE0D91
:1022A000DF1DC951DC4F2881283088F4253008F023
:1022B00049C0223031F1233020F4213009F080C0B0
:1022C0001CC0233011F1243009F07AC029C02A3013
:1022D00009F462C02B3038F4283009F453C0293097
:1022E00009F06EC054C02C3009F460C02C3008F4E2
:1022F00058C02D3009F064C05EC01D140CF44CC0F1
:102300005AC01D140CF44DC051C020E0C80117FF85
:1023100003C0909581959F4FE817F90764F40AC0B0
:1023200020E0C80117FF03C0909581959F4F8E173D
:102330009F070CF421E01D1414F4622F44C061E0E7
:10234000622741C01A2D1F5F8C2D60E0412F0E9433
:10235000E110082F8B2D60E0412F0E94E110988141
:10236000953031F4002361F1682F882361F12AC090
:10237000963021F4002331F5682F25C060E008175E
:1023800009F521C060E00E171F07E9F41BC060E0EB
:102390000E171F07B9F417C060E0E017F1079CF4AF
:1023A00011C060E00E171F0774F40CC060E00E1738
:1023B0001F074CF007C060E0E017F10724F002C0EF
:1023C00060E001C061E0862FDF91CF911F910F91F6
:1023D000FF90EF90DF90CF90BF90AF9008958C2D3D
:1023E00081500E94960D8C01988189E29802F0013B
:1023F0001124F595E795F595E79597FD915C96FB8A
:10240000990F990B90F9892F992787FD9095E81BD3
:10241000F90B42CF1F93182FA82FAF70A650209111
:10242000A10122306CF0332727FD30952150304038
:1024300081E090E002C0880F991F2A95E2F7282FCB
:10244000A83008F07FC08A2F8595682F70E0FB01C7
:10245000EE0FFF1FE050FF4F0190F081E02DB081A3
:10246000222311F0422F10C04B2F552747FD5095C6
:1024700057FF03C0509541955F4F242F47FD2D5FB7
:10248000422F459545954F5F2091780130E02170AE
:10249000307082E090E0821B930B8617970711F053
:1024A00050E00CC08091A0018F7011F450E002C088
:1024B00044E051E080917A0180FD41958B2F99276E
:1024C00087FD9095242F332727FD3095A0FF03C06B
:1024D000280F391F04C0BC01621B730B9B0121151F
:1024E000310521F08B2F832787FF09C0552339F44D
:1024F000BB2329F01082812F0E94FC611CC0C901FE
:1025000084589F4F893F910560F4208382E00E94A8
:10251000825616FF03C081E0809334048091430407
:102520000EC01216130614F083E801C08DE78083F5
:1025300082E00E9482561092340480914504809378
:10254000410410E0812F1F9108951F93F89420916A
:10255000B60E3091B70E789440E08091B50490911A
:10256000B6042817390709F041E040934D04F89468
:102570008091B60E9091B70E78949093B6048093A4
:10258000B5048BEE94E060E00E94712080914D04D0
:10259000882309F410C1809153048823A1F09091FD
:1025A0005404892F8F5F80935404843660F09356CF
:1025B0009093540480915504909156040196909301
:1025C00056048093550480E00E9495560E94BC609A
:1025D0000E94E5600E940A12182F80914E0490918B
:1025E0004F04009729F0019790934F0480934E0475
:1025F000112389F080917C0190E024EF31E0AC015F
:10260000429FC001439F900D529F900D11249093C3
:102610004F0480934E048091650160E040E00E9489
:10262000E110882339F480914E0490914F04892B56
:1026300009F4BFC0C79A2091C3043091C4048091AB
:10264000480490914904821B930B60E270E00E9461
:10265000026670934B0460934A046115710591F012
:102660008091B3049091B404821B930B62E070E0FC
:102670000E94026670934B0460934A0430934904AD
:10268000209348043093B4042093B304E0914004B1
:10269000F0E0EE0FFF1FEA5CFB4F0190F081E02DB0
:1026A000812F09950E9489600E94EB0D882321F0FB
:1026B000809165008F7E03C080916500806180936A
:1026C0006500F8948091B60E9091B70E78948F7152
:1026D00090708230910521F0039709F06CC052C0D0
:1026E000E7EDF4E0E491F0E0EE0FFF1FEF58FB4F51
:1026F0000190F081E02DCF0168E070E00E94026659
:1027000080916401992787FD909506969C01629FB0
:10271000C001639F900D729F900D112420914C0475
:1027200030E02F5F3F4F6091690470916A04A4E02C
:10273000EE0FFF1FAA95E1F78E0F9F1F0E94026602
:10274000260F371F3595279520934C048091B204AE
:10275000805E8093B204882371F58091630128170D
:1027600050F5223340F180914604809341048091DA
:102770007A0183FF20C082E390E090934F0480931E
:102780004E0419C08091770186958695869587704D
:1027900090E0BC01660F771F660F771F680F791FE7
:1027A00068527B4F82E494E045E050E00E9452661C
:1027B00002C0C79840CF1F9108958F929F92AF9209
:1027C000BF92CF92DF92EF92FF920F931F93CF931E
:1027D000DF93182F7B014A015901C02E84FD04C0EC
:1027E00024E0D22E05E005C01F70106695E0D92EBA
:1027F00004E08D2D8066181761F08D2D8064181708
:1028000041F09091E604992361F0133611F01334EE
:1028100041F4E70121968091420480934104802F86
:1028200017C0802F8066181761F0802F80641817FA
:1028300041F0992309F471C0123619F0123409F0ED
:102840006CC0E701219780914204809341048D2D53
:1028500090E00E947561882351F0CC27DD27CE19C6
:10286000DF09802F0E94FC618D2D0E94FC61811484
:10287000910491F481E0A816B10471F4103661F46A
:102880001092E604C0E0D0E0E114F10411F4C1E0DC
:10289000D0E080E60E94FC6180914A0490914B0454
:1028A000C81BD90BAC16BD064CF4812F0E94FC61ED
:1028B0008091450480934104E5010BC0C815D905FA
:1028C00044F4812F0E94FC6180914504809341046F
:1028D000E401CE15DF0589F0209739F4812F0E949D
:1028E000ED6180914204809341048C2D83700E949D
:1028F000825681E08093470402C010924704CE01C3
:10290000DF91CF911F910F91FF90EF90DF90CF90CB
:10291000BF90AF909F908F900895E701A8CF0F933D
:10292000772767FD7095552747FD5095332727FD7D
:1029300030950E94DD130F9108950F93772767FD5F
:102940007095552747FD5095332727FD309501E0B9
:102950000E94DD130F9108950F93772767FD7095FF
:10296000552747FD5095332727FD309502E00E94FB
:10297000DD130F9108950F931F938C010E94BC608B
:1029800082E260E04CE255E024E00E94395E80E0A3
:1029900068E1A8010E94735E0E94896080916201D3
:1029A0000E947F601F910F910895EF92FF920F9305
:1029B0001F93082FF62E142FE22E442329F04631C0
:1029C00039F04A3E81F408C08A5F4FE556E007C0FF
:1029D0008A5F4BE556E003C08A5F47E556E02E2D3F
:1029E0000E94395E23C0441F4427441F405E0E945A
:1029F0004C5D202F2A5F412F552747FD509557FFEB
:102A000003C0509541955F4F842F992787FD90957E
:102A10000197AC01440F551F480F591F495E594F8C
:102A2000822F6F2D23E00E2D0E94075E1F910F91C4
:102A3000FF90EF900895DF92EF92FF920F931F9314
:102A4000F82EE62ED42E10919A01812F992787FD1A
:102A5000909597FF03C0909581959F4F80319CF48E
:102A600043E08402A00111244A515A4F8F2D6E2D4C
:102A700023E00D2D0E94075E1F3F4CF58F2D8650E1
:102A80006E2D41E221C0853274F411161CF4412FE1
:102A90004F5002C0412F415F8F2D86506E2D2D2D3E
:102AA0000E94D51414C011161CF4412F445202C0C8
:102AB000412F4C5D8F2D86506E2D2D2D0E94D514EB
:102AC0008F2D8E5E6E2D4DE62D2D0E944C5D1F913B
:102AD0000F91FF90EF90DF9008950F93022F50E039
:102AE000440F551F440F551F4D59594F24E00E9464
:102AF000075E0F9108950F93942F022F442319F42A
:102B000041E657E01DC0453090F44091780150E017
:102B1000440F551F440F551F41505040490F511D40
:102B2000440F551F440F551F41575B4F09C0453295
:102B300050F450E0440F551F440F551F4453594F54
:102B400024E00E94075E0F91089586B380958E77EA
:102B5000E1F70E94E2600895FF920F931F938C01AA
:102B6000F62E0E94BC6082E260E046E255E024E07E
:102B70000E94395E80E068E1A8010E94735E8CE1EA
:102B800068E348E155E00E94735E0E948960FF207F
:102B900011F089E102C0809162010E947F60809102
:102BA0004604809341040E94A51586B380958E77D4
:102BB00091F48091650160E040E00E94E11088237B
:102BC00031F480917C01882311F4FF2011F0C79A21
:102BD000ECCFC798EACF1F910F91FF9008959C0109
:102BE00080914004E82FEF5FE0934004E53040F02F
:102BF0008093400481EF94E060E00E94AC1508955A
:102C00008091420480934104F0E0EE0FFF1FEA5CE4
:102C1000FB4F318320838FEBF90109950895E091F3
:102C20004004EE2319F4882329F416C0882311F4F4
:102C3000E15001C0E0E0E0934004809142048093C1
:102C40004104F0E0EE0FFF1FEA5CFB4F0190F081C2
:102C5000E02D8EEB0995089584E095E060E00E94F8
:102C6000AC15089580913504882351F08FE595E0E7
:102C700060E00E94AC15809135048E7F809335040E
:102C800008958091770187FD07C0887329F48AE849
:102C900095E060E00E94AC1508958091770182FD77
:102CA0000AC00E946859883C910528F487ED95E098
:102CB00060E00E94AC1508951F93CF93DF9386B315
:102CC00080958E7721E030E0682F70E0422FCB01B5
:102CD000022E02C0959587950A94E2F780FD06C002
:102CE0004F5F2F5F3F4F2830310581F7142F115070
:102CF0001630A8F5812F0E940B57882381F110937D
:102D00006101812F0E94595881E00E9482560E94E1
:102D1000BC6086E160E044E355E024E00E94395E57
:102D2000CFE8D1E01AE0812F68E1499124E00E94C8
:102D30004C5D155F1837B9F70E9489608091620178
:102D40000E947F6080916501882321F480917C013D
:102D5000882311F0C79A01C0C7980E94A515DF917A
:102D6000CF911F910895EF92FF920F931F938C01C3
:102D70007B010E94BC6082E260E041ED55E024E00E
:102D80000E94395E80E060E2A8010E94735E80E0EC
:102D900068E2A7010E94735E80E060E34BEB55E0C0
:102DA0000E94735E0E948960809162010E947F6030
:102DB0000E94A5151F910F91FF90EF9008951F930A
:102DC0008091770181FD2EC08EE495E06CE375E083
:102DD0000E94B3161EE00BC0113141F0812F8D50BF
:102DE00060E040E00E94E110882329F41F5F163163
:102DF00098F31631B9F086B380958E7799F406C0B2
:102E000080917C01882359F0C79A0AC0809165019E
:102E100060E040E00E94E1108823B1F7F1CFC7984D
:102E20001EE0DCCF1F9108950F931F93CF93DF9384
:102E30008091770180FD51C08091780190E0817090
:102E40009070C2E0D0E0C81BD90BFE01EE0FFF1F4F
:102E5000EC5CFE4F01811281005F1F4F87859089D6
:102E6000081B190B0E94FA0EEC2FF0E0E053FB4F09
:102E70008491C82FD0E0CC0FDD1FCF58DB4F888165
:102E80009981081719074CF586B380958E7729F537
:102E900012C00E94FA0E8881998108171907ECF474
:102EA00086B380958E77C9F40DC080917C0188230C
:102EB00091F0C79AEECF89EA95E06AE975E00E9441
:102EC000B316E7CF8091650160E040E00E94E11019
:102ED000882379F7EACFC798DCCFDF91CF911F9194
:102EE0000F9108950F931F93CF93DF9380917A01F1
:102EF00084FD8DC08091650160E040E00E94E1109A
:102F0000882329F480917C01882309F473C0C79A2F
:102F10000E94BC6080E060E04CE850E020E000E00F
:102F20000E94EF5C80E068E345E851E02AE000E1C0
:102F30000E94075E0E948960809162010E947F600A
:102F40000E94A51500E00E94210E0F5F0032D9F704
:102F500020ED34E000E010E0F9018491E82FF0E08A
:102F6000EE0FFF1FEF58FB4F80819181892F99272A
:102F7000080F191F2F5F3F4FF4E0243D3F0761F713
:102F8000F894C091B60ED091B70E7894C057DE4F2A
:102F900027C00E94210E20ED34E040E050E0F9010E
:102FA0008491E82FF0E0EE0FFF1FEF58FB4F808178
:102FB0009181892F9927480F591F2F5F3F4FF4E0C8
:102FC000243D3F0761F786B380958E7701F5401762
:102FD0005107E9F411C080917C018823B1F0C79AB0
:102FE000F8948091B60E9091B70E7894C817D907CF
:102FF00081F60DC0C7988CCF8091650160E040E0FC
:103000000E94E110882359F7E6CFC798E9CFDF91F6
:10301000CF911F910F910895EF92FF920F931F93FD
:10302000CF93DF939FEF9ABB1BBA81E887BB8EE7F4
:1030300088BB8EE384BB81EC85BB11BA92BB88E070
:1030400082B987EF83B9109261001092620080E12B
:1030500080936400909365000E94446080E487B987
:1030600085E886B987E083BF8CE981BF87B7836035
:1030700087BF1FBC8AE08EBD10928B0082E88093D0
:103080008A0080917D00806280937D00EDB7FEB75D
:10309000329785E502C0808331974EE0EA3BF40722
:1030A00009F0C8F778948CE49BE2909337048093FE
:1030B000360489E10E947F600E949158109161015D
:1030C0000E945C160E9472170E944D160E94FA0E12
:1030D0000E9414170E94DF160E9441160E943216A9
:1030E0000E94A5150E94731D2DE088E190E00FB6A7
:1030F000F894A89581BD0FBE21BD8BEE94E060E0F1
:103100000E9471208AEB9BE30E94EF1581E00E94F0
:103110000F16809162010E947F6080917C0190E097
:1031200024EF31E0AC01429FC001439F900D529FBC
:10313000900D112490934F0480934E04809161016F
:10314000181719F081E00E94825680ED97E09BBD30
:103150008ABD80E186BF87B7806187BFF0906B042E
:10316000E2B680916B04F816C9F7E0917B01F0E0BC
:10317000EE0FFF1FE85FFE4F0190F081E02D0995F3
:103180000E943B0F0E94A51280916804833019F4BD
:10319000A8951092680420916B0432B780916B045B
:1031A0002817C9F71F2D00E08E2D90E0802B912B62
:1031B000D22FC0E0232F30E02C2B3D2B4091BF06B7
:1031C0005091C006281B390B2417350708F49A01C3
:1031D0003093C0062093BF06C1CF0F931F93062FD5
:1031E000122F206250E00E94246017FD07C08091DA
:1031F0008B0E602F46E7212F0E944C5D1F910F918F
:103200000895242F40914C040E94ED180895DF92F8
:10321000EF92FF920F931F93CF93DF93F82EE62E3A
:10322000EA01122FD02E57FF06C04DE20E944C5DDE
:10323000D095C195DF4F2D2D21238F2D6E2D4AE383
:103240000E944C5DCE016CE370E00E940266AB010F
:10325000212F20618F2D6E2D02E00E94455F12FD0F
:1032600002C021E101C02DE1CE016CE370E00E94BB
:103270000266AC0180E1D82A822F8F0D6E2D2D2D94
:1032800002E00E94455FDF91CF911F910F91FF9067
:10329000EF90DF90089599E289029001112435950D
:1032A00027953595279587FD815C86FB880F880BD0
:1032B00080F9992787FD9095281B390BC90108953E
:1032C000E9EAF1E090E080818150803108F49F5F6D
:1032D0003A9682E0E93EF807B1F7892F08956F9298
:1032E0007F928F929F92AF92BF92CF92DF92EF9296
:1032F000FF920F931F933B017C0100E010E08824B4
:10330000992464E670E080E090E066197709880906
:103310009909A80197010E94CF655B016C0182E3C6
:1033200090E0A0E0B0E0A80EB91ECA1EDB1EC801E6
:10333000B7010E94CF650E94CF65BC0188279927FD
:10334000A40193010E94CF6524E096958795779517
:1033500067952A95D1F7A60EB71EC81ED91EC601BD
:10336000B50124E630E040E050E00E941566C90156
:103370001F910F91FF90EF90DF90CF90BF90AF9093
:103380009F908F907F906F900895FF920F931F935F
:103390009C01AB016115710531F1FF2497FF05C058
:1033A000FF24F394309521953F4F57FF10C000E064
:1033B00014E066277727641B750BC801821B930BEB
:1033C0000E946F199801281B390BC90104C0C9015B
:1033D000BA010E946F19FF2011F49C0104C022273A
:1033E0003327281B390BC9011F910F91FF900895B6
:1033F000282FEBE8FCE080E09491921731F03196B1
:10340000992311F08F5FF8CF80E00895823410F097
:1034100080E20895E82FF0E0E557F34F8491089596
:1034200010923E06109237061092360610923B0616
:1034300010923A06109239061092380610923D0604
:1034400010923C060895AF92BF92CF92DF92EF9216
:10345000FF920F931F93CF93DF935B016C0100E00A
:1034600010E8C0E0D0E8EE24FF249E0140E050E0E8
:10347000CA01B9010E94CF65A616B706C806D906CB
:1034800010F4C027D127169507950894E11CF11C6C
:1034900080E1E816F10461F4CE01DF91CF911F9134
:1034A0000F91FF90EF90DF90CF90BF90AF90089575
:1034B000C02BD12BDACF9C0140E0683008F041E00E
:1034C00070E0442371F0CB010897FC0163E0EE0F3C
:1034D000FF1F6A95E1F7E80FF91FDF01A356BC4F04
:1034E0000AC0FB01EE0FFF1FEE0FFF1FE60FF71FD5
:1034F000DF01AB58BC4FFD01808120503C4F37FDB0
:103500000EC068E02030360784F0442319F484E0CC
:1035100090E002C088E090E0A80FB91F8C91992735
:1035200087FD9095582F442733C0442331F0432F13
:10353000B9017070660F771F04C0432F4695B9011B
:103540007170842F90E0FD01E80FF91F81819927A8
:1035500087FD90959B0135952795829FA001839FBC
:10356000500D929F500D11242081332727FD309557
:1035700080E092E0861B970B95958795BC01269F6E
:10358000C001279F900D369F900D1124480F591FA1
:10359000CA0169E170E00E940266CB0108956F9252
:1035A0007F928F929F92AF92BF92DF92EF92FF92A3
:1035B0000F931F93CF93DF938091A50181FD04C0EA
:1035C000A12C44E0B42E03C0A12C35E0B32E109101
:1035D0009F01110F185F9091A20184E69802C0012B
:1035E000112428E5E22E22E0F22EE80EF91E1A3010
:1035F00028F448EC5FEA4E195F090DC08853904FDC
:10360000212F30E0829FA001839F500D929F500D8B
:103610001124405C504EEBEEF4E0A1ECB6E0612FDB
:1036200070E0660F771F6E0F7F1F882499248A1819
:103630009B08662477246E187F08C8E5D2E0CE196F
:10364000DF0923C020813181C501DA2C092F2A1519
:103650003B051CF4C901D22E092F8D2D902F881502
:1036600099050CF4C401805A964F9301281B390B1D
:10367000420F531F1196FC92EE928C0F9D1F1396D2
:103680009C938E93129732961496E617F707D1F60D
:10369000E12FEE0FAE2FB0E0AA0FBB1FAF53B94F13
:1036A000ED92FC92EF5FAE2FB0E0AA0FBB1FAF53BD
:1036B000B94F4D935C93EF5FF0E0EE0FFF1FEF53B8
:1036C000F94F11821082DF91CF911F910F91FF90DE
:1036D000EF90DF90BF90AF909F908F907F906F9012
:1036E0000895A0912009B0912109FD018193919342
:1036F00013967C936E9312973296F0932109E09380
:1037000020090895882329F020E639E080E699E031
:1037100004C020EB34E080EB94E0A0912009B0914C
:103720002109FD018193919313963C932E93129757
:103730003296F0932109E093200908951F93182FE2
:1037400082700E94821B812F81700E94821B1F91B8
:103750000895CF92DF92FF920F931F93DF93CF9341
:1037600000D0CDB7DEB780919E01813019F0823054
:1037700019F404C010E003C011E001C012E0209170
:10378000EB043091EC0420503C4F220F331F80910A
:10379000ED049091EE0480509C4F880F991F892F63
:1037A000232F37FD20E087FD80E0022F20310CF031
:1037B0000FE0F82E2FE0281714F4EFE0FE2E2F2D47
:1037C000332727FD3095802F992787FD90950996FF
:1037D0008217930714F40F2D0950C02EDD24C7FC67
:1037E000D094275F3F4F2C153D051CF477EFF72E43
:1037F000F00E80E797E19093C2068093C10680EBBC
:1038000094E09093C4068093C30685EC96E0909371
:1038100021098093200980E00E949E1BA09120092D
:10382000B091210980E699E0FD018193919320EB0D
:1038300034E013963C932E931297DF0112969383F4
:10384000828313963C932E9312971496B09321097A
:10385000A0932009812F0E949E1B1195C60195956A
:103860008795959587958A830E949E1B3A81131BA5
:10387000802F0E949E1B101B8F2D992787FD9095EE
:10388000959587959595879589830E949E1B89813B
:10389000181B8F2D0E949E1B812F8F190E949E1B2B
:1038A00080E00E94821BE0912009F091210980E6CE
:1038B0009AEE92938293329611921192F09321098B
:1038C000E09320090F900F90CF91DF911F910F91FE
:1038D000FF90DF90CF900895A0912009B091210929
:1038E000882341F0FD0180E293E08193919380E48D
:1038F00096E007C0FD0180E496E08193919380E219
:1039000093E013969C938E9312973296F09321092D
:10391000E093200908950F931F93082F10E0802F44
:1039200081700E946C1C1F5F06951830C1F71F91B3
:103930000F910895482F18161CF01092E504089571
:10394000282F332727FD30958091E504281B310966
:10395000862F90E08217930724F4461B4093E504DA
:10396000089506972817390724F44A5F461B4093A9
:10397000E50408950F931F9381EC96E0909321093D
:10398000809320098091220991E089278093220960
:10399000882309F454C08091EB049091EC04885F73
:1039A0009B4FE4E096958795EA95E1F7803891057D
:1039B00010F08FE790E0182F2091ED043091EE0485
:1039C00037FD0FC0C901409675E0969587957A95A9
:1039D000E1F78034910510F08FE390E0082F006448
:1039E0000FC080E190E0821B930B65E09695879570
:1039F0006A95E1F78034910510F08FE390E0082F8D
:103A0000812F0E948B1C802F0E948B1C0127802FEE
:103A100090E09C0154E0359527955A95E1F744E0F4
:103A2000880F991F4A95E1F7822B0E948B1CA09169
:103A30002009B0912109FD0180E197E230C0809119
:103A4000EF049091F00480509C4F34E09695879558
:103A50003A95E1F78038910510F08FE790E0082F54
:103A60000068802F0E948B1C8EE80E948B1C8EE8C1
:103A7000082710E0C80124E0959587952A95E1F77D
:103A8000B4E0000F111FBA95E1F7802B0E948B1C48
:103A9000A0912009B0912109FD0180EB96E381936B
:103AA000919380EA9FE013969C938E93129732969F
:103AB000F0932109E0932009E0912009F091210978
:103AC00011921192F0932109E0932009E15CF640F4
:103AD000E03FF1052CF085E198E060E00E94AC1534
:103AE0001F910F91089580919E01843018F48130C8
:103AF00038F403C0843049F406C00E94CF1A0895F8
:103B00000E94A91B08950E94BA1C0895FF920F936A
:103B10001F93CF93DF93082F10919A01812F99273C
:103B200087FD909597FF03C0909581959F4FF82E44
:103B300024E228170CF03FC0209130093091310960
:103B400080912E0990912F09282B392B80913209D1
:103B500090913309282B392B80912D0990E0282B47
:103B6000392B80912A0990E0282B392B232B39F40B
:103B700010922A0917FF03C081E080932A091116C9
:103B80001CF4812F845202C0812F8C5D60E040E0E4
:103B90000E94E110282F882361F080912A09882350
:103BA00041F490E080912D09882309F491E09093ED
:103BB0002D0920932A09C0913009D091310921960D
:103BC000D0933109C0933009E0912E09F0912F096B
:103BD000E00FF11DF0932F09E0932E09F8948091E6
:103BE000B60E9091B70E7894209132093091330936
:103BF000821B930B8436910508F441C12C593F4F29
:103C00003093330920933209CF01BE010E94EE6543
:103C1000062F862F90E0AC014C9FC0014D9F900D68
:103C20005C9F900D1124E81BF90BF0932F09E09392
:103C30002E0910923109109230095FE05F151CF0D7
:103C400010922D0910C084E28F156CF011161CF42F
:103C5000812F8F5002C0812F815F60E040E00E9481
:103C6000E11080932D0980913406909135060196DC
:103C7000909335068093340660913606709137062E
:103C80006F5F7F4F7093370660933606002349F0CD
:103C900080913A0690913B06019690933B06809363
:103CA0003A0680912D09882349F080913806909139
:103CB000390601969093390680933806069540910F
:103CC0003C0650913D06400F511D50933D064093D8
:103CD0003C06E0919C01F0919D01F0934006E09339
:103CE0003F0630919A01832F992787FD909597FF82
:103CF00003C0909581959F4F882319F410923E063A
:103D000022C0813021F4CF01861B970B18C080316F
:103D100070F480FF07C0CA01A4E096958795AA9524
:103D2000E1F709C080913A0690913B0604C080916A
:103D3000380690913906AF01481B590BCA01909380
:103D4000400680933F0680913E06813041F08130ED
:103D500018F08230F1F40EC03323D9F017C08091EF
:103D60003F0690914006181619069CF0309789F08E
:103D700082E00DC080913F0690914006855C9F4F88
:103D80001CF483E080933E06309719F481E0809321
:103D90003E0620913F063091400680912B0990917C
:103DA0002C098217930709F45CC080913E0681308C
:103DB00009F047C040917A0142FF2BC0309749F18A
:103DC0002E31310511F482E003C02431310519F49C
:103DD0008093500406C02A30310519F02430310593
:103DE00024F4809144048093410443FF12C02E3197
:103DF000310549F02431310531F02A30310519F00F
:103E00002430310534F482E390E090934F048093A2
:103E10004E0441FF26C080919B0180FF04C0CF016A
:103E2000821B930B01C0C9016CE370E00E94EE6538
:103E3000892BB9F4809144048093410443FF11C05D
:103E40000AC0823071F480914504809341048091CE
:103E50007A0183FF06C082E390E090934F04809341
:103E60004E0430932C0920932B0980919B0180FFF5
:103E700006C0E21BF30BF0934006E0933F06DF9190
:103E8000CF911F910F91FF90089580919A019927EA
:103E900087FD909597FF03C0909581959F4F823045
:103EA0004CF180313CF5982F95958A3034F4892F68
:103EB0000E94B562E82FF0E004C0E92FFF27E7FD7C
:103EC000F0953197EE0FFF1FE954FB4F20813181B0
:103ED00080919A0187FF05C080E094E0821B930BDC
:103EE00003C0C90180509C4F26E0969587952A957E
:103EF000E1F702C080E090E00E94861D83E00E940E
:103F0000B562E82FF0E0EE0FFF1FEB54FB4F40814E
:103F1000518140505C4F60912609709127096F5F75
:103F20007F4F7093270960932609B6E05695479511
:103F3000BA95E1F78091240990912509480F591FFE
:103F40005093250940932409F8948091B60E9091DE
:103F5000B70E78942091280930912909821B930B80
:103F6000885E934098F1F8948091B60E9091B70EC8
:103F7000789490932909809328091092250910922A
:103F8000240910922709109226098091BB0690916E
:103F9000BC0601969093BC068093BB062091B9069F
:103FA0003091BA06F901EF5BF94FCA010E94EE6544
:103FB00060832F5F3F4F3093BA062093B9062837AE
:103FC000310520F01092BA061092B90608950F93A9
:103FD0001F93CF93DF9386E291E0EBE0F5E0DF0102
:103FE0009C011D9221503040E1F790913106C9EAC1
:103FF000D1E000E010E051E060E04881442309F4A2
:1040000040E1041750F5202F712F352F2F5F872F98
:1040100090E0FC01EE0FFF1FE80FF91FEE0FFF1FEE
:10402000DF01A55FBA4F11962C9311978C91816097
:104030008C93E35FFA4F30833F5F14966C937F5FFE
:10404000241720F3802F8095042F952F9F5F980FC2
:10405000180F140F940F592F515078817723D1F1F5
:10406000812F90E09C01220F331F280F391FD901A7
:10407000AA0FBB1FA55FBA4F11964C9311971596C7
:104080006C9315978C9182608C9313965C93139725
:104090005F5F8A85F9013196781741F4EE0FFF1FB3
:1040A000E55FFA4F108214961C920AC0EE0FFF1FB4
:1040B000E55FFA4F50835F5F6F5F14966C936150BA
:1040C000952F6F5F2A96603219F45093310604C021
:1040D0001F5F93CF90933106DF91CF911F910F9186
:1040E00008952F923F924F925F926F927F928F929C
:1040F0009F92AF92BF92CF92DF92EF92FF920F9377
:104100001F93DF93CF93CDB7DEB76A970FB6F894BE
:10411000DEBF0FBECDBF998F888F6A8F80914D040F
:10412000882309F486C08091E704882319F0815020
:104130008093E70480917901863F09F47AC08091E9
:104140004C04823308F475C08091390890913A0884
:10415000A0913B08B0913C080196A11DB11D809330
:10416000390890933A08A0933B08B0933C082091FB
:10417000B1073091B2078091B3079091B407280F2F
:10418000391F8091B5079091B607280F391F80918C
:10419000B7079091B807280F391F80913D0890917B
:1041A0003E08A901481B590BCA0157FF03C090954F
:1041B00081959F4F8150914064F030933E08209349
:1041C0003D081092390810923A0810923B0810925C
:1041D0003C08E0903908F0903A0800913B081091B3
:1041E0003C0860917901772767FD7095665F7F4F86
:1041F000882777FD8095982F20E737E140E050E051
:104200000E94CF656E157F058007910790F46FE3DC
:1042100070E080E090E0E622F722082319237AE09C
:10422000E716F1040105110521F4809145048093FE
:1042300041049090A701992009F468C08091780109
:1042400090E0FC01E170F0703196EE0FFF1FE95431
:10425000FB4F0190F081E02D9C012270307081FDB8
:1042600003C0A3E0B0E002C0A0E0B0E0AA0FBB1F13
:10427000A954BB4FCD90DC90232B19F4A3E0B0E000
:1042800002C0A0E0B0E07F010027F7FC0095102FEE
:10429000AA0FBB1FA954BB4F6D917C91882777FD56
:1042A0008095982F9601442737FD4095542F0E9402
:1042B000CF655B016C01C801B701A80197010E949D
:1042C000CF65A60EB71EC81ED91E692D70E080E00E
:1042D00090E00AE0660F771F881F991F0A95D1F7B3
:1042E00024E630E040E050E00E943766B901CA01A0
:1042F0000E94CF656A157B058C059D0538F4C601C3
:10430000B5010E94231A9A8B898B02C01A8A198AD6
:10431000A989BA89BD0180E090E024E630E040E060
:1043200050E00E94CF656C8B7D8B8E8B9F8B15E34D
:10433000612E11E0712EB5E44B2EB3E05B2E1B8A8B
:10434000CC24DD2488249924BA8D2B2E3324E1E05B
:104350002E2233241C2D8C2D0E94130E9C01D30180
:104360008D919C911197281B390B121613062CF472
:104370005C96ED91FC915D9705C0D3011E96ED9181
:10438000FC911F97E436F10514F4E4E6F0E0B9017E
:10439000882777FD8095982FAAE0660F771F881FE2
:1043A000991FAA95D1F79F01442737FD4095542FB7
:1043B0000E9437667901BCEF21303B0724F4E12CE1
:1043C0005CEFF52E07C0E4E020303E071CF0E12C46
:1043D00044E0F42EF401E954FB4FF182E082C7017E
:1043E0000F964F97F0F4F4E0CF16D1047CF4812FB0
:1043F0008F5F0E94B56290E0019721E030E002C03B
:10440000220F331F8A95E2F7C90108C081E090E0CE
:104410000C2C02C0880F991F0A94E2F73B89382BB5
:104420003B8B143008F08AC1222009F05EC08091D5
:104430009B0181FF5AC08601000F111F02591E4FB8
:10444000D80111968C911197807C09F44EC08C9103
:1044500085958595859561E040E00E94E11088236F
:1044600009F443C0D801EC91E770F0E0EE0FFF1FB4
:10447000DF01AA59BE4FE95AFB4F808191812D91EE
:104480003C91821B930B62E070E00E940266F60191
:10449000EE0FFF1FE159FE4F4081842F880F880FD8
:1044A00085958595992787FD9095FC016E9FC001A4
:1044B0006F9F900D7E9F900D11246FE170E00E9420
:1044C0000266CB01880F991F880F991F4295469568
:1044D0004695437050E04130510529F04230510576
:1044E00021F47C0102C0E80EF91E29893A89232BA8
:1044F00079F180917801282F30E0C90181709070A6
:104500000196C816D90651F021FD03C083E090E062
:1045100002C080E090E0C816D906D1F46091A701EE
:1045200070E080E090E01AE0660F771F881F991F07
:104530001A95D1F79701442737FD4095542F0E94D3
:10454000CF652C893D894E895F890E943766790144
:10455000D2018C9160E040E00E94E110882311F4C8
:1045600000E00BC0F201818160E040E00E94E110B8
:10457000882311F002E001C001E08091780190E011
:1045800081709070B2E0AB2EB12CA81AB90AAC14AD
:10459000BD0461F58091A001807F41F1C701805089
:1045A0009C4F62E070E00E940266CB01E02FF0E0D9
:1045B000EE0FFF1FEE0FFF1FA601440F551F9A01BC
:1045C00063E0220F331F6A95E1F7241B350BE20FDE
:1045D000F31FE75CFC4F6081772767FD70950E94B1
:1045E000C519DC01AA0FBB1F10E026C010E01E1485
:1045F0001F040CF011E0802F90E09601220F331F72
:10460000F901A3E0EE0FFF1FAA95E1F7E21BF30B00
:10461000880F991F880F991FE80FF91FE157FE4F68
:10462000E10FF11DE655FE4F6081772767FD70951C
:10463000C7010E94C519DC01E02FF0E0EE0FFF1F5B
:10464000EE0FFF1F9601220F331FC90143E0880FB1
:10465000991F4A95E1F7821B930BE80FF91FE15769
:10466000FE4FE10FF11DE455FE4F6081772767FD96
:1046700070956C597F4F882777FD8095982F9D0105
:10468000442737FD4095542F0E94CF6524E630E043
:1046900040E050E00E9437667901AC14BD04B9F5E2
:1046A0009091A001892F807F09F408C720E03CEF9A
:1046B000E20EF31E03C760E074E06E197F098827DD
:1046C00077FD8095982FF501EE0FFF1FE050FF4F0B
:1046D0000190F081E02D2081332727FD3095432F75
:1046E000532F23583F4F4F4F5F4F0E94CF6520E01D
:1046F00038E040E050E00E943766C901DA018030BE
:1047000038E0930730E0A30730E0B30761F4F40129
:10471000E050FF4F0190F081E02D8081282F33275A
:1047200027FD309501C09C01220F331FE1E0F0E02E
:10473000EC0FFD1FE80DF91D31832083F401EF54C8
:10474000F84FF182E0820894C11CD11C42E050E095
:10475000640E751E840E951E6EE070E0460E571EA8
:1047600077E0C716D10409F0F5CD4091A4018B89FB
:104770004823242F30E080913F0890E08227932740
:1047800082239323892B21F0809143048093410459
:1047900040933F0880E094E09093C0078093BF0768
:1047A0009093C2078093C10709EC402E07E0502E7A
:1047B000B20140E050E0FA01E95AFB4FDA01AC5C8B
:1047C000BE4F80819181D2962D913C91D397821BCF
:1047D000930B880F991FDB018D939D93BD014E5F55
:1047E0005F4F4830510539F780915F049091600424
:1047F000880F991F9093D2078093D107809161040D
:1048000090916204880F991F9093D4078093D307E7
:104810008091630490916404880F991F9093D60748
:104820008093D5078091650490916604880F991F45
:104830009093D8078093D707E9EFF7E0FA87E987E5
:10484000A9EDB7E0808191818D939D93349628E006
:10485000E933F207B9F79090A701992009F4C1C094
:104860008091780190E0FC01E170F0703196EE0FDC
:10487000FF1FEF54F84F0190F081E02D9C01227052
:10488000307081FD03C0A3E0B0E002C0A0E0B0E062
:10489000AA0FBB1FAF54B84FCD90DC90232B19F457
:1048A000A3E0B0E002C0A0E0B0E07F010027F7FC89
:1048B0000095102FAA0FBB1FAF54B84F6D917C917C
:1048C000882777FD8095982F9601442737FD4095DE
:1048D000542F0E94CF655B016C01C801B701A8018C
:1048E00097010E94CF65A60EB71EC81ED91E692D5E
:1048F00070E080E090E04AE0660F771F881F991F04
:104900004A95D1F724E630E040E050E00E94376657
:10491000B901CA010E94CF656A157B058C059D050A
:1049200008F05FC0C601B5010E94231AE09078012B
:10493000FF248701017010700F5F1F4F2091A701A6
:10494000A22EBB24CC24DD243AE0AA0CBB1CCC1C38
:10495000DD1C3A95D1F7A0E0B0E0BC01CD0124E622
:1049600030E040E050E00E94CF653B014C01000F79
:10497000111F0F54184FD8012D913C91442737FD3A
:104980004095542FC601B5010E94CF65A401930143
:104990000E943766F80131832083E1FC05C0E3E023
:1049A000F0E003E010E004C0E0E0F0E000E010E040
:1049B000000F111F0F54184FEE0FFF1FEF54F84F49
:1049C00020813181442737FD4095542FC601B50120
:1049D0000E94CF65A40193010E943766D8012D93F0
:1049E0003C934091A501842F807E09F4EFC0209173
:1049F000780130E0F901E170F0703196EE0FFF1FA1
:104A0000DE01AE0FBF1FEF54F84F1196CD90DC9032
:104A1000129780819181C80ED91EC9018270907051
:104A200021FD03C0E3E0F0E002C0E0E0F0E0EE0FC3
:104A3000FF1FEF54F84F20813181892B19F4E3E0F7
:104A4000F0E002C0E0E0F0E0EE0FFF1FEC0FFD1F12
:104A500001811281020F131FE091A601EE2319F4C8
:104A6000EE24FF2407C0F0E0EE0FFF1FE155F84FE2
:104A7000E080F18042FF04C0D094C194D108D39467
:104A800043FF03C0109501951F4F44FF04C0F094ED
:104A9000E194F108F3948091A50182958695877041
:104AA00090E08230910589F18330910524F40197DB
:104AB00009F08CC008C08330910509F45BC00497ED
:104AC00009F084C06FC0C80160E072E00E94026615
:104AD000FB01C80168E070E00E9402669B01C8010A
:104AE00060E870E00E940266A801421B530B9A0125
:104AF000261B370B2E1B3F0BC7018C199D0990936A
:104B0000C4078093C307C60121C0C60160E072E0FC
:104B10000E940266FB01C60168E070E00E94026626
:104B20009B01C60160E870E00E940266C601821B1C
:104B3000930B9C01261B370B2E1B3F0BC701801BC1
:104B4000910B9093C4078093C307C80162E070E0A3
:104B50000E9402666E0D7F1DCB01820F931F909302
:104B6000C6078093C507621B730B7093C8076093D9
:104B7000C7072CC0C7018C199D099093C407809367
:104B8000C307C7018C0D9D1D9C01200F311F309361
:104B9000C6072093C507801B910B9093C80780938D
:104BA000C70714C0C7018C199D099093C40780934F
:104BB000C307C701800F911F9093C6078093C50755
:104BC000E01AF10AF092C807E092C70780914D04FD
:104BD000882311F00E94451F80E4E9EFF7E0DF0130
:104BE0001D928A95E9F7BA8DB1FF28C0A1EBB7E015
:104BF000FE01319620E030E042E050E08091780103
:104C000090E081709070BA01681B790B621773078E
:104C100029F011961C921E92118210822F5F3F4F35
:104C2000129632962430310549F7D2011D921D9219
:104C30002D01B1ED4B16B7E05B06B9F781E793E0C4
:104C4000909301018093000101969093030180935A
:104C500002010196909305018093040101969093BF
:104C600007018093060150E0252E59E0352E40E8DB
:104C7000642E48E0742E30E4432E38E0532E188A18
:104C80001F868F850E94830D5C01FC01808181500D
:104C9000803108F0BEC2838161E040E00E94E110F3
:104CA000D1019C918823B9F4192F1C92F5019181AF
:104CB000892F8850823008F09BC287818E708430A3
:104CC00009F496C2993019F0CC24DD244FC0C12CD0
:104CD0002CEFD22E4BC010E0992309F411E081E0B3
:104CE000D1018C93F5013181832F8150A82FB0E041
:104CF000FD01EE0FFF1FEF54F84FC080D1808431CB
:104D000058F0FF858F1740F4AA0FBB1FAA0FBB1FD7
:104D1000A750B84FCD90DC90D50117962C91822FDB
:104D2000807381F0822F8295837090E00197E1E09B
:104D3000F0E002C0EE0FFF1F8A95E2F7CF01F8897D
:104D4000F82BF88B26FF12C0353080F4E32FF0E00B
:104D5000EE0FFF1FE250FF4F28E030E0A20EB31E1F
:104D6000B182A08248EF5FEFA40EB51ED501179661
:104D70008C91179786FD08C018968C91882321F096
:104D80000E944B19C80ED91EF5018681882321F493
:104D90008581882309F443C1D3016D917D918D9163
:104DA0009C91112389F420E031E040E050E00E9422
:104DB000376650954095309521953F4F4F4F5F4F47
:104DC0004601820E931E5AC0F50187818E70843091
:104DD00049F5E081F0E0EE0FFF1FE952F84F6081E6
:104DE0007181882777FD8095982F20E034E640E098
:104DF00050E00E94CF65D3016D937D938D939C937A
:104E00001397F5012281222369F0332727FD30957E
:104E1000432F532F0E943766D3012D933D934D931B
:104E20005C931397F301608171818281938120E00B
:104E300031E040E050E00E94376650954095309553
:104E400021953F4F4F4F5F4F4601820E931E8114B5
:104E50009104A1F0D50115968C9197FE82958F70E3
:104E600090E0FC0124E630E0E29FC001E39F900D5A
:104E7000F29F900D1124D2018D939C93F201208119
:104E800031812115310551F080914D04882309F4B9
:104E9000BAC02150304031832083B5C081149104C1
:104EA00009F4BDC0F5018681882309F4B8C080915A
:104EB0004D04882309F475C02281222329F460E07F
:104EC00070E080E293E017C0332727FD309537FF6D
:104ED00003C0309521953F4F332727FD3095432F51
:104EE000532F60E070E080E293E00E943766C901D2
:104EF000DA01BC01CD01D50116962C9118141904C4
:104F00000CF52F70422F50E041155105D9F1E4E620
:104F1000F0E04E9F90014F9F300D5E9F300D1124A9
:104F2000442737FD4095542F0E94376679018A0146
:104F3000F30180819181A281B381E80EF91E0A1FDD
:104F40001B1F29C022952F70422F50E0411551059B
:104F5000C9F0A4E6B0E04A9F90014B9F300D5A9FE4
:104F6000300D1124442737FD4095542F0E94376699
:104F7000F301E080F18002811381E21AF30A040B4D
:104F8000150B09C0C601AA2797FDA095BA2FEE24DC
:104F9000F82E092F1A2FD301ED92FD920D931C9339
:104FA0001397F301608171818281938176010027DB
:104FB000F7FC0095102F1814190464F420E031E078
:104FC00040E050E00E943766E216F306040715073A
:104FD00064F019C020E031E040E050E00E94376604
:104FE0002E153F054007510774F4C601AA2797FD07
:104FF000A095BA2FBA2FA92F982F8827F301808365
:105000009183A283B383D3016D917D918D919C9106
:1050100020E031E040E050E00E9437666901F50190
:105020006481633071F1643028F4613051F0623092
:10503000A8F448C0653081F1653050F16630B1F5B3
:105040002EC0D50111968C91893029F4D7FC2AC045
:10505000E0E0FEEF0DC0D7FE35C02EC0D5011196A1
:105060008C91893051F41C141D044CF1E0E0F2E005
:10507000CE0EDF1ECC0CDD1C25C01C141D04E4F07C
:1050800021C0D7FE1FC0D094C194D108D3941AC0B8
:105090001C141D04A4F010C0D7FE0EC003C01C14C5
:1050A0001D046CF0C12C4CEFD42E0CC06750C6010F
:1050B0000E945B1A6C0106C0CC24DD2403C0C12C05
:1050C00034E0D32ED50117968C91179780FD14C02C
:1050D0001196EC91EE2381F0E53070F4F0E0319719
:1050E000EE0FFF1F21E030E02C0F3D1FE20FF31FFA
:1050F00080819181C80ED91EB601882777FD8095E1
:10510000982FD50112962C91332727FD3095432FE8
:10511000532F0E94CF656B017C01F5018781869535
:105120008770282F30E02130310591F080812230C6
:10513000310509F049C0E82FF0E0EE0FFF1FEE0F38
:10514000FF1FEB50F84FC082D182E282F38250C041
:10515000D5012C91022F10E0000F111F000F111F1D
:105160000B50184FC701B60124E630E040E050E094
:105170000E943766CA01B901F8012081318142815C
:1051800053810E94CF65D8016D937D938D939C933D
:105190001397F5016081062F10E0000F111F000F1B
:1051A000111F0B50184FD8016D917D918D919C91DD
:1051B00020E034E040E050E00E943766F8012083B0
:1051C00031834283538314C0E82FF0E0EE0FFF1FBA
:1051D000EE0FFF1FEB50F84F80819181A281B381C8
:1051E0008C0D9D1DAE1DBF1D80839183A283B38353
:1051F000FF85FF5FFF870894211C311C24E030E00D
:10520000620E731E42E050E0440E551EF03209F06B
:1052100038CDF8942091B60E3091B70E7894488925
:1052200040FF06C0222321F480914304809341046F
:1052300041FF0CC0C90190708034910519F0883489
:10524000910521F4809143048093410442FF0FC0F3
:10525000C90190708038910531F08838910519F0B6
:105260008039910521F48091430480934104E9EE53
:105270002E2EE2E03E2E6CE074E07C876B871E866B
:105280001D86A985BA858D909D90AD90BC90C50175
:10529000B40124E630E040E050E00E943766E98542
:1052A000FA852083318342835383ED85FE85EB535A
:1052B000FB4FC90120839183D10113962D913C911D
:1052C000149711968C91BAE08B0230011124E8EE0C
:1052D000F3E06E0E7F1ED1018C91BAE08B022001AB
:1052E0001124E8E1FCEF4E0E5F1EC301562D492F3D
:1052F000261537051CF4C901522F492F852F942FED
:105300008C01041515050CF4820181149104A1048B
:10531000B10469F19801442737FD4095542F1814C2
:1053200019041A041B0454F4B301882777FD8095EF
:10533000982F621B730B840B950B0BC0C201AA271D
:1053400097FDA095BA2F281B390B4A0B5B0BCA019E
:10535000B901A50194010E94CF6520EA36E841E039
:1053600050E00E943766C901DA014C015D01C801B5
:1053700075E0959587957A95E1F7800F911F9801D3
:10538000232F330F330B2595820F931F000F012F0F
:10539000001F110B801B910B6C01EE24D7FCE094D5
:1053A000FE2CC30145E0959587954A95E1F7860D5A
:1053B000971DA20135E0559547953A95E1F7B20161
:1053C000660F672F661F770B440D551D9301232F22
:1053D000330F330B2595820F931F660C672C661CC9
:1053E0007708861997098C01222717FD2095322FFF
:1053F000C80CD91CEA1CFB1C0C151D052E053F050D
:1054000014F468017901461B570B759567957595DE
:105410006795460F571FCA01AA2797FDA095BA2F77
:1054200087017601E816F9060A071B0714F47C01C8
:105430008D01D10112968C91882341F01095009531
:10544000F094E094E11CF11C011D111DEB85FC851D
:105450008081882389F060E040E00E94E110882389
:1054600059F0AB85BC8511968C910E944B197C013B
:105470000027F7FC0095102FF894E88DF98D2D8505
:105480003E85E20FF31FF182E082789449855A85C8
:105490004C5F5F4F5A8749872E5F3F4F3E872D876E
:1054A00065E070E0260E371E8B859C8502969C87F2
:1054B0008B874953584009F0E4CE04C09F7009F02F
:1054C000FAC825C96A960FB6F894DEBF0FBECDBFE5
:1054D000CF91DF911F910F91FF90EF90DF90CF90D0
:1054E000BF90AF909F908F907F906F905F904F9004
:1054F0003F902F9008950E946019803210F480E050
:10550000089588E790E30E94EF1581E00895EF92F7
:10551000FF920F931F93DF93CF93CDB7DEB7C054A5
:10552000D0400FB6F894DEBF0FBECDBF7E01089409
:10553000E11CF11CC70163E00E9471208E010F5D28
:105540001F4FC80161E00E947120EBEEF2E0B7014D
:105550007801018112818081DB014D915C91D7013D
:105560002D913C91882321F0CA01821B930B03C02B
:10557000C901841B950B800F911FB3E0883E9B07E8
:105580001CF088EE93E006C02CEF8931920714F4EA
:1055900088E19CEF9283818335966E5F7F4F82E036
:1055A00090E0E80EF91E93E0EB33F90791F6809155
:1055B000780190E08170907022E030E0281B390B78
:1055C00016AA2130310511F01092720322303105F4
:1055D00011F0109273031092740382E00E948256BD
:1055E0008091430480934104C05CDF4F0FB6F89470
:1055F000DEBF0FBECDBFCF91DF911F910F91FF9006
:10560000EF9008950F93982F83E0489FA0011124F5
:105610004F5E5F4E00E0211101E0892F23E00E94E0
:10562000075E0F9108950F93982F83E0489FA00184
:105630001124485E5F4E00E0211101E0892F23E034
:105640000E94075E0F910895FF920F931F93F82E0B
:10565000162F042F80E860E0412F50E0202F0E9499
:1056600024601A3010F485E701C08FE660E04FE255
:10567000202F0E944C5D1A3010F485E701C08FE6A0
:105680004F2D50E04F5F5F4F60E0202F0E9424605D
:105690001F910F91FF9008952F923F924F925F922A
:1056A0006F927F929F92AF92BF92CF92DF92EF92D2
:1056B000FF920F931F93DF93CF930F92CDB7DEB777
:1056C000909076019FE09922813809F479C0823860
:1056D00090F4833209F441C0843230F48032E1F036
:1056E000823209F08EC049C0813609F45DC080382D
:1056F00009F087C01EC0843811F1853838F482382B
:1057000009F44CC0833809F07CC042C08538F9F0F8
:105710008F3B09F076C069C0A5E09A1609F071C008
:1057200090E080915304882309F491E0909353040E
:105730001FC00E94D00D0E94EF1580E805C08AEBC3
:105740009BE30E94EF1584E80E94FC615AC084E24A
:1057500094E30E94EF1585E8F7CF892D8F5F809342
:105760007601863010F01092760181E00E94825618
:10577000809142048093410444C0992029F09A9476
:10578000909276019394F1CF85E080937601EDCFEE
:1057900086E39FE20E94DA0D83E8D6CF81EE9FE296
:1057A0000E94DA0D82E8D0CF80913E06823021F44B
:1057B00083E080933E06DCCFB5E09B1611F512C066
:1057C00010923E06109237061092360610923B0653
:1057D00010923A06109239061092380610923D0641
:1057E00010923C060E940C0EC3CF81E00E94FC6127
:1057F00083E00E94FC6182E00E94FC6181E0809372
:1058000023098091A30160E040E00E94E110882319
:1058100031F080912309882311F40E94872A809116
:10582000A30160E040E00E94E11080932309809191
:105830007601803108F0D8C090914C0480916301CA
:10584000981710F004E001C006E0BFE8EB2EB1E0CD
:10585000FB2E1AE0812F60E0F70141917F0124E0E7
:105860000E944C5D155F1837A9F7006884E260E17B
:10587000402F0E94011984E268E146E50E94035E20
:1058800080913E06882399F0823011F004E001C037
:1058900006E040913F065091400680E660E1202FEF
:1058A0000E94071983E368E140E00E941B154091C4
:1058B000A10113E04102A0011124415D574F84E290
:1058C00060E123E000E00E94075E4091A001429564
:1058D000407F45954595459545954102A001112488
:1058E000485D574F89E360E123E00E94075EA0E036
:1058F000CA2EA1E0DA2EAA24BB24FFE1EF2EF50187
:10590000EA5EFE4FF080D601ED91FC91E081E7FD6B
:10591000ED5FE595E595E43E0CF4E4EE0E2FED31F8
:105920000CF00CE1F501EE5EFE4F80818823F9F06A
:105930008F2D64E046E30E94EF5E8091780190E055
:105940008A259B2580FD04C08091A0018F7061F4A1
:105950008F2D81506EE143E00E94EF5E8F2D8F5FAF
:105960006EE143E00E94EF5E9E2D901B14C08F2DD0
:105970008B516BE346E30E94EB5E1F2D1150812F8C
:105980006AE343E00E94EB5E812F6CE343E00E94F8
:10599000EB5EF00E9BE31F2D1350092F0350812F58
:1059A000602F47E099830E94EF5E99819D5F812F70
:1059B000692F47E00E94EB5E8F2D8D5F602F47E0DF
:1059C0000E94EF5E812F602F47E00E94EB5E0894FB
:1059D000A11CB11CE2E0F0E0CE0EDF1EF4E0AF1639
:1059E000B10409F08CCF27C080E060E04FE851E0BF
:1059F0002AE001E10E94075E90914C0480916301CE
:105A0000981710F041E001C043E084E560E00E9497
:105A1000011980913E06882371F0823011F001E077
:105A200001C003E040913F06509140068FE660E0E0
:105A3000202F0E94071981E0891508F49AC0EBEE27
:105A4000AE2EE4E0BE2E222433247BE1472E512CDF
:105A500069E1662E712C222DD501ED90FC909920E4
:105A600029F0B1E09B1609F077C02BC0C10183700B
:105A70009070849D8001859D100D949D100D1124C2
:105A80002695269530E02B5F3F4F53E0220F331FC2
:105A90005A95E1F7C70160E270E00E940266FB01DF
:105AA000C70160E870E00E9402666E1B7F0BE60E85
:105AB000F71E802F8F5D622FA70120E20E942460D5
:105AC0004BC0243010F01EE501C012E2910123709A
:105AD0003070C901880F991F880F991F820F931F7B
