:100000000C94150E0C943D0E0C943D0E0C943D0E6C
:100010000C943D0E0C943D0E0C943D0E0C943D0E34
:100020000C943D0E0C943D0E0C943D0E0C943D0E24
:100030000C948C120C943D0E0C943D0E0C940F13EA
:100040000C94BB110C943D0E0C9465750C9490733C
:100050000C943D0E0C943D0E0C943D0E0C943D0EF4
:100060000C943D0E0C94CC110C943D0E0C943D0E52
:100070000C943D0E0C943D0E0C943D0E0C943D0ED4
:100080000C943D0E0C943D0E0C943D0E80400000EF
:100090000000000000000000000000000000000060
:1000A0000000000000000000000000000000000050
:1000B0000000000000000000000000000000000040
:1000C0000000000000000000000000000000000030
:1000D00000000000000000000080C0E0E0F0F8F840
:1000E000FCFCFCF8F8F8F040000000000080808084
:1000F0000000000000000000000000000000000000
:1001000000000080C0C0E0E0E0F0F0F0E0C00000DF
:10011000000000C0F8FFFF9F87838383838383836E
:10012000838383838383838383838383838383031F
:100130008380838383838383838383838383838392
:10014000838383838383838383C3E3733F1F00009D
:10015000000080E0F0F8FCFEFFFFFFFF7F3F1F1F65
:100160000F0783C3E1E1E0E0C0000E1F3F7F7FFF88
:10017000F3E0E0800000000000000000000080F0DC
:10018000FCFEFFFFFFFF7F3F0F03010101000000A6
:1001900080F0FEFFFFC7C1C1C1C1C1C1C1C1C1C1A2
:1001A000C1C1C1C1C1C1C1C1C1C1C1C101C1F0FE93
:1001B000FF3F0F070F0D0D0D1D19191919313131A1
:1001C0003171616161E1C1C1C18100000080E0F86D
:1001D000FCFFFFFFFF2F170F038180C0E0F0F8FC4A
:1001E000FEFFFFFFFFFFFF7F010000000000000097
:1001F00001010307070E1E1C3870E0F0F8FEFFFF38
:100200007F1F0F030001000000000000000000003D
:1002100000000000000000000000000000000000DE
:1002200000000000000000000000000000000000CE
:1002300000000000000000000000000000000000BE
:100240000000000000000000000000007EFFFFFF33
:10025000FFFFFFFBF8FCFCFEFF7F3F1F0F07C3FF04
:10026000FFFFFFFFFF7F070000000000000000000D
:100270000000000000C0E0F8FEFFFF7F1F0F1F3DE1
:100280007CF8F8F0E08000000000000000000000B2
:10029000000000000000000000000000000000005E
:1002A000000000000000000000000000000000004E
:1002B000000000000000000000000000000000003E
:1002C000000000000000000000000000000001012C
:1002D000010101030707070301000000E0FCFFFF25
:1002E000FFFFFF1F030000000000000000000000EF
:1002F000C0F078DE2713090E07030000000000009D
:10030000000001030F7FFFFC7878F8000000000078
:10031000000000000000808080808080808080005D
:1003200080800080800000000000000080808080CD
:1003300080808080808080808080808080800000BD
:1003400000000000000000000000000000000000AD
:1003500000000000000000000080F0FEFFFFFFFF33
:100360003F0F010000000000000000C0E0381E0F39
:100370000300010000000000000000000000000079
:100380000000000000000000000303010000000066
:100390000000000000000E0E020202020203030031
:1003A0000F0F000F0F080808080808080F0F0808AB
:1003B0000808080F0F000000000F0F0000000000E9
:1003C000000000000000000000000000000000002D
:1003D00000000000000000C0F8BFFFFFFF1F7F010A
:1003E0000000000000000000F0FCFF7F78300000FB
:1003F00000000000000000000000000000000000FD
:1004000000000000000000000000000000000000EC
:1004100000000000000000000000000000000000DC
:1004200000000000000000000000000000000000CC
:1004300000000000000000000000000000000000BC
:1004400000000000000000000000000000000000AC
:100450000000000000301C070E0F07010000000024
:10046000000000000000000000000000000000008C
:10047000000000000000000000000000000000007C
:10048000000000000000000000000000000000521A
:10049000554420454C45205448522041494C205257
:1004A00055442054485220454C452041494C204158
:1004B000494C20454C452054485220525544204137
:1004C000494C2054485220454C4520525544200068
:1004D00003010200040506070000000000000108F7
:1004E0001E640101081E6401010F32960A0A1E32C1
:1004F000966D656E75537461636B206F7665726679
:100500006C6F77006D656E75537461636B20756EEB
:10051000646572666C6F7700707265737320616ECC
:1005200079204B657900414C455254004D45535359
:10053000414745004C4F4144494E4700506C65616E
:100540007365207265736574207468656D005377F8
:10055000697463686573206E6F74206F666600202F
:100560004F6C642056657273696F6E20454550521A
:100570004F4D202020434845434B20534554544978
:100580004E47532F43414C494200416C61726D7399
:100590002044697361626C65640052657365742000
:1005A0007468726F74746C65005468726F74746CE4
:1005B00065206E6F742069646C650050726573739A
:1005C00020616E79206B657920746F20736B697080
:1005D00000414C45525400454550524F4D206C6FE0
:1005E00077206D656D004F46464142535255735218
:1005F0005525454C73454C25544873544825414C6A
:1006000073414C2550312050312550322050322535
:1006100050332050332500544852525544454C45E0
:1006200049443049443149443241494C4745415499
:10063000524E5357315357325357335357345357FE
:100640003553573653573753573853573953574104
:10065000535742535743004F4646004F4E20002DFC
:100660002D2D002D2D2D204348312043483220438D
:1006700048332043483420434835204348362043FC
:1006800048372043483820434839204348313043D5
:1006900048313143483132434831334348313443A0
:1006A0004831354348313643483137434831384380
:1006B000483139434832304348323143483232437B
:1006C0004832334348323443483235434832364364
:1006D0004832374348323843483239434833300090
:1006E0005031202050322020503320204D415820BE
:1006F00046554C4C43594331435943324359433394
:1007000050504D3150504D3250504D3350504D346B
:1007100050504D3550504D3650504D3750504D384B
:100720004348312043483220434833204348342053
:100730004348352043483620434837204348382033
:1007400043483920434831304348313143483132FE
:1007500043483133434831344348313543483136D7
:100760004144312041443220002D2D2D2D0056458D
:1007700052533A2056312E343839312D6572657A0C
:1007800000444154453A2032372E30392E32303130
:10079000310054494D453A2031373A30353A3435F5
:1007A000002053564E3A207472756E6B2D7235349C
:1007B0003600204D4F443A204652534B5920205387
:1007C000504B200012081200081C0808081C0800E2
:1007D00000082200490022080000000000227F22B9
:1007E00000000008220049002208000008220049F9
:1007F000002208000000227F2200000000000822E2
:1008000000490022080000081C0808081C08001CF9
:1008100044BF468A45E74C805661614A43F94EA978
:1008200054F85E295EF05A173C683AD14008419767
:1008300041194270756C736520746162206F766532
:1008400072666C6F77004E4F2044415441005478DB
:100850003D0052783D0041203D004C6F6E3D004C04
:1008600061743D0054783D0052783D0041313D00B7
:10087000416C743D0052504D3D0054323D005431A6
:100880003D0054783D0052783D0041203D0020203D
:100890002054546D00457870457846466E654D6528
:1008A0006443727300544F54005354250053544B07
:1008B0000054535700544D450053544154005B4D70
:1008C000454E555D20746F207265667265736800D1
:1008D000537461636B202020202020202020206280
:1008E00000746D61696E20202020202020202020AF
:1008F0006D7300746D7231204A69747465722020C2
:100900002020757300746D72314C6174206D696EB6
:1009100020202020757300746D72314C6174206D3D
:100920006178202020207573005354415432004DCB
:100930006F646500416C61726D205761726E696E03
:1009400067004D656D6F7279205761726E696E67D1
:1009500000537769746368205761726E696E67002F
:100960005468726F74746C65205761726E696E673B
:100970000053706C6173682073637265656E004F1D
:100980004646004C69676874206F6666206166742D
:100990006572004C696768742073776974636800D6
:1009A000466C617368206F6E2062656570004265F9
:1009B000657020636F756E74646F776E004D696E3D
:1009C0007574652062656570005468726F74746C2C
:1009D0006520726576657273650053494E474F53C3
:1009E0004D5046494C540046696C74657220414430
:1009F0004300496E616374697669747920616C6142
:100A0000726D0042617474657279207761726E69EB
:100A10006E6700436F6E7472617374004861707426
:100A2000696320537472656E677468005370656102
:100A30006B65722050697463680051756965744E06
:100A40006F4B65794E6F726D204C6F6E6720784CDE
:100A50006F6E6700426565706572004F776E6572F4
:100A6000204E616D6500524144494F205345545515
:100A7000500043616C004D756C7469706C696572EF
:100A800000636831636832636833636834006F669B
:100A900066202B3D203A3D006D6F646520202025A7
:100AA000207372632020737700536C617665005465
:100AB0005241494E4552000003030303005645527C
:100AC00053494F4E005472696D2D202B00204D6507
:100AD0006E75204578697420446F776E202020550C
:100AE000705269676874204C6566740044494147D8
:100AF00000424700414E4100205B4D454E555D2070
:100B00005748454E20444F4E452000204D4F5645F6
:100B100020535449434B532F504F54532000205BD4
:100B20004D454E555D205748454E20444F4E45207B
:100B300000202020534554204D4944504F494E54E5
:100B400020202000205B4D454E555D20544F205302
:100B50005441525420200053544152542043414C9C
:100B60004942524154494F4E200043414C49425260
:100B70004154494F4E0066726565004D4F44454CE7
:100B800053454C00434F4C20446972656374696F50
:100B90006E0041494C20446972656374696F6E0050
:100BA000454C4520446972656374696F6E005377E4
:100BB0006173682052696E6700436F6C6C65637483
:100BC000697665002D2D2D20202031323020202007
:100BD000313230582020313430202020393020204C
:100BE0002020005377617368205479706500484570
:100BF0004C49205345545550000044454C455445FC
:100C0000204D4F44454C2020205B4D454E555D0006
:100C1000543254685472696700547261696E657227
:100C200000452E204C696D69747300504F534E453A
:100C3000470053686966742053656C0050504D201E
:100C400046724C656E202020206D536563007553FD
:100C500065630034434820364348203843482031F8
:100C600030434831324348313443483136434800F9
:100C700050504D20202050585820202053494C5689
:100C80005F4153494C565F4253494C565F4354525F
:100C9000414330390050726F746F005245544131F6
:100CA0003233004265657020436E74005472696D82
:100CB00020537700457870202020457846696E657E
:100CC00046696E6520204D656469756D436F61727C
:100CD0007365005472696D20496E6300542D457828
:100CE000706F00542D5472696D00436F756E7420DF
:100CF000446F776E436F756E7420557020200054DA
:100D0000696D657220005472696767657200546985
:100D10006D6572004E616D6500534554555000007D
:100D200009010000000000000602004475706C69B3
:100D3000636174696E67206D6F64656C005B4D451F
:100D40004E555D20205B455849545D005945532060
:100D5000202020204E4F0044454C455445204D4F07
:100D600044454C004455504C4943415445204D4F57
:100D700044454C00204142434445464748494A4B7C
:100D80004C4D4E4F505152535455565758595A6125
:100D900062636465666768696A6B6C6D6E6F7071BB
:100DA00072737475767778797A30313233343536B8
:100DB0003738395F2D2E006578702020252020736C
:100DC000773120737732004558504F2F445200003E
:100DD0000344522048696768004452204C6F7700F2
:100DE0004452204D69640044725377320044725378
:100DF000773100576569676874004578706F004502
:100E000058504F2F445200002D2D2D783E30783C05
:100E1000307C787C663E30663C307C667C6331207A
:100E200063322063332063342063352063362063CC
:100E300037206338206339206331306331316331C7
:100E400032633133633134633135633136002B2AF9
:100E500052004D49584552005072657373205B45EE
:100E60005849545D20746F2061626F7274004D6147
:100E700078206D69786572732072656163683A20C5
:100E80000044454C455445204D4958205B4D454E46
:100E9000555D00536C6F772020557000536C6F7751
:100EA0002020446F776E0044656C61792055700096
:100EB00044656C617920446F776E00416464202042
:100EC0002020204D756C7469706C795265706C616E
:100ED000636520004D756C747078004F464600576E
:100EE00061726E696E6700537769746368002D2DB7
:100EF0002D783E30783C307C787C663E30663C30E5
:100F00007C667C633120633220633320633420634A
:100F100035206336206337206338206339206331FE
:100F200030633131633132633133633134633135AE
:100F300063313600437572766573004F4E204F461D
:100F400046005472696D004F46464F4E2000466C75
:100F50004D6F64657472696D004F666673657400E9
:100F6000466D5472696D56616C00576569676874A7
:100F700000536F757263650045444954204D4958CC
:100F80002000494E53455254204D495820002D2DE4
:100F90002D2D202020763E6F66732020763C6F66D4
:100FA0007320207C767C3E6F66737C767C3C6F661B
:100FB00073414E44202020204F52202020202058D2
:100FC0004F522020202076313D3D7632207631214F
:100FD0003D76322076313E7632202076313C7632B4
:100FE000202076313E3D76322076313C3D763220EF
:100FF00000535700435553544F4D205357495443C2
:10100000484553000002534146455459205357491F
:101010005443484553000002010203040102040343
:101020000103020401030402010402030104030298
:101030000201030402010403020301040203040188
:101040000204010302040301030102040301040278
:101050000302010403020401030401020304020168
:101060000401020304010302040201030402030158
:101070000403010204030201434C454152204D493F
:10108000584553205B4D454E555D00205245544117
:10109000004368616E6E656C204F72646572005427
:1010A000454D504C41544553002D2D2D59656C4FE5
:1010B000726752656400547852535349616C726D83
:1010C0000054454C454D4554525932000002023CF3
:1010D0003E002D2D2D59656C4F726752656400617D
:1010E0006C726D00762D56004120206368616E6E33
:1010F000656C004D6574496D7000467248756257A5
:10110000534868690055737250726F746F0054458C
:101110004C454D4554525900000101020201024361
:101120004F5059205452494D205B4D454E555D005E
:101130002D2D2D494E56004C494D49545300000366
:101140000303030303030303030303030303030072
:10115000435600435552564553005052455345544B
:1011600000454449542D3E00435552564500090060
:101170002D2D2D494E56004F46464F4E20004545D9
:1011800050524F4D206F766572666C6F7700454503
:1011900050524F4D206F766572666C6F77006765B1
:1011A0006E7772697465206572726F720045455082
:1011B000524F4D20466F726D617474696E670042C4
:1011C000616420454570726F6D2044617461004D0B
:1011D0004F44454C2020202020004D452020202039
:1011E00020202020005008500000000000000000D7
:1011F0006F000007000700147F147F14242A7F2A41
:10120000122313086462364955225000050300007A
:10121000001C2241000041221C0014083E08140852
:10122000083E080800503000000808080808006060
:101230006000002010080402003E49453E000042C4
:101240007F40006251494600414949360018141256
:101250007F0027454539003E4949320001790503A1
:101260000036494936000649291E0000363600007E
:10127000005636000008142241141414141441229C
:10128000140800020151090600060909067E090931
:10129000097E7F494949363E414141227F414122F1
:1012A0001C7F494949417F090909013E4149497A61
:1012B0007F0808087F00417F41002040413F017FB7
:1012C000081422417F404040407F020C027F7F048F
:1012D00008107F3E4141413E7F090909063E4151C8
:1012E000215E7F09192946264949493201017F01BA
:1012F000013F4040403F1F2040201F3F4030403FC3
:1013000063140814630708700807615149454300D6
:101310007F41410002040810200041417F00040287
:1013200001020440404040400001020400205454A7
:1013300054787F484444383844444420384444482E
:101340007F3854545418087E0901020C5252523E00
:101350007F0804047800447D40002040443D007F25
:101360001028440000417F40007C041804787C0869
:1013700004047838444444387C14141408081414C1
:10138000187C7C080404084854545420043F44400A
:10139000203C4040207C1C2040201C3C4020403C05
:1013A00044281028440C5050503C4464544C440091
:1013B0000836410000007F000000413608000808A0
:1013C000221C08081C220808A06080000000000001
:1013D000000000000000000000FFFF00000000000F
:1013E000001F3F00003F1F00003030FFFF3030FF84
:1013F000FF30303078CCCCFFFFCCCC8C0C060F0FFC
:1014000086C0E070381C0C3CFEC7E3F33B1E0C00AA
:10141000000000333B1F0F000000000000F0F81C2C
:101420000E07030000000003070E1CF8F000003058
:1014300030E0C0FCFCC0E03030C0C0C0C0FCFCC02C
:10144000C0C0C000000000000000000000C0C0C01C
:10145000C0C0C0C0C0C0C00000000000000000004C
:101460000000000080C0E070381C0C00000000008C
:1014700000000000000000000038380000000000FC
:1014800000000000000000000003033F3F03033F93
:101490003F03030C0C0C0C3F3F0C0C07030C0E0716
:1014A000030100183C3C180F1F383133331E1E3324
:1014B0003300000000000000000000000003070EE1
:1014C0001C38300000000030381C0E0703000003F9
:1014D0000301000F0F00010303000000000F0F00C5
:1014E0000000000000333B1F0F0000000000000060
:1014F000000000000000000000183C3C1800000044
:10150000000C0E07030100000000000000FCFE8735
:10151000C3E377FEFC00000C0EFFFF00000000009C
:10152000000C0E0783C3E77E3C00000303C3C3C364
:10153000E7FE3C0000C0E070381C0EFFFF00003FDB
:101540003F33333373E3C30000FCFEC7C3C3C78E0E
:101550000C00000303C3E3733B1F0F00003CFEE7D6
:10156000C3C3E7FE3C00003C7EE7C3C3E7FEFC00CC
:1015700000183C3C18000000000000183C3C18001B
:101580000000000000C0E0F0381C0E0703303030CF
:101590003030303030303003070E1C38F0E0C000FF
:1015A000000C0E07030383C3E77E3C00000F1F3BC4
:1015B0003130381F0F000030303F3F303000000026
:1015C000003C3E3733313030300000303030303086
:1015D000391F0F00000303030303033F3F00000C08
:1015E0001C383030381F0F00000F1F383030391FC3
:1015F0000F000000003F3F0000000000000F1F39F7
:101600003030391F0F0000000030381C0E07030077
:1016100000060F0F06000000000000333B1F0F0004
:101620000000000000000103070E1C383003030314
:101630000303030303030330381C0E0703010000F8
:10164000000000000033330100000000003C7EE792
:10165000C3C3E77E3CF0F8DCCEC7C7CEDCF8F0FFB2
:10166000FFC3C3C3C3C3E7FE3CFCFE07030303037E
:10167000070E0CFFFF030303070E1CF8F0FFFFC368
:10168000C3C3C3C3C30303FFFFC3C3C3C3C3C303F2
:1016900003FCFE0703C3C3C3C7CECCFFFFC0C0C05B
:1016A000C0C0C0FFFF00000303FFFF0303000000F2
:1016B0000000000303FFFF0303FFFFC0E0F0381C3E
:1016C0000E0703FFFF0000000000000000FFFF0EF8
:1016D0001CF8F81C0EFFFFFFFF3870E0C08000FF11
:1016E000FFFCFE070303030307FEFC0000000000ED
:1016F00000000000003F3F0000000000003F3F3FAF
:101700003F3030303030391F0F0F1F38303030301D
:10171000381C0C3F3F303030381C0E07033F3F3041
:10172000303030303030303F3F00000000000000EB
:10173000000F1F3830303030303F3F3F3F00000057
:101740000000003F3F000030303F3F303000000CD1
:101750001C383030381F0F00003F3F000103070ED8
:101760001C38303F3F30303030303030303F3F0079
:1017700000000000003F3F3F3F0000000103033F27
:101780003F0F1F3830303030381F0FFFFFC3C3C347
:10179000C3C3E77E3CFCFE070303030307FEFCFF15
:1017A000FFC3C3C3C3C3E77E3C3C7EE7C3C3C3C31D
:1017B000C78E0C03030303FFFF03030303FFFF00B4
:1017C0000000000000FFFFFFFF000000000000FF1E
:1017D000FFFFFF000000000000FFFF0F1F38F0E0D8
:1017E000E0F0381F0F3F7FE0C08080C0E07F3F0304
:1017F000030383C3E3733B1F0F0000FFFF030303D7
:101800000300000C1C3870E0C080000000000003E2
:10181000030303FFFF000030381C0E07070E1C38BF
:1018200030000000000000000000003F3F0000000A
:1018300000000000000F1F383033371E1C3F333FBD
:101840003F000003070E1C38300C1C38303030309D
:10185000391F0F000000003F3F000000000F1F383D
:1018600030303030381F0F03070E1C38381C0E077D
:10187000030F1F38381F1F38381F0F3C3E07030166
:101880000103073E3C000000013F3F010000003C17
:101890003E373331303030303000003F3F30303071
:1018A00030000000000000000103070E0C000030B3
:1018B0003030303F3F00000000000000000000001A
:1018C0000030303030303030303030000003070E20
:1018D0001C383000000000303030303070E0C0FF85
:1018E000FFC0E070303070E0C0C0E07030303030A9
:1018F000300000C0E070303070E0C0FFFFC0E0702A
:101900003030303070E0C0C0C0FCFEC7C303070EEB
:101910000CF0F89C0C0C0C0C0CFCFCFFFFC0E070F5
:10192000303070E0C000003030F3F3000000000001
:101930000000003030F3F30000FFFF0080C0E070D3
:1019400030000000000303FFFF00000000F0F03053
:1019500070E0E07070E0C0F0F0C0E070303070E037
:10196000C0C0E0703030303070E0C00000000000D7
:1019700000000000000C1E3F33333333333F3F3F42
:101980003F3030303030381F0F0F1F38303030309C
:10199000381C0C0F1F3830303030303F3F0F1F3BAA
:1019A0003333333333030300003F3F0000000000B4
:1019B00000000133333333333B1F0F3F3F00000040
:1019C0000000003F3F000030303F3F303000000C4F
:1019D0001C383030381F0F00003F3F03070F1C3802
:1019E000300000000030303F3F303000003F3F000B
:1019F00000030300003F3F3F3F0000000000003FA6
:101A00003F0F1F3830303030381F0FF0F03030309B
:101A10003030F0E0C0C0E0F0303030E0C0F0F0F046
:101A2000F0C0E070303070E0C0C0E0F030303030F6
:101A30003000003030FFFF303000000000F0F000D8
:101A40000000000000F0F0F0F0000000000000F0E6
:101A5000F0F0F0000000000000F0F03070E0C08016
:101A600080C0E07030F0F0800000000000F0F03046
:101A700030303030B0F0F070300000C0E03C3E0755
:101A800003000000000000FFFF0000000000000352
:101A9000073E3CE0C00000C0C0C0C00C1CF8F0E035
:101AA000C0C0E0F0F81C0CC0C0C0C03F3F0303033F
:101AB000030303010000010303030303033F3F3F4C
:101AC0003F00000000000000003031333333333377
:101AD0003F1E0C00000F1F383030381C0C0F1F3811
:101AE0003030381C0C3F3F03070E1C38381C0E07E3
:101AF000030F1F38381C1C38381F0F30381C0F07D5
:101B0000070F1C3830000133333333333B1F0F30A2
:101B1000383C3E373331303030000000010F1F3881
:101B2000300000000000003F3F00000000000030D7
:101B3000381F0F01000000000000000C0E07030119
:101B400000000103070E0C00000000408008042084
:101B5000100201D31BDF1BE51BF21BF91B061C1136
:101B60001C1C1C0102030401020403010302040102
:101B7000030402010402030104030202010304023C
:101B8000010403020301040203040102040103022D
:101B9000040301030102040301040203020104031C
:101BA000020401030401020304020104010203040C
:101BB00001030204020103040203010403010204FD
:101BC00003020101020304010302040402030104ED
:101BD00003020153696D706C6520342D4348005435
:101BE0002D43757400537469636B7920542D4375CC
:101BF0007400562D5461696C00456C65766F6E5C9F
:101C000044656C74610048656C6920536574757037
:101C1000004779726F205365747570005365727652
:101C20006F20546573740000501211241FBECFEF53
:101C3000D0E1DEBFCDBF11E0A0E0B1E0EEEBFDEE04
:101C400002C005900D92A633B107D9F71FE0A6E3B5
:101C5000B1E001C01D92A337B107E1F71CE1CAE270
:101C6000DCE104C02297FE010E949776C832D107BA
:101C7000C9F70E946C1B0C94DD760C9400009091C7
:101C80000001933020F49F5F9093000108958093AA
:101C9000380482E080933904413039F48091840122
:101CA000882319F040933B0402C010923B046093D8
:101CB00036040895DC011B968C911B97882361F5EF
:101CC000FD0120E030E083898823F9F4FD01E20F73
:101CD000F31F8C91838B11968C911197858F12969F
:101CE0008C91129787A313968C91139781AB1496BE
:101CF0008C91149783AFEB5BFF4F15968C911597E2
:101D0000808350961C9250972BC02F5F3F4F319687
:101D10002A303105C1F608958C9153968C935397D0
:101D200011968C9111975D968C935D9712968C917C
:101D3000129797968C93979713968C911397D196A9
:101D40008C93D19714968C911497DB968C93DB9798
:101D500015968C911597AB5BBF4F8C93A554B040F3
:101D60001C9211961C92119712961C921297139620
:101D70001C92139714961C92149715961C92159703
:101D800019961C9219971B961C921B9751961C92A0
:101D90000895CF93DF93DC01FC017396BC01685D6D
:101DA0007F4F90E0AD014C5B5F4F9D01225B3F4F49
:101DB000993089F45C961C925C9796961C92969743
:101DC000D0961C92D097DA961C92DA97EA01188284
:101DD000E90118820DC08181808383858287EB01B0
:101DE0008881848B878D868F8C898B8B8E8D8D8F50
:101DF0009F5F31966F5F7F4F9A30D1F6DF91CF9121
:101E00000895CF93DF93EC018D85813061F588854E
:101E1000882351F08E819091720F890F8093720FF9
:101E200087FF02C01B9A01C01B9896E08091840135
:101E3000981B953009F490E089898130A9F42A89AA
:101E4000291749F4992339F08091650084608093C3
:101E500065001A8A0EC0809165008B7F80936500B3
:101E60002F5F2A8B06C01B98809165008B7F809323
:101E700065009B89992341F4CB5BDF4F8881C55472
:101E8000D040813009F059C08885882309F055C0B9
:101E90008D85882309F051C02D8D222321F129172A
:101EA00011F130918301930F9E838B89281720F4C1
:101EB000982F921B20E003C0922F981B21E0830FE4
:101EC0008E838D8D830F8F83988789A98C8781E07E
:101ED00089872A878BAD8E87CB5BDF4F8881C5547E
:101EE000D040898B14C080918301980F965F9E83A8
:101EF0008FA1888789A98C878BAD8E87CB5BDF4FBD
:101F00008881C554D040898B1A8619861F8221E0AA
:101F10002D879E85992329F08889882311F4288BA1
:101F20009F878889813031F48F8581508F878823FE
:101F300021F4188ACE010E94C90E809110018150AF
:101F4000809310018F5F19F58DE4809310018885CF
:101F5000882389F08D85813071F48985813041F441
:101F60008A859E81813011F49F5F01C091509E83CC
:101F70008885815088878885882349F48D858130BC
:101F800031F48C8581508C878F5F09F41D86DF9139
:101F9000CF9108959AE0899F9001112425553E4FD5
:101FA000C901089595E0899F9001112425513D4F65
:101FB000C901089587E196E008958C3038F4E82F40
:101FC000F0E0EE0FFF1FE45FFA4F29C0803188F484
:101FD000E82FF0E0EE0FFF1FDF01A05BBE4FE95BD3
:101FE000FB4F0190F081E02D8D919C91E81BF90B46
:101FF0000BC0843160F4E82FF0E0EE0FFF1FE95BC7
:10200000FB4F0190F081E02DEE0FFF1F1DC08432C9
:1020100050F4E82FF0E0EE0FFF1FEE50FB4F019061
:10202000F081E02D11C0863218F0E0E0F0E00CC045
:1020300090E08497FC01EE0FFF1FE80FF91FE050BE
:10204000F14F8081E82FF0E0CF010895E09147043F
:10205000F0E0EE0FFF1FE15CFB4F8081918108955E
:102060009C01E0914704F0E0EE0FFF1FE35CFB4FA3
:10207000318320838FEBF90109958091490466E44F
:1020800040E00E943F0E089580914804882341F467
:1020900080915804882321F480915A04882311F0F8
:1020A00084E105C08091C204882321F0815080938F
:1020B000C20408C08091630090E096958795817076
:1020C0008093C3048091C304089510925C0410921D
:1020D0005E0410925D0410925B040895E0EDF4E05C
:1020E000E80FF11DE491F0E0EE0FFF1FEA53FB4F04
:1020F00020813181C9010895EF92FF920F931F93C0
:10210000CF93DF9380917A0190E081709070C2E06C
:10211000D0E0C81BD90B10917C011170E6EDF4E002
:10212000A6ECB4E040E050E0E12C78E0F72E042F7C
:10213000842F806487B9369A349BFECF349A2089E5
:1021400031898D919C91119796958795820F931F58
:102150008E7F11969C938E9360817181260F371F1D
:1021600036952795318B208B84B195B1C417D5074F
:1021700041F4043030F4112321F09701281B390B6E
:10218000C901860F971F96958795819391934F5F0D
:102190005F4F12964830510551F6DF91CF911F9154
:1021A0000F91FF90EF9008958F929F92AF92BF9200
:1021B000CF92DF92EF92FF920F931F93DF93CF9313
:1021C000CDB7DEB760970FB6F894DEBF0FBECDBFB8
:1021D000FE01319680E1DF011D928A95E9F7809139
:1021E0007A0190E081709070A2E0B0E0A81BB90B7A
:1021F00070917C0171704F0126ECE22E24E0F22EEA
:1022000040E050E08D01000F111F0E0D1F1DA12C8D
:1022100088E0B82E2EC0D7B8369A349BFECF349AB9
:1022200084B195B1280F391F6F5F6430A1F7F401B5
:1022300031832083C90196958795F7019183808327
:10224000A417B50759F4F3E0FC1540F0772331F0FB
:102250009501281B390BF801318320834F5F5F4FB5
:1022600022E030E0820E931EE20EF31E483051054C
:1022700049F0C42EF4012081318160E0E0E4DE2EDB
:10228000D42AC9CF60960FB6F894DEBF0FBECDBF7B
:10229000CF91DF911F910F91FF90EF90DF90CF9042
:1022A000BF90AF909F908F9008950F931F93CF93FF
:1022B000DF9380917A0190E08170907042E050E06D
:1022C000481B590B60917C016170A6ECB4E020E0E2
:1022D00030E0FA01EE0FFF1FEA0FFB1FC0E0D8E06D
:1022E000722F822F806487B9369A349BFECF349A3E
:1022F00084B195B1880F991F11969C938E934217C4
:10230000530749F4743038F4662329F08E01081B12
:10231000190B118300832F5F3F4F12962830310530
:10232000F9F6DF91CF911F910F9108958EE587B94E
:10233000369A349BFECF349A369A349BFECF349A29
:1023400084B195B1049640917004509171049A0142
:1023500063E0220F331F6A95E1F7241B350B820FD0
:10236000931F23E0969587952A95E1F79093710442
:102370008093700408951F920F920FB60F9211244C
:102380008F93809172048F5F809372048F910F906E
:102390000FBE0F901F90189578941F920F920FB652
:1023A0000F9211242F933F934F935F936F937F93DB
:1023B0008F939F93AF93BF93EF93FF9320918000F0
:1023C00030918100F89480917D008F7D80937D0015
:1023D00078948091C4049091C504A901481B590BBD
:1023E000569547953093C5042093C40420916F04FB
:1023F000822F8150883048F5CA0181529340875717
:10240000954000F5E22FF0E0EE0FFF1FE35AFB4F7F
:102410004C5D554080918001992787FD90950A96E3
:10242000BC01469FC001479F900D569F900D1124FF
:102430006AE070E00E944576718360832F5F20938D
:102440006F040BC010926F0408C0415A5F404F5D8B
:102450005E4218F481E080936F04F89480917D00CF
:10246000806280937D00FF91EF91BF91AF919F912A
:102470008F917F916F915F914F913F912F910F902D
:102480000FBE0F901F901895E4E7FFE001C0319652
:1024900080818535E1F39F0123573F40C9010895AD
:1024A000809165008B7F80936500E6E8F4E0DF01B2
:1024B0005496108212861C92168E54961C92549733
:1024C0005E961C925E973196119684E0E139F8078A
:1024D00081F71092790410927A041092810410927C
:1024E0007B04109280041092820410928304109254
:1024F0008504109273041092740410927504109263
:102500007604109277041092780410927C04109252
:102510007E041092840408951F920F920FB60F92BA
:1025200011242F933F934F935F936F937F938F93D8
:102530009F93AF93BF93EF93FF9390E08CB58A3056
:1025400008F065C09F5F923309F461C0F7CFC09A6D
:102550001092060504C0C09881E080930605809122
:102560001107909112079C012417350708F49A016E
:102570003093120720931107809113019091140159
:102580009C014217530708F49A01309314012093D9
:102590001301A0911101B0911201FD01819191915E
:1025A0009BBD8ABDF0931201E093110112968D91AB
:1025B0009C911397892BA9F487E197E090931201DE
:1025C000809311018091A70181708093060587B7E0
:1025D0008F7E87BF78940E946322F89487B78061CA
:1025E00087BF80914E04816080934E04FF91EF91EC
:1025F000BF91AF919F918F917F916F915F914F911B
:102600003F912F910F900FBE0F901F9018954CB5D2
:102610005DB580910605882309F099CF9CCF789409
:102620001F920F920FB60F9211242F933F934F9347
:102630005F936F937F938F939F93AF93BF93EF932A
:10264000FF93F89487B78D7F87BF789481B78E5FAB
:1026500081BF83E794E00E94010F80915A04882390
:1026600041F480915804882321F480913604882312
:10267000E1F180913604882309F486E480937304A1
:1026800080915804882319F08F5F8093770480919C
:102690003704882311F080937404809138048823D0
:1026A00011F08093750480913904882309F485E042
:1026B0008093760480913B04813011F480937804F8
:1026C00081E080937E0483E794E00E945A0E10928A
:1026D0003604109237041092380410923904109284
:1026E0003B0410925A041092580480910F018150BB
:1026F00080930F018F5F51F48DE480930F010E944E
:102700003E6F80914E04826080934E04F89487B7A8
:10271000826087BFFF91EF91BF91AF919F918F91A1
:102720007F916F915F914F913F912F910F900FBECD
:102730000F901F9018958F929F92AF92BF92CF9259
:10274000DF92EF92FF920F931F93CF93DF93B82EF8
:10275000942E85E0841708F412C1BB2009F412C13D
:1027600096E1B91609F40DC1AAEEBA1609F407C12B
:102770002B2D332727FD3095C90137FF04C088274B
:102780009927821B930B8A3084F41B144CF08DE044
:1027900090E0821B930B0E94956E61E06827F2C067
:1027A000C9010D960E94956EC6C0C82EDD24C7FCD7
:1027B000D094E6EFFFEFCE0EDF1EF601EE0FFF1F07
:1027C000EC0DFD1DEF56FE4FE85AFD4F8081E85598
:1027D000F240882309F4D3C0B6E5EB2EB2E0FB2E1D
:1027E000EE0EFF1ED701AC90EF01C95ADD4F888075
:1027F000853008F4D5C0883028F400E010E040E0CF
:1028000050E029C08A2D81500E94DD0F8C01888103
:1028100081500E94DD0FAC011EC08881482F5527D2
:1028200047FD509543585F4F16C0988189E2980242
:1028300090011124359527953595279597FD915C45
:1028400096FB990F990B90F9892F992787FD909501
:10285000A901481B590BE601CC0FDD1FCC0DDD1D76
:10286000C751DC4F2881283088F4253008F049C052
:10287000223031F1233020F4213009F080C01CC017
:10288000233011F1243009F07AC029C02A3009F42C
:1028900062C02B3038F4283009F453C0293009F0D5
:1028A0006EC054C02C3009F460C02C3008F458C0FD
:1028B0002D3009F064C05EC01B140CF44CC05AC02B
:1028C0001B140CF44DC051C020E0C80117FF03C019
:1028D000909581959F4F4817590764F40AC020E0EE
:1028E000C80117FF03C0909581959F4F84179507E6
:1028F0000CF421E01B1414F4622F44C061E0622741
:1029000041C0192D1F5F8A2D60E0412F0E949B134B
:10291000082F882D60E0412F0E949B1398819530ED
:1029200031F4002361F1682F882361F12AC09630C9
:1029300021F4002331F5682F25C060E0081709F560
:1029400021C060E004171507E9F41BC060E004171C
:102950001507B9F417C060E0401751079CF411C087
:1029600060E00417150774F40CC060E00417150745
:102970004CF007C060E04017510724F002C060E04F
:1029800001C061E0862FDF91CF911F910F91FF90E1
:10299000EF90DF90CF90BF90AF909F908F90089571
:1029A0008A2D81500E94DD0F8C01F70180818532D4
:1029B0000CF033CF3ACF1F93CF93DF93682F782F4C
:1029C0007F7076502091A30122306CF0332727FDD1
:1029D00030952150304081E090E002C0880F991F6F
:1029E0002A95E2F7282F783008F09FC0872F859529
:1029F000A82FB0E0FD01EE0FFF1FEF5FFE4F01902B
:102A0000F081E02D1081222311F0422F10C0412FC0
:102A1000552747FD509557FF03C0509541955F4F8F
:102A2000242F47FD2D5F422F459545954F5F2091FF
:102A30007A0130E02170307082E090E0821B930BCD
:102A40008A179B0711F050E00CC08091A2018F7093
:102A500011F450E002C044E051E080917C0180FD1F
:102A60004195812F992787FD9095242F332727FDA6
:102A7000309570FF04C0E901C80FD91F03C0EC01F5
:102A8000C21BD30B209721F0812F8D2787FF0DC00C
:102A9000552359F4112349F01082862F0E941C6F90
:102AA00080914C0466E441E03DC0CE0184589F4FC4
:102AB000893F9105B0F4C08386E00E940763CE0190
:102AC00083589F4F8B3F910578F59E01D7FF03C038
:102AD000309521953F4F3595279535952795622F50
:102AE0001DC01C161D0614F083E801C08DE780830D
:102AF00086E00E940763CE0183589F4F8B3F91056C
:102B000098F4CE01D7FF03C0909581959F4F64E064
:102B100070E00E944576709561957F4F645C80916E
:102B2000490440E00E943F0E60E0862FDF91CF9184
:102B30001F9108951F93F8942091D20E3091D30ED7
:102B4000789440E080910A0590910B052817390789
:102B500009F041E040935504F8948091D20E909191
:102B6000D30E789490930B0580930A0580E495E04A
:102B700060E00E94A42580915504882309F412C1C5
:102B800080915B0480FF14C090915C04892F8F5F5B
:102B900080935C04843660F0935690935C0480913B
:102BA0005D0490915E04019690935E0480935D04B1
:102BB00080E00E941A630E94F76D0E94056E0E94D9
:102BC000DB14182F8091560490915704009729F038
:102BD00001979093570480935604112389F08091B4
:102BE0007E0190E024EF31E0AC01429FC001439FA1
:102BF000900D529F900D112490935704809356048A
:102C00008091670160E040E00E949B13882339F4C3
:102C10008091560490915704892B09F4C1C0C79A3A
:102C2000209118053091190580915004909151041C
:102C3000821B930B60E270E00E9445767093530410
:102C4000609352046115710591F08091080590918F
:102C50000905821B930B62E070E00E944576709339
:102C600053046093520430935104209350043093E2
:102C7000090520930805E0914704F0E0EE0FFF1FDF
:102C8000E35CFB4F0190F081E02D812F09950E94BC
:102C9000C46D0E944410882321F0809165008F7ECE
:102CA00003C080916500806180936500F8948091F5
:102CB000D20E9091D30E78948F71907082309105DE
:102CC00021F0039709F06EC054C0E7EDF4E0E49101
:102CD000F0E0EE0FFF1FEA53FB4F0190F081E02D73
:102CE000CF0168E070E00E944576809166019927E7
:102CF00087FD909506969C01629FC001639F900D91
:102D0000729F900D11242091540430E02F5F3F4FAB
:102D1000609170047091710454E0EE0FFF1F5A959A
:102D2000E1F78E0F9F1F0E944576260F371F3595BE
:102D300027952093540480910705805E80930705B2
:102D4000882381F580916501281760F5223350F1C1
:102D500080914D0466E441E00E943F0E80917C0129
:102D600083FF20C082E390E0909357048093560441
:102D700019C080917901869586958695877090E037
:102D8000BC01660F771F660F771F680F791F6852A7
:102D90007B4F89E494E045E050E00E949B7602C0BE
:102DA000C7983ECF1F9108950F931F93809172048F
:102DB00002B7109172048117C9F7E0917D01F0E02C
:102DC000EE0FFF1FE75FFE4F0190F081E02D0995A8
:102DD0000E9496110E949A1580914E04833019F436
:102DE000A89510924E044091720452B780917204DB
:102DF0004817C9F7912F80E0202F30E0822B932BCA
:102E0000342F20E0452F50E0422B532B2091130705
:102E100030911407481B590B4217530708F4A901B6
:102E200050931407409313071F910F9108958F92A9
:102E30009F92AF92BF92CF92DF92EF92FF920F9349
:102E40001F93CF93DF93182F7B014A015901C02EA6
:102E500084FD04C004E0D02E05E005C01F7010669C
:102E6000B5E0DB2E04E08D2D8066181761F08D2D06
:102E70008064181741F090913B05992371F0133647
:102E800011F0133451F4E7012196809149046BE469
:102E900040E00E943F0E802F19C0802F80661817D7
:102EA00061F0802F8064181741F0992309F47FC0E6
:102EB000123619F0123409F07AC0E7012197809197
:102EC000490461E440E00E943F0E8D2D90E00E9495
:102ED000956E882351F0CC27DD27CE19DF09802F8E
:102EE0000E941C6F8D2D0E941C6F8114910491F41F
:102EF00081E0A816B10471F4103661F410923B051C
:102F0000C0E0D0E0E114F10411F4C1E0D0E080E6CB
:102F10000E941C6F8091520490915304C81BD90BDE
:102F2000AC16BD065CF4812F0E941C6F80914B048F
:102F30006BE441E00E943F0EE5010DC0C815D905C4
:102F400054F4812F0E941C6F80914B0461E441E096
:102F50000E943F0EE401CE15DF05C9F0209779F4F9
:102F6000812F0E940D6FF7FE04C080914B046BE42B
:102F700003C080914B0461E441E00E943F0E8C2D20
:102F800083700E94076381E080934F0402C0109217
:102F90004F04CE01DF91CF911F910F91FF90EF90E1
:102FA000DF90CF90BF90AF909F908F900895E701F2
:102FB0009CCF0F93772767FD7095552747FD509558
:102FC000332727FD30950E9417170F9108950F930F
:102FD000772767FD7095552747FD5095332727FDC7
:102FE000309501E00E9417170F9108950F937727EE
:102FF00067FD7095552747FD5095332727FD309580
:1030000002E00E9417170F9108950F931F938C01F0
:103010000E94F76D82E260E04CE255E024E00E94FD
:10302000026B80E068E1A8010E943C6B0E94C46DC5
:10303000809164010E94BA6D1F910F910895EF92E3
:10304000FF920F931F93082FF62E142FE22E442386
:1030500029F0463139F04A3E81F408C08A5F4FE5D5
:1030600056E007C08A5F4BE556E003C08A5F47E53C
:1030700056E02E2D0E94026B23C0441F4427441F9C
:10308000405E0E94066A202F2A5F412F552747FD88
:10309000509557FF03C0509541955F4F842F992756
:1030A00087FD90950197AC01440F551F480F591F9C
:1030B000495E594F822F6F2D23E00E2D0E94C16A69
:1030C0001F910F91FF90EF900895DF92EF92FF9282
:1030D0000F931F93F82EE62ED42E10919C01812F72
:1030E000992787FD909597FF03C0909581959F4FF5
:1030F00080319CF443E08402A00111244A515A4FCC
:103100008F2D6E2D23E00D2D0E94C16A1F3F4CF5BF
:103110008F2D86506E2D41E221C0853274F4111638
:103120001CF4412F4F5002C0412F415F8F2D86501C
:103130006E2D2D2D0E941F1814C011161CF4412F46
:10314000445202C0412F4C5D8F2D86506E2D2D2D87
:103150000E941F188F2D8E5E6E2D4DE62D2D0E9424
:10316000066A1F910F91FF90EF90DF9008950F93E3
:10317000022F50E0440F551F440F551F4D59594F12
:1031800024E00E94C16A0F9108950F93942F022F9B
:10319000442319F449E657E01DC0453090F44091AE
:1031A0007A0150E0440F551F440F551F41505040C5
:1031B000490F511D440F551F440F551F41575B4F79
:1031C00009C0473250F450E0440F551F440F551FBB
:1031D0004453594F24E00E94C16A0F91089586B369
:1031E00080958E77E1F70E94026E0895FF920F930B
:1031F0001F938C01F62E0E94F76D82E260E046E29A
:1032000055E024E00E94026B80E068E1A8010E9482
:103210003C6B8CE168E348E155E00E943C6B0E9406
:10322000C46DFF2011F089E102C0809164010E9409
:10323000BA6D80914D0466E441E00E943F0E0E9409
:10324000EF1886B380958E77C9F480914E04833051
:1032500019F4A89510924E048091670160E040E057
:103260000E949B13882331F480917E01882311F4FE
:10327000FF2011F0C79AE5CFC798E3CF1F910F91B8
:10328000FF900895CF93DF93EC0190914704892F2D
:103290008F5F80934704853040F09093470481EF1F
:1032A00094E060E00E94F61812C08091490466E440
:1032B00040E00E943F0EE0914704F0E0EE0FFF1F58
:1032C000E35CFB4FD183C0838FEBFE010995DF9157
:1032D000CF91089590914704992319F4882331F4EC
:1032E0001BC0882319F4892F815001C080E080938E
:1032F00047048091490466E440E00E943F0EE0915B
:103300004704F0E0EE0FFF1FE35CFB4F0190F081FC
:10331000E02D8EEB0995089584E095E060E00E9431
:10332000F618089580913C04882351F08FE595E0CC
:1033300060E00E94F61880913C048E7F80933C04EC
:1033400008958091790187FD07C0887329F48AE880
:1033500095E060E00E94F61808958091790182FD61
:103360000AC00E942266883C910528F487ED95E00A
:1033700060E00E94F61808951F93CF93DF9386B301
:1033800080958E7721E030E0682F70E0422FCB01EE
:10339000022E02C0959587950A94E2F780FD06C03B
:1033A0004F5F2F5F3F4F2830310581F7142F1150A9
:1033B0001630A8F5812F0E94C063882381F11093F5
:1033C0006301812F0E940E6581E00E9407630E94C5
:1033D000F76D86E160E044E355E024E00E94026B73
:1033E000C1E9D1E01AE0812F68E1499124E00E940F
:1033F000066A155F1837B9F70E94C46D80916401A1
:103400000E94BA6D80916701882321F480917E012A
:10341000882311F0C79A01C0C7980E94EF18DF9166
:10342000CF911F910895EF92FF920F931F938C01FC
:103430007B010E94F76D82E260E041ED55E024E0FF
:103440000E94026B80E060E2A8010E943C6B80E079
:1034500068E2A7010E943C6B80E060E34BEB55E023
:103460000E943C6B0E94C46D809164010E94BA6D01
:103470000E94EF181F910F91FF90EF9008951F93F6
:103480008091790181FD2EC08EE495E06CE375E0BA
:103490000E94131A1EE00BC0113141F0812F8D5094
:1034A00060E040E00E949B13882329F41F5F1631DF
:1034B00098F31631B9F086B380958E7799F406C0EB
:1034C00080917E01882359F0C79A0AC080916701D4
:1034D00060E040E00E949B138823B1F7F1CFC798CA
:1034E0001EE0DCCF1F9108950F931F93CF93DF93BE
:1034F0008091790180FD51C080917A0190E08170C6
:103500009070C2E0D0E0C81BD90BFE01EE0FFF1F88
:10351000EA5CFE4F01811281005F1F4F8785908911
:10352000081B190B0E945511EC2FF0E0E053FB4FE4
:103530008491C82FD0E0CC0FDD1FCA53DB4F8881A8
:103540009981081719074CF586B380958E7729F570
:1035500012C00E9455118881998108171907ECF44F
:1035600086B380958E77C9F40DC080917E01882343
:1035700091F0C79AEECF89EA95E06AE975E00E947A
:10358000131AE7CF8091670160E040E00E949B132F
:10359000882379F7EACFC798DCCFDF91CF911F91CD
:1035A0000F9108950F931F93CF93DF9380917C0128
:1035B00084FD8DC08091670160E040E00E949B1314
:1035C000882329F480917E01882309F473C0C79A67
:1035D0000E94F76D80E060E04CE850E020E000E001
:1035E0000E94A96980E068E347E851E02AE000E131
:1035F0000E94C16A0E94C46D809164010E94BA6DEC
:103600000E94EF1800E00E947C100F5F0032D9F793
:1036100020ED34E000E010E0F9018491E82FF0E0C3
:10362000EE0FFF1FEA53FB4F80819181892F99276D
:10363000080F191F2F5F3F4FF4E0243D3F0761F74C
:10364000F894C091D20ED091D30E7894C057DE4F2B
:1036500027C00E947C1020ED34E040E050E0F901EA
:103660008491E82FF0E0EE0FFF1FEA53FB4F8081BB
:103670009181892F9927480F591F2F5F3F4FF4E001
:10368000243D3F0761F786B380958E7701F540179B
:103690005107E9F411C080917E018823B1F0C79AE7
:1036A000F8948091D20E9091D30E7894C817D907D0
:1036B00081F60DC0C7988CCF8091670160E040E033
:1036C0000E949B13882359F7E6CFC798E9CFDF9173
:1036D000CF911F910F910895FF920F931F939FEF2A
:1036E0009ABB1BBA81E887BB8EE788BB8EE384BB9D
:1036F00081EC85BB11BA92BB88E082B987EF83B9B0
:10370000109261001092620084E1809364008BEF5C
:10371000809365000E947F6D0E94F27580E487B9F6
:1037200085E886B987E083BF8CE981BF87B783606E
:1037300087BF1FBC8AE08EBD10928B0082E8809309
:103740008A0080917D00806280937D00EDB7FEB796
:10375000329785E502C0808331974FE0E337F40765
:1037600009F0C8F778948AE292E390933E0480933C
:103770003D0489E10E94BA6D0E944B65F09063019F
:103780000E94BC1980917C0184FD28C082E3809353
:1037900073040AE00093750415E01093760483E740
:1037A00094E00E945A0E8AE5809373040093750496
:1037B0001093760483E794E00E945A0E8EE680937D
:1037C000730486E08093750482E08093770484E03C
:1037D0008093760483E794E00E945A0E0E94D21AE6
:1037E0000E94AD190E9455110E94741A0E943F1A3E
:1037F0000E94A1190E9492190E94EF1880EF90E098
:1038000090937104809370040E9463222DE088E1FC
:1038100090E00FB6F894A89581BD0FBE21BD80E45D
:1038200095E060E00E94A4258CE194E40E94421996
:1038300081E00E946A19809164010E94BA6D8091B2
:103840007E0190E024EF31E0AC01429FC001439F34
:10385000900D529F900D112490935704809356041D
:1038600080916301F81629F081E00E9407630E94AD
:10387000B06380916D0F806480936D0F80ED97E051
:103880009BBD8ABD80E186BF87B7806187BF0E94EC
:10389000D416FDCFAF92BF92CF92DF92EF92FF92FC
:1038A0000F931F93CF93DF93F82EB62EEA01122FBA
:1038B000A02E57FF10C022FD02C08FE001C08CE196
:1038C0009F2D981B892F6B2D4DE2212F0E94066A98
:1038D000D095C195DF4F2A2D21238F2D6B2D4AE3E3
:1038E0000E94066A812F90E004E0C02ED12CC822ED
:1038F000D92212FD02C0E0E001C0E2E0CE016CE39B
:1039000070E00E9445769B01442737FD4095542F77
:1039100010618E2F8F0D6B2D012F12E0E12E0E9472
:103920000E6CCD2811F4E1E101C0ECE1CE016CE3B5
:1039300070E00E9445769C01442737FD4095542F46
:1039400080E1A82A8E2F8F0D6B2D0A2DB2E0EB2E71
:103950000E940E6CDF91CF911F910F91FF90EF901D
:10396000DF90CF90BF90AF9008959F92AF92BF929B
:10397000CF92DF92EF92FF920F931F93CF93DF933B
:10398000982EA62E102F8E2DC42EDD24EE24FF247B
:10399000A22FB0E0FD01EE0FFF1FEE0FFF1FEF5C47
:1039A000FB4FB080B294B694B69463E0B62200E0C8
:1039B00092E0B91609F401E0882391F1AA0FBB1F28
:1039C000AA0FBB1FA25DBB4F8C91C82FD0E0002374
:1039D00011F0CC0FDD1FBE0180E090E0A701960141
:1039E0000E941276C436D10580F4660F771F881FB7
:1039F000991F23E330E040E050E00E945876C9016F
:103A0000DA016C017D01106311C02FEF30E040E05E
:103A100050E00E945876C901DA016C017D0106C0B0
:103A2000002321F0CC0CDD1CEE1CFF1CBB2011F090
:103A30000023A1F0012F0062892D6A2DA7019601B4
:103A400095E0E92E0E940E6C17FD0EC08091A70E26
:103A50006A2D46E7212F0E94066A06C0892D6A2D2D
:103A6000A601212F0E944E6DDF91CF911F910F91E2
:103A7000FF90EF90DF90CF90BF90AF909F90089510
:103A80000F931F93062F122F206250E00E944E6D5D
:103A900017FD07C08091A70E602F46E7212F0E94D7
:103AA000066A1F910F910895242F409154040E949B
:103AB000401D089599E289029001112435952795BA
:103AC0003595279587FD815C86FB880F880B80F9EB
:103AD000992787FD9095281B390BC901089590916E
:103AE0000001933020F49F5F90930001089580932C
:103AF000380482E080933904413039F480918401A4
:103B0000882319F040933B0402C010923B04609359
:103B100036040895EBEAF1E090E080818150803135
:103B200008F49F5F3A9682E0EB3EF807B1F7892FE1
:103B300008956F927F928F929F92AF92BF92CF9291
:103B4000DF92EF92FF920F931F933B017C0100E005
:103B500010E08824992464E670E080E090E0661923
:103B6000770988099909A80197010E9412765B01DB
:103B70006C0182E390E0A0E0B0E0A80EB91ECA1E7E
:103B8000DB1EC801B7010E9412760E941276BC01AA
:103B900088279927A40193010E94127624E0969524
:103BA0008795779567952A95D1F7A60EB71EC81EFB
:103BB000D91EC601B50124E630E040E050E00E9485
:103BC0005876C9011F910F91FF90EF90DF90CF9031
:103BD000BF90AF909F908F907F906F900895FF92CD
:103BE0000F931F939C01AB016115710531F1FF2407
:103BF00097FF05C0FF24F394309521953F4F57FF61
:103C000010C000E014E066277727641B750BC8011D
:103C1000821B930B0E94991D9801281B390BC90127
:103C200004C0C901BA010E94991DFF2011F49C0132
:103C300004C022273327281B390BC9011F910F917C
:103C4000FF900895282FE4E7FDE080E0949192171B
:103C500031F03196992311F08F5FF8CF80E008950D
:103C6000823410F080E20895E82FF0E0EC58F24F33
:103C7000849108951092930610928C0610928B06F0
:103C80001092900610928F0610928E0610928D065A
:103C900010929206109291060895AF92BF92CF9221
:103CA000DF92EF92FF920F931F93CF93DF935B010D
:103CB0006C0100E010E8C0E0D0E8EE24FF249E0193
:103CC00040E050E0CA01B9010E941276A616B7067C
:103CD000C806D90610F4C027D12716950795089471
:103CE000E11CF11C80E1E816F10461F4CE01DF91E2
:103CF000CF911F910F91FF90EF90DF90CF90BF90E9
:103D0000AF900895C02BD12BDACF9C0140E06830F2
:103D100008F041E070E0442371F0CB010897FC010A
:103D200063E0EE0FFF1F6A95E1F7E80FF91FDF016F
:103D3000A156BC4F0AC0FB01EE0FFF1FEE0FFF1F85
:103D4000E60FF71FDF01A958BC4FFD01808120500D
:103D50003C4F37FD0EC068E02030360784F0442326
:103D600019F484E090E002C088E090E0A80FB91F49
:103D70008C91992787FD9095582F442733C0442371
:103D800031F0432FB9017070660F771F04C0432FC5
:103D90004695B9017170842F90E0FD01E80FF91F7D
:103DA0008181992787FD90959B0135952795829F65
:103DB000A001839F500D929F500D11242081332725
:103DC00027FD309580E092E0861B970B95958795AF
:103DD000BC01269FC001279F900D369F900D112496
:103DE000480F591FCA0169E170E00E944576CB0176
:103DF00008956F927F928F929F92BF92CF92DF929F
:103E0000EF92FF920F931F93CF93DF938091A701BF
:103E100081FD04C0C12C94E0D92E03C0C12C85E0E3
:103E2000D82EB090A101BB0C88E0B80E9091A401EF
:103E300084E69802A0011124485A5D4F6624772435
:103E4000641A750A8091AA01992787FD909528EE3A
:103E500033E0829FB001839F700D929F700D1124FB
:103E600068537045641B750BC0E4D5E0E7E1F7E0EB
:103E7000AB2DB0E0AA0FBB1FAC0FBD1F8824992447
:103E80008C189D0808E512E0041B150B1BC0288147
:103E9000398176012C153D050CF47901C701E81430
:103EA000F9040CF4C401805A964F9301281B390B76
:103EB000620F731F51834083800F911F938382830E
:103EC00022963496CA17DB0711F7EB2DEE0FAE2FB3
:103ED000B0E0AA0FBB1FA95EB84F4D935C93EF5F94
:103EE000AE2FB0E0AA0FBB1FA95EB84F6D937C93B5
:103EF000EF5FF0E0EE0FFF1FE95EF84F11821082D6
:103F0000DF91CF911F910F91FF90EF90DF90CF90B5
:103F1000BF909F908F907F906F900895EF92FF9247
:103F20000F931F93DF93CF93CDB7DEB760970FB694
:103F3000F894DEBF0FBECDBF8091A70181FD03C005
:103F400060E074E002C060E075E080EF80931509E6
:103F500080910B048093160910921809109217098A
:103F600040E050E000271127061B170B7E01089444
:103F7000E11CF11CFA01E05CFA4F0190F081E02DA8
:103F80009B01E617F7070CF49F01F701E40FF51FFB
:103F9000C801A02F892F021713071CF4C901A22FF3
:103FA000892FA08381834E5F5F4F4E30510511F7FB
:103FB0008981809319098A819B81292F2295207FED
:103FC0008F70822B80931A098C818295807F9295C5
:103FD0009F70982B90931B098D8180931C098E8173
:103FE0009F81292F2295207F8F70822B80931D091E
:103FF00088858295807F92959F70982B90931E095B
:10400000898580931F098A859B85292F2295207F8A
:104010008F70822B809320098C858295807F92956A
:104020009F70982B909321098D85809322098E850E
:104030009F85292F2295207F8F70822B80932309C3
:1040400088898295807F92959F70982B9093240900
:1040500040E050E0A5E1B9E070E060E004E110E08C
:104060003C91603111F4372F01C0730FFA01EE0F4C
:10407000FF1FE95EF84F20E01183008330FD03C08D
:104080008AE090E002C08EE190E0938382832F5F0C
:104090003496283011F0330FEFCF405F5F4F6F5FE2
:1040A000613111F01196DCCF60960FB6F894DEBF47
:1040B0000FBECDBFCF91DF911F910F91FF90EF9079
:1040C0000895A0912609B0912709FD01819391934C
:1040D00013967C936E9312973296F0932709E09390
:1040E00026090895882329F020E639E080E699E042
:1040F00004C020EB34E080EB94E0A0912609B0915D
:104100002709FD018193919313963C932E93129767
:104110003296F0932709E093260908951F93182FEC
:1041200082700E947220812F81700E9472201F91E4
:104130000895CF92DF92FF920F931F93DF93CF9357
:1041400000D0CDB7DEB78091A001823019F0833066
:1041500019F404C010E003C011E001C012E0209186
:1041600040053091410520503C4F220F331F809174
:1041700042059091430580509C4F880F991F892FCD
:10418000232F37FD20E087FD80E0022F20310CF047
:104190000FE0F82E2FE0281714F46FE0F62E2F2DE5
:1041A000332727FD3095802F992787FD9095099615
:1041B0008217930714F40F2D0950C02EDD24C7FC7D
:1041C000D094275F3F4F2C153D051CF457EFF52E7B
:1041D000F00E80E797E1909318078093170780EB24
:1041E00094E090931A07809319078BE197E09093DE
:1041F00027098093260980E00E948E20A09126093D
:10420000B091270980E699E0FD018193919320EB1D
:1042100034E013963C932E931297DF01129693830A
:10422000828313963C932E9312971496B09327098A
:10423000A0932609812F0E948E201195C601959585
:104240008795959587958A830E948E203A81131BC6
:10425000802F0E948E20101B8F2D992787FD90950F
:10426000959587959595879589830E948E2089815C
:10427000181B8F2D0E948E20812F8F190E948E2057
:1042800080E00E947220E0912609F091270980E6E3
:104290009AEE92938293329611921192F09327099B
:1042A000E09326090F900F90CF91DF911F910F910E
:1042B000FF90DF90CF900895A0912609B091270933
:1042C000882341F0FD0180E293E08193919380E4A3
:1042D00096E007C0FD0180E496E08193919380E22F
:1042E00093E013969C938E9312973296F09327093E
:1042F000E093260908950F931F93082F10E0802F55
:1043000081700E945C211F5F06951830C1F71F91D4
:104310000F910895482F18161CF010923A05089531
:10432000282F332727FD309580913A05281B310926
:10433000862F90E08217930724F4461B40933A059A
:10434000089506972817390724F44A5F461B4093BF
:104350003A0508950F931F9387E197E090932709FB
:10436000809326098091280991E089278093280964
:10437000882309F454C08091400590914105885FDD
:104380009B4F44E0969587954A95E1F780389105D3
:1043900010F08FE790E0182F2091420530914305EF
:1043A00037FD0FC0C901409635E0969587953A953F
:1043B000E1F78034910510F08FE390E0082F00645E
:1043C0000FC080E190E0821B930B25E096958795C6
:1043D0002A95E1F78034910510F08FE390E0082FE3
:1043E000812F0E947B21802F0E947B210127802F1B
:1043F00090E09C0104E0359527950A95E1F714E0DB
:10440000880F991F1A95E1F7822B0E947B21A091BA
:104410002609B0912709FD0180E197E230C0809123
:1044200044059091450580509C4FB4E09695879542
:10443000BA95E1F78038910510F08FE790E0082FEA
:104440000068802F0E947B218EE80E947B218EE8ED
:10445000082710E0C801A4E095958795AA95E1F793
:10446000F4E0000F111FFA95E1F7802B0E947B21E9
:10447000A0912609B0912709FD0180EB96E3819375
:10448000919380EA9FE013969C938E9312973296B5
:10449000F0932709E0932609E0912609F091270976
:1044A00011921192F0932709E0932609E751F74002
:1044B000EC38F1052CF083E398E060E00E94F618F8
:1044C0001F910F9108958091A001853038F48230BA
:1044D00070F4882331F0813079F406C0853061F4BE
:1044E00009C00E94F91E08950E948E1F08950E941F
:1044F000992008950E94AA210895FF920F931F9377
:10450000CF93DF93082F10919C01812F992787FD6E
:10451000909597FF03C0909581959F4FF82E24E2C8
:1045200028170CF03FC020913D0930913E09809141
:104530003B0990913C09282B392B80913F099091A0
:104540004009282B392B80913A0990E0282B392BF0
:104550008091370990E0282B392B232B39F41092C6
:10456000370917FF03C081E08093370911161CF447
:10457000812F845202C0812F8C5D60E040E00E9458
:104580009B13282F882361F080913709882341F4F9
:1045900090E080913A09882309F491E090933A09D8
:1045A00020933709C0913D09D0913E092196D093BF
:1045B0003E09C0933D09E0913B09F0913C09E00FB1
:1045C000F11DF0933C09E0933B09F8948091D20EE1
:1045D0009091D30E789420913F0930914009821B2D
:1045E000930B8436910508F475C12C593F4F3093D5
:1045F000400920933F09CF01BE010E943176062F6A
:10460000862F90E0AC014C9FC0014D9F900D5C9FA8
:10461000900D1124E81BF90BF0933C09E0933B0942
:1046200010923E0910923D095FE05F151CF0109258
:104630003A0910C084E28F156CF011161CF4812F1A
:104640008F5002C0812F815F60E040E00E949B1389
:1046500080933A098091890690918A0601969093F9
:104660008A0680938906E0918B06F0918C0631963C
:10467000F0938C06E0938B06002349F080918F061F
:104680009091900601969093900680938F0680916A
:104690003A09882349F080918D0690918E06019603
:1046A00090938E0680938D060695409191065091C9
:1046B0009206400F511D50939206409391066091CF
:1046C0009E0170919F0170939506609394063091BE
:1046D0009C01832F992787FD909597FF03C09095A4
:1046E00081959F4F882319F41092930622C0813040
:1046F00021F4CB018E1B9F0B18C0803170F480FF1A
:1047000007C0CA0154E0969587955A95E1F709C00C
:1047100080918F069091900604C080918D069091B3
:104720008E06AB01481B590BCA01909395068093E6
:10473000940680919306813041F0813018F08230E8
:1047400001F50FC03323E9F019C0809194069091D0
:10475000950618161906ACF06115710591F082E006
:104760000EC08091940690919506855C9F4F1CF435
:1047700083E0809393066115710519F481E08093BD
:104780009306209194063091950680913809909176
:1047900039098217930709F487C080919306813005
:1047A00009F070C080917C0182FF4FC0672B09F433
:1047B0004CC02E31310549F482E080935804809139
:1047C0004B0466E441E00E943F0E80919406909174
:1047D0009506449749F481E08093580480914B04F6
:1047E00068E441E00E943F0E809194069091950606
:1047F0000A9731F480914B046AE441E00E943F0E35
:104800008091940690919506049734F480914B041E
:104810006CE441E00E943F0E80917C0183FF15C053
:1048200080919406909195068E31910541F08431E6
:10483000910529F08A30910511F0049734F482E350
:1048400090E0909357048093560480917C0181FFFF
:104850002BC080919D01209194063091950680FF98
:1048600007C080919E0190919F01821B930B01C014
:10487000C9016CE370E00E943176892BA9F4809124
:104880004B0404C0823081F480914C0466E441E022
:104890000E943F0E80917C0183FF06C082E390E07E
:1048A0009093570480935604209194063091950676
:1048B000309339092093380980919D0180FF0AC007
:1048C00080919E0190919F01821B930B909395067E
:1048D00080939406DF91CF911F910F91FF900895DF
:1048E00080919C01992787FD909597FF03C0909533
:1048F00081959F4F82304CF180313CF5982F9595F2
:104900008A3034F4892F0E941F70E82FF0E004C031
:10491000E92FFF27E7FDF0953197EE0FFF1FE45FCA
:10492000FA4F2081318180919C0187FF05C080E092
:1049300094E0821B930B03C0C90180509C4FE6E0BA
:1049400096958795EA95E1F702C080E090E00E9495
:104950007D2283E00E941F70E82FF0E0EE0FFF1F22
:10496000E65FFA4F0190F081E02DE050FC4F66E0E9
:10497000F695E7956A95E1F780919D0182FF0AC05F
:10498000E530F10538F080915B04882319F483E069
:1049900080935B0460913309709134096F5F7F4F9E
:1049A0007093340960933309409131095091320971
:1049B0004E0F5F1F5093320940933109F894809154
:1049C000D20E9091D30E789420913509309136090A
:1049D000821B930B885E934060F1F8948091D20E15
:1049E0009091D30E78949093360980933509109264
:1049F00032091092310910923409109233098091D2
:104A00000F079091100701969093100780930F075E
:104A100020910E07E22FF0E0EA56F94FCA010E94FA
:104A2000317660832F5F20930E07283710F01092A5
:104A30000E0708950F931F93CF93DF9386E291E0C3
:104A4000E0E6F5E0DF019C011D9221503040E1F7E6
:104A500090918606CBEAD1E000E010E051E060E002
:104A60004881442309F440E1041750F5202F712FA9
:104A7000352F2F5F872F90E0FC01EE0FFF1FE80F0F
:104A8000F91FEE0FFF1FDF01A05ABA4F11962C93AA
:104A900011978C9181608C93EE59FA4F30833F5F70
:104AA00014966C937F5F241720F3802F8095042F3A
:104AB000952F9F5F980F180F140F940F592F515077
:104AC00078817723D1F1812F90E09C01220F331F51
:104AD000280F391FD901AA0FBB1FA05ABA4F119630
:104AE0004C93119715966C9315978C9182608C93CB
:104AF00013965C9313975F5F8A85F9013196781757
:104B000041F4EE0FFF1FE05AFA4F108214961C92E8
:104B10000AC0EE0FFF1FE05AFA4F50835F5F6F5FCE
:104B200014966C936150952F6F5F2A96603219F43A
:104B30005093860604C01F5F93CF90938606DF9143
:104B4000CF911F910F9108952F923F924F925F92B4
:104B50006F927F928F929F92AF92BF92CF92DF928D
:104B6000EF92FF920F931F93DF93CF93CDB7DEB7F2
:104B700068970FB6F894DEBF0FBECDBF9F8B8E8BAC
:104B8000688F80915504882309F478C080913C0592
:104B9000882319F0815080933C0580917B01863FEA
:104BA00009F46CC080915404823308F467C080918A
:104BB0002F088F5F80932F08803158F08091300844
:104BC00090913108019690933108809330081092AB
:104BD0002F082091A5073091A6078091A3079091F7
:104BE000A407280F391F8091A7079091A807280FC5
:104BF000391F8091A9079091AA07280F391F80912A
:104C0000320890913308A901481B590BCA0157FF7C
:104C100003C0909581959F4F8150914044F030930F
:104C200033082093320810923108109230084091D6
:104C300030085091310880917B01992787FD90952C
:104C40000A9620E737E1BC01629FC001639F900D87
:104C5000729F900D112434E0969587953A95E1F76F
:104C60008417950758F4437050704130510531F462
:104C700080914C0466E441E00E943F0E9090A901AF
:104C8000992009F468C080917A0190E0FC01E170FC
:104C9000F0703196EE0FFF1FE45FFA4F0190F08144
:104CA000E02D9C012270307081FD03C0A3E0B0E0D4
:104CB00002C0A0E0B0E0AA0FBB1FA45FBA4FCD9026
:104CC000DC90232B19F4A3E0B0E002C0A0E0B0E038
:104CD0007F010027F7FC0095102FAA0FBB1FA45FD0
:104CE000BA4F6D917C91882777FD8095982F96011A
:104CF000442737FD4095542F0E9412765B016C01CA
:104D0000C801B701A80197010E941276A60EB71E2E
:104D1000C81ED91E692D70E080E090E00AE0660FA1
:104D2000771F881F991F0A95D1F724E630E040E0ED
:104D300050E00E947A76B901CA010E9412766A1583
:104D40007B058C059D0538F4C601B5010E944D1EFA
:104D5000988B8F8702C0188A1F86AF85B889BD01DE
:104D600080E090E024E630E040E050E00E941276DF
:104D70006A8B7B8B8C8B9D8B17E3612E11E0712EE0
:104D8000B7E44B2EB3E05B2E198ACC24DD248824B3
:104D90009924B88D2B2E3324E1E02E2233241C2DB0
:104DA0008C2D0E946E109C01D3018D919C911197C6
:104DB000281B390B121613062CF45C96ED91FC910E
:104DC0005D9705C0D3011E96ED91FC911F97E436C7
:104DD000F10514F4E4E6F0E0B901882777FD809549
:104DE000982FAAE0660F771F881F991FAA95D1F701
:104DF0009F01442737FD4095542F0E947A76790110
:104E0000BCEF21303B0724F4E12C5CEFF52E07C00A
:104E1000E4E020303E071CF0E12C44E0F42EF401E5
:104E2000E45FFA4FF182E082C7010F964F97F0F4EA
:104E3000F4E0CF16D1047CF4812F8F5F0E941F70A5
:104E400090E0019721E030E002C0220F331F8A95E5
:104E5000E2F7C90108C081E090E00C2C02C0880F85
:104E6000991F0A94E2F73989382B398B143008F0EE
:104E70008AC1222009F05EC080919D0181FF5AC045
:104E80008601000F111F00591E4FD80111968C91F9
:104E90001197807C09F44EC08C91859585958595F8
:104EA00061E040E00E949B13882309F443C0D801CD
:104EB000EC91E770F0E0EE0FFF1FDF01A859BE4F45
:104EC000E15AFB4F808191812D913C91821B930B84
:104ED00062E070E00E944576F601EE0FFF1FEF588A
:104EE000FE4F4081842F880F880F859585959927DF
:104EF00087FD9095FC016E9FC0016F9F900D7E9F76
:104F0000900D11246FE170E00E944576CB01880F6F
:104F1000991F880F991F429546954695437050E01A
:104F20004130510529F04230510521F47C0102C085
:104F3000E80EF91E2F853889232B79F180917A01AB
:104F4000282F30E0C901817090700196C816D906EB
:104F500051F021FD03C083E090E002C080E090E0CA
:104F6000C816D906D1F46091A90170E080E090E004
:104F70001AE0660F771F881F991F1A95D1F79701BE
:104F8000442737FD4095542F0E9412762A893B8989
:104F90004C895D890E947A767901D2018C9160E01A
:104FA00040E00E949B13882311F400E00BC0F20143
:104FB000818160E040E00E949B13882311F002E0B1
:104FC00001C001E080917A0190E081709070B2E0C0
:104FD000AB2EB12CA81AB90AAC14BD0461F58091AE
:104FE000A201807F41F1C70180509C4F62E070E0D8
:104FF0000E944576CB01E02FF0E0EE0FFF1FEE0F91
:10500000FF1FA601440F551F9A0163E0220F331FB3
:105010006A95E1F7241B350BE20FF31FE55CFC4FAB
:105020006081772767FD70950E94EF1DDC01AA0F54
:10503000BB1F10E026C010E01E141F040CF011E08E
:10504000802F90E09601220F331FF901A3E0EE0FAD
:10505000FF1FAA95E1F7E21BF30B880F991F880F3A
:10506000991FE80FF91FEF56FE4FE10FF11DE655AE
:10507000FE4F6081772767FD7095C7010E94EF1D85
:10508000DC01E02FF0E0EE0FFF1FEE0FFF1F960197
:10509000220F331FC90143E0880F991F4A95E1F79A
:1050A000821B930BE80FF91FEF56FE4FE10FF11D26
:1050B000E455FE4F6081772767FD70956C597F4FEF
:1050C000882777FD8095982F9D01442737FD4095CF
:1050D000542F0E94127624E630E040E050E00E9417
:1050E0007A767901AC14BD04B9F59091A201892FAB
:1050F000807F09F40AC720E03CEFE20EF31E05C7EB
:1051000060E074E06E197F09882777FD8095982FFD
:10511000F501EE0FFF1FEF5FFE4F0190F081E02DD4
:105120002081332727FD3095432F532F23583F4F9E
:105130004F4F5F4F0E94127620E038E040E050E091
:105140000E947A76C901DA01803038E0930730E0B6
:10515000A30730E0B30761F4F401EF5FFE4F019065
:10516000F081E02D8081282F332727FD309501C065
:105170009C01220F331FE1E0F0E0EC0FFD1FE80D72
:10518000F91D31832083F401ED55F84FF182E0825F
:105190000894C11CD11C42E050E0640E751E840EC0
:1051A000951E6EE070E0460E571E77E0C716D104DC
:1051B00009F0F5CD1091A60189891823212F30E03F
:1051C0008091340890E08227932782239323892BB0
:1051D00031F080914A0466E441E00E943F0E109352
:1051E000340880E094E09093B2078093B1079093E5
:1051F000B4078093B3070BEB402E07E0502EB201AB
:1052000040E050E0FA01E15AFB4FDA01AA5CBE4FE0
:1052100080819181D2962D913C91D397821B930BE3
:10522000880F991FDB018D939D93BD014E5F5F4FEA
:105230004830510539F78091670490916804880FD0
:10524000991F9093C4078093C3078091690490913C
:105250006A04880F991F9093C6078093C5078091B1
:105260006B0490916C04880F991F9093C8078093EA
:10527000C70780916D0490916E04880F991F9093D9
:10528000CA078093C907EFEEF7E0FA87E987ABEC2E
:10529000B7E0808191818D939D93349628E0EF3221
:1052A000F207B9F79090A901992009F4C1C0809143
:1052B0007A0190E0FC01E170F0703196EE0FFF1F73
:1052C000ED55F84F0190F081E02D9C012270307077
:1052D00081FD03C0A3E0B0E002C0A0E0B0E0AA0FEF
:1052E000BB1FAD55B84FCD90DC90232B19F4A3E034
:1052F000B0E002C0A0E0B0E07F010027F7FC00951D
:10530000102FAA0FBB1FAD55B84F6D917C91882708
:1053100077FD8095982F9601442737FD4095542FAF
:105320000E9412765B016C01C801B701A8019701C8
:105330000E941276A60EB71EC81ED91E692D70E0F7
:1053400080E090E04AE0660F771F881F991F4A951A
:10535000D1F724E630E040E050E00E947A76B901CF
:10536000CA010E9412766A157B058C059D0508F01E
:105370005FC0C601B5010E944D1EE0907A01FF2476
:105380008701017010700F5F1F4F2091A901A22E9D
:10539000BB24CC24DD243AE0AA0CBB1CCC1CDD1CB5
:1053A0003A95D1F7A0E0B0E0BC01CD0124E630E0B1
:1053B00040E050E00E9412763B014C01000F111FAB
:1053C0000D55184FD8012D913C91442737FD40953C
:1053D000542FC601B5010E941276A40193010E94C8
:1053E0007A76F80131832083E1FC05C0E3E0F0E048
:1053F00003E010E004C0E0E0F0E000E010E0000FA7
:10540000111F0D55184FEE0FFF1FED55F84F20815E
:105410003181442737FD4095542FC601B5010E94C4
:105420001276A40193010E947A76D8012D933C93C1
:105430004091A701842F807E09F4EFC020917A016A
:1054400030E0F901E170F0703196EE0FFF1FDE01E0
:10545000AE0FBF1FED55F84F1196CD90DC9012970F
:1054600080819181C80ED91EC9018270907021FD82
:1054700003C0E3E0F0E002C0E0E0F0E0EE0FFF1F69
:10548000ED55F84F20813181892B19F4E3E0F0E0EC
:1054900002C0E0E0F0E0EE0FFF1FEC0FFD1F018106
:1054A0001281020F131FE091A801EE2319F4EE24DC
:1054B000FF2407C0F0E0EE0FFF1FEF55F84FE0802C
:1054C000F18042FF04C0D094C194D108D39443FF2B
:1054D00003C0109501951F4F44FF04C0F094E19460
:1054E000F108F3948091A70182958695877090E0EA
:1054F0008230910589F18330910524F4019709F0F8
:105500008CC008C08330910509F45BC0049709F092
:1055100084C06FC0C80160E072E00E944576FB0164
:10552000C80168E070E00E9445769B01C80160E810
:1055300070E00E944576A801421B530B9A01261B7E
:10554000370B2E1B3F0BC7018C199D099093B60793
:105550008093B507C60121C0C60160E072E00E94D9
:105560004576FB01C60168E070E00E9445769B012C
:10557000C60160E870E00E944576C601821B930B6D
:105580009C01261B370B2E1B3F0BC701801B910B69
:105590009093B6078093B507C80162E070E00E945F
:1055A00045766E0D7F1DCB01820F931F9093B80738
:1055B0008093B707621B730B7093BA076093B907A8
:1055C0002CC0C7018C199D099093B6078093B5072D
:1055D000C7018C0D9D1D9C01200F311F3093B80712
:1055E0002093B707801B910B9093BA078093B9075C
:1055F00014C0C7018C199D099093B6078093B50715
:10560000C701800F911F9093B8078093B707E01AE6
:10561000F10AF092BA07E092B90780915504882305
:1056200011F00E94702480E4EFEEF7E0DF011D929C
:105630008A95E9F7B88DB1FF28C0A3EAB7E0FE016B
:10564000319620E030E042E050E080917A0190E035
:1056500081709070BA01681B790B6217730729F08B
:1056600011961C921E92118210822F5F3F4F12964C
:1056700032962430310549F7D2011D921D922D0139
:10568000B3EC4B16B7E05B06B9F783E793E0909372
:10569000020180930101019690930401809303011C
:1056A000019690930601809305010196909308015D
:1056B0008093070155EF252E58E0352E45E7642EDF
:1056C00048E0742E35E3432E38E0532E1E861D86A7
:1056D0008D850E94CA0F5C01FC0180818150803160
:1056E00008F0BEC2838161E040E00E949B13D101BB
:1056F0009C918823B9F4192F1C92F5019181892F6F
:105700008850823008F09BC287818E70843009F403
:1057100096C2993019F0CC24DD244FC0C12C2CEF57
:10572000D22E4BC010E0992309F411E081E0D101A1
:105730008C93F5013181832F8150A82FB0E0FD01BA
:10574000EE0FFF1FED55F84FC080D180843158F027
:10575000FD858F1740F4AA0FBB1FAA0FBB1FA151D5
:10576000B84FCD90DC90D50117962C91822F807385
:1057700081F0822F8295837090E00197E1E0F0E064
:1057800002C0EE0FFF1F8A95E2F7CF01FE85F82BCE
:10579000FE8726FF12C0353080F4E32FF0E0EE0FD5
:1057A000FF1FE150FF4F28E030E0A20EB31EB18290
:1057B000A08248EF5FEFA40EB51ED50117968C911D
:1057C000179786FD08C018968C91882321F00E94B7
:1057D0005A1DC80ED91EF5018681882321F48581C2
:1057E000882309F443C1D3016D917D918D919C91E2
:1057F000112389F420E031E040E050E00E947A7605
:1058000050954095309521953F4F4F4F5F4F460142
:10581000820E931E5AC0F50187818E70843049F53F
:10582000E081F0E0EE0FFF1FE753F84F60817181D8
:10583000882777FD8095982F20E034E640E050E0FF
:105840000E941276D3016D937D938D939C93139751
:10585000F5012281222369F0332727FD3095432F5C
:10586000532F0E947A76D3012D933D934D935C93F1
:105870001397F301608171818281938120E031E08F
:1058800040E050E00E947A76509540953095219501
:105890003F4F4F4F5F4F4601820E931E811491047C
:1058A000A1F0D50115968C9197FE82958F7090E0AE
:1058B000FC0124E630E0E29FC001E39F900DF29FDF
:1058C000900D1124D2018D939C93F201208131819E
:1058D0002115310551F080915504882309F4BAC08F
:1058E0002150304031832083B5C08114910409F4E4
:1058F000BDC0F5018681882309F4B8C080915504A4
:10590000882309F475C02281222329F460E070E025
:1059100080E293E017C0332727FD309537FF03C09F
:10592000309521953F4F332727FD3095432F532F37
:1059300060E070E080E293E00E947A76C901DA01CB
:10594000BC01CD01D50116962C91181419040CF543
:105950002F70422F50E041155105D9F1E4E6F0E0F7
:105960004E9F90014F9F300D5E9F300D11244427B4
:1059700037FD4095542F0E947A7679018A01F30110
:1059800080819181A281B381E80EF91E0A1F1B1F3D
:1059900029C022952F70422F50E041155105C9F0C2
:1059A000A4E6B0E04A9F90014B9F300D5A9F300D06
:1059B0001124442737FD4095542F0E947A76F30135
:1059C000E080F18002811381E21AF30A040B150BC7
:1059D00009C0C601AA2797FDA095BA2FEE24F82E7C
:1059E000092F1A2FD301ED92FD920D931C9313975B
:1059F000F301608171818281938176010027F7FC38
:105A00000095102F1814190464F420E031E040E0F0
:105A100050E00E947A76E216F3060407150764F058
:105A200019C020E031E040E050E00E947A762E1567
:105A30003F054007510774F4C601AA2797FDA095BA
:105A4000BA2FBA2FA92F982F8827F301808391832B
:105A5000A283B383D3016D917D918D919C9120E0C0
:105A600031E040E050E00E947A766901F5016481FE
:105A7000633071F1643028F4613051F06230A8F481
:105A800048C0653081F1653050F16630B1F52EC007
:105A9000D50111968C91893029F4D7FC2AC0E0E019
:105AA000FEEF0DC0D7FE35C02EC0D50111968C91EA
:105AB000893051F41C141D044CF1E0E0F2E0CE0EEC
:105AC000DF1ECC0CDD1C25C01C141D04E4F021C01D
:105AD000D7FE1FC0D094C194D108D3941AC01C140F
