:100000000C943A0E0C94620E0C94620E0C94620ED8
:100010000C94620E0C94620E0C94620E0C94620EA0
:100020000C94620E0C94620E0C94620E0C949C66FE
:100030000C941E6A0C94C9660C94620E0C94DC1726
:100040000C94CA170C94620E0C94396D0C94620EC9
:100050000C94620E0C94620E0C94620E0C94620E60
:100060000C94DE690C9438180C9434670C94016875
:100070000C94620E0C94620E0C94620E0C94620E40
:100080000C94620E0C94620E0C94620EDE6BE26BAA
:10009000EA6BF46B0B6C256C3A6C496C5E6C756C9E
:1000A0007F6C9D6CA36CA86CAE6CB46C0E6D186DFF
:1000B000BD6CC36CC96CD26CD66CDB6CE36CF56C3C
:1000C000FB6C016D066DE66BE66CEB6CF06C5370CF
:1000D0006C617368008040000000000000000000B8
:1000E0000000000000000000000000000000000010
:1000F0000000000000000000000000000000000000
:1001000000000000000000000000000000000000EF
:1001100000000000000000000000000000000000DF
:10012000000080C0E0E0F0F8F8FCFCFCF8F8F8F023
:1001300040000000000080808000000000000000FF
:1001400000000000000000000000000080C0C0E0CF
:10015000E0E0F0F0F0E0C00000000000C0F8FFFFB9
:100160009F8783838383838383838383838383833F
:1001700083838383838383830383808383838383D2
:10018000838383838383838383838383838383833F
:100190008383C3E3733F1F0000000080E0F0F8FC9E
:1001A000FEFFFFFFFF7F3F1F1F0F0783C3E1E1E05B
:1001B000E0C0000E1F3F7F7FFFF3E0E08000000003
:1001C0000000000000000080F0FCFEFFFFFFFF7F4A
:1001D0003F0F0301010100000080F0FEFFFFC7C1D7
:1001E000C1C1C1C1C1C1C1C1C1C1C1C1C1C1C1C1FF
:1001F000C1C1C1C1C101C1F0FEFF3F0F070F0D0D0D
:100200000D1D191919193131313171616161E1C166
:10021000C1C18100000080E0F8FCFFFFFFFF2F1745
:100220000F038180C0E0F0F8FCFEFFFFFFFFFFFF3F
:100230007F010000000000000001010307070E1EFF
:100240001C3870E0F0F8FEFFFF7F1F0F0300010075
:10025000000000000000000000000000000000009E
:10026000000000000000000000000000000000008E
:10027000000000000000000000000000000000007E
:10028000000000000000000000000000000000006E
:1002900000000000007EFFFFFFFFFFFFFBF8FCFCFB
:1002A000FEFF7F3F1F0F07C3FFFFFFFFFFFF7F071B
:1002B0000000000000000000000000000000C0E09E
:1002C000F8FEFFFF7F1F0F1F3D7CF8F8F0E0800075
:1002D000000000000000000000000000000000001E
:1002E000000000000000000000000000000000000E
:1002F00000000000000000000000000000000000FE
:1003000000000000000000000000000000000000ED
:1003100000000000000000010101010103070707C0
:100320000301000000E0FCFFFFFFFFFF1F030000D0
:10033000000000000000000000C0F078DE27130974
:100340000E0703000000000000000001030F7FFF04
:10035000FC7878F800000000000000000000008039
:10036000808080808080808000808000808000008D
:1003700000000000008080808080808080808080FD
:1003800080808080808080000000000000000000ED
:10039000000000000000000000000000000000005D
:1003A000000080F0FEFFFFFFFF3F0F010000000094
:1003B00000000000C0E0381E0F0300010000000034
:1003C000000000000000000000000000000000002D
:1003D0000000030301000000000000000000000E08
:1003E0000E02020202020303000F0F000F0F0808A3
:1003F00008080808080F0F08080808080F0F000071
:1004000000000F0F000000000000000000000000CE
:1004100000000000000000000000000000000000DC
:10042000C0F8BFFFFFFF1F7F0100000000000000B9
:1004300000F0FCFF7F7830000000000000000000AA
:1004400000000000000000000000000000000000AC
:10045000000000000000000000000000000000009C
:10046000000000000000000000000000000000008C
:10047000000000000000000000000000000000007C
:10048000000000000000000000000000000000006C
:100490000000000000000000000000000000301C10
:1004A000070E0F0701000000000000000000000020
:1004B000000000000000000000000000000000003C
:1004C000000000000000000000000000000000002C
:1004D00000000000000000001B1E272D36394B4E87
:1004E000636C7278878D939CB1B4C6C9D2D8E1E4AD
:1004F0004F4646004F4E2000010203040103020450
:1005000004020301040302010301020004050607BB
:100510006D656E75537461636B206F766572666C82
:100520006F77006D656E75537461636B20756E64D3
:100530006572666C6F7700707265737320616E7997
:10054000204B657900414C455254004D4553534171
:100550004745004C4F4144494E4700202020202071
:10056000202020202020202020202020202020208B
:100570002000506C6561736520526573657420536B
:10058000776974636865730053776974636820578B
:1005900061726E696E6700204F6C642056657273DD
:1005A000696F6E20454550524F4D202020434845ED
:1005B000434B2053455454494E47532F43414C49D4
:1005C0004200416C61726D732044697361626C65B5
:1005D00064005265736574207468726F74746C651E
:1005E000005468726F74746C65206E6F7420696457
:1005F0006C6500507265737320616E79206B65794C
:1006000020746F20736B697000414C455254004553
:100610004550524F4D206C6F77206D656D004F46F1
:1006200046414253525573525525454C73454C250E
:10063000544873544825414C73414C255031205047
:10064000312550322050322550332050332500546C
:100650004852525544454C45494430494431494437
:100660003241494C47454154524E5357315357320A
:1006700053573353573453573553573653573753CC
:100680005738535739535741535742535743004FE5
:100690004646004F4E20002D2D2D004348002D2DA5
:1006A0002D200052554420454C45205448522041AD
:1006B000494C20005031202050322020503320203F
:1006C00048414C4646554C4C4359433143594332BB
:1006D0004359433350504D3150504D3250504D33AB
:1006E00050504D3450504D3550504D3650504D3780
:1006F00050504D384348312043483220434833203E
:100700004348342043483520434836204348372067
:100710004348382043483920434831304348313139
:10072000434831324348313343483134434831350B
:1007300043483136002D2D2D2D00564552533A2079
:1007400056312E353536372D6572657A0044415461
:10075000453A2032382E30322E3230313200544970
:100760004D453A2032313A30393A3234002053562E
:100770004E3A20657239782D7237333900204D4F4B
:10078000443A204A4554492020200012081200080B
:100790001C0808081C080000082200490022080064
:1007A00000000000227F22000000082200490022F1
:1007B00008000008220049002208000000227F22D1
:1007C0000000000000082200490022080000081C68
:1007D0000808081C0800543179435D42D82BC02416
:1007E000275419519748144A4150B74AFD1DAA1F72
:1007F000E01F80209C2154546D000345787045789B
:1008000046466E654D656443727300544F54005301
:10081000544B1153542500544D4511545357005314
:10082000544154004A455449005B4D454E555D20A6
:10083000746F207265667265736800537461636BD0
:100840000F6200746D61696E0F6D7300746D7231AB
:10085000204A69747465720F757300746D72314C3F
:100860006174206D696E0F757300746D72314C6127
:1008700074206D61780F75730053544154320054E5
:1008800052453031324147004D6F64650042616E20
:100890006447617000506F745363726F6C6C0041F9
:1008A0006C61726D205761726E696E67004D656D87
:1008B0006F7279205761726E696E67004465666178
:1008C000756C74205377005377697463682057619F
:1008D000726E696E67005468726F74746C6520572D
:1008E00061726E696E670053706C617368204E614F
:1008F0006D650053706C6173682073637265656E1B
:10090000004C69676874206F6E2053746B204D76BD
:10091000004C69676874206F666620616674657252
:10092000004C696768742073776974636800466C6B
:10093000617368206F6E2062656570004265657046
:1009400020636F756E74646F776E004D696E757499
:10095000652062656570005468726F74746C652000
:1009600072657665727365000453494E474F534D67
:100970005046494C540046696C74657220414443AA
:1009800000496E616374697669747920616C617283
:100990006D0042617474657279207761726E696E60
:1009A0006700436F6E74726173740048617074699C
:1009B0006320537472656E67746800537065616B71
:1009C00065722050697463680006426565706572DF
:1009D000506953706B7200536F756E64204D6F6475
:1009E0006500065175696574204E6F4B65792078F6
:1009F00053686F727453686F7274204E6F726D20FB
:100A0000204C6F6E672020784C6F6E672000426527
:100A100065706572004F776E6572204E616D65007E
:100A2000524144494F2053455455500043616C0096
:100A30004D756C7469706C6965720003636831632D
:100A4000683263683363683400036F6666202B3D49
:100A5000203A3D006D6F64650A2520737263202083
:100A6000737700536C61766500545241494E45528C
:100A70000000030303030056455253494F4E0054F0
:100A800072696D2D202B00204D656E7520457869AB
:100A90007420446F776E2020205570526967687407
:100AA000204C656674004449414700424700414E6E
:100AB00041005B4D454E555D205748454E20444F03
:100AC0004E45004D4F564520535449434B532F50EC
:100AD0004F545300534554204D4944504F494E54B0
:100AE000005B4D454E555D20544F205354415254A8
:100AF0000053544152542043414C494252415449BD
:100B00004F4E0043414C4942524154494F4E0066BA
:100B1000726565004D4F44454C53454C00434F4C66
:100B200020446972656374696F6E0041494C2044CA
:100B30006972656374696F6E00454C452044697243
:100B4000656374696F6E0053776173682052696ED4
:100B50006700436F6C6C656374697665002D2D2D9D
:100B600020202031323020202031323058202031D6
:100B7000343020202039302020202000537761732A
:100B80006820547970650048454C492053455455B8
:100B900050000044454C455445204D4F44454C0FB2
:100BA0005B4D454E555D0054325468547269670080
:100BB000547261696E657200452E204C696D6974CE
:100BC0007300504F534E4547005368696674205375
:100BD000656C004C50342F4C5035202044534D321E
:100BE0006F6E6C792044534D322F44534D5800445E
:100BF000534D20547970650053656E6420527820FF
:100C00004E756D626572205B4D454E555D005050CE
:100C10004D2046724C656E0D6D5365630020527811
:100C20004E756D000434434820364348203843480D
:100C30002031304348313243483134434831364320
:100C40004800755300755365630050504D202020B7
:100C500050585820202044534D32202050504D31C0
:100C600036200050726F746F005245544131323358
:100C7000004265657020436E74005472696D2053A4
:100C8000770006457870202020457846696E6546D5
:100C9000696E6520204D656469756D436F6172737F
:100CA00065005472696D20496E6300542D4578705B
:100CB0006F00542D5472696D000A436F756E742075
:100CC000446F776E436F756E74205570202000540A
:100CD000696D6572200054726967676572005469B6
:100CE0006D6572004E616D650053455455500000AE
:100CF00009010000000000000602004475706C69E4
:100D0000636174696E67206D6F64656C005B4D454F
:100D10004E555D20205B455849545D005945530BA5
:100D20004E4F0044454C455445204D4F44454C00E2
:100D30004455504C4943415445204D4F44454C0087
:100D4000204142434445464748494A4B4C4D4E4F4B
:100D5000505152535455565758595A6162636465FD
:100D6000666768696A6B6C6D6E6F707172737475AB
:100D7000767778797A303132333435363738395FAF
:100D80002D2E006578702020252020737731207368
:100D90007732004558504F2F4452000003445220F0
:100DA00048696768004452204C6F77004452204DD8
:100DB00069640044725377320044725377310057AC
:100DC0006569676874004578706F004558504F2F0B
:100DD000445200002B2A52004D49584552005B4DA9
:100DE000454E555D20205B455849545D005945539B
:100DF0000B4E4F0044454C455445204D49583F004B
:100E00005072657373205B455849545D20746F20A0
:100E100061626F7274004D6178206D6978657273DC
:100E20002072656163683A200044454C4554452072
:100E30004D4958205B4D454E555D00536C6F7720F2
:100E400020557000536C6F772020446F776E0044FC
:100E5000656C61792055700044656C617920446F40
:100E6000776E000841646420202020204D756C744A
:100E700069706C795265706C61636520004D756CAA
:100E8000747078005761726E696E67005377697489
:100E9000636800437572766573005472696D00462D
:100EA0006C4D6F64657472696D004F66667365742E
:100EB00000466D5472696D56616C005765696768CC
:100EC0007400536F757263650045444954204D4961
:100ED000582000494E53455254204D495820002D6A
:100EE0002D2D2D202020763E6F66732020763C6FBE
:100EF000667320207C767C3E6F66737C767C3C6FCC
:100F00006673414E44202020204F52202020202074
:100F1000584F522020202076313D3D7632207631C8
:100F2000213D76322076313E7632202076313C7675
:100F300032202076313E3D76322076313C3D76328D
:100F40002000535700435553544F4D205357495495
:100F500043484553000002534146455459205357D6
:100F6000495443484553000002434C454152204DEB
:100F700049584553205B4D454E555D002052455420
:100F800041004368616E6E656C204F72646572004B
:100F900054454D504C4154455300434F50592054F3
:100FA00052494D205B4D454E555D002D2D2D494E2E
:100FB00056004C494D4954530000030303030303F7
:100FC00003030303030303030303004356004355D2
:100FD00052564553005052455345540045444954D8
:100FE0002D3E004355525645000900032D2D2D4935
:100FF0004E56002D2D2D783E30783C307C787C6626
:101000003E30663C307C667C633120633220633343
:101010002063342063352063362063372063382013
:10102000633920633130633131633132633133638B
:10103000313463313563313600454550524F4D20D0
:101040006F766572666C6F7700454550524F4D2044
:101050006F766572666C6F770067656E777269741C
:1010600065206572726F7200454550524F4D2046A3
:101070006F726D617474696E6700426164204545EA
:1010800070726F6D2044617461004D4F44454C2077
:1010900020202020004D452020202020202020003E
:1010A00050085000000000000000006F0000070022
:1010B0000700147F147F14242A7F2A122313086444
:1010C0006236495522500005030000001C224100F1
:1010D0000041221C0014083E081408083E080800BD
:1010E0005030000008080808080060600000201068
:1010F000080402003E49453E0000427F4000625124
:1011000049460041494936001814127F00274545D9
:1011100039003E4949320001790503003649493614
:10112000000649291E000036360000005636000031
:10113000081422411414141414412214080002014A
:1011400051090600060909067E0909097E7F4949F9
:1011500049363E414141227F4141221C7F49494954
:10116000417F090909013E4149497A7F0808087F02
:1011700000417F41002040413F017F081422417F10
:10118000404040407F020C027F7F0408107F3E41B8
:1011900041413E7F090909063E4151215E7F0919FF
:1011A0002946264949493201017F01013F4040401B
:1011B0003F1F2040201F3F4030403F63140814630E
:1011C00007087008076151494543007F414100020B
:1011D000040810200041417F000402010204404045
:1011E000404040000102040020545454787F484499
:1011F00044383844444420384444487F3854545494
:1012000018087E0901020C5252523E7F08040478ED
:1012100000447D40002040443D007F1028440000F1
:10122000417F40007C041804787C0804047838442A
:101230004444387C14141408081414187C7C0804E2
:1012400004084854545420043F4440203C4040206B
:101250007C1C2040201C3C4020403C44281028445A
:101260000C5050503C4464544C440008364100003B
:10127000007F000000413608000808221C08081CF6
:10128000220808A0608000000000000000000000AC
:1012900000000000FFFF0000000000001F3F0000F2
:1012A0003F1F00003030FFFF3030FFFF303030781C
:1012B000CCCCFFFFCCCC8C0C060F0F86C0E0703876
:1012C0001C0C3CFEC7E3F33B1E0C00000000333B4C
:1012D0001F0F000000000000F0F81C0E07030000C4
:1012E000000003070E1CF8F000003030E0C0FCFCEA
:1012F000C0E03030C0C0C0C0FCFCC0C0C0C00000F6
:101300000000000000000000C0C0C0C0C0C0C0C0DD
:10131000C0C00000000000000000000000000080CD
:10132000C0E070381C0C000000000000000000004D
:10133000000000003838000000000000000000003D
:101340000000000003033F3F03033F3F03030C0C77
:101350000C0C3F3F0C0C07030C0E07030100183C5C
:101360003C180F1F383133331E1E3333000000008A
:10137000000000000000000003070E1C38300000D1
:10138000000030381C0E07030000030301000F0F9C
:1013900000010303000000000F0F00000000000028
:1013A000333B1F0F000000000000000000000000A1
:1013B00000000000183C3C18000000000C0E070361
:1013C0000100000000000000FCFE87C3E377FEFC84
:1013D00000000C0EFFFF0000000000000C0E078351
:1013E000C3E77E3C00000303C3C3C3E7FE3C000029
:1013F000C0E070381C0EFFFF00003F3F33333373F3
:10140000E3C30000FCFEC7C3C3C78E0C0000030388
:10141000C3E3733B1F0F00003CFEE7C3C3E7FE3C82
:1014200000003C7EE7C3C3E7FEFC0000183C3C180C
:10143000000000000000183C3C1800000000000004
:10144000C0E0F0381C0E0703303030303030303020
:10145000303003070E1C38F0E0C000000C0E07030C
:101460000383C3E77E3C00000F1F3B3130381F0F62
:10147000000030303F3F3030000000003C3E37334A
:101480003130303000003030303030391F0F000044
:101490000303030303033F3F00000C1C38303038C4
:1014A0001F0F00000F1F383030391F0F00000000E1
:1014B0003F3F0000000000000F1F393030391F0F80
:1014C0000000000030381C0E07030000060F0F0656
:1014D000000000000000333B1F0F00000000000070
:1014E000000103070E1C3830030303030303030347
:1014F000030330381C0E0703010000000000000049
:1015000033330100000000003C7EE7C3C3E77E3CAC
:10151000F0F8DCCEC7C7CEDCF8F0FFFFC3C3C3C30F
:10152000C3E7FE3CFCFE0703030303070E0CFFFFAB
:10153000030303070E1CF8F0FFFFC3C3C3C3C3C3F9
:101540000303FFFFC3C3C3C3C3C30303FCFE0703FB
:10155000C3C3C3C7CECCFFFFC0C0C0C0C0C0FFFF65
:1015600000000303FFFF030300000000000003036B
:10157000FFFF0303FFFFC0E0F0381C0E0703FFFF6F
:101580000000000000000000FFFF0E1CF8F81C0E19
:10159000FFFFFFFF3870E0C08000FFFFFCFE070385
:1015A00003030307FEFC0000000000000000000031
:1015B0003F3F0000000000003F3F3F3F30303030F1
:1015C00030391F0F0F1F3830303030381C0C3F3F80
:1015D000303030381C0E07033F3F30303030303071
:1015E00030303F3F00000000000000000F1F383087
:1015F000303030303F3F3F3F0000000000003F3FB1
:10160000000030303F3F303000000C1C38303038A4
:101610001F0F00003F3F000103070E1C38303F3F03
:1016200030303030303030303F3F000000000000BC
:101630003F3F3F3F0000000103033F3F0F1F383093
:10164000303030381F0FFFFFC3C3C3C3C3E77E3C36
:10165000FCFE070303030307FEFCFFFFC3C3C3C372
:10166000C3E77E3C3C7EE7C3C3C3C3C78E0C030302
:101670000303FFFF03030303FFFF0000000000005C
:10168000FFFFFFFF000000000000FFFFFFFF000062
:1016900000000000FFFF0F1F38F0E0E0F0381F0FE0
:1016A0003F7FE0C08080C0E07F3F03030383C3E34C
:1016B000733B1F0F0000FFFF0303030300000C1C1C
:1016C0003870E0C080000000000003030303FFFF48
:1016D000000030381C0E07070E1C383000000000D8
:1016E0000000000000003F3F00000000000000007C
:1016F0000F1F383033371E1C3F333F3F00000307B6
:101700000E1C38300C1C3830303030391F0F0000C0
:1017100000003F3F000000000F1F383030303038ED
:101720001F0F03070E1C38381C0E07030F1F383815
:101730001F1F38381F0F3C3E0703010103073E3CC3
:10174000000000013F3F010000003C3E37333130D4
:101750003030303000003F3F30303030000000008B
:101760000000000103070E0C0000303030303F3F16
:1017700000000000000000000000000030303030A9
:10178000303030303030000003070E1C383000009D
:101790000000303030303070E0C0FFFFC0E070300B
:1017A0003070E0C0C0E07030303030300000C0E059
:1017B00070303070E0C0FFFFC0E07030303030700B
:1017C000E0C0C0C0FCFEC7C303070E0CF0F89C0CC1
:1017D0000C0C0C0CFCFCFFFFC0E070303070E0C063
:1017E00000003030F3F30000000000000000303053
:1017F000F3F30000FFFF0080C0E070300000000045
:101800000303FFFF00000000F0F03070E0E07070B4
:10181000E0C0F0F0C0E070303070E0C0C0E0703088
:1018200030303070E0C00000000000000000000018
:101830000C1E3F33333333333F3F3F3F3030303084
:1018400030381F0F0F1F3830303030381C0C0F1F4E
:101850003830303030303F3F0F1F3B33333333337A
:10186000030300003F3F000000000000000133338D
:101870003333333B1F0F3F3F0000000000003F3F6A
:10188000000030303F3F303000000C1C3830303822
:101890001F0F00003F3F03070F1C383000000000FF
:1018A00030303F3F303000003F3F00000303000076
:1018B0003F3F3F3F0000000000003F3F0F1F383018
:1018C000303030381F0FF0F03030303030F0E0C0C2
:1018D000C0E0F0303030E0C0F0F0F0F0C0E0703048
:1018E0003070E0C0C0E0F0303030303000003030D8
:1018F000FFFF303000000000F0F0000000000000AA
:10190000F0F0F0F0000000000000F0F0F0F0000057
:1019100000000000F0F03070E0C08080C0E0703067
:10192000F0F0800000000000F0F03030303030B0D7
:10193000F0F070300000C0E03C3E07030000000003
:101940000000FFFF00000000000003073E3CE0C075
:101950000000C0C0C0C00C1CF8F0E0C0C0E0F0F84F
:101960001C0CC0C0C0C03F3F0303030303030100BE
:1019700000010303030303033F3F3F3F0000000058
:1019800000000000303133333333333F1E0C00008E
:101990000F1F383030381C0C0F1F383030381C0CFB
:1019A0003F3F03070E1C38381C0E07030F1F383843
:1019B0001C1C38381F0F30381C0F07070F1C38301D
:1019C000000133333333333B1F0F30383C3E373362
:1019D00031303030000000010F1F383000000000AF
:1019E00000003F3F00000000000030381F0F0100E2
:1019F0000000000000000C0E0703010000010307B7
:101A00000E0C0000000040800804201002011E1A85
:101A10002A1A301A3D1A441A511A5C1A671A536965
:101A20006D706C6520342D434800542D437574004F
:101A3000537469636B7920542D43757400562D548B
:101A400061696C00456C65766F6E5C44656C7461B1
:101A50000048656C69205365747570004779726F32
:101A600020536574757000536572766F20546573EA
:101A700074000000891112239B322446AD5736654D
:101A8000BF74488CC19D5AAFD3BE6CCAE5DB7EE9FA
:101A9000F7F88110080193331A22A5562C47B77521
:101AA0003E64C99C408DDBBF52AEEDDA64CBFFF9DA
:101AB00076E802218B30100299132667AF76344402
:101AC000BD554AADC3BC588ED19F6EEBE7FA7CC8BA
:101AD000F5D983310A2091121803A7772E66B554E1
:101AE0003C45CBBD42ACD99E508FEFFB66EAFDD89A
:101AF00074C904428D5316619F702004A9153227C2
:101B0000BB364CCEC5DF5EEDD7FC6888E1997AAB79
:101B1000F3BA85520C4397711E60A1142805B337A0
:101B20003A26CDDE44CFDFFD56ECE9986089FBBB59
:101B300072AA06638F7214409D512225AB34300681
:101B4000B9174EEFC7FE5CCCD5DD6AA9E3B8788A39
:101B5000F19B87730E6295501C41A3352A24B11660
:101B60003807CFFF46EEDDDC54CDEBB962A8F99A19
:101B7000708B088481951AA793B62CC2A5D33EE139
:101B8000B7F04008C919522BDB3A644EED5F766D11
:101B9000FF7C899400859BB712A6ADD224C3BFF108
:101BA00036E0C1184809D33B5A2AE55E6C4FF77DF1
:101BB0007E6C0AA583B4188691972EE3A7F23CC0E9
:101BC000B5D14229CB38500AD91B666FEF7E744CD1
:101BD000FD5D8BB502A499961087AFF326E2BDD0C8
:101BE00034C1C3394A28D11A580BE77F6E6EF55CB1
:101BF0007C4D0CC685D71EE597F42880A1913AA3A9
:101C0000B3B2444ACD5B5669DF78600CE91D722F90
:101C1000FB3E8DD604C79FF516E4A9902081BBB387
:101C200032A2C55A4C4BD7795E68E11C680DF33F70
:101C30007A2E0EE787F61CC495D52AA1A3B0388268
:101C4000B193466BCF7A5448DD59622DEB3C700E50
:101C5000F91F8FF706E69DD414C5ABB122A0B99247
:101C60003083C77B4E6AD5585C49E33D6A2CF11E30
:101C7000780FC31911241FBECFEFD0E1DEBFCDBF57
:101C800011E0A0E0B1E0E6E3FDED02C005900D92A9
:101C9000A434B107D9F71EE0A4E4B1E001C01D925D
:101CA000AD39B107E1F71CE1C4E7DCE104C02297DC
:101CB000FE010E94546EC237D107C9F70E94F31883
:101CC0000C94996E0C9400003091B70422B7809167
:101CD000B7043817C9F7932F80E030E0282B392B51
:101CE000C901089529E282029001112435952795B2
:101CF0003595279587FD815C86FB880F880B80F9D9
:101D0000992787FD9095281B390BC9010895F894F0
:101D10002091D80D3091D90D7894C9010895482F9C
:101D200050E09A01220F331F63E0440F551F6A955C
:101D3000E1F7240F351F22543E4FC901089590E06A
:101D40009C01220F331F220F331F280F391F2250EF
:101D50003D4FC9010895AF92BF92CF92DF92EF92AB
:101D6000FF920F931F93CF93DF93C82E162FEA0194
:101D7000F22ED02E57FF10C022FF02C08CE101C00E
:101D80008FE09C2D981B892F612F4DE22F2D0E94F3
:101D9000795CD095C195DF4F2D2D2F218C2D612F92
:101DA0004AE30E94795C8F2D90E0B4E0AB2EB12C19
:101DB000A822B922F2FE02C0E2E001C0E0E0CE01BA
:101DC0006CE370E00E94026E9B01442737FD409552
:101DD000542F0F2D00618E2F8C0D612FA2E0EA2E63
:101DE0000E94885EA114B10411F0ECE101C0E1E1B0
:101DF000CE016CE370E00E94026E9C01442737FD27
:101E00004095542F0D2D00618E2F8C0D612FF2E027
:101E1000EF2E0E94885EDF91CF911F910F91FF906E
:101E2000EF90DF90CF90BF90AF9008950F931F93E6
:101E3000062F122F206250E00E94BE5F17FD07C0E0
:101E40008091AA0D602F46E7212F0E94795C1F9197
:101E50000F910895242F409108010E94160F0895B4
:101E60000F93022F442319F445E357E020C0453077
:101E7000A8F4E0918801F0E0EE0FFF1FEE0FFF1FC6
:101E80003197E40FF11DE850FB4F449150E0440FAF
:101E9000551F440F551F4156594F09C0453250F444
:101EA00050E0440F551F440F551F4056594F24E032
:101EB0000E943C5D0F910895FF920F931F93182F7E
:101EC000F62E022F442321F44EE956E024E00EC002
:101ED0008A5E4A3008F485506F2D50E0202F0E9412
:101EE000BE5F812F6F2D4BE956E022E00E943C5DE2
:101EF0001F910F91FF9008950F931F93DF93CF933E
:101F000000D0CDB7DEB7382F162F942F022F4423E1
:101F100029F0463139F04A3E81F408C08A5F47E92A
:101F200056E007C08A5F43E956E003C08A5F4FE886
:101F300056E0202F0E947B5D28C04095441F442717
:101F4000441F81E2841B482F832F39839A830E9488
:101F5000795C3981832F8A5F9A81E92FFF27E7FD1A
:101F6000F095F7FF03C0F095E195FF4FFF27E7FDE0
:101F7000F0953197AF01440F551F4E0F5F1F415B26
:101F8000594F612F23E00E943C5D0F900F90CF913D
:101F9000DF911F910F9108958FE496E00895DF92ED
:101FA000EF92FF920F931F93D82EE62EF42E1091EE
:101FB000AF01E12FFF27E7FDF095F7FF03C0F09594
:101FC000E195FF4FE031A4F483E0E802F001112431
:101FD000E25EF94F8D2D6E2DAF0123E00F2D0E9493
:101FE0003C5D1F3F3CF58D2D86506E2D41E21FC09C
:101FF0008D2D8650E53264F411161CF4412F4F509C
:1020000002C0412F415F6E2D2F2D0E947C0F12C008
:1020100011161CF4412F445202C0412F4C5D6E2D0D
:102020002F2D0E947C0F8D2D8E5E6E2D4DE62F2D57
:102030000E94795C1F910F91FF90EF90DF900895BF
:102040008C3038F4E82FF0E0EE0FFF1FEF50FB4F1D
:102050002AC0803198F4E82FF0E0DF01AA0FBB1FFF
:10206000A257BB4FEE0FFF1FE25AFE4F2D913C913E
:10207000119780819181281B390B0AC0843158F453
:10208000E82FF0E0EE0FFF1FE257FB4F2081318178
:10209000220F331F0DC0843248F4E82FF0E0EE0F1A
:1020A000FF1FE952FB4F2081318102C020E030E068
:1020B000C9010895AF92BF92DF92EF92FF920F9302
:1020C0001F93DF93CF9300D0CDB7DEB7F82E463005
:1020D00008F0DEC0882309F4DEC0863119F08A3E9C
:1020E00019F4D6C061E0D7C0992787FD90959C016F
:1020F00097FF04C022273327281B390B2A307CF492
:102100001F144CF02DE030E0A901481B590BCA0107
:102110000E942861BAC00D960E942861BBC02A5057
:10212000A22EBB249501220F331F2A0D3B1D2C55D7
:102130003E4FF901E85AFD4F5081552309F4A8C0DC
:10214000453029F4F501EE57FB4F80819CC0F90121
:10215000EA5AFD4FD080295A3D4FF901E0805530B1
:1021600008F4A6C0583060F08D2D81504A83598301
:102170000E9420108C018E2D81500E942010A2C040
:1021800020E030E000E010E0583088F4553088F569
:10219000523009F462C0533020F4513009F06EC05F
:1021A00057C05330D1F0543009F068C01CC05A30C9
:1021B00009F44EC05B3038F4583009F43FC0593050
:1021C00009F05CC040C05C3009F44CC05C3008F4DD
:1021D00044C05D3009F052C04AC017FF39C01095A5
:1021E00001951F4F35C017FF38C0109501951F4F3F
:1021F00034C0142F1F5F8D2D60E0412F0E945A10B4
:10220000082F8E2D60E0412F0E945A10F501EE0F2D
:10221000FF1FEA0DFB1DE450FC4F9081953029F41F
:10222000002361F1882341F52AC0963029F4002368
:1022300019F5882319F120C0802721C081E00217F9
:102240001307E1F41CC081E002171307C1F416C0A4
:1022500081E0201731079CF011C081E002171307BD
:1022600074F00CC081E0021713074CF407C081E042
:102270002017310724F402C081E001C080E0F5019D
:10228000EE57FB4F80831F142CF061E0682703C0DA
:1022900060E001C0682F862F0F900F90CF91DF91E3
:1022A0001F910F91FF90EF90DF90BF90AF90089536
:1022B0008D2D81504A8359830E9420108C018E2DD0
:1022C0000E94720E9C014A8159815ECF86B380952F
:1022D0008E7708950E9466118823E1F70E94976027
:1022E00008958091750160E040E00E945A108823B3
:1022F00031F480919F049091A004009711F0C79A47
:102300000895C79808950F931F93CF93DF93EC011F
:102310008B010E940F5C82E260E049E056E024E01D
:102320000E947B5D80E2BE010E94A25D88E2B8014E
:102330000E94A25D80E363EF75E00E94A25D0E94AF
:102340002860809172010E941E600E946A11DF91D4
:10235000CF911F910F9108950F93AB0160E123E09E
:1023600000E00E943C5D0F910895DF92EF92FF9292
:102370000F931F93CF93DF938091870181FD83C0DB
:1023800088E895E062E775E00E94831190919F01D3
:10239000892F887341F0883131F0883221F0803301
:1023A00011F0883329F4892F877C886080939F01FE
:1023B00000E010E065E1E62EF12C08C0C701801BAB
:1023C00091090E942861110F182B0F5F0830B0F39C
:1023D000D0909F01D12680E060E14BE555E026E1F9
:1023E00000E00E943C5DCD2DD0E0CE0180FF05C015
:1023F00082E06FE476E00E94AC11C1FF05C087E186
:1024000062E576E00E94AC11C2FF05C08CE265E592
:1024100076E00E94AC11CE01887390700097B1F005
:10242000012F13FF05C081E468E576E00E94AC113E
:1024300004FF05C081E46BE576E00E94AC1105FF66
:1024400005C081E46EE576E00E94AC11C6FF05C0D0
:1024500086E561E676E00E94AC11D7FE05C08BE60A
:1024600064E676E00E94AC110E94286080919F0192
:10247000181749F00E946611882329F40E947111EF
:1024800000E010E09BCFDF91CF911F910F91FF9063
:10249000EF90DF9008951F93CF93DF930E94661112
:1024A00020E030E011E0482F50E02F5F3F4FBA01AD
:1024B000022E02C0759567950A94E2F760FD03C08D
:1024C0001F5F183091F71150163030F5812F0E94A0
:1024D0008D56882309F110937101812F0E94915626
:1024E00081E00E945D570E940F5C86E160E043E559
:1024F00055E024E00E947B5DC4EAD1E01AE04991F6
:10250000812F68E124E00E94795C155F1837B9F7E4
:102510000E9428600E946A11DF91CF911F91089557
:10252000CF93DF93EC010E940F5C82E260E04BE40A
:1025300055E024E00E947B5D88E1BE010E94A25D1F
:102540000E942860809172010E941E60DF91CF91ED
:1025500008951F93CF93DF93EC01162F0E940F5C19
:1025600082E260E045E455E024E00E947B5D88E182
:10257000BE010E94A25D8CE168E347E355E00E9442
:10258000AA5D0E942860112319F48091720101C094
:1025900089E10E941E6082E10E94326D0E946A11F0
:1025A0000E9466118823C9F480916C0E833019F45F
:1025B000A89510926C0E8091750160E040E00E9439
:1025C0005A10882331F480918C01882311F411234F
:1025D00011F0C79AE5CFC798E3CFDF91CF911F9154
:1025E000089580918104882351F087E995E060E0A7
:1025F0000E94A912809181048E7F809381040895A6
:102600008091870187FD07C0887329F482EC95E0EB
:1026100060E00E94A91208958091870182FD0AC09E
:102620000E947E58883C910528F48FE096E060E097
:102630000E94A9120895EF92FF92CF93DF93A82FE3
:10264000AF70A6509091B601923074F0292F3327C5
:1026500027FD309521503040C1E0D0E002C0CC0FC2
:10266000DD1F2A95E2F79C2FA83008F09CC06A2F46
:10267000659570E0FB01EE0FFF1FE050FF4F0190EA
:10268000F081E02DB081992379F4CB2FDD27C7FDB0
:10269000D095D7FF03C0D095C195DF4F9C2FC7FDC4
:1026A0009D5F959595959F5F4091880150E04170A1
:1026B000507022E030E0241B350B2617370769F4F1
:1026C0002091B5012F7009F473C021E094E030919E
:1026D0008A0130FF03C0919501C020E04B2F5527A0
:1026E00047FD5095C92FDD27C7FDD095A0FF03C03A
:1026F000C40FD51F04C0BA016C1B7D0BEB012097E2
:1027000029F07E019F2D9B2797FF0BC0222349F4C0
:10271000BB2339F010820E94876186E10E94326DEE
:1027200041C0CE0184589F4F893F9105B8F4C083C2
:1027300086E00E945D57CE0183589F4F8B3F9105E5
:1027400088F5D7FF03C0D095C195DF4FD595C795C4
:10275000D595C795BE01645C462F1FC01C161D068B
:1027600014F48DE701C083E8808386E00E945D5702
:10277000CE0183589F4F8B3F9105A0F4CE01D7FF28
:1027800003C0909581959F4F64E070E00E94026EB7
:10279000709561957F4F462F445C89E494E065E134
:1027A0000E94BF6B80E0DF91CF91FF90EF90089582
:1027B00020E08DCF8F929F92AF92BF92CF92DF9207
:1027C000EF92FF920F931F93CF93DF93182FEB019C
:1027D0005A016901802E84FF06C01F70106694E0C4
:1027E000992E05E003C085E0982E04E0802F8066D6
:1027F000181761F0802F8064181741F08091200530
:10280000882369F0133611F0133449F47E010894DB
:10281000E11CF11C83E10E94326D892D18C0992DB5
:102820009066191761F0992D9064191741F088236B
:1028300009F474C0123619F0123409F06FC07E0129
:102840000894E108F10884E10E94326D802F90E045
:102850000E942861882351F0EE24FF24EC1AFD0A1F
:10286000892D0E948761802F0E948761A114B10485
:1028700091F481E0C816D10471F4103661F410921D
:10288000200501E0E02EF12C209711F0EE24FF242A
:1028900080E60E94876120919C0430919D04E21A99
:1028A000F30ACE14DF0444F4812F0E94876183E190
:1028B0000E94326D76010AC0EA14FB043CF4812FB9
:1028C0000E94876184E10E94326D7501EC16FD065D
:1028D000A9F0E114F10451F4812F0E947861D7FF2F
:1028E00002C083E101C084E10E94326D882D8370B3
:1028F0000E945D5781E08093990402C01092990470
:10290000C701DF91CF911F910F91FF90EF90DF9062
:10291000CF90BF90AF909F908F9008957E01A6CFEB
:102920000F93772767FD7095552747FD50953327FF
:1029300027FD30950E94DA130F9108950F937727A2
:1029400067FD7095552747FD5095332727FD309536
:1029500002E00E94DA130F9108950F93772767FD25
:102960007095552747FD5095332727FD309501E099
:102970000E94DA130F910895E0919804F0E0EE0FB1
:10298000FF1FE057FB4F808191810895909198043B
:10299000992319F4882331F418C0882319F4892F56
:1029A000815001C080E08093980487E10E94326DDD
:1029B000E0919804F0E0EE0FFF1FE257FB4F01900B
:1029C000F081E02D8EEB0995089583E295E060E0BB
:1029D0000E94A9120895FC01A0919804B0E0AA0FEA
:1029E000BB1FA257BB4F8D939C938FEB099587E13B
:1029F0000E94326D0895CF93DF93EC01809198048B
:102A0000982F9F5F90939804953040F0809398049E
:102A100080E195E060E00E94A9120FC087E10E946A
:102A2000326DE0919804F0E0EE0FFF1FE257FB4F8C
:102A3000D183C0838FEBFE010995DF91CF9108957B
:102A400089E494E00E94BE6A882311F084E105C005
:102A50008091B804882321F081508093B80407C086
:102A60009091630081E091FF80E08093B9048091B0
:102A7000B90408951092A3041092A5041092A4041E
:102A80001092A204089520919F043091A004211572
:102A9000310531F0215030403093A00420939F0441
:102AA000882369F040918C0150E084EF91E0489FC9
:102AB0009001499F300D589F300D112402C020E035
:102AC00030E08091A104882369F06091940170E066
:102AD00044EF51E0649FC001659F900D749F900D7D
:102AE000112402C080E090E040919F045091A00426
:102AF0004217530720F43093A00420939F042091A1
:102B00009F043091A0042817390720F49093A00463
:102B100080939F040E9471110895E82FF0E0E85F10
:102B2000FA4FE491F0E0EE0FFF1FE454FB4F2081D9
:102B30003181C9010895CF92DF92EF92FF920F93F6
:102B40001F93DF93CF930F92CDB7DEB720E0CC2455
:102B5000DD24822F29830E948D15092F10E0C00EDD
:102B6000D11E29812F5F2430A1F7C6010F90CF918C
:102B7000DF911F910F91FF90EF90DF90CF9008951C
:102B80001F930E94870E41E02091EF043091F004E2
:102B90008217930709F440E040939E040E94870E39
:102BA0009093F0048093EF0485E295E060E00E944A
:102BB000963580919E04882309F4CBC08091A204AD
:102BC00080FF14C08091A304982F9F5F9093A3046B
:102BD000943660F083568093A3048091A40490916E
:102BE000A50401969093A5048093A40480E00E941C
:102BF0006B570E940F5C0E949A600E941B13182F53
:102C00000E9443152091FD043091FE0480919A04A6
:102C100090919B04821B930B60E270E00E94026E15
:102C200070939D0460939C046115710591F08091EF
:102C3000ED049091EE04821B930B62E070E00E9421
:102C4000026E70939D0460939C0430939B042093C8
:102C50009A043093EE042093ED0480918A0185FF5D
:102C600004C010929D0410929C04E0919804F0E03E
:102C7000EE0FFF1FE257FB4F0190F081E02D812FF7
:102C800009950E9428600E942015882321F08091D8
:102C900065008F7E03C08091650080618093650030
:102CA0000E94870E8F7190708230910509F04FC09D
:102CB00087E00E948D159C01E4E0220F331FEA9506
:102CC000E1F768E070E00E94026E409174015527C0
:102CD00047FD50954A5F5F4F649FC001659F900D0F
:102CE000749F900D1124820F931F20918A0126FD5D
:102CF00005C06091090170910A0102C060EF70E0A7
:102D00002091080130E02F5F3F4F0E94EE6D260FAB
:102D1000371F35952795209308018091EC04805E3C
:102D20008093EC04882399F480917301281778F438
:102D3000223368F081E10E94326D80918A0183FF25
:102D400006C082E390E09093A00480939F041092C9
:102D5000A1041F910895ACEBB4E0ECECF4E060E06A
:102D6000862F806487B9369A408951898D919C91CC
:102D7000119796958795840F951F8E7F11969C933A
:102D80008E9320813181C901840F951F9695879577
:102D9000918B808B349BFECF349A84B195B1820F96
:102DA000931F96958795819391936F5F12966830E4
:102DB000B9F60895EF92FF920F931F93CF93DF938D
:102DC00080918A0184FD44C00E9471110E940F5CB1
:102DD00080E060E045ED50E020E000E00E941A5CF9
:102DE0008091900184FD08C080E068E345E951E0EE
:102DF0002AE000E10E943C5D0E94286080917201FF
:102E00000E941E600E946A1100E20E94AB160150EF
:102E1000E1F70E949B158C010E94870EEC01C057C0
:102E2000DE4F0DC00E94AB160E949B157C010E94D4
:102E30006611882369F4E016F10651F406C00E9479
:102E4000870EC817D90771F703C00E947111F7CF19
:102E5000DF91CF911F910F91FF90EF900895ECEBD0
:102E6000F4E040E012C067B9369A349BFECF349A42
:102E700024B135B1820F931F5150A9F796958795CC
:102E8000819391934F5F483031F054E080E090E0BF
:102E9000642F6064E8CF0895ECEBF4E020E0822F2B
:102EA000806487B9369A349BFECF349A84B195B149
:102EB000880F991F819391932F5F283081F7089590
:102EC000FF920F931F93CF93DF938091870180FD33
:102ED0003AC08091880190E08170907002E010E02B
:102EE000081B190BF801EE0FFF1FEC5BFE4FC181B1
:102EF000D281609687859089C81BD90B0E944C1798
:102F0000F02E802F0E948D15C817D907E4F40E9477
:102F100066118823C1F40DC00E944C178F2D0E94AA
:102F20008D15C817D9077CF40E946611882341F0DB
:102F30000AC081EE95E062ED75E00E948311ECCF4E
:102F40000E947111E9CFDF91CF911F910F91FF90F6
:102F500008958EE587B9369A349BFECF349A84B1B2
:102F600095B104964091090150910A019A0163E0DC
:102F7000220F331F6A95E1F7241B350B820F931F35
:102F800023E0969587952A95E1F790930A0180931F
:102F90000901089578941F920F920FB60F92112491
:102FA0008F938091B7048F5F8093B7048F910F90B8
:102FB0000FBE0F901F90189578941F920F920FB626
:102FC0000F9211242F933F934F935F936F937F93AF
:102FD0008F939F93AF93BF93EF93FF93F89487B72B
:102FE0008D7F87BF789481B78E5F81BF90914B04AE
:102FF00080914D04882379F080919301882349F0D2
:10300000813051F480919C0E890F80939C0E87FF34
:1030100002C01B9A01C01B9880910B01982F915000
:1030200090930B01882371F48DE480930B0189E464
:1030300094E00E94D26A0E94986180916C0E826036
:1030400080936C0EF89487B7826087BF7894FF9165
:10305000EF91BF91AF919F918F917F916F915F9110
:103060004F913F912F910F900FBE0F901F90189589
:1030700078941F920F920FB60F9211241F932F93E3
:103080003F934F935F936F937F938F939F93AF93F0
:10309000BF93EF93FF932091800030918100F894CB
:1030A00080917D008F7D80937D0078948091BA041B
:1030B0009091BB04A901481B590BCA0196958795AD
:1030C0003093BB042093BA041091B604212F2150F1
:1030D000283058F59C012152334055E027373507F9
:1030E00008F5E12FF0E0EE0FFF1FEC55FB4FAC01B0
:1030F0004C5D554020918E01332727FD3095265F8A
:103100003F4F429FC001439F900D529F900D11244D
:103110006AE070E00E94026E718360831F5F10930B
:10312000B6040CC01092B60409C0815A9F402EE22A
:103130008F3D920718F481E08093B604F894809153
:103140007D00806280937D007894FF91EF91BF9124
:10315000AF919F918F917F916F915F914F913F912F
:103160002F911F910F900FBE0F901F901895EEE9B1
:10317000FEE09F0181918535E1F32D593E40C90163
:103180000895CF93DF930E94640EEC0180918B0130
:10319000813019F40E94AB1607C0823019F40E94E6
:1031A0002F1702C00E944C178EE587B90E94C015E8
:1031B0000E94A91780916C0E833019F4A895109283
:1031C0006C0E0E94640E8C1B9D0B2091C8063091E2
:1031D000C9062817390720F49093C9068093C806BA
:1031E000DF91CF9108951F938FEF8ABB1BBA91E8AF
:1031F00097BB9EE798BB9EE394BB91EC95BB11BA3D
:1032000082BB88E082B987EF83B910926100109287
:10321000620084E1809364008BEF809365000E94DC
:10322000E85F0E94766D80E487B985E886B987E01B
:1032300083BF8CE981BF87B7836087BF1FBC8AE0EB
:103240008EBD10928B0082E880938A0080917D0071
:10325000806280937D00EDB7FEB7329785E502C0AE
:10326000808331979EE0ED39F90709F0C8F778942B
:1032700084E79FE390938F0480938E0489E10E94FA
:103280001E600E941657109171010E944B1280918E
:1032900072010E941E6050918C014091940145176B
:1032A00078F4652F70E024EF31E0629FC001639FE6
:1032B000900D729F900D11249093A00480939F0411
:1032C000541770F450E024EF31E0429FC001439F57
:1032D000900D529F900D11249093A00480939F0411
:1032E0000E94711180919301813039F480918A019B
:1032F00084FD03C087E00E94326D0E94DA160E94AE
:103300000C130E944C170E9460170E94B5110E9476
:1033100000130E94F1120E946A1180EF90E09093D6
:103320000A01809309010E9429692DE088E190E05B
:103330000FB6F894A89581BD0FBE21BD85E295E03A
:1033400060E00E94963584E591E30E94FB1481E0E1
:103350000E94C614809172010E941E6080917101CA
:10336000181729F081E00E945D570E94F95780EDFF
:1033700097E09BBD8ABD80E186BF87B7806187BF2C
:103380000E94C118FDCF89E494E00E94BB6A0895B1
:1033900029E28202900111243595279535952795CC
:1033A00087FD815C86FB880F880B80F9992787FD54
:1033B0009095281B390BC90108959C01E5E03595CE
:1033C0002795EA95E1F7AC01440F452F441F550BB3
:1033D000280F391F892F990F990B8595280F391FB1
:1033E000241B350BC9010895F8942091D80D309114
:1033F000D90D7894C9010895CF92DF92EF92FF9290
:103400000F931F93D82EC62E142F042F0695E82E47
:10341000E01AF62EF01A8E2D6F2D0E942C5E602F72
:103420006C0D8E2D412F0E94285E802F8D0D6F2DEB
:10343000412F0E942C5E8E2D6F2D412F0E94285E01
:103440001F910F91FF90EF90DF90CF900895AC0106
:1034500080E060E021E00E947B5D08950F931F9360
:10346000CF93DF93182F8FE198E00E94271A11362F
:1034700058F0133628F0133639F48CE49BE102C07F
:1034800084E79FE30E94EB1486E068E047E158E0A0
:103490000E94AA5D40914006509141068AE268E090
:1034A00020E000E00E94AB0E40914206509143069E
:1034B0008EE468E020E00E94AB0E86E060E14FE021
:1034C00058E00E94AA5D40914406509145068AE268
:1034D00060E120E00E94AB0E409146065091470605
:1034E000F4E056954795FA95E1F78EE460E120E027
:1034F0000E94AB0E86E660E04BE058E00E94AA5DB9
:1035000040913E0650913F068EE460E020E00E942C
:10351000AB0E8091C4069091C5068937910528F0BD
:103520008091C306C82FD0E002C0C0E0D0E082E0A6
:103530006CE34EE70E94285E85E06CE143E20E9466
:103540002C5E1BE0812F6BE343E00E942C5E1A5F30
:103550001338C1F716E00CE3FE01E55BF94F40813B
:10356000602F641B812F0E942C5E2196C837D105E5
:1035700010F0C0E0D0E02091C30630E0C217D307BE
:1035800019F01F5F1E3741F7DF91CF911F910F9107
:1035900008951F93CF93DF93182F84E298E00E9441
:1035A000271A113631F40E94916D84E79FE30E943F
:1035B000EB14CAE7DEE01CE04991812F68E120E1CD
:1035C0000E94795C812F60E24F8520E10E94795C46
:1035D0001A5F1C3689F780919A0E882309F458C027
:1035E0000E948F6D83E090E00E942861882351F053
:1035F0008091410190914201807D907090934201B1
:103600008093410182E090E00E942861882351F07C
:103610008091410190914201807B90709093420192
:103620008093410185E090E00E942861882351F059
:103630008091410190914201807790709093420176
:103640008093410184E090E00E942861882351F03A
:103650008091410190914201807E9070909342014F
:103660008093410110929A0E809141019091420104
:103670000E94976D8FE99FE00197F1F700C000006D
:103680000E948D6D80EF90E0909342018093410104
:10369000DF91CF911F9108951F93182F89E798E02C
:1036A0000E94271A1236E1F0133628F4103631F052
:1036B0001136E9F418C01336D1F415C08FEF97E036
:1036C00090930D0180930C011092C7061092C606CC
:1036D0001092C9061092C80687E10E94326D07C099
:1036E0008EE29AE102C084E79FE30E94EB1488E037
:1036F0006AE678E00E94A25D4091C6065091C70636
:103700005695479584E568E00E94CE5F80E16BE5C1
:1037100078E00E94A25D40910C0150910D015695F8
:10372000479584E560E10E94CE5F88E16CE478E033
:103730000E94A25D4091C6065091C70680910C017F
:1037400090910D01481B590B5695479584E568E10A
:103750000E94CE5F80E263E478E00E94A25D209147
:10376000C8063091C90684E690E0289FA001299FF1
:10377000500D389F500D1124A4E056954795AA95F9
:10378000E1F784E560E220E30E94BE5F88E26BE33C
:1037900078E00E94A25D0E94B718AC018FE368E256
:1037A0000E94AE5D82E168E349E258E00E94AA5DB2
:1037B0001F91089583EF9FE00895442319F044EF8B
:1037C00054E002C040EF54E091E0222309F490E07D
:1037D000292F0E947B5D08950F93942F01E02223EF
:1037E00009F400E04BEE5FE0292F0E94665D0F9127
:1037F0000895FF920F931F93F82E062F142F80E841
:1038000060E0402F50E0212F0E94BE5F0A3010F090
:103810000FE601C005E7802F60E04FE2212F0E94F4
:10382000795C4F2D50E04F5F5F4F802F60E0212F7C
:103830000E94BE5F1F910F91FF9008956F927F923B
:103840008F929F92AF92CF92DF92EF92FF920F935F
:103850001F93CF93DF93EC01162FD42E4901E091F3
:10386000F904F091FA046090FB047090FC048091DC
:10387000C9089091CA088E1B9F0B20E430E0B90163
:103880000E94026E462F609323058091C708909195
:10389000C80886199709B9010E94026E862F6093A5
:1038A0002405442321F0F093CA08E093C908882333
:1038B00021F07092C8086092C70880912205882381
:1038C00021F480918A0185FF06C010922305109291
:1038D00024051092220560912305662351F48091FE
:1038E0002405882331F480919C0490919D040097D5
:1038F00081F040918C0150E024EF31E0429FC00103
:10390000439F900D529F900D11249093A00480939B
:103910009F048114910409F456C08881882309F01A
:103920004BC0662331F180912005882311F5ED2DE0
:10393000E61BE7FDE0E0202F30E08E2F992787FD82
:1039400090958217930714F0E02FE150FF27E7FDD1
:10395000F0958D2D90E0E817F90749F0EE0FFF1F65
:10396000E80DF91D25913491C9010E94EB141092C4
:103970002305153641F4DD2011F0ED2D01C0E02FB7
:10398000F0E031970FC01436C9F42D2D30E0802FB0
:1039900090E00197281739071CF4ED2DEF5F01C067
:1039A000E0E0F0E0EE0FFF1FE80DF91D25913491E6
:1039B000C9010E94EB1402C040E001C041E08D2D1E
:1039C000602F0E94F91BE114F10451F098818C2DB5
:1039D0009C1508F4892FF701E80FF11D549101C0DF
:1039E00050E080912005882309F04FC08091240584
:1039F000882329F14881481B47FD40E0242F3327C5
:103A000027FD30958A2D90E0281739070CF04A2DB4
:103A100048838981E114F10459F0C41608F44C2D4F
:103A2000F701E40FF11DE4918E1718F4E82F01C09F
:103A3000E0E0E98380E68093DA0D10922405888126
:103A4000882319F1909123059923F9F04981E11414
:103A5000F104B1F0491B47FD40E09C2D8C1508F4A2
:103A6000982FF701E90FF11DE491242F332727FD4B
:103A700030958E2F90E0281739071CF04E2F01C08B
:103A800040E0498380E68093DA0D103651F111361B
:103A900090F4133409F480C0143430F4113279F105
:103AA000123409F09CC06AC0143409F43FC01534C4
:103AB00009F095C04FC01436E9F1153638F41236C6
:103AC00009F45FC0133609F08AC069C01138A1F04B
:103AD0001F3B21F0153609F082C040C019821882C0
:103AE00012C0552309F47BC081E09091200591110B
:103AF00080E08093200573C0109220050DC0809156
:103B00002005882319F01092200569C08881882338
:103B100019F08114910421F480E00E94C6145FC062
:103B200087E10E94326D1982188256C089818517FB
:103B300009F455C0E114F10409F451C08091200545
:103B4000882309F04CC08981851710F48F5F12C05B
:103B5000198242C08981882309F441C0E114F1042B
:103B600009F43DC0809120058823C9F58981882307
:103B700019F08150898330C059832EC088818A15FD
:103B800071F180912005882351F588818A1510F400
:103B90008F5F0DC018820EC08881882301F180914B
:103BA00020058823E1F48881882319F081508883D7
:103BB00001C0A8828981E114F10461F098819C150B
:103BC00008F4C92EEC0CF11CF7019491891718F434
:103BD000982F01C090E0998380E68093DA0DDF9101
:103BE000CF911F910F91FF90EF90DF90CF90AF900A
:103BF0009F908F907F906F9008954F925F926F92F9
:103C00007F928F929F92AF92BF92CF92DF92EF926C
:103C1000FF920F931F93DF93CF930F92CDB7DEB731
:103C2000D82E89E69AE00E94271A8BE498E06D2D41
:103C300041E02AEE37E006E0A1E7EA2EAAE0FA2EFC
:103C4000F5E0CF2EE6E0AE2E0E941E1C80904B08C1
:103C500090904C088091630081FF07C08AE268E180
:103C600043E65AE00E94AA5D52C182E168E044E561
:103C70005AE00E94AA5D8A9480912005882319F059
:103C800072E0C72E02C0CC24C394EE24FF2410E1BE
:103C9000A82CBB24A7FCB09464E0662E712C2701ED
:103CA000440C551C8EE791E0480E591E4E2D4F5F77
:103CB00080E0612F20E00E94300FAE14BF0411F4A9
:103CC00091E0911090E0F2012181229526952695B0
:103CD0002370992311F400E001C00C2D88E1612FBD
:103CE00049E45AE099830E94665D99819923C1F065
:103CF000809120058823A1F0F2016181629566958B
:103D0000669563708D2D40E022E00E94AD1482958F
:103D1000880F880F807CF20191819F73982B91838B
:103D2000AE14BF0421F401E0F92DF13009F000E0F8
:103D3000F2018181880F880F85958595FDE08F02BE
:103D4000C0011124B3010E94026EAB01002311F4E3
:103D500020E001C02C2D82E4612F0E94BE5F002371
:103D6000A9F080912005882389F0F2016181660F16
:103D7000660F659565958D2D41EE2FE10E94AD147E
:103D80008F73F2019181907C982B9183AE14BF04C4
:103D900021F491E0F92DF23009F090E0F201208158
:103DA0002770992311F400E001C00C2D88E4612FE5
:103DB0004BE35AE099830E94665D9981992391F0C3
:103DC00080912005882371F0F201608167708D2D4C
:103DD00040E023E00E94AD148770F2019081987F4B
:103DE000982B9083AE14BF0421F401E0F92DF33039
:103DF00009F000E0F2014081459545954595002385
:103E000011F420E001C02C2D8AE5612F0E947C0F67
:103E10000023B1F080912005882391F0F2016081A8
:103E20006595659565958D2D4AEE26E10E94AD1448
:103E3000880F880F880FF20190819770982B9083DC
:103E4000185F0894E11CF11C103309F028CF80E3BF
:103E500060E37AE00E94A25D40918E01552747FD04
:103E60005095465F5F4FF82DF43011F421E201C008
:103E700020E28EE460E30E94BE5F282D243049F4E6
:103E80008D2D60918E0146EF28E20E94AD14809343
:103E90008E01EE24E394882D853009F0EE2480E035
:103EA00068E34CE25AE02E2D0E947B5D46EAA42E88
:103EB00044E0B42E06E711E090E3F5014191519101
:103EC0005F01F801219131918F01421B530B440F87
:103ED000551F892F68E320E299830E94BE5F998174
:103EE000985E903951F7EE2091F0FD2DF03679F47F
:103EF000A6E7B1E0E6EAF4E088E001900D92815097
:103F0000E1F781E00E945D5787E10E94326D0F90DA
:103F1000CF91DF911F910F91FF90EF90DF90CF90A5
:103F2000BF90AF909F908F907F906F905F904F90D9
:103F30000895AF92CF92EF92FF920F93AE2CEE24A2
:103F4000FF24CC240E941E1C0F91FF90EF90CF9075
:103F5000AF900895EF920F93DF93CF930F92CDB769
:103F6000DEB7682F87E79AE069830E94271A8DE4FD
:103F700098E0698142E02AEE37E006E0EE240E94F4
:103F8000991F80E16DE677E00E94A25D88E16AE317
:103F900077E00E94A25D80E26DE477E00E94A25D7E
:103FA00088E26EE577E00E94A25D80E36DE777E04E
:103FB0000E94A25D0F90CF91DF910F91EF90089535
:103FC000CF92DF92EF92FF920F931F93DF93CF93E5
:103FD00000D0CDB7DEB7682F86EA9AE069830E94E9
:103FE000271A8FE498E0698143E02AEE37E006E083
:103FF000EE240E94991F9EE0C92ED12C00E010E013
:10400000143020F088EFF82EF00E01C0F02EC6011B
:104010000E942861E82E1F5F8AE26F2D412F20E069
:104020000E947C0F4E2D405D84E46F2D2E2D0E944A
:10403000795C085F0894C11CD11C193009F708E3AA
:10404000CC24DD2410E0812F90E00E942861F82E1E
:10405000A6014957554F80E0602F25E00E94755D0D
:104060004F2D405D80E2602F2F2D0E94795C1F5FF5
:1040700085E090E0C80ED91E0850163021F784E57F
:1040800068E14FE75AE027E00E94755DB6E0EB2E4D
:10409000F12C10E230E084E5612F4BE857E0232F4C
:1040A00000E03A830E941A5CC7010E942861282F11
:1040B000C701019629830E942861082F2981422F78
:1040C000405D8CE6612F0E94795C402F405D88E75F
:1040D000612F202F0E94795C3A813F5F185FE2E0F8
:1040E000F0E0EE0EFF1E3430B1F60F900F90CF913E
:1040F000DF911F910F91FF90EF90DF90CF90089587
:104100008F929F92AF92BF92DF92EF92FF920F93A6
:104110001F93CF93DF93D82E8EEA9AE00E94271A3E
:1041200081E598E06D2D44E02AEE37E006E0EE24CC
:10413000E3940E94991FF0905108C1EFD4E010E081
:1041400000E0812C24E0922EA12CB12C88E1612F7B
:1041500041E40E94385D402F4F5C8EE1612F0E9448
:10416000385D802F0E948D15AC018AE2612F0E947C
:10417000AE5D0730B1F068817981882777FD809541
:10418000982F24E630E040E050E00E94C36DA50186
:1041900094010E94376E8AE5612FA9010E94CE5FCB
:1041A0000AC08F2D813011F040E201C041E28AE562
:1041B000612F0E942A0F0F5F185F2296083031F698
:1041C0008CE668E24BEA5AE022E00E94755D40917D
:1041D000090150910A0188E760E320E00E94BE5F78
:1041E0008F2D813059F4F09222058D2D609174014C
:1041F00041E82FE70E94AD1480937401DF91CF91C5
:104200001F910F91FF90EF90DF90BF90AF909F9024
:104210008F900895EF920F93E42E40E020E030E07D
:1042200000E00E94991F0F91EF900895CF92DF92C6
:10423000EF92FF920F931F93CF93DF938AE26CE28A
:1042400047E10E94FC1986E56CE247E10E94FC19F7
:104250008AE26BE243E00E942C5E89E26CE243E07A
:104260000E94285E86E56BE243E00E942C5E85E5B5
:104270006CE243E00E94285E8091F1049091F20488
:10428000C1E7D0E0BE010E94026E262F8091F304A8
:104290009091F4040FE81FEFB8010E94026E645D74
:1042A000822F865D45E00E94FC198091F704909171
:1042B000F804BE010E94026E262F8091F5049091B1
:1042C000F604B8010E94026E645D822F8A5A45E0AE
:1042D0000E94FC19C9EFD4E04AE3F42E0DE510E08A
:1042E00038E3E32E8991999180509C4FB8010E9448
:1042F000026ED62ED394CE2CCD188F2D6C2D4D2D35
:104300000E942C5E8F2D8F5F6C2D4D2D0E942C5E98
:104310008F2D8E5F6C2D4D2D0E942C5E85E0F80E4A
:104320008F2D8934F9F6DF91CF911F910F91FF9076
:10433000EF90DF90CF9008954F925F926F927F92AF
:104340008F929F92AF92BF92CF92DF92EF92FF92A5
:104350000F931F93DF93CF930F92CDB7DEB7B82E95
:1043600083E09BE00E94271A8EE798E06B2D45E0E2
:104370002AEE37E006E0EE24E3940E94991F1092A3
:104380007E08B2E6EB2EB8E0FB2EA4E5CA2EA8E02C
:10439000DA2E8601470160E0862F69830E948D1521
:1043A000D4014D915C911197282F392F69814217C3
:1043B00053070CF49A01F401219331934F01D80172
:1043C0004D915C911197282F392F241735070CF444
:1043D0009A01F801219331938F016F5F6730E1F605
:1043E0008091530880932205FB2DF03219F0FF3B9A
:1043F00071F40BC08F5F80935308833041F487E1E1
:104400000E94326D81E00E945D57109253088091A6
:1044100053088130B1F0813020F0823009F0A4C01F
:104420003FC08CE060E141EF5AE021E100E00E94F2
:104430003C5D82E168E141EE5AE02FE00E943C5D84
:1044400093C08EE160E144ED5AE02CE000E00E9470
:104450003C5D82E168E142EB5AE020E10E943C5D74
:10446000F0E78F2EF8E09F2E20E008E91AE3E8E657
:10447000AE2EE5ECBE2ED7010D931D937D01F60106
:10448000A192B1926F01822F29830E948D15D401D0
:104490008D939D934D0129812F5F273061F764C073
:1044A00082E160E143EC5AE020E100E00E943C5DE3
:1044B00082E168E142EB5AE020E10E943C5D70E756
:1044C000A72E78E0B72E65E4462E61E0562EF20165
:1044D00050E4852E912CD7018D919D917D01D601BF
:1044E0006D907D906D019C012619370937FF03C03F
:1044F000309521953F4F23333105DCF0D5012D91C7
:104500003C91318320838901081B190BC801B40138
:104510000E94026E061B170B17870687C301821BBA
:10452000930B9C01B4010E94026E261B370B358F42
:10453000248FA2E0B0E0AA0EBB1E3296B0E7EB16C5
:10454000B8E0FB0641F680E090E0F2012191319164
:104550002F01820F931FFDE54F16F1E05F06A9F7CB
:104560009093700180936F010E9416210F90CF915C
:10457000DF911F910F91FF90EF90DF90CF90BF9050
:10458000AF909F908F907F906F905F904F90089525
:10459000282F30E0C901880F991FA90163E0440F5B
:1045A000551F6A95E1F7840F951FA9014F5F5F4F73
:1045B000BA01660F771FA3E0440F551FAA95E1F7D4
:1045C000640F751F62547E4F20953095205E3F4FDB
:1045D000A901440F551FE3E0220F331FEA95E1F7CD
:1045E000420F531F82549E4F0E94676E8AE0E4EF91
:1045F000F2E0DF011D928A95E9F782E00E945D57A3
:104600000E94F95708950F931F93CF93DF93282F9C
:1046100030E0E901CC0FDD1FC90113E0880F991FBD
:104620001A95E1F7C80FD91F8E0102541E4FA90138
:104630004F5F5F4FCA01880F991FA3E0440F551FBA
:10464000AA95E1F7840F951F20953095205E3F4F86
:10465000A901440F551FE3E0220F331FEA95E1F74C
:10466000420F531F82549E4FB8010E94676E8AE02A
:10467000D8011D928A95E9F78091A208CC55DE4FAA
:104680008A8F8B8F84E68C8F82E00E945D570E9418
:10469000F957DF91CF911F910F910895FF920F93DA
:1046A0001F9385EFE5E4F5E0DF011D928A95E9F7B8
:1046B00080913A06AEEBB1E050E021E030E060E0FE
:1046C0007C91772311F0472F01C040E1641738F542
:1046D000F22E032F162F1F5F802F90E0FC01EE0FAC
:1046E000FF1FEE0FFF1FE80FF91FEB5BFA4F912F33
:1046F0009F738081807C892B80648083F182F39416
:1047000053830F5F141738F3962F9095642F822FE1
:104710008F5F890F390F340F290F240F840F7723F0
:1047200059F1832F90E0FC01EE0FFF1FEE0FFF1FEA
:10473000E80FF91FEB5BFA4F4F738081807C548345
:10474000842B8068808322832F5F1A968C911A971E
:10475000781719F41182138205C021832F5F852FEA
:104760008F5F8383822F5F5F1A96503219F42093F4
:104770003A0604C03F5FA4CF80933A061F910F9181
:10478000FF9008951F93182F88E064EF7DE00E944A
:10479000A25D82E168E24DEE5DE00E94AA5D82E1E9
:1047A00060E34EED5DE00E94AA5D113679F01F3B9B
:1047B00019F01036A9F404C080E00E94326D10C0D8
:1047C00080913B060E94C8220E944E23812F0E94A6
:1047D000876181E00E94C61480EC94E20E94FB1481
:1047E0001F910895EEEBF1E080E0908191509031BF
:1047F00008F48F5F3A9692E0EE3FF907B1F708951B
:104800001F93182F80E166E17EE00E94A25D0E9466
:10481000F223482F88E760E150E020E00E94BE5F6D
:1048200080E260E07EE00E94A25D113651F481E6F4
:104830000E94876181E00E94C61480EC94E20E948D
:10484000FB141F9108950E94F223803230F080E023
:1048500094E20E94FB1481E0089580E00895EF92B5
:10486000FF920F931F93DF93CF9300D0CDB7DEB7A6
:10487000182F813208F07BC0882319F4442341F4B7
:1048800076C0803219F4442331F071C0442319F00A
:10489000012F0F5F02C0012F0150812F4A836983CE
:1048A0000E948F0E7C01802F0E948F0EFC01D70189
:1048B0008C91982F91504A816981903108F057C0AE
:1048C0002081213108F053C06623A1F10E942324E6
:1048D000882309F04CC0212F30E0A9014F5F5F4FC2
:1048E000CA01880F991F13E0440F551F1A95E1F76D
:1048F000840F951FB901660F771FA901A3E0440F2C
:10490000551FAA95E1F7640F751F62547E4F2095DD
:104910003095205E3F4FA901440F551FE3E0220F61
:10492000331FEA95E1F7420F531F82549E4F0E94B6
:10493000676E1DC0281759F0442331F08031B8F458
:104940008F5FF701808313C0D7019C9310C0D701FC
:10495000CF010A9604C020813C9131932D93E81732
:10496000F907C9F782E00E945D570E94F9570F903E
:104970000F90CF91DF911F910F91FF90EF900895CD
:104980006F927F928F929F92AF92BF92CF92DF925F
:10499000EF92FF920F931F93CF93DF93182F88ED21
:1049A0009DE00E94271AE0903A06EA9485EA98E092
:1049B000612F44E026ED37E00AE00E94991FC09085
:1049C000A508CC2011F41092A4081236D9F11336A0
:1049D00070F41334A9F1143420F4123409F070C0C7
:1049E00031C01036C1F0113609F06AC045C0103828
:1049F00009F452C0113820F4133609F061C020C008
:104A00001E3BB9F11F3B09F05BC081E08093A30816
:104A10001092A4082EC01C143CF481E09091A408CC
:104A2000911180E08093A4088091A4088093A3084A
:104A30008091A008882309F443C01092A40840C0C4
:104A40001092A3088091A4088823D1F141E0123686
:104A500009F040E08091A1086091A3080E942F24F2
:104A60008091A308882319F0133609F4CA94109290
:104A7000A3080E944E2324C08091A408882301F13A
:104A80008091A10880933B061092A40881E60E94C1
:104A9000876182EC93E212C01C1494F48091A00808
:104AA000882341F00E942324882321F48091A108C7
:104AB0000E9403231092A40880EF91E50E94FB144A
:104AC00038E0D32E77247A9423E6822E9924BB24CF
:104AD000BA9466246394E0901F05E90CFF24F70163
:104AE000EE0FFF1FEE0FFF1FEE0DFF1DEB5BFA4FEA
:104AF0004081842F807C09F462C146FF06C04F7359
:104B000080E06D2D20E00E945C0F1C14E4F4E701AE
:104B1000CC0FDD1FCC0FDD1FCE0DDF1DCB5BDA4FC1
:104B20008981C81681F46D2D695F80E048E10E949B
:104B3000285E8B818093A10888818F738093A2085F
:104B40006092A008B92CF701EE0FFF1FEE0FFF1FB8
:104B5000EE0DFF1DEB5BFA4F808187FF05C194814D
:104B6000C92FDD27C7FDD095AA24A3949281C9122D
:104B7000AA2486FD1FC0FE01EE0FFF1FCE01A3E099
:104B8000880F991FAA95E1F7E80FF91FEB53FE4F25
:104B900040814695477050E04C52524F8091A40896
:104BA000882311F400E001C00A2D82E16D2D21E07F
:104BB0000E943C5DFE01EE0FFF1FCE0163E0880FF7
:104BC000991F6A95E1F7E80FF91FEC55FE4F448DE8
:104BD000552747FD50958DE26D2D2A2D0E94BE5F11
:104BE0008091A408882311F420E001C02A2D8DE2D1
:104BF0006D2D45E20E94795CFE01EE0FFF1FCE0194
:104C000043E0880F991F4A95E1F7E80FF91FEC552B
:104C1000FE4F438D8091A408882311F420E001C049
:104C20002A2D86E36D2D0E94300FFE01EE0FFF1F2F
:104C3000CE0123E0880F991F2A95E1F7E80FF91FAD
:104C4000EC55FE4F458D442359F08091A4088823EC
:104C500011F420E001C02A2D8EE46D2D0E947C0FFE
:104C6000FE01EE0FFF1FCE01B3E0880F991FBA952A
:104C7000E1F7E80FF91FEC55FE4F468D442391F004
:104C800023E0429FA00111244D50504F8091A40871
:104C9000882311F400E001C00A2D86E66D2D23E083
:104CA0000E943C5DFE01EE0FFF1FCE0173E0880FF6
:104CB000991F7A95E1F7E80FF91FE254FE4F21E0C2
:104CC0008581882309F420E0FE01EE0FFF1FCE014D
:104CD00053E0880F991F5A95E1F7E80FF91FE25446
:104CE000FE4F8681882329F0222309F498C04AE2E6
:104CF00003C0222361F044E480912005882311F44D
:104D000020E001C02A2D89E76D2D0E94795C8A2D53
:104D1000813051F55E01AA0CBB1C33E0CC0FDD1FC6
:104D20003A95E1F7AC0EBD1EE4EAF1E0AE0EBF1E0F
:104D3000812FF501648D43E82DE70E949E14F50153
:104D4000848FF701EE0FFF1FEE0FFF1FEE0DFF1D0B
:104D5000EB5BFA4F84818093A10880818F738093ED
:104D6000A2081092A008B92CF701EE0FFF1FEE0F5A
:104D7000FF1FEE0DFF1DEB5BFA4F8181882331F0A1
:104D800088150CF4882E87150CF0782EF701EE0F9D
:104D9000FF1FEE0FFF1FEE0DFF1DEB5BFA4F828131
:104DA000882331F088150CF4882E87150CF0782EA6
:104DB0009394F8E0DF0E292D273009F08CCECC201B
:104DC000A1F08B2D8F3FF9F4C81464F480911F0576
:104DD00090E00197EFEF8F3F9E0711F480E090E0A5
:104DE00080931F057C14ECF414C0FB2DFF3F59F495
:104DF00080911F0590E001972FEF8F3F920761F49C
:104E000080E090E009C08B2D86305CF0992D9830C1
:104E100040F080911F058F5F80931F0502C043E51E
:104E20006BCFDF91CF911F910F91FF90EF90DF90AB
:104E3000CF90BF90AF909F908F907F906F9008958C
:104E40002F923F924F925F926F927F928F929F929A
:104E5000AF92BF92CF92DF92EF92FF920F931F9388
:104E60005C01CC24DD243B018824992464E6262EB1
:104E7000312C412C512CC201B101661977098809E6
:104E80009909A60195010E94C36D7B018C0182E303
:104E900090E0A0E0B0E0E80EF91E0A1F1B1FC6015B
:104EA000B5010E94C36D0E94C36DBC01882799277C
:104EB000A40193010E94C36D44E096958795779570
:104EC00067954A95D1F7E60EF71E081F191FC8010E
:104ED000B701A20191010E94156EC9011F910F91A6
:104EE000FF90EF90DF90CF90BF90AF909F908F900A
:104EF0007F906F905F904F903F902F9008951F93F9
:104F0000CF93DF939C016115710511F1132F111FD0
:104F10001127111F19F0309521953F4F77FF0EC0D3
:104F2000C0E0D4E0709561957F4FCE01821B930B5A
:104F30000E9420279E01281B390B05C0C9010E9431
:104F40002027282F392F112319F0309521953F4F15
:104F5000C901DF91CF911F9108956F927F928F9237
:104F60009F92AF92BF92CF92DF92EF92FF920F93F8
:104F70001F93DF93CF93CDB7DEB7982E962F322FA6
:104F8000802F6E2D222359F0442361F440919C041C
:104F900050919D044115510539F421E001C020E0F4
:104FA000FF2405C022E001C021E0FF24F394332355
:104FB00011F0911121E04A2D433679F44C2D50E047
:104FC000440F551F8A0173E0000F111F7A95E1F716
:104FD000041B150B065A1C4F11C0FA2DF236D9F4DA
:104FE0004C2D50E0440F551F8A0193E0000F111F14
:104FF0009A95E1F7041B150B055A1C4FF8014081E7
:105000000E947C0FFF2009F463C0F8016081892DA4
:105010004AEE26E159C069887724BB24882051F5DF
:105020004C2D50E0440F551F6A01B3E0CC0CDD1C41
:10503000BA95E1F7C41AD50AAA0CBB1CAA0CBB1C72
:10504000CA0CDB1CC60CD71C4EE453E0C40ED51EA4
:10505000F6014081552747FD50950E94BE5FFF2015
:10506000B9F1F6016081892D4CE924E60E949E1475
:10507000F6012DC0DD24AA0CBB1CA601E3E0440F01
:10508000551FEA95E1F74C195D09A40EB51EA80C51
:10509000B11CAA0CBB1CF301EA0DFB1DE25BFC4F2B
:1050A0004081552747FD50954C595F4F0E94BE5F88
:1050B000FF2071F08501060D171D025B1C4F892D25
:1050C000F80160814CE920E00E949E14F801808381
:1050D000CF91DF911F910F91FF90EF90DF90CF90D4
:1050E000BF90AF909F908F907F906F9008952F9278
:1050F0003F924F925F926F927F928F929F92AF9268
:10510000BF92CF92DF92EF92FF920F931F93DF93A4
:10511000CF93CDB7DEB72A970FB6F894DEBF0FBE98
:10512000CDBFD82E8BEC9DE00E94271A8EE998E027
:105130006D2D40E020E030E000E073EDE72E7DE0F3
:10514000F72ECC2453E0A52E0E941E1C40919608F9
:105150004F5F80E360E020E00E94300FF0909E08F7
:105160008091960890E0880F991FFC0123E0EE0FD4
:10517000FF1F2A95E1F7E81BF90BE65AFC4F8081E7
:1051800060E040E00E945A108823C1F080919608A8
:1051900090E0880F991FFC0113E0EE0FFF1F1A9596
:1051A000E1F7E81BF90BE55AFC4F808160E040E035
:1051B0000E945A10882321F411E003C010E001C0BE
:1051C00012E060919608462F50E0FA01EE0FFF1FA3
:1051D000EF50FB4F808191818A3191051CF0109234
:1051E0009D0807C02FEF873E92071CF481E0809353
:1051F0009D082091880130E02170307082E090E0BD
:10520000821B930B8417950741F4643030F480912E
:10521000B501807F11F010929D0880E166EC7DE081
:105220000E94A25D0F92EDB7FEB7319621E0F1101A
:1052300020E080919D0880838D2D61E041E006E3B0
:10524000A0E1EA2EC0909608A12E88240E94AD27E6
:105250000F9088E16FEB7DE00E94A25D0F92EDB7A9
:10526000FEB7319621E03F2D313009F020E08091EA
:105270009D0880838D2D61E041E006E3F8E1EF2E8B
:10528000C0909608A12E882483940E94AD270F9089
:1052900080E269EB7DE00E94A25D0F92EDB7FEB760
:1052A000319621E08F2D823009F020E010828D2D83
:1052B00061E041E00EE1E0E2EE2EC090960873E678
:1052C000A72E88240E94AD270F9088E263EB7DE033
:1052D0000E94A25D0F92EDB7FEB7319621E09F2D9F
:1052E000933009F020E010828D2D61E041E00EE165
:1052F00058E2E52EC090960832E6A32E88240E943C
:10530000AD270F90113019F0123049F404C080E33A
:105310006CEA7DE007C080E365EA7DE003C080E3DE
:105320006DE97DE00E94A25D00919608402F50E05B
:10533000812F90E0880F991F880F991FBA01660F7F
:10534000771F9B01B3E0220F331FBA95E1F7261BAD
:10535000370B820F931F8C559E4FFC01E655FE4F75
:10536000A081A983FC01E555FE4FB081BA83FC0101
:10537000E455FE4F9080E4E69E0E83559E4FDC017F
:105380008C908E0E2091880130E02170307082E088
:1053900090E0821B930B8417950709F062C00430DC
:1053A00008F05FC08091B501807F09F45AC0EE24F7
:1053B000FF24870120E030E0B9816B2E772467FC61
:1053C0007094A1E24A2E512C292C332427FC3094CE
:1053D000F0E4CF2ED22ED801C701B595A7959795A9
:1053E0008795B30129873A870E947F27880F991FE5
:1053F000B2010E94026E629DC001639D900D729D7C
:10540000900D11246FE3A62EAD0C64E670E00E94AF
:10541000EE6DEC2DE61B6E2F8A2D0E94DC5D29853A
:105420003A85C90183709070009761F48A2D6FE30B
:105430000E94DC5D6D2D6695605E8FE30E94DC5DF1
:105440003A8529852F5F3F4F81E290E0A0E0B0E0F0
:10545000E80EF91E0A1F1B1F2E33310509F0BACFC3
:105460007CC0DD249981492E552447FC509401E2EB
:1054700010E0A92DBB27A7FDB095BC83AB8354E6F4
:10548000652E712C40E2A42EBA812B2E332427FCEA
:105490003094E82DFF27E7FDF095FE83ED83FD2D89
:1054A00021E2F29F70011124C701B2010E947F27FF
:1054B000B8010E94026EAB81BC816A9FC0016B9FE4
:1054C000900D7A9F900D11243EE5C32ECD0CB301B3
:1054D0000E94EE6DBA2DB61B6B2F8C2D0E94DC5DE9
:1054E000ED2DF0E0E370F070F887EF83309749F42A
:1054F0008C2D60E20E94DC5D6D2D605E8EE50E9469
:10550000DC5DC701B1010E947F27B8010E94026ED5
:105510002D813E81629FC001639F900D729F900D0F
:1055200011242EE5F22EFD18B3010E94EE6D605E8F
:105530008F2D0E94DC5D8F819885009749F48F2D17
:1055400060E20E94DC5D6A2D6D198EE50E94DC5DD3
:10555000D3949D2D9F3109F0A2CFE0919608F0E001
:10556000EE0FFF1FEF50FB4F408051805201CC24C3
:10557000B7FCC094DC2CC601B50121E230E040E06C
:1055800050E00E94376E822F825A61E04EE30E9403
:105590002C5E409196082091880130E02170307097
:1055A00082E090E0821B930B242F30E08217930758
:1055B00009F050C0443008F04DC08091B501807FA3
:1055C00009F448C0C601B50160507C4F8F4F9F4F12
:1055D00022E030E040E050E00E94376EA9816A2F5F
:1055E000772767FD7095C9010E947F27BC01660F70
:1055F000771F882777FD8095982F292D97FC2D5FA1
:1056000025952595332727FD3095432F532F0E944D
:10561000C36D29E130E040E050E00E94376E79012F
:105620008A01CA01B9012FED3FEF4FEF5FEF0E94F2
:10563000376E622F605C8FE34EE30E94285EC801E4
:10564000B70122E030E040E050E00E94376E79017F
:105650008A013CC01A141B041C041D0414F4698143
:1056600001C06A81772767FD7095C2010E947F277C
:105670009C01442737FD4095542F1A141B041C0429
:105680001D0414F4692D01C0682D67FD6D5F6595DB
:105690006595772767FD7095872F972F0E94C36DBB
:1056A00029E130E040E050E00E94376E79018A0144
:1056B000CA01B9012FED3FEF4FEF5FEF0E94376E48
:1056C000622F605E8FE34EE30E94285EC601B50143
:1056D00029E130E040E050E00E94C36D612CB1E070
:1056E0007B2E812C912CA40193010E94376E82E7BE
:1056F00060E3A90120E00E94BE5FC801B70129E173
:1057000030E040E050E00E94C36DA40193010E948C
:10571000376E84E568E0A90120E00E94BE5F1A149C
:105720001B041C041D0474F4B9816B2F772767FDDB
:105730007095C20144970E947F27F701E81BF90B7F
:10574000CF010BC0FA816F2F772767FD7095C201DB
:1057500044960E947F278E199F099C01220F331FB8
:10576000220F331F280F391F442737FD4095542F30
:1057700084E560E100E3F3E0EF2E0E94885E2A9664
:105780000FB6F894DEBF0FBECDBFCF91DF911F9152
:105790000F91FF90EF90DF90CF90BF90AF909F90D0
:1057A0008F907F906F905F904F903F902F900895D3
:1057B0002F923F924F925F926F927F928F929F9221
:1057C000AF92BF92CF92DF92EF92FF920F931F930F
:1057D000DF93CF93CDB7DEB72F970FB6F894DEBF28
:1057E0000FBECDBF982E83E99DE00E94271A8BE95A
:1057F00098E0692D43E026ED37E00AE0FBE9EF2E63
:10580000FDE0FF2ECC24C394E4E0AE2E0E941E1CCB
:10581000F0909B08FA9430909C08292D203841F490
:10582000F7FC06C0F092960887E798E20E94FB1406
:1058300085E168E043E85DE00E94AA5D8AE593E0C7
:105840009C838B8377E9472E78E0572EE1EFF4E0D5
:10585000FB87EA8710E1662477242F2D332727FD65
:1058600030953A832983C901880F991FFC0153E0C1
:10587000EE0FFF1F5A95E1F7E81BF90BFE83ED834E
:10588000F62CEB81FC81808160E040E00E945A10A0
:10589000882361F0EB81FC81818160E040E00E941F
:1058A0005A10882329F4BB24B39404C0BB2402C03B
:1058B00042E0B42E2B2D30E038872F83C901880FAA
:1058C000991F880F991FA301440F551F9A0103E0E8
:1058D000220F331F0A95E1F7241B350B820F931F0C
:1058E0008C559E4FDC01A355BE4FFC01E455FE4F85
:1058F0003C912081321751F4FC01E555FE4F86554D
:105900009E4F41E02081FC018081281340E0EA8520
:10591000FB8581919191FB87EA879C0197FF04C0E9
:1059200022273327281B390B2A3131050CF040E0A0
:10593000242E8A3191051CF0F201108207C0FFEF7E
:10594000873E9F071CF421E0F201208380918801AB
:1059500090E081709070E2E0F0E0E81BF90BE61552
:10596000F70551F48091B501807F31F0F301E956DC
:10597000F74F1082222423944F2D4F5F80E0612F38
:1059800020E00E94300F5D864C86F2013081F1E00C
:10599000F9873111198680912005882351F4DD247F
:1059A000D39480919C0490919D04009721F4DD2470
:1059B00002C0DD24D39489819A818615970511F45C
:1059C00021E0311020E00F92EDB7FEB73183892D31
:1059D00060E04D2D07E2E12ECF2CAB2C88240E94F5
:1059E000AD270F9029813A812615370509F0D2C0DD
:1059F000332009F0CBC0DD2009F4CCC0222009F40B
:105A0000C9C08F819885880F991F880F991FED81D4
:105A1000FE818E0F9F1F8C559E4FF9858F0F911D14
:105A200086559E4F9F878E87892DEE85FF856081E5
:105A30004CE924E60E949E14EE85FF858083AAC06F
:105A400021E00F92F2018081EDB7FEB78183892DAD
:105A500060E04D2D09E3E12ECF2CAB2C88248394FC
:105A60000E94AD270F9029813A812615370509F04C
:105A700097C0332D313009F08FC0DD2009F490C07C
:105A8000222009F48DC08F819885880F991F880F77
:105A9000991FED81FE818E0F9F1F8C559E4FF985BA
:105AA0008F0F911D84559E4F98878F83892DEF818D
:105AB000F88560814CE920E00E949E14EF81F88512
:105AC00080836EC021E00F92EDB7FEB71182892D61
:105AD00060E04D2D0FE3E12ECF2CF3E6AF2E8824AE
